:10000000ABC10000DAC10000D8C10000D6C10000B9
:10001000D4C10000D2C10000D0C10000CEC1000098
:10002000CCC10000CAC10000C8C10000C6C10000A8
:10003000C4C10000C2C10000C0C10000BEC10000B8
:10004000BCC10000BAC10000B8C10000B6C10000C8
:10005000B4C10000B2C10000B0C100000C948328FC
:10006000ACC100000C94E7250C941D26A6C100002D
:10007000A4C10000A2C10000A0C100009EC10000F8
:100080009CC100009AC1000098C1000096C1000008
:1000900094C1000092C1000090C100008EC1000018
:1000A0008CC100008AC1000088C1000086C1000028
:1000B00084C1000082C1000080C100007EC1000038
:1000C0007CC100007AC1000078C1000076C1000048
:1000D00074C1000072C1000070C100006EC1000058
:1000E0006CC100001C113311B0119A12B912D61252
:1000F000DE129012A629A92998299C29A229E02973
:10010000AD29B129B729BB29BF29C529C929CD29BD
:10011000E029D329D729DB2900000A0B02090C0D9D
:100120000E080703040100000000000000000000AA
:1001300000000000000000000000000000000000BF
:10014000000000001211100000000000000000007C
:10015000000000000000000000000000000001029C
:1001600010202008081020401020408002010201C9
:100170000804020101020408102040808040201081
:1001800008040201800402018040201008040201DA
:100190000804020101020408102040800102040842
:1001A000102040800505050507050808080802021B
:1001B00002020A0A08080404040401010101010101
:1001C00001010303030303030303040707070C0CE4
:1001D0000C0C0C0C0C0C02020202060606060606AB
:1001E00006060B0B0B0B0B0B0B0B00002000230068
:1001F000260029002C002F0032000001000003011E
:100200000601090100002200250028002B002E0015
:100210003100340002010000050108010B0100005B
:100220002100240027002A002D00300033000101A6
:100230000000040107010A0100407A10F35A00A0EF
:10024000724E18090010A5D4E80000E8764817009F
:1002500000E40B54020000CA9A3B000000E1F505DF
:10026000000080969800000040420F000000A08629
:1002700001000000102700000000E803000000005B
:100280006400000000000A000000000001000000FF
:1002900000002C76D888DC674F0823DFC1DFAE5919
:1002A000E1B1B796E5E3E453C63AE651997696E8AC
:1002B000E6C28426EB898C9B62ED407C6FFCEFBC30
:1002C0009C9F40F2BAA56FA5F490055A2AF75C935B
:1002D0006B6CF9676DC11BFCE0E40D47FEF520E691
:1002E000B500D0ED902E0300943577050080841E74
:1002F000080000204E0A000000C80C333333330FCF
:10030000986E12831141EF8D2114893BE65516CF6B
:10031000FEE6DB18D1844B381BF77C1D901DA4BB77
:10032000E424203284725E228100C9F124ECA1E52C
:100330003D2771021503690475059C05C305260652
:10034000D20706082D080B161616D8193C1D4A1D93
:10035000551D6E244F26DF2611241FBECFEFD1E29C
:10036000DEBFCDBF00E00CBF16E0A0E0B2E0EEE3E0
:10037000F2E600E00BBF02C007900D92A831B10772
:10038000D9F72AE0A8E1B6E001C01D92AA38B20769
:10039000E1F713E0C8E5D3E000E006C022970109C9
:1003A000FE010BBF0E94E52BC233D10780E0080796
:1003B000A9F70E9475280C941D3122CE29E130E066
:1003C00040E050E064E170E080E090E00E94BE27F1
:1003D0009B0141E050E06EE172E08091C206909195
:1003E000C3067AD323E230E040E050E06FE070E0F3
:1003F00080E090E00E94BE27AB016BE272E080914A
:10040000C2069091C306EAC20F931F93CF93DF9366
:1004100000D000D0CDB7DEB726E040E052EC61E07E
:1004200070E08BED98E00E94872585E196E09A8345
:1004300089838091D6069091D706A091D806B09175
:10044000D9068B839C83AD83BE83AE014F5F5F4F24
:100450006EE072E084EB98E00E948F1C6091C2060F
:100460007091C3068091C4069091C5066DD087E057
:1004700090E00E9481288C016091C4067091C506AD
:1004800040E04FD21093C3060093C2062EED31E038
:1004900040E355E760E070E088E196E00E94391E95
:1004A0008DDF26960FB6F894DEBF0FBECDBFDF916D
:1004B000CF911F910F9108956091C2067091C3066C
:1004C0008091C4069091C5063FD0882331F0809179
:1004D000C4069091C5060E94A42188E196E00C9480
:1004E000DE1D0F931F93CF93DF9300E020E040E0E9
:1004F00060E08AED96E00E94D32605E22EEF48EAFE
:1005000060EC84ED96E00E94D32686EC96E00E9493
:100510000C178DE990E00E948128EC0106EC16E0B2
:1005200020EF32E04BE557E06AE072E00E943324AE
:10053000D093C506C093C40688E196E0DF91CF91C1
:100540001F910F910C94AD1DFF920F931F93CF93AA
:10055000DF9300D000D0CDB7DEB78C018091E006EC
:100560009091E1068617970721F07093E10660935A
:10057000E006C8010E941320F82E81111DC02AE454
:1005800032E043E552E06CE572E0C8010E94902140
:10059000882391F06CE572E0CE0101960E9440281C
:1005A0004CE552E0BA01C8010E948E23CE010196AB
:1005B0000E94D927FF24F3948F2D26960FB6F89426
:1005C000DEBF0FBECDBFDF91CF911F910F91FF9086
:1005D0000895AB01BC018091E0069091E106D4C181
:1005E000CF93DF93CDB7DEB72A970FB6F894DEBF6F
:1005F0000FBECDBFDB01FE013196BF019F01261B5F
:10060000370B4217530718F02D912193F7CFFB01B9
:10061000E40FF51F1082DDDF2A960FB6F894DEBFD7
:100620000FBECDBFDF91CF9108950F9300E020E082
:1006300040E060E082EE96E00E94D3260F9108959C
:10064000CF93DF93EC0184E294E0998388838D89D2
:100650009E89009739F0DC01ED91FC910280F381D5
:10066000E02D19958F89988D009739F0DC01ED9177
:10067000FC910280F381E02D1995CE01DF91CF919D
:10068000F0C2CF93DF93EC01DBDFCE01DF91CF919E
:100690000C948228CF93DF93EC0170D4882321F04F
:1006A000CE0169D4811106C060E08D899E8983D214
:1006B00060E005C061E08D899E897DD261E08F890F
:1006C000988DDF91CF9177C2CF92DF92EF92FF9218
:1006D0000F931F93CF93DF937A016901EB0100E041
:1006E00010E00E151F0544F469917991C6010E942E
:1006F000F6230F5F1F4FF5CFDF91CF911F910F9121
:10070000FF90EF90DF90CF900895AF92BF92CF927D
:10071000DF92EF920F931F93CF93DF93EC016B0166
:10072000B42E40E0ABD284E294E0998388838FE6D4
:1007300092E09A8F898F8BE892E09C8F8B8F6B2D44
:10074000CE0129D4CE0124D4882339F047E853E0E0
:1007500060EA73E0C6010E948E2361E0CE0111D4ED
:100760008AE090E00E9481285C01E12C860126EA63
:1007700033E040E06EE170E04BD2BE8AAD8A8AE0A1
:1007800090E00E9481285C0124EC33E040E06FE1BE
:1007900070E03ED2B88EAF8A2BE232E0A60161E073
:1007A00070E0CE0182D2BC01CE01F8D3BE01675EFB
:1007B0007F4F960142E050E0CE01DF91CF911F9133
:1007C0000F91EF90DF90CF90BF90AF907DCFEF92E1
:1007D000FF920F931F93CF93DF93CDB7DEB72C9784
:1007E0000FB6F894DEBF0FBECDBF8C017A01CE01EB
:1007F00007960E944028B701CE0101960E9440282A
:100800006BE272E0CE0107960E945528882339F0EA
:10081000C7010E947D2EBC01C801A9D345C062EE6C
:1008200073E0CE0107960E945528882339F0C7014E
:100830000E947D2EBC01C80196D336C06FE672E0DF
:10084000CE0107960E945528882379F065E074E070
:10085000C7010E94AA2EF80125893689892B11F437
:1008600061E001C060E0C901A6D16BE872E0CE0191
:1008700007960E945528882379F065E074E0C70147
:100880000E94AA2EF8012789308D892B11F461E08E
:1008900001C060E0C9018FD1C80176D348E054E0BF
:1008A00060EA73E00E948E23CE0101960E94D92750
:1008B000CE0107960E94D9272C960FB6F894DEBF7A
:1008C0000FBECDBFDF91CF911F910F91FF90EF90A1
:1008D00008950F9300E020E040E060E088EE96E0AD
:1008E0000E94D3260F9108952FEC34E0DC0111967D
:1008F0003C932E9314968D919C911597009739F007
:10090000DC01ED91FC910280F381E02D19940895B2
:10091000CF93DF93EC01E8DFCE01DF91CF910C9410
:100920008228DF92EF92FF920F931F93CF93DF9372
:10093000EC018B01D42E8FEC94E0998388834E8355
:100940007B836A838DE190E00E9481287C014E8147
:10095000B801DBDEFD82EC82DD2071F04AE254E07A
:1009600060EA73E0C801DF91CF911F910F91FF9072
:10097000EF90DF900C948E23DF91CF911F910F9118
:10098000FF90EF90DF900895EF92FF920F931F93E7
:10099000CF93DF938C01EB017A016FE672E0CE0119
:1009A0000E94AA2E892B39F06BE872E0CE010E94DA
:1009B000AA2E892B61F4A701BE01F80184819581DB
:1009C000DF91CF911F910F91FF90EF9000CFDF91BA
:1009D000CF911F910F91FF90EF9008950F931F9368
:1009E000CF93DF93EC01CB018A016BE272E00E94AE
:1009F000AA2E892B81F4B801882777FD8095982F3E
:100A00000E94E32AAB01BC018C819D81DF91CF91D3
:100A10001F910F9134C2DF91CF911F910F910895D3
:100A2000EF92FF920F931F93CF93DF93EC017B0123
:100A30008A018E81882341F049E454E060EA73E042
:100A40008A819B810E948E236EE172E0C7010E9421
:100A5000AA2E892B79F4B8018C819D815CD28E817C
:100A6000882341F042E754E060EA73E08A819B8189
:100A70000E948E238E81882371F04FE854E060EA53
:100A800073E08A819B81DF91CF911F910F91FF903D
:100A9000EF900C948E23DF91CF911F910F91FF90D7
:100AA000EF9008950F931F93CF93DF93EC01CB0149
:100AB0008A016EE172E00E94AA2E892B41F4B801EE
:100AC0008C819D81DF91CF911F910F9138C2DF9171
:100AD000CF911F910F910895FA01A901309719F054
:100AE000319711F49DCFDECF08950F9300E020E001
:100AF00040E060E08EEE96E00E94D3260F910895CC
:100B000027ED34E0FC013183208357C2CF93DF937C
:100B1000EC01F6DFCE01DF91CF910C948228CF93C8
:100B2000DF93EC0160E070E055D287ED94E09983AB
:100B30008883DF91CF9108950F9300E020E040E09B
:100B400060E084EF96E00E94D3260F9108952FED88
:100B500034E0FC013183208330C2CF93DF93EC017A
:100B6000F6DFCE01DF91CF910C948228CF93DF93F3
:100B7000EC0162E070E02ED28FED94E099838883DF
:100B8000DF91CF9108950F9300E020E040E060E016
:100B90008AEF96E00E94D3260F9108952BEE34E061
:100BA000FC013183208308952BEE34E0FC01318376
:100BB00020830C9482280F931F93CF93DF931F926F
:100BC000CDB7DEB78C01FC016483828169830E940A
:100BD0004F2A6981262F30E08217930721F0F80110
:100BE00082810E941A2AF8018481882319F045E045
:100BF00054E002C043EE54E0F801658176818781BC
:100C000090850F90DF91CF911F910F910C948E23BF
:100C1000EF920F931F93CF93DF93EC01862FEBEEB0
:100C2000F4E0F983E88318870F836A837B834C831E
:100C30003E832D83E98661E00E94E12960E0CE01D8
:100C4000DF91CF911F910F91EF90B5CF0F9300E0FF
:100C500020E040E060E080E097E00E94D3260F9122
:100C6000089525EC35E0FC0131832083089525ECBF
:100C700035E0FC01318320830C948228FC0185EC53
:100C800095E09183808373836283448B89E190E054
:100C900097838683108681E490E094878387158606
:100CA000108A118A128A138A0895EF92FF920F9385
:100CB0001F93CF93DF938A01E9016130710581F0C1
:100CC00062307105C1F0672B11F58CE090E00E9455
:100CD00081287C019E01A80160E070E020DF15C042
:100CE0008CE090E00E9481287C019E01A80161E0D7
:100CF00070E0A6D10AC08DE090E00E9481287C01BE
:100D00009E01A80162E070E031DFC70102C080E00F
:100D100090E0DF91CF911F910F91FF90EF90089598
:100D20008F929F92AF92BF92CF92DF92EF92FF92FB
:100D3000CF93DF93EC0189859A850097B9F156D15D
:100D40004B015C018989882321F16B857C8588278B
:100D500077FD8095982F0E94E32A6B017C01A50105
:100D600094010E94932B87FD02C01D8612C020E0D3
:100D700030E040E85FE3C501B4010E94782A9B019E
:100D8000AC01C701B6010E94DD2A181614F081E0FB
:100D90008D878C89882341F04FEE54E060EA73E040
:100DA0008A819B810E948E238D8501C080E0DF9126
:100DB000CF91FF90EF90DF90CF90BF90AF909F903A
:100DC0008F9008958F929F92AF92BF92CF92DF92B1
:100DD000EF92FF92CF93DF93EC018C819D8100977E
:100DE00009F441C003D14B015C018889882371F16A
:100DF0006E817F81882777FD8095982F0E94E32A56
:100E00006B017C0120E030E040E85FE3C501B40104
:100E10000E94792A9B01AC01C701B6010E94932B65
:100E200087FD03C081E0888711C020E030E040E802
:100E30005FE3C501B4010E94782A9B01AC01C701A0
:100E4000B6010E94DD2A18160CF018868C898823BA
:100E500041F048E055E060EA73E08A819B810E949E
:100E60008E23888501C080E0DF91CF91FF90EF90C5
:100E7000DF90CF90BF90AF909F908F900895EF92AA
:100E8000FF920F931F93CF93DF93CDB7DEB72A97CF
:100E90000FB6F894DEBF0FBECDBF7C01FC0184818C
:100EA0009581009711F1A8D0C7018CDFF7018481EB
:100EB00095819CD08E010F5F1F4F22E045E00E947C
:100EC000F82BF701848195819DD0A801BC01F70121
:100ED000828193810E948E23F7018489882371F097
:100EE00042E255E060EA73E005C04EE355E060EA97
:100EF00073E0F701828193810E948E232A960FB6B8
:100F0000F894DEBF0FBECDBFDF91CF911F910F913F
:100F1000FF90EF900895CF93DF93EC017F836E8372
:100F20008C89882341F04CE755E060EA73E08A81C0
:100F30009B810E948E23CE01DF91CF9143CFCF932F
:100F4000DF93EC017C876B878C89882341F040EA32
:100F500055E060EA73E08A819B810E948E23CE0176
:100F6000DF91CF91DDCEFC01748763870895FC018A
:100F7000778366830895FC0180850895FC0180894C
:100F80000895FC01608B0895FC018281938108958E
:100F9000FC0184890895FC01648B0895FC0175832C
:100FA000648308950F9300E020E040E060E086E075
:100FB00097E00E94D3260F9108952FEC35E0FC01B5
:100FC0003183208308952FEC35E0FC0131832083A9
:100FD0000C948228FC018FEC95E0918380837387C9
:100FE000628753834283358324830895FC0166819D
:100FF0007781808591850895FC01468357836087BA
:1010000071870895FC018481958108950F9300E014
:1010100020E040E060E08CE097E00E94D3260F9152
:10102000089527ED35E0FC0131832083C6CFCF93AF
:10103000DF93EC01F6DFCE01DF91CF910C94822893
:10104000CF93DF93EC0161E070E0C4DF87ED95E0C2
:1010500099838883DF91CF9108950F9300E020E07A
:1010600040E060E082E197E00E94D3260F9108956E
:10107000882381F08F3F29F480911A0790911B07F4
:10108000089595E0899FF0011124E15EF84F828177
:101090009381089580E090E00895CF93DF93D82F57
:1010A000C62F60E085E30E941A2A9C2F9F719D2B1A
:1010B0009EBD0DB407FEFDCF1EBC0DB407FEFDCFD7
:1010C000C7FD08C061E085E30E941A2A8EB5DF9152
:1010D000CF9108951EBC0DB407FEFDCFF3CF0F9343
:1010E0001F93CF93DF931F92CDB7DEB7182F062F34
:1010F00060E085E349830E941A2A602F6F71612B9B
:101100006EBD49810DB407FEFDCF4EBD0DB407FE87
:10111000FDCF61E085E30F90DF91CF911F910F919B
:101120000C941A2A0F931F93CF93DF938C01EB013A
:1011300060E085E30E941A2A8AE38EBD0DB407FEA3
:10114000FDCF0C0F1D1FC017D10739F01EBC0DB409
:1011500007FEFDCF8EB58993F6CF61E085E3DF9181
:10116000CF911F910F910C941A2A0F931F93CF9335
:10117000DF938C01EB0160E085E30E941A2A8AE785
:101180008EBD0DB407FEFDCF0C0F1D1FC017D1077C
:1011900031F089918EBD0DB407FEFDCFF7CF61E030
:1011A00085E3DF91CF911F910F910C941A2A1F9321
:1011B000CF93DF93182F1076C12FD0E02091140227
:1011C00030E0C217D30779F043E06FE180EA87DFB0
:1011D000AE0185E0559547958A95E1F76FE180E886
:1011E0007EDF10931402DF91CF911F910895CF936A
:1011F000DF931F92CDB7DEB7682F6983D8DF69818F
:1012000080E00F90DF91CF9148CF1F93CF93DF9372
:101210001F92CDB7DEB7182F6983C9DF4981612FCF
:1012200080E40F90DF91CF911F9159CF1F93CF93FF
:10123000DF931F921F92CDB7DEB7182F69837A8391
:10124000B6DF4981612F80E44ADF61E0610F7A8176
:10125000472F80E40F900F90DF91CF911F913FCFE8
:1012600060911D0770911E076115710519F061509D
:10127000710902C06FEF77E08CE0D8CFF1CFFF9219
:101280000F931F93CF93DF9389E3B1DF882309F492
:1012900044C060911D0770911E07EB012696C11591
:1012A00088E0D80710F0CF5FD74080E0BFDF60E074
:1012B0008AE3F3DE90E090931E0780931D0760E0C1
:1012C0008AE3EBDE20911D0730911E07382B309307
:1012D0001E0720931D0760E08AE3DFDE082F60E031
:1012E0008AE3DBDE182F60E08AE3D7DEF82E40E4E5
:1012F0006EE180E8F4DEF7FE0FC0D0931907C093CB
:101300001807202F30E0312B2450310930931B0770
:1013100020931A078FEF02C0A3DF80E0DF91CF9107
:101320001F910F91FF900895EF92FF920F931F93DB
:10133000CF93DF938B017A018F3FC1F025E0829F2D
:10134000E0011124C15ED84F02C0C8E1D7E0688136
:101350007981600F711F80E069DF8A819B81801B2A
:10136000910BE816F90690F4C70110C08091180798
:1013700090911907860F971F811528E0920728F38F
:10138000BC016F5F7740C8E1D7E0E5CFDF91CF9137
:101390001F910F91FF90EF9008950F931F93CF939C
:1013A000DF938A01A901C0DFEC01B801BBDECE01E9
:1013B000DF91CF911F910F910895CF92DF92EF921D
:1013C000FF920F931F93CF93DF938B016A017901F3
:1013D00095E0899FE0011124C15ED84F6881798131
:1013E000600F711F82E022DF0A80DB81C02DC01BED
:1013F000D10BEC16FD0608F4E701B601CE01B5DE0F
:10140000CE01DF91CF911F910F91FF90EF90DF9070
:10141000CF900895BC0180E009DF60E085E30E9481
:101420001A2A8AE38EBD0DB407FEFDCF1EBC0DB493
:1014300007FEFDCF61E085E30E941A2A8EB508956C
:10144000CF93C62FBC0182E0F1DE60E085E30E940D
:101450001A2A8AE78EBD0DB407FEFDCFCEBD0DB4AE
:1014600007FEFDCF61E085E3CF910C941A2AFF922D
:101470000F931F93CF93DF9395E0899FF001112481
:10148000E15EF84FC081D1812197028113810C0F59
:101490001D1FCE01BFDFF82E882319F060E0CE01BA
:1014A000CFDFBE0184E0C2DEB80186E0BFDE48E0E7
:1014B0006FE180E814DE8CE19ADE81FF04C048E031
:1014C0006FE180EA0CDEFF2041F06F2DCE01DF914D
:1014D000CF911F910F91FF90B3CFDF91CF911F91CB
:1014E0000F91FF900895CF92DF92EF92FF920F93AA
:1014F0001F93CF93DF937C01EB014130510569F4D9
:10150000CB0188DF682FC701DF91CF911F910F9129
:10151000FF90EF90DF90CF9093CF6A01C60ED71E59
:1015200086010150110980E181DEB70184E17EDE90
:10153000C115D84030F4011588E0180710F00F5F8E
:101540001740B80182E172DE40E16FE180EAC7DD59
:1015500040E26FE180E8C3DD6FE180E09EDD85FD64
:10156000FBCFDF91CF911F910F91FF90EF90DF9014
:10157000CF9008950F931F93CF93DF93EB01E5E096
:10158000E89FD0011124A15EB84F4F3FB9F0E49F0E
:10159000F0011124E15EF84F02C0E8E1F7E060815C
:1015A0007181620F731F8D919C91A8018C0F9D1FFB
:1015B0009ADFDF91CF911F910F9152CEE0911807E2
:1015C000F0911907E20FF31FE11588E0F80728F3FF
:1015D000BF016F5F7740E7CFCF93DF93EB01682FB9
:1015E00084ED13DEBE0186ED21DE8AEE00DE80FF93
:1015F00005C08FE090E00E942129F7CFDF91CF91C5
:101600000895CF93DF93EC01D0D061E085E30E9491
:10161000E12961E085E30E941A2A61E083E30E94E8
:10162000E12961E084E30E94E12960E082E30E9415
:10163000E12961E085E30E94E12960E083E30E9403
:101640001A2A60E084E30E941A2A80E58CBD8DB5D9
:1016500081608DBD4FEF60E08FEF41DD62E370E0B0
:1016600080E090E00E94FC2810921E0710921D0757
:1016700060E070E088E0DADD60E070E08CE0D6DD0C
:101680006FEF77E08AE0D2DD61EB88E3BEDD6FE3E8
:1016900070E388E2CBDD69EF77EF80E3C7DD6DE0D3
:1016A00070E080ECC3DD42E362EC80E818DD62E1CB
:1016B0007CE086ECBBDD62E184ECA7DD6CED75E0DF
:1016C0008AECB4DD688184EEA0DD698185EE9DDD64
:1016D0006A8182EE9ADD6B8183EE97DD6C8180EE0C
:1016E00094DD6D8181EE91DD60E071E080E174DF79
:1016F0008FE15DDD40EC6BE180E8F1DC44E06FE11F
:1017000080E8EDDC66E774E084E1DF91CF9164CF9F
:101710000F931F93CF93DF93EC01862FBA01A9019A
:1017200003DE8C010150110960E085E30E941A2A52
:101730008AE38EBD0DB407FEFDCF20E030E0201718
:101740003107C0F41EBC0DB407FEFDCF8EB590E08E
:10175000982F88271EBC0DB407FEFDCF4EB5840F11
:10176000911DC80FD91FC817D90708F421962E5FFD
:101770003F4FE5CF2017310771F41EBC0DB407FEB3
:10178000FDCF8EB590E0982F8827C80FD91FC817B6
:10179000D90708F4219661E085E30E941A2ACE0158
:1017A000DF91CF911F910F910895EFE1F7E08DEC5C
:1017B000DF011D928A95E9F781E098E091838083AB
:1017C0000895DF92EF92FF920F931F93CF93DF93D1
:1017D0007C0140911F07509120074150584E80E0F6
:1017E00098E1EFE1F7E000E0C0E0D0E025E0D22EA4
:1017F0001481112341F0D19ED0011124A15EB84F74
:101800002D913C9101C09A0160817181261B370B9B
:1018100062817381261B370B2E153F0539F485E055
:10182000089FE0011124C15ED84F48C0E216F306BC
:1018300048F42817390730F4D09EE0011124C15E26
:10184000D84FC901111107C02097C1F5CFE1D7E0EA
:1018500085E0D82E1DC0D19EF0011124E15EF84F25
:10186000012FC6CF0A811B8188819981080F191F1A
:10187000D29EE0011124C15ED84F6881798106179C
:10188000170731F04A815B81C8012DDE1983088377
:101890002C812111E7CF20911F07309120078881EB
:1018A0009981281B390B8A819B81281B390B215078
:1018B000384E2E153F0510F480E019C0E4E2F7E041
:1018C00081E022813381232B29F035968F5F893285
:1018D000C1F7F2CF2A813B8148815981240F351FFE
:1018E00031832083F382E2829C8194838C83DF9115
:1018F000CF911F910F91FF90EF90DF900895882373
:10190000F9F0EFE1F7E025E09481981311C095E03C
:10191000899FD0011124A15EB84F14968C91149721
:10192000848313961C921E92129714961C9208950B
:10193000992331F0299FF0011124E15EF84FE4CFA3
:10194000089595E0899FF0011124E15EF84F8081B0
:101950009181860F971F9183808382819381861B5B
:10196000970B93838283089595E0899FF00111245A
:10197000E15EF84F80819181860F971F918380836C
:10198000538342830895FC015381560F50938E096F
:10199000872F99274281480F40938D09A181A093F9
:1019A0008C09E081E0938B09242F30E02817390758
:1019B00048F481E08A0F80938C09811103C0EF5FA6
:1019C000E0938B09852F90E077278617970788F497
:1019D0004F5F40938D0941110CC080918C098F5F3E
:1019E00080938C09811105C080918B098F5F809352
:1019F0008B0908952091920930919309BC01C90186
:101A00000896C1DFE0919209F091930980918B09CA
:101A1000808780918C09818780918D098287809150
:101A20008E098387089580E0E82FF0E0EE0FFF1F16
:101A3000E45FF54F118210828F5F8430A8F380E05D
:101A40009EE1989FF0011124EC56F64F118E8F5FA6
:101A50008430B8F38093EF0780E094E09093F1072F
:101A60008093F0070895CF932091F0073091F1070C
:101A70002F5F3F4F21154DE7340710F020E030E194
:101A8000522F432FE4E9F9E0C0E0C43059F0A18DB2
:101A9000AA2329F0A481B581A417B50749F3CF5F24
:101AA0007E96F3CF3093F1072093F0071092EF0763
:101AB00020E0E0E0F0E04EE12430E0F4429FD0018D
:101AC0001124AC56B64F59963C915997311104C028
:101AD0002093EF07FD0110C0373041F4309739F003
:101AE0005A965C915A97328D351708F0DF012F5FB7
:101AF000FD01E2CF2093EF073097B1F122E0218F73
:101B00002091F20724872091F30725872091F4077D
:101B100026872091F507278720E032E0338B228B40
:101B2000358B248B21E030E0318B208B138E228F7C
:101B300023E0208F168A20E1278B2091F007309137
:101B4000F10732272327322735832483778366835F
:101B5000DC012D913C9111973183208312968D9158
:101B60009C91139793838283CF01CF9108951F9304
:101B7000CF93DF93C0919209D091930926E53AE083
:101B8000309391092093900930938A092093890911
:101B9000833059F4898D8F70833009F0A9C5888905
:101BA0009989892B09F0A4C57FC0823009F080C0D3
:101BB0008091F5078F5F8093F507811113C08091A5
:101BC000F4078F5F8093F40781110CC08091F307B5
:101BD0008F5F8093F307811105C08091F2078F5FBB
:101BE0008093F20710928809109287091092850A53
:101BF0001092840A298D822F8D7F853041F48A8D41
:101C00008F5F8A8F883709F073C5198E71C52223BB
:101C100009F46EC588899989892B09F441C08A8D98
:101C20009FEF980F9A8F811163C58B8D883031F0AB
:101C30009FEF920F923048F4853039F4198E80E886
:101C400080938F090E94CE1812C4853038F493E037
:101C5000082E01C0990F0A94EAF701C090E39A8F09
:101C60008F5F8B8F822F8F708330A1F048F481308B
:101C700009F42FC2823009F03BC510924F0A2CC2E2
:101C8000863009F495C3883009F492C3843009F092
:101C90002FC58EC384E080938F090E94CE1819C48B
:101CA0002F70233009F024C588E080938F09D5C3B5
:101CB00080912E0A853409F01BC58091300A90E08E
:101CC000982F88272091310A820F911D2091870932
:101CD000309188092817390708F40AC590938809B4
:101CE000809387098091340A8F7309F001C5809130
:101CF000350A8111FDC480911C0A90911D0A00973C
:101D000031F420911E0A30911F0A232BA1F020915B
:101D10003E0A30913F0A2817390709F0E9C420919B
:101D2000400A3091410A80911E0A90911F0A28179B
:101D3000390709F0DDC40E943B1D019609F0D8C4A3
:101D40008091370A8630D1F1813009F0D1C4809179
:101D5000420A883009F0CCC41092420A8091440AA9
:101D60009091450A873FAFEF9A0710F0099601C09E
:101D700008969093450A8093440A80913A0A90917C
:101D80003B0A90933F0A80933E0A80913C0A9091CF
:101D90003D0A9093410A8093400A80911C0A9091D9
:101DA0001D0A90933B0A80933A0A80911E0A9091F3
:101DB0001F0A90933D0A80933C0A9EC40E94FF1C18
:101DC000019609F095C48091440A9091450A2091AA
:101DD000420A3091430A40913A0A50913B0A60917D
:101DE0003C0A70913D0AEDEAF9E0C4E9D9E01081BE
:101DF0001123A9F0AC81BD818A179B0781F4AE81C4
:101E0000BF812A173B0759F4A881B9814A175B079C
:101E100031F4AA81BB816A177B0709F474C16E96FD
:101E20007E96AAE0CC30DA0711F720914F0A2F7383
:101E30002230E1F49093ED078093EC0740E04430CA
:101E400098F4E42FF0E0EE0FFF1FE45FF54F2081E0
:101E500031814F5F8217930791F71092EF0720E0CF
:101E6000C0E0D0E03EE17EC04093EF0780914F0A92
:101E700082FD3EC484E180934F0A88E290E0909313
:101E800088098093870980E580934E0A8091490AEA
:101E900090914D0A9093490A3091480A90914C0ACA
:101EA0009093480A30934C0A2091470A90914B0A2C
:101EB0009093470A20934B0A9091460A9093EF071C
:101EC00040914A0A4093460A90934A0A8F5F809352
:101ED0004D0A81110FC081E0830F80934C0A81115C
:101EE00009C081E0820F80934B0A811103C09F5F7C
:101EF00090934A0A8091420A9091430A9093ED0789
:101F00008093EC072091440A3091450A3093430AAC
:101F10002093420A9093450A8093440A80913A0A9A
:101F200090913B0A90933F0A80933E0A80913C0A2D
:101F300090913D0A9093410A8093400A80911C0A37
:101F400090911D0A90933B0A80933A0A80911E0A51
:101F500090911F0A90933D0A80933C0A8BC34730AF
:101F600099F02F5F2430F0F4822F90E0389FF00139
:101F7000399FF00D1124EC56F64F418D4111EFCFF2
:101F80002093EF07EF0110C0209721F0528D4A8D6A
:101F9000451738F7389FE001399FD00D1124CC56F2
:101FA000D64FDFCF2093EF07209709F4A1C3D0933A
:101FB0009309C093920983E08A8F888F1E8A84E0F8
:101FC0008F8B1B8E8091440A9091450A9D838C8350
:101FD0008091420A9091430A9F838E8380913A0AAE
:101FE00090913B0A9983888380913C0A90913D0AA5
:101FF0009B838A8381E0898F8091F2078C8780910F
:10200000F3078D878091F4078E878091F5078F877E
:1020100081E090E0998B888B8091490A8B87809131
:10202000480A8A878091470A89878091460A88876B
:1020300081E090E0DFDC80914E0A282F207F30E0A5
:10204000213531050CF445C082958F7090E00597DD
:10205000880F991F880F991F3091EE0720E0E22F1B
:10206000F0E0E817F9078CF5E05EF54F36A931117D
:1020700005C02093EF071092EE072BC0313011F40A
:102080002F5FEDCF3230E1F447A94430C9F42093FB
:10209000EF073093EE0780AD90E0982F882721ADB1
:1020A000822B9093ED078093EC07813022E092071A
:1020B00010F080E092E09B8B8A8B9D8B8C8B09C00B
:1020C00047A9442311F0240FCACF2093EF07309380
:1020D000EE0780E180934F0A80914F0A82608093DF
:1020E0004F0A82E08093560A94E09093570A8093B7
:1020F000580A1092590A8CE290E0909388098093D4
:10210000870980E665C2D0939309C0939209109223
:102110008F0930914F0A32FF03C0198E80E206C248
:1021200020914E0A22952F70220F220F2093EF0745
:1021300080918709909188094497821B9109909317
:102140008809809387091F70123021F4232F2F7381
:102150002231C9F0892B19F4832F8370A1F090915B
:10216000460A888598132AC29091470A8985981350
:1021700025C29091480A8A85981320C29091490AF5
:102180008B8598131BC234FF49C068897989611512
:10219000710509F443C0CE010C96F5DB30914A0A73
:1021A00080918B0938133AC020914B0A80918C0999
:1021B000281334C090914C0A80918D0998132EC039
:1021C00080914D0A40918E09841328C03C872D8749
:1021D0009E878F878B8D81111AC02E89888D9A8D4D
:1021E000891B922F969596959695891B280F2E8B75
:1021F00087FD81959F89392F36953695931B980FCA
:102200009F8B822F869586958695890F888F81E092
:1022100080938F09888D8A8F198A188A498D842F17
:102220008F7090E0FC013197E830F10508F060C252
:10223000EE58FF4F0C94D52B80918F0980FF58C228
:1022400083E0898F80E480938F09198A188A8091AE
:10225000870990918809009709F4FBC022E4209334
:102260008F09C8DBF6C080918F0980FF6FC0809115
:102270004F0A8F73823109F069C080914E0A282F6E
:10228000207F30E0213531050CF445C082958F70F8
:1022900090E00597880F991F880F991F3091EE07DE
:1022A00020E0E22FF0E0E817F9078CF5E05EF54F4B
:1022B00036A9311105C02093EF071092EE072BC00D
:1022C000313011F42F5FEDCF3230E1F447A94430C3
:1022D000C9F42093EF073093EE0780AD90E0982F7C
:1022E000882721AD822B9093ED078093EC078130F6
:1022F000A2E09A0710F080E092E09B8B8A8B9D8B86
:102300008C8B09C047A9442311F0240FCACF209316
:10231000EF073093EE0783E0898F8091460A888724
:102320008091470A89878091480A8A878091490A63
:102330008B8781E090E05EDB82E480938F09198ACD
:10234000188A109288091092870983C080E28093CE
:102350008F0924D7E0919209F0919309118E86CDCF
:1023600080914F0A80FF26C044FD24C08889998946
:10237000892B09F0BDC18091870990918809019648
:1023800039DB20918F09822F806180938F098091A2
:10239000870990918809892B19F0226120938F0970
:1023A000FDD681E090E0998B888B88E0898F1B8E29
:1023B00081E105C185FF1CC08091540A90E0982FEF
:1023C00088272091550A822B2091900930919109FC
:1023D000280F391F30939109209390092091870984
:1023E00030918809281B390B30938809209387097D
:1023F0008091870990918809009741F044FD06C0BB
:1024000020918F09226020938F09F4DA8091500A7D
:1024100090E0982F88272091510A820F911D909368
:10242000ED078093EC072C893D892817390710F0B8
:10243000892B21F43093ED072093EC078091EC0772
:102440009091ED079B8B8A8B80918F09837009F4A3
:102450004FC11092850A1092840AA0D680918F09EC
:1024600085FF07C01092850A1092840A198E84E1B4
:10247000A6C084FF0AC01092850A1092840A81E0E7
:1024800090E0998B888B84E091CF2091840A3091E1
:10249000850A21153105E1F080FF02C0198A188AEA
:1024A00088899989009781F48A899B898217930783
:1024B00020F49093850A8093840A8091840A9091F5
:1024C000850A998B888B04C09093850A8093840A2F
:1024D0001B8E8091890990918A099093910980932C
:1024E00090098091840A9091850A892B59F08889F6
:1024F0009989009739F08896909388098093870985
:1025000088E10BC080918F0981FFF2C088E290E0E2
:10251000909388098093870980E180934F0A57C080
:1025200080918F0980FFE4C0198E80E180938F092C
:1025300035D6DEC08091870990918809009709F00F
:1025400059DA90914F0A80918F0990FF0BC080FF5C
:1025500006C087E0898F1A8E198A188A18C086E00B
:10256000898F15C080FF1BC085E0898F198A188A62
:10257000BFC08091870990918809009709F03ADAE5
:1025800080914F0A80FF0BC087E0898F1A8E81E00F
:1025900090E030DA80E180938F0900D60FC08091FF
:1025A000870990918809892B49F4A2C080918F09ED
:1025B00080FF9EC087E0898F1A8E9AC080E1809349
:1025C0004F0A88E290E0909388098093870980E51C
:1025D00080934E0A888580934A0A898580934B0AA6
:1025E0008A8580934C0A8B8580934D0A8C858093D5
:1025F000460A8D858093470A8E858093480A8F8589
:102600008093490A86E08093370A8C819D8190935C
:10261000430A8093420A8E819F819093450A80935A
:10262000440A80911C0A90911D0A90933B0A809362
:102630003A0A80911E0A90911F0A90933D0A809356
:102640003C0A8881998190933F0A80933E0A8A814F
:102650009B819093410A8093400A898D84FF05C035
:102660001092510A1092500A05C082E08093500ADD
:102670001092510A80E48093360A809187099091E4
:1026800088099093300A8093310A1092550A10926B
:10269000540A1092530A1092520A0E94FF1C80950D
:1026A00090959093530A8093520A85E480932E0A62
:1026B00010922F0A1092350A1092340A8091F60770
:1026C0009091F70701969093F7078093F607909300
:1026D000320A8093330A1092390A1092380A0E9403
:1026E0003B1D809590959093390A8093380A04C0D9
:1026F000109288091092870910928F09DF91CF916B
:102700001F91089598278927982708959C01AB0168
:102710007093850A6093840A1616170654F4809104
:10272000890990918A092817390719F0B9010C9481
:102730009A2E0895FF920F931F93CF93DF93DC019E
:10274000FB011092010860E07BE0683010F5769F95
:10275000E0011124CA5FD74F288139812115310545
:10276000B1F08A819B81009791F04D915C91119716
:102770004217530761F412962D913C911397281735
:10278000390729F460930108DE0114964FC06F5F8A
:10279000DCCF20E03BE0283090F4329FE0011124B0
:1027A000CA5FD74F88819981892B39F48A819B81AF
:1027B000892B19F42093010830C02F5FECCF2093B0
:1027C0000108283051F50091FF07802F90E010E0BC
:1027D00070E060E02BE0F22E683098F4F69EE001A5
:1027E0001124CA5FD74FCA85AC014C1B5109212F58
:1027F00030E0241735071CF4762F102F1C1B6F5F59
:10280000EBCF1093FE0770930008709301088BE0E4
:10281000789FE0011124CA5FD74F4D915D916D9172
:102820007C91DE014D935D936D937D9386E00190E5
:102830000D928A95E1F78091FF078A87DF91CF910A
:102840001F910F91FF900895109201089BE08091D5
:102850000108883068F4989FF0011124EA5FF74F6F
:1028600010821182128213828F5F80930108EFCF52
:10287000089580918709909188090E97909388090F
:102880008093870980911C0A90911D0A20913A0A31
:1028900030913B0A822793272091180A3091190A18
:1028A00082239323892BB9F480911E0A90911F0AE9
:1028B00020913C0A30913D0A8227932720911A0AE1
:1028C00030911B0A82239323892B29F466E27AE054
:1028D0008AE39AE02FCF0895809187099091880923
:1028E00010928809109287098A9708F408958091B8
:1028F000340A9091350A811521E0920729F081155B
:10290000924009F475C008952091460A3091470A13
:1029100080911C0A90911D0A2817390709F083C07D
:102920002091480A3091490A80911E0A90911F0A0D
:102930002817390709F077C066E37AE08CE39AE05C
:10294000F9DE80E092E09093350A8093340A86E0C5
:10295000E6E3FAE0A0E4BAE001900D928A95E1F78F
:1029600086E0E8EFF7E0A6E3BAE001900D928A95E1
:10297000E1F786E0E8EFF7E0A6E2BAE001900D9219
:102980008A95E1F786E0E0E4FAE0A0E2BAE001909F
:102990000D928A95E1F780913C0A90913D0A9093BF
:1029A000470A8093460A80913E0A90913F0A90938D
:1029B000490A8093480A80911C0A90911D0A9093BD
:1029C0003D0A80933C0A80911E0A90911F0A9093C1
:1029D0003F0A80933E0A88E096E090932D0A809308
:1029E0002C0A8AE290E090938809809387090895E1
:1029F0002091460A3091470A80911C0A90911D0A45
:102A00002817390781F42091480A3091490A8091AA
:102A10001E0A90911F0A2817390729F466E37AE005
:102A20008CE39AE087CE089520913E0A30913F0AC8
:102A30002F3F4FEF340751F48091400A9091410AA3
:102A4000019621F486E0EBEDF5E0C6C080911C0A0A
:102A500090911D0A822793274091180A5091190AD4
:102A600084239523892B91F44091400A5091410A87
:102A700080911E0A90911F0A8427952760911A0A57
:102A800070911B0A86239723892B89F08091140A61
:102A90009091150A90930308809302088091160A7A
:102AA0009091170A909305088093040808C030930A
:102AB000030820930208509305084093040880916E
:102AC000020890910308209104083091050860E005
:102AD0007BE0683090F4769FF0011124EA5FF74FB5
:102AE000408151818417950731F442815381241725
:102AF000350709F46DC06F5FECCF60930108683053
:102B000009F068C046E050E06FEF70E080E29AE0C4
:102B10000E94A32E26E0E0E4FAE0DF01422F1D929E
:102B20004A95E9F7E8EFF7E0A6E2BAE0822F0190D4
:102B30000D928A95E1F7E8EFF7E0A6E3BAE0822F7D
:102B400001900D928A95E1F7809102089091030817
:102B50009093470A8093460A809104089091050853
:102B60009093490A8093480A80911C0A90911D0A0B
:102B700090933D0A80933C0A80911E0A90911F0A0F
:102B800090933F0A80933E0A80E091E09093350A4B
:102B90008093340A90932F0A80932E0A88E090E065
:102BA0009093310A8093300A2093320A84E0809314
:102BB000330A88E096E090932D0A80932C0A86E5EC
:102BC0009AE090939109809390098AE290E01EC068
:102BD00060930108349686E0A0E2BAE001900D927D
:102BE0008A95E1F786E0E8EFF7E0A6E2BAE0019027
:102BF0000D928A95E1F788E090E090932D0A8093FA
:102C00002C0A80918709909188090E9690938809E3
:102C10008093870908950F9300E020E040E060E092
:102C20008EE598E00E94D3260F9108950F9300E05F
:102C300020E040E060E084E698E00E94D3260F9117
:102C40000895DC01ED91FC91008CF18DE02D19953A
:102C500091E08927089580E090E00895DC011C96BA
:102C6000ED91FC911D97309741F08181882311F0FF
:102C700081E00895808184FDFBCF80E00895FC0110
:102C8000448555854115510551F0FB012485358555
:102C90002115310521F081E04217530709F080E04A
:102CA0000895CF93DF931F92CDB7DEB7DC01ED918E
:102CB000FC910088F189E02D41E050E0BE016F5F9A
:102CC0007F4F199597FD03C0898190E002C08FEF77
:102CD0009FEF0F90DF91CF910895CF93DF93EC0199
:102CE000A9D3EC85FD85309749F0808186FD02C02F
:102CF00081E005C08181882311F0FACF80E0DF9167
:102D0000CF910895CF92DF92EF92FF920F931F938E
:102D1000CF93DF9300D01F92CDB7DEB77C018B013C
:102D20006A01DC01ED91FC910288F389E02D19958F
:102D3000F801228130E0322F22278381282B32278D
:102D4000232732273A832983248130E0322F222718
:102D50008581282B3227232732273C832B83C601EA
:102D6000D1DCBC01CE0101960E94330D8C0100978D
:102D700019F480E090E016C0D80159968C918F70BC
:102D8000C1F358D3D80159968C9159978F708330DD
:102D900099F75C968D919C915D97F7019587848753
:102DA00081E090E00F900F900F900F90DF91CF9106
:102DB0001F910F91FF90EF90DF90CF9008950F93A8
:102DC0001F93CF93DF931F92CDB7DEB78C01DC0149
:102DD000ED91FC910688F789E02D19958823A1F0E3
:102DE000D8011C96ED91FC911D978181882361F09B
:102DF00021E030E0AE014F5F5F4F60E070E00E9485
:102E0000CD09898190E002C08FEF9FEF0F90DF9195
:102E1000CF911F910F910895FC011382128248EE09
:102E200053E060E070E0448355836683778385EEEA
:102E300095E091838083158614860895EF92FF9222
:102E40000F931F93CF93DF937C01C0E0D0E000E0AD
:102E500010E0F701EC0FFD1F81810E943808080F78
:102E6000191F2196C530D105A1F7C801DF91CF9177
:102E70001F910F91FF90EF900895CF93DF93EC0196
:102E8000E881F9810688F789E02D1995882329F0D2
:102E90008C859D85DF91CF91D1CF80E090E0DF914F
:102EA000CF910895CF93DF93EAE6F8E080E0908138
:102EB00091110AC08061DF018D9380E1ED011992CB
:102EC0008A95E9F7CF0106C08F5F7196843079F754
:102ED00080E090E0DF91CF910895FC01319681E090
:102EE0009191911102C0815008958F5F8530C1F793
:102EF00084E008959F92AF92BF92CF92DF92EF92BB
:102F0000FF920F931F93CF93DF93EC016B017A0134
:102F10008A015C0186E0A80EB11C8CD2209709F4CE
:102F200045C08881807609F041C0C501D6DF982E62
:102F3000FE01E80FF11D868181110CC080E092E056
:102F40000E94E10BFE01E90DF11D8683882329F320
:102F50001C861B86A701401B510B4C0D5D1D6B850C
:102F60007C859801FE01E90DF11D86810E94DD0935
:102F7000081B190B2B853C85280F391F3C872B8795
:102F8000101611062CF484E0981639F29394D6CFDB
:102F90000E94CD28665F7F4F8F4F9F4F6D877E8742
:102FA0008F87988BC701801B910B02C08FEF9FEF1B
:102FB000DF91CF911F910F91FF90EF90DF90CF9015
:102FC000BF90AF909F900895CF93DF931F92CDB79E
:102FD000DEB7698341E050E0BE016F5F7F4FFC01C7
:102FE0008485958587DF0F90DF91CF910895FC014F
:102FF000848595857FCF0F931F93CF93DF938C01AB
:10300000EC0189910E947F0CF801C8010496299176
:103010002193E817F907D9F7F8011482DF91CF91CE
:103020001F910F9108959F92AF92BF92CF92DF921E
:10303000EF92FF920F931F93CF93DF93EC015B010D
:103040007A01E881F9810688F789E02D19958823AE
:1030500009F455C0EC85FD858181882309F452C0AF
:1030600087012EE1922EA701401B510B4A0D5B1DDB
:10307000EC85FD85980160E070E081810E94CD09BA
:103080006C01EC85FD8581810E943808EC85FD8509
:10309000C816D90649F50C191D09CF010196ABDFF9
:1030A000AC85BD852C91822F90E08F70989EF001A9
:1030B000999EF00D1124EC56F64F818D84FF05C0CA
:1030C000822F807611F420682C93EC85FD85818118
:1030D00081110FC0808186FF03C010821D861C866F
:1030E000C701801B910B10C0B60181810E94A10C09
:1030F00004C00115110509F0B6CFC70105C08FEF57
:103100009FEF02C080E090E0DF91CF911F910F917F
:10311000FF90EF90DF90CF90BF90AF909F90089579
:103120001F93CF93DF93EC0115E088810E947F0C01
:1031300019921150D1F7DF91CF911F910895CF933C
:10314000DF93EC018C859D85009779F0FC0120814F
:10315000222359F00196E4DFEC85FD85808186FF0E
:1031600002C0108202C0806280831D861C86DF91AF
:10317000CF9160C1CF93DF93EC01E881F98106889C
:10318000F789E02D1995882331F08C859D8501966E
:10319000DF91CF91C5CFDF91CF910895DF92EF926C
:1031A000FF920F931F93CF93DF93E0919209F091D9
:1031B0009309C48DD58D209779F480918F0986FF6E
:1031C00043C070DEEC01009709F43EC0E091920923
:1031D000F0919309958F848F80918F0981FF07C0AB
:1031E0008091870990918809892B09F041C08881D5
:1031F00087FF0EC08F77888380918F0982608093CC
:103200008F09E0919209F0919309818D8F7E818FD2
:1032100080918F0984FF6BC0CE01069681DF898182
:10322000882309F467C0E0919209F09193098481A1
:1032300095819F838E83888180648883E091920941
:10324000F0919309158E148EE12CF12CB701809129
:103250009009909191095ADAF0928809E0928709D1
:10326000DF91CF911F910F91FF90EF90DF90089524
:103270008881807609F0BBCFE12CF12C8E010E0DF8
:103280001F1DF801818181111EC0809187099091D5
:1032900088090E94E10BF80181838823A1F0009145
:1032A0008709109188092091900930919109205245
:1032B0003A404091C20860E070E00E94BA0AF4E02F
:1032C000EF1295CF0CC02FEFE21AF20A35E0E316A9
:1032D000F104A1F68091BF088E7F8093BF08E09132
:1032E0009209F0919309818D8061818F80CF87FF52
:1032F00003C092CF1882A2CF80FF03C0CE010696F2
:103300007ADE80918F098C70D1F18E818823B9F19A
:103310009F8191110CC0EB84FC84E114F10409F449
:1033200093CFA70160E070E00E94B40C06C00E9439
:1033300038087C01009709F487CF8091900990911B
:10334000910980529A408093C008F701E80FF11D5F
:10335000CF010E94E10B8093C108882309F476CF46
:103360006091C00870E0870120E030E04E810E944B
:10337000BA0A8091BF0882608093BF0867CF8881B6
:1033800085FF62CF8E8181110BC01882E091920976
:10339000F0919309158E148E80E180938F0954CF9C
:1033A000E0919209F0919309818D8061818F4CCFDA
:1033B0000F9300E020E040E060E08EEA98E00E9499
:1033C000D3260F9108958091BF0881FF11C02091ED
:1033D000C00830E040E25AE060E070E08091C1084F
:1033E0000E94DD098091BF088D7F8093BF0814C0C3
:1033F00080918709909188090E94E10B8093C10810
:103400008823B1F0209187093091880940E25AE081
:1034100060E070E00E94DD098091C1080E94370AD7
:103420008091C1080E947F0C1092C10881E008952C
:1034300080E00895CF92DF92EF92FF921F93CF9397
:10344000DF938091C208811104C00E943F098093DC
:10345000C2088091C208882309F443C091E0909388
:10346000BF080E9438089093880980938709892BA8
:1034700061F122E630E040E25AE060E070E08091E5
:10348000C2080E94CD0980912C0A90912D0A8830A3
:10349000910581F48091C2088093C108EAD981E046
:1034A0000E94B70D8091870990918809892B69F056
:1034B000BBDA0AC08830964041F40EDA8091870961
:1034C00090918809892B09F07EDF8091C2088823BA
:1034D00041F08091BF0880FF04C00E943E09109215
:1034E000C2080E94CD286B017C018091B5089091A3
:1034F000B608A091B708B091B808A7019601281B9B
:10350000390B4A0B5B0BDA01C90180959095A095A8
:10351000B0958827B7FD83959927AA27BB27182F31
:10352000C4E9D9E0D0939309C0939209112311F013
:1035300082E00FC0EC8DFD8D4585568567857089CD
:10354000D701C601841B950BA60BB70BB7FD0BC0AB
:1035500083E00E94B70D2091870930918809232BC1
:1035600011F062DA30DF6E969AE0CC30D907D1F6EE
:10357000112369F0AAEFCA0ED11CE11CF11CC09204
:10358000B508D092B608E092B708F092B808DF917B
:10359000CF911F91FF90EF90DF90CF900895CF9340
:1035A000DF93EC010E94CD2866507F4F8F4F9F4FD5
:1035B0006093B5087093B6088093B7089093B808E5
:1035C000CE010E94010B88818093F8078981809346
:1035D000F9078A818093FA078B818093FB078C819E
:1035E0008093FC078D818093FD070E94130DDF916E
:1035F000CF912AC9CF93DF93FC01DA01E90122813F
:1036000030E0322F22278381282B848190E0982F6D
:1036100088274581842B32272327322730931D0AA0
:1036200020931C0A98278927982790931F0A809334
:103630001E0A12962C91129730E0322F22271396F1
:103640008C911397282B14968C91149790E0982FB7
:10365000882715964C91842B3227232732273093C5
:10366000150A2093140A9827892798279093170AF8
:103670008093160A2A8130E0322F22278B81282B53
:103680008C8190E0982F88274D81842B3227232727
:1036900032273093190A2093180A982789279827E8
:1036A00090931B0A80931A0AFB0182819381A48163
:1036B000B5818093BB089093BC08A093BD08B093DC
:1036C000BE08DF91CF910895AF92BF92CF92DF9263
:1036D000EF92FF920F931F93CF93DF93CDB7DEB797
:1036E00068970FB6F894DEBF0FBECDBFCB016A015D
:1036F000590155DF25E136E03A832983F7018281BC
:103700009381A481B5818B839C83AD83BE833887ED
:103710002F83F80182819381A481B58189879A875B
:10372000AB87BC873E872D87F50182819381A48179
:10373000B5818F87988BA98BBA8B3C8B2B8BF6012D
:1037400082819381A481B5818D8B9E8BAF8BB88F45
:103750009E012F5F3F4FAE01495F5F4FBE01635F28
:103760007F4FCE01439646DF68960FB6F894DEBFD2
:103770000FBECDBFDF91CF911F910F91FF90EF90C2
:10378000DF90CF90BF90AF9008956F927F928F920D
:103790009F92AF92BF92CF92DF92EF92FF920F93E0
:1037A0001F93CF93DF93CDB7DEB76E970FB6F89424
:1037B000DEBF0FBECDBF6C015B017A01490138014C
:1037C00000E02FEF4FEF6FEFCE0149960E94D32616
:1037D00025E136E03A8329838B8D9C8DAD8DBE8D9E
:1037E0008B839C83AD83BE8338872F83F3018281D3
:1037F0009381A481B58189879A87AB87BC873E87EF
:103800002D87F40182819381A481B5818F87988B64
:10381000A98BBA8B3C8B2B8BF7014281538164813E
:1038200075814D8B5E8B6F8B788FCE0101967C01FD
:103830008E01095F1F4F9E01235F3F4FAE014D5E1A
:103840005F4FB501C60140DF6E960FB6F894DEBF3C
:103850000FBECDBFDF91CF911F910F91FF90EF90E1
:10386000DF90CF90BF90AF909F908F907F906F90A0
:103870000895CF92DF92EF92FF920F931F93CF9311
:10388000DF93CDB7DEB768970FB6F894DEBF0FBEF3
:10389000CDBF6B017901DA0112964D915D916D9169
:1038A0007C9115974D8B5E8B6F8B788FA5E1B6E081
:1038B000BA83A98321E0288F0D891E892F89388D2D
:1038C0000B831C832D833E83B887AF83F70102816E
:1038D00013812481358109871A872B873C87BE870E
:1038E000AD874F87588B698B7A8B8E010F5F1F4F87
:1038F0009E01295F3F4FAE01435F5F4FB60145DF39
:1039000068960FB6F894DEBF0FBECDBFDF91CF91A2
:103910001F910F91FF90EF90DF90CF9008950F933C
:103920001F93CF93DF93CDB7DEB762970FB6F894AE
:10393000DEBF0FBECDBFDB01FA014281538164813E
:1039400075814F87588B698B7A8BE5E1F6E0FA83B6
:10395000E98321E02A8B0F85188929893A890B830D
:103960001C832D833E83F887EF8349875A876B87B3
:103970007C879E012F5F3F4FAE01495F5F4FBD01C6
:1039800078DF62960FB6F894DEBF0FBECDBFDF9131
:10399000CF911F910F910895FB0141505109460F9E
:1039A000571FE417F50778F4208130E0322F2227E3
:1039B0006181260F311D820F931F8217930708F430
:1039C00001963296EECFE417F50751F4208130E0EE
:1039D000322F2227820F931F8217930708F4019634
:1039E000089544E150E06EE27AE080E090E0D4DFB8
:1039F000009711F00C9482138FEF9FEF08950F93AF
:103A00001F93CF93DF938091300A90E0982F8827FF
:103A10002091310A820F911D8C010451110948E057
:103A200050E06AE37AE00E97B7DFC0914E0AC69580
:103A3000C695CC73D0E0AE0162E47AE0ADDFC0178A
:103A4000D10750F498012C1B3D0BAE014E5D5F4F2A
:103A50006091C1080E94880B009731F0DF91CF91EF
:103A60001F910F910C9482138FEF9FEFDF91CF91F5
:103A70001F910F910895B5CF0F9300E020E040E033
:103A800060E083EC98E00E94D32689EB98E00F91E8
:103A90000C94C9260F9300E020E040E060E089EC40
:103AA00098E00E94D3260F9108950F9300E020E044
:103AB00040E060E08FEC98E00E94D3260F910895DB
:103AC000FC0110820895CF92DF92EF92FF92CF9384
:103AD000DF93EC016A017B018B859C85AD85BE85FA
:103AE0009A01AB01281B390B4A0B5B0BDA01C901A8
:103AF00049815A816B817C8184179507A607B70796
:103B0000D8F08881813019F0823029F00CC0E98525
:103B1000FA85199508C061E08885811160E06887A1
:103B20008F810E941A2ACB86DC86ED86FE868F85E1
:103B300098890196988B8F878D819E8197FD06C00D
:103B40002F853889281739070CF01882DF91CF911B
:103B5000FF90EF90DF90CF9008950F931F93CF9336
:103B6000DF93EC018C0106551F4FCE01A9DF619652
:103B7000C017D107D1F7DF91CF911F910F91089511
:103B8000CF92DF92EF92FF921F93CF93DF936A0160
:103B90007B01EC011AE08881882321F0B701A6019E
:103BA000CE0191DF115061961111F5CFDF91CF91C8
:103BB0001F91FF90EF90DF90CF900895CF93DF9308
:103BC000EC010E94CD28AB01BC01CE01DF91CF9169
:103BD000D7CF20E0FC013081332331F02F5F4196B5
:103BE0002A30C1F78FEF0895822F0895CF92DF9288
:103BF000EF92FF920F931F93CF93DF9300D01F920A
:103C0000CDB7DEB76C01790149835A836B837C831E
:103C1000E0DF282F49815A816B817C818F3FD9F069
:103C200081E12802C00CD11C112481E0F6018083BF
:103C3000418352836383748316830583F286E1860E
:103C400029830E94CD28F60163877487858796872C
:103C5000108A17862981822F0F900F900F900F9056
:103C6000DF91CF911F910F91FF90EF90DF90CF9058
:103C700008950F931F930FEF1FEFB8DF1F910F9160
:103C80000895CF92DF92EF92FF920F931F93CF93FD
:103C9000DF93EC018B010E94CD286B017C018881B0
:103CA0009981DC01ED91FC910480F581E02D19955D
:103CB000892B69F40E94CD286C197D098E099F0912
:103CC00068397A438105910550F380E00CC0888102
:103CD0009981DC01ED91FC910680F781E02D199529
:103CE000F801808381E0DF91CF911F910F91FF90C8
:103CF000EF90DF90CF9008950F931F93CF93DF93B2
:103D0000EA0108811981600F711FBBDF882331F040
:103D10000F5F1F4F1983088381E001C080E0DF91AE
:103D2000CF911F910F9108953F924F925F926F92A2
:103D30007F928F929F92AF92BF92CF92DF92EF923B
:103D4000FF920F931F93CF93DF9300D0CDB7DEB7D1
:103D50008C016B011A8219825C0182E0A80EB11CF1
:103D6000AE014F5F5F4FB501C801C6DF811103C0CF
:103D700080E090E0B9C0D80112969C901B82E12CA3
:103D8000F12C412C512C32014394BE016D5F7F4FC9
:103D9000C80177DF882361F329813A81C90101963F
:103DA0009A8389836B81F801E20FF31F6283462FA8
:103DB0004F7750E0449D9001459D300D549D300D4E
:103DC0001124E20EF31E97E0440C551C661C771C70
:103DD0009A95D1F767FDD9CF292D207F33243394CD
:103DE000203309F0312C8150F6018083332031F1EA
:103DF000AE014F5F5F4FB501C8017EDF882309F434
:103E0000B7CFAE014F5F5F4FB501C80175DF8823A3
:103E100009F4AECFD6018C91F801E80FF11D438073
:103E2000512C542C44248481480E511CF801828169
:103E300081FF08C0F2E04F0E511C04C080E0412C0D
:103E4000512C01C082E0A82EB12C612C712C4801AC
:103E500089E9880E911CC3018A0D9B1D8E159F0553
:103E600098F5BE016D5F7F4FC8010BDF882309F411
:103E70007FCFD4018D919C910097A9F0332099F0C8
:103E800029813A8122503109F6014081241B3109F0
:103E90004216530640F4DC01ED91FC910190F08153
:103EA000E02D6B81199589819A818038910528F4DC
:103EB0002B81F801E80FF91F228301969A838983E9
:103EC000BFEF6B1A7B0AC7CFF801E756FF4F80811F
:103ED0009181892B39F489819A818138910510F07B
:103EE0001A82198289819A810F900F900F90DF9129
:103EF000CF911F910F91FF90EF90DF90CF90BF90E7
:103F0000AF909F908F907F906F905F904F903F9079
:103F10000895AF92BF92CF92DF92EF92FF920F93EC
:103F20001F93CF93DF9300D01F92CDB7DEB77C01F4
:103F3000F90180E09E2F9F77EE0FEF2FEE1FFF0B12
:103F4000F195309709F09068A1E0B0E0AC0FBD1F8B
:103F5000A80FB11D9C938F5F309761F7A82EB12CED
:103F6000DA01AA19BB0914966C93BE016F5F7F4FEB
:103F700080E090E04A195B098A159B0554F4FB0127
:103F8000D190BF018A01080F191FF801D58201964F
:103F9000F3CFF7018081918189010F5F1F4F0A0DD7
:103FA0001B1DFC0120813181F90122813381A8018F
:103FB000BD01F90119956C010E94CD28F701EC575C
:103FC000FF4F608371838283938381E0C016D106A3
:103FD00009F080E00F900F900F900F90DF91CF913C
:103FE0001F910F91FF90EF90DF90CF90BF90AF9017
:103FF0000895C9010296DB01FD01E61BF70B2D9127
:10400000222331F0FA01E80FF91F20830196F4CF43
:104010009C012E1B3F0B240F351FD9011297FC93D7
:104020001196EC930895CF93DF93EC0188819981E9
:10403000009731F1DC01ED91FC910488F589E02DC8
:10404000199581111FC0FE01E556FF4F80819181B6
:10405000892BB1F48DEF9FEF9183808388819981C3
:10406000DC01ED91FC910284F385E02D19958881A6
:104070009981DC01ED91FC910288F389E02D19957D
:1040800080E001C081E0DF91CF9108952F923F92AF
:104090004F925F926F927F928F929F92AF92BF9258
:1040A000CF92EF92FF920F931F93CF93DF93CDB7F1
:1040B000DEB72E970FB6F894DEBF0FBECDBF4C0112
:1040C0001B012A013901AFDF811111C1F401EB5647
:1040D000FF4F60817181D4018D919C911197A956F8
:1040E000BF4FFC01208131816115710541F04D9177
:1040F0005C91D9011E96ED91FC911F971FC0F901AB
:104100000484F585E02DFE87ED87ED91FC9125E196
:1041100036E03A832983D401A157BF4F12964D91BF
:104120005D916D917C9115974B835C836D837E834C
:10413000AF01BE016F5F7F4FED85FE851995F401DC
:104140008130910509F0CBC0EE57FF4F91838083FA
:1041500089E0E5E1F2E0DE01119601900D928A9589
:10416000E1F7FE01319680E090E02191D401A80FA3
:10417000B91F17962C93019689309105B1F7011557
:10418000110559F0F0E2CF9EC0011124866028E0AD
:10419000E29E700111248E2901C082E04114510475
:1041A00031F06114710411F4806801C0806CD40195
:1041B00050968C93509751961C9251978FE052963F
:1041C0008C937401B2E0EB0EF11C21E130E0A70109
:1041D000B101C4010EDF0115110551F09C01A701C9
:1041E000B801C40106DF9C01A701B501C40101DFCC
:1041F0004114510469F09C01A701B201C401F9DE28
:104200006114710429F09C01A701B301C401F1DE1E
:104210009C0125503109A70160E1C4017ADEBDD7B8
:10422000F401EC57FF4F6083718382839383840191
:1042300008571F4FF8016083718382839383F401D1
:1042400080819181DC01ED91FC910480F581E02D6C
:104250001995892BB9F4A1D7D8014D905D906D9037
:104260007C90641975098609970968397A43810534
:10427000910528F3F401E556FF4F8CEF9FEF9183F2
:10428000808322C0BE01665F7F4FC4014DDD04976D
:10429000D9F4F4018581940125563F4F79018111AC
:1042A0000FC07BD7D8016D937D938D939C9313970B
:1042B000F401E457FF4F1082F7011182108217C0FA
:1042C00090E0D9018D939C93F40180819181DC0170
:1042D000ED91FC910288F389E02D199506C0E55611
:1042E000FF4F8EEF9FEF9183808380E001C081E0DC
:1042F0002E960FB6F894DEBF0FBECDBFDF91CF91E3
:104300001F910F91FF90EF90CF90BF90AF909F9033
:104310008F907F906F905F904F903F902F90089577
:10432000AF92BF92CF92EF920F931F93A12CB12C1B
:10433000C12CE12C00E010E0A9DE1F910F91EF905D
:10434000CF90BF90AF9008952F923F924F925F927F
:104350006F927F928F929F92AF92BF92CF92DF9295
:10436000EF92FF920F931F93CF93DF9300D01F9292
:10437000CDB7DEB78C014DB65EB655DE882309F4A5
:1043800040C10BD76B017C01580128E8A20EB11C7B
:10439000F50180819181A281B381A7019601281B3B
:1043A000390B4A0B5B0BDA01C90189399A43A10524
:1043B000B10590F4349780819181A281B381A701E6
:1043C0009601281B390B4A0B5B0BDA01C9018939AD
:1043D0009A43A105B105C0F148014CE8840E911C37
:1043E000D4012C91F80180819181222371F0E5564E
:1043F000FF4F2CEF3FEF31832083DC01ED91FC91E7
:104400000288F389E02D1995FCC020ECF801228385
:104410001382DC01ED91FC910280F381E02D42E0FA
:1044200050E0B8016E5F7F4F1995F801EC57FF4FD0
:10443000C082D182E282F382F501C082D182E2821F
:10444000F38281E0D4018C93F80180819181DC01B9
:10445000ED91FC910480F581E02D1995892B09F4EB
:10446000D2C0BE016F5F7F4FC8015EDCFC010097C8
:1044700009F4C9C0D501CD92DD92ED92FC9213975B
:10448000D80112968C91807F803309F09FC048013B
:10449000BDE88B0E911CD4018D919C91892B09F460
:1044A000B2C02DB63EB6698170E0D801A60FB71F25
:1044B00013964C91139750E0542F442714968C91E7
:1044C0001497480F511DCA0101962DB73EB7281BFE
:1044D000390B0FB6F8943EBF0FBE2DBF8DB79EB7F8
:1044E00001965C0120E030E0BC83AB8324173507E4
:1044F00069F06B807C80620E731ED30115966C9000
:10450000D5016D925D012F5F3F4FF0CFDC01A20F0F
:10451000B31F1C92D8011296BC91B670BA83B23008
:10452000E9F53901660E771ED801A60DB71D15965F
:10453000AC901597B12CBA2CAA2416964C91A40EC7
:10454000B11C4BEF5FEF461B570B421B530B4E0F3B
:104550005F1FB301695F7F4F600F711FD401ED9141
:10456000FC91199580E4F80182837A807382B48289
:10457000A582D8018D919D91BD01DC01ED91FC9149
:104580000280F381E02D44E050E01995F801EC57EA
:10459000FF4FC082D182E282F38212C04DEF5FEF03
:1045A000461B570B421B530B4E0F5F1F620F731FAF
:1045B0006B5F7F4F600F711FD401ED91FC911995D6
:1045C0000FB6F8943EBE0FBE2DBE1DC0803C91F4C8
:1045D00080EDF80182831382D8018D919D91BD01F8
:1045E000DC01ED91FC910280F381E02D42E050E08E
:1045F000199509C0803D39F4F801E457FF4F108246
:1046000002C080E001C081E00FB6F8945EBE0FBE2C
:104610004DBE0F900F900F900F90DF91CF911F9193
:104620000F91FF90EF90DF90CF90BF90AF909F9051
:104630008F907F906F905F904F903F902F90089554
:104640008F929F92BF92CF92DF92EF92FF920F9341
:104650001F93CF93DF931F921F92CDB7DEB74C010C
:10466000B42E152F790169837A83DDDC69817A8123
:10467000882309F444C0FB0101900020E9F7319739
:10468000E61BF70BC70107968E0F9F1F8138910518
:10469000B0F5640182E0C80ED11C25E030E0A6012F
:1046A000C401A7DCEB2DF12F60E070E09401280F2E
:1046B000391F6E157F0549F04191D901A60FB71F2B
:1046C00012964C936F5F7F4FF4CF011102C060E3ED
:1046D00001C061E3970125503109280F391FA60158
:1046E000C4010F900F90DF91CF911F910F91FF9018
:1046F000EF90DF90CF90BF909F908F900ACC80E09A
:104700000F900F90DF91CF911F910F91FF90EF903D
:10471000DF90CF90BF909F908F9008950F93FA01F4
:1047200001900020E9F79F0121503109241B350B2E
:1047300000E086DF0F910895CF92DF92FF920F93F2
:104740001F93CF93DF931F921F92CDB7DEB76C01FB
:10475000F42E81E0841708F43EC0FB010190002094
:10476000E9F7E61BF70B3896E138F105A0F5C6012D
:1047700069837A8358DC69817A81882361F1F60143
:10478000EE57FF4F80819181019611F481E090E016
:104790009183808380819181F60197838087860150
:1047A0000E5F1F4F27E030E0A801C60122DCF601B2
:1047B000E80FF91FF2829C0124503109A80162E838
:1047C000C6010F900F90DF91CF911F910F91FF9035
:1047D000DF90CF909ECB80E00F900F90DF91CF9134
:1047E0001F910F91FF90DF90CF90089540E0A4CFEC
:1047F000CF92DF92EF92FF920F931F93CF93DF93AD
:10480000CDB7DEB72C970FB6F894DEBF0FBECDBF85
:104810007C01FB016A010381228141816081CE011B
:104820000796C1D209851A852B853C85F701E1578A
:10483000FF4F02831383248335833896D182C0824D
:10484000329711821082C7012C960FB6F894DEBF02
:104850000FBECDBFDF91CF911F910F91FF90EF90D1
:10486000DF90CF900895CF92DF92EF92FF920F9357
:104870001F93CF93DF9300D01F92CDB7DEB76C01AB
:10488000790181579F4F4B835C8369837A8381D2FF
:10489000F601E556FF4F8FEF9FEF918380834B81A9
:1048A0005C8169817A81C601A3DFF601E357FF4F7E
:1048B000F182E082F60111830083E756FF4F1182F7
:1048C00010820F900F900F900F90DF91CF911F915A
:1048D0000F91FF90EF90DF90CF9008950F9300E03D
:1048E00020E040E060E085ED98E05DD20F91089512
:1048F000FC01818D228D90E0805C9F4F821B91098D
:104900008F7399270895FC01918D828D981731F04E
:10491000828DE80FF11D858D90E008958FEF9FEF58
:104920000895FC01918D828D981761F0828DDF01D1
:10493000A80FB11D5D968C91928D9F5F9F73928F92
:1049400090E008958FEF9FEF089586E496E2892B1B
:1049500039F080E090E0892B19F098D1811125C0C1
:1049600080E090E0892B41F080E090E0892B21F0FD
:104970000E94000081111CC080E090E0892B41F072
:1049800080E090E0892B21F00E940000811113C08B
:1049900080E090E0892BA1F080E090E0892B81F00D
:1049A0000E94000081110AC008950E940000D8CF23
:1049B0000E940000E1CF0E940000EACF0C940000AA
:1049C0000895FC01848DDF01A80FB11DA35ABF4FCC
:1049D0002C91848D90E001968F739927848FA689FE
:1049E000B7892C93A089B1898C9180648C93938D25
:1049F000848D981306C00288F389E02D80818F7D15
:104A000080830895CF93DF93EC01888D8823C1F0D4
:104A1000EA89FB89808185FD05C0A889B9898C91C7
:104A200086FD0EC00FB607FCF5CF808185FFF2CF63
:104A3000A889B9898C9185FFEDCFCE01C2DFE8CF7F
:104A4000DF91CF910895CF92DF92FF920F931F9342
:104A5000CF93DF931F92CDB7DEB76C0181E0D60113
:104A600058968C9358975B969C915B975C968C912B
:104A70005C97981307C05096ED91FC9151978081F7
:104A800085FD2DC0F601038D10E00F5F1F4F0F73E2
:104A90001127F02EF601848DF81210C00FB607FC16
:104AA000F9CFD6015096ED91FC915197808185FF09
:104AB000F1CFC601698385DF6981ECCF838DE80F73
:104AC000F11DE35AFF4F6083D6015B960C935B9711
:104AD0005296ED91FC915397808180620CC0D60173
:104AE0005696ED91FC91579760835096ED91FC910D
:104AF000519780818064808381E090E00F90DF9106
:104B0000CF911F910F91FF90DF90CF900895BF92AA
:104B1000CF92DF92EF92FF92CF93DF93EC016A0185
:104B20007B01B22EE889F98982E08083411581EE0C
:104B300058076105710599F060E079E08DE390E038
:104B4000A7019601F4D52150310941095109569523
:104B5000479537952795211580E1380790F0E8892A
:104B6000F989108260E874E88EE190E0A70196016F
:104B7000DED52150310941095109569547953795A0
:104B80002795EC85FD853083EE85FF852083188E83
:104B9000EC89FD89B082EA89FB898081806180830C
:104BA000EA89FB89808188608083EA89FB8980812A
:104BB00080688083EA89FB8980818F7D8083DF9193
:104BC000CF91FF90EF90DF90CF90BF9008951F920C
:104BD0000F920FB60F9211240BB60F922F938F9353
:104BE0009F93EF93FF93E091EB08F091EC088081A5
:104BF000E091F108F091F20882FD12C0908180915D
:104C0000F4088F5F8F732091F508821751F0E091BF
:104C1000F408F0E0E552F74F958F8093F40801C057
:104C20008081FF91EF919F918F912F910F900BBEFB
:104C30000F900FBE0F901F9018951F920F920FB6F6
:104C40000F9211240BB60F922F933F934F935F93C4
:104C50006F937F938F939F93AF93BF93EF93FF9344
:104C60008BED98E0AEDEFF91EF91BF91AF919F91F8
:104C70008F917F916F915F914F913F912F910F9005
:104C80000BBE0F900FBE0F901F9018958BED98E004
:104C90002FDE21E0892B09F420E0822F0895109265
:104CA000DE081092DD0888EE93E0A0E0B0E080938B
:104CB000DF089093E008A093E108B093E20885E054
:104CC00096E09093DC088093DB0885EC90E090936D
:104CD000E8088093E70884EC90E09093EA088093DA
:104CE000E90880EC90E09093EC088093EB0881EC6D
:104CF00090E09093EE088093ED0882EC90E0909322
:104D0000F0088093EF0886EC90E09093F20880938F
:104D1000F1081092F4081092F5081092F60810921B
:104D2000F7080895AF92BF92CF92DF92EF92FF9271
:104D30000F931F93CF93DF936C017B01C0E0D0E012
:104D400000E010E0F601EC0FFD1F4AE050E0628148
:104D5000C701ECD05C016EE2C7017ED08A0D9B1DBD
:104D6000080F191F2196C330D10561F74AE050E0C2
:104D7000F6016581C701DAD0800F911FDF91CF91D5
:104D80001F910F91FF90EF90DF90CF90BF90AF9069
:104D9000089525E136E0FC013183208312821382DD
:104DA0001482158208950F93FC0185E196E09183AA
:104DB000808362834383248305830F91089585E173
:104DC00096E0909379098093780910927A0910926D
:104DD0007B0910927C0910927D090895CF92DF9291
:104DE000EF92FF920F931F93CF93DF936C017A01A1
:104DF000EB01E60EF71E00E010E0CE15DF0561F0D6
:104E00006991D601ED91FC910190F081E02DC601F0
:104E10001995080F191FF1CFC801DF91CF911F918C
:104E20000F91FF90EF90DF90CF900895611571057D
:104E300081F0DB010D900020E9F7AD0141505109EF
:104E4000461B570BDC01ED91FC910280F381E02DB4
:104E5000199480E090E00895DC01ED91FC910190BF
:104E6000F081E02D19948F929F92AF92BF92CF92D2
:104E7000DF92EF92FF920F931F93CF93DF93CDB703
:104E8000DEB7A1970FB6F894DEBF0FBECDBF7C0191
:104E9000C42EE52FCB01D22E19A221E02D1510F042
:104EA0002AE0D22E8E010F5D1F4F8D2C912CA12C4C
:104EB000B12C6C2D7E2FA501940139D48C2DD29E5E
:104EC00080191124015011098A3014F4805D01C049
:104ED000895CF8018083211531054105510521F0D8
:104EE000C22EE32FCA01E5CFB801C7019FDFA1960B
:104EF0000FB6F894DEBF0FBECDBFDF91CF911F91EB
:104F00000F91FF90EF90DF90CF90BF90AF909F9068
:104F10008F9008952115310541F4DC01ED91FC914C
:104F20000190F081E02D642F19949DCF9A01462FB6
:104F300050E060E070E0EECFCF93DF9300D01F929F
:104F4000CDB7DEB79B01AC016115710581059105F7
:104F500059F069833A834B835C83DBD529813A819D
:104F60004B815C8106D403C060E070E0CB010F9000
:104F70000F900F900F90DF91CF910895CF92DF9215
:104F8000EF92FF926B017C0162177307840795070C
:104F90005CF4CA01B9016C197D098E099F09CCDF47
:104FA0006C0D7D1D8E1D9F1DFF90EF90DF90CF90AB
:104FB0000895FC0180819181D3C4CF93DF93EC01EC
:104FC00088819981009709F0CBD4198218821D82BB
:104FD0001C821B821A82DF91CF9108950F931F9339
:104FE000CF93DF93EC018B016F5F7F4F88819981B5
:104FF0009CD5009731F0998388831B830A8381E0D5
:1050000001C080E0DF91CF911F910F910895CF9360
:10501000DF93EC0188819981892B29F08A819B811A
:105020008617970758F4CE01D9DF882341F08C8189
:105030009D81892B19F4E881F981108281E0DF914B
:10504000CF910895EF92FF920F931F93CF93DF9329
:10505000EC017B018A01BA01DADF811103C0CE01C4
:10506000ACDF06C01D830C83B701888199817BD694
:10507000CE01DF91CF911F910F91FF90EF90089596
:10508000FC01118210821382128215821482611532
:10509000710551F0FB0101900020E9F7AF0141508B
:1050A0005109461B570BCECF0895FC012481358151
:1050B000232B31F421E06115710599F0FB0108C043
:1050C000FC01808191816115710531F421E0FC01C1
:1050D0008081882331F004C03DD621E0892B09F07E
:1050E00020E0822F089505D60895B6D0FDDF0E94F6
:1050F0000402C5EAD4E20E945C022097E1F325DCB9
:10510000FACF96C32DC41F920F920FB60F9211249F
:105110002F933F938F939F93AF93BF9380917F097A
:1051200090918009A0918109B091820930917E0906
:1051300023E0230F2D3720F40196A11DB11D05C0DA
:1051400026E8230F0296A11DB11D20937E098093AE
:105150007F0990938009A0938109B093820980917F
:10516000830990918409A0918509B09186090196DF
:10517000A11DB11D8093830990938409A093850993
:10518000B0938609BF91AF919F918F913F912F91DD
:105190000F900FBE0F901F9018952FB7F894609145
:1051A0007F097091800980918109909182092FBFB8
:1051B00008953FB7F8948091830990918409A09154
:1051C0008509B091860926B5A89B05C02F3F19F027
:1051D0000196A11DB11D3FBF6627782F892F9A2FF9
:1051E000620F711D811D911D42E0660F771F881FA0
:1051F000991F4A95D1F70895CF92DF92EF92FF92CF
:10520000CF93DF936B017C01D4DFEB01C114D10498
:10521000E104F10479F06BD1CCDF6C1B7D0B683EAF
:105220007340A0F381E0C81AD108E108F108C85121
:10523000DC4FECCFDF91CF91FF90EF90DF90CF90DC
:1052400008958230910538F0880F991F880F991FB3
:1052500005970197F1F70895789484B5826084BD2D
:1052600084B5816084BD85B5826085BD85B581606A
:1052700085BDEEE6F0E0808181608083E1E8F0E0CA
:105280001082808182608083808181608083E0E8F9
:10529000F0E0808181608083E1EBF0E080818460D8
:1052A0008083E0EBF0E0808181608083E1E9F0E0E1
:1052B000808182608083808181608083E0E9F0E08A
:1052C000808181608083E1EAF0E080818260808378
:1052D000808181608083E0EAF0E08081816080836A
:1052E000E1E2F1E08081826080838081816080835F
:1052F000E0E2F1E0808181608083EAE7F0E0808194
:1053000084608083808182608083808181608083EB
:105310008081806880831092C100089590E0FC0134
:105320003197E231F10508F04BC0E658FF4F3DC21E
:10533000809180008F7703C0809180008F7D809363
:105340008000089580918000877FF9CF84B58F77A2
:1053500002C084B58F7D84BD08958091B0008F77A1
:1053600003C08091B0008F7D8093B000089580913C
:1053700090008F7707C0809190008F7D03C080914F
:105380009000877F8093900008958091A0008F7790
:1053900007C08091A0008F7D03C08091A000877F0F
:1053A0008093A0000895809120018F7707C080919D
:1053B00020018F7D03C080912001877F8093200191
:1053C0000895CF93DF9390E0FC01E25AFE4F2491C1
:1053D000FC01EC55FE4F8491882349F190E0880F41
:1053E000991FFC01E25EFD4FA591B4918C5F9D4F2A
:1053F000FC01C591D4919FB7611108C0F8948C91BC
:10540000209582238C93888182230AC0623051F4D4
:10541000F8948C91322F309583238C938881822B42
:10542000888304C0F8948C91822B8C939FBFDF916A
:10543000CF9108950F931F93CF93DF931F92CDB712
:10544000DEB7282F30E0F901E85EFE4F8491F901C4
:10545000E25AFE4F1491F901EC55FE4F04910023DE
:10546000C1F0882319F0698359DF6981E02FF0E0EA
:10547000EE0FFF1FEC5FFD4FA591B4919FB7F8941D
:105480008C91611103C01095812301C0812B8C93F5
:105490009FBF0F90DF91CF911F910F910895CF93F0
:1054A000DF93282F30E0F901E85EFE4F8491F90187
:1054B000E25AFE4FD491F901EC55FE4FC491CC2332
:1054C00089F081112BDFEC2FF0E0EE0FFF1FE6518A
:1054D000FE4FA591B4912C912D2381E090E021F411
:1054E00080E002C080E090E0DF91CF9108950895C0
:1054F0005058BB27AA270ED0DCC0CDD030F0D2D078
:1055000020F031F49F3F11F41EF4C2C00EF4E09578
:10551000E7FBB8C0E92FDED080F3BA176207730744
:105520008407950718F071F49EF5F6C00EF4E09527
:105530000B2EBA2FA02D0B01B90190010C01CA014D
:10554000A0011124FF27591B99F0593F50F4503EF8
:1055500068F11A16F040A22F232F342F4427585FEA
:10556000F3CF469537952795A795F0405395C9F702
:105570007EF41F16BA0B620B730B840BBAF09150BA
:10558000A1F0FF0FBB1F661F771F881FC2F70EC059
:10559000BA0F621F731F841F48F48795779567952C
:1055A000B795F7959E3F08F0B3CF9395880F08F015
:1055B0009927EE0F97958795089540D008F481E0DC
:1055C0000895E89409C097FB3EF4909580957095F6
:1055D00061957F4F8F4F9F4F9923A9F0F92F96E93F
:1055E000BB279395F695879577956795B795F111B4
:1055F000F8CFFAF4BB0F11F460FF1BC06F5F7F4F51
:105600008F4F9F4F16C0882311F096E911C0772362
:1056100021F09EE8872F762F05C0662371F096E86B
:10562000862F70E060E02AF09A95660F771F881F3A
:10563000DAF7880F9695879597F90895990F0008DE
:10564000550FAA0BE0E8FEEF16161706E807F90754
:10565000C0F012161306E407F50798F0621B730BEF
:10566000840B950B39F40A2661F0232B242B252B70
:1056700021F408950A2609F4A140A6958FEF811D13
:10568000811D089597F99F6780E870E060E00895B4
:105690009FEF80EC089500240A941616170618064A
:1056A0000906089500240A94121613061406050626
:1056B0000895092E0394000C11F4882352F0BB0FB7
:1056C00040F4BF2B11F460FF04C06F5F7F4F8F4F1A
:1056D0009F4F089557FD9058440F551F59F05F3F55
:1056E00071F04795880F97FB991F61F09F3F79F004
:1056F00087950895121613061406551FF2CF469586
:10570000F1DF08C0161617061806991FF1CF869507
:105710007105610508940895E894BB2766277727EB
:10572000CB0197F908958ADF08F48FEF0895A1E27D
:105730001A2EAA1BBB1BFD010DC0AA1FBB1FEE1F0B
:10574000FF1FA217B307E407F50720F0A21BB30B56
:10575000E40BF50B661F771F881F991F1A9469F7D2
:1057600060957095809590959B01AC01BD01CF012E
:105770000895052E97FB16F400940FD057FD05D021
:10578000D6DF07FC02D046F408C05095409530950E
:1057900021953F4F4F4F5F4F08959095809570959D
:1057A00061957F4F8F4F9F4F0895EE0FFF1F05901C
:1057B000F491E02D19940DD0A59F900DB49F900DFC
:1057C000A49F800D911D112408950790F691E02D5E
:1057D0001994A29FB001B39FC001A39F700D811DBA
:1057E0001124911DB29F700D811D1124911D0895EA
:1057F000EF920F931F93CF93DF93E80147FF02C00F
:1058000034E101C034E0E42FFF27E7FDF095F7FF16
:1058100003C0F195E195F109E32E022F2E2FAE0181
:10582000B1D2CE01DF91CF911F910F91EF900895EA
:10583000CF93DF938230910510F482E090E0E09105
:10584000880AF091890A20E030E0A0E0B0E03097CB
:1058500039F14081518148175907B8F04817590765
:1058600071F482819381109729F013969C938E9303
:1058700012972CC09093890A8093880A27C021151B
:10588000310531F04217530718F0A901DB0101C0BF
:10589000EF019A01BD01DF010280F381E02DD7CF36
:1058A00021153105F9F0281B390B2430310580F41E
:1058B0008A819B816115710521F0FB0193838283AD
:1058C00004C09093890A8093880AFE01329644C0EE
:1058D000FE01E20FF31F8193919322503109398326
:1058E00028833AC02091860A3091870A232B41F4FD
:1058F00020910202309103023093870A2093860A96
:1059000020910002309101022115310541F42DB79B
:105910003EB74091040250910502241B350BE091E3
:10592000860AF091870AE217F307A0F42E1B3F0BBB
:105930002817390778F0AC014E5F5F4F2417350701
:1059400048F04E0F5F1F5093870A4093860A819359
:10595000919302C0E0E0F0E0CF01DF91CF91089594
:10596000CF93DF93009709F487C0FC01329713822D
:105970001282C091880AD091890A209781F42081EF
:105980003181280F391F8091860A9091870A8217EA
:10599000930779F5F093870AE093860A6DC0DE01DC
:1059A00020E030E0AE17BF0750F412964D915C91A5
:1059B00013979D014115510509F1DA01F3CFB38326
:1059C000A28340815181840F951F8A179B0771F430
:1059D0008D919C911197840F951F029691838083DE
:1059E00012968D919C911397938382832115310593
:1059F00029F4F093890AE093880A3EC0D9011396EE
:105A0000FC93EE9312974D915D91A40FB51FEA1789
:105A1000FB0779F480819181840F951F0296D9014B
:105A200011969C938E938281938113969C938E936F
:105A30001297E0E0F0E08A819B81009719F0FE0167
:105A4000EC01F9CFCE01029628813981820F931F94
:105A50002091860A3091870A2817390769F4309710
:105A600029F41092890A1092880A02C013821282C5
:105A7000D093870AC093860ADF91CF9108958F92C1
:105A80009F92AF92BF92CF92DF92EF92FF92CF930D
:105A9000DF93EC01688179818A819B8161157105B1
:105AA0008105910521F464E279ED8BE597E02DE124
:105AB00033EF41E050E05DDE49015A019B01AC014A
:105AC000A7EAB1E478DE6B017C01ACEEB4EFA5018E
:105AD0009401AFD3C60ED71EE81EF91EF7FE06C00E
