:10000000C9C10000F8C10000F6C10000F4C1000041
:10001000F2C10000F0C10000EEC10000ECC1000020
:10002000EAC10000E8C10000E6C10000E4C1000030
:10003000E2C10000E0C10000DEC10000DCC1000040
:10004000DAC10000D8C10000D6C10000D4C1000050
:10005000D2C10000D0C10000CEC100000C94E22744
:10006000CAC100000C9446250C947C25C4C1000034
:10007000C2C10000C0C10000BEC10000BCC1000080
:10008000BAC10000B8C10000B6C10000B4C1000090
:10009000B2C10000B0C10000AEC10000ACC10000A0
:1000A000AAC10000A8C10000A6C10000A4C10000B0
:1000B000A2C10000A0C100009EC100009CC10000C0
:1000C0009AC1000098C1000096C1000094C10000D0
:1000D00092C1000090C100008EC100008CC10000E0
:1000E0008AC100007B1092100F11F91118123512FD
:1000F0003D12EF1105290829F728FB2801293F297E
:100100000C29102916291A291E29242928292C29C5
:100110003F29322936293A2900000A0B02090C0D21
:100120000E080703040100000000000000000000AA
:1001300000000000000000000000000000000000BF
:10014000000000001211100000000000000000007C
:10015000000000000000000000000000000001029C
:1001600010202008081020401020408002010201C9
:100170000804020101020408102040808040201081
:1001800008040201800402018040201008040201DA
:100190000804020101020408102040800102040842
:1001A000102040800505050507050808080802021B
:1001B00002020A0A08080404040401010101010101
:1001C00001010303030303030303040707070C0CE4
:1001D0000C0C0C0C0C0C02020202060606060606AB
:1001E00006060B0B0B0B0B0B0B0B00002000230068
:1001F000260029002C002F0032000001000003011E
:100200000601090100002200250028002B002E0015
:100210003100340002010000050108010B0100005B
:100220002100240027002A002D00300033000101A6
:100230000000040107010A014E414E494E4954593C
:10024000494E46CDCCCC3D0AD7233C17B7D13877A1
:10025000CC2B329595E6241FB14F0A0000204100B7
:1002600000C84200401C4620BCBE4CCA1B0E5AAE01
:10027000C59D7400407A10F35A00A0724E18090010
:1002800010A5D4E80000E87648170000E40B5402FB
:100290000000CA9A3B000000E1F505000080969836
:1002A00000000040420F000000A086010000001086
:1002B0002700000000E803000000006400000000C8
:1002C000000A00000000000100000000002C76D8A9
:1002D00088DC674F0823DFC1DFAE59E1B1B796E58F
:1002E000E3E453C63AE651997696E8E6C28426EBF3
:1002F000898C9B62ED407C6FFCEFBC9C9F40F2BA06
:10030000A56FA5F490055A2AF75C936B6CF9676D9D
:10031000C11BFCE0E40D47FEF520E6B500D0ED90F2
:100320002E0300943577050080841E080000204EBF
:100330000A000000C80C333333330F986E12831158
:1003400041EF8D2114893BE65516CFFEE6DB18D12F
:10035000844B381BF77C1D901DA4BBE42420328401
:10036000725E228100C9F124ECA1E53D27007B02E9
:100370001F039A0443056A059105F40531076507D3
:100380008C076A15751537199B1CA91CB41CCD2345
:10039000AE253E2611241FBECFEFD1E2DEBFCDBF7A
:1003A00000E00CBF15E0A0E0B2E0E4E9F4E600E014
:1003B0000BBF02C007900D92A234B107D9F729E014
:1003C000A2E4B5E001C01D92A63BB207E1F713E03D
:1003D000C4E9D3E000E006C022970109FE010BBF8B
:1003E0000E94A72BCE36D10780E00807A9F70E940C
:1003F000D4270C94483204CE23E230E040E050E0B1
:100400006FE070E080E090E00E941D27AB0164E2A5
:1004100072E08091EC059091ED0513C30F931F934B
:10042000CF93DF9300D000D0CDB7DEB726E040E019
:1004300052EC61E070E085E098E00E94E6248FE3F2
:1004400095E09A8389838091000690910106A0919E
:100450000206B09103068B839C83AD83BE83AE01FD
:100460004F5F5F4F6EE072E08EED97E00E94EE1BF3
:100470006091EC057091ED058091EE059091EF058E
:100480006DD087E090E00E94E0278C016091EE053E
:100490007091EF0540E076D21093ED050093EC05E6
:1004A0002CEF31E040E355E760E070E082E495E056
:1004B0000E94981DA1DF26960FB6F894DEBF0FBEEE
:1004C000CDBFDF91CF911F910F9108956091EC0501
:1004D0007091ED058091EE059091EF053FD0882356
:1004E00031F08091EE059091EF050E94032182E4A6
:1004F00095E00C943D1D0F931F93CF93DF9300E085
:1005000020E040E060E084E096E00E94322605E2D0
:100510002EEF48EA60EC8EEF95E00E94322680EFE5
:1005200095E00E946B168DE990E00E94E027EC01B7
:1005300000EF15E02AEF32E04BE557E06AE072E0A9
:100540000E949223D093EF05C093EE0582E495E0DC
:10055000DF91CF911F910F910C940C1DFF920F937F
:100560001F93CF93DF9300D000D0CDB7DEB78C01BF
:1005700080910A0690910B068617970721F07093D9
:100580000B0660930A06C8010E94721FF82E8111A3
:100590001DC023E432E04CE452E065E572E0C8019E
:1005A0000E94EF20882391F065E572E0CE0101966C
:1005B0000E949F2745E552E0BA01C8010E94ED2242
:1005C000CE0101960E943827FF24F3948F2D2696A2
:1005D0000FB6F894DEBF0FBECDBFDF91CF911F9154
:1005E0000F91FF900895AB01BC0180910A06909194
:1005F0000B06FBC1CF93DF93CDB7DEB72A970FB6BB
:10060000F894DEBF0FBECDBFDB01FE013196BF0106
:100610009F01261B370B4217530718F02D9121938A
:10062000F7CFFB01E40FF51F1082DDDF2A960FB62E
:10063000F894DEBF0FBECDBFDF91CF9108950F9329
:1006400000E020E040E060E08CE096E00E9432268E
:100650000F910895CF93DF93EC0181E493E09983A8
:1006600088838F89988D009739F0DC01ED91FC919A
:100670000280F381E02D1995898D9A8D009739F0CC
:10068000DC01ED91FC910280F381E02D1995CE0102
:10069000DF91CF91B4C2CF93DF93EC01DBDFCE01CA
:1006A000DF91CF910C94E127CF93DF93EC01C5D379
:1006B000882321F0CE01BED3811106C060E08F896E
:1006C000988D47D260E005C061E08F89988D41D256
:1006D00061E0898D9A8DDF91CF913BC2AF92BF923D
:1006E000CF92DF92EF92FF920F931F93CF93DF93FE
:1006F0006A017901EB0100E010E00C151D058CF496
:100700005E0169917991C7010E945523F5014081ED
:10071000518168E672E0C7010E94ED220F5F1F4F12
:10072000ECCFDF91CF911F910F91FF90EF90DF9071
:10073000CF90BF90AF900895AF92BF92CF92DF92CB
:10074000EF920F931F93CF93DF93EC016B01B42EC5
:1007500040E062D281E493E09983888386E0E5E11A
:10076000F2E0DE015B9601900D928A95E1F76B2D28
:10077000CE0170D3CE016BD3882339F04EE652E020
:1007800068E672E0C6010E94ED2261E0CE0158D316
:100790008AE090E00E94E0275C01E12C860127E8D6
:1007A00032E040E06EE170E001D2B88EAF8A8AE0BC
:1007B00090E00E94E0275C0125EA32E040E06FE132
:1007C00070E0F4D1BA8EA98E24E232E0A60161E095
:1007D00070E0CE013CD2BC01CE013FD3BE01655ECC
:1007E0007F4F960143E050E0CE01DF91CF911F9102
:1007F0000F91EF90DF90CF90BF90AF906FCFEF92BF
:10080000FF920F931F93CF93DF93CDB7DEB72C9753
:100810000FB6F894DEBF0FBECDBF8C017A01CE01BA
:1008200007960E949F27B701CE0101960E949F273D
:100830006BEF72E0CE0107960E94B427882381F007
:10084000C7010E943F2EAB01BC01C801DDD2D80117
:10085000ED91FC910480F581E02DC801199533C01C
:1008600063EC72E0CE0107960E94B427882349F01A
:1008700062E273E0C7010E945A2EF8012789308D89
:1008800012C06FED72E0CE0107960E94B427882354
:1008900091F062E273E0C7010E945A2ED801599686
:1008A0002D913C915A97892B11F461E001C060E0D1
:1008B000C9014FD108C0C801C6D245E253E068E67D
:1008C00072E00E94ED22CE0101960E943827CE01EF
:1008D00007960E9438272C960FB6F894DEBF0FBEFD
:1008E000CDBFDF91CF911F910F91FF90EF900895B1
:1008F000EF92FF920F931F93CF93DF938C017B01B5
:10090000C0E0D0E0B701F801EC0FFD1F838D948D9E
:100910000E945A2E892B31F02296C630D10591F7CC
:1009200080E001C081E0DF91CF911F910F91FF9096
:10093000EF9008950F9300E020E040E060E082E156
:1009400096E00E9432260F91089529EF33E0DC01F2
:1009500011963C932E9314968D919C911597009728
:1009600039F0DC01ED91FC910280F381E02D1994C6
:100970000895CF93DF93EC01E8DFCE01DF91CF91B3
:100980000C94E127DF92EF92FF920F931F93CF9386
:10099000DF93EC018B01D42E89EF93E09983888358
:1009A0004E837B836A8381E290E00E94E0277C0192
:1009B0004E81B801C1DEFD82EC82DD2071F047E49A
:1009C00053E068E672E0C801DF91CF911F910F916B
:1009D000FF90EF90DF900C94ED22DF91CF911F916B
:1009E0000F91FF90EF90DF900895EF92FF920F9399
:1009F0001F93CF93DF931F921F92CDB7DEB77C0179
:100A00008B01FC018481958149835A8371DF49817F
:100A10005A81882369F0B801F701848195810F908C
:100A20000F90DF91CF911F910F91FF90EF90E7CE44
:100A30000F900F90DF91CF911F910F91FF90EF904A
:100A400008950F931F93CF93DF93EC01CB018A019D
:100A500064E272E00E945A2E892B81F4B801882743
:100A600077FD8095982F0E94422AAB01BC018C81B2
:100A70009D81DF91CF911F910F917AC1DF91CF912D
:100A80001F910F9108950F9300E020E040E060E097
:100A900088E196E00E9432260F91089521E034E02B
:100AA000FC0131832083E8C1CF93DF93EC01F6DFB3
:100AB000CE01DF91CF910C94E127CF93DF93EC012E
:100AC00060E070E0E6D181E094E099838883DF9173
:100AD000CF9108950F9300E020E040E060E08EE1C8
:100AE00096E00E9432260F91089529E034E0FC013F
:100AF00031832083C1C1CF93DF93EC01F6DFCE01B8
:100B0000DF91CF910C94E127CF93DF93EC0162E06A
:100B100070E0BFD189E094E099838883DF91CF9121
:100B200008950F9300E020E040E060E084E296E06A
:100B30000E9432260F91089525E134E0FC013183B3
:100B40002083089525E134E0FC01318320830C9457
:100B5000E1270F931F93CF93DF931F92CDB7DEB79B
:100B60008C01FC016483828169830E94AE296981C2
:100B7000262F30E08217930721F0F80182810E942E
:100B80007929F8018481882319F042E253E002C0F8
:100B90004DE054E0F80165817681878190850F9062
:100BA000DF91CF911F910F910C94ED22EF920F9353
:100BB0001F93CF93DF93EC01862FE5E1F4E0F983F7
:100BC000E88318870F836A837B834C833E832D835E
:100BD000E98661E00E94402960E0CE01DF91CF917B
:100BE0001F910F91EF90B5CF0F9300E020E040E010
:100BF00060E08AE296E00E9432260F9108952FEE7F
:100C000034E0FC013183208308952FEE34E0FC01B1
:100C1000318320830C94E127FC018FEE94E09183D3
:100C2000808373836283468B40E050E068EC71E41C
:100C30004683578360877187128681E490E09687A8
:100C400085871786128A138A148A158A0895EF9267
:100C5000FF920F931F93CF93DF938A01E9016130D5
:100C6000710581F062307105C1F0672B11F58CE0E0
:100C700090E00E94E0277C019E01A80160E070E006
:100C80001CDF15C08CE090E00E94E0277C019E01F3
:100C9000A80161E070E033D10AC08DE090E00E94CD
:100CA000E0277C019E01A80162E070E02DDFC70112
:100CB00002C080E090E0DF91CF911F910F91FF90F3
:100CC000EF9008958F929F92AF92BF92CF92DF9252
:100CD000EF92FF92CF93DF93EC018C819D8100977F
:100CE000D9F1E3D04B015C018A89882341F1CE80A0
:100CF000DF80E884F98420E030E040E85FE3C5016C
:100D0000B4010E94D8299B01AC01C701B6010E9421
:100D1000F22A87FD03C081E08A8711C020E030E01D
:100D200040E85FE3C501B4010E94D7299B01AC01F3
:100D3000C701B6010E943C2A18160CF01A868E894B
:100D4000882341F042E354E068E672E08A819B81A7
:100D50000E94ED228A8501C080E0DF91CF91FF9053
:100D6000EF90DF90CF90BF90AF909F908F900895BD
:100D7000EF92FF920F931F93CF93DF93CDB7DEB720
:100D80002A970FB6F894DEBF0FBECDBF7C01FC01E1
:100D900084819581009711F18ED0C70193DFF7010F
:100DA0008481958182D08E010F5F1F4F22E045E044
:100DB0000E94BA2BF7018481958183D0A801BC01E0
:100DC000F701828193810E94ED22F70186898823B1
:100DD00071F04CE454E068E672E005C048E654E087
:100DE00068E672E0F701828193810E94ED222A96E3
:100DF0000FB6F894DEBF0FBECDBFDF91CF911F912C
:100E00000F91FF90EF900895CF93DF93EC014E8305
:100E10005F83688779878E89882341F046EA54E0AA
:100E200068E672E08A819B810E94ED22CE01DF910B
:100E3000CF9148CFFC0182850895FC0182890895F5
:100E4000FC01628B0895FC01828193810895FC016D
:100E500086890895FC01668B0895FC01758364837F
:100E600008950F9300E020E040E060E080E396E02A
:100E70000E9432260F91089529EF34E0FC0131835E
:100E80002083089529EF34E0FC01318320830C9402
:100E9000E127FC0189EF94E0918380837387628767
:100EA00053834283358324830895FC0166817781CF
:100EB000808591850895FC014683578360877187FB
:100EC0000895FC018481958108950F9300E020E04E
:100ED00040E060E086E396E00E9432260F9108959C
:100EE00021E035E0FC0131832083C6CFCF93DF932F
:100EF000EC01F6DFCE01DF91CF910C94E127CF9387
:100F0000DF93EC0161E070E0C4DF81E095E099835C
:100F10008883DF91CF9108950F9300E020E040E0B7
:100F200060E08CE396E00E9432260F9108958823BA
:100F300081F08F3F29F480914406909145060895F1
:100F400095E0899FF0011124E75BF94F828193813D
:100F5000089580E090E00895CF93DF93D82FC62FB7
:100F600060E085E30E9479299C2F9F719D2B9EBD97
:100F70000DB407FEFDCF1EBC0DB407FEFDCFC7FDAF
:100F800008C061E085E30E9479298EB5DF91CF9199
:100F900008951EBC0DB407FEFDCFF3CF0F931F9332
:100FA000CF93DF931F92CDB7DEB7182F062F60E0E7
:100FB00085E349830E947929602F6F71612B6EBD93
:100FC00049810DB407FEFDCF4EBD0DB407FEFDCF28
:100FD00061E085E30F90DF91CF911F910F910C9409
:100FE00079290F931F93CF93DF938C01EB0160E07E
:100FF00085E30E9479298AE38EBD0DB407FEFDCFFB
:101000000C0F1D1FC017D10739F01EBC0DB407FE11
:10101000FDCF8EB58993F6CF61E085E3DF91CF9167
:101020001F910F910C9479290F931F93CF93DF9306
:101030008C01EB0160E085E30E9479298AE78EBD8F
:101040000DB407FEFDCF0C0F1D1FC017D10731F0E7
:1010500089918EBD0DB407FEFDCFF7CF61E085E32A
:10106000DF91CF911F910F910C9479291F93CF930A
:10107000DF93182F1076C12FD0E02091140230E0BA
:10108000C217D30779F043E06FE180EA87DFAE0152
:1010900085E0559547958A95E1F76FE180E87EDF19
:1010A00010931402DF91CF911F910895CF93DF9396
:1010B0001F92CDB7DEB7682F6983D8DF698180E0E2
:1010C0000F90DF91CF9148CF1F93CF93DF931F9263
:1010D000CDB7DEB7182F6983C9DF4981612F80E45E
:1010E0000F90DF91CF911F9159CF1F93CF93DF9333
:1010F0001F921F92CDB7DEB7182F69837A83B6DFB0
:101100004981612F80E44ADF61E0610F7A81472FD6
:1011100080E40F900F90DF91CF911F913FCF6091AE
:101120004706709148066115710519F06150710903
:1011300002C06FEF77E08CE0D8CFF1CFFF920F9332
:101140001F93CF93DF9389E3B1DF882309F444C071
:101150006091470670914806EB012696C11588E01C
:10116000D80710F0CF5FD74080E0BFDF60E08AE3B0
:10117000F3DE90E0909348068093470660E08AE3B0
:10118000EBDE2091470630914806382B3093480615
:101190002093470660E08AE3DFDE082F60E08AE301
:1011A000DBDE182F60E08AE3D7DEF82E40E46EE144
:1011B00080E8F4DEF7FE0FC0D0934306C0934206EA
:1011C000202F30E0312B24503109309345062093F5
:1011D00044068FEF02C0A3DF80E0DF91CF911F9123
:1011E0000F91FF900895EF92FF920F931F93CF936B
:1011F000DF938B017A018F3FC1F025E0829FE001F0
:101200001124C75BD94F02C0C2E4D6E0688179815E
:10121000600F711F80E069DF8A819B81801B910BC9
:10122000E816F90690F4C70110C08091420690912B
:101230004306860F971F811528E0920728F3BC010B
:101240006F5F7740C2E4D6E0E5CFDF91CF911F9189
:101250000F91FF90EF9008950F931F93CF93DF931B
:101260008A01A901C0DFEC01B801BBDECE01DF912C
:10127000CF911F910F910895CF92DF92EF92FF923D
:101280000F931F93CF93DF938B016A01790195E050
:10129000899FE0011124C75BD94F68817981600F74
:1012A000711F82E022DF0A80DB81C02DC01BD10BC1
:1012B000EC16FD0608F4E701B601CE01B5DECE015D
:1012C000DF91CF911F910F91FF90EF90DF90CF9022
:1012D0000895BC0180E009DF60E085E30E94792980
:1012E0008AE38EBD0DB407FEFDCF1EBC0DB407FE14
:1012F000FDCF61E085E30E9479298EB50895CF93F3
:10130000C62FBC0182E0F1DE60E085E30E9479290E
:101310008AE78EBD0DB407FEFDCFCEBD0DB407FE2E
:10132000FDCF61E085E3CF910C947929FF920F9373
:101330001F93CF93DF9395E0899FF0011124E75B22
:10134000F94FC081D1812197028113810C0F1D1F9C
:10135000CE01BFDFF82E882319F060E0CE01CFDF89
:10136000BE0184E0C2DEB80186E0BFDE48E06FE186
:1013700080E814DE8CE19ADE81FF04C048E06FE172
:1013800080EA0CDEFF2041F06F2DCE01DF91CF917E
:101390001F910F91FF90B3CFDF91CF911F910F91CC
:1013A000FF900895CF92DF92EF92FF920F931F93D9
:1013B000CF93DF937C01EB014130510569F4CB0100
:1013C00088DF682FC701DF91CF911F910F91FF90A8
:1013D000EF90DF90CF9093CF6A01C60ED71E8601A3
:1013E0000150110980E181DEB70184E17EDEC11583
:1013F000D84030F4011588E0180710F00F5F17404F
:10140000B80182E172DE40E16FE180EAC7DD40E2CF
:101410006FE180E8C3DD6FE180E09EDD85FDFBCFFD
:10142000DF91CF911F910F91FF90EF90DF90CF90C0
:1014300008950F931F93CF93DF93EB01E5E0E89FAF
:10144000D0011124A75BB94F4F3FB9F0E49FF001E1
:101450001124E75BF94F02C0E2E4F6E0608171819C
:10146000620F731F8D919C91A8018C0F9D1F9ADFB5
:10147000DF91CF911F910F9152CEE0914206F091F2
:101480004306E20FF31FE11588E0F80728F3BF01D8
:101490006F5F7740E7CFCF93DF93EB01682F84ED49
:1014A00013DEBE0186ED21DE8AEE00DE80FF05C080
:1014B0008FE090E00E948028F7CFDF91CF910895D0
:1014C000CF93DF93EC01D0D061E085E30E94402907
:1014D00061E085E30E94792961E083E30E9440296D
:1014E00061E084E30E94402960E082E30E94402999
:1014F00061E085E30E94402960E083E30E9479294E
:1015000060E084E30E94792980E58CBD8DB581601F
:101510008DBD4FEF60E08FEF41DD62E370E080E072
:1015200090E00E945B28109248061092470660E007
:1015300070E088E0DADD60E070E08CE0D6DD6FEF2F
:1015400077E08AE0D2DD61EB88E3BEDD6FE370E334
:1015500088E2CBDD69EF77EF80E3C7DD6DE070E017
:1015600080ECC3DD42E362EC80E818DD62E17CE000
:1015700086ECBBDD62E184ECA7DD6CED75E08AEC06
:10158000B4DD688184EEA0DD698185EE9DDD6A8130
:1015900082EE9ADD6B8183EE97DD6C8180EE94DDC7
:1015A0006D8181EE91DD60E071E080E174DF8FE1BB
:1015B0005DDD40EC6BE180E8F1DC44E06FE180E868
:1015C000EDDC66E774E084E1DF91CF9164CF0F93A7
:1015D0001F93CF93DF93EC01862FBA01A90103DE9D
:1015E0008C010150110960E085E30E9479298AE3AA
:1015F0008EBD0DB407FEFDCF20E030E0201731078F
:10160000C0F41EBC0DB407FEFDCF8EB590E0982F40
:1016100088271EBC0DB407FEFDCF4EB5840F911D6B
:10162000C80FD91FC817D90708F421962E5F3F4F5E
:10163000E5CF2017310771F41EBC0DB407FEFDCFB6
:101640008EB590E0982F8827C80FD91FC817D907E3
:1016500008F4219661E085E30E947929CE01DF91AB
:10166000CF911F910F910895E9E4F6E08DECDF0131
:101670001D928A95E9F781E098E09183808308952F
:10168000DF92EF92FF920F931F93CF93DF937C0132
:101690004091490650914A064150584E80E098E1E9
:1016A000E9E4F6E000E0C0E0D0E025E0D22E1481CD
:1016B000112341F0D19ED0011124A75BB94F2D9188
:1016C0003C9101C09A0160817181261B370B6281B8
:1016D0007381261B370B2E153F0539F485E0089FD3
:1016E000E0011124C75BD94F48C0E216F30648F465
:1016F0002817390730F4D09EE0011124C75BD94F79
:10170000C901111107C02097C1F5C9E4D6E085E0F1
:10171000D82E1DC0D19EF0011124E75BF94F012F97
:10172000C6CF0A811B8188819981080F191FD29E1B
:10173000E0011124C75BD94F68817981061717072B
:1017400031F04A815B81C8012DDE198308832C8129
:101750002111E7CF2091490630914A06888199816D
:10176000281B390B8A819B81281B390B2150384E4D
:101770002E153F0510F480E019C0EEE4F6E081E09C
:1017800022813381232B29F035968F5F8932C1F76F
:10179000F2CF2A813B8148815981240F351F318343
:1017A0002083F382E2829C8194838C83DF91CF91AA
:1017B0001F910F91FF90EF90DF9008958823F9F02B
:1017C000E9E4F6E025E09481981311C095E0899F43
:1017D000D0011124A75BB94F14968C911497848380
:1017E00013961C921E92129714961C920895992398
:1017F00031F0299FF0011124E75BF94FE4CF089500
:1018000095E0899FF0011124E75BF94F8081918178
:10181000860F971F9183808382819381861B970B0C
:1018200093838283089595E0899FF0011124E75BFB
:10183000F94F80819181860F971F91838083538315
:1018400042830895FC015381560F5093B808872FA7
:1018500099274281480F4093B708A181A093B60809
:10186000E081E093B508242F30E02817390748F4C9
:1018700081E08A0F8093B608811103C0EF5FE09387
:10188000B508852F90E077278617970788F44F5F74
:101890004093B70841110CC08091B6088F5F8093C8
:1018A000B608811105C08091B5088F5F8093B50897
:1018B00008952091BC083091BD08BC01C90108966B
:1018C000C1DFE091BC08F091BD088091B508808728
:1018D0008091B60881878091B70882878091B80887
:1018E0008387089580E0E82FF0E0EE0FFF1FEA5CA9
:1018F000F64F118210828F5F8430A8F380E09EE162
:10190000989FF0011124E254F74F118E8F5F8430BD
:10191000B8F38093190780E094E090931B078093BD
:101920001A070895CF9320911A0730911B072F5F54
:101930003F4F21154DE7340710F020E030E1522FE2
:10194000432FEEEBF8E0C0E0C43059F0A18DAA239C
:1019500029F0A481B581A417B50749F3CF5F7E961E
:10196000F3CF30931B0720931A071092190720E03A
:10197000E0E0F0E04EE12430E0F4429FD001112499
:10198000A254B74F59963C915997311104C02093F6
:101990001907FD0110C0373041F4309739F05A96DD
:1019A0005C915A97328D351708F0DF012F5FFD01EA
:1019B000E2CF209319073097B1F122E0218F2091D7
:1019C0001C07248720911D07258720911E07268745
:1019D00020911F07278720E032E0338B228B358B45
:1019E000248B21E030E0318B208B138E228F23E07B
:1019F000208F168A20E1278B20911A0730911B0730
:101A00003227232732273583248377836683DC01BB
:101A10002D913C9111973183208312968D919C9149
:101A2000139793838283CF01CF9108951F93CF9310
:101A3000DF93C091BC08D091BD0820E839E0309315
:101A4000BB082093BA083093B4082093B3088330BE
:101A500059F4898D8F70833009F0A9C588899989D7
:101A6000892B09F0A4C57FC0823009F080C0809125
:101A70001F078F5F80931F07811113C080911E077E
:101A80008F5F80931E0781110CC080911D078F5FAF
:101A900080931D07811105C080911C078F5F809383
:101AA0001C071092B2081092B1081092AF09109260
:101AB000AE09298D822F8D7F853041F48A8D8F5F0D
:101AC0008A8F883709F073C5198E71C5222309F4EE
:101AD0006EC588899989892B09F441C08A8D9FEF49
:101AE000980F9A8F811163C58B8D883031F09FEFED
:101AF000920F923048F4853039F4198E80E8809343
:101B0000B9080E942D1812C4853038F493E0082ECD
:101B100001C0990F0A94EAF701C090E39A8F8F5F92
:101B20008B8F822F8F708330A1F048F4813009F4BD
:101B30002FC2823009F03BC5109279092CC2863041
:101B400009F495C3883009F492C3843009F02FC595
:101B50008EC384E08093B9080E942D1819C42F7099
:101B6000233009F024C588E08093B908D5C380915B
:101B70005809853409F01BC580915A0990E0982FC7
:101B8000882720915B09820F911D2091B108309127
:101B9000B2082817390708F40AC59093B208809351
:101BA000B10880915E098F7309F001C580915F09CA
:101BB0008111FDC48091460990914709009731F445
:101BC0002091480930914909232BA1F020916809FF
:101BD000309169092817390709F0E9C420916A0989
:101BE00030916B098091480990914909281739076C
:101BF00009F0DDC40E949A1C019609F0D8C48091B6
:101C000061098630D1F1813009F0D1C480916C092D
:101C1000883009F0CCC410926C0980916E099091C3
:101C20006F09873FAFEF9A0710F0099601C0089639
:101C300090936F0980936E09809164099091650972
:101C4000909369098093680980916609909167096A
:101C500090936B0980936A09809146099091470996
:101C6000909365098093640980914809909149098E
:101C700090936709809366099EC40E945E1C01963A
:101C800009F095C480916E0990916F0920916C09BB
:101C900030916D0940916409509165096091660920
:101CA00070916709E7EDF8E0CEEBD8E010811123E1
:101CB000A9F0AC81BD818A179B0781F4AE81BF81F9
:101CC0002A173B0759F4A881B9814A175B0731F4F9
:101CD000AA81BB816A177B0709F474C16E967E9650
:101CE000A9E0C633DA0711F7209179092F73223062
:101CF000E1F4909317078093160740E0443098F47E
:101D0000E42FF0E0EE0FFF1FEA5CF64F20813181F7
:101D10004F5F8217930791F71092190720E0C0E0F8
:101D2000D0E03EE17EC0409319078091790982FDA1
:101D30003EC484E18093790988E290E09093B208F0
:101D40008093B10880E58093780980917309909120
:101D50007709909373093091720990917609909365
:101D600072093093760920917109909175099093C9
:101D7000710920937509909170099093190740910A
:101D8000740940937009909374098F5F8093770969
:101D900081110FC081E0830F80937609811109C002
:101DA00081E0820F80937509811103C09F5F90933A
:101DB000740980916C0990916D0990931707809335
:101DC000160720916E0930916F0930936D092093A9
:101DD0006C0990936F0980936E09809164099091CA
:101DE00065099093690980936809809166099091CB
:101DF000670990936B0980936A09809146099091D5
:101E000047099093650980936409809148099091EE
:101E1000490990936709809366098BC3473099F00D
:101E20002F5F2430F0F4822F90E0389FF001399F2B
:101E3000F00D1124E254F74F418D4111EFCF209363
:101E40001907EF0110C0209721F0528D4A8D4517D8
:101E500038F7389FE001399FD00D1124C254D74F75
:101E6000DFCF20931907209709F4A1C3D093BD08B1
:101E7000C093BC0883E08A8F888F1E8A84E08F8B92
:101E80001B8E80916E0990916F099D838C83809148
:101E90006C0990916D099F838E8380916409909164
:101EA00065099983888380916609909167099B836E
:101EB0008A8381E0898F80911C078C8780911D0720
:101EC0008D8780911E078E8780911F078F8781E005
:101ED00090E0998B888B809173098B878091720930
:101EE0008A8780917109898780917009888781E04C
:101EF00090E0DFDC80917809282F207F30E02135C9
:101F000031050CF445C082958F7090E00597880FDD
:101F1000991F880F991F3091180720E0E22FF0E0F9
:101F2000E817F9078CF5E65BF64F36A9311105C0C5
:101F300020931907109218072BC0313011F42F5F2E
:101F4000EDCF3230E1F447A94430C9F420931907AA
:101F50003093180780AD90E0982F882721AD822B11
:101F60009093170780931607813022E0920710F0B4
:101F700080E092E09B8B8A8B9D8B8C8B09C047A95C
:101F8000442311F0240FCACF209319073093180768
:101F900080E1809379098091790982608093790941
:101FA00082E08093800994E0909381098093820974
:101FB000109283098CE290E09093B2088093B1086C
:101FC00080E665C2D093BD08C093BC081092B908E2
:101FD0003091790932FF03C0198E80E206C2209148
:101FE000780922952F70220F220F209319078091D4
:101FF000B1089091B2084497821B91099093B2085E
:102000008093B1081F70123021F4232F2F732231D7
:10201000C9F0892B19F4832F8370A1F09091700976
:10202000888598132AC2909171098985981325C2D1
:10203000909172098A85981320C2909173098B85BB
:1020400098131BC234FF49C06889798961157105ED
:1020500009F443C0CE010C96F5DB309174098091F0
:10206000B50838133AC0209175098091B608281335
:1020700034C0909176098091B70898132EC0809152
:1020800077094091B808841328C03C872D879E8724
:102090008F878B8D81111AC02E89888D9A8D891B0F
:1020A000922F969596959695891B280F2E8B87FDD6
:1020B00081959F89392F36953695931B980F9F8B65
:1020C000822F869586958695890F888F81E08093EB
:1020D000B908888D8A8F198A188A498D842F8F7044
:1020E00090E0FC013197E830F10508F060C2EE584D
:1020F000FF4F0C94972B8091B90880FF58C283E062
:10210000898F80E48093B908198A188A8091B10870
:102110009091B208009709F4FBC022E42093B9081B
:10212000C8DBF6C08091B90880FF6FC08091790943
:102130008F73823109F069C080917809282F207F40
:1021400030E0213531050CF445C082958F7090E068
:102150000597880F991F880F991F3091180720E065
:10216000E22FF0E0E817F9078CF5E65BF64F36A9A9
:10217000311105C020931907109218072BC0313078
:1021800011F42F5FEDCF3230E1F447A94430C9F4A8
:10219000209319073093180780AD90E0982F882777
:1021A00021AD822B90931707809316078130A2E010
:1021B0009A0710F080E092E09B8B8A8B9D8B8C8B32
:1021C00009C047A9442311F0240FCACF209319074F
:1021D0003093180783E0898F8091700988878091F8
:1021E00071098987809172098A87809173098B8729
:1021F00081E090E05EDB82E48093B908198A188A56
:102200001092B2081092B10883C080E28093B9089E
:1022100024D7E091BC08F091BD08118E86CD809145
:10222000790980FF26C044FD24C088899989892BBB
:1022300009F0BDC18091B1089091B208019639DBD7
:102240002091B908822F80618093B9088091B108EC
:102250009091B208892B19F022612093B908FDD61C
:1022600081E090E0998B888B88E0898F1B8E81E1DB
:1022700005C185FF1CC080917E0990E0982F8827BA
:1022800020917F09822B2091BA083091BB08280F3A
:10229000391F3093BB082093BA082091B1083091C0
:1022A000B208281B390B3093B2082093B1088091F3
:1022B000B1089091B208009741F044FD06C020910A
:1022C000B90822602093B908F4DA80917A0990E085
:1022D000982F882720917B09820F911D90931707D3
:1022E000809316072C893D892817390710F0892B10
:1022F00021F43093170720931607809116079091C9
:1023000017079B8B8A8B8091B908837009F44FC1A2
:102310001092AF091092AE09A0D68091B90885FF3E
:1023200007C01092AF091092AE09198E84E1A6C0C1
:1023300084FF0AC01092AF091092AE0981E090E0CC
:10234000998B888B84E091CF2091AE093091AF09B1
:1023500021153105E1F080FF02C0198A188A8889A9
:102360009989009781F48A899B898217930720F4C1
:102370009093AF098093AE098091AE099091AF0917
:10238000998B888B04C09093AF098093AE091B8E04
:102390008091B3089091B4089093BB088093BA08D9
:1023A0008091AE099091AF09892B59F0888999895C
:1023B000009739F088969093B2088093B10888E12D
:1023C0000BC08091B90881FFF2C088E290E0909341
:1023D000B2088093B10880E18093790957C0809159
:1023E000B90880FFE4C0198E80E18093B90835D622
:1023F000DEC08091B1089091B208009709F059DAD7
:10240000909179098091B90890FF0BC080FF06C0B8
:1024100087E0898F1A8E198A188A18C086E0898FFA
:1024200015C080FF1BC085E0898F198A188ABFC03C
:102430008091B1089091B208009709F03ADA809142
:10244000790980FF0BC087E0898F1A8E81E090E0C8
:1024500030DA80E18093B90800D60FC08091B108CE
:102460009091B208892B49F4A2C08091B90880FFED
:102470009EC087E0898F1A8E9AC080E18093790987
:1024800088E290E09093B2088093B10880E5809351
:1024900078098885809374098985809375098A8570
:1024A000809376098B85809377098C85809370095A
:1024B0008D85809371098E85809372098F858093B5
:1024C000730986E0809361098C819D8190936D09E9
:1024D00080936C098E819F8190936F0980936E0920
:1024E000809146099091470990936509809364090A
:1024F00080914809909149099093670980936609F2
:102500008881998190936909809368098A819B8168
:1025100090936B0980936A09898D84FF05C010929E
:102520007B0910927A0905C082E080937A091092A3
:102530007B0980E4809360098091B1089091B20892
:1025400090935A0980935B0910927F0910927E093B
:1025500010927D0910927C090E945E1C80959095D6
:1025600090937D0980937C0985E4809358091092AB
:10257000590910925F0910925E098091200790918D
:1025800021070196909321078093200790935C097F
:1025900080935D0910926309109262090E949A1C4F
:1025A00080959095909363098093620904C010927E
:1025B000B2081092B1081092B908DF91CF911F9123
:1025C000089598278927982708959C01AB01709357
:1025D000AF096093AE091616170654F48091B3083C
:1025E0009091B4082817390719F0B9010C944A2EB4
:1025F0000895FF920F931F93CF93DF93DC01FB01AC
:1026000010922B0760E07BE0683010F5769FE001C8
:102610001124C05DD84F2881398121153105B1F0D1
:102620008A819B81009791F04D915C91119742179F
:10263000530761F412962D913C911397281739078F
:1026400029F460932B07DE0114964FC06F5FDCCF37
:1026500020E03BE0283090F4329FE0011124C05D7F
:10266000D84F88819981892B39F48A819B81892B64
:1026700019F420932B0730C02F5FECCF20932B074A
:10268000283051F500912907802F90E010E070E08C
:1026900060E02BE0F22E683098F4F69EE001112401
:1026A000C05DD84FCA85AC014C1B5109212F30E0C9
:1026B000241735071CF4762F102F1C1B6F5FEBCFF0
:1026C0001093280770932A0770932B078BE0789F4D
:1026D000E0011124C05DD84F4D915D916D917C91C9
:1026E000DE014D935D936D937D9386E001900D9295
:1026F0008A95E1F7809129078A87DF91CF911F9111
:102700000F91FF90089510922B079BE080912B076B
:10271000883068F4989FF0011124E05DF84F108232
:102720001182128213828F5F80932B07EFCF08955F
:102730008091B1089091B2080E979093B20880935F
:10274000B108809146099091470920916409309120
:1027500065098227932720914209309143098223FA
:102760009323892BB9F480914809909149092091CC
:102770006609309167098227932720914409309197
:10278000450982239323892B29F460E579E084E6C7
:1027900099E02FCF08958091B1089091B2081092DE
:1027A000B2081092B1088A9708F4089580915E09E2
:1027B00090915F09811521E0920729F081159240DF
:1027C00009F475C0089520917009309171098091C4
:1027D0004609909147092817390709F083C02091CD
:1027E000720930917309809148099091490928171D
:1027F000390709F077C060E679E086E699E0F9DE0E
:1028000080E092E090935F0980935E0986E0E0E6C5
:10281000F9E0AAE6B9E001900D928A95E1F786E029
:10282000E2E2F7E0A0E6B9E001900D928A95E1F7C7
:1028300086E0E2E2F7E0A0E5B9E001900D928A952A
:10284000E1F786E0EAE6F9E0AAE4B9E001900D924A
:102850008A95E1F7809166099091670990937109D3
:102860008093700980916809909169099093730928
:102870008093720980914609909147099093670966
:10288000809366098091480990914909909369095C
:102890008093680988E096E09093570980935609E1
:1028A0008AE290E09093B2088093B1080895209155
:1028B0007009309171098091460990914709281754
:1028C000390781F420917209309173098091480988
:1028D000909149092817390729F460E679E086E6DE
:1028E00099E087CE089520916809309169092F3FBA
:1028F0004FEF340751F480916A0990916B0901966A
:1029000021F486E0E5E0F5E0C6C0809146099091AB
:102910004709822793274091420950914309842314
:102920009523892B91F440916A0950916B0980910C
:10293000480990914909842795276091440970912D
:10294000450986239723892B89F080913E09909130
:102950003F0990932D0780932C0780914009909117
:10296000410990932F0780932E0708C030932D07BD
:1029700020932C0750932F0740932E0780912C070C
:1029800090912D0720912E0730912F0760E07BE07A
:10299000683090F4769FF0011124E05DF84F40819B
:1029A00051818417950731F44281538124173507EB
:1029B00009F46DC06F5FECCF60932B07683009F0AE
:1029C00068C046E050E06FEF70E08AE499E00E9452
:1029D000532E26E0EAE6F9E0DF01422F1D924A95E8
:1029E000E9F7E2E2F7E0A0E5B9E0822F01900D926D
:1029F0008A95E1F7E2E2F7E0A0E6B9E0822F0190E4
:102A00000D928A95E1F780912C0790912D07909374
:102A100071098093700980912E0790912F079093F0
:102A200073098093720980914609909147099093A8
:102A300067098093660980914809909149099093AC
:102A400069098093680980E091E090935F09809321
:102A50005E09909359098093580988E090E090931B
:102A60005B0980935A0920935C0984E080935D0997
:102A700088E096E0909357098093560980E899E0A2
:102A80009093BB088093BA088AE290E01EC06093DE
:102A90002B07349686E0AAE4B9E001900D928A955E
:102AA000E1F786E0E2E2F7E0A0E5B9E001900D92FF
:102AB0008A95E1F788E090E0909357098093560952
:102AC0008091B1089091B2080E969093B2088093CD
:102AD000B10808950F9300E020E040E060E088E84E
:102AE00097E00E9432260F9108950F9300E020E0B6
:102AF00040E060E08EE897E00E9432260F91089552
:102B0000DC01ED91FC91008CF18DE02D199591E0A7
:102B10008927089580E090E00895DC011C96ED91EE
:102B2000FC911D97309741F08181882311F081E05D
:102B30000895808184FDFBCF80E00895FC014485E9
:102B400055854115510551F0FB0124853585211529
:102B5000310521F081E04217530709F080E0089524
:102B6000CF93DF931F92CDB7DEB7DC01ED91FC91DF
:102B70000088F189E02D41E050E0BE016F5F7F4F9A
:102B8000199597FD03C0898190E002C08FEF9FEFF8
:102B90000F90DF91CF910895CF93DF93EC01A9D3EC
:102BA000EC85FD85309749F0808186FD02C081E08B
:102BB00005C08181882311F0FACF80E0DF91CF91A9
:102BC0000895CF92DF92EF92FF920F931F93CF93CE
:102BD000DF9300D01F92CDB7DEB77C018B016A0175
:102BE000DC01ED91FC910288F389E02D1995F80143
:102BF000228130E0322F22278381282B322723277E
:102C000032273A832983248130E0322F222785819D
:102C1000282B3227232732273C832B83C601D1DC84
:102C2000BC01CE0101960E94920C8C01009719F410
:102C300080E090E016C0D80159968C918F70C1F356
:102C400058D3D80159968C9159978F70833099F742
:102C50005C968D919C915D97F7019587848781E0C3
:102C600090E00F900F900F900F90DF91CF911F91F8
:102C70000F91FF90EF90DF90CF9008950F931F93E7
:102C8000CF93DF931F92CDB7DEB78C01DC01ED91BE
:102C9000FC910688F789E02D19958823A1F0D801C9
:102CA0001C96ED91FC911D978181882361F021E0B4
:102CB00030E0AE014F5F5F4F60E070E00E942C0992
:102CC000898190E002C08FEF9FEF0F90DF91CF914D
:102CD0001F910F910895FC011382128248EE53E078
:102CE00060E070E044835583668377838FE095E0EE
:102CF00091838083158614860895EF92FF920F9337
:102D00001F93CF93DF937C01C0E0D0E000E010E0A0
:102D1000F701EC0FFD1F81810E949707080F191F13
:102D20002196C530D105A1F7C801DF91CF911F9140
:102D30000F91FF90EF900895CF93DF93EC01E8811E
:102D4000F9810688F789E02D1995882329F08C856B
:102D50009D85DF91CF91D1CF80E090E0DF91CF9141
:102D60000895CF93DF93E4E9F7E080E0908191113B
:102D70000AC08061DF018D9380E1ED0119928A958F
:102D8000E9F7CF0106C08F5F7196843079F780E054
:102D900090E0DF91CF910895FC01319681E091910F
:102DA000911102C0815008958F5F8530C1F784E092
:102DB00008959F92AF92BF92CF92DF92EF92FF92CF
:102DC0000F931F93CF93DF93EC016B017A018A017C
:102DD0005C0186E0A80EB11C8CD2209709F445C096
:102DE0008881807609F041C0C501D6DF982EFE01AA
:102DF000E80FF11D868181110CC080E092E00E94F5
:102E0000400BFE01E90DF11D8683882329F31C8602
:102E10001B86A701401B510B4C0D5D1D6B857C85EE
:102E20009801FE01E90DF11D86810E943C09081BF5
:102E3000190B2B853C85280F391F3C872B871016D3
:102E400011062CF484E0981639F29394D6CF0E94A0
:102E50002C28665F7F4F8F4F9F4F6D877E878F87B0
:102E6000988BC701801B910B02C08FEF9FEFDF9102
:102E7000CF911F910F91FF90EF90DF90CF90BF9077
:102E8000AF909F900895CF93DF931F92CDB7DEB799
:102E9000698341E050E0BE016F5F7F4FFC01848594
:102EA000958587DF0F90DF91CF910895FC01848590
:102EB00095857FCF0F931F93CF93DF938C01EC0108
:102EC00089910E94DE0BF801C80104962991219393
:102ED000E817F907D9F7F8011482DF91CF911F9114
:102EE0000F9108959F92AF92BF92CF92DF92EF928F
:102EF000FF920F931F93CF93DF93EC015B017A0155
:102F0000E881F9810688F789E02D1995882309F46D
:102F100055C0EC85FD858181882309F452C0870165
:102F20002EE1922EA701401B510B4A0D5B1DEC8533
:102F3000FD85980160E070E081810E942C096C01A0
:102F4000EC85FD8581810E949707EC85FD85C8167B
:102F5000D90649F50C191D09CF010196ABDFAC85E7
:102F6000BD852C91822F90E08F70989EF001999EE4
:102F7000F00D1124E254F74F818D84FF05C0822F9C
:102F8000807611F420682C93EC85FD858181811178
:102F90000FC0808186FF03C010821D861C86C7017A
:102FA000801B910B10C0B60181810E94000C04C0EF
:102FB0000115110509F0B6CFC70105C08FEF9FEFCE
:102FC00002C080E090E0DF91CF911F910F91FF90C0
:102FD000EF90DF90CF90BF90AF909F9008951F9398
:102FE000CF93DF93EC0115E088810E94DE0B1992EC
:102FF0001150D1F7DF91CF911F910895CF93DF93B7
:10300000EC018C859D85009779F0FC0120812223BD
:1030100059F00196E4DFEC85FD85808186FF02C0D2
:10302000108202C0806280831D861C86DF91CF9152
:1030300060C1CF93DF93EC01E881F9810688F789BD
:10304000E02D1995882331F08C859D850196DF91BF
:10305000CF91C5CFDF91CF910895DF92EF92FF928C
:103060000F931F93CF93DF93E091BC08F091BD08BD
:10307000C48DD58D209779F48091B90886FF43C01F
:1030800070DEEC01009709F43EC0E091BC08F091BD
:10309000BD08958F848F8091B90881FF07C080910A
:1030A000B1089091B208892B09F041C0888187FF4F
:1030B0000EC08F7788838091B90882608093B908A9
:1030C000E091BC08F091BD08818D8F7E818F809149
:1030D000B90884FF6BC0CE01069681DF8981882301
:1030E00009F467C0E091BC08F091BD088481958126
:1030F0009F838E83888180648883E091BC08F091EF
:10310000BD08158E148EE12CF12CB7018091BA0800
:103110009091BB085ADAF092B208E092B108DF91C0
:10312000CF911F910F91FF90EF90DF9008958881CC
:10313000807609F0BBCFE12CF12C8E010E0D1F1D06
:10314000F801818181111EC08091B1089091B2086F
:103150000E94400BF80181838823A1F00091B108FF
:103160001091B2082091BA083091BB082A54394016
:103170004091EC0760E070E00E94190AF4E0EF1261
:1031800095CF0CC02FEFE21AF20A35E0E316F104F6
:10319000A1F68091E9078E7F8093E907E091BC0852
:1031A000F091BD08818D8061818F80CF87FF03C042
:1031B00092CF1882A2CF80FF03C0CE0106967ADE9E
:1031C0008091B9088C70D1F18E818823B9F19F81EB
:1031D00091110CC0EB84FC84E114F10409F493CF49
:1031E000A70160E070E00E94130C06C00E949707E0
:1031F0007C01009709F487CF8091BA089091BB08B1
:103200008A5499408093EA07F701E80FF11DCF0136
:103210000E94400B8093EB07882309F476CF6091DE
:10322000EA0770E0870120E030E04E810E94190A31
:103230008091E90782608093E90767CF888185FFE5
:1032400062CF8E8181110BC01882E091BC08F09191
:10325000BD08158E148E80E18093B90854CFE0919B
:10326000BC08F091BD08818D8061818F4CCF0F9398
:1032700000E020E040E060E088ED97E00E94322628
:103280000F9108958091E90781FF11C02091EA070D
:1032900030E04AE459E060E070E08091EB070E9482
:1032A0003C098091E9078D7F8093E90714C08091E4
:1032B000B1089091B2080E94400B8093EB078823DD
:1032C000B1F02091B1083091B2084AE459E060E0D1
:1032D00070E00E943C098091EB070E949609809162
:1032E000EB070E94DE0B1092EB0781E0089580E06F
:1032F0000895CF92DF92EF92FF921F93CF93DF93C7
:103300008091EC07811104C00E949E088093EC0715
:103310008091EC07882309F443C091E09093E9077A
:103320000E9497079093B2088093B108892B61F1AE
:1033300022E630E04AE459E060E070E08091EC077A
:103340000E942C0980915609909157098830910567
:1033500081F48091EC078093EB07EAD981E00E9429
:10336000160D8091B1089091B208892B69F0BBDAF3
:103370000AC08830964041F40EDA8091B1089091ED
:10338000B208892B09F07EDF8091EC07882341F099
:103390008091E90780FF04C00E949D081092EC070D
:1033A0000E942C286B017C018091DF079091E0073F
:1033B000A091E107B091E207A7019601281B390B04
:1033C0004A0B5B0BDA01C90180959095A095B095E9
:1033D0008827B7FD83959927AA27BB27182FCEEBFF
:1033E000D8E0D093BD08C093BC08112311F082E04F
:1033F0000FC0EC8DFD8D4585568567857089D70199
:10340000C601841B950BA60BB70BB7FD0BC083E061
:103410000E94160D2091B1083091B208232B11F0B3
:1034200062DA30DF6E9699E0C633D907D1F6112300
:1034300069F0AAEFCA0ED11CE11CF11CC092DF0793
:10344000D092E007E092E107F092E207DF91CF919E
:103450001F91FF90EF90DF90CF900895CF93DF936F
:10346000EC010E942C2866507F4F8F4F9F4F609336
:10347000DF077093E0078093E1079093E207CE01A6
:103480000E94600A888180932207898180932307A4
:103490008A81809324078B81809325078C81809378
:1034A00026078D81809327070E94720CDF91CF91B0
:1034B0002AC9CF93DF93FC01DA01E901228130E0D0
:1034C000322F22278381282B848190E0982F882710
:1034D0004581842B322723273227309347092093B5
:1034E0004609982789279827909349098093480986
:1034F00012962C91129730E0322F222713968C913E
:103500001397282B14968C91149790E0982F882766
:1035100015964C91842B32272327322730933F096D
:1035200020933E09982789279827909341098093F3
:1035300040092A8130E0322F22278B81282B8C8171
:1035400090E0982F88274D81842B3227232732271C
:10355000309343092093420998278927982790930D
:10356000450980934409FB0182819381A481B5813F
:103570008093E5079093E607A093E707B093E807E9
:10358000DF91CF910895AF92BF92CF92DF92EF92E9
:10359000FF920F931F93CF93DF93CDB7DEB768975A
:1035A0000FB6F894DEBF0FBECDBFCB016A01590143
:1035B00055DF2FE335E03A832983F7018281938138
:1035C000A481B5818B839C83AD83BE8338872F8391
:1035D000F80182819381A481B58189879A87AB871D
:1035E000BC873E872D87F50182819381A481B581B7
:1035F0008F87988BA98BBA8B3C8B2B8BF6018281A2
:103600009381A481B5818D8B9E8BAF8BB88F9E01EA
:103610002F5F3F4FAE01495F5F4FBE01635F7F4F3A
:10362000CE01439646DF68960FB6F894DEBF0FBE14
:10363000CDBFDF91CF911F910F91FF90EF90DF9061
:10364000CF90BF90AF9008956F927F928F929F928C
:10365000AF92BF92CF92DF92EF92FF920F931F93A0
:10366000CF93DF93CDB7DEB76E970FB6F894DEBF7A
:103670000FBECDBF6C015B017A014901380100E04A
:103680002FEF4FEF6FEFCE0149960E9432262FE3C6
:1036900035E03A8329838B8D9C8DAD8DBE8D8B83D8
:1036A0009C83AD83BE8338872F83F301828193810E
:1036B000A481B58189879A87AB87BC873E872D8790
:1036C000F40182819381A481B5818F87988BA98B26
:1036D000BA8B3C8B2B8BF7014281538164817581BE
:1036E0004D8B5E8B6F8B788FCE0101967C018E01A6
:1036F000095F1F4F9E01235F3F4FAE014D5E5F4F3D
:10370000B501C60140DF6E960FB6F894DEBF0FBE5E
:10371000CDBFDF91CF911F910F91FF90EF90DF9080
:10372000CF90BF90AF909F908F907F906F900895B3
:10373000CF92DF92EF92FF920F931F93CF93DF937D
:10374000CDB7DEB768970FB6F894DEBF0FBECDBF1A
:103750006B017901DA0112964D915D916D917C9129
:1037600015974D8B5E8B6F8B788FAFE3B5E0BA8387
:10377000A98321E0288F0D891E892F89388D0B831D
:103780001C832D833E83B887AF83F70102811381A9
:103790002481358109871A872B873C87BE87AD87AF
:1037A0004F87588B698B7A8B8E010F5F1F4F9E015D
:1037B000295F3F4FAE01435F5F4FB60145DF68961B
:1037C0000FB6F894DEBF0FBECDBFDF91CF911F9132
:1037D0000F91FF90EF90DF90CF9008950F931F937C
:1037E000CF93DF93CDB7DEB762970FB6F894DEBF05
:1037F0000FBECDBFDB01FA01428153816481758127
:103800004F87588B698B7A8BEFE3F5E0FA83E98376
:1038100021E02A8B0F85188929893A890B831C831B
:103820002D833E83F887EF8349875A876B877C8790
:103830009E012F5F3F4FAE01495F5F4FBD0178DFB3
:1038400062960FB6F894DEBF0FBECDBFDF91CF9169
:103850001F910F910895FB0141505109460F571FC9
:10386000E417F50778F4208130E0322F22276181B8
:10387000260F311D820F931F8217930708F40196BC
:103880003296EECFE417F50751F4208130E0322F65
:103890002227820F931F8217930708F40196089539
:1038A00044E150E068E579E080E090E0D4DF009703
:1038B00011F00C94E1128FEF9FEF08950F931F9377
:1038C000CF93DF9380915A0990E0982F8827209119
:1038D0005B09820F911D8C010451110948E050E0F1
:1038E00064E679E00E97B7DFC0917809C695C69572
:1038F000CC73D0E0AE016CE679E0ADDFC017D10744
:1039000050F498012C1B3D0BAE014E5D5F4F609152
:10391000EB070E94E70A009731F0DF91CF911F91EA
:103920000F910C94E1128FEF9FEFDF91CF911F91D8
:103930000F910895B5CF0F9300E020E040E060E0E4
:103940008DEE97E00E94322683EE97E00F910C9463
:1039500028260F9300E020E040E060E083EF97E04E
:103960000E9432260F9108950F9300E020E040E07E
:1039700060E089EF97E00E9432260F910895FC01E4
:1039800010820895CF92DF92EF92FF92CF93DF9350
:10399000EC016A017B018B859C85AD85BE859A0112
:1039A000AB01281B390B4A0B5B0BDA01C9014981BA
:1039B0005A816B817C8184179507A607B707D8F0D9
:1039C0008881813019F0823029F00CC0E985FA85B0
:1039D000199508C061E08885811160E068878F8152
:1039E0000E947929CB86DC86ED86FE868F859889B4
:1039F0000196988B8F878D819E8197FD06C02F85BC
:103A00003889281739070CF01882DF91CF91FF9081
:103A1000EF90DF90CF9008950F931F93CF93DF9394
:103A2000EC018C0106551F4FCE01A9DF6196C0172E
:103A3000D107D1F7DF91CF911F910F910895CF92C8
:103A4000DF92EF92FF921F93CF93DF936A017B0186
:103A5000EC011AE08881882321F0B701A601CE018C
:103A600091DF115061961111F5CFDF91CF911F9128
:103A7000FF90EF90DF90CF900895CF93DF93EC010C
:103A80000E942C28AB01BC01CE01DF91CF91D7CF92
:103A900020E0FC013081332331F02F5F41962A3042
:103AA000C1F78FEF0895822F0895CF92DF92EF92A2
:103AB000FF920F931F93CF93DF9300D01F92CDB748
:103AC000DEB76C01790149835A836B837C83E0DF25
:103AD000282F49815A816B817C818F3FD9F081E108
:103AE0002802C00CD11C112481E0F601808341839F
:103AF00052836383748316830583F286E186298368
:103B00000E942C28F6016387748785879687108A20
:103B100017862981822F0F900F900F900F90DF91C1
:103B2000CF911F910F91FF90EF90DF90CF9008956C
:103B30000F931F930FEF1FEFB8DF1F910F910895A1
:103B4000CF92DF92EF92FF920F931F93CF93DF9369
:103B5000EC018B010E942C286B017C0188819981EA
:103B6000DC01ED91FC910480F581E02D1995892B04
:103B700069F40E942C286C197D098E099F09683907
:103B80007A438105910550F380E00CC088819981CA
:103B9000DC01ED91FC910680F781E02D1995F8018B
:103BA000808381E0DF91CF911F910F91FF90EF9083
:103BB000DF90CF9008950F931F93CF93DF93EA0187
:103BC00008811981600F711FBBDF882331F00F5FFF
:103BD0001F4F1983088381E001C080E0DF91CF91FE
:103BE0001F910F9108953F924F925F926F927F9233
:103BF0008F929F92AF92BF92CF92DF92EF92FF92FD
:103C00000F931F93CF93DF9300D0CDB7DEB78C0116
:103C10006B011A8219825C0182E0A80EB11CAE0110
:103C20004F5F5F4FB501C801C6DF811103C080E05F
:103C300090E0B9C0D80112969C901B82E12CF12C27
:103C4000412C512C32014394BE016D5F7F4FC8015E
:103C500077DF882361F329813A81C90101969A832C
:103C600089836B81F801E20FF31F6283462F4F7740
:103C700050E0449D9001459D300D549D300D112420
:103C8000E20EF31E97E0440C551C661C771C9A95B7
:103C9000D1F767FDD9CF292D207F332433942033EA
:103CA00009F0312C8150F6018083332031F1AE01CF
:103CB0004F5F5F4FB501C8017EDF882309F4B7CF9E
:103CC000AE014F5F5F4FB501C80175DF882309F46E
:103CD000AECFD6018C91F801E80FF11D4380512C35
:103CE000542C44248481480E511CF801828181FFA8
:103CF00008C0F2E04F0E511C04C080E0412C512C52
:103D000001C082E0A82EB12C612C712C480189E9F8
:103D1000880E911CC3018A0D9B1D8E159F0598F579
:103D2000BE016D5F7F4FC8010BDF882309F47FCF91
:103D3000D4018D919C910097A9F0332099F02981AD
:103D40003A8122503109F6014081241B3109421683
:103D5000530640F4DC01ED91FC910190F081E02DDF
:103D60006B81199589819A818038910528F42B817E
:103D7000F801E80FF91F228301969A838983BFEF28
:103D80006B1A7B0AC7CFF801E756FF4F80819181FC
:103D9000892B39F489819A818138910510F01A8232
:103DA000198289819A810F900F900F90DF91CF91A6
:103DB0001F910F91FF90EF90DF90CF90BF90AF9049
:103DC0009F908F907F906F905F904F903F9008955D
:103DD000AF92BF92CF92DF92EF92FF920F931F9319
:103DE000CF93DF9300D01F92CDB7DEB77C01F901EE
:103DF00080E09E2F9F77EE0FEF2FEE1FFF0BF195C8
:103E0000309709F09068A1E0B0E0AC0FBD1FA80F9B
:103E1000B11D9C938F5F309761F7A82EB12CDA010A
:103E2000AA19BB0914966C93BE016F5F7F4F80E0A7
:103E300090E04A195B098A159B0554F4FB01D19067
:103E4000BF018A01080F191FF801D5820196F3CF2F
:103E5000F7018081918189010F5F1F4F0A0D1B1DA2
:103E6000FC0120813181F90122813381A801BD014A
:103E7000F90119956C010E942C28F701EC57FF4FAE
:103E8000608371838283938381E0C016D10609F039
:103E900080E00F900F900F900F90DF91CF911F91C6
:103EA0000F91FF90EF90DF90CF90BF90AF9008956B
:103EB000C9010296DB01FD01E61BF70B2D912223C0
:103EC00031F0FA01E80FF91F20830196F4CF9C012D
:103ED0002E1B3F0B240F351FD9011297FC9311960F
:103EE000EC930895CF93DF93EC018881998100973B
:103EF00031F1DC01ED91FC910488F589E02D1995F3
:103F000081111FC0FE01E556FF4F80819181892BF1
:103F1000B1F48DEF9FEF9183808388819981DC01DB
:103F2000ED91FC910284F385E02D199588819981AA
:103F3000DC01ED91FC910288F389E02D199580E078
:103F400001C081E0DF91CF9108952F923F924F926F
:103F50005F926F927F928F929F92AF92BF92CF9219
:103F6000EF92FF920F931F93CF93DF93CDB7DEB7FE
:103F70002E970FB6F894DEBF0FBECDBF4C011B01CC
:103F80002A013901AFDF811111C1F401EB56FF4F56
:103F900060817181D4018D919C911197A956BF4F79
:103FA000FC01208131816115710541F04D915C91D9
:103FB000D9011E96ED91FC911F971FC0F901048451
:103FC000F585E02DFE87ED87ED91FC912FE335E03F
:103FD0003A832983D401A157BF4F12964D915D9129
:103FE0006D917C9115974B835C836D837E83AF01CC
:103FF000BE016F5F7F4FED85FE851995F40181301D
:10400000910509F0CBC0EE57FF4F9183808389E083
:10401000EBE1F2E0DE01119601900D928A95E1F755
:10402000FE01319680E090E02191D401A80FB91FE4
:1040300017962C93019689309105B1F7011511055A
:1040400059F0F0E2CF9EC0011124866028E0E29E84
:10405000700111248E2901C082E04114510431F015
:104060006114710411F4806801C0806CD401509611
:104070008C93509751961C9251978FE052968C9347
:104080007401B2E0EB0EF11C21E130E0A701B101B7
:10409000C4010EDF0115110551F09C01A701B80103
:1040A000C40106DF9C01A701B501C40101DF411471
:1040B000510469F09C01A701B201C401F9DE611449
:1040C000710429F09C01A701B301C401F1DE9C0138
:1040D00025503109A70160E1C4017ADEBDD7F401A2
:1040E000EC57FF4F60837183828393838401085769
:1040F0001F4FF8016083718382839383F401808171
:104100009181DC01ED91FC910480F581E02D199500
:10411000892BB9F4A1D7D8014D905D906D907C901A
:10412000641975098609970968397A4381059105EB
:1041300028F3F401E556FF4F8CEF9FEF91838083C6
:1041400022C0BE01665F7F4FC4014DDD0497D9F4E4
:10415000F4018581940125563F4F790181110FC0EB
:104160007BD7D8016D937D938D939C931397F40126
:10417000E457FF4F1082F7011182108217C090E0C0
:10418000D9018D939C93F40180819181DC01ED91A3
:10419000FC910288F389E02D199506C0E556FF4F82
:1041A0008EEF9FEF9183808380E001C081E02E96A7
:1041B0000FB6F894DEBF0FBECDBFDF91CF911F9138
:1041C0000F91FF90EF90CF90BF90AF909F908F9006
:1041D0007F906F905F904F903F902F900895AF9297
:1041E000BF92CF92EF920F931F93A12CB12CC12CB1
:1041F000E12C00E010E0A9DE1F910F91EF90CF902D
:10420000BF90AF9008952F923F924F925F926F921E
:104210007F928F929F92AF92BF92CF92DF92EF9256
:10422000FF920F931F93CF93DF9300D01F92CDB7D0
:10423000DEB78C014DB65EB655DE882309F440C169
:104240000BD76B017C01580128E8A20EB11CF501C7
:1042500080819181A281B381A7019601281B390B2E
:104260004A0B5B0BDA01C90189399A43A105B105F3
:1042700090F4349780819181A281B381A701960146
:10428000281B390B4A0B5B0BDA01C90189399A43A8
:10429000A105B105C0F148014CE8840E911CD40180
:1042A0002C91F80180819181222371F0E556FF4F16
:1042B0002CEF3FEF31832083DC01ED91FC910288EC
:1042C000F389E02D1995FCC020ECF80122831382BC
:1042D000DC01ED91FC910280F381E02D42E050E0A1
:1042E000B8016E5F7F4F1995F801EC57FF4FC08200
:1042F000D182E282F382F501C082D182E282F3822E
:1043000081E0D4018C93F80180819181DC01ED91F1
:10431000FC910480F581E02D1995892B09F4D2C018
:10432000BE016F5F7F4FC8015EDCFC01009709F49E
:10433000C9C0D501CD92DD92ED92FC921397D801C0
:1043400012968C91807F803309F09FC04801BDE8B0
:104350008B0E911CD4018D919C91892B09F4B2C0D4
:104360002DB63EB6698170E0D801A60FB71F13962F
:104370004C91139750E0542F442714968C91149726
:10438000480F511DCA0101962DB73EB7281B390BA6
:104390000FB6F8943EBF0FBE2DBF8DB79EB70196E6
:1043A0005C0120E030E0BC83AB832417350769F063
:1043B0006B807C80620E731ED30115966C90D501C4
:1043C0006D925D012F5F3F4FF0CFDC01A20FB31F55
:1043D0001C92D8011296BC91B670BA83B230E9F53E
:1043E0003901660E771ED801A60DB71D1596AC9043
:1043F0001597B12CBA2CAA2416964C91A40EB11C78
:104400004BEF5FEF461B570B421B530B4E0F5F1FCB
:10441000B301695F7F4F600F711FD401ED91FC9173
:10442000199580E4F80182837A807382B482A58230
:10443000D8018D919D91BD01DC01ED91FC9102802F
:10444000F381E02D44E050E01995F801EC57FF4F5F
:10445000C082D182E282F38212C04DEF5FEF461B31
:10446000570B421B530B4E0F5F1F620F731F6B5F87
:104470007F4F600F711FD401ED91FC9119950FB61C
:10448000F8943EBE0FBE2DBE1DC0803C91F480ED61
:10449000F80182831382D8018D919D91BD01DC01C9
:1044A000ED91FC910280F381E02D42E050E01995FE
:1044B00009C0803D39F4F801E457FF4F108202C073
:1044C00080E001C081E00FB6F8945EBE0FBE4DBE25
:1044D0000F900F900F900F90DF91CF911F910F9140
:1044E000FF90EF90DF90CF90BF90AF909F908F9014
:1044F0007F906F905F904F903F902F9008958F9294
:104500009F92BF92CF92DF92EF92FF920F931F93F1
:10451000CF93DF931F921F92CDB7DEB74C01B42E1D
:10452000152F790169837A83DDDC69817A8188239B
:1045300009F444C0FB0101900020E9F73197E61B24
:10454000F70BC70107968E0F9F1F81389105B0F5B5
:10455000640182E0C80ED11C25E030E0A601C40150
:10456000A7DCEB2DF12F60E070E09401280F391FDC
:104570006E157F0549F04191D901A60FB71F12961C
:104580004C936F5F7F4FF4CF011102C060E301C015
:1045900061E3970125503109280F391FA601C40195
:1045A0000F900F90DF91CF911F910F91FF90EF909F
:1045B000DF90CF90BF909F908F900ACC80E00F90BB
:1045C0000F90DF91CF911F910F91FF90EF90DF90AF
:1045D000CF90BF909F908F9008950F93FA01019014
:1045E0000020E9F79F0121503109241B350B00E021
:1045F00086DF0F910895CF92DF92FF920F931F9362
:10460000CF93DF931F921F92CDB7DEB76C01F42ECC
:1046100081E0841708F43EC0FB0101900020E9F717
:10462000E61BF70B3896E138F105A0F5C601698362
:104630007A8358DC69817A81882361F1F601EE572B
:10464000FF4F80819181019611F481E090E0918388
:10465000808380819181F6019783808786010E5F38
:104660001F4F27E030E0A801C60122DCF601E80F69
:10467000F91FF2829C0124503109A80162E8C601A9
:104680000F900F90DF91CF911F910F91FF90DF90CE
:10469000CF909ECB80E00F900F90DF91CF911F9134
:1046A0000F91FF90DF90CF90089540E0A4CFCF927C
:1046B000DF92EF92FF920F931F93CF93DF93CDB7CB
:1046C000DEB72C970FB6F894DEBF0FBECDBF7C01CE
:1046D000FB016A010381228141816081CE0107963D
:1046E000C1D209851A852B853C85F701E157FF4F1B
:1046F00002831383248335833896D182C082329714
:1047000011821082C7012C960FB6F894DEBF0FBE3F
:10471000CDBFDF91CF911F910F91FF90EF90DF9070
:10472000CF900895CF92DF92EF92FF920F931F9355
:10473000CF93DF9300D01F92CDB7DEB76C01790124
:1047400081579F4F4B835C8369837A8381D2F601C3
:10475000E556FF4F8FEF9FEF918380834B815C8104
:1047600069817A81C601A3DFF601E357FF4FF18229
:10477000E082F60111830083E756FF4F1182108219
:104780000F900F900F900F90DF91CF911F910F918D
:10479000FF90EF90DF90CF9008950F9300E020E01E
:1047A00040E060E08FEF97E05DD20F910895FC014B
:1047B000818D228D90E0805C9F4F821B91098F73C9
:1047C00099270895FC01918D828D981731F0828D83
:1047D000E80FF11D858D90E008958FEF9FEF08950C
:1047E000FC01918D828D981761F0828DDF01A80FF9
:1047F000B11D5D968C91928D9F5F9F73928F90E01B
:1048000008958FEF9FEF089585EA95E2892B39F09F
:1048100080E090E0892B19F098D1811125C080E0CB
:1048200090E0892B41F080E090E0892B21F00E94FC
:10483000000081111CC080E090E0892B41F080E0F5
:1048400090E0892B21F00E940000811113C080E0CC
:1048500090E0892BA1F080E090E0892B81F00E940C
:10486000000081110AC008950E940000D8CF0E9464
:104870000000E1CF0E940000EACF0C9400000895F0
:10488000FC01848DDF01A80FB11DA35ABF4F2C91ED
:10489000848D90E001968F739927848FA689B789BC
:1048A0002C93A089B1898C9180648C93938D848D95
:1048B000981306C00288F389E02D80818F7D808364
:1048C0000895CF93DF93EC01888D8823C1F0EA89A6
:1048D000FB89808185FD05C0A889B9898C9186FDF9
:1048E0000EC00FB607FCF5CF808185FFF2CFA889F7
:1048F000B9898C9185FFEDCFCE01C2DFE8CFDF9182
:10490000CF910895CF92DF92FF920F931F93CF9391
:10491000DF931F92CDB7DEB76C0181E0D6015896C8
:104920008C9358975B969C915B975C968C915C9767
:10493000981307C05096ED91FC915197808185FDA9
:104940002DC0F601038D10E00F5F1F4F0F7311276D
:10495000F02EF601848DF81210C00FB607FCF9CFC7
:10496000D6015096ED91FC915197808185FFF1CF52
:10497000C601698385DF6981ECCF838DE80FF11D66
:10498000E35AFF4F6083D6015B960C935B97529678
:10499000ED91FC915397808180620CC0D6015696B0
:1049A000ED91FC91579760835096ED91FC91519752
:1049B00080818064808381E090E00F90DF91CF91CF
:1049C0001F910F91FF90DF90CF900895BF92CF92EB
:1049D000DF92EF92FF92CF93DF93EC016A017B01AC
:1049E000B22EE889F98982E08083411581EE58076B
:1049F0006105710599F060E079E08DE390E0A70131
:104A0000960157D6215031094109510956954795CC
:104A100037952795211580E1380790F0E889F989C5
:104A2000108260E874E88EE190E0A701960141D61B
:104A300021503109410951095695479537952795D8
:104A4000EC85FD853083EE85FF852083188EEC890B
:104A5000FD89B082EA89FB89808180618083EA894F
:104A6000FB89808188608083EA89FB8980818068F6
:104A70008083EA89FB8980818F7D8083DF91CF915C
:104A8000FF90EF90DF90CF90BF9008951F920F920C
:104A90000FB60F9211240BB60F922F938F939F9303
:104AA000EF93FF93E0911508F09116088081E09153
:104AB0001B08F0911C0882FD12C0908180911E0895
:104AC0008F5F8F7320911F08821751F0E0911E08AD
:104AD000F0E0EB5FF74F958F80931E0801C0808157
:104AE000FF91EF919F918F912F910F900BBE0F909F
:104AF0000FBE0F901F9018951F920F920FB60F9236
:104B000011240BB60F922F933F934F935F936F93A4
:104B10007F938F939F93AF93BF93EF93FF9385E022
:104B200098E0AEDEFF91EF91BF91AF919F918F9191
:104B30007F916F915F914F913F912F910F900BBE9D
:104B40000F900FBE0F901F90189585E098E02FDE14
:104B500021E0892B09F420E0822F089510920808A3
:104B60001092070888EE93E0A0E0B0E08093090877
:104B700090930A08A0930B08B0930C088FE295E07D
:104B8000909306088093050885EC90E090931208B6
:104B90008093110884EC90E090931408809313089C
:104BA00080EC90E0909316088093150881EC90E0DB
:104BB000909318088093170882EC90E090931A085D
:104BC0008093190886EC90E090931C0880931B0852
:104BD00010921E0810921F081092200810922108AF
:104BE0000895AF92BF92CF92DF92EF92FF920F9310
:104BF0001F93CF93DF936C017B01C0E0D0E000E016
:104C000010E0F601EC0FFD1F4AE050E06281C701A1
:104C1000ECD05C016EE2C7017ED08A0D9B1D080FAF
:104C2000191F2196C330D10561F74AE050E0F60123
:104C30006581C701DAD0800F911FDF91CF911F915D
:104C40000F91FF90EF90DF90CF90BF90AF900895BD
:104C50002FE335E0FC01318320831282138214821A
:104C6000158208950F93FC018FE395E09183808373
:104C700062834383248305830F9108958FE395E036
:104C80009093A3088093A2081092A4081092A508FC
:104C90001092A6081092A7080895CF92DF92EF9283
:104CA000FF920F931F93CF93DF936C017A01EB0177
:104CB000E60EF71E00E010E0CE15DF0561F0699109
:104CC000D601ED91FC910190F081E02DC60119957E
:104CD000080F191FF1CFC801DF91CF911F910F91DC
:104CE000FF90EF90DF90CF9008956115710581F0EE
:104CF000DB010D900020E9F7AD0141505109461B41
:104D0000570BDC01ED91FC910280F381E02D1994A9
:104D100080E090E00895DC01ED91FC910190F0813C
:104D2000E02D19948F929F92AF92BF92CF92DF9213
:104D3000EF92FF920F931F93CF93DF93CDB7DEB720
:104D4000A1970FB6F894DEBF0FBECDBF7C01C42E75
:104D5000E52FCB01D22E19A221E02D1510F02AE06B
:104D6000D22E8E010F5D1F4F8D2C912CA12CB12CBA
:104D70006C2D7E2FA50194019CD48C2DD29E801980
:104D80001124015011098A3014F4805D01C0895C3E
:104D9000F8018083211531054105510521F0C22E0E
:104DA000E32FCA01E5CFB801C7019FDFA1960FB677
:104DB000F894DEBF0FBECDBFDF91CF911F910F9151
:104DC000FF90EF90DF90CF90BF90AF909F908F902B
:104DD00008952115310541F4DC01ED91FC9101901C
:104DE000F081E02D642F19949DCF9A01462F50E059
:104DF00060E070E0EECFCF93DF9300D01F92CDB78D
:104E0000DEB79B01AC01611571058105910559F073
:104E100069833A834B835C833ED629813A814B81F7
:104E20005C8169D403C060E070E0CB010F900F900B
:104E30000F900F90DF91CF910895CF92DF92EF9274
:104E4000FF926B017C0162177307840795075CF47E
:104E5000CA01B9016C197D098E099F09CCDF6C0D5F
:104E60007D1D8E1D9F1DFF90EF90DF90CF900895C8
:104E7000FC018081918136C5CF93DF93EC0188815D
:104E80009981009709F02ED5198218821D821C8203
:104E90001B821A82DF91CF9108950F931F93CF93B6
:104EA000DF93EC018B016F5F7F4F88819981FFD584
:104EB000009731F0998388831B830A8381E001C0C6
:104EC00080E0DF91CF911F910F910895CF93DF93F1
:104ED000EC0188819981892B29F08A819B81861731
:104EE000970758F4CE01D9DF882341F08C819D814A
:104EF000892B19F4E881F981108281E0DF91CF914B
:104F00000895EF92FF920F931F93CF93DF93EC01DD
:104F10007B018A01BA01DADF811103C0CE01ACDF67
:104F200006C01D830C83B70188819981CCD6CE0140
:104F3000DF91CF911F910F91FF90EF900895FC01A9
:104F400011821082138212821582148261157105FA
:104F500051F0FB0101900020E9F7AF0141505109E8
:104F6000461B570BCECF0895FC0124813581232B9E
:104F700031F421E06115710599F0FB0108C0FC01D5
:104F8000808191816115710531F421E0FC018081FE
:104F9000882331F004C08ED621E0892B09F020E06F
:104FA000822F089568D60895B6D0FDDF0E940E02C4
:104FB000C4E0D4E20E9466022097E1F325DCFACF38
:104FC000F9C390C41F920F920FB60F9211242F9322
:104FD0003F938F939F93AF93BF938091A908909134
:104FE000AA08A091AB08B091AC083091A80823E0C2
:104FF000230F2D3720F40196A11DB11D05C026E811
:10500000230F0296A11DB11D2093A8088093A90823
:105010009093AA08A093AB08B093AC088091AD0818
:105020009091AE08A091AF08B091B0080196A11D73
:10503000B11D8093AD089093AE08A093AF08B093D4
:10504000B008BF91AF919F918F913F912F910F9099
:105050000FBE0F901F9018952FB7F8946091A90874
:105060007091AA088091AB089091AC082FBF089569
:105070003FB7F8948091AD089091AE08A091AF0829
:10508000B091B00826B5A89B05C02F3F19F0019636
:10509000A11DB11D3FBF6627782F892F9A2F620F60
:1050A000711D811D911D42E0660F771F881F991F9A
:1050B0004A95D1F70895CF92DF92EF92FF92CF9366
:1050C000DF936B017C01D4DFEB01C114D104E10457
:1050D000F10479F06BD1CCDF6C1B7D0B683E734023
:1050E000A0F381E0C81AD108E108F108C851DC4FEB
:1050F000ECCFDF91CF91FF90EF90DF90CF900895AC
:105100008230910538F0880F991F880F991F0597F5
:105110000197F1F70895789484B5826084BD84B5D1
:10512000816084BD85B5826085BD85B5816085BDA2
:10513000EEE6F0E0808181608083E1E8F0E01082BB
:10514000808182608083808181608083E0E8F0E0FC
:10515000808181608083E1EBF0E0808184608083E6
:10516000E0EBF0E0808181608083E1E9F0E0808124
:1051700082608083808181608083E0E9F0E08081CB
:1051800081608083E1EAF0E08081826080838081B9
:1051900081608083E0EAF0E0808181608083E1E2E9
:1051A000F1E0808182608083808181608083E0E2A1
:1051B000F1E0808181608083EAE7F0E080818460B3
:1051C0008083808182608083808181608083808110
:1051D000806880831092C100089590E0FC013197AF
:1051E000E231F10508F04BC0E658FF4FA0C28091B4
:1051F00080008F7703C0809180008F7D8093800036
:10520000089580918000877FF9CF84B58F7702C0A1
:1052100084B58F7D84BD08958091B0008F7703C0E1
:105220008091B0008F7D8093B000089580919000B0
:105230008F7707C0809190008F7D03C08091900090
:10524000877F8093900008958091A0008F7707C09A
:105250008091A0008F7D03C08091A000877F809304
:10526000A0000895809120018F7707C080912001D0
:105270008F7D03C080912001877F80932001089556
:10528000CF93DF9390E0FC01E25AFE4F2491FC01A2
:10529000EC55FE4F8491882349F190E0880F991FC7
:1052A000FC01E25EFD4FA591B4918C5F9D4FFC0126
:1052B000C591D4919FB7611108C0F8948C91209545
:1052C00082238C93888182230AC0623051F4F8943F
:1052D0008C91322F309583238C938881822B888305
:1052E00004C0F8948C91822B8C939FBFDF91CF9157
:1052F00008950F931F93CF93DF931F92CDB7DEB71F
:10530000282F30E0F901E85EFE4F8491F901E25A5E
:10531000FE4F1491F901EC55FE4F04910023C1F0AA
:10532000882319F0698359DF6981E02FF0E0EE0FDF
:10533000FF1FEC5FFD4FA591B4919FB7F8948C913E
:10534000611103C01095812301C0812B8C939FBFF5
:105350000F90DF91CF911F910F910895CF93DF931D
:10536000282F30E0F901E85EFE4F8491F901E25AFE
:10537000FE4FD491F901EC55FE4FC491CC2389F036
:1053800081112BDFEC2FF0E0EE0FFF1FE651FE4FF7
:10539000A591B4912C912D2381E090E021F480E03F
:1053A00002C080E090E0DF91CF91089508955058B9
:1053B000BB27AA270ED0DCC0CDD030F0D2D020F051
:1053C00031F49F3F11F41EF4C2C00EF4E095E7FBE8
:1053D000B8C0E92FDED080F3BA17620773078407DD
:1053E000950718F071F49EF5F6C00EF4E0950B2EBB
:1053F000BA2FA02D0B01B90190010C01CA01A00127
:105400001124FF27591B99F0593F50F4503E68F181
:105410001A16F040A22F232F342F4427585FF3CFC2
:10542000469537952795A795F0405395C9F77EF493
:105430001F16BA0B620B730B840BBAF09150A1F0DC
:10544000FF0FBB1F661F771F881FC2F70EC0BA0F62
:10545000621F731F841F48F4879577956795B795EA
:10546000F7959E3F08F0B3CF9395880F08F09927E2
:10547000EE0F97958795089540D008F481E0089540
:10548000E89409C097FB3EF49095809570956195DE
:105490007F4F8F4F9F4F9923A9F0F92F96E9BB2794
:1054A0009395F695879577956795B795F111F8CF10
:1054B000FAF4BB0F11F460FF1BC06F5F7F4F8F4F7B
:1054C0009F4F16C0882311F096E911C0772321F071
:1054D0009EE8872F762F05C0662371F096E8862F09
:1054E00070E060E02AF09A95660F771F881FDAF760
:1054F000880F9695879597F90895990F0008550F8D
:10550000AA0BE0E8FEEF16161706E807F907C0F049
:1055100012161306E407F50798F0621B730B840B51
:10552000950B39F40A2661F0232B242B252B21F42B
:1055300008950A2609F4A140A6958FEF811D811DCB
:10554000089597F99F6780E870E060E008959FEF05
:1055500080EC089500240A9416161706180609060A
:10556000089500240A9412161306140605060895D9
:10557000092E0394000C11F4882352F0BB0F40F461
:10558000BF2B11F460FF04C06F5F7F4F8F4F9F4FA1
:10559000089557FD9058440F551F59F05F3F71F023
:1055A0004795880F97FB991F61F09F3F79F087958A
:1055B0000895121613061406551FF2CF4695F1DF13
:1055C00008C0161617061806991FF1CF86957105A3
:1055D000610508940895E894BB2766277727CB01D7
:1055E00097F908958ADF08F48FEF08950BD0C0CFA4
:1055F000B1DF28F0B6DF18F0952309F0A2CFA7CFCE
:105600001124EACFC6DFA0F3959FD1F3950F50E0A8
:10561000551F629FF001729FBB27F00DB11D639F64
:10562000AA27F00DB11DAA1F649F6627B00DA11D0A
:10563000661F829F2227B00DA11D621F739FB00DB0
:10564000A11D621F839FA00D611D221F749F332720
:10565000A00D611D231F849F600D211D822F762FB9
:105660006A2F11249F5750408AF0E1F088234AF0B6
:10567000EE0FFF1FBB1F661F771F881F9150504002
:10568000A9F79E3F510570F05CCFA6CF5F3FECF3CA
:10569000983EDCF3869577956795B795F795E795EE
:1056A0009F5FC1F7FE2B880F911D9695879597F9FF
:1056B0000895A1E21A2EAA1BBB1BFD010DC0AA1F53
:1056C000BB1FEE1FFF1FA217B307E407F50720F06B
:1056D000A21BB30BE40BF50B661F771F881F991FE6
:1056E0001A9469F760957095809590959B01AC012F
:1056F000BD01CF010895052E97FB16F400940FD03D
:1057000057FD05D0D6DF07FC02D046F408C05095FF
:105710004095309521953F4F4F4F5F4F089590959D
:105720008095709561957F4F8F4F9F4F0895EE0F35
:10573000FF1F0590F491E02D19940DD0A59F900DB9
:10574000B49F900DA49F800D911D11240895079082
:10575000F691E02D1994A29FB001B39FC001A39FC1
:10576000700D811D1124911DB29F700D811D11249A
:10577000911D0895EF920F931F93CF93DF93E8014C
:1057800047FF02C034E101C034E0E42FFF27E7FD0A
:10579000F095F7FF03C0F195E195F109E32E022F93
:1057A0002E2FAE0197D2CE01DF91CF911F910F9195
:1057B000EF900895CF93DF938230910510F482E04B
:1057C00090E0E091B209F091B30920E030E0A0E070
:1057D000B0E0309739F14081518148175907B8F04E
:1057E0004817590771F482819381109729F0139615
:1057F0009C938E9312972CC09093B3098093B20917
:1058000027C02115310531F04217530718F0A901BF
:10581000DB0101C0EF019A01BD01DF010280F381CC
:10582000E02DD7CF21153105F9F0281B390B243095
:10583000310580F48A819B816115710521F0FB019E
:105840009383828304C09093B3098093B209FE01CD
:10585000329644C0FE01E20FF31F819391932250D0
:105860003109398328833AC02091B0093091B109B8
:10587000232B41F420910202309103023093B109AD
:105880002093B009209100023091010221153105C9
:1058900041F42DB73EB74091040250910502241BFC
:1058A000350BE091B009F091B109E217F307A0F4CC
:1058B0002E1B3F0B2817390778F0AC014E5F5F4F66
:1058C0002417350748F04E0F5F1F5093B1094093DE
:1058D000B0098193919302C0E0E0F0E0CF01DF9145
:1058E000CF910895CF93DF93009709F487C0FC010F
:1058F000329713821282C091B209D091B3092097D6
:1059000081F420813181280F391F8091B009909155
:10591000B1098217930779F5F093B109E093B009C3
:105920006DC0DE0120E030E0AE17BF0750F41296E4
:105930004D915C9113979D014115510509F1DA01D3
:10594000F3CFB383A28340815181840F951F8A17BF
:105950009B0771F48D919C911197840F951F02966E
:105960009183808312968D919C9113979383828368
:105970002115310529F4F093B309E093B2093EC033
:10598000D9011396FC93EE9312974D915D91A40F5C
:10599000B51FEA17FB0779F480819181840F951F69
:1059A0000296D90111969C938E93828193811396CE
:1059B0009C938E931297E0E0F0E08A819B810097A0
:1059C00019F0FE01EC01F9CFCE0102962881398150
:1059D000820F931F2091B0093091B1092817390720
:1059E00069F4309729F41092B3091092B20902C0F9
:1059F00013821282D093B109C093B009DF91CF9185
:105A000008958F929F92AF92BF92CF92DF92EF92C2
:105A1000FF92CF93DF93EC01688179818A819B812A
:105A2000611571058105910521F464E279ED8BE53D
:105A300097E02DE133EF41E050E05DDE49015A018E
:105A40009B01AC01A7EAB1E478DE6B017C01ACEE0E
:105A5000B4EFA501940118D5C60ED71EE81EF91E95
:105A6000F7FE06C081E0C81AD108E10880E8F80A0C
:105A7000C882D982EA82FB82C701B6019F77DF9193
:105A8000CF91FF90EF90DF90CF90BF90AF909F901D
:105A90008F900895B6CF86E092E0B3CF6093060270
:105AA00070930702809308029093090208956F9201
:105AB0007F928F929F92AF92BF92CF92DF92EF929E
:105AC000FF920F931F93CF93DF93EC01CB012097AD
:105AD00079F4DF91CF911F910F91FF90EF90DF90BC
