:100000001EC100004CC100004AC1000048C10000F0
:1000100046C1000044C1000042C1000040C10000D0
:100020003EC100003CC100003AC1000038C10000E0
:1000300036C1000034C1000032C1000030C10000F0
:100040002EC100002CC100002AC1000028C1000000
:1000500026C1000024C1000022C100000C940D093B
:100060001EC1000072C60000A6C6000018C1000034
:1000700016C1000014C1000012C1000010C1000030
:100080000EC100000CC100000AC1000008C1000040
:1000900006C1000004C1000002C1000000C1000050
:1000A000FEC00000FCC00000FAC00000F8C0000064
:1000B000F6C00000F4C00000F2C00000F0C0000074
:1000C000EEC00000ECC00000EAC00000E8C0000084
:1000D000E6C00000E4C00000E2C00000E0C0000094
:1000E000DEC00000DD09E009CF09D309D909170AEC
:1000F000E409E809EE09F209F609FC09000A040A14
:10010000170A0A0A0E0A120A00000A0B02090C0D4D
:100110000E080703040100000000000000000000BA
:1001200000000000000000000000000000000000CF
:10013000000000001211100000000000000000008C
:1001400000000000000000000000000000000102AC
:1001500010202008081020401020408002010201D9
:100160000804020101020408102040808040201091
:1001700008040201800402018040201008040201EA
:100180000804020101020408102040800102040852
:10019000102040800505050507050808080802022B
:1001A00002020A0A08080404040401010101010111
:1001B00001010303030303030303040707070C0CF4
:1001C0000C0C0C0C0C0C02020202060606060606BB
:1001D00006060B0B0B0B0B0B0B0B00002000230078
:1001E000260029002C002F0032000001000003012E
:1001F0000601090100002200250028002B002E0026
:100200003100340002010000050108010B0100006B
:100210002100240027002A002D00300033000101B6
:100220000000040107010A01DD0110041A0424047E
:100230002E043A0444042C050D079D07DA0111240D
:100240001FBECFEFD1E2DEBFCDBF00E00CBF12E09A
:10025000A0E0B2E0ECE8FBE100E00BBF02C00790D9
:100260000D92A63EB107D9F724E0A6EEB2E001C098
:100270001D92A239B207E1F712E0CCE3D2E000E030
:1002800006C022970109FE010BBF0E941B0CC83259
:10029000D10780E00807A9F7B4D70C94B50DB0CE0C
:1002A00086EE92E078C38F929F92AF92BF92CF92E8
:1002B000DF92EF92FF9229E130E040E050E064E10C
:1002C00070E080E090E080D76B017C016AE072E032
:1002D00082EE93E07FD64AE050E0B60182EE93E0F2
:1002E00029D726E430E040E050E06CE370E080E0A5
:1002F00090E06AD74B015C0166E272E082EE93E027
:1003000069D64AE050E0B40182EE93E013D7A4012D
:10031000B60180E993E01BD223E230E040E050E0F8
:100320006FE070E080E090E04FD76B017C016FE3FD
:1003300072E082EE93E04ED64AE050E0B60182EEE3
:1003400093E0F8D624E630E040E050E068E270E068
:1003500080E090E039D74B015C016AE572E082EE03
:1003600093E038D64AE050E0B40182EE93E0E2D662
:10037000A401B60180E993E0C9D180E993E0FF9040
:10038000EF90DF90CF90BF90AF909F908F904FC035
:1003900026E040E052EC61E070E082EE93E075D43C
:1003A00023E531E040E355E760E070E086EE92E05F
:1003B0004BD379CF80E993E006C080E993E05FD02A
:1003C00086EE92E0B7C2CF93DF93EC0186E792E02E
:1003D000998388838C8D9D8D009739F0DC01ED9198
:1003E000FC910280F381E02D19958E8D9F8D0097F1
:1003F00039F0DC01ED91FC910280F381E02D19953B
:1004000088A199A1009739F0DC01ED91FC9102805F
:10041000F381E02D1995CE01DF91CF91BBC1CF9330
:10042000DF93EC01D0DFCE01DF91CF91F5C6CF9302
:10043000DF93EC01A9D1882321F0CE019CD1811159
:1004400006C060E08C8D9D8D7FD060E005C061E0CE
:100450008C8D9D8D79D061E08E8D9F8D75D0CE0174
:100460008DD1882331F0CE0183D1882311F061E052
:1004700001C060E088A199A1DF91CF9165C00F9381
:100480001F93CF93DF93EC019ED086E792E0998390
:10049000888361E0CE017BD185E090E0BCD68C0101
:1004A00040E06EE170E045D01D8F0C8F85E090E05C
:1004B000B2D68C0140E06FE170E03BD01F8F0E8F11
:1004C00061E0CE015ED185E090E0A5D68C0140E0F0
:1004D00062E270E02ED019A308A3DF91CF911F91A3
:1004E0000F91089520E832E0FC013183208369C137
:1004F000CF93DF93EC01F6DFCE01DF91CF918CC675
:10050000CF93DF93EC0160E070E067D180E892E088
:1005100099838883DF91CF91089521EA32E0FC012D
:1005200031832083089521EA32E0FC013183208366
:1005300073C6FC01862F21EA32E031832083628377
:100540007383448361E074C7EF92FF920F931F930C
:10055000CF93DF931F92CDB7DEB77C01FC0164839C
:1005600082816983D3D76981062F10E080179107B4
:1005700011F1F701828195D76BE872E082EE93E08A
:1005800029D5F701628173814AE050E082EE93E061
:10059000CAD568E972E082EE93E01CD54AE050E0EB
:1005A000B80182EE93E00F90DF91CF911F910F91F0
:1005B000FF90EF90BFC50F90DF91CF911F910F91EA
:1005C000FF90EF900895CF93DF93EC0189EA92E0DA
:1005D00099838883CE01049616D1CE010F9690DFC1
:1005E00089E190E09B838A831C8681E490E09E876A
:1005F0008D871F8A188E198E1A8E1B8EDF91CF91D0
:1006000008958F929F92AF92BF92CF92DF92EF9216
:10061000FF921F93CF93DF93EC0189889A88AB8870
:10062000BC88198D112319F16D857E85882777FD8A
:100630008095982FFED76B017C01A50194010E9443
:10064000C90B87FD02C01F8A11C020E030E040E8DE
:100650005FE3C501B40182D79B01AC01C701B601BC
:10066000E2D718161CF081E08F8B01C010E0812FBB
:10067000DF91CF911F91FF90EF90DF90CF90BF90CF
:10068000AF909F908F9008958F929F92AF92BF925C
:10069000CF92DF92EF92FF921F93CF93DF93EC0103
:1006A0008E809F80A884B984188D112311F16A81EE
:1006B0007B81882777FD8095982FBBD76B017C01C4
:1006C000A50194010E94C90B87FD03C081E08C87BE
:1006D00010C020E030E040E85FE3C501B4013ED740
:1006E0009B01AC01C701B6019ED718160CF01C8601
:1006F00010E0812FDF91CF911F91FF90EF90DF905D
:10070000CF90BF90AF909F908F9008950F931F93BD
:10071000CF93DF93EC018A01882777FD8095982F8E
:1007200088D76E837F8388879987CE01ADDFB80134
:10073000882777FD8095982F7CD7698B7A8B8B8B58
:100740009C8BCE01DF91CF911F910F915ACF0F93C8
:100750001F93CF93DF93EC018A017B836A8394DF3D
:100760001E870D87CE01DF91CF911F910F9149CF49
:10077000FC0187890895FC0184850895FC01818D21
:100780000895FC01618F0895FC01808D0895FC019E
:10079000608F0895CF93DF93EC0189EA92E099830B
:1007A0008883CE010F969EDECE010496DF91CF9115
:1007B0001CC0CF93DF93EC01EDDFCE01DF91CF9131
:1007C0002BC523EB32E0FC0131832083089523EB1A
:1007D00032E0FC01318320831FC523EB32E0FC01B2
:1007E000318320837783668308952BEB32E0FC010D
:1007F00031832083E6CFCF93DF93EC01F6DFCE0188
:10080000DF91CF9109C5CF93DF93EC0161E070E0F8
:10081000E4DF8BEB92E099838883DF91CF91089599
:100820000F9300E020E040E060E082EB93E079D3BA
:100830000F9108950F9300E020E040E060E088EB26
:1008400093E06FD30F9108950F9300E020E040E014
:1008500060E08EEB93E065D30F9108950F9300E075
:1008600020E040E060E08AEC93E05BD384EC93E02E
:100870000F914DC30F9300E020E040E060E080ED79
:1008800093E04FD30F9108950F9300E020E040E0F4
:1008900060E086ED93E045D30F910895FC0110824E
:1008A0000895CF92DF92EF92FF92CF93DF93EC0106
:1008B0006A017B018B859C85AD85BE859A01AB0164
:1008C000281B390B4A0B5B0BDA01C90149815A819C
:1008D0006B817C8184179507A607B707D0F08881C4
:1008E000813019F0823029F00BC0E985FA8519951D
:1008F00007C061E08885811160E068878F81D1D56C
:10090000CB86DC86ED86FE868F8598890196988B4E
:100910008F878D819E8197FD06C02F853889281786
:1009200039070CF01882DF91CF91FF90EF90DF90A4
:10093000CF9008950F931F93CF93DF93EC018C0119
:1009400006551F4FCE01AADF6196C017D107D1F718
:10095000DF91CF911F910F910895CF92DF92EF9287
:10096000FF921F93CF93DF936A017B01EC011AE0A2
:100970008881882321F0B701A601CE0192DF1150B2
:1009800061961111F5CFDF91CF911F91FF90EF90FC
:10099000DF90CF900895CF93DF93EC0188D4AB0123
:1009A000BC01CE01DF91CF91D8CF20E0FC01308196
:1009B000332331F02F5F41962A30C1F78FEF08952E
:1009C000822F0895CF92DF92EF92FF920F931F93A1
:1009D000CF93DF9300D01F92CDB7DEB76C017901C2
:1009E00049835A836B837C83E0DF282F49815A81B6
:1009F0006B817C818F3FD1F081E12802C00CD11C3A
:100A0000112481E0F60180834183528363837483E0
:100A100016830583F286E186298349D4F60163872C
:100A2000748785879687108A17862981822F0F9071
:100A30000F900F900F90DF91CF911F910F91FF902A
:100A4000EF90DF90CF9008950F931F930FEF1FEF5C
:100A5000B9DF1F910F9108950F9300E020E040E06F
:100A600060E08CED93E05DD20F910895FC01818DE3
:100A7000228D90E0805C9F4F821B91098F73992794
:100A80000895FC01918D828D981731F0828DE80FC9
:100A9000F11D858D90E008958FEF9FEF0895FC0183
:100AA000918D828D981761F0828DDF01A80FB11DA5
:100AB0005D968C91928D9F5F9F73928F90E00895C9
:100AC0008FEF9FEF089584E097E0892B39F080E065
:100AD00090E0892B19F098D1811125C080E090E039
:100AE000892B41F080E090E0892B21F00E940000EA
:100AF00081111CC080E090E0892B41F080E090E003
:100B0000892B21F00E940000811113C080E090E049
:100B1000892BA1F080E090E0892B81F00E940000F9
:100B200081110AC008950E940000D8CF0E940000E1
:100B3000E1CF0E940000EACF0C9400000895FC0170
:100B4000848DDF01A80FB11DA35ABF4F2C91848D56
:100B500090E001968F739927848FA689B7892C938B
:100B6000A089B1898C9180648C93938D848D981326
:100B700006C00288F389E02D80818F7D80830895EF
:100B8000CF93DF93EC01888D8823C1F0EA89FB893C
:100B9000808185FD05C0A889B9898C9186FD0EC02C
:100BA0000FB607FCF5CF808185FFF2CFA889B98900
:100BB0008C9185FFEDCFCE01C2DFE8CFDF91CF91E1
:100BC0000895CF92DF92FF920F931F93CF93DF93FD
:100BD0001F92CDB7DEB76C0181E0D60158968C9399
:100BE00058975B969C915B975C968C915C97981359
:100BF00007C05096ED91FC915197808185FD2DC0E5
:100C0000F601038D10E00F5F1F4F0F731127F02EB9
:100C1000F601848DF81210C00FB607FCF9CFD6018B
:100C20005096ED91FC915197808185FFF1CFC601DF
:100C3000698385DF6981ECCF838DE80FF11DE35A6D
:100C4000FF4F6083D6015B960C935B975296ED91B4
:100C5000FC915397808180620CC0D6015696ED912D
:100C6000FC91579760835096ED91FC91519780814C
:100C70008064808381E090E00F90DF91CF911F919D
:100C80000F91FF90DF90CF900895BF92CF92DF92A7
:100C9000EF92FF92CF93DF93EC016A017B01B22EBA
:100CA000E889F98982E08083411581EE5807610562
:100CB000710599F060E079E08DE390E0A70196017D
:100CC0006CD5215031094109510956954795379501
:100CD0002795211580E1380790F0E889F98910827D
:100CE00060E874E88EE190E0A701960156D52150A6
:100CF0003109410951095695479537952795EC8556
:100D0000FD853083EE85FF852083188EEC89FD8973
:100D1000B082EA89FB89808180618083EA89FB89CE
:100D2000808188608083EA89FB89808180688083F4
:100D3000EA89FB8980818F7D8083DF91CF91FF904D
:100D4000EF90DF90CF90BF9008951F920F920FB653
:100D50000F9211240BB60F922F938F939F93EF93C3
:100D6000FF93E091F203F091F3038081E091F803A7
:100D7000F091F90382FD12C090818091FB038F5F97
:100D80008F732091FC03821751F0E091FB03F0E098
:100D9000EE51FC4F958F8093FB0301C08081FF9142
:100DA000EF919F918F912F910F900BBE0F900FBEDF
:100DB0000F901F9018951F920F920FB60F9211244B
:100DC0000BB60F922F933F934F935F936F937F9345
:100DD0008F939F93AF93BF93EF93FF9382EE93E034
:100DE000AEDEFF91EF91BF91AF919F918F917F9177
:100DF0006F915F914F913F912F910F900BBE0F908C
:100E00000FBE0F901F90189582EE93E02FDE21E029
:100E1000892B09F420E0822F08951092E5031092A7
:100E2000E40388EE93E0A0E0B0E08093E6039093C3
:100E3000E703A093E803B093E90383EC92E0909377
:100E4000E3038093E20385EC90E09093EF038093BB
:100E5000EE0384EC90E09093F1038093F00380EC38
:100E600090E09093F3038093F20381EC90E09093F1
:100E7000F5038093F40382EC90E09093F703809362
:100E8000F60386EC90E09093F9038093F8031092B8
:100E9000FB031092FC031092FD031092FE030895D1
:100EA000AF92BF92CF92DF92EF92FF920F931F9378
:100EB000CF93DF936C017B01C0E0D0E000E010E055
:100EC000F601EC0FFD1F4AE050E06281C70154D1EA
:100ED0005C016EE2C7017FD08A0D9B1D080F191FB0
:100EE0002196C330D10561F74AE050E0F6016581F3
:100EF000C70142D1800F911FDF91CF911F910F91B8
:100F0000FF90EF90DF90CF90BF90AF90089523EDCA
:100F100032E0FC0131832083128213821482158215
:100F200008950F93FC0183ED92E0918380836283A7
:100F30004383248305830F91089583ED92E090937A
:100F4000800480937F041092810410928204109296
:100F50008304109284040895CF92DF92EF92FF925F
:100F60000F931F93CF93DF936C017A01EB01E60E91
:100F7000F71E00E010E0CE15DF0561F06991D601A3
:100F8000ED91FC910190F081E02DC6011995080FBB
:100F9000191FF1CFC801DF91CF911F910F91FF90E1
:100FA000EF90DF90CF9008956115710581F0DB011E
:100FB0000D900020E9F7AD0141505109461B570B38
:100FC000DC01ED91FC910280F381E02D199480E029
:100FD00090E00895E9CFDC01ED91FC910190F08162
:100FE000E02D199465ED72E0DFCF8F929F92AF9262
:100FF000BF92CF92DF92EF92FF920F931F93CF9306
:10100000DF93CDB7DEB7A1970FB6F894DEBF0FBE62
:10101000CDBF7C01C42EE52FCB01D22E19A221E039
:101020002D1510F02AE0D22E8E010F5D1F4F8D2C52
:10103000912CA12CB12C6C2D7E2FA5019401ADD348
:101040008C2DD29E80191124015011098A3014F47C
:10105000805D01C0895CF80180832115310541055F
:10106000510521F0C22EE32FCA01E5CFB801C70117
:101070009BDFA1960FB6F894DEBF0FBECDBFDF9108
:10108000CF911F910F91FF90EF90DF90CF90BF9085
:10109000AF909F908F900895CF92DF92EF92FF9242
:1010A0000F931F93CF93DF93EC016A017B0121150E
:1010B000310579F4E881F9810190F081E02D642F08
:1010C000DF91CF911F910F91FF90EF90DF90CF9024
:1010D00019942A303105D9F477FF18C06DE27BDF0F
:1010E0008C0144275527BA014C195D096E097F0907
:1010F0002AE0CE017ADF800F911FDF91CF911F91FF
:101100000F91FF90EF90DF90CF9008952AE0B70104
:10111000A601CE01DF91CF911F910F91FF90EF902B
:10112000DF90CF9062CF9A01AB01662757FD6095A3
:10113000762FB2CF0F931F93CF93DF93EC019A01D9
:10114000AB01662757FD6095762FA6DF8C01CE0197
:1011500049DF800F911FDF91CF911F910F9108956B
:101160002115310541F4DC01ED91FC910190F081F4
:10117000E02D642F199439CF9A01462F50E060E09A
:1011800070E0EECFCF93DF9300D01F92CDB7DEB7E4
:101190009B01AC01611571058105910559F06983C9
:1011A0003A834B835C83CBD429813A814B815C8128
:1011B00016D303C060E070E0CB010F900F900F904A
:1011C0000F90DF91CF910895CF92DF92EF92FF922F
:1011D0006B017C0162177307840795075CF4CA01F1
:1011E000B9016C197D098E099F09CCDF6C0D7D1D3D
:1011F0008E1D9F1DFF90EF90DF90CF900895ABD490
:10120000089561D0FDDFC4D8C3E6D5E049D8209762
:10121000E9F359DCFBCF22C3B9C31F920F920FB67B
:101220000F9211242F933F938F939F93AF93BF936C
:101230008091860490918704A0918804B0918904DC
:101240003091850423E0230F2D3720F40196A11D52
:10125000B11D05C026E8230F0296A11DB11D2093E4
:1012600085048093860490938704A0938804B093A8
:10127000890480918A0490918B04A0918C04B09190
:101280008D040196A11DB11D80938A0490938B0457
:10129000A0938C04B0938D04BF91AF919F918F91D7
:1012A0003F912F910F900FBE0F901F9018952FB761
:1012B000F8946091860470918704809188049091DD
:1012C00089042FBF0895789484B5826084BD84B565
:1012D000816084BD85B5826085BD85B5816085BD31
:1012E000EEE6F0E0808181608083E1E8F0E010824A
:1012F000808182608083808181608083E0E8F0E08B
:10130000808181608083E1EBF0E080818460808374
:10131000E0EBF0E0808181608083E1E9F0E08081B2
:1013200082608083808181608083E0E9F0E0808159
:1013300081608083E1EAF0E0808182608083808147
:1013400081608083E0EAF0E0808181608083E1E277
:10135000F1E0808182608083808181608083E0E22F
:10136000F1E0808181608083EAE7F0E08081846041
:10137000808380818260808380818160808380819E
:10138000806880831092C100089590E0FC0131973D
:10139000E231F10508F04BC0EE58FF4F3CC280919E
:1013A00080008F7703C0809180008F7D80938000C4
:1013B000089580918000877FF9CF84B58F7702C030
:1013C00084B58F7D84BD08958091B0008F7703C070
:1013D0008091B0008F7D8093B0000895809190003F
:1013E0008F7707C0809190008F7D03C0809190001F
:1013F000877F8093900008958091A0008F7707C029
:101400008091A0008F7D03C08091A000877F809392
:10141000A0000895809120018F7707C0809120015E
:101420008F7D03C080912001877F809320010895E4
:10143000CF93DF9390E0FC01E25BFE4F2491FC012F
:10144000EC56FE4F8491882349F190E0880F991F54
:10145000FC01E25FFD4FA591B4918C509E4FFC01C1
:10146000C591D4919FB7611108C0F8948C912095D3
:1014700082238C93888182230AC0623051F4F894CD
:101480008C91322F309583238C938881822B888393
:1014900004C0F8948C91822B8C939FBFDF91CF91E5
:1014A00008950F931F93CF93DF931F92CDB7DEB7AD
:1014B000282F30E0F901E85FFE4F8491F901E25BEB
:1014C000FE4F1491F901EC56FE4F04910023C1F038
:1014D000882319F0698359DF6981E02FF0E0EE0F6E
:1014E000FF1FEC50FE4FA591B4919FB7F8948C91DB
:1014F000611103C01095812301C0812B8C939FBF84
:101500000F90DF91CF911F910F910895CF93DF93AB
:10151000282F30E0F901E85FFE4F8491F901E25B8A
:10152000FE4FD491F901EC56FE4FC491CC2389F0C3
:1015300081112BDFEC2FF0E0EE0FFF1FE652FE4F84
:10154000A591B4912C912D2381E090E021F480E0CD
:1015500002C080E090E0DF91CF9108955058BB2702
:10156000AA270ED0DCC0CDD030F0D2D020F031F49C
:101570009F3F11F41EF4C2C00EF4E095E7FBB8C023
:10158000E92FDED080F3BA17620773078407950747
:1015900018F071F49EF5F6C00EF4E0950B2EBA2FFC
:1015A000A02D0B01B90190010C01CA01A001112469
:1015B000FF27591B99F0593F50F4503E68F11A1615
:1015C000F040A22F232F342F4427585FF3CF4695A6
:1015D00037952795A795F0405395C9F77EF41F16C8
:1015E000BA0B620B730B840BBAF09150A1F0FF0F92
:1015F000BB1F661F771F881FC2F70EC0BA0F621F7E
:10160000731F841F48F4879577956795B795F7956D
:101610009E3F08F0B3CF9395880F08F09927EE0FFF
:1016200097958795089540D008F481E00895E8944F
:1016300009C097FB3EF490958095709561957F4F1A
:101640008F4F9F4F9923A9F0F92F96E9BB279395C8
:10165000F695879577956795B795F111F8CFFAF4D8
:10166000BB0F11F460FF1BC06F5F7F4F8F4F9F4F09
:1016700016C0882311F096E911C0772321F09EE867
:10168000872F762F05C0662371F096E8862F70E0CD
:1016900060E02AF09A95660F771F881FDAF7880FA7
:1016A0009695879597F90895990F0008550FAA0BFD
:1016B000E0E8FEEF16161706E807F907C0F0121665
:1016C0001306E407F50798F0621B730B840B950B68
:1016D00039F40A2661F0232B242B252B21F40895BD
:1016E0000A2609F4A140A6958FEF811D811D08955A
:1016F00097F99F6780E870E060E008959FEF80ECC5
:10170000089500240A941616170618060906089567
:1017100000240A9412161306140605060895092ECD
:101720000394000C11F4882352F0BB0F40F4BF2B3C
:1017300011F460FF04C06F5F7F4F8F4F9F4F08957C
:1017400057FD9058440F551F59F05F3F71F0479572
:10175000880F97FB991F61F09F3F79F08795089557
:10176000121613061406551FF2CF4695F1DF08C076
:10177000161617061806991FF1CF86957105610593
:1017800008940895E894BB2766277727CB0197F93B
:1017900008958ADF08F48FEF0895A1E21A2EAA1B9C
:1017A000BB1BFD010DC0AA1FBB1FEE1FFF1FA21711
:1017B000B307E407F50720F0A21BB30BE40BF50B0E
:1017C000661F771F881F991F1A9469F76095709597
:1017D000809590959B01AC01BD01CF010895052E28
:1017E00097FB16F400940FD057FD05D0D6DF07FC09
:1017F00002D046F408C050954095309521953F4F52
:101800004F4F5F4F089590958095709561957F4FEC
:101810008F4F9F4F0895EE0FFF1F0590F491E02D1D
:1018200019940DD0A59F900DB49F900DA49F800D8D
:10183000911D112408950790F691E02D1994A29F0F
:10184000B001B39FC001A39F700D811D1124911D94
:10185000B29F700D811D1124911D0895CF93DF93C8
:101860008230910510F482E090E0E0919004F091D4
:10187000910420E030E0A0E0B0E0309739F1408101
:10188000518148175907B8F04817590771F48281F8
:101890009381109729F013969C938E9312972CC0E6
:1018A000909391048093900427C02115310531F065
:1018B0004217530718F0A901DB0101C0EF019A019B
:1018C000BD01DF010280F381E02DD7CF2115310565
:1018D000F9F0281B390B2430310580F48A819B8173
:1018E0006115710521F0FB019383828304C09093FD
:1018F000910480939004FE01329644C0FE01E20FF1
:10190000F31F8193919322503109398328833AC080
:1019100020918E0430918F04232B41F420910202F8
:101920003091030230938F0420938E0420910002A3
:10193000309101022115310541F42DB73EB7409198
:10194000040250910502241B350BE0918E04F091A6
:101950008F04E217F307A0F42E1B3F0B281739075B
:1019600078F0AC014E5F5F4F2417350748F04E0FFB
:101970005F1F50938F0440938E048193919302C014
:10198000E0E0F0E0CF01DF91CF910895CF93DF93B6
:10199000009709F487C0FC01329713821282C0912C
:1019A0009004D0919104209781F420813181280FF7
:1019B000391F80918E0490918F048217930779F5D7
:1019C000F0938F04E0938E046DC0DE0120E030E0E0
:1019D000AE17BF0750F412964D915C9113979D017D
:1019E0004115510509F1DA01F3CFB383A283408198
:1019F0005181840F951F8A179B0771F48D919C91DB
:101A00001197840F951F02969183808312968D9172
:101A10009C911397938382832115310529F4F093C8
:101A20009104E09390043EC0D9011396FC93EE9389
:101A300012974D915D91A40FB51FEA17FB0779F43A
:101A400080819181840F951F0296D90111969C93F4
:101A50008E938281938113969C938E931297E0E0EC
:101A6000F0E08A819B81009719F0FE01EC01F9CF2B
:101A7000CE01029628813981820F931F20918E0416
:101A800030918F042817390769F4309729F41092A0
:101A900091041092900402C013821282D0938F049A
:101AA000C0938E04DF91CF9108958F929F92AF9251
:101AB000BF92CF92DF92EF92FF92CF93DF93EC0130
:101AC000688179818A819B81611571058105910504
:101AD00021F464E279ED8BE597E02DE133EF41E00D
:101AE00050E07DDE49015A019B01AC01A7EAB1E457
:101AF00098DE6B017C01ACEEB4EFA501940131D00E
:101B0000C60ED71EE81EF91EF7FE06C081E0C81AF1
:101B1000D108E10880E8F80AC882D982EA82FB820B
:101B2000C701B6019F77DF91CF91FF90EF90DF90D3
:101B3000CF90BF90AF909F908F900895B6CF86E0E2
:101B400092E0B3CF6093060270930702809308027D
:101B500090930902089581E090E0F89406C0B7FFE1
:101B600060CE5FDE821B930B089512E0CCE3D2E0DF
:101B700000E005C022970109FE010BBF5CDECE33F9
:0C1B8000D10780E00807B1F7F894FFCF10
:101B8C000000920480000100000054656D706572C5
:101B9C006174757265206465736972656420766121
:101BAC006C75653A090048756D69646974792064CF
:101BBC006573697265642076616C75653A090054C9
:101BCC00656D70657261747572652073656E736F87
:101BDC00722076616C75653A090048756D696469A7
:101BEC0074792073656E736F722076616C75653ACB
:101BFC00090000000000E3010F02170200000000C2
:101C0C00720278024F4E004F464600536574746959
:101C1C006E672070696E200020746F200000000039
:101C2C00008D02930200000000CA03D903FF0800D4
:101C3C00000000E103E70300000000F503FB0300D4
:101C4C00000000E105AC0736054F054105C0050055
:101C5C0000000050070D0A006E616E00696E660090
:061C6C006F7666002E00F9
:00000001FF
