:100000001EC100004AC1000048C1000046C10000F6
:1000100044C1000042C1000040C100003EC10000D8
:100020003CC100003AC1000038C1000036C10000E8
:1000300034C1000032C1000030C100002EC10000F8
:100040002CC100002AC1000028C1000026C1000008
:1000500024C1000022C1000020C100006BC30000C9
:100060001CC10000A6C10000DAC1000016C10000DA
:1000700014C1000012C1000010C100000EC1000038
:100080000CC100000AC1000008C1000006C1000048
:1000900004C1000002C1000000C10000FEC0000059
:1000A000FCC00000FAC00000F8C00000F6C000006C
:1000B000F4C00000F2C00000F0C00000EEC000007C
:1000C000ECC00000EAC00000E8C00000E6C000008C
:1000D000E4C00000E2C00000E0C00000DEC000009C
:1000E000DCC00000A604A90498049C04A204E00457
:1000F000AD04B104B704BB04BF04C504C904CD04F6
:10010000E004D304D704DB0400000A0B02090C0D41
:100110000E080703040100000000000000000000BA
:1001200000000000000000000000000000000000CF
:10013000000000001211100000000000000000008C
:1001400000000000000000000000000000000102AC
:1001500010202008081020401020408002010201D9
:100160000804020101020408102040808040201091
:1001700008040201800402018040201008040201EA
:100180000804020101020408102040800102040852
:10019000102040800505050507050808080802022B
:1001A00002020A0A08080404040401010101010111
:1001B00001010303030303030303040707070C0CF4
:1001C0000C0C0C0C0C0C02020202060606060606BB
:1001D00006060B0B0B0B0B0B0B0B00002000230078
:1001E000260029002C002F0032000001000003012E
:1001F0000601090100002200250028002B002E0026
:100200003100340002010000050108010B0100006B
:100210002100240027002A002D00300033000101B6
:100220000000040107010A01740191019B01A5016D
:10023000AF01BB01C501CF014102D10271011124FF
:100240001FBECFEFD1E2DEBFCDBF00E00CBF12E09A
:10025000A0E0B2E0E6EDFFE000E00BBF02C00790D7
:100260000D92A832B107D9F723E0A8E2B2E001C0AD
:100270001D92AD30B207E1F712E0CCE3D2E000E02E
:1002800005C022970109FE010BBF69D5C832D1070D
:1002900080E00807B1F743D28DC6B2CE61E082E3B9
:1002A00090C3CF93DF931F92CDB7DEB760912C023E
:1002B00081E0682760932C0280912A026983EFD342
:1002C0006981262F30E08217930719F080912A0266
:1002D000B1D368E873E180E090E00F90DF91CF91B7
:1002E00096C288E292E006C040E062E370E088E2F5
:1002F00092E00CC02EE032E0FC01318320830895AF
:100300002EE032E0FC013183208313C2FC01862FF2
:100310002EE032E03183208362837383448361E083
:1003200050C30F9300E020E040E060E08DE292E0F7
:100330002CD10F9108950F9300E020E040E060E0A1
:1003400083E392E022D10F9108950F9300E020E023
:1003500040E060E089E392E018D10F9108950F9397
:1003600000E020E040E060E085E492E00ED18FE321
:1003700092E00F9100C10F9300E020E040E060E0C8
:100380008BE492E002D10F9108950F9300E020E0FA
:1003900040E060E081E592E0F8D00F9108950F937E
:1003A00000E020E040E060E087E592E0EED00F91D1
:1003B00008951F920F920FB60F9211240BB60F9251
:1003C0002F938F939F93EF93FF93E0916D02F091A2
:1003D0006E028081E0917302F091740282FD12C07E
:1003E0009081809176028F5F8F73209177028217C0
:1003F00051F0E0917602F0E0E35AFD4F958F809343
:10040000760201C08081FF91EF919F918F912F9192
:100410000F900BBE0F900FBE0F901F9018951F925C
:100420000F920FB60F9211240BB60F922F933F939A
:100430004F935F936F937F938F939F93AF93BF93EC
:10044000EF93FF938DE592E0BBD3FF91EF91BF91C6
:10045000AF919F918F917F916F915F914F913F915C
:100460002F910F900BBE0F900FBE0F901F901895FD
:100470008DE592E03CD321E0892B09F420E0822F26
:1004800008951092600210925F0288EE93E0A0E05F
:10049000B0E08093610290936202A0936302B093F4
:1004A00064028CE192E090935E0280935D0285ECA1
:1004B00090E090936A028093690284EC90E09093BC
:1004C0006C0280936B0280EC90E090936E028093BC
:1004D0006D0281EC90E09093700280936F0282EC49
:1004E00090E0909372028093710286EC90E090937A
:1004F0007402809373021092760210927702109227
:100500007802109279020895AF92BF92CF92DF9253
:10051000EF92FF920F931F93CF93DF936C017B01B8
:10052000C0E0D0E000E010E0F601EC0FFD1F4AE073
:1005300050E06281C701ECD05C016EE2C7017ED061
:100540008A0D9B1D080F191F2196C330D10561F735
:100550004AE050E0F6016581C701DAD0800F911FB3
:10056000DF91CF911F910F91FF90EF90DF90CF908F
:10057000BF90AF90089526E132E0FC0131832083E3
:10058000128213821482158208950F93FC0186E172
:1005900092E09183808362834383248305830F9158
:1005A000089586E192E09093FB028093FA02109204
:1005B000FC021092FD021092FE021092FF020895BA
:1005C000CF92DF92EF92FF920F931F93CF93DF931F
:1005D0006C017A01EB01E60EF71E00E010E0CE158B
:1005E000DF0561F06991D601ED91FC910190F081F8
:1005F000E02DC6011995080F191FF1CFC801DF9131
:10060000CF911F910F91FF90EF90DF90CF900895C1
:100610006115710581F0DB010D900020E9F7AD0156
:1006200041505109461B570BDC01ED91FC910280B2
:10063000F381E02D199480E090E00895DC01ED91C4
:10064000FC910190F081E02D19948F929F92AF92CE
:10065000BF92CF92DF92EF92FF920F931F93CF93AF
:10066000DF93CDB7DEB7A1970FB6F894DEBF0FBE0C
:10067000CDBF7C01C42EE52FCB01D22E19A221E0E3
:100680002D1510F02AE0D22E8E010F5D1F4F8D2CFC
:10069000912CA12CB12C6C2D7E2FA501940137D368
:1006A0008C2DD29E80191124015011098A3014F426
:1006B000805D01C0895CF801808321153105410509
:1006C000510521F0C22EE32FCA01E5CFB801C701C1
:1006D0009FDFA1960FB6F894DEBF0FBECDBFDF91AE
:1006E000CF911F910F91FF90EF90DF90CF90BF902F
:1006F000AF909F908F9008952115310541F4DC0152
:10070000ED91FC910190F081E02D642F19949DCF23
:100710009A01462F50E060E070E0EECF08959CD043
:10072000FDDFBCDDC4EAD5E0BCDD2097E9F30CD2E7
:10073000FBCFB1C31F920F920FB60F9211242F93CC
:100740003F938F939F93AF93BF93809101039091B9
:100750000203A0910303B09104033091000323E04E
:10076000230F2D3720F40196A11DB11D05C026E8E9
:10077000230F0296A11DB11D209300038093010356
:1007800090930203A0930303B093040380910503A5
:1007900090910603A0910703B09108030196A11D53
:1007A000B11D8093050390930603A0930703B093B4
:1007B0000803BF91AF919F918F913F912F910F901F
:1007C0000FBE0F901F9018953FB7F89480910503C6
:1007D00090910603A0910703B091080326B5A89B4A
:1007E00005C02F3F19F00196A11DB11D3FBF66271F
:1007F000782F892F9A2F620F711D811D911D42E064
:10080000660F771F881F991F4A95D1F70895CF92D9
:10081000DF92EF92FF92CF93DF936B017C01D4DFE5
:10082000EB01C114D104E104F10479F06FD2CCDF03
:100830006C1B7D0B683E7340A0F381E0C81AD108A1
:10084000E108F108C851DC4FECCFDF91CF91FF9068
:10085000EF90DF90CF900895789484B5826084BD46
:1008600084B5816084BD85B5826085BD85B58160B4
:1008700085BDEEE6F0E0808181608083E1E8F0E014
:100880001082808182608083808181608083E0E843
:10089000F0E0808181608083E1EBF0E08081846022
:1008A0008083E0EBF0E0808181608083E1E9F0E02B
:1008B000808182608083808181608083E0E9F0E0D4
:1008C000808181608083E1EAF0E0808182608083C2
:1008D000808181608083E0EAF0E0808181608083B4
:1008E000E1E2F1E0808182608083808181608083A9
:1008F000E0E2F1E0808181608083EAE7F0E08081DE
:100900008460808380818260808380818160808335
:100910008081806880831092C100089590E0FC017E
:100920003197E231F10508F04BC0EE58FF4F11C28C
:10093000809180008F7703C0809180008F7D8093AD
:100940008000089580918000877FF9CF84B58F77EC
:1009500002C084B58F7D84BD08958091B0008F77EB
:1009600003C08091B0008F7D8093B0000895809186
:1009700090008F7707C0809190008F7D03C0809199
:100980009000877F8093900008958091A0008F77DA
:1009900007C08091A0008F7D03C08091A000877F59
:1009A0008093A0000895809120018F7707C08091E7
:1009B00020018F7D03C080912001877F80932001DB
:1009C0000895CF93DF9390E0FC01E25BFE4F24910A
:1009D000FC01EC56FE4F8491882349F190E0880F8A
:1009E000991FFC01E25FFD4FA591B4918C509E4F81
:1009F000FC01C591D4919FB7611108C0F8948C9106
:100A0000209582238C93888182230AC0623051F41E
:100A1000F8948C91322F309583238C938881822B8C
:100A2000888304C0F8948C91822B8C939FBFDF91B4
:100A3000CF9108950F931F93CF93DF931F92CDB75C
:100A4000DEB7282F30E0F901E85FFE4F8491F9010D
:100A5000E25BFE4F1491F901EC56FE4F0491002326
:100A6000C1F0882319F0698359DF6981E02FF0E034
:100A7000EE0FFF1FEC50FE4FA591B4919FB7F89475
:100A80008C91611103C01095812301C0812B8C933F
:100A90009FBF0F90DF91CF911F910F910895CF933A
:100AA000DF93282F30E0F901E85FFE4F8491F901D0
:100AB000E25BFE4FD491F901EC56FE4FC491CC237A
:100AC00089F081112BDFEC2FF0E0EE0FFF1FE652D3
:100AD000FE4FA591B4912C912D2381E090E021F45B
:100AE00080E002C080E090E0DF91CF910895FC01AA
:100AF000818D228D90E0805C9F4F821B91098F73C6
:100B000099270895FC01918D828D981731F0828D7F
:100B1000E80FF11D858D90E008958FEF9FEF089508
:100B2000FC01918D828D981761F0828DDF01A80FF5
:100B3000B11D5D968C91928D9F5F9F73928F90E017
:100B400008958FEF9FEF089588E392E0892B39F0A5
:100B500080E090E0892B19F08BDC811125C080E0CA
:100B600090E0892B41F080E090E0892B21F00E94F9
:100B7000000081111CC080E090E0892B41F080E0F2
:100B800090E0892B21F00E940000811113C080E0C9
:100B900090E0892BA1F080E090E0892B81F00E9409
:100BA000000081110AC008950E940000D8CF0E9461
:100BB0000000E1CF0E940000EACF0C9400000895ED
:100BC000FC01848DDF01A80FB11DA35ABF4F2C91EA
:100BD000848D90E001968F739927848FA689B789B9
:100BE0002C93A089B1898C9180648C93938D848D92
:100BF000981306C00288F389E02D80818F7D808361
:100C00000895CF93DF93EC01888D8823C1F0EA89A2
:100C1000FB89808185FD05C0A889B9898C9186FDF5
:100C20000EC00FB607FCF5CF808185FFF2CFA889F3
:100C3000B9898C9185FFEDCFCE01C2DFE8CFDF917E
:100C4000CF910895CF92DF92FF920F931F93CF938E
:100C5000DF931F92CDB7DEB76C0181E0D6015896C5
:100C60008C9358975B969C915B975C968C915C9764
:100C7000981307C05096ED91FC915197808185FDA6
:100C80002DC0F601038D10E00F5F1F4F0F7311276A
:100C9000F02EF601848DF81210C00FB607FCF9CFC4
:100CA000D6015096ED91FC915197808185FFF1CF4F
:100CB000C601698385DF6981ECCF838DE80FF11D63
:100CC000E35AFF4F6083D6015B960C935B97529675
:100CD000ED91FC915397808180620CC0D6015696AD
:100CE000ED91FC91579760835096ED91FC9151974F
:100CF00080818064808381E090E00F90DF91CF91CC
:100D00001F910F91FF90DF90CF9008950895A1E279
:100D10001A2EAA1BBB1BFD010DC0AA1FBB1FEE1F75
:100D2000FF1FA217B307E407F50720F0A21BB30BC0
:100D3000E40BF50B661F771F881F991F1A9469F73C
:100D400060957095809590959B01AC01BD01CF0198
:100D50000895EE0FFF1F0590F491E02D1994079070
:100D6000F691E02D1994CF93DF938230910510F422
:100D700082E090E0E0910B03F0910C0320E030E082
:100D8000A0E0B0E0309739F1408151814817590710
:100D9000B8F04817590771F482819381109729F0B0
:100DA00013969C938E9312972CC090930C03809370
:100DB0000B0327C02115310531F04217530718F0F6
:100DC000A901DB0101C0EF019A01BD01DF01028031
:100DD000F381E02DD7CF21153105F9F0281B390B10
:100DE0002430310580F48A819B816115710521F0E1
:100DF000FB019383828304C090930C0380930B03C5
:100E0000FE01329644C0FE01E20FF31F81939193DD
:100E100022503109398328833AC020910903309147
:100E20000A03232B41F420910202309103023093F4
:100E30000A03209309032091000230910102211539
:100E4000310541F42DB73EB740910402509105029F
:100E5000241B350BE0910903F0910A03E217F30715
:100E6000A0F42E1B3F0B2817390778F0AC014E5F1A
:100E70005F4F2417350748F04E0F5F1F50930A034A
:100E8000409309038193919302C0E0E0F0E0CF0129
:100E9000DF91CF910895CF93DF93009709F487C036
:100EA000FC01329713821282C0910B03D0910C0384
:100EB000209781F420813181280F391F8091090307
:100EC00090910A038217930779F5F0930A03E09350
:100ED00009036DC0DE0120E030E0AE17BF0750F41B
:100EE00012964D915C9113979D014115510509F1A1
:100EF000DA01F3CFB383A28340815181840F951F20
:100F00008A179B0771F48D919C911197840F951FFF
:100F100002969183808312968D919C91139793836F
:100F200082832115310529F4F0930C03E0930B0320
:100F30003EC0D9011396FC93EE9312974D915D91AB
:100F4000A40FB51FEA17FB0779F480819181840F04
:100F5000951F0296D90111969C938E93828193815D
:100F600013969C938E931297E0E0F0E08A819B8128
:100F7000009719F0FE01EC01F9CFCE01029628810D
:100F80003981820F931F2091090330910A0328179A
:100F9000390769F4309729F410920C0310920B036F
:100FA00002C013821282D0930A03C0930903DF9117
:100FB000CF91089512E0CCE3D2E000E005C0229783
:100FC0000109FE010BBFCBDECE33D10780E008075D
:060FD000B1F7F894FFCF19
:100FD60000000D03800001000000000000007A01FF
:100FE6008001000000008402000000002206E002EA
:080FF600770590058205010654
:00000001FF
