:100000001EC100004CC100004AC1000048C10000F0
:1000100046C1000044C1000042C1000040C10000D0
:100020003EC100003CC100003AC1000038C10000E0
:1000300036C1000034C1000032C1000030C10000F0
:100040002EC100002CC100002AC1000028C1000000
:1000500026C1000024C1000022C10000DFC500004D
:100060001EC1000019C400004DC4000018C10000EA
:1000700016C1000014C1000012C1000010C1000030
:100080000EC100000CC100000AC1000008C1000040
:1000900006C1000004C1000002C1000000C1000050
:1000A000FEC00000FCC00000FAC00000F8C0000064
:1000B000F6C00000F4C00000F2C00000F0C0000074
:1000C000EEC00000ECC00000EAC00000E8C0000084
:1000D000E6C00000E4C00000E2C00000E0C0000094
:1000E000DEC00000DE06E106D006D406DA061807F8
:1000F000E506E906EF06F306F706FD060107050724
:1001000018070B070F07130700000A0B02090C0D55
:100110000E080703040100000000000000000000BA
:1001200000000000000000000000000000000000CF
:10013000000000001211100000000000000000008C
:1001400000000000000000000000000000000102AC
:1001500010202008081020401020408002010201D9
:100160000804020101020408102040808040201091
:1001700008040201800402018040201008040201EA
:100180000804020101020408102040800102040852
:10019000102040800505050507050808080802022B
:1001A00002020A0A08080404040401010101010111
:1001B00001010303030303030303040707070C0CF4
:1001C0000C0C0C0C0C0C02020202060606060606BB
:1001D00006060B0B0B0B0B0B0B0B00002000230078
:1001E000260029002C002F0032000001000003012E
:1001F0000601090100002200250028002B002E0026
:100200003100340002010000050108010B0100006B
:100210002100240027002A002D00300033000101B6
:100220000000040107010A016D01260330033A03AF
:10023000440350035A034204B40444056A011124E0
:100240001FBECFEFD1E2DEBFCDBF00E00CBF12E09A
:10025000A0E0B2E0E2E8F6E100E00BBF02C00790E8
:100260000D92A435B107D9F723E0A4E5B2E001C0AF
:100270001D92AA3FB207E1F712E0CCE3D2E000E022
:1002800006C022970109FE010BBF0E94050AC83271
:10029000D10780E00807A9F7B5D40C94300BB0CE95
:1002A00040910A0250910B0260910C0270910D0274
:1002B0008EEF92E061D18EEF92E082C020E531E0D6
:1002C00040EF59E462E070E084E592E0D3C284E557
:1002D00092E077C28EEF92E006C08EEF92E04DD0B2
:1002E00084E592E03DC2CF93DF93EC0182E192E09E
:1002F00099838883888D998D009739F0DC01ED9181
:10030000FC910280F381E02D19958A8D9B8D0097D9
:1003100039F0DC01ED91FC910280F381E02D19951B
:10032000CE01DF91CF914CC1CF93DF93EC01DBDFA6
:10033000CE01DF91CF9171C40F931F93CF93DF93C1
:100340001F92CDB7DEB78C01FC0164838281698383
:10035000DED56981262F30E08217930741F0F8013E
:1003600082810F90DF91CF911F910F919BC50F90CC
:10037000DF91CF911F910F9108950F931F93CF930A
:10038000DF93EC0165D082E192E09983888385E078
:1003900090E042D48C0140E06EE170E04ED0198FC5
:1003A000088F85E090E038D48C0140E06FE170E088
:1003B00044D01B8F0A8FDF91CF911F910F91089529
:1003C000CF93DF93EC01F9D0288D398D882329F064
:1003D00060E0C901B1DF60E004C061E0C901ACDFE9
:1003E00061E08A8D9B8DDF91CF91A6CF2AE132E02B
:1003F000FC0131832083FBC0CF93DF93EC01F6DF58
:10040000CE01DF91CF9109C4CF93DF93EC0160E07F
:1004100070E0F9D08AE192E099838883DF91CF91EF
:10042000089522E232E0FC0131832083089522E224
:1004300032E0FC0131832083F0C3FC01862F22E2ED
:1004400032E03183208362837383448361E0F1C4AB
:10045000CF93DF93EC018AE292E099838883CE0107
:100460000696E7D0CE010E96CFDF89E190E09B8320
:100470008A8381E490E09D838C831E8A1F8ADF91AA
:10048000CF9108958F929F92AF92BF92CF92DF92B9
:10049000EF92FF92CF93DF93EC0188889988AA8826
:1004A000BB886C817D81882777FD8095982FD1D678
:1004B0006B017C01A50194017CD787FD03C01F8AD5
:1004C00080E012C020E030E040E85FE3C501B40105
:1004D00055D69B01AC01C701B601B5D618161CF064
:1004E00081E08F8B01C08F89DF91CF91FF90EF90DA
:1004F000DF90CF90BF90AF909F908F9008958F9294
:100500009F92AF92BF92CF92DF92EF92FF92CF93E2
:10051000DF93EC0188849984AA84BB846A817B81FF
:10052000882777FD8095982F94D66B017C01A501D3
:1005300094013FD787FD03C01E8A80E012C020E0EF
:1005400030E040E85FE3C501B40118D69B01AC017F
:10055000C701B60178D618161CF081E08E8B01C059
:100560008E89DF91CF91FF90EF90DF90CF90BF9079
:10057000AF909F908F9008950F931F93CF93DF9329
:10058000EC018A01882777FD8095982F62D66887CD
:1005900079878A879B87B801882777FD8095982F70
:1005A00058D6688B798B8A8B9B8BCE01A8DFCE01C6
:1005B000DF91CF911F910F9165CFFC01868908953E
:1005C000CF93DF93EC018AE292E099838883CE0196
:1005D0000E960CDFCE010696DF91CF911CC0CF9313
:1005E000DF93EC01EDDFCE01DF91CF9116C322E363
:1005F00032E0FC0131832083089522E332E0FC01E4
:10060000318320830AC322E332E0FC01318320835B
:100610007783668308952AE332E0FC0131832083E7
:10062000E6CFCF93DF93EC01F6DFCE01DF91CF91E0
:10063000F4C2CF93DF93EC0161E070E0E4DF8AE382
:1006400092E099838883DF91CF9108950F9300E022
:1006500020E040E060E08AE193E00AD20F91089543
:100660000F9300E020E040E060E080E293E000D201
:100670000F9108950F9300E020E040E060E086E2F3
:1006800093E0F6D10F9108950F9300E020E040E051
:1006900060E082E393E0ECD18CE293E00F91DEC165
:1006A0000F9300E020E040E060E088E393E0E0D1D9
:1006B0000F9108950F9300E020E040E060E08EE3AA
:1006C00093E0D6D10F910895FC0110820895CF9246
:1006D000DF92EF92FF92CF93DF93EC016A017B01EF
:1006E0008B859C85AD85BE859A01AB01281B390B96
:1006F0004A0B5B0BDA01C90149815A816B817C810C
:1007000084179507A607B707D0F08881813019F0C4
:10071000823029F00BC0E985FA85199507C061E0A0
:100720008885811160E068878F81BCD3CB86DC86A9
:10073000ED86FE868F8598890196988B8F878D81AF
:100740009E8197FD06C02F853889281739070CF040
:100750001882DF91CF91FF90EF90DF90CF900895B6
:100760000F931F93CF93DF93EC018C0106551F4F1E
:10077000CE01AADF6196C017D107D1F7DF91CF91E3
:100780001F910F910895CF92DF92EF92FF921F93E6
:10079000CF93DF936A017B01EC011AE08881882303
:1007A00021F0B701A601CE0192DF1150619611111F
:1007B000F5CFDF91CF911F91FF90EF90DF90CF9019
:1007C0000895CF93DF93EC0173D2AB01BC01CE014E
:1007D000DF91CF91D8CF20E0FC013081332331F07D
:1007E0002F5F41962A30C1F78FEF0895822F089529
:1007F000CF92DF92EF92FF920F931F93CF93DF93ED
:1008000000D01F92CDB7DEB76C01790149835A83BE
:100810006B837C83E0DF282F49815A816B817C8147
:100820008F3FD1F081E12802C00CD11C112481E05E
:10083000F601808341835283638374831683058327
:10084000F286E186298334D2F6016387748785872F
:100850009687108A17862981822F0F900F900F900C
:100860000F90DF91CF911F910F91FF90EF90DF904C
:10087000CF9008950F931F930FEF1FEFB9DF1F91D4
:100880000F9108950F9300E020E040E060E084E4E1
:1008900093E0EED00F9108951F920F920FB60F9232
:1008A00011240BB60F922F938F939F93EF93FF9387
:1008B000E0915A03F0915B038081E0916003F09135
:1008C000610382FD12C09081809163038F5F8F73FB
:1008D00020916403821751F0E0916303F0E0E65B3E
:1008E000FC4F958F8093630301C08081FF91EF914E
:1008F0009F918F912F910F900BBE0F900FBE0F9075
:100900001F9018951F920F920FB60F9211240BB6DD
:100910000F922F933F934F935F936F937F938F9398
:100920009F93AF93BF93EF93FF938AE493E080D3B9
:10093000FF91EF91BF91AF919F918F917F916F91B7
:100940005F914F913F912F910F900BBE0F900FBE73
:100950000F901F9018958AE493E001D321E0892B32
:1009600009F420E0822F089510924D0310924C0359
:1009700088EE93E0A0E0B0E080934E0390934F03A5
:10098000A0935003B093510388E492E090934B03FB
:1009900080934A0385EC90E090935703809356032D
:1009A00084EC90E0909359038093580380EC90E09E
:1009B00090935B0380935A0381EC90E090935D03E6
:1009C00080935C0382EC90E090935F0380935E03DE
:1009D00086EC90E090936103809360031092630330
:1009E0001092640310926503109266030895AF920B
:1009F000BF92CF92DF92EF92FF920F931F93CF930C
:100A0000DF936C017B01C0E0D0E000E010E0F60174
:100A1000EC0FFD1F4AE050E06281C701ECD05C01A1
:100A20006EE2C7017ED08A0D9B1D080F191F21960B
:100A3000C330D10561F74AE050E0F6016581C70196
:100A4000DAD0800F911FDF91CF911F910F91FF900E
:100A5000EF90DF90CF90BF90AF90089522E432E006
:100A6000FC0131832083128213821482158208953F
:100A70000F93FC0182E492E091838083628343833D
:100A8000248305830F91089582E492E09093E80314
:100A90008093E7031092E9031092EA031092EB03AC
:100AA0001092EC030895CF92DF92EF92FF920F9392
:100AB0001F93CF93DF936C017A01EB01E60EF71ED3
:100AC00000E010E0CE15DF0561F06991D601ED91EF
:100AD000FC910190F081E02DC6011995080F191FB6
:100AE000F1CFC801DF91CF911F910F91FF90EF904F
:100AF000DF90CF9008956115710581F0DB010D90B5
:100B00000020E9F7AD0141505109461B570BDC01AC
:100B1000ED91FC910280F381E02D199480E090E04A
:100B20000895DC01ED91FC910190F081E02D199484
:100B30008F929F92AF92BF92CF92DF92EF92FF92ED
:100B40000F931F93CF93DF93CDB7DEB7A1970FB667
:100B5000F894DEBF0FBECDBF7C01C42EE52FCB01C4
:100B6000D22E19A221E02D1510F02AE0D22E8E01EE
:100B70000F5D1F4F8D2C912CA12CB12C6C2D7E2F35
:100B8000A50194011AD48C2DD29E801911240150F4
:100B900011098A3014F4805D01C0895CF8018083FA
:100BA000211531054105510521F0C22EE32FCA015F
:100BB000E5CFB801C7019FDFA1960FB6F894DEBF5D
:100BC0000FBECDBFDF91CF911F910F91FF90EF909E
:100BD000DF90CF90BF90AF909F908F900895211598
:100BE000310541F4DC01ED91FC910190F081E02DA3
:100BF000642F19949DCF9A01462F50E060E070E079
:100C0000EECF089561D0FDDF59DBCCEDD7E05FDB9F
:100C10002097E9F3D1D1FBCFFCC393C41F920F926D
:100C20000FB60F9211242F933F938F939F93AF93FF
:100C3000BF938091EE039091EF03A091F003B091E8
:100C4000F1033091ED0323E0230F2D3720F40196BB
:100C5000A11DB11D05C026E8230F0296A11DB11DDF
:100C60002093ED038093EE039093EF03A093F003A2
:100C7000B093F1038091F2039091F303A091F403F8
:100C8000B091F5030196A11DB11D8093F2039093DD
:100C9000F303A093F403B093F503BF91AF919F9139
:100CA0008F913F912F910F900FBE0F901F9018952D
:100CB0002FB7F8946091EE037091EF038091F003E9
:100CC0009091F1032FBF0895789484B5826084BD1C
:100CD00084B5816084BD85B5826085BD85B5816040
:100CE00085BDEEE6F0E0808181608083E1E8F0E0A0
:100CF0001082808182608083808181608083E0E8CF
:100D0000F0E0808181608083E1EBF0E080818460AD
:100D10008083E0EBF0E0808181608083E1E9F0E0B6
:100D2000808182608083808181608083E0E9F0E05F
:100D3000808181608083E1EAF0E08081826080834D
:100D4000808181608083E0EAF0E08081816080833F
:100D5000E1E2F1E080818260808380818160808334
:100D6000E0E2F1E0808181608083EAE7F0E0808169
:100D700084608083808182608083808181608083C1
:100D80008081806880831092C100089590E0FC010A
:100D90003197E231F10508F04BC0EE58FF4F2FC3F9
:100DA000809180008F7703C0809180008F7D809339
:100DB0008000089580918000877FF9CF84B58F7778
:100DC00002C084B58F7D84BD08958091B0008F7777
:100DD00003C08091B0008F7D8093B0000895809112
:100DE00090008F7707C0809190008F7D03C0809125
:100DF0009000877F8093900008958091A0008F7766
:100E000007C08091A0008F7D03C08091A000877FE4
:100E10008093A0000895809120018F7707C0809172
:100E200020018F7D03C080912001877F8093200166
:100E30000895CF93DF9390E0FC01E25BFE4F249195
:100E4000FC01EC56FE4F8491882349F190E0880F15
:100E5000991FFC01E25FFD4FA591B4918C509E4F0C
:100E6000FC01C591D4919FB7611108C0F8948C9191
:100E7000209582238C93888182230AC0623051F4AA
:100E8000F8948C91322F309583238C938881822B18
:100E9000888304C0F8948C91822B8C939FBFDF9140
:100EA000CF9108950F931F93CF93DF931F92CDB7E8
:100EB000DEB7282F30E0F901E85FFE4F8491F90199
:100EC000E25BFE4F1491F901EC56FE4F04910023B2
:100ED000C1F0882319F0698359DF6981E02FF0E0C0
:100EE000EE0FFF1FEC50FE4FA591B4919FB7F89401
:100EF0008C91611103C01095812301C0812B8C93CB
:100F00009FBF0F90DF91CF911F910F910895CF93C5
:100F1000DF93282F30E0F901E85FFE4F8491F9015B
:100F2000E25BFE4FD491F901EC56FE4FC491CC2305
:100F300089F081112BDFEC2FF0E0EE0FFF1FE6525E
:100F4000FE4FA591B4912C912D2381E090E021F4E6
:100F500080E002C080E090E0DF91CF910895FC0135
:100F6000818D228D90E0805C9F4F821B91098F7351
:100F700099270895FC01918D828D981731F0828D0B
:100F8000E80FF11D858D90E008958FEF9FEF089594
:100F9000FC01918D828D981761F0828DDF01A80F81
:100FA000B11D5D968C91928D9F5F9F73928F90E0A3
:100FB00008958FEF9FEF08958BEA94E0892B39F025
:100FC00080E090E0892B19F0C6DC811125C080E01B
:100FD00090E0892B41F080E090E0892B21F00E9485
:100FE000000081111CC080E090E0892B41F080E07E
:100FF00090E0892B21F00E940000811113C080E055
:1010000090E0892BA1F080E090E0892B81F00E9494
:10101000000081110AC008950E940000D8CF0E94EC
:101020000000E1CF0E940000EACF0C940000089578
:10103000FC01848DDF01A80FB11DA35ABF4F2C9175
:10104000848D90E001968F739927848FA689B78944
:101050002C93A089B1898C9180648C93938D848D1D
:10106000981306C00288F389E02D80818F7D8083EC
:101070000895CF93DF93EC01888D8823C1F0EA892E
:10108000FB89808185FD05C0A889B9898C9186FD81
:101090000EC00FB607FCF5CF808185FFF2CFA8897F
:1010A000B9898C9185FFEDCFCE01C2DFE8CFDF910A
:1010B000CF910895CF92DF92FF920F931F93CF931A
:1010C000DF931F92CDB7DEB76C0181E0D601589651
:1010D0008C9358975B969C915B975C968C915C97F0
:1010E000981307C05096ED91FC915197808185FD32
:1010F0002DC0F601038D10E00F5F1F4F0F731127F6
:10110000F02EF601848DF81210C00FB607FCF9CF4F
:10111000D6015096ED91FC915197808185FFF1CFDA
:10112000C601698385DF6981ECCF838DE80FF11DEE
:10113000E35AFF4F6083D6015B960C935B97529600
:10114000ED91FC915397808180620CC0D601569638
:10115000ED91FC91579760835096ED91FC915197DA
:1011600080818064808381E090E00F90DF91CF9157
:101170001F910F91FF90DF90CF9008955058BB279B
:10118000AA270ED0DCC0CDD030F0D2D020F031F480
:101190009F3F11F41EF4C2C00EF4E095E7FBB8C007
:1011A000E92FDED080F3BA1762077307840795072B
:1011B00018F071F49EF5F6C00EF4E0950B2EBA2FE0
:1011C000A02D0B01B90190010C01CA01A00111244D
:1011D000FF27591B99F0593F50F4503E68F11A16F9
:1011E000F040A22F232F342F4427585FF3CF46958A
:1011F00037952795A795F0405395C9F77EF41F16AC
:10120000BA0B620B730B840BBAF09150A1F0FF0F75
:10121000BB1F661F771F881FC2F70EC0BA0F621F61
:10122000731F841F48F4879577956795B795F79551
:101230009E3F08F0B3CF9395880F08F09927EE0FE3
:1012400097958795089540D008F481E00895E89433
:1012500009C097FB3EF490958095709561957F4FFE
:101260008F4F9F4F9923A9F0F92F96E9BB279395AC
:10127000F695879577956795B795F111F8CFFAF4BC
:10128000BB0F11F460FF1BC06F5F7F4F8F4F9F4FED
:1012900016C0882311F096E911C0772321F09EE84B
:1012A000872F762F05C0662371F096E8862F70E0B1
:1012B00060E02AF09A95660F771F881FDAF7880F8B
:1012C0009695879597F90895990F0008550FAA0BE1
:1012D000E0E8FEEF16161706E807F907C0F0121649
:1012E0001306E407F50798F0621B730B840B950B4C
:1012F00039F40A2661F0232B242B252B21F40895A1
:101300000A2609F4A140A6958FEF811D811D08953D
:1013100097F99F6780E870E060E008959FEF80ECA8
:10132000089500240A94161617061806090608954B
:1013300000240A9412161306140605060895092EB1
:101340000394000C11F4882352F0BB0F40F4BF2B20
:1013500011F460FF04C06F5F7F4F8F4F9F4F089560
:1013600057FD9058440F551F59F05F3F71F0479556
:10137000880F97FB991F61F09F3F79F0879508953B
:10138000121613061406551FF2CF4695F1DF08C05A
:10139000161617061806991FF1CF86957105610577
:1013A00008940895E894BB2766277727CB0197F91F
:1013B00008958ADF08F48FEF0895A1E21A2EAA1B80
:1013C000BB1BFD010DC0AA1FBB1FEE1FFF1FA217F5
:1013D000B307E407F50720F0A21BB30BE40BF50BF2
:1013E000661F771F881F991F1A9469F7609570957B
:1013F000809590959B01AC01BD01CF010895EE0F42
:10140000FF1F0590F491E02D19940790F691E02DBF
:101410001994CF93DF938230910510F482E090E02D
:10142000E091F803F091F90320E030E0A0E0B0E0B3
:10143000309739F14081518148175907B8F0481762
:10144000590771F482819381109729F013969C9328
:101450008E9312972CC09093F9038093F80327C0C2
:101460002115310531F04217530718F0A901DB01AE
:1014700001C0EF019A01BD01DF010280F381E02D7F
:10148000D7CF21153105F9F0281B390B2430310550
:1014900080F48A819B816115710521F0FB019383A2
:1014A000828304C09093F9038093F803FE0132967F
:1014B00044C0FE01E20FF31F819391932250310942
:1014C000398328833AC02091F6033091F703232B08
:1014D00041F420910202309103023093F7032093EC
:1014E000F60320910002309101022115310541F4EB
:1014F0002DB73EB74091040250910502241B350BD5
:10150000E091F603F091F703E217F307A0F42E1B26
:101510003F0B2817390778F0AC014E5F5F4F241757
:10152000350748F04E0F5F1F5093F7034093F603C3
:101530008193919302C0E0E0F0E0CF01DF91CF9181
:101540000895CF93DF93009709F487C0FC01329789
:1015500013821282C091F803D091F903209781F48D
:1015600020813181280F391F8091F6039091F70374
:101570008217930779F5F093F703E093F6036DC0B4
:10158000DE0120E030E0AE17BF0750F412964D9117
:101590005C9113979D014115510509F1DA01F3CFD3
:1015A000B383A28340815181840F951F8A179B07C3
:1015B00071F48D919C911197840F951F02969183E0
:1015C000808312968D919C9113979383828321152A
:1015D000310529F4F093F903E093F8033EC0D901F3
:1015E0001396FC93EE9312974D915D91A40FB51F46
:1015F000EA17FB0779F480819181840F951F029689
:10160000D90111969C938E938281938113969C931A
:101610008E931297E0E0F0E08A819B81009719F0A9
:10162000FE01EC01F9CFCE01029628813981820FAB
:10163000931F2091F6033091F7032817390769F4B7
:10164000309729F41092F9031092F80302C0138224
:101650001282D093F703C093F603DF91CF910895E0
:1016600012E0CCE3D2E000E005C022970109FE01C0
:101670000BBFCBDECE33D10780E00807B1F7F8947B
:02168000FFCF9A
:101682000000FA0380000100000050001600000074
:1016920000007301940100000000F601FC0100004B
:1016A20000001102170200000000E002EF02000039
:1016B2000000F702FD02000000000B03110300000E
:1016C2000000F704000000005A085305AF07C807DE
:0416D200BA07390812
:00000001FF
