:1000000029C1000058C1000056C1000054C10000C1
:1000100052C1000050C100004EC100004CC10000A0
:100020004AC1000048C1000046C1000044C10000B0
:1000300042C1000040C100003EC100003CC10000C0
:100040003AC1000038C1000036C1000034C10000D0
:1000500032C1000030C100002EC100000C944B24BE
:100060002AC100000C9455210C948B2124C100005E
:1000700022C1000020C100001EC100001CC1000000
:100080001AC1000018C1000016C1000014C1000010
:1000900012C1000010C100000EC100000CC1000020
:1000A0000AC1000008C1000006C1000004C1000030
:1000B00002C1000000C10000FEC00000FCC0000042
:1000C000FAC00000F8C00000F6C00000F4C0000054
:1000D000F2C00000F0C00000EEC00000ECC0000064
:1000E000EAC000005A0E710EEE0ED80FF70F141072
:1000F0001C10CE0F1B251E250D2511251725552556
:10010000222526252C25302534253A253E25422535
:10011000552548254C25502500000A0B02090C0DD9
:100120000E080703040100000000000000000000AA
:1001300000000000000000000000000000000000BF
:10014000000000001211100000000000000000007C
:10015000000000000000000000000000000001029C
:1001600010202008081020401020408002010201C9
:100170000804020101020408102040808040201081
:1001800008040201800402018040201008040201DA
:100190000804020101020408102040800102040842
:1001A000102040800505050507050808080802021B
:1001B00002020A0A08080404040401010101010101
:1001C00001010303030303030303040707070C0CE4
:1001D0000C0C0C0C0C0C02020202060606060606AB
:1001E00006060B0B0B0B0B0B0B0B00002000230068
:1001F000260029002C002F0032000001000003011E
:100200000601090100002200250028002B002E0015
:100210003100340002010000050108010B0100005B
:100220002100240027002A002D00300033000101A6
:100230000000040107010A019F019B0253036F04A0
:1002400032133D13FF16641872187D18CC1FBD21A0
:100250004D22D70111241FBECFEFD1E2DEBFCDBFAB
:1002600000E00CBF15E0A0E0B2E0EAE5F4E500E054
:100270000BBF02C007900D92A034B107D9F72AE056
:10028000A0E4B5E001C01D92AE34B207E1F712E080
:10029000C2E5D2E000E006C022970109FE010BBFD3
:1002A0000E945927C833D10780E00807A9F70E94A8
:1002B0003D240C941C2AA4CE29E130E040E050E01B
:1002C00064E170E080E090E00E94A4239B0141E0A3
:1002D00050E068E172E08BE096E0B8D223E230E0D3
:1002E00040E050E06FE070E080E090E00E94A423E6
:1002F000AB0165E272E08BE096E036C226E040E0BA
:1003000052EC61E070E08FE998E00E94F5206BE02C
:1003100076E082E196E07FD02CE531E040E355E7DE
:1003200060E070E080E495E00E946119C5CF82E151
:1003300096E00E94021D80E495E00C9406190F934C
:100340001F9300E020E040E060E083EC96E00E9434
:10035000412205E22EEF48EA60EC8DEB96E00E9428
:1003600041228FEA96E00E9433140FEA16E029E555
:1003700032E04BE557E06AE072E082E196E00E94ED
:10038000911F62E176E08BE096E0B5D169E08DEFF8
:1003900095E00E947B196DEF75E08AEE95E00E9472
:1003A000D71F80E495E01F910F910C94D5188BE036
:1003B00096E084C1CF93DF93EC0164E472E00E9485
:1003C000541F60E672E0CE010E94541F6CE772E099
:1003D000CE010E94541F6CE972E0CE010E94541FAE
:1003E0006CEB72E0CE010E94541F6BED72E0CE0107
:1003F0000E94541F6AEF72E0CE010E94541F69E10F
:1004000073E0CE010E94541F69E373E0CE01DF91D7
:10041000CF910C94541FFF920F931F93CF93DF93B0
:1004200000D000D0CDB7DEB78C018091C906909185
:10043000CA068617970721F07093CA066093C9060B
:10044000C8010E946F1BF82E81111FC02CE533E0FC
:1004500045E653E06EE673E0C8010E94EE1C882377
:10046000A1F06EE673E0CE0101960E9426244EE6CE
:1004700053E0BA01C8010E94EC1EC8019BDFCE0107
:1004800001960E94BF23FF24F3948F2D26960FB66A
:10049000F894DEBF0FBECDBFDF91CF911F910F91BA
:1004A000FF900895AB01BC018091C9069091CA06E6
:1004B0003EC1EF92FF920F931F93CF93DF93CDB77F
:1004C000DEB766970FB6F894DEBF0FBECDBF7C01D6
:1004D000DB01FE0131968F01CF01801B910B481784
:1004E000590718F08D918193F7CFF801E40FF51FAC
:1004F0001082B801CE0141960E942624B701CE0198
:100500000B960E942624B801C701CCDFCE010B96C2
:100510000E94BF23CE0141960E94BF2366960FB66C
:10052000F894DEBF0FBECDBFDF91CF911F910F9129
:10053000FF90EF9008950F9300E020E040E060E02E
:100540008BEC96E00E9441220F910895CF93DF93A8
:10055000EC0188EA93E0998388838F8D98A10097B6
:1005600039F0DC01ED91FC910280F381E02D1995C9
:1005700089A19AA1009739F0DC01ED91FC910280EC
:10058000F381E02D1995CE01DF91CF913FC3CF9339
:10059000DF93EC01DBDFCE01DF91CF910C944A2495
:1005A000CF93DF93EC0128D3882321F0CE0121D310
:1005B000811106C060E08F8D98A1D1D160E005C0A7
:1005C00061E08F8D98A1CBD161E089A19AA1DF91E3
:1005D000CF91C5C1AF92BF92CF92DF92EF92FF92BF
:1005E0000F931F93CF93DF931F921F92CDB7DEB768
:1005F0007A0169837A8306D36C016981A62E7A8198
:10060000B72E00E010E00E151F0554F4F5016191BE
:1006100071915F01C6010E94541F0F5F1F4FF3CFFE
:100620000F900F90DF91CF911F910F91FF90EF905E
:10063000DF90CF90BF90AF9008950F931F93CF930B
:10064000DF93EC01D1D188EA93E09983888384E435
:1006500092E09EA38DA380E692E098A78FA361E02D
:10066000CE01CDD285E090E00E9449248C0140E08B
:100670006EE170E068D118A30F8F85E090E00E94D2
:1006800049248C0140E06FE170E05DD11AA309A319
:10069000BE016B5D7F4F42E050E0CE01DF91CF9114
:1006A0001F910F9197CF0F9300E020E040E060E0B2
:1006B00081ED96E00E9441220F91089522E434E0FA
:1006C000DC0111963C932E9314968D919C91159775
:1006D000009739F0DC01ED91FC910280F381E02D6F
:1006E00019940895CF93DF93EC01E8DFCE01DF91F9
:1006F000CF910C944A240F931F93CF93DF93EC0177
:1007000082E494E09983888381E08E837B836A838B
:1007100089E290E00E9449248C016A817B818DDF0F
:100720001D830C83DF91CF911F910F9108950F933B
:100730001F93CF93DF93EC01CB018A0165E272E056
:100740000E94FE29892B59F0C8010E94D129BC01C1
:100750008C819D81DF91CF911F910F9106C2DF9116
:10076000CF911F910F9108950F931F93CF93DF9314
:10077000EC01CB018A0165E272E00E94FE29892B1F
:1007800041F0B8018C819D81DF91CF911F910F9134
:10079000ECC1DF91CF911F910F9108950F931F939B
:1007A000CF93DF93EC01CB018A0168E172E00E94F4
:1007B000FE29892B69F48E81882331F06EEA73E07B
:1007C0008FE998E00E94A522B8018C819D81EDD12E
:1007D0008E81882351F069EC73E08FE998E0DF9116
:1007E000CF911F910F910C94A522DF91CF911F9172
:1007F0000F9108950F931F93CF93DF93EC01CB01DB
:100800008A0168E172E00E94FE29892B69F48E81D9
:10081000882331F06EEA73E08FE998E00E94A52208
:10082000B8018C819D81D3D18E81882351F069ECF0
:1008300073E08FE998E0DF91CF911F910F910C94B5
:10084000A522DF91CF911F910F910895EF92FF9212
:100850000F931F93CF93DF93EC018B0179018E816E
:1008600041155105A9F04130510521F5882331F09A
:1008700065E074E08FE998E00E94A522A701B80125
:10088000CE01DF91CF911F910F91FF90EF9086CF16
:10089000882331F06AE174E08FE998E00E94A52294
:1008A000A701B801CE01DF91CF911F910F91FF9069
:1008B000EF90A0CF882361F06CE274E08FE998E0BC
:1008C000DF91CF911F910F91FF90EF900C94A52293
:1008D000DF91CF911F910F91FF90EF9008950F93AB
:1008E00000E020E040E060E087ED96E00E944122D9
:1008F0000F9108952AE434E0FC01318320839EC1E6
:10090000CF93DF93EC01F6DFCE01DF91CF910C9412
:100910004A24CF93DF93EC0160E070E09CD18AE43D
:1009200094E099838883DF91CF9108952BE634E09A
:10093000FC013183208308952BE634E0FC013183F0
:1009400020830C944A24FC01862F2BE634E031836B
:10095000208362837383448361E00C945625EF9275
:10096000FF920F931F93CF93DF931F92CDB7DEB704
:100970007C01FC016483828169830E94C4256981B2
:10098000062F10E08017910739F1F70182810E944C
:100990008F2565E574E08FE998E00E949A22F701BF
:1009A000628173814AE050E08FE998E00E9453230E
:1009B00062E674E08FE998E00E949A224AE050E0F3
:1009C000B8018FE998E00F90DF91CF911F910F91BF
:1009D000FF90EF900C945A230F90DF91CF911F91CD
:1009E0000F91FF90EF9008950F931F93CF93DF9394
:1009F000EC018B018FED94E099838883CE010696FC
:100A000041D1CE01419685DF81E08E8F1B830A8321
:100A100089E190E09D838C831E8681E490E0988B31
:100A20008F87198E1A8E1B8E1C8E1D8EDF91CF9193
:100A30001F910F9108958F929F92AF92BF92CF9284
:100A4000DF92EF92FF92CF93DF93EC018B889C882B
:100A5000AD88BE888B8D882321F16F8578898827A2
:100A600077FD8095982F0E9457266B017C01A50188
:100A700094010E94072787FD02C0198E12C020E052
:100A800030E040E85FE3C501B4010E94EC259B0122
:100A9000AC01C701B6010E945126181614F081E07E
:100AA000898F8E8D882341F0698D70E061597B4F6D
:100AB0008FE998E00E94A522898DDF91CF91FF9068
:100AC000EF90DF90CF90BF90AF909F908F90089560
:100AD0008F929F92AF92BF92CF92DF92EF92FF924E
:100AE000CF93DF93EC0188849984AA84BB848A8D98
:100AF000882321F16C817D81882777FD8095982F4F
:100B00000E9457266B017C01A50194010E940727D2
:100B100087FD03C081E08E8711C020E030E040E80F
:100B20005FE3C501B4010E94EC259B01AC01C70144
:100B3000B6010E94512618160CF01E868E8D882351
:100B400041F06E8570E063587B4F8FE998E00E941A
:100B5000A5228E85DF91CF91FF90EF90DF90CF900F
:100B6000BF90AF909F908F9008950F931F93CF9356
:100B7000DF93EC018B01882777FD8095982F0E94E9
:100B80005726688779878A879B878E8D882339F0D7
:100B9000B80161577B4F8FE998E00E94A522CE01F2
:100BA000DF91CF911F910F9193CFCF93DF93EC0102
:100BB0007D836C838E8D882331F064EB74E08FE944
:100BC00098E00E94A522CE01DF91CF9181CFCF93F3
:100BD000DF93EC01788B6F878E8D882331F069EC81
:100BE00074E08FE998E00E94A522CE01DF91CF91B9
:100BF00022CFFC0186850895FC01828D0895FC01B9
:100C0000628F0895FC01828193810895CF93DF93D1
:100C1000EC018FED94E099838883CE0141966ADEE2
:100C2000CE010696DF91CF911EC0CF93DF93EC01EA
:100C3000EDDFCE01DF91CF910C944A2429EE34E010
:100C4000FC0131832083089529EE34E0FC013183D7
:100C500020830C944A2429EE34E0FC013183208364
:100C600077836683089521EF34E0FC01318320838C
:100C7000E5CFCF93DF93EC01F6DFCE01DF91CF918B
:100C80000C944A24CF93DF93EC0161E070E0E3DF42
:100C900081EF94E099838883DF91CF910895882331
:100CA00081F08F3F29F48091DF069091E00608954E
:100CB00095E0899FF0011124EC51F94F82819381D5
:100CC000089580E090E00895CF93DF93D82FC62F4A
:100CD00060E085E30E948F259C2F9F719D2B9EBD18
:100CE0000DB407FEFDCF1EBC0DB407FEFDCFC7FD42
:100CF00008C061E085E30E948F258EB5DF91CF911A
:100D000008951EBC0DB407FEFDCFF3CF0F931F93C4
:100D1000CF93DF931F92CDB7DEB7182F062F60E079
:100D200085E349830E948F25602F6F71612B6EBD13
:100D300049810DB407FEFDCF4EBD0DB407FEFDCFBA
:100D400061E085E30F90DF91CF911F910F910C949B
:100D50008F250F931F93CF93DF938C01EB0160E0FE
:100D600085E30E948F258AE38EBD0DB407FEFDCF7B
:100D70000C0F1D1FC017D10739F01EBC0DB407FEA4
:100D8000FDCF8EB58993F6CF61E085E3DF91CF91FA
:100D90001F910F910C948F250F931F93CF93DF9387
:100DA0008C01EB0160E085E30E948F258AE78EBD10
:100DB0000DB407FEFDCF0C0F1D1FC017D10731F07A
:100DC00089918EBD0DB407FEFDCFF7CF61E085E3BD
:100DD000DF91CF911F910F910C948F251F93CF938B
:100DE000DF93182F1076C12FD0E020910E0230E053
:100DF000C217D30779F043E06FE180EA87DFAE01E5
:100E000085E0559547958A95E1F76FE180E87EDFAB
:100E100010930E02DF91CF911F910895CF93DF932E
:100E20001F92CDB7DEB7682F6983D8DF698180E074
:100E30000F90DF91CF9148CF1F93CF93DF931F92F5
:100E40001F92CDB7DEB7182F69837A83C7DF498138
:100E5000612F80E45BDF61E0610F7A81472F80E4DE
:100E60000F900F90DF91CF911F9150CF6091E206CC
:100E70007091E3066115710519F06150710902C0A6
:100E80006FEF77E08CE0D8CFF1CFFF920F931F93F5
:100E9000CF93DF9389E3C2DF882309F444C06091D4
:100EA000E2067091E306EB012696C11588E0D807AB
:100EB00010F0CF5FD74080E0BFDF60E08AE304DF5F
:100EC00090E09093E3068093E20660E08AE3FCDE24
:100ED0002091E2063091E306382B3093E30620930D
:100EE000E20660E08AE3F0DE082F60E08AE3ECDEF1
:100EF000182F60E08AE3E8DEF82E40E46EE180E837
:100F000005DFF7FE0FC0D093DE06C093DD06202F6D
:100F100030E0312B245031093093E0062093DF0676
:100F20008FEF02C0A3DF80E0DF91CF911F910F917F
:100F3000FF900895EF92FF920F931F93CF93DF934B
:100F40008B017A018F3FC1F025E0829FE0011124DF
:100F5000CC51D94F02C0CDEDD6E068817981600FC8
:100F6000711F80E069DF8A819B81801B910BE816ED
:100F7000F90690F4C70110C08091DD069091DE065D
:100F8000860F971F811528E0920728F3BC016F5F39
:100F90007740CDEDD6E0E5CFDF91CF911F910F9156
:100FA000FF90EF9008950F931F93CF93DF938A01E3
:100FB000A901C0DFEC01B801CCDECE01DF91CF91F9
:100FC0001F910F910895CF92DF92EF92FF920F93AE
:100FD0001F93CF93DF938B016A01790195E0899F7D
:100FE000E0011124CC51D94F68817981600F711FC4
:100FF00082E022DF0A80DB81C02DC01BD10BEC1602
:10100000FD0608F4E701B601CE01C6DECE01DF9190
:10101000CF911F910F91FF90EF90DF90CF900895A7
:10102000BC0180E009DF60E085E30E948F258AE350
:101030008EBD0DB407FEFDCF1EBC0DB407FEFDCF67
:1010400061E085E30E948F258EB50895CF93C62F6A
:10105000BC0182E0F1DE60E085E30E948F258AE733
:101060008EBD0DB407FEFDCFCEBD0DB407FEFDCF86
:1010700061E085E3CF910C948F25FF920F931F932E
:10108000CF93DF9395E0899FF0011124EC51F94F44
:10109000C081D1812197028113810C0F1D1FCE01C8
:1010A000BFDFF82E882319F060E0CE01CFDFBE014C
:1010B00084E0C2DEB80186E0BFDE48E06FE180E890
:1010C00025DE8CE1ABDE81FF04C048E06FE180EA01
:1010D0001DDEFF2041F06F2DCE01DF91CF911F91DA
:1010E0000F91FF90B3CFDF91CF911F910F91FF90A0
:1010F0000895CF92DF92EF92FF920F931F93CF93B9
:10110000DF937C01EB014130510569F4CB0188DFAD
:10111000682FC701DF91CF911F910F91FF90EF9042
:10112000DF90CF9093CF6A01C60ED71E8601015083
:10113000110980E181DEB70184E17EDEC115D8406E
:1011400030F4011588E0180710F00F5F1740B80160
:1011500082E172DE40E16FE180EAD8DD40E26FE1DA
:1011600080E8D4DD6FE180E0AFDD85FDFBCFDF916E
:10117000CF911F910F91FF90EF90DF90CF90089546
:101180000F931F93CF93DF93EB01E5E0E89FD0012E
:101190001124AC51B94F4F3FB9F0E49FF001112435
:1011A000EC51F94F02C0EDEDF6E060817181620F04
:1011B000731F8D919C91A8018C0F9D1F9ADFDF9169
:1011C000CF911F910F9152CEE091DD06F091DE0696
:1011D000E20FF31FE11588E0F80728F3BF016F5F06
:1011E0007740E7CF0F931F93CF93DF93EC01862FC8
:1011F000BA01A9019FDE8C010150110960E085E36D
:101200000E948F258AE38EBD0DB407FEFDCF20E03E
:1012100030E020173107C0F41EBC0DB407FEFDCF2F
:101220008EB590E0982F88271EBC0DB407FEFDCF29
:101230004EB5840F911DC80FD91FC817D90708F4E0
:1012400021962E5F3F4FE5CF2017310771F41EBC6A
:101250000DB407FEFDCF8EB590E0982F8827C80FFC
:10126000D91FC817D90708F4219661E085E30E94C9
:101270008F25CE01DF91CF911F910F910895DF92BD
:10128000EF92FF920F931F93CF93DF937C014091D6
:10129000E4065091E5064150584E80E098E1E4EEB6
:1012A000F6E000E0C0E0D0E025E0D22E148111236A
:1012B00041F0D19ED0011124AC51B94F2D913C91F8
:1012C00001C09A0160817181261B370B6281738195
:1012D000261B370B2E153F0539F485E0089FE001EA
:1012E0001124CC51D94F48C0E216F30648F4281710
:1012F000390730F4D09EE0011124CC51D94FC901F7
:10130000111107C02097C1F5C4EED6E085E0D82EB4
:101310001DC0D19EF0011124EC51F94F012FC6CF11
:101320000A811B8188819981080F191FD29EE001D3
:101330001124CC51D94F688179810617170731F0F4
:101340004A815B81C801D5DE198308832C81211174
:10135000E7CF2091E4063091E50688819981281B2A
:10136000390B8A819B81281B390B2150384E2E1551
:101370003F0510F480E019C0E9EEF6E081E022813B
:101380003381232B29F035968F5F8932C1F7F2CF55
:101390002A813B8148815981240F351F3183208365
:1013A000F382E2829C8194838C83DF91CF911F91A1
:1013B0000F91FF90EF90DF9008958823F9F0E4EE0D
:1013C000F6E025E09481981311C095E0899FD00143
:1013D0001124AC51B94F14968C91149784831396B1
:1013E0001C921E92129714961C920895992331F024
:1013F000299FF0011124EC51F94FE4CF089595E0B5
:10140000899FF0011124EC51F94F80819181860F61
:10141000971F9183808382819381861B970B93838F
:101420008283089595E0899FF0011124EC51F94FD2
:1014300080819181860F971F91838083538342839C
:101440000895FC015381560F50935209872F992715
:101450004281480F40935109A181A0935009E08136
:10146000E0934F09242F30E02817390748F481E032
:101470008A0F80935009811103C0EF5FE0934F09F9
:10148000852F90E077278617970788F44F5F409362
:10149000510941110CC0809150098F5F8093500910
:1014A000811105C080914F098F5F80934F09089586
:1014B0002091560930915709BC01C9010896C1DF36
:1014C000E0915609F091570980914F0980878091EA
:1014D00050098187809151098287809152098387C1
:1014E0000895CF932091B5073091B6072F5F3F4FF6
:1014F00021154DE7340710F020E030E1522F432F43
:10150000E8E5F9E0C0E0C43059F0A18DAA2329F044
:10151000A481B581A417B50749F3CF5F7E96F3CFB9
:101520003093B6072093B5071092B40720E0E0E0AF
:10153000F0E04EE12430E0F4429FD0011124A85A9B
:10154000B64F59963C915997311104C02093B40776
:10155000FD0110C0373041F4309739F05A965C9154
:101560005A97328D351708F0DF012F5FFD01E2CF6A
:101570002093B4073097B1F122E0218F2091B70773
:1015800024872091B80725872091B90726872091C5
:10159000BA07278720E032E0338B228B358B248BF0
:1015A00021E030E0318B208B138E228F23E0208FBF
:1015B000168A20E1278B2091B5073091B607322794
:1015C000232732273583248377836683DC012D919B
:1015D0003C9111973183208312968D919C911397A2
:1015E00093838283CF01CF9108951F93CF93DF938D
:1015F000C0915609D09157092AE13AE03093550934
:101600002093540930934E0920934D09833059F4A7
:10161000898D8F70833009F0A7C588899989892BB6
:1016200009F0A2C57FC0823009F080C08091BA075E
:101630008F5F8093BA07811113C08091B9078F5FC4
:101640008093B90781110CC08091B8078F5F809398
:10165000B807811105C08091B7078F5F8093B707E6
:1016600010924C0910924B091092490A1092480AA4
:10167000298D822F8D7F853041F48A8D8F5F8A8FEF
:10168000883709F071C5198E6FC5222309F46CC51E
:1016900088899989892B09F441C08A8D9FEF980F19
:1016A0009A8F811161C58B8D883031F09FEF920F39
:1016B000923048F4853039F4198E80E880935309CC
:1016C0000E94F51512C4853038F493E0082E01C04D
:1016D000990F0A94EAF701C090E39A8F8F5F8B8F7E
:1016E000822F8F708330A1F048F4813009F42FC22B
:1016F000823009F039C51092130A2CC2863009F4E1
:1017000095C3883009F492C3843009F02DC58EC387
:1017100084E0809353090E94F51519C42F7023307B
:1017200009F022C588E080935309D5C38091F2095E
:10173000853409F019C58091F40990E0982F882725
:101740002091F509820F911D20914B0930914C0990
:101750002817390708F408C590934C0980934B0962
:101760008091F8098F7309F0FFC48091F909811104
:10177000FBC48091E0099091E109009731F4209138
:10178000E2093091E309232BA1F02091020A309164
:10179000030A2817390709F0E7C42091040A309199
:1017A000050A8091E2099091E3092817390709F0A9
:1017B000DBC40E946318019609F0D6C48091FB092E
:1017C0008630D1F1813009F0CFC48091060A88308B
:1017D00009F0CAC41092060A8091080A9091090A79
:1017E000873FAFEF9A0710F0099601C008969093D3
:1017F000090A8093080A8091FE099091FF0990934D
:10180000030A8093020A8091000A9091010A909342
:10181000050A8093040A8091E0099091E109909370
:10182000FF098093FE098091E2099091E30990936A
:10183000010A8093000A9CC40E942818019609F0AE
:1018400093C48091080A9091090A2091060A309168
:10185000070A4091FE095091FF096091000A7091BA
:10186000010AE1E7F9E0C8E5D9E010811123A9F008
:10187000AC81BD818A179B0781F4AE81BF812A1795
:101880003B0759F4A881B9814A175B0731F4AA8153
:10189000BB816A177B0709F474C16E967E96A9E036
:1018A000C03DDA0711F72091130A2F732230E1F4BB
:1018B0009093B2078093B10740E0443098F4E42F4E
:1018C000F0E0EE0FFF1FE053F64F208131814F5FB4
:1018D0008217930791F71092B40720E0C0E0D0E0A0
:1018E0003EE17EC04093B4078091130A82FD3CC460
:1018F00084E18093130A88E290E090934C098093EE
:101900004B0980E58093120A80910D0A9091110A8B
:1019100090930D0A30910C0A9091100A90930C0A42
:101920003093100A20910B0A90910F0A90930B0AA2
:1019300020930F0A90910A0A9093B40740910E0ADF
:1019400040930A0A90930E0A8F5F8093110A8111C7
:101950000FC081E0830F8093100A811109C081E0DC
:10196000820F80930F0A811103C09F5F90930E0A2C
:101970008091060A9091070A9093B2078093B1076D
:101980002091080A3091090A3093070A2093060A29
:101990009093090A8093080A8091FE099091FF09AB
:1019A0009093030A8093020A8091000A9091010AA1
:1019B0009093050A8093040A8091E0099091E109CF
:1019C0009093FF098093FE098091E2099091E309C9
:1019D0009093010A8093000A8BC3473099F02F5FE0
:1019E0002430F0F4822F90E0389FF001399FF00D01
:1019F0001124E85AF64F418D4111EFCF2093B407DF
:101A0000EF0110C0209721F0528D4A8D451738F70D
:101A1000389FE001399FD00D1124C85AD64FDFCF2F
:101A20002093B407209709F49FC3D0935709C0931C
:101A3000560983E08A8F888F1E8A84E08F8B1B8EE5
:101A40008091080A9091090A9D838C838091060AEF
:101A50009091070A9F838E838091FE099091FF09E0
:101A6000998388838091000A9091010A9B838A83DD
:101A700081E0898F8091B7078C878091B8078D8727
:101A80008091B9078E878091BA078F8781E090E0B7
:101A9000998B888B80910D0A8B8780910C0A8A879D
:101AA00080910B0A898780910A0A888781E090E0FB
:101AB000FFDC8091120A282F207F30E0213531058C
:101AC0000CF445C082958F7090E00597880F991FA0
:101AD000880F991F3091B30720E0E22FF0E0E8175C
:101AE000F9078CF5EC51F64F36A9311105C020935A
:101AF000B4071092B3072BC0313011F42F5FEDCF34
:101B00003230E1F447A94430C9F42093B40730934C
:101B1000B30780AD90E0982F882721AD822B90935A
:101B2000B2078093B107813022E0920710F080E085
:101B300092E09B8B8A8B9D8B8C8B09C047A9442399
:101B400011F0240FCACF2093B4073093B30780E17C
:101B50008093130A8091130A82608093130A82E0B3
:101B600080931A0A94E090931B0A80931C0A1092A7
:101B70001D0A8CE290E090934C0980934B0980E61B
:101B800065C2D0935709C0935609109253093091FA
:101B9000130A32FF03C0198E80E206C22091120A96
:101BA00022952F70220F220F2093B40780914B09AA
:101BB00090914C094497821B910990934C09809312
:101BC0004B091F70123021F4232F2F732231C9F0DB
:101BD000892B19F4832F8370A1F090910A0A8885CC
:101BE00098132AC290910B0A8985981325C2909167
:101BF0000C0A8A85981320C290910D0A8B85981340
:101C00001BC234FF49C0688979896115710509F4DF
:101C100043C0CE010C9615DC30910E0A80914F091D
:101C200038133AC020910F0A80915009281334C00C
:101C30009091100A8091510998132EC08091110A39
:101C400040915209841328C03C872D879E878F8737
:101C50008B8D81111AC02E89888D9A8D891B922FA8
:101C6000969596959695891B280F2E8B87FD8195C5
:101C70009F89392F36953695931B980F9F8B822F0E
:101C8000869586958695890F888F81E08093530984
:101C9000888D8A8F198A188A498D842F8F7090E0D9
:101CA000FC013197E830F10508F05EC2EE58FF4FB5
:101CB0000C9449278091530980FF56C283E0898F95
:101CC00080E480935309198A188A80914B09909176
:101CD0004C09009709F4FBC022E420935309E8DB88
:101CE000F6C08091530980FF6FC08091130A8F73F3
:101CF000823109F069C08091120A282F207F30E0DC
:101D0000213531050CF445C082958F7090E0059720
:101D1000880F991F880F991F3091B30720E0E22F99
:101D2000F0E0E817F9078CF5EC51F64F36A93111C0
:101D300005C02093B4071092B3072BC0313011F4C3
:101D40002F5FEDCF3230E1F447A94430C9F420933E
:101D5000B4073093B30780AD90E0982F882721AD6A
:101D6000822B9093B2078093B1078130A2E09A074B
:101D700010F080E092E09B8B8A8B9D8B8C8B09C04E
:101D800047A9442311F0240FCACF2093B4073093FE
:101D9000B30783E0898F80910A0A888780910B0AB4
:101DA000898780910C0A8A8780910D0A8B8781E050
:101DB00090E07EDB82E480935309198A188A10929E
:101DC0004C0910924B0983C080E2809353090DD7D0
:101DD000E0915609F0915709118E86CD8091130A32
:101DE00080FF26C044FD24C088899989892B09F089
:101DF000BBC180914B0990914C09019659DB209110
:101E00005309822F80618093530980914B099091EF
:101E10004C09892B19F0226120935309E6D681E001
:101E200090E0998B888B88E0898F1B8E81E105C1BA
:101E300085FF1CC08091180A90E0982F8827209178
:101E4000190A822B2091540930915509280F391F06
:101E5000309355092093540920914B0930914C0936
:101E6000281B390B30934C0920934B0980914B0967
:101E700090914C09009741F044FD06C02091530910
:101E800022602093530914DB8091140A90E0982F6C
:101E900088272091150A820F911D9093B207809395
:101EA000B1072C893D892817390710F0892B21F4B7
:101EB0003093B2072093B1078091B1079091B20798
:101EC0009B8B8A8B80915309837009F44DC11092CA
:101ED000490A1092480A89D68091530985FF07C0A4
:101EE0001092490A1092480A198E84E1A6C084FF14
:101EF0000AC01092490A1092480A81E090E0998B3A
:101F0000888B84E091CF2091480A3091490A2115AD
:101F10003105E1F080FF02C0198A188A8889998901
:101F2000009781F48A899B898217930720F4909304
:101F3000490A8093480A8091480A9091490A998BEE
:101F4000888B04C09093490A8093480A1B8E809125
:101F50004D0990914E0990935509809354098091B1
:101F6000480A9091490A892B59F0888999890097E4
:101F700039F0889690934C0980934B0988E10BC007
:101F80008091530981FFF0C088E290E090934C0962
:101F900080934B0980E18093130A57C080915309C5
:101FA00080FFE2C0198E80E1809353091ED6DCC009
:101FB00080914B0990914C09009709F079DA909142
:101FC000130A8091530990FF0BC080FF06C087E081
:101FD000898F1A8E198A188A18C086E0898F15C0D1
:101FE00080FF1BC085E0898F198A188ABDC0809147
:101FF0004B0990914C09009709F05ADA8091130A25
:1020000080FF0BC087E0898F1A8E81E090E050DA64
:1020100080E180935309E9D50FC080914B099091DD
:102020004C09892B49F4A0C08091530980FF9CC0C2
:1020300087E0898F1A8E98C080E18093130A88E226
:1020400090E090934C0980934B0980E58093120AAD
:10205000888580930E0A898580930F0A8A858093EC
:10206000100A8B858093110A8C8580930A0A8D85CE
:1020700080930B0A8E8580930C0A8F8580930D0ABE
:1020800086E08093FB098C819D819093070A809361
:10209000060A8E819F819093090A8093080A809195
:1020A000E0099091E1099093FF098093FE098091E6
:1020B000E2099091E3099093010A8093000A8881D4
:1020C00099819093030A8093020A8A819B8190935D
:1020D000050A8093040A898D84FF05C01092150AB1
:1020E0001092140A05C082E08093140A1092150A17
:1020F00080E48093FA0980914B0990914C09909368
:10210000F4098093F5091092190A1092180A109296
:10211000170A1092160A9CD7809590959093170AEB
:102120008093160A85E48093F2091092F3091092C5
:10213000F9091092F8098091BB079091BC070196AC
:102140009093BC078093BB079093F6098093F7099F
:102150001092FD091092FC09B6D780959095909346
:10216000FD098093FC0904C010924C0910924B09A0
:1021700010925309DF91CF911F91089598278927D5
:10218000982708959C01AB017093490A6093480A0F
:102190001616170654F480914D0990914E09281790
:1021A000390719F0B9010C94EE290895FF920F93A5
:1021B0001F93CF93DF93DC01FB011092C60760E011
:1021C0007BE0683010F5769FE0011124C553D84FAD
:1021D0002881398121153105B1F08A819B810097D1
:1021E00091F04D915C9111974217530761F412964B
:1021F0002D913C9113972817390729F46093C6074E
:10220000DE0114964FC06F5FDCCF20E03BE028304A
:1022100090F4329FE0011124C553D84F88819981F1
:10222000892B39F48A819B81892B19F42093C60765
:1022300030C02F5FECCF2093C607283051F50091B6
:10224000C407802F90E010E070E060E02BE0F22EF9
:10225000683098F4F69EE0011124C553D84FCA8522
:10226000AC014C1B5109212F30E0241735071CF419
:10227000762F102F1C1B6F5FEBCF1093C30770934B
:10228000C5077093C6078BE0789FE0011124C55302
:10229000D84F4D915D916D917C91DE014D935D9391
:1022A0006D937D9386E001900D928A95E1F7809180
:1022B000C4078A87DF91CF911F910F91FF900895F6
:1022C00080914B0990914C090E9790934C09809303
:1022D0004B098091E0099091E1092091FE0930912C
:1022E000FF09822793272091DC093091DD098223A1
:1022F0009323892BB9F48091E2099091E30920910D
:10230000000A3091010A822793272091DE0930913B
:10231000DF0982239323892B29F46AEE79E08EEF7B
:1023200099E044CF089580914B0990914C09109207
:102330004C0910924B098A9708F408958091F80986
:102340009091F909811521E0920729F081159240B9
:1023500009F475C0089520910A0A30910B0A809102
:10236000E0099091E1092817390709F083C020910D
:102370000C0A30910D0A8091E2099091E309281727
:10238000390709F077C06AEF79E080E09AE00EDF64
:1023900080E092E09093F9098093F80986E0EAEFF3
:1023A000F9E0A4E0BAE001900D928A95E1F786E0A9
:1023B000EDEBF7E0AAEFB9E001900D928A95E1F715
:1023C00086E0EDEBF7E0AAEEB9E001900D928A9578
:1023D000E1F786E0E4E0FAE0A4EEB9E001900D92C6
:1023E0008A95E1F78091000A9091010A90930B0A77
:1023F00080930A0A8091020A9091030A90930D0A31
:1024000080930C0A8091E0099091E1099093010A70
:102410008093000A8091E2099091E3099093030A66
:102420008093020A88E096E09093F1098093F00986
:102430008AE290E090934C0980934B090895209193
:102440000A0A30910B0A8091E0099091E10928175E
:10245000390781F420910C0A30910D0A8091E2092C
:102460009091E3092817390729F46AEF79E080E0B1
:102470009AE09CCE08952091020A3091030A2F3FE2
:102480004FEF340751F48091040A9091050A0196A8
:1024900021F486E0E5EFF4E0C6C08091E009909178
:1024A000E109822793274091DC095091DD098423BB
:1024B0009523892B91F44091040A5091050A80914B
:1024C000E2099091E309842795276091DE097091D4
:1024D000DF0986239723892B89F08091D809909171
:1024E000D9099093C8078093C7078091DA09909122
:1024F000DB099093CA078093C90708C03093C807C7
:102500002093C7075093CA074093C9078091C70714
:102510009091C8072091C9073091CA0760E07BE01D
:10252000683090F4769FF0011124E553F84F408114
:1025300051818417950731F442815381241735075F
:1025400009F46DC06F5FECCF6093C607683009F087
:1025500068C046E050E06FEF70E084EE99E00E94C2
:10256000F72926E0E4E0FAE0DF01422F1D924A95C8
:10257000E9F7EDEBF7E0AAEEB9E0822F01900D92BA
:102580008A95E1F7EDEBF7E0AAEFB9E0822F019031
:102590000D928A95E1F78091C7079091C8079093B3
:1025A0000B0A80930A0A8091C9079091CA079093F9
:1025B0000D0A80930C0A8091E0099091E1099093B3
:1025C000010A8093000A8091E2099091E3099093B7
:1025D000030A8093020A80E091E09093F9098093C6
:1025E000F8099093F3098093F20988E090E09093C2
:1025F000F5098093F4092093F60984E08093F709A4
:1026000088E096E09093F1098093F0098AE19AE0DE
:1026100090935509809354098AE290E01EC060931C
:10262000C607349686E0A4EEB9E001900D928A9533
:10263000E1F786E0EDEBF7E0AAEEB9E001900D924C
:102640008A95E1F788E090E09093F1098093F00992
:1026500080914B0990914C090E9690934C09809370
:102660004B0908950F9300E020E040E060E083E232
:1026700098E00E9441220F9108950F9300E020E01E
:1026800040E060E089E298E00E9441220F910895C5
:10269000DC01ED91FC91008CF18DE02D199591E01C
:1026A0008927089580E090E00895DC011C96ED9163
:1026B000FC911D97309741F08181882311F081E0D2
:1026C0000895808184FDFBCF80E00895FC0144855E
:1026D00055854115510551F0FB012485358521159E
:1026E000310521F081E04217530709F080E0089599
:1026F000CF93DF931F92CDB7DEB7DC01ED91FC9154
:102700000088F189E02D41E050E0BE016F5F7F4F0E
:10271000199597FD03C0898190E002C08FEF9FEF6C
:102720000F90DF91CF910895CF93DF93EC01A9D360
:10273000EC85FD85309749F0808186FD02C081E0FF
:1027400005C08181882311F0FACF80E0DF91CF911D
:102750000895CF92DF92EF92FF920F931F93CF9342
:10276000DF9300D01F92CDB7DEB77C018B016A01E9
:10277000DC01ED91FC910288F389E02D1995F801B7
:10278000228130E0322F22278381282B32272327F2
:1027900032273A832983248130E0322F2227858112
:1027A000282B3227232732273C832B83C601E6DCE4
:1027B000BC01CE0101960E94710A8C01009719F4A8
:1027C00080E090E016C0D80159968C918F70C1F3CB
:1027D00058D3D80159968C9159978F70833099F7B7
:1027E0005C968D919C915D97F7019587848781E038
:1027F00090E00F900F900F900F90DF91CF911F916D
:102800000F91FF90EF90DF90CF9008950F931F935B
:10281000CF93DF931F92CDB7DEB78C01DC01ED9132
:10282000FC910688F789E02D19958823A1F0D8013D
:102830001C96ED91FC911D978181882361F021E028
:1028400030E0AE014F5F5F4F60E070E00E94D30761
:10285000898190E002C08FEF9FEF0F90DF91CF91C1
:102860001F910F910895FC011382128248EE53E0EC
:1028700060E070E044835583668377838FEF94E054
:1028800091838083158614860895EF92FF920F93AB
:102890001F93CF93DF937C01C0E0D0E000E010E015
:1028A000F701EC0FFD1F81810E944F06080F191FD1
:1028B0002196C530D105A1F7C801DF91CF911F91B5
:1028C0000F91FF90EF900895CF93DF93EC01E88193
:1028D000F9810688F789E02D1995882329F08C85E0
:1028E0009D85DF91CF91D1CF80E090E0DF91CF91B6
:1028F0000895CF93DF93EFE2F8E080E090819111AB
:102900000AC08061DF018D9380E1ED0119928A9503
:10291000E9F7CF0106C08F5F7196843079F780E0C8
:1029200090E0DF91CF910895FC01319681E0919183
:10293000911102C0815008958F5F8530C1F784E006
:1029400008959F92AF92BF92CF92DF92EF92FF9243
:102950000F931F93CF93DF93EC016B017A018A01F0
:102960005C0186E0A80EB11C8CD2209709F445C00A
:102970008881807609F041C0C501D6DF982EFE011E
:10298000E80FF11D868181110CC080E092E00E9469
:102990003F09FE01E90DF11D8683882329F31C867A
:1029A0001B86A701401B510B4C0D5D1D6B857C8563
:1029B0009801FE01E90DF11D86810E94E307081BC5
:1029C000190B2B853C85280F391F3C872B87101648
:1029D00011062CF484E0981639F29394D6CF0E9415
:1029E0009524665F7F4F8F4F9F4F6D877E878F87C0
:1029F000988BC701801B910B02C08FEF9FEFDF9177
:102A0000CF911F910F91FF90EF90DF90CF90BF90EB
:102A1000AF909F900895CF93DF931F92CDB7DEB70D
:102A2000698341E050E0BE016F5F7F4FFC01848508
:102A3000958587DF0F90DF91CF910895FC01848504
:102A400095857FCF0F931F93CF93DF938C01EC017C
:102A500089910E94DD09F801C8010496299121930A
:102A6000E817F907D9F7F8011482DF91CF911F9188
:102A70000F9108959F92AF92BF92CF92DF92EF9203
:102A8000FF920F931F93CF93DF93EC015B017A01C9
:102A9000E881F9810688F789E02D1995882309F4E2
:102AA00055C0EC85FD858181882309F452C08701DA
:102AB0002EE1922EA701401B510B4A0D5B1DEC85A8
:102AC000FD85980160E070E081810E94D3076C0170
:102AD000EC85FD8581810E944F06EC85FD85C81639
:102AE000D90649F50C191D09CF010196ABDFAC855C
:102AF000BD852C91822F90E08F70989EF001999E59
:102B0000F00D1124E85AF64F818D84FF05C0822F05
:102B1000807611F420682C93EC85FD8581818111EC
:102B20000FC0808186FF03C010821D861C86C701EE
:102B3000801B910B10C0B60181810E94FF0904C067
:102B40000115110509F0B6CFC70105C08FEF9FEF42
:102B500002C080E090E0DF91CF911F910F91FF9034
:102B6000EF90DF90CF90BF90AF909F9008951F930C
:102B7000CF93DF93EC0115E088810E94DD09199263
:102B80001150D1F7DF91CF911F910895CF93DF932B
:102B9000EC018C859D85009779F0FC012081222332
:102BA00059F00196E4DFEC85FD85808186FF02C047
:102BB000108202C0806280831D861C86DF91CF91C7
:102BC00060C1CF93DF93EC01E881F9810688F78932
:102BD000E02D1995882331F08C859D850196DF9134
:102BE000CF91C5CFDF91CF910895DF92EF92FF9201
:102BF0000F931F93CF93DF93E0915609F0915709FC
:102C0000C48DD58D209779F48091530986FF43C0F8
:102C100070DEEC01009709F43EC0E0915609F09196
:102C20005709958F848F8091530981FF07C0809148
:102C30004B0990914C09892B09F041C0888187FF8D
:102C40000EC08F77888380915309826080935309E7
:102C5000E0915609F0915709818D8F7E818F809187
:102C6000530984FF6BC0CE01069681DF89818823DA
:102C700009F467C0E0915609F09157098481958164
:102C80009F838E83888180648883E0915609F091C8
:102C90005709158E148EE12CF12CB701809154093F
:102CA000909155096FDAF0924C09E0924B09DF914F
:102CB000CF911F910F91FF90EF90DF900895888141
:102CC000807609F0BBCFE12CF12C8E010E0D1F1D7B
:102CD000F801818181111EC080914B0990914C09AE
:102CE0000E943F09F80181838823A1F000914B09DC
:102CF00010914C092091540930915509245E3940B6
:102D00004091860860E070E00E94C008F4E0EF1295
:102D100095CF0CC02FEFE21AF20A35E0E316F1046A
:102D2000A1F6809183088E7F80938308E0915609F5
:102D3000F0915709818D8061818F80CF87FF03C01B
:102D400092CF1882A2CF80FF03C0CE0106967ADE12
:102D5000809153098C70D1F18E818823B9F19F81C4
:102D600091110CC0EB84FC84E114F10409F493CFBD
:102D7000A70160E070E00E94120A06C00E944F06A0
:102D80007C01009709F487CF8091540990915509EF
:102D9000845E994080938408F701E80FF11DCF010C
:102DA0000E943F0980938508882309F476CF6091BB
:102DB000840870E0870120E030E04E810E94C00866
:102DC0008091830882608093830867CF888185FF24
:102DD00062CF8E8181110BC01882E0915609F0916B
:102DE0005709158E148E80E18093530954CFE091DA
:102DF0005609F0915709818D8061818F4CCF0F93D7
:102E000000E020E040E060E083E798E00E9441229B
:102E10000F9108958091830881FF11C0209184084B
:102E200030E044EE59E060E070E0809185080E9457
:102E3000E307809183088D7F8093830814C080917D
:102E40004B0990914C090E943F0980938508882383
:102E5000B1F020914B0930914C0944EE59E060E00B
:102E600070E00E94E307809185080E943D088091F0
:102E700085080E94DD091092850881E0089580E0B0
:102E80000895CF92DF92EF92FF921F93CF93DF933B
:102E900080918608811104C00E94450780938608AE
:102EA00080918608882309F443C091E090938308B9
:102EB0000E944F0690934C0980934B09892B61F136
:102EC00022E630E044EE59E060E070E08091860850
:102ED0000E94D3078091F0099091F1098830910503
:102EE00081F48091860880938508EAD981E00E9468
:102EF000F50A80914B0990914C09892B69F0BBDA56
:102F00000AC08830964041F40EDA80914B099091C6
:102F10004C09892B09F07EDF80918608882341F0D7
:102F20008091830880FF04C00E94440710928608A5
:102F30000E9495246B017C018091790890917A0818
:102F4000A0917B08B0917C08A7019601281B390B42
:102F50004A0B5B0BDA01C90180959095A095B0955D
:102F60008827B7FD83959927AA27BB27182FC8E57F
:102F7000D9E0D0935709C0935609112311F082E08C
:102F80000FC0EC8DFD8D4585568567857089D7010D
:102F9000C601841B950BA60BB70BB7FD0BC083E0D6
:102FA0000E94F50A20914B0930914C09232B11F016
:102FB00062DA30DF6E9699E0C03DD907D1F6112371
:102FC00069F0AAEFCA0ED11CE11CF11CC09279086D
:102FD000D0927A08E0927B08F0927C08DF91CF9142
:102FE0001F91FF90EF90DF90CF900895FB0141502B
:102FF0005109460F571FE417F50778F4208130E098
:10300000322F22276181260F311D820F931F8217D5
:10301000930708F401963296EECFE417F50751F4C2
:10302000208130E0322F2227820F931F82179307CF
:1030300008F40196089544E150E062EF79E080E001
:1030400090E0D4DF009709F099C88FEF9FEF0895C3
:103050000F931F93CF93DF938091F40990E0982F03
:1030600088272091F509820F911D8C0104511109C7
:1030700048E050E06EEF79E00E97B8DFC091120A99
:10308000C695C695CC73D0E0AE0166E07AE0AEDFBF
:10309000C017D10750F498012C1B3D0BAE014E5DBB
:1030A0005F4F609185080E94F208009729F0DF9138
:1030B000CF911F910F9162C88FEF9FEFDF91CF915A
:1030C0001F910F910895B7CF0F9300E020E040E0EB
:1030D00060E087E898E00E9441228DE798E00F9138
:1030E0000C9437220F9300E020E040E060E08DE890
:1030F00098E00E9441220F9108950F9300E020E094
:1031000040E060E083E998E00E9441220F91089539
:10311000FC0110820895CF92DF92EF92FF92CF933D
:10312000DF93EC016A017B018B859C85AD85BE85B3
:103130009A01AB01281B390B4A0B5B0BDA01C90161
:1031400049815A816B817C8184179507A607B7074F
:10315000D8F08881813019F0823029F00CC0E985DF
:10316000FA85199508C061E08885811160E068875B
:103170008F810E948F25CB86DC86ED86FE868F852B
:1031800098890196988B8F878D819E8197FD06C0C7
:103190002F853889281739070CF01882DF91CF91D5
:1031A000FF90EF90DF90CF9008950F931F93CF93F0
:1031B000DF93EC018C0106551F4FCE01A9DF61960C
:1031C000C017D107D1F7DF91CF911F910F910895CB
:1031D000CF92DF92EF92FF921F93CF93DF936A011A
:1031E0007B01EC011AE08881882321F0B701A60158
:1031F000CE0191DF115061961111F5CFDF91CF9182
:103200001F91FF90EF90DF90CF900895CF93DF93C1
:10321000EC010E949524AB01BC01CE01DF91CF915E
:10322000D7CF20E0FC013081332331F02F5F41966E
:103230002A30C1F78FEF0895822F0895CF92DF9241
:10324000EF92FF920F931F93CF93DF9300D01F92C3
:10325000CDB7DEB76C01790149835A836B837C83D8
:10326000E0DF282F49815A816B817C818F3FD9F023
:1032700081E12802C00CD11C112481E0F601808379
:10328000418352836383748316830583F286E186C8
:1032900029830E949524F601638774878587968722
:1032A000108A17862981822F0F900F900F900F9010
:1032B000DF91CF911F910F91FF90EF90DF90CF9012
:1032C00008950F931F930FEF1FEFB8DF1F910F911A
:1032D0000895FC0113861586148627E030E0DF018F
:1032E000A20FB31F13961C922115310519F021501E
:1032F0003109F5CF08951F93CF93DF93EC01162F7B
:1033000060E0812F0E945625612F70E0FB01E25A98
:10331000FE4FE491E883FB01EC55FE4FE491F0E0B1
:10332000EE0FFF1FE651FE4F859194919A8389839A
:10333000CE01DF91CF911F91CCCFCF92DF92EF9250
:10334000FF920F931F93CF93DF93EC018B010E94A9
:1033500095246B017C0188819981DC01ED91FC91C0
:103360000480F581E02D1995892B69F40E9495243C
:103370006C197D098E099F0968397A438105910589
:1033800050F380E00CC088819981DC01ED91FC91C3
:103390000680F781E02D1995F801808381E0DF91A7
:1033A000CF911F910F91FF90EF90DF90CF900895F4
:1033B0000F931F93CF93DF93EA0108811981600F68
:1033C000711FBBDF882331F00F5F1F4F1983088304
:1033D00081E001C080E0DF91CF911F910F910895AE
:1033E0003F924F925F926F927F928F929F92AF9295
:1033F000BF92CF92DF92EF92FF920F931F93CF93E2
:10340000DF9300D0CDB7DEB78C016B011A82198231
:103410005C0182E0A80EB11CAE014F5F5F4FB501A9
:10342000C801C6DF811103C080E090E0B9C0D801B7
:1034300012969C901B82E12CF12C412C512C3201D4
:103440004394BE016D5F7F4FC80177DF882361F32E
:1034500029813A81C90101969A8389836B81F80198
:10346000E20FF31F6283462F4F7750E0449D900197
:10347000459D300D549D300D1124E20EF31E97E052
:10348000440C551C661C771C9A95D1F767FDD9CF63
:10349000292D207F33243394203309F0312C81509F
:1034A000F6018083332031F1AE014F5F5F4FB501EC
:1034B000C8017EDF882309F4B7CFAE014F5F5F4FAD
:1034C000B501C80175DF882309F4AECFD6018C9110
:1034D000F801E80FF11D4380512C542C44248481C1
:1034E000480E511CF801828181FF08C0F2E04F0EA6
:1034F000511C04C080E0412C512C01C082E0A82E58
:10350000B12C612C712C480189E9880E911CC301F2
:103510008A0D9B1D8E159F0598F5BE016D5F7F4F2F
:10352000C8010BDF882309F47FCFD4018D919C91D2
:103530000097A9F0332099F029813A81225031096E
:10354000F6014081241B31094216530640F4DC0188
:10355000ED91FC910190F081E02D6B8119958981AD
:103560009A818038910528F42B81F801E80FF91F22
:10357000228301969A838983BFEF6B1A7B0AC7CF98
:10358000F801E756FF4F80819181892B39F48981B9
:103590009A818138910510F01A82198289819A8165
:1035A0000F900F900F90DF91CF911F910F91FF908F
:1035B000EF90DF90CF90BF90AF909F908F907F90D3
:1035C0006F905F904F903F900895AF92BF92CF92CF
:1035D000DF92EF92FF920F931F93CF93DF9300D070
:1035E0001F92CDB7DEB77C01F90180E09E2F9F7757
:1035F000EE0FEF2FEE1FFF0BF195309709F090685B
:10360000A1E0B0E0AC0FBD1FA80FB11D9C938F5F70
:10361000309761F7A82EB12CDA01AA19BB091496CC
:103620006C93BE016F5F7F4F80E090E04A195B09A9
:103630008A159B0554F4FB01D190BF018A01080F44
:10364000191FF801D5820196F3CFF701808191818E
:1036500089010F5F1F4F0A0D1B1DFC012081318165
:10366000F90122813381A801BD01F90119956C018D
:103670000E949524F701EC57FF4F6083718382838A
:10368000938381E0C016D10609F080E00F900F907F
:103690000F900F90DF91CF911F910F91FF90EF90BE
:1036A000DF90CF90BF90AF900895C9010296DB01E3
:1036B000FD01E61BF70B2D91222331F0FA01E80FF3
:1036C000F91F20830196F4CF9C012E1B3F0B240F82
:1036D000351FD9011297FC931196EC930895CF935F
:1036E000DF93EC0188819981009731F1DC01ED9144
:1036F000FC910488F589E02D199581111FC0FE0108
:10370000E556FF4F80819181892BB1F48DEF9FEFBA
:103710009183808388819981DC01ED91FC91028401
:10372000F385E02D199588819981DC01ED91FC915B
:103730000288F389E02D199580E001C081E0DF91D6
:10374000CF9108952F923F924F925F926F927F9206
:103750008F929F92AF92BF92CF92EF92FF920F9370
:103760001F93CF93DF93CDB7DEB72E970FB6F894A4
:10377000DEBF0FBECDBF4C011B012A013901AFDFF7
:10378000811113C1F401EB56FF4F60817181D401A7
:103790008D919C911197A956BF4FFC0120813181D9
:1037A0006115710541F04D915C91D9011E96ED9125
:1037B000FC911F971FC0F9010484F585E02DFE8759
:1037C000ED87ED91FC912FE235E03A832983D40116
:1037D000A157BF4F12964D915D916D917C911597B8
:1037E0004B835C836D837E83AF01BE016F5F7F4F30
:1037F000ED85FE851995F4018130910509F0CDC064
:10380000EE57FF4F9183808389E0EFE0F2E0DE0125
:10381000119601900D928A95E1F7FE01319680E0B4
:1038200090E02191D401A80FB91F17962C9301960F
:1038300089309105B1F70115110559F0F0E2CF9EDD
:10384000C0011124866028E0E29E700111248E29B7
:1038500001C082E04114510431F06114710411F48B
:10386000806801C0806CD40150968C93509751961B
:103870001C9251978FE052968C937401B2E0EB0E3C
:10388000F11C21E130E0A701B101C4010EDF0115F7
:10389000110551F09C01A701B801C40106DF9C018C
:1038A000A701B501C40101DF4114510469F09C0175
:1038B000A701B201C401F9DE6114710429F09C0171
:1038C000A701B301C401F1DE9C0125503109A70114
:1038D00060E1C4017ADE0E949524F401EC57FF4FA9
:1038E0006083718382839383840108571F4FF8019B
:1038F0006083718382839383F40180819181DC01F1
:10390000ED91FC910480F581E02D1995892BC1F48E
:103910000E949524D8014D905D906D907C90641923
:1039200075098609970968397A438105910520F35D
:10393000F401E556FF4F8CEF9FEF9183808322C007
:10394000BE01665F7F4FC4014BDD0497D9F4F401DB
:103950008581940125563F4F790181110FC0E5D72C
:10396000D8016D937D938D939C931397F401E45745
:10397000FF4F1082F7011182108217C090E0D90129
:103980008D939C93F40180819181DC01ED91FC91F8
:103990000288F389E02D199506C0E556FF4F8EEF9A
:1039A0009FEF9183808380E001C081E02E960FB667
:1039B000F894DEBF0FBECDBFDF91CF911F910F9165
:1039C000FF90EF90CF90BF90AF909F908F907F909F
:1039D0006F905F904F903F902F900895AF92BF925D
:1039E000CF92EF920F931F93A12CB12CC12CE12CFD
:1039F00000E010E0A7DE1F910F91EF90CF90BF90F5
:103A0000AF9008952F923F924F925F926F927F9264
:103A10008F929F92AF92BF92CF92DF92EF92FF92DE
:103A20000F931F93CF93DF9300D01F92CDB7DEB7D4
:103A30008C014DB65EB653DE882309F440C175D7BC
:103A40006B017C01580128E8A20EB11CF5018081B0
:103A50009181A281B381A7019601281B390B4A0BE2
:103A60005B0BDA01C90189399A43A105B10590F4CC
:103A7000349780819181A281B381A7019601281B8F
:103A8000390B4A0B5B0BDA01C90189399A43A1054D
:103A9000B105C0F148014CE8840E911CD4012C9171
:103AA000F80180819181222371F0E556FF4F2CEFC0
:103AB0003FEF31832083DC01ED91FC910288F38993
:103AC000E02D1995FCC020ECF80122831382DC0163
:103AD000ED91FC910280F381E02D42E050E0B801CD
:103AE0006E5F7F4F1995F801EC57FF4FC082D1826E
:103AF000E282F382F501C082D182E282F38281E028
:103B0000D4018C93F80180819181DC01ED91FC91CD
:103B10000480F581E02D1995892B09F4D2C0BE01EE
:103B20006F5F7F4FC8015CDCFC01009709F4C9C0DE
:103B3000D501CD92DD92ED92FC921397D8011296A9
:103B40008C91807F803309F09FC04801BDE88B0EC7
:103B5000911CD4018D919C91892B09F4B2C02DB692
:103B60003EB6698170E0D801A60FB71F13964C913D
:103B7000139750E0542F442714968C911497480FB4
:103B8000511DCA0101962DB73EB7281B390B0FB640
:103B9000F8943EBF0FBE2DBF8DB79EB701965C0156
:103BA00020E030E0BC83AB832417350769F06B80DD
:103BB0007C80620E731ED30115966C90D5016D92B8
:103BC0005D012F5F3F4FF0CFDC01A20FB31F1C92AE
:103BD000D8011296BC91B670BA83B230E9F53901BA
:103BE000660E771ED801A60DB71D1596AC901597D9
:103BF000B12CBA2CAA2416964C91A40EB11C4BEFF2
:103C00005FEF461B570B421B530B4E0F5F1FB30159
:103C1000695F7F4F600F711FD401ED91FC91199581
:103C200080E4F80182837A807382B482A582D8010D
:103C30008D919D91BD01DC01ED91FC910280F3819C
:103C4000E02D44E050E01995F801EC57FF4FC08299
:103C5000D182E282F38212C04DEF5FEF461B570B19
:103C6000421B530B4E0F5F1F620F731F6B5F7F4F23
:103C7000600F711FD401ED91FC9119950FB6F89466
:103C80003EBE0FBE2DBE1DC0803C91F480EDF801FC
:103C900082831382D8018D919D91BD01DC01ED914C
:103CA000FC910280F381E02D42E050E0199509C0BB
:103CB000803D39F4F801E457FF4F108202C080E0E4
:103CC00001C081E00FB6F8945EBE0FBE4DBE0F90EE
:103CD0000F900F900F90DF91CF911F910F91FF9058
:103CE000EF90DF90CF90BF90AF909F908F907F909C
:103CF0006F905F904F903F902F9008958F929F927A
:103D0000BF92CF92DF92EF92FF920F931F93CF93C8
:103D1000DF931F921F92CDB7DEB74C01B42E152F43
:103D2000790169837A83DBDC69817A81882309F4EC
:103D300044C0FB0101900020E9F73197E61BF70B27
:103D4000C70107968E0F9F1F81389105B0F564015A
:103D500082E0C80ED11C25E030E0A601C401A5DC3C
:103D6000EB2DF12F60E070E09401280F391F6E15E4
:103D70007F0549F04191D901A60FB71F12964C93C8
:103D80006F5F7F4FF4CF011102C060E301C061E3B8
:103D9000970125503109280F391FA601C4010F9042
:103DA0000F90DF91CF911F910F91FF90EF90DF90D7
:103DB000CF90BF909F908F9008CC80E00F900F9095
:103DC000DF91CF911F910F91FF90EF90DF90CF90F7
:103DD000BF909F908F9008950F93FA01019000205B
:103DE000E9F79F0121503109241B350B00E086DFE4
:103DF0000F910895CF92DF92FF920F931F93CF936D
:103E0000DF931F921F92CDB7DEB76C01F42E81E0D5
:103E1000841708F43EC0FB0101900020E9F7E61B7F
:103E2000F70B3896E138F105A0F5C60169837A836E
:103E300056DC69817A81882361F1F601EE57FF4FE4
:103E400080819181019611F481E090E091838083DB
:103E500080819181F6019783808786010E5F1F4FD5
:103E600027E030E0A801C60120DCF601E80FF91FC9
:103E7000F2829C0124503109A80162E8C6010F902A
:103E80000F90DF91CF911F910F91FF90DF90CF9016
:103E90009CCB80E00F900F90DF91CF911F910F91FD
:103EA000FF90DF90CF90089540E0A4CFCF92DF92B3
:103EB000EF92FF920F931F93CF93DF93CDB7DEB7AF
:103EC0002C970FB6F894DEBF0FBECDBF7C01FB016F
:103ED0006A010381228141816081CE010796D1D29E
:103EE00009851A852B853C85F701E157FF4F028331
:103EF0001383248335833896D182C082329711820E
:103F00001082C7012C960FB6F894DEBF0FBECDBF4E
:103F1000DF91CF911F910F91FF90EF90DF90CF90A5
:103F20000895CF92DF92EF92FF920F931F93CF935A
:103F3000DF9300D01F92CDB7DEB76C0179018157B6
:103F40009F4F4B835C8369837A8391D2F601E55658
:103F5000FF4F8FEF9FEF918380834B815C8169815D
:103F60007A81C601A3DFF601E357FF4FF182E082B9
:103F7000F60111830083E756FF4F118210820F90E4
:103F80000F900F900F90DF91CF911F910F91FF90A5
:103F9000EF90DF90CF9008950F9300E020E040E095
:103FA00060E089E998E06DD20F9108950895FC01D1
:103FB00086ED9FE1928B818B7683658314821082DC
:103FC00089E0818381E0828383830895FC01818D70
:103FD000228D90E0805C9F4F821B91098F739927FF
:103FE0000895FC01918D828D981731F0828DE80F34
:103FF000F11D858D90E008958FEF9FEF0895FC01EE
:10400000918D828D981761F0828DDF01A80FB11D0F
:104010005D968C91928D9F5F9F73928F90E0089533
:104020008FEF9FEF089584EB91E2892B39F080E0C8
:1040300090E0892B19F098D1811125C080E090E0A3
:10404000892B41F080E090E0892B21F00E94000054
:1040500081111CC080E090E0892B41F080E090E06D
:10406000892B21F00E940000811113C080E090E0B4
:10407000892BA1F080E090E0892B81F00E94000064
:1040800081110AC008950E940000D8CF0E9400004C
:10409000E1CF0E940000EACF0C9400000895FC01DB
:1040A000848DDF01A80FB11DA35ABF4F2C91848DC1
:1040B00090E001968F739927848FA689B7892C93F6
:1040C000A089B1898C9180648C93938D848D981391
:1040D00006C00288F389E02D80818F7D808308955A
:1040E000CF93DF93EC01888D8823C1F0EA89FB89A7
:1040F000808185FD05C0A889B9898C9186FD0EC097
:104100000FB607FCF5CF808185FFF2CFA889B9896A
:104110008C9185FFEDCFCE01C2DFE8CFDF91CF914B
:104120000895CF92DF92FF920F931F93CF93DF9367
:104130001F92CDB7DEB76C0181E0D60158968C9303
:1041400058975B969C915B975C968C915C979813C3
:1041500007C05096ED91FC915197808185FD2DC04F
:10416000F601038D10E00F5F1F4F0F731127F02E24
:10417000F601848DF81210C00FB607FCF9CFD601F6
:104180005096ED91FC915197808185FFF1CFC6014A
:10419000698385DF6981ECCF838DE80FF11DE35AD8
:1041A000FF4F6083D6015B960C935B975296ED911F
:1041B000FC915397808180620CC0D6015696ED9198
:1041C000FC91579760835096ED91FC9151978081B7
:1041D0008064808381E090E00F90DF91CF911F9108
:1041E0000F91FF90DF90CF900895BF92CF92DF9212
:1041F000EF92FF92CF93DF93EC016A017B01B22E25
:10420000E889F98982E08083411581EE58076105CC
:10421000710599F060E079E08DE390E0A7019601E7
:10422000FAD52150310941095109569547953795DD
:104230002795211580E1380790F0E889F9891082E7
:1042400060E874E88EE190E0A7019601E4D5215082
:104250003109410951095695479537952795EC85C0
:10426000FD853083EE85FF852083188EEC89FD89DE
:10427000B082EA89FB89808180618083EA89FB8939
:10428000808188608083EA89FB898081806880835F
:10429000EA89FB8980818F7D8083DF91CF91FF90B8
:1042A000EF90DF90CF90BF9008951F920F920FB6BE
:1042B0000F9211240BB60F922F938F939F93EF932E
:1042C000FF93E091AF08F091B0088081E091B508CC
:1042D000F091B60882FD12C090818091B8088F5F7E
:1042E0008F732091B908821751F0E091B808F0E07F
:1042F000E156F74F958F8093B80801C08081FF91F8
:10430000EF919F918F912F910F900BBE0F900FBE49
:104310000F901F9018951F920F920FB60F921124B5
:104320000BB60F922F933F934F935F936F937F93AF
:104330008F939F93AF93BF93EF93FF938FE998E091
:10434000AEDEFF91EF91BF91AF919F918F917F91E1
:104350006F915F914F913F912F910F900BBE0F90F6
:104360000FBE0F901F9018958FE998E02FDE21E087
:10437000892B09F420E0822F08951092A208109250
:10438000A10888EE93E0A0E0B0E08093A3089093AA
:10439000A408A093A508B093A6088FE195E0909398
:1043A000A00880939F0885EC90E09093AC088093E0
:1043B000AB0884EC90E09093AE088093AD0880EC5D
:1043C00090E09093B0088093AF0881EC90E09093D8
:1043D000B2088093B10882EC90E09093B408809387
:1043E000B30886EC90E09093B6088093B5081092DD
:1043F000B8081092B9081092BA081092BB08089534
:10440000AF92BF92CF92DF92EF92FF920F931F93E2
:10441000CF93DF936C017B01C0E0D0E000E010E0BF
:10442000F601EC0FFD1F4AE050E06281C70164D144
:104430005C016EE2C7017FD08A0D9B1D080F191F1A
:104440002196C330D10561F74AE050E0F60165815D
:10445000C70152D1800F911FDF91CF911F910F9112
:10446000FF90EF90DF90CF90BF90AF9008952FE234
:1044700035E0FC013183208312821382148215827D
:1044800008950F93FC018FE295E09183808362830E
:104490004383248305830F9108958FE295E09093E1
:1044A0003D0980933C0910923E0910923F091092F9
:1044B0004009109241090895CF92DF92EF92FF9246
:1044C0000F931F93CF93DF936C017A01EB01E60EFC
:1044D000F71E00E010E0CE15DF0561F06991D6010E
:1044E000ED91FC910190F081E02DC6011995080F26
:1044F000191FF1CFC801DF91CF911F910F91FF904C
:10450000EF90DF90CF9008956115710581F0DB0188
:104510000D900020E9F7AD0141505109461B570BA2
:10452000DC01ED91FC910280F381E02D199480E093
:1045300090E00895E9CFDC01ED91FC910190F081CC
:10454000E02D199461E375E0DFCF0F931F93CF93B4
:10455000DF93EC01D9DF8C01CE01F4DF800F911FD6
:10456000DF91CF911F910F9108958F929F92AF92FB
:10457000BF92CF92DF92EF92FF920F931F93CF9350
:10458000DF93CDB7DEB7A1970FB6F894DEBF0FBEAD
:10459000CDBF7C01C42EE52FCB01D22E19A221E084
:1045A0002D1510F02AE0D22E8E010F5D1F4F8D2C9D
:1045B000912CA12CB12C6C2D7E2FA50194012BD414
:1045C0008C2DD29E80191124015011098A3014F4C7
:1045D000805D01C0895CF8018083211531054105AA
:1045E000510521F0C22EE32FCA01E5CFB801C70162
:1045F0008BDFA1960FB6F894DEBF0FBECDBFDF9163
:10460000CF911F910F91FF90EF90DF90CF90BF90CF
:10461000AF909F908F900895CF92DF92EF92FF928C
:104620000F931F93CF93DF93EC016A017B01211558
:10463000310579F4E881F9810190F081E02D642F52
:10464000DF91CF911F910F91FF90EF90DF90CF906E
:1046500019942A303105D9F477FF18C06DE26BDF69
:104660008C0144275527BA014C195D096E097F0951
:104670002AE0CE017ADF800F911FDF91CF911F9149
:104680000F91FF90EF90DF90CF9008952AE0B7014F
:10469000A601CE01DF91CF911F910F91FF90EF9076
:1046A000DF90CF9062CF9A01AB01662757FD6095EE
:1046B000762FB2CF0F931F93CF93DF93EC019A0124
:1046C000AB01662757FD6095762FA6DF8C01CE01E2
:1046D00039DF800F911FDF91CF911F910F910895C6
:1046E0002115310541F4DC01ED91FC910190F0813F
:1046F000E02D642F199439CF9A01462F50E060E0E5
:1047000070E0EECFCF93DF9300D01F92CDB7DEB72E
:104710009B01AC01611571058105910559F0698313
:104720003A834B835C8349D529813A814B815C81F3
:1047300094D303C060E070E0CB010F900F900F9016
:104740000F90DF91CF910895CF92DF92EF92FF9279
:104750006B017C0162177307840795075CF4CA013B
:10476000B9016C197D098E099F09CCDF6C0D7D1D87
:104770008E1D9F1DFF90EF90DF90CF900895FC015C
:104780008081918141C4CF93DF93EC01888199812D
:10479000009709F039D4198218821D821C821B826D
:1047A0001A82DF91CF9108950F931F93CF93DF93D8
:1047B000EC018B016F5F7F4F888199810AD500974B
:1047C00031F0998388831B830A8381E001C080E0F4
:1047D000DF91CF911F910F910895CF93DF93EC015B
:1047E00088819981892B29F08A819B818617970777
:1047F00058F4CE01D9DF882341F08C819D81892B2B
:1048000019F4E881F981108281E0DF91CF91089558
:10481000EF92FF920F931F93CF93DF93EC017B01F5
:104820008A01BA01DADF811103C0CE01ACDF06C014
:104830001D830C83B70188819981E9D5CE01DF9171
:10484000CF911F910F91FF90EF900895FC0111827D
:10485000108213821282158214826115710551F043
:10486000FB0101900020E9F7AF0141505109461BBF
:10487000570BCECF089591D5089563D0FDDF0E94E8
:104880007E01C3E1D0E20E9497012097E1F3CBDBE8
:10489000FACF22C3B9C31F920F920FB60F92112401
:1048A0002F933F938F939F93AF93BF93809143092F
:1048B00090914409A0914509B0914609309142096F
:1048C00023E0230F2D3720F40196A11DB11D05C053
:1048D00026E8230F0296A11DB11D20934209809363
:1048E000430990934409A0934509B09346098091E8
:1048F000470990914809A0914909B0914A09019648
:10490000A11DB11D8093470990934809A0934909BF
:10491000B0934A09BF91AF919F918F913F912F9191
:104920000F900FBE0F901F9018952FB7F8946091BD
:1049300043097091440980914509909146092FBF20
:104940000895789484B5826084BD84B5816084BD07
:1049500085B5826085BD85B5816085BDEEE6F0E0F8
:10496000808181608083E1E8F0E010828081826054
:104970008083808181608083E0E8F0E080818160D5
:104980008083E1EBF0E0808184608083E0EBF0E005
:10499000808181608083E1E9F0E0808182608083B2
:1049A000808181608083E0E9F0E0808181608083A4
:1049B000E1EAF0E080818260808380818160808391
:1049C000E0EAF0E0808181608083E1E2F1E08081D3
:1049D00082608083808181608083E0E2F1E0808179
:1049E00081608083EAE7F0E0808184608083808159
:1049F0008260808380818160808380818068808301
:104A00001092C100089590E0FC013197E231F10568
:104A100008F04BC0E658FF4F3CC2809180008F7772
:104A200003C0809180008F7D8093800008958091E5
:104A30008000877FF9CF84B58F7702C084B58F7DE2
:104A400084BD08958091B0008F7703C08091B0003D
:104A50008F7D8093B0000895809190008F7707C07C
:104A6000809190008F7D03C080919000877F80931C
:104A7000900008958091A0008F7707C08091A000DA
:104A80008F7D03C08091A000877F8093A000089550
:104A9000809120018F7707C0809120018F7D03C016
:104AA00080912001877F809320010895CF93DF9329
:104AB00090E0FC01E25AFE4F2491FC01EC55FE4FC0
:104AC0008491882349F190E0880F991FFC01E25EF0
:104AD000FD4FA591B4918C5F9D4FFC01C591D49180
:104AE0009FB7611108C0F8948C91209582238C9314
:104AF000888182230AC0623051F4F8948C91322F5D
:104B0000309583238C938881822B888304C0F8940A
:104B10008C91822B8C939FBFDF91CF9108950F933F
:104B20001F93CF93DF931F92CDB7DEB7282F30E0CE
:104B3000F901E85EFE4F8491F901E25AFE4F1491AB
:104B4000F901EC55FE4F04910023C1F0882319F0C0
:104B5000698359DF6981E02FF0E0EE0FFF1FEC5F02
:104B6000FD4FA591B4919FB7F8948C91611103C04A
:104B70001095812301C0812B8C939FBF0F90DF91F3
:104B8000CF911F910F910895CF93DF93282F30E09D
:104B9000F901E85EFE4F8491F901E25AFE4FD4918B
:104BA000F901EC55FE4FC491CC2389F081112BDF24
:104BB000EC2FF0E0EE0FFF1FE651FE4FA591B491F0
:104BC0002C912D2381E090E021F480E002C080E070
:104BD00090E0DF91CF9108955058BB27AA270ED0BF
:104BE000DCC0CDD030F0D2D020F031F49F3F11F4B2
:104BF0001EF4C2C00EF4E095E7FBB8C0E92FDED08A
:104C000080F3BA17620773078407950718F071F4E9
:104C10009EF5F6C00EF4E0950B2EBA2FA02D0B01D9
:104C2000B90190010C01CA01A0011124FF27591BF1
:104C300099F0593F50F4503E68F11A16F040A22FF7
:104C4000232F342F4427585FF3CF46953795279568
:104C5000A795F0405395C9F77EF41F16BA0B620B67
:104C6000730B840BBAF09150A1F0FF0FBB1F661FAE
:104C7000771F881FC2F70EC0BA0F621F731F841FF1
:104C800048F4879577956795B795F7959E3F08F017
:104C9000B3CF9395880F08F09927EE0F97958795D6
:104CA000089540D008F481E00895E89409C097FB86
:104CB0003EF490958095709561957F4F8F4F9F4FF3
:104CC0009923A9F0F92F96E9BB279395F695879537
:104CD00077956795B795F111F8CFFAF4BB0F11F4FA
:104CE00060FF1BC06F5F7F4F8F4F9F4F16C08823A1
:104CF00011F096E911C0772321F09EE8872F762FD7
:104D000005C0662371F096E8862F70E060E02AF017
:104D10009A95660F771F881FDAF7880F9695879503
:104D200097F90895990F0008550FAA0BE0E8FEEFD8
:104D300016161706E807F907C0F012161306E4075F
:104D4000F50798F0621B730B840B950B39F40A2658
:104D500061F0232B242B252B21F408950A2609F436
:104D6000A140A6958FEF811D811D089597F99F673A
:104D700080E870E060E008959FEF80EC08950024E3
:104D80000A941616170618060906089500240A94B0
:104D900012161306140605060895092E0394000C36
:104DA00011F4882352F0BB0F40F4BF2B11F460FFC5
:104DB00004C06F5F7F4F8F4F9F4F089557FD9058EE
:104DC000440F551F59F05F3F71F04795880F97FBCF
:104DD000991F61F09F3F79F0879508951216130689
:104DE0001406551FF2CF4695F1DF08C016161706B8
:104DF0001806991FF1CF86957105610508940895ED
:104E0000E894BB2766277727CB0197F908958ADFB7
:104E100008F48FEF0895A1E21A2EAA1BBB1BFD0117
:104E20000DC0AA1FBB1FEE1FFF1FA217B307E40789
:104E3000F50720F0A21BB30BE40BF50B661F771FE1
:104E4000881F991F1A9469F76095709580959095C1
:104E50009B01AC01BD01CF010895052E97FB16F40F
:104E600000940FD057FD05D0D6DF07FC02D046F4E2
:104E700008C050954095309521953F4F4F4F5F4F5B
:104E8000089590958095709561957F4F8F4F9F4FB6
:104E90000895EE0FFF1F0590F491E02D19940DD0A9
:104EA000A59F900DB49F900DA49F800D911D11247E
:104EB00008950790F691E02D1994A29FB001B39F39
:104EC000C001A39F700D811D1124911DB29F700D13
:104ED000811D1124911D0895CF93DF938230910598
:104EE00010F482E090E0E0914C0AF0914D0A20E04D
:104EF00030E0A0E0B0E0309739F1408151814817AF
:104F00005907B8F04817590771F4828193811097B7
:104F100029F013969C938E9312972CC090934D0A70
:104F200080934C0A27C02115310531F042175307F1
:104F300018F0A901DB0101C0EF019A01BD01DF01F9
:104F40000280F381E02DD7CF21153105F9F0281B20
:104F5000390B2430310580F48A819B8161157105FC
:104F600021F0FB019383828304C090934D0A8093C8
:104F70004C0AFE01329644C0FE01E20FF31F8193FA
:104F8000919322503109398328833AC020914A0AEB
:104F900030914B0A232B41F42091020230910302FD
:104FA00030934B0A20934A0A20910002309101026B
:104FB0002115310541F42DB73EB7409104025091BF
:104FC0000502241B350BE0914A0AF0914B0AE217C7
:104FD000F307A0F42E1B3F0B2817390778F0AC011C
:104FE0004E5F5F4F2417350748F04E0F5F1F5093F9
:104FF0004B0A40934A0A8193919302C0E0E0F0E0AB
:10500000CF01DF91CF910895CF93DF93009709F4FB
:1050100087C0FC01329713821282C0914C0AD09152
:105020004D0A209781F420813181280F391F80910A
:105030004A0A90914B0A8217930779F5F0934B0A2D
:10504000E0934A0A6DC0DE0120E030E0AE17BF07F2
:1050500050F412964D915C9113979D0141155105A5
:1050600009F1DA01F3CFB383A28340815181840F28
:10507000951F8A179B0771F48D919C911197840F4E
:10508000951F02969183808312968D919C91139720
:10509000938382832115310529F4F0934D0AE0931F
:1050A0004C0A3EC0D9011396FC93EE9312974D9192
:1050B0005D91A40FB51FEA17FB0779F480819181F8
:1050C000840F951F0296D90111969C938E9382812D
:1050D000938113969C938E931297E0E0F0E08A817F
:1050E0009B81009719F0FE01EC01F9CFCE010296E9
:1050F00028813981820F931F20914A0A30914B0AEF
:105100002817390769F4309729F410924D0A109244
:105110004C0A02C013821282D0934B0AC0934A0AEF
:10512000DF91CF9108958F929F92AF92BF92CF92CD
:10513000DF92EF92FF92CF93DF93EC016881798148
:105140008A819B81611571058105910521F464E2D5
:1051500079ED8BE597E02DE133EF41E050E07DDE26
:1051600049015A019B01AC01A7EAB1E498DE6B0149
:105170007C01ACEEB4EFA50194015AD1C60ED71E46
:10518000E81EF91EF7FE06C081E0C81AD108E10842
:1051900080E8F80AC882D982EA82FB82C701B60198
:1051A0009F77DF91CF91FF90EF90DF90CF90BF90EE
:1051B000AF909F908F900895B6CF86E092E0B3CFE6
:1051C000609306027093070280930802909309028D
:1051D00008956F927F928F929F92AF92BF92CF92DB
:1051E000DF92EF92FF920F931F93CF93DF93EC0127
:1051F000CB01209779F4DF91CF911F910F91FF9010
:10520000EF90DF90CF90BF90AF909F908F907F9066
:105210006F9062CEFE01E60FF71F9E01225031090A
:10522000E217F30708F4A8C0D9010D911C9111975A
:1052300006171707B0F00530110508F49BC0A80148
:10524000445051094617570708F494C002501109F9
:10525000061B170B019311936D937C93CF01D4DE42
:1052600089C05B01A01AB10A4E01800E911EA09167
:105270004C0AB0914D0A612C712C60E070E01097DF
:1052800009F449C0A815B905C9F5ED90FC9011972E
:10529000670142E0C40ED11CCA14DB0478F1470157
:1052A0008A189B08640142E0C40ED11C1296BC907F
:1052B00012971396AC91B5E0CB16D10440F0B282B0
:1052C000A38391828082D9018D939C9309C00E5F44
:1052D0001F4F0E0D1F1DF90111830083EB2DFA2FB7
:1052E0006115710531F0DB011396FC93EE93129773
:1052F00041C0F0934D0AE0934C0A3CC06D917C9103
:1053000011976616770608F43B01BD0112960D90C1
:10531000BC91A02DB4CF60914A0A70914B0A6815D8
:105320007905E9F468167906D0F4409100025091AD
:1053300001024115510541F44DB75EB76091040279
:1053400070910502461B570BE417F507A8F4F0937C
:105350004B0AE0934A0AF901918380830BC0BCDDBC
:105360007C01009749F0A801BE0138D0CE014CDE87
:10537000C70104C0CE0102C080E090E0DF91CF9170
:105380001F910F91FF90EF90DF90CF90BF90AF9063
:105390009F908F907F906F90089581E090E0F894B7
:1053A0004BC0FC0188279927E89421912032E9F32A
:1053B000293010F02E30C8F32B3239F02D3231F471
:1053C000689403C02BD0820F911D219120532A3065
:1053D000C8F31EF4909581959F4F0895FB01DC0161
:1053E00002C001900D9241505040D8F70895DC0161
:1053F00001C06D9341505040E0F70895FB01DC017E
:105400008D91019080190110D9F3990B0895FB013A
:10541000DC0101900D920020E1F708957AE0979F5A
:10542000902D879F802D910D11240895B7FF37CDC2
:1054300036DD821B930B089512E0C2E5D2E000E056
:1054400005C022970109FE010BBF33DDC435D1072A
:0A54500080E00807B1F7F894FFCFE1
:10545A0000004E0A800001000000C0A8FE1EFF00E6
:10546A00064D5149736470034B6964732062656425
:10547A00726F6F6D00686F6D652F666C6F6F723239
:10548A002F6B6964732F74656D70657261747572C0
:10549A00652F3100686F6D652F666C6F6F72322FE2
:1054AA006B6964732F7261646961746F722F310062
:1054BA00686F6D652F666C6F6F72322F6B696473DC
:1054CA002F7261646961746F722F3200686F6D6543
:1054DA002F666C6F6F72322F636F727269646F72AC
:1054EA002F7261646961746F722F3100686F6D6524
:1054FA002F666C6F6F72322F636F727269646F728C
:10550A002F7261646961746F722F3200686F6D6502
:10551A002F666C6F6F72322F626967626174682FCF
:10552A007261646961746F722F3100686F6D652FE3
:10553A00666C6F6F72322F626967626174682F726C
:10554A0061646961746F722F3200686F6D652F66CE
:10555A006C6F6F72322F626564726F6F6D2F72613A
:10556A00646961746F722F3100686F6D652F666CA4
:10557A006F6F72322F77617264726F62652F726118
:10558A00646961746F722F3100686F6D652F666C84
:10559A006F6F72322F626564726F6F6D62617468C9
:1055AA002F7261646961746F722F31004D71547486
:1055BA0055736572006D7174747573657200486510
:1055CA006174696E67436F6E74726F6C2D464C32EC
:1055DA0000686F6D652F666C6F6F72322F6265643B
:1055EA00726F6F6D626174682F68756D6964697432
:1055FA00792F310000000000A602C702D0025570C0
:10560A006461746520646573697265642074656D8C
:10561A007065726174757265004E6F206D61746396
:10562A0068696E672072756C652E284865617469B1
:10563A006E67416461707465723A3A757064617438
:10564A00654465736972656454656D7065726174E9
:10565A0075726529005570646174696E6720746596
:10566A006D706572617475726500557064617469F4
:10567A006E672068756D69646974790044454641AE
:10568A00554C542072657475726E696E670000001D
:10569A0000005E037203000000007A0480044F4E8B
:1056AA00004F46460053657474696E672070696ED0
:1056BA00200020746F20000000000096049C04441F
:1056CA0065636973696F6E2066616E3A004465634B
:1056DA006973696F6E2068656174696E673A005410
:1056EA00656D70657261747572652073656E736F2E
:1056FA00723A0048756D69646974792073656E73CE
:10570A006F723A00446573697265642074656D70DE
:10571A00657261747572652E004465736972656499
:10572A002068756D69646974792E000000000006AE
:10573A000615063B24000000001E06240600000091
:10574A000033063906FFFFFFFFFFFF000000000BD2
:10575A00151E15641478130614E115A91352133A89
:10576A0015C61555139413661348130000000091CB
:10577A00205C22E61FFF1FF11F70200000000000BE
:10578A00220D0A006E616E00696E66006F76660011
:00000001FF
