:1000000029C1000058C1000056C1000054C10000C1
:1000100052C1000050C100004EC100004CC10000A0
:100020004AC1000048C1000046C1000044C10000B0
:1000300042C1000040C100003EC100003CC10000C0
:100040003AC1000038C1000036C1000034C10000D0
:1000500032C1000030C100002EC100000C94FA1C17
:100060002AC100000C94D9190C940F1A24C1000065
:1000700022C1000020C100001EC100001CC1000000
:100080001AC1000018C1000016C1000014C1000010
:1000900012C1000010C100000EC100000CC1000020
:1000A0000AC1000008C1000006C1000004C1000030
:1000B00002C1000000C10000FEC00000FCC0000042
:1000C000FAC00000F8C00000F6C00000F4C0000054
:1000D000F2C00000F0C00000EEC00000ECC0000064
:1000E000EAC00000080D1F0D9C0D860EA50EC20E65
:1000F000CA0E7C0ECA1DCD1DBC1DC01DC61D041E12
:10010000D11DD51DDB1DDF1DE31DE91DED1DF11DFD
:10011000041EF71DFB1DFF1D00000A0B02090C0D3C
:100120000E080703040100000000000000000000AA
:1001300000000000000000000000000000000000BF
:10014000000000001211100000000000000000007C
:10015000000000000000000000000000000001029C
:1001600010202008081020401020408002010201C9
:100170000804020101020408102040808040201081
:1001800008040201800402018040201008040201DA
:100190000804020101020408102040800102040842
:1001A000102040800505050507050808080802021B
:1001B00002020A0A08080404040401010101010101
:1001C00001010303030303030303040707070C0CE4
:1001D0000C0C0C0C0C0C02020202060606060606AB
:1001E00006060B0B0B0B0B0B0B0B00002000230068
:1001F000260029002C002F0032000001000003011E
:100200000601090100002200250028002B002E0015
:100210003100340002010000050108010B0100005B
:100220002100240027002A002D00300033000101A6
:100230000000040107010A01F5018D023E03A90433
:10024000E011EB11AD1510171C1726176018411A95
:10025000D11A3A0211241FBECFEFD1E2DEBFCDBFCB
:1002600000E00CBF13E0A0E0B2E0ECE5F5E400E054
:100270000BBF02C007900D92A634B107D9F728E052
:10028000A6E4B3E001C01D92AA35B207E1F712E07F
:10029000C2E5D2E000E006C022970109FE010BBFD3
:1002A0000E940820C833D10780E00807A9F70E9400
:1002B000EC1C0C949D22A4CE86E493E00C94AD1724
:1002C0008F929F92AF92BF92CF92DF92EF92FF9266
:1002D00029E130E040E050E064E170E080E090E04F
:1002E0000E94361C6B017C016BE072E08BEA96E0A9
:1002F0000E942C1B4AE050E0B6018BEA96E00E9477
:10030000EC1B26E430E040E050E06CE370E080E07D
:1003100090E00E94361C4B015C0167E272E08BEAC0
:1003200096E00E942C1B4AE050E0B4018BEA96E074
:100330000E94EC1BA401B60180EF93E0F0D223E20F
:1003400030E040E050E06FE070E080E090E00E943C
:10035000361C6B017C0160E472E08BEA96E00E943F
:100360002C1B4AE050E0B6018BEA96E00E94EC1BA1
:1003700024E630E040E050E068E270E080E090E0A9
:100380000E94361C4B015C016BE572E08BEA96E043
:100390000E942C1B4AE050E0B4018BEA96E00E94D8
:1003A000EC1BA401B60180EF93E096D280EF93E0BE
:1003B000FF90EF90DF90CF90BF90AF909F908F9085
:1003C00001C126E040E052EC61E070E08BEA96E08B
:1003D0000E94791920E631E040E355E760E070E0E3
:1003E00086E493E00E9406186BCF0F931F93CF9380
:1003F000DF9300D000D0CDB7DEB700E020E040E0D2
:1004000060E081ED94E00E94C51A05E22EEF48EA13
:1004100060EC8BEC94E00E94C51A8DEB94E00E9496
:10042000E1120EE12EEF48EA60ECCE0101960E9447
:10043000C51A0DEB14E02DE332E04BE557E0BE01A9
:100440006F5F7F4F80E294E00E940E1860E274E0DC
:1004500080EF93E0DFD086E493E00E947C1726963D
:100460000FB6F894DEBF0FBECDBFDF91CF911F91C5
:100470000F91089580EF93E05BC00F931F93CF938C
:10048000DF93CDB7DEB7A2970FB6F894DEBF0FBEED
:10049000CDBF8C01DB01FE013196BF01CF01861B70
:1004A000970B4817590718F08D918193F7CFFB01EF
:1004B000E40FF51F1082CE014D960E94B81CB801C2
:1004C000CE0147960E94B81CBE01635E7F4FCE01ED
:1004D0000B960E94E21CBE01695E7F4FCE014196E1
:1004E0000E94E21CCE0141960E94511CCE010B9647
:1004F0000E94511CCE0147960E94511CCE014D9680
:100500000E94511CA2960FB6F894DEBF0FBECDBF5D
:10051000DF91CF911F910F9108950F9300E020E09C
:1005200040E060E087ED94E00E94C51A0F910895C5
:10053000EF92FF920F931F93CF93DF93EC018FEA1B
:1005400092E0998388838E8D9F8D009739F0DC012E
:10055000ED91FC910280F381E02D199588A199A17C
:10056000009739F0DC01ED91FC910280F381E02DE0
:1005700019958E010C5D1F4FA1F0C8010E94511CFE
:10058000C8010E94F91C7E01B0E3EB0EF11CE016DD
:10059000F10639F086E0E81AF108C7010E94511C03
:1005A000F6CFCE01DF91CF911F910F91FF90EF9089
:1005B000DBC1CF93DF93EC01BBDFCE01DF91CF91A5
:1005C0000C94F91CCF93DF93EC01BDD1882321F06B
:1005D000CE01B6D1811106C060E08E8D9F8D8ED088
:1005E00060E005C061E08E8D9F8D88D061E088A1BC
:1005F00099A184D0BE016C5D7F4F8BEA96E00E948A
:10060000371BBE01665D7F4F8BEA96E0DF91CF918D
:100610000C94371B0F931F93CF93DF93EC01B3D050
:100620008FEA92E09983888363E772E0CE01849633
:100630000E94B81C6FE872E0CE018A960E94B81C36
:1006400061E0CE0183D185E090E00E94F81C8C012E
:1006500040E06EE170E046D01F8F0E8F85E090E0A5
:100660000E94F81C8C0140E06FE170E03BD019A3C0
:1006700008A3DF91CF911F910F9108950F9300E090
:1006800020E040E060E08DED94E00E94C51A0F91FB
:10069000089529EB32E0FC01318320837DC1CF93A3
:1006A000DF93EC01F6DFCE01DF91CF910C94F91CC2
:1006B000CF93DF93EC0160E070E07BD189EB92E0B7
:1006C00099838883DF91CF9108952AED32E0FC0170
:1006D0003183208308952AED32E0FC0131832083A9
:1006E0000C94F91CFC01862F2AED32E03183208323
:1006F00062837383448361E00C94051EEF92FF9242
:100700000F931F93CF93DF931F92CDB7DEB77C017A
:10071000FC016483828169830E94731E6981062FB4
:1007200010E08017910739F1F70182810E943E1E87
:1007300064EC72E08BEA96E00E942C1BF701628168
:1007400073814AE050E08BEA96E00E94E51B61ED80
:1007500072E08BEA96E00E942C1B4AE050E0B80160
:100760008BEA96E00F90DF91CF911F910F91FF9050
:10077000EF900C94EC1B0F90DF91CF911F910F9194
:10078000FF90EF9008950F931F93CF93DF93EC01A9
:100790008B0182EE92E099838883CE01069620D168
:1007A000CE01419685DF1B830A8389E190E09D831A
:1007B0008C831E8681E490E0988B8F87198E1A8E29
:1007C0001B8E1C8E1D8EDF91CF911F910F9108956E
:1007D0008F929F92AF92BF92CF92DF92EF92FF9251
:1007E000CF93DF93EC018B889C88AD88BE888B8D7E
:1007F000882321F16F857889882777FD8095982F48
:100800000E94061F6B017C01A50194010E94B61F86
:1008100087FD02C0198E12C020E030E040E85FE39F
:10082000C501B4010E949B1E9B01AC01C701B6012A
:100830000E94001F181614F081E0898F898DDF91C6
:10084000CF91FF90EF90DF90CF90BF90AF909F90AF
:100850008F9008958F929F92AF92BF92CF92DF9226
:10086000EF92FF92CF93DF93EC0188849984AA845E
:10087000BB848A8D882321F16C817D81882777FD57
:100880008095982F0E94061F6B017C01A5019401A1
:100890000E94B61F87FD03C081E08E8711C020E053
:1008A00030E040E85FE3C501B4010E949B1E9B015C
:1008B000AC01C701B6010E94001F18160CF01E867D
:1008C0008E85DF91CF91FF90EF90DF90CF90BF901A
:1008D000AF909F908F9008950F931F93CF93DF93C6
:1008E000EC018A01882777FD8095982F0E94061FCA
:1008F000688779878A879B87CE01ACDFB801882714
:1009000077FD8095982F0E94061F6B8B7C8B8D8BBB
:100910009E8BCE01DF91CF911F910F9159CF0F93F5
:100920001F93CF93DF93EC018A017D836C8392DF69
:10093000188B0F87CE01DF91CF911F910F9148CF78
:10094000FC0186850895FC01828D0895FC01628F6B
:1009500008950F9300E020E040E060E083EE94E033
:100960000E94C51A0F910895CF93DF93EC0182EE98
:1009700092E099838883CE0141968BDECE01069664
:10098000DF91CF911EC0CF93DF93EC01EDDFCE015D
:10099000DF91CF910C94F91C2CEE32E0FC013183F5
:1009A000208308952CEE32E0FC01318320830C94E7
:1009B000F91C2CEE32E0FC013183208377836683BF
:1009C000089524EF32E0FC0131832083E5CFCF93FB
:1009D000DF93EC01F6DFCE01DF91CF910C94F91C8F
:1009E000CF93DF93EC0161E070E0E3DF84EF92E00E
:1009F00099838883DF91CF910895882381F08F3F79
:100A000029F48091EB049091EC04089595E0899F7E
:100A1000F0011124E051FB4F82819381089580E021
:100A200090E00895CF93DF93D82FC62F60E085E341
:100A30000E943E1E9C2F9F719D2B9EBD0DB407FEF4
:100A4000FDCF1EBC0DB407FEFDCFC7FD08C061E0A1
:100A500085E30E943E1E8EB5DF91CF9108951EBCA6
:100A60000DB407FEFDCFF3CF0F931F93CF93DF930A
:100A70001F92CDB7DEB7182F062F60E085E34983BC
:100A80000E943E1E602F6F71612B6EBD49810DB4B7
:100A900007FEFDCF4EBD0DB407FEFDCF61E085E33F
:100AA0000F90DF91CF911F910F910C943E1E0F93E9
:100AB0001F93CF93DF938C01EB0160E085E30E94ED
:100AC0003E1E8AE38EBD0DB407FEFDCF0C0F1D1F29
:100AD000C017D10739F01EBC0DB407FEFDCF8EB58F
:100AE0008993F6CF61E085E3DF91CF911F910F915C
:100AF0000C943E1E0F931F93CF93DF938C01EB0159
:100B000060E085E30E943E1E8AE78EBD0DB407FEBD
:100B1000FDCF0C0F1D1FC017D10731F089918EBD7D
:100B20000DB407FEFDCFF7CF61E085E3DF91CF91F4
:100B30001F910F910C943E1E1F93CF93DF93182F9C
:100B40001076C12FD0E020910A0230E0C217D307FF
:100B500079F043E06FE180EA87DFAE0185E05595EB
:100B600047958A95E1F76FE180E87EDF10930A02EE
:100B7000DF91CF911F910895CF93DF931F92CDB74F
:100B8000DEB7682F6983D8DF698180E00F90DF913D
:100B9000CF9148CF1F93CF93DF931F921F92CDB772
:100BA000DEB7182F69837A83C7DF4981612F80E41C
:100BB0005BDF61E0610F7A81472F80E40F900F9037
:100BC000DF91CF911F9150CF6091EE047091EF04AF
:100BD0006115710519F06150710902C06FEF77E07E
:100BE0008CE0D8CFF1CFFF920F931F93CF93DF9379
:100BF00089E3C2DF882309F444C06091EE04709158
:100C0000EF04EB012696C11588E0D80710F0CF5FFE
:100C1000D74080E0BFDF60E08AE304DF90E090939C
:100C2000EF048093EE0460E08AE3FCDE2091EE04A2
:100C30003091EF04382B3093EF042093EE0460E002
:100C40008AE3F0DE082F60E08AE3ECDE182F60E034
:100C50008AE3E8DEF82E40E46EE180E805DFF7FE87
:100C60000FC0D093EA04C093E904202F30E0312B69
:100C7000245031093093EC042093EB048FEF02C031
:100C8000A3DF80E0DF91CF911F910F91FF90089536
:100C9000EF92FF920F931F93CF93DF938B017A0113
:100CA0008F3FC1F025E0829FE0011124C051DB4F4E
:100CB00002C0C9EED4E068817981600F711F80E0C5
:100CC00069DF8A819B81801B910BE816F90690F4FD
:100CD000C70110C08091E9049091EA04860F971F24
:100CE000811528E0920728F3BC016F5F7740C9EEB9
:100CF000D4E0E5CFDF91CF911F910F91FF90EF905E
:100D000008950F931F93CF93DF938A01A901C0DF4A
:100D1000EC01B801CCDECE01DF91CF911F910F9194
:100D20000895CF92DF92EF92FF920F931F93CF938C
:100D3000DF938B016A01790195E0899FE00111241D
:100D4000C051DB4F68817981600F711F82E022DF23
:100D50000A80DB81C02DC01BD10BEC16FD0608F408
:100D6000E701B601CE01C6DECE01DF91CF911F9122
:100D70000F91FF90EF90DF90CF900895BC0180E03D
:100D800009DF60E085E30E943E1E8AE38EBD0DB45C
:100D900007FEFDCF1EBC0DB407FEFDCF61E085E36D
:100DA0000E943E1E8EB50895CF93C62FBC0182E0EF
:100DB000F1DE60E085E30E943E1E8AE78EBD0DB441
:100DC00007FEFDCFCEBD0DB407FEFDCF61E085E38C
:100DD000CF910C943E1EFF920F931F93CF93DF93FE
:100DE00095E0899FF0011124E051FB4FC081D18132
:100DF0002197028113810C0F1D1FCE01BFDFF82E3A
:100E0000882319F060E0CE01CFDFBE0184E0C2DEAE
:100E1000B80186E0BFDE48E06FE180E825DE8CE1C6
:100E2000ABDE81FF04C048E06FE180EA1DDEFF20F9
:100E300041F06F2DCE01DF91CF911F910F91FF9067
:100E4000B3CFDF91CF911F910F91FF900895CF9273
:100E5000DF92EF92FF920F931F93CF93DF937C016A
:100E6000EB014130510569F4CB0188DF682FC701E0
:100E7000DF91CF911F910F91FF90EF90DF90CF9076
:100E800093CF6A01C60ED71E86010150110980E179
:100E900081DEB70184E17EDEC115D84030F4011552
:100EA00088E0180710F00F5F1740B80182E172DE8A
:100EB00040E16FE180EAD8DD40E26FE180E8D4DD17
:100EC0006FE180E0AFDD85FDFBCFDF91CF911F911A
:100ED0000F91FF90EF90DF90CF9008950F931F93A5
:100EE000CF93DF93EB01E5E0E89FD0011124A051FF
:100EF000BB4F4F3FB9F0E49FF0011124E051FB4F8D
:100F000002C0E9EEF4E060817181620F731F8D9180
:100F10009C91A8018C0F9D1F9ADFDF91CF911F91AB
:100F20000F9152CEE091E904F091EA04E20FF31F31
:100F3000E11588E0F80728F3BF016F5F7740E7CF3E
:100F40000F931F93CF93DF93EC01862FBA01A90172
:100F50009FDE8C010150110960E085E30E943E1E76
:100F60008AE38EBD0DB407FEFDCF20E030E02017F0
:100F70003107C0F41EBC0DB407FEFDCF8EB590E066
:100F8000982F88271EBC0DB407FEFDCF4EB5840FE9
:100F9000911DC80FD91FC817D90708F421962E5FD5
:100FA0003F4FE5CF2017310771F41EBC0DB407FE8B
:100FB000FDCF8EB590E0982F8827C80FD91FC8178E
:100FC000D90708F4219661E085E30E943E1ECE0118
:100FD000DF91CF911F910F910895DF92EF92FF92D1
:100FE0000F931F93CF93DF937C014091F0045091B6
:100FF000F1044150584E80E098E1E0EFF4E000E069
:10100000C0E0D0E025E0D22E1481112341F0D19E22
:10101000D0011124A051BB4F2D913C9101C09A01E8
:1010200060817181261B370B62817381261B370B10
:101030002E153F0539F485E0089FE0011124C051C9
:10104000DB4F48C0E216F30648F42817390730F49E
:10105000D09EE0011124C051DB4FC901111107C01E
:101060002097C1F5C0EFD4E085E0D82E1DC0D19EF9
:10107000F0011124E051FB4F012FC6CF0A811B81E3
:1010800088819981080F191FD29EE0011124C05157
:10109000DB4F688179810617170731F04A815B8140
:1010A000C801D5DE198308832C812111E7CF209157
:1010B000F0043091F10488819981281B390B8A81D1
:1010C0009B81281B390B2150384E2E153F0510F4FB
:1010D00080E019C0E5EFF4E081E022813381232B29
:1010E00029F035968F5F8932C1F7F2CF2A813B8193
:1010F00048815981240F351F31832083F382E28296
:101100009C8194838C83DF91CF911F910F91FF90ED
:10111000EF90DF9008958823F9F0E0EFF4E025E008
:101120009481981311C095E0899FD0011124A0519A
:10113000BB4F14968C911497848313961C921E9225
:10114000129714961C920895992331F0299FF0016B
:101150001124E051FB4FE4CF089595E0899FF00101
:101160001124E051FB4F80819181860F971F91835D
:10117000808382819381861B970B9383828308955A
:1011800095E0899FF0011124E051FB4F808191810E
:10119000860F971F91838083538342830895FC01B8
:1011A0005381560F50935E07872F99274281480F2E
:1011B00040935D07A181A0935C07E081E0935B070A
:1011C000242F30E02817390748F481E08A0F8093F4
:1011D0005C07811103C0EF5FE0935B07852F90E010
:1011E00077278617970788F44F5F40935D07411173
:1011F0000CC080915C078F5F80935C07811105C0F4
:1012000080915B078F5F80935B0708952091620751
:1012100030916307BC01C9010896C1DFE091620704
:10122000F091630780915B07808780915C078187DD
:1012300080915D07828780915E0783870895CF93B1
:101240002091C1053091C2052F5F3F4F21154DE719
:10125000340710F020E030E1522F432FE4E6F7E0AE
:10126000C0E0C43059F0A18DAA2329F0A481B58132
:10127000A417B50749F3CF5F7E96F3CF3093C2052D
:101280002093C1051092C00520E0E0E0F0E04EE1BF
:101290002430E0F4429FD0011124AC59B84F599644
:1012A0003C915997311104C02093C005FD0110C035
:1012B000373041F4309739F05A965C915A97328D15
:1012C000351708F0DF012F5FFD01E2CF2093C00545
:1012D0003097B1F122E0218F2091C305248720911E
:1012E000C40525872091C50526872091C605278737
:1012F00020E032E0338B228B358B248B21E030E0F1
:10130000318B208B138E228F23E0208F168A20E1D1
:10131000278B2091C1053091C20532272327322720
:101320003583248377836683DC012D913C9111976B
:101330003183208312968D919C911397938382839E
:10134000CF01CF9108951F93CF93DF93C091620790
:10135000D091630726E238E030936107209360075D
:1013600030935A0720935907833059F4898D8F7031
:10137000833009F0A7C588899989892B09F0A2C50E
:101380007FC0823009F080C08091C6058F5F809356
:10139000C605811113C08091C5058F5F8093C50577
:1013A00081110CC08091C4058F5F8093C4058111A9
:1013B00005C08091C3058F5F8093C30510925807C5
:1013C000109257071092550810925408298D822FB9
:1013D0008D7F853041F48A8D8F5F8A8F883709F041
:1013E00071C5198E6FC5222309F46CC58889998946
:1013F000892B09F441C08A8D9FEF980F9A8F811134
:1014000061C58B8D883031F09FEF920F923048F498
:10141000853039F4198E80E880935F070E94A31409
:1014200012C4853038F493E0082E01C0990F0A9455
:10143000EAF701C090E39A8F8F5F8B8F822F8F70B6
:101440008330A1F048F4813009F42FC2823009F0D2
:1014500039C510921F082CC2863009F495C3883014
:1014600009F492C3843009F02DC58EC384E08093C3
:101470005F070E94A31419C42F70233009F022C5FE
:1014800088E080935F07D5C38091FE07853409F01B
:1014900019C58091000890E0982F882720910108B5
:1014A000820F911D2091570730915807281739074F
:1014B00008F408C590935807809357078091040853
:1014C0008F7309F0FFC4809105088111FBC48091DE
:1014D000EC079091ED07009731F42091EE073091E1
:1014E000EF07232BA1F020910E0830910F08281749
:1014F000390709F0E7C42091100830911108809154
:10150000EE079091EF072817390709F0DBC40E9416
:101510000F17019609F0D6C4809107088630D1F1E3
:10152000813009F0CFC480911208883009F0CAC414
:10153000109212088091140890911508873FAFEF20
:101540009A0710F0099601C00896909315088093A9
:10155000140880910A0890910B0890930F088093CB
:101560000E0880910C0890910D08909311088093BB
:1015700010088091EC079091ED0790930B088093F1
:101580000A088091EE079091EF0790930D088093E1
:101590000C089CC40E94D416019609F093C4809153
:1015A0001408909115082091120830911308409169
:1015B0000A0850910B0860910C0870910D08EDE736
:1015C000F7E0C4E6D7E010811123A9F0AC81BD811A
:1015D0008A179B0781F4AE81BF812A173B0759F414
:1015E000A881B9814A175B0731F4AA81BB816A17C8
:1015F0007B0709F474C16E967E96A7E0CC3DDA07AE
:1016000011F720911F082F732230E1F49093BE054B
:101610008093BD0540E0443098F4E42FF0E0EE0FF5
:10162000FF1FE452F84F208131814F5F82179307EB
:1016300091F71092C00520E0C0E0D0E03EE17EC00E
:101640004093C00580911F0882FD3CC484E18093D3
:101650001F0888E290E0909358078093570780E531
:1016600080931E088091190890911D089093190885
:101670003091180890911C089093180830931C081A
:101680002091170890911B089093170820931B082E
:10169000909116089093C00540911A08409316083F
:1016A00090931A088F5F80931D0881110FC081E00D
:1016B000830F80931C08811109C081E0820F809301
:1016C0001B08811103C09F5F90931A088091120834
:1016D000909113089093BE058093BD052091140846
:1016E0003091150830931308209312089093150831
:1016F0008093140880910A0890910B0890930F082A
:1017000080930E0880910C0890910D089093110819
:10171000809310088091EC079091ED0790930B084F
:1017200080930A088091EE079091EF0790930D083F
:1017300080930C088BC3473099F02F5F2430F0F46E
:10174000822F90E0389FF001399FF00D1124EC5961
:10175000F84F418D4111EFCF2093C005EF0110C02C
:10176000209721F0528D4A8D451738F7389FE001B8
:10177000399FD00D1124CC59D84FDFCF2093C0050D
:10178000209709F49FC3D0936307C093620783E057
:101790008A8F888F1E8A84E08F8B1B8E809114081D
:1017A000909115089D838C83809112089091130865
:1017B0009F838E8380910A0890910B089983888378
:1017C00080910C0890910D089B838A8381E0898F1A
:1017D0008091C3058C878091C4058D878091C50554
:1017E0008E878091C6058F8781E090E0998B888BEA
:1017F000809119088B87809118088A878091170833
:10180000898780911608888781E090E0FFDC8091CD
:101810001E08282F207F30E0213531050CF445C00B
:1018200082958F7090E00597880F991F880F991FF8
:101830003091BF0520E0E22FF0E0E817F9078CF5C2
:10184000E051F84F36A9311105C02093C005109220
:10185000BF052BC0313011F42F5FEDCF3230E1F4F2
:1018600047A94430C9F42093C0053093BF0580AD2B
:1018700090E0982F882721AD822B9093BE0580930E
:10188000BD05813022E0920710F080E092E09B8B52
:101890008A8B9D8B8C8B09C047A9442311F0240FA0
:1018A000CACF2093C0053093BF0580E180931F0805
:1018B00080911F08826080931F0882E08093260831
:1018C00094E09093270880932808109229088CE2CE
:1018D00090E0909358078093570780E665C2D093B5
:1018E0006307C093620710925F0730911F0832FFB1
:1018F00003C0198E80E206C220911E0822952F7027
:10190000220F220F2093C00580915707909158070E
:101910004497821B910990935807809357071F7033
:10192000123021F4232F2F732231C9F0892B19F49F
:10193000832F8370A1F090911608888598132AC28E
:10194000909117088985981325C2909118088A8567
:10195000981320C2909119088B8598131BC234FFED
:1019600049C0688979896115710509F443C0CE01C0
:101970000C9615DC30911A0880915B0738133AC039
:1019800020911B0880915C07281334C090911C089B
:1019900080915D0798132EC080911D0840915E07CD
:1019A000841328C03C872D879E878F878B8D81115C
:1019B0001AC02E89888D9A8D891B922F969596959F
:1019C0009695891B280F2E8B87FD81959F89392F2E
:1019D00036953695931B980F9F8B822F869586950B
:1019E0008695890F888F81E080935F07888D8A8F25
:1019F000198A188A498D842F8F7090E0FC013197E5
:101A0000E830F10508F05EC2EE58FF4F0C94F81F65
:101A100080915F0780FF56C283E0898F80E48093C6
:101A20005F07198A188A8091570790915807009785
:101A300009F4FBC022E420935F07E8DBF6C0809145
:101A40005F0780FF6FC080911F088F73823109F09C
:101A500069C080911E08282F207F30E02135310594
:101A60000CF445C082958F7090E00597880F991F00
:101A7000880F991F3091BF0520E0E22FF0E0E817B2
:101A8000F9078CF5E051F84F36A9311105C02093C4
:101A9000C0051092BF052BC0313011F42F5FEDCF80
:101AA0003230E1F447A94430C9F42093C0053093A3
:101AB000BF0580AD90E0982F882721AD822B9093B1
:101AC000BE058093BD058130A2E09A0710F080E04A
:101AD00092E09B8B8A8B9D8B8C8B09C047A94423FA
:101AE00011F0240FCACF2093C0053093BF0583E0C7
:101AF000898F80911608888780911708898780913F
:101B000018088A87809119088B8781E090E07EDB36
:101B100082E480935F07198A188A109258071092FE
:101B2000570783C080E280935F070DD7E09162077B
:101B3000F0916307118E86CD80911F0880FF26C02B
:101B400044FD24C088899989892B09F0BBC1809103
:101B5000570790915807019659DB20915F07822F14
:101B6000806180935F078091570790915807892B78
:101B700019F0226120935F07E6D681E090E0998B0F
:101B8000888B88E0898F1B8E81E105C185FF1CC091
:101B90008091240890E0982F882720912508822B97
:101BA0002091600730916107280F391F309361073A
:101BB000209360072091570730915807281B390B55
:101BC00030935807209357078091570790915807F3
:101BD000009741F044FD06C020915F0722602093EA
:101BE0005F0714DB8091200890E0982F88272091D0
:101BF0002108820F911D9093BE058093BD052C890D
:101C00003D892817390710F0892B21F43093BE0540
:101C10002093BD058091BD059091BE059B8B8A8B5D
:101C200080915F07837009F44DC11092550810929E
:101C3000540889D680915F0785FF07C01092550828
:101C400010925408198E84E1A6C084FF0AC0109235
:101C500055081092540881E090E0998B888B84E0BD
:101C600091CF209154083091550821153105E1F0AC
:101C700080FF02C0198A188A88899989009781F49F
:101C80008A899B898217930720F490935508809343
:101C900054088091540890915508998B888B04C002
:101CA00090935508809354081B8E8091590790910A
:101CB0005A07909361078093600780915408909130
:101CC0005508892B59F088899989009739F08896A9
:101CD000909358078093570788E10BC080915F0766
:101CE00081FFF0C088E290E09093580780935707F7
:101CF00080E180931F0857C080915F0780FFE2C09A
:101D0000198E80E180935F071ED6DCC08091570753
:101D100090915807009709F079DA90911F08809107
:101D20005F0790FF0BC080FF06C087E0898F1A8E87
:101D3000198A188A18C086E0898F15C080FF1BC0D9
:101D400085E0898F198A188ABDC0809157079091C4
:101D50005807009709F05ADA80911F0880FF0BC0DE
:101D600087E0898F1A8E81E090E050DA80E18093DD
:101D70005F07E9D50FC08091570790915807892BCD
:101D800049F4A0C080915F0780FF9CC087E0898FE5
:101D90001A8E98C080E180931F0888E290E09093AB
:101DA00058078093570780E580931E0888858093A5
:101DB0001A08898580931B088A8580931C088B8567
:101DC00080931D088C85809316088D858093170855
:101DD0008E85809318088F858093190886E08093FC
:101DE00007088C819D8190931308809312088E813F
:101DF0009F8190931508809314088091EC0790912F
:101E0000ED0790930B0880930A088091EE0790915C
:101E1000EF0790930D0880930C0888819981909327
:101E20000F0880930E088A819B81909311088093FC
:101E30001008898D84FF05C0109221081092200897
:101E400005C082E0809320081092210880E48093EE
:101E50000608809157079091580790930008809347
:101E6000010810922508109224081092230810925D
:101E700022089AD780959095909323088093220802
:101E800085E48093FE071092FF07109205081092D8
:101E900004088091C7059091C80501969093C805E4
:101EA0008093C70590930208809303081092090855
:101EB00010920808B4D78095909590930908809364
:101EC000080804C0109258071092570710925F0735
:101ED000DF91CF911F91089598278927982708951A
:101EE0009C01AB01709355086093540816161706B1
:101EF00054F48091590790915A072817390719F01F
:101F0000B9010C9480220895FF920F931F93CF93F1
:101F1000DF93DC01FB011092D20560E07BE06830CA
:101F200010F5769FE0011124C952DA4F28813981DA
:101F300021153105B1F08A819B81009791F04D9177
:101F40005C9111974217530761F412962D913C91C1
:101F500013972817390729F46093D205DE011496E8
:101F60004FC06F5FDCCF20E03BE0283090F4329F21
:101F7000E0011124C952DA4F88819981892B39F403
:101F80008A819B81892B19F42093D20530C02F5F61
:101F9000ECCF2093D205283051F50091D005802F49
:101FA00090E010E070E060E02BE0F22E683098F4F2
:101FB000F69EE0011124C952DA4FCA85AC014C1BD0
:101FC0005109212F30E0241735071CF4762F102FEC
:101FD0001C1B6F5FEBCF1093CF057093D1057093EF
:101FE000D2058BE0789FE0011124C952DA4F4D9160
:101FF0005D916D917C91DE014D935D936D937D9329
:1020000086E001900D928A95E1F78091D0058A874C
:10201000DF91CF911F910F91FF9008958091570705
:10202000909158070E979093580780935707809187
:10203000EC079091ED0720910A0830910B08822758
:1020400093272091E8073091E90782239323892B76
:10205000B9F48091EE079091EF0720910C08309130
:102060000D08822793272091EA073091EB078223FE
:102070009323892B29F466EF77E08AE098E044CF38
:102080000895809157079091580710925807109221
:1020900057078A9708F408958091040890910508DD
:1020A000811521E0920729F08115924009F475C04D
:1020B000089520911608309117088091EC079091AF
:1020C000ED072817390709F083C0209118083091CF
:1020D00019088091EE079091EF072817390709F04A
:1020E00077C066E078E08CE098E00EDF80E092E078
:1020F000909305088093040886E0E6E0F8E0A0E10C
:10210000B8E001900D928A95E1F786E0E9ECF5E000
:10211000A6E0B8E001900D928A95E1F786E0E9EC3F
:10212000F5E0A6EFB7E001900D928A95E1F786E021
:10213000E0E1F8E0A0EFB7E001900D928A95E1F7B9
:1021400080910C0890910D089093170880931608C1
:1021500080910E0890910F089093190880931808A9
:102160008091EC079091ED0790930D0880930C08F7
:102170008091EE079091EF0790930F0880930E08DF
:1021800088E096E09093FD078093FC078AE290E058
:10219000909358078093570708952091160830911F
:1021A00017088091EC079091ED072817390781F403
:1021B00020911808309119088091EE079091EF074F
:1021C0002817390729F466E078E08CE098E09CCE87
:1021D000089520910E0830910F082F3F4FEF3407DC
:1021E00051F48091100890911108019621F486E035
:1021F000E8EFF2E0C6C08091EC079091ED078227EE
:1022000093274091E8075091E90784239523892B70
:1022100091F440911008509111088091EE0790912F
:10222000EF07842795276091EA077091EB078623D3
:102230009723892B89F08091E4079091E50790938B
:10224000D4058093D3058091E6079091E70790939A
:10225000D6058093D50508C03093D4052093D305C7
:102260005093D6054093D5058091D3059091D40520
:102270002091D5053091D60560E07BE0683090F480
:10228000769FF0011124E952FA4F40815181841761
:10229000950731F4428153812417350709F46DC045
:1022A0006F5FECCF6093D205683009F068C046E0FC
:1022B00050E06FEF70E080EF97E00E94892226E007
:1022C000E0E1F8E0DF01422F1D924A95E9F7E9ECE1
:1022D000F5E0A6EFB7E0822F01900D928A95E1F725
:1022E000E9ECF5E0A6E0B8E0822F01900D928A9526
:1022F000E1F78091D3059091D405909317088093CE
:1023000016088091D5059091D60590931908809371
:1023100018088091EC079091ED0790930D08809339
:102320000C088091EE079091EF0790930F0880932F
:102330000E0880E091E09093050880930408909344
:10234000FF078093FE0788E090E090930108809358
:1023500000082093020884E08093030888E096E058
:102360009093FD078093FC0786E298E090936107C5
:10237000809360078AE290E01EC06093D205349695
:1023800086E0A0EFB7E001900D928A95E1F786E034
:10239000E9ECF5E0A6EFB7E001900D928A95E1F740
:1023A00088E090E09093FD078093FC0780915707A9
:1023B000909158070E969093580780935707089569
:1023C0000F9300E020E040E060E08FE296E00E94A2
:1023D000C51A0F9108950F9300E020E040E060E0FF
:1023E00085E396E00E94C51A0F910895DC01ED91F6
:1023F000FC91008CF18DE02D199591E089270895CD
:1024000080E090E00895DC011C96ED91FC911D9711
:10241000309741F08181882311F081E00895808117
:1024200084FDFBCF80E00895FC014485558541156E
:10243000510551F0FB01248535852115310521F029
:1024400081E04217530709F080E00895CF93DF93AE
:102450001F92CDB7DEB7DC01ED91FC910088F189C8
:10246000E02D41E050E0BE016F5F7F4F199597FD71
:1024700003C0898190E002C08FEF9FEF0F90DF9142
:10248000CF910895CF93DF93EC01A8D3EC85FD8520
:10249000309749F0808186FD02C081E005C08181CE
:1024A000882311F0FACF80E0DF91CF910895CF9289
:1024B000DF92EF92FF920F931F93CF93DF9300D0A1
:1024C0001F92CDB7DEB77C018B016A01DC01ED9173
:1024D000FC910288F389E02D1995F801228130E002
:1024E000322F22278381282B3227232732273A8332
:1024F0002983248130E0322F22278581282B32271F
:10250000232732273C832B83C601E6DCBC01CE01A6
:1025100001960E941F098C01009719F480E090E059
:1025200016C0D80159968C918F70C1F357D3D8013A
:1025300059968C9159978F70833099F75C968D914D
:102540009C915D97F7019587848781E090E00F90DB
:102550000F900F900F90DF91CF911F910F91FF90EF
:10256000EF90DF90CF9008950F931F93CF93DF9359
:102570001F92CDB7DEB78C01DC01ED91FC9106888E
:10258000F789E02D19958823A1F0D8011C96ED91CB
:10259000FC911D978181882361F021E030E0AE013C
:1025A0004F5F5F4F60E070E00E948106898190E09C
:1025B00002C08FEF9FEF0F90DF91CF911F910F918E
:1025C0000895FC011382128248EE53E060E070E04F
:1025D000448355836683778382E093E0918380838D
:1025E000158614860895EF92FF920F931F93CF9351
:1025F000DF937C01C0E0D0E000E010E0F701EC0FD9
:10260000FD1F81810E94FD04080F191F2196C5300E
:10261000D105A1F7C801DF91CF911F910F91FF90D4
:10262000EF900895CF93DF93EC01E881F98106885C
:10263000F789E02D1995882329F08C859D85DF91F8
:10264000CF91D1CF80E090E0DF91CF910895CF93EB
:10265000DF93EBE3F6E080E0908191110AC08061A6
:10266000DF018D9380E1ED0119928A95E9F7CF01A1
:1026700006C08F5F7196843079F780E090E0DF913B
:10268000CF910895FC01319681E09191911102C0A2
:10269000815008958F5F8530C1F784E008959F923F
:1026A000AF92BF92CF92DF92EF92FF920F931F9360
:1026B000CF93DF93EC016B017A018A015C0186E024
:1026C000A80EB11C8BD2209709F445C08881807672
:1026D00009F041C0C501D6DF982EFE01E80FF11DBB
:1026E000868181110CC080E092E00E94ED07FE011E
:1026F000E90DF11D8683882329F31C861B86A7011B
:10270000401B510B4C0D5D1D6B857C859801FE01B6
:10271000E90DF11D86810E949106081B190B2B857E
:102720003C85280F391F3C872B87101611062CF487
:1027300084E0981639F29394D6CF0E94441D665FC8
:102740007F4F8F4F9F4F6D877E878F87988BC701F5
:10275000801B910B02C08FEF9FEFDF91CF911F91F4
:102760000F91FF90EF90DF90CF90BF90AF909F9030
:102770000895CF93DF931F92CDB7DEB7698341E011
:1027800050E0BE016F5F7F4FFC018485958587DF38
:102790000F90DF91CF910895FC01848595857FCFBF
:1027A0000F931F93CF93DF938C01EC0189910E94CB
:1027B0008B08F801C801049629912193E817F907BD
:1027C000D9F7F8011482DF91CF911F910F910895ED
:1027D0009F92AF92BF92CF92DF92EF92FF920F93B0
:1027E0001F93CF93DF93EC015B017A01E881F981BC
:1027F0000688F789E02D1995882309F455C0EC85E2
:10280000FD858181882309F452C087012EE1922E33
:10281000A701401B510B4A0D5B1DEC85FD859801FE
:1028200060E070E081810E9481066C01EC85FD858D
:1028300081810E94FD04EC85FD85C816D90649F505
:102840000C191D09CF010196ABDFAC85BD852C911C
:10285000822F90E08F70989EF001999EF00D1124C8
:10286000EC59F84F818D84FF05C0822F807611F4DA
:1028700020682C93EC85FD85818181110FC08081BA
:1028800086FF03C010821D861C86C701801B910B2A
:1028900010C0B60181810E94AD0804C00115110568
:1028A00009F0B6CFC70105C08FEF9FEF02C080E0EF
:1028B00090E0DF91CF911F910F91FF90EF90DF900B
:1028C000CF90BF90AF909F9008951F93CF93DF93C9
:1028D000EC0115E088810E948B0819921150D1F704
:1028E000DF91CF911F910895CF93DF93EC018C85F9
:1028F0009D85009779F0FC012081222359F00196F3
:10290000E4DFEC85FD85808186FF02C0108202C075
:10291000806280831D861C86DF91CF915FC1CF933B
:10292000DF93EC01E881F9810688F789E02D19959C
:10293000882331F08C859D850196DF91CF91C5CF9D
:10294000DF91CF910895DF92EF92FF920F931F9343
:10295000CF93DF93E0916207F0916307C48DD58D2B
:10296000209779F480915F0786FF43C070DEEC0109
:10297000009709F43EC0E0916207F0916307958FDC
:10298000848F80915F0781FF07C0809157079091E6
:102990005807892B09F041C0888187FF0EC08F77C7
:1029A000888380915F07826080935F07E091620770
:1029B000F0916307818D8F7E818F80915F0784FF07
:1029C0006BC0CE01069681DF8981882309F467C038
:1029D000E0916207F0916307848195819F838E83E4
:1029E000888180648883E0916207F0916307158E87
:1029F000148EE12CF12CB701809160079091610752
:102A00006FDAF0925807E0925707DF91CF911F914C
:102A10000F91FF90EF90DF9008958881807609F004
:102A2000BBCFE12CF12C8E010E0D1F1DF801818111
:102A300081111EC080915707909158070E94ED07A1
:102A4000F80181838823A1F000915707109158075E
:102A50002091600730916107205F374040919206D6
:102A600060E070E00E946E07F4E0EF1295CF0CC0BA
:102A70002FEFE21AF20A35E0E316F104A1F6809195
:102A80008F068E7F80938F06E0916207F091630737
:102A9000818D8061818F80CF87FF03C092CF1882A4
:102AA000A2CF80FF03C0CE0106967ADE80915F0739
:102AB0008C70D1F18E818823B9F19F8191110CC066
:102AC000EB84FC84E114F10409F493CFA70160E0E6
:102AD00070E00E94C00806C00E94FD047C010097BF
:102AE00009F487CF8091600790916107805F9740DC
:102AF00080939006F701E80FF11DCF010E94ED07CA
:102B000080939106882309F476CF6091900670E057
:102B1000870120E030E04E810E946E0780918F0691
:102B2000826080938F0667CF888185FF62CF8E8118
:102B300081110BC01882E0916207F0916307158E36
:102B4000148E80E180935F0754CFE0916207F0918B
:102B50006307818D8061818F4CCF0F9300E020E06F
:102B600040E060E08FE796E010D50F9108958091E6
:102B70008F0681FF11C02091900630E040EF57E0B2
:102B800060E070E0809191060E94910680918F062E
:102B90008D7F80938F0614C08091570790915807BE
:102BA0000E94ED07809391068823B1F0209157078A
:102BB0003091580740EF57E060E070E00E949106C6
:102BC000809191060E94EB06809191060E948B08ED
:102BD0001092910681E0089580E00895CF92DF92EF
:102BE000EF92FF921F93CF93DF9380919206811112
:102BF00004C00E94F3058093920680919206882378
:102C000009F443C091E090938F060E94FD049093D5
:102C1000580780935707892B61F122E630E040EF97
:102C200057E060E070E0809192060E9481068091FA
:102C3000FC079091FD078830910581F48091920600
:102C400080939106EBD981E00E94A30980915707F8
:102C500090915807892B69F0BCDA0AC088309640F9
:102C600041F40FDA8091570790915807892B09F0AA
:102C70007EDF80919206882341F080918F0680FF4D
:102C800004C00E94F20510929206FED66B017C01F0
:102C90008091850690918606A0918706B09188065E
:102CA000A7019601281B390B4A0B5B0BDA01C901FE
:102CB00080959095A095B0958827B7FD8395992725
:102CC000AA27BB27182FC4E6D7E0D0936307C09389
:102CD0006207112311F082E00FC0EC8DFD8D458558
:102CE000568567857089D701C601841B950BA60B95
:102CF000B70BB7FD0BC083E00E94A30920915707D3
:102D000030915807232B11F064DA31DF6E9697E08B
:102D1000CC3DD907D1F6112369F0AAEFCA0ED11C18
:102D2000E11CF11CC0928506D0928606E0928706CF
:102D3000F0928806DF91CF911F91FF90EF90DF9086
:102D4000CF900895FB0141505109460F571FE417DA
:102D5000F50778F4208130E0322F22276181260F99
:102D6000311D820F931F8217930708F40196329644
:102D7000EECFE417F50751F4208130E0322F2227FF
:102D8000820F931F8217930708F40196089544E178
:102D900050E06EEF77E080E090E0D4DF009709F03C
:102DA0009BC88FEF9FEF08950F931F93CF93DF93EF
:102DB0008091000890E0982F882720910108820FC9
:102DC000911D8C010451110948E050E06AE078E05F
:102DD0000E97B8DFC0911E08C695C695CC73D0E09B
:102DE000AE0162E178E0AEDFC017D10750F4980180
:102DF0002C1B3D0BAE014E5D5F4F609191060E9412
:102E0000A007009729F0DF91CF911F910F9164C81F
:102E10008FEF9FEFDF91CF911F910F910895B7CF63
:102E20000F9300E020E040E060E083E996E0ADD35E
:102E300089E896E00F919FC30F9300E020E040E007
:102E400060E089E996E0A1D30F9108950F9300E027
:102E500020E040E060E08FE996E097D30F9108957D
:102E6000FC0110820895CF92DF92EF92FF92CF93F0
:102E7000DF93EC016A017B018B859C85AD85BE8566
:102E80009A01AB01281B390B4A0B5B0BDA01C90114
:102E900049815A816B817C8184179507A607B70702
:102EA000D0F08881813019F0823029F00BC0E9859B
:102EB000FA85199507C061E08885811160E068870F
:102EC0008F81DCD6CB86DC86ED86FE868F85988961
:102ED0000196988B8F878D819E8197FD06C02F85E7
:102EE0003889281739070CF01882DF91CF91FF90AD
:102EF000EF90DF90CF9008950F931F93CF93DF93C0
:102F0000EC018C0106551F4FCE01AADF6196C01758
:102F1000D107D1F7DF91CF911F910F910895CF92F3
:102F2000DF92EF92FF921F93CF93DF936A017B01B1
:102F3000EC011AE08881882321F0B701A601CE01B7
:102F400092DF115061961111F5CFDF91CF911F9152
:102F5000FF90EF90DF90CF900895CF93DF93EC0137
:102F600093D5AB01BC01CE01DF91CF91D8CF20E04A
:102F7000FC013081332331F02F5F41962A30C1F7B5
:102F80008FEF0895822F0895CF92DF92EF92FF92F4
:102F90000F931F93CF93DF9300D01F92CDB7DEB76F
:102FA0006C01790149835A836B837C83E0DF282F8E
:102FB00049815A816B817C818F3FD1F081E1280268
:102FC000C00CD11C112481E0F6018083418352831F
:102FD0006383748316830583F286E186298354D53F
:102FE000F6016387748785879687108A17862981FB
:102FF000822F0F900F900F900F90DF91CF911F9124
:103000000F91FF90EF90DF90CF9008950F931F9353
:103010000FEF1FEFB9DF1F910F9108956F927F920D
:103020008F929F92AF92BF92CF92DF92EF92FF92D8
:103030000F931F93CF93DF9300D000D0CDB7DEB7AF
:103040007C015B014A0139016C018FE8C80ED11C7B
:10305000C60191D2F701E556FF4F8FEF9FEF9183A5
:103060008083F50182819381A481B581F6018283F9
:103070009383A483B583389691828082329711829C
:103080001082389771826082F70111830083E756BE
:10309000FF4F1182108226960FB6F894DEBF0FBE46
:1030A000CDBFDF91CF911F910F91FF90EF90DF90F7
:1030B000CF90BF90AF909F908F907F906F9008952A
:1030C0000F9300E020E040E060E085EA96E05DD20A
:1030D0000F910895FC01818D228D90E0805C9F4FBF
:1030E000821B91098F7399270895FC01918D828D20
:1030F000981731F0828DE80FF11D858D90E00895CD
:103100008FEF9FEF0895FC01918D828D981761F0EC
:10311000828DDF01A80FB11D5D968C91928D9F5F0E
:103120009F73928F90E008958FEF9FEF089588E34B
:103130009AE1892B39F080E090E0892B19F098D141
:10314000811125C080E090E0892B41F080E090E083
:10315000892B21F00E94000081111CC080E090E0CA
:10316000892B41F080E090E0892B21F00E94000043
:10317000811113C080E090E0892BA1F080E090E005
:10318000892B81F00E94000081110AC008950E94DD
:103190000000D8CF0E940000E1CF0E940000EACFDB
:1031A0000C9400000895FC01848DDF01A80FB11D6F
:1031B000A35ABF4F2C91848D90E001968F7399276D
:1031C000848FA689B7892C93A089B1898C9180645A
:1031D0008C93938D848D981306C00288F389E02D1B
:1031E00080818F7D80830895CF93DF93EC01888D5C
:1031F0008823C1F0EA89FB89808185FD05C0A88903
:10320000B9898C9186FD0EC00FB607FCF5CF808181
:1032100085FFF2CFA889B9898C9185FFEDCFCE01CA
:10322000C2DFE8CFDF91CF910895CF92DF92FF9276
:103230000F931F93CF93DF931F92CDB7DEB76C012F
:1032400081E0D60158968C9358975B969C915B973A
:103250005C968C915C97981307C05096ED91FC9109
:103260005197808185FD2DC0F601038D10E00F5F21
:103270001F4F0F731127F02EF601848DF81210C026
:103280000FB607FCF9CFD6015096ED91FC915197FE
:10329000808185FFF1CFC601698385DF6981ECCF2D
:1032A000838DE80FF11DE35AFF4F6083D6015B96D3
:1032B0000C935B975296ED91FC91539780818062BD
:1032C0000CC0D6015696ED91FC91579760835096AD
:1032D000ED91FC91519780818064808381E090E042
:1032E0000F90DF91CF911F910F91FF90DF90CF90C2
:1032F0000895BF92CF92DF92EF92FF92CF93DF9328
:10330000EC016A017B01B22EE889F98982E08083B1
:10331000411581EE58076105710599F060E079E08B
:103320008DE390E0A701960125D62150310941098E
:1033300051095695479537952795211580E138070E
:1033400090F0E889F989108260E874E88EE190E0F5
:10335000A70196010FD6215031094109510956950F
:10336000479537952795EC85FD853083EE85FF855C
:103370002083188EEC89FD89B082EA89FB898081DF
:1033800080618083EA89FB89808188608083EA8903
:10339000FB89808180688083EA89FB8980818F7DB9
:1033A0008083DF91CF91FF90EF90DF90CF90BF901F
:1033B00008951F920F920FB60F9211240BB60F9221
:1033C0002F938F939F93EF93FF93E091BB06F09120
:1033D000BC068081E091C106F091C20682FD12C058
:1033E00090818091C4068F5F8F732091C5068217EC
:1033F00051F0E091C406F0E0E555F94F958F8093C8
:10340000C40601C08081FF91EF919F918F912F9110
:103410000F900BBE0F900FBE0F901F9018951F922C
:103420000F920FB60F9211240BB60F922F933F936A
:103430004F935F936F937F938F939F93AF93BF93BC
:10344000EF93FF938BEA96E0AEDEFF91EF91BF9191
:10345000AF919F918F917F916F915F914F913F912C
:103460002F910F900BBE0F900FBE0F901F901895CD
:103470008BEA96E02FDE21E0892B09F420E0822FF1
:1034800008951092AE061092AD0688EE93E0A0E08B
:10349000B0E08093AF069093B006A093B106B093CE
:1034A000B20682E293E09093AC068093AB0685EC83
:1034B00090E09093B8068093B70684EC90E09093E8
:1034C000BA068093B90680EC90E09093BC06809396
:1034D000BB0681EC90E09093BE068093BD0682EC23
:1034E00090E09093C0068093BF0686EC90E09093A6
:1034F000C2068093C1061092C4061092C5061092AF
:10350000C6061092C7060895AF92BF92CF92DF927F
:10351000EF92FF920F931F93CF93DF936C017B0188
:10352000C0E0D0E000E010E0F601EC0FFD1F4AE043
:1035300050E06281C70172D15C016EE2C7018DD09B
:103540008A0D9B1D080F191F2196C330D10561F705
:103550004AE050E0F6016581C70160D1800F911FFC
:10356000DF91CF911F910F91FF90EF90DF90CF905F
:10357000BF90AF90089522E333E0FC0131832083B4
:10358000128213821482158208950F93FC0182E344
:1035900093E09183808362834383248305830F9127
:1035A000089582E393E0909349078093480710922F
:1035B0004A0710924B0710924C0710924D0708953E
:1035C000CF92DF92EF92FF920F931F93CF93DF93EF
:1035D0006C017A01EB01E60EF71E00E010E0CE155B
:1035E000DF0561F06991D601ED91FC910190F081C8
:1035F000E02DC6011995080F191FF1CFC801DF9101
:10360000CF911F910F91FF90EF90DF90CF90089591
:103610006115710581F0DB010D900020E9F7AD0126
:1036200041505109461B570BDC01ED91FC91028082
:10363000F381E02D199480E090E00895DC01ED9194
:10364000FC91DB0114964D915C9115976D917C91E5
:103650000280F381E02D1994DBCFDC01ED91FC9128
:103660000190F081E02D199464E373E0D1CF0F93C2
:103670001F93CF93DF93EC01E1DF8C01CE01F4DFE8
:10368000800F911FDF91CF911F910F9108958F921D
:103690009F92AF92BF92CF92DF92EF92FF920F93E1
:1036A0001F93CF93DF93CDB7DEB7A1970FB6F894F2
:1036B000DEBF0FBECDBF7C01C42EE52FCB01D22EC5
:1036C00019A221E02D1510F02AE0D22E8E010F5DF7
:1036D0001F4F8D2C912CA12CB12C6C2D7E2FA50170
:1036E000940148D48C2DD29E8019112401501109C7
:1036F0008A3014F4805D01C0895CF8018083211553
:1037000031054105510521F0C22EE32FCA01E5CF55
:10371000B801C7017DDFA1960FB6F894DEBF0FBEDA
:10372000CDBFDF91CF911F910F91FF90EF90DF9070
:10373000CF90BF90AF909F908F900895CF92DF92DF
:10374000EF92FF920F931F93CF93DF93EC016A01E7
:103750007B012115310579F4E881F9810190F0812F
:10376000E02D642FDF91CF911F910F91FF90EF908B
:10377000DF90CF9019942A303105D9F477FF18C023
:103780006DE26BDF8C0144275527BA014C195D09A6
:103790006E097F092AE0CE017ADF800F911FDF9149
:1037A000CF911F910F91FF90EF90DF90CF900895F0
:1037B0002AE0B701A601CE01DF91CF911F910F91B1
:1037C000FF90EF90DF90CF9062CF9A01AB01662718
:1037D00057FD6095762FB2CF0F931F93CF93DF9352
:1037E000EC019A01AB01662757FD6095762FA6DFA5
:1037F0008C01CE0139DF800F911FDF91CF911F9196
:103800000F9108952115310541F4DC01ED91FC91F2
:103810000190F081E02D642F199439CF9A01462F41
:1038200050E060E070E0EECFCF93DF9300D01F92C6
:10383000CDB7DEB79B01AC0161157105810591051E
:1038400059F069833A834B835C8366D529813A8139
:103850004B815C81B1D303C060E070E0CB010F907D
:103860000F900F900F90DF91CF910895CF92DF923C
:10387000EF92FF926B017C01621773078407950733
:103880005CF4CA01B9016C197D098E099F09CCDF6E
:103890006C0D7D1D8E1D9F1DFF90EF90DF90CF90D2
:1038A0000895FC01808191815EC4CF93DF93EC0188
:1038B00088819981009709F056D4198218821D8257
:1038C0001C821B821A82DF91CF9108950F931F9360
:1038D000CF93DF93EC018B016F5F7F4F88819981DC
:1038E00027D5009731F0998388831B830A8381E071
:1038F00001C080E0DF91CF911F910F910895CF9388
:10390000DF93EC0188819981892B29F08A819B8141
:103910008617970758F4CE01D9DF882341F08C81B0
:103920009D81892B19F4E881F981108281E0DF9172
:10393000CF910895EF92FF920F931F93CF93DF9350
:10394000EC017B018A01BA01DADF811103C0CE01EB
:10395000ACDF06C01D830C83B70188819981E0D557
:10396000CE01DF91CF911F910F91FF90EF900895BD
:10397000FC01118210821382128215821482611559
:10398000710551F0FB0101900020E9F7AF014150B2
:103990005109461B570BCECF0895CF93DF93EC010F
:1039A000FB018617970751F06081718161157105E0
:1039B00021F044815581BEDF01C077DFCE01DF9168
:1039C000CF910895FC011182108213821282158218
:1039D0001482E3CF91D5089563D0FDDF0E94E10109
:1039E000C7E9D8E10E945C012097E1F3A0DBFACFA0
:1039F00022C3B9C31F920F920FB60F9211242F93B7
:103A00003F938F939F93AF93BF9380914F07909174
:103A10005007A0915107B091520730914E0723E013
:103A2000230F2D3720F40196A11DB11D05C026E8F6
:103A3000230F0296A11DB11D20934E0780934F07BF
:103A400090935007A0935107B0935207809153076A
:103A500090915407A0915507B09156070196A11D6A
:103A6000B11D8093530790935407A0935507B093CB
:103A70005607BF91AF919F918F913F912F910F90DA
:103A80000FBE0F901F9018952FB7F89460914F07B5
:103A90007091500780915107909152072FBF089560
:103AA000789484B5826084BD84B5816084BD85B519
:103AB000826085BD85B5816085BDEEE6F0E08081E0
:103AC00081608083E1E8F0E0108280818260808301
:103AD000808181608083E0E8F0E080818160808384
:103AE000E1EBF0E0808184608083E0EBF0E08081B6
:103AF00081608083E1E9F0E0808182608083808161
:103B000081608083E0E9F0E0808181608083E1EA88
:103B1000F0E0808182608083808181608083E0EA40
:103B2000F0E0808181608083E1E2F1E08081826069
:103B30008083808181608083E0E2F1E08081816028
:103B40008083EAE7F0E08081846080838081826006
:103B500080838081816080838081806880831092EF
:103B6000C100089590E0FC013197E231F10508F0C1
:103B70004BC0E658FF4F3CC2809180008F7703C056
:103B8000809180008F7D80938000089580918000D7
:103B9000877FF9CF84B58F7702C084B58F7D84BDD0
:103BA00008958091B0008F7703C08091B0008F7D21
:103BB0008093B0000895809190008F7707C0809126
:103BC00090008F7D03C080919000877F809390004C
:103BD00008958091A0008F7707C08091A0008F7D0D
:103BE00003C08091A000877F8093A00008958091FA
:103BF00020018F7707C0809120018F7D03C08091C5
:103C00002001877F809320010895CF93DF9390E078
:103C1000FC01E25AFE4F2491FC01EC55FE4F8491C9
:103C2000882349F190E0880F991FFC01E25EFD4F67
:103C3000A591B4918C5F9D4FFC01C591D4919FB724
:103C4000611108C0F8948C91209582238C9388810F
:103C500082230AC0623051F4F8948C91322F30954F
:103C600083238C938881822B888304C0F8948C9161
:103C7000822B8C939FBFDF91CF9108950F931F9359
:103C8000CF93DF931F92CDB7DEB7282F30E0F90135
:103C9000E85EFE4F8491F901E25AFE4F1491F9015A
:103CA000EC55FE4F04910023C1F0882319F069837D
:103CB00059DF6981E02FF0E0EE0FFF1FEC5FFD4F51
:103CC000A591B4919FB7F8948C91611103C01095A0
:103CD000812301C0812B8C939FBF0F90DF91CF91E7
:103CE0001F910F910895CF93DF93282F30E0F901B2
:103CF000E85EFE4F8491F901E25AFE4FD491F9013A
:103D0000EC55FE4FC491CC2389F081112BDFEC2FB1
:103D1000F0E0EE0FFF1FE651FE4FA591B4912C91FC
:103D20002D2381E090E021F480E002C080E090E06B
:103D3000DF91CF9108955058BB27AA270ED0DCC041
:103D4000CDD030F0D2D020F031F49F3F11F41EF4EA
:103D5000C2C00EF4E095E7FBB8C0E92FDED080F3D7
:103D6000BA17620773078407950718F071F49EF578
:103D7000F6C00EF4E0950B2EBA2FA02D0B01B90161
:103D800090010C01CA01A0011124FF27591B99F0D1
:103D9000593F50F4503E68F11A16F040A22F232FDD
:103DA000342F4427585FF3CF469537952795A7952D
:103DB000F0405395C9F77EF41F16BA0B620B730BD4
:103DC000840BBAF09150A1F0FF0FBB1F661F771F45
:103DD000881FC2F70EC0BA0F621F731F841F48F4FA
:103DE000879577956795B795F7959E3F08F0B3CF80
:103DF0009395880F08F09927EE0F9795879508956A
:103E000040D008F481E00895E89409C097FB3EF49F
:103E100090958095709561957F4F8F4F9F4F992317
:103E2000A9F0F92F96E9BB279395F6958795779595
:103E30006795B795F111F8CFFAF4BB0F11F460FF55
:103E40001BC06F5F7F4F8F4F9F4F16C0882311F0AD
:103E500096E911C0772321F09EE8872F762F05C0C1
:103E6000662371F096E8862F70E060E02AF09A955C
:103E7000660F771F881FDAF7880F9695879597F951
:103E80000895990F0008550FAA0BE0E8FEEF1616EB
:103E90001706E807F907C0F012161306E407F5073E
:103EA00098F0621B730B840B950B39F40A2661F0B2
:103EB000232B242B252B21F408950A2609F4A14055
:103EC000A6958FEF811D811D089597F99F6780E862
:103ED00070E060E008959FEF80EC089500240A945C
:103EE0001616170618060906089500240A941216D5
:103EF0001306140605060895092E0394000C11F408
:103F0000882352F0BB0F40F4BF2B11F460FF04C0B4
:103F10006F5F7F4F8F4F9F4F089557FD9058440F0D
:103F2000551F59F05F3F71F04795880F97FB991F18
:103F300061F09F3F79F087950895121613061406D5
:103F4000551FF2CF4695F1DF08C016161706180662
:103F5000991FF1CF86957105610508940895E8943D
:103F6000BB2766277727CB0197F908958ADF08F4E6
:103F70008FEF0895A1E21A2EAA1BBB1BFD010DC0F5
:103F8000AA1FBB1FEE1FFF1FA217B307E407F50709
:103F900020F0A21BB30BE40BF50B661F771F881FE5
:103FA000991F1A9469F760957095809590959B017B
:103FB000AC01BD01CF010895052E97FB16F40094C6
:103FC0000FD057FD05D0D6DF07FC02D046F408C05D
:103FD00050954095309521953F4F4F4F5F4F089535
:103FE00090958095709561957F4F8F4F9F4F089565
:103FF000EE0FFF1F0590F491E02D19940DD0A59FB1
:10400000900DB49F900DA49F800D911D11240895D3
:104010000790F691E02D1994A29FB001B39FC001C3
:10402000A39F700D811D1124911DB29F700D811DE4
:104030001124911D0895CF93DF938230910510F4E0
:1040400082E090E0E0915808F091590820E030E0DB
:10405000A0E0B0E0309739F140815181481759070D
:10406000B8F04817590771F482819381109729F0AD
:1040700013969C938E9312972CC09093590880931B
:10408000580827C02115310531F04217530718F0A1
:10409000A901DB0101C0EF019A01BD01DF0102802E
:1040A000F381E02DD7CF21153105F9F0281B390B0D
:1040B0002430310580F48A819B816115710521F0DE
:1040C000FB019383828304C090935908809358081E
:1040D000FE01329644C0FE01E20FF31F81939193DB
:1040E00022503109398328833AC0209156083091F3
:1040F0005708232B41F420910202309103023093A0
:104100005708209356082091000230910102211592
:10411000310541F42DB73EB740910402509105029C
:10412000241B350BE0915608F0915708E217F3076E
:10413000A0F42E1B3F0B2817390778F0AC014E5F17
:104140005F4F2417350748F04E0F5F1F50935708F5
:10415000409356088193919302C0E0E0F0E0CF01D4
:10416000DF91CF910895CF93DF93009709F487C033
:10417000FC01329713821282C0915808D0915908DD
:10418000209781F420813181280F391F80915608B2
:10419000909157088217930779F5F0935708E093A9
:1041A00056086DC0DE0120E030E0AE17BF0750F4C6
:1041B00012964D915C9113979D014115510509F19E
:1041C000DA01F3CFB383A28340815181840F951F1D
:1041D0008A179B0771F48D919C911197840F951FFD
:1041E00002969183808312968D919C91139793836D
:1041F00082832115310529F4F0935908E09358087A
:104200003EC0D9011396FC93EE9312974D915D91A8
:10421000A40FB51FEA17FB0779F480819181840F01
:10422000951F0296D90111969C938E93828193815A
:1042300013969C938E931297E0E0F0E08A819B8125
:10424000009719F0FE01EC01F9CFCE01029628810A
:104250003981820F931F20915608309157082817F3
:10426000390769F4309729F41092590810925808C8
:1042700002C013821282D0935708C0935608DF9170
:10428000CF9108958F929F92AF92BF92CF92DF927B
:10429000EF92FF92CF93DF93EC01688179818A815D
:1042A0009B81611571058105910521F464E279ED29
:1042B0008BE597E02DE133EF41E050E07DDE4901F1
:1042C0005A019B01AC01A7EAB1E498DE6B017C01C5
:1042D000ACEEB4EFA50194012CD1C60ED71EE81E9A
:1042E000F91EF7FE06C081E0C81AD108E10880E88F
:1042F000F80AC882D982EA82FB82C701B6019F7799
:10430000DF91CF91FF90EF90DF90CF90BF90AF9073
:104310009F908F900895B6CF86E092E0B3CF6093E0
:104320000602709307028093080290930902089591
:104330006F927F928F929F92AF92BF92CF92DF92B5
:10434000EF92FF920F931F93CF93DF93EC01CB017A
:10435000209779F4DF91CF911F910F91FF90EF900B
:10436000DF90CF90BF90AF909F908F907F906F9095
:1043700062CEFE01E60FF71F9E0122503109E217BF
:10438000F30708F4A8C0D9010D911C9111970617E5
:104390001707B0F00530110508F49BC0A801445080
:1043A00051094617570708F494C002501109061B1B
:1043B000170B019311936D937C93CF01D4DE89C0C9
:1043C0005B01A01AB10A4E01800E911EA0915808FF
:1043D000B0915908612C712C60E070E0109709F4DD
:1043E00049C0A815B905C9F5ED90FC901197670172
:1043F00042E0C40ED11CCA14DB0478F147018A18CC
:104400009B08640142E0C40ED11C1296BC90129726
:104410001396AC91B5E0CB16D10440F0B282A383E1
:1044200091828082D9018D939C9309C00E5F1F4FAA
:104430000E0D1F1DF90111830083EB2DFA2F61155D
:10444000710531F0DB011396FC93EE93129741C096
:10445000F0935908E09358083CC06D917C911197F6
:104460006616770608F43B01BD0112960D90BC91CB
:10447000A02DB4CF60915608709157086815790542
:10448000E9F468167906D0F44091000250910102D7
:104490004115510541F44DB75EB76091040270912A
:1044A0000502461B570BE417F507A8F4F0935708CD
:1044B000E0935608F901918380830BC0BCDD7C0139
:1044C000009749F0A801BE011BD0CE014CDEC70108
:1044D00004C0CE0102C080E090E0DF91CF911F9137
:1044E0000F91FF90EF90DF90CF90BF90AF909F9093
:1044F0008F907F906F90089581E090E0F8941DC0B8
:10450000FB01DC0102C001900D9241505040D8F7F0
:104510000895DC0101C06D9341505040E0F70895CB
:10452000FB01DC0101900D920020E1F70895B7FF37
:1045300065CD64DD821B930B089512E0C2E5D2E0E5
:1045400000E005C022970109FE010BBF61DDC43503
:0C455000D10780E00807B1F7F894FFCF16
:10455C0000005A08800001000000FF54656D706572
:10456C007261747572652064657369726564207616
:10457C00616C75653A090048756D696469747920D8
:10458C00646573697265642076616C75653A0900BF
:10459C0054656D70657261747572652073656E73A8
:1045AC006F722076616C75653A090048756D6964A7
:1045BC006974792073656E736F722076616C7565A2
:1045CC003A0900686F6D652F666C6F6F72322F6BD6
:1045DC006964732F7261646961746F722F31006842
:1045EC006F6D652F666C6F6F72322F6B6964732FF2
:1045FC007261646961746F722F3200000000009860
:10460C0002D902E2020000000049034F034F4E00A2
:10461C004F46460053657474696E672070696E204E
:10462C000020746F20000000000065036B03000085
:10463C000000B404C304EA1C00000000CC04D20443
:10464C0000000000E104E704FFFFFFFFFFFF000094
:10465C000000B913CC1312132612B4128F14571274
:10466C000012E8137414031242121412F611000013
:10467C0000001519E01A6A1883187518F418000050
:10468C000000841A0D0A006E616E00696E66006F80
:06469C007666002E00000E
:00000001FF
