:10000000C9C10000F8C10000F6C10000F4C1000041
:10001000F2C10000F0C10000EEC10000ECC1000020
:10002000EAC10000E8C10000E6C10000E4C1000030
:10003000E2C10000E0C10000DEC10000DCC1000040
:10004000DAC10000D8C10000D6C10000D4C1000050
:10005000D2C10000D0C10000CEC100000C949C2889
:10006000CAC100000C9400260C943626C4C10000BE
:10007000C2C10000C0C10000BEC10000BCC1000080
:10008000BAC10000B8C10000B6C10000B4C1000090
:10009000B2C10000B0C10000AEC10000ACC10000A0
:1000A000AAC10000A8C10000A6C10000A4C10000B0
:1000B000A2C10000A0C100009EC100009CC10000C0
:1000C0009AC1000098C1000096C1000094C10000D0
:1000D00092C1000090C100008EC100008CC10000E0
:1000E0008AC1000035114C11C911B312D212EF129E
:1000F000F712A912BF29C229B129B529BB29F929AB
:10010000C629CA29D029D429D829DE29E229E629F5
:10011000F929EC29F029F42900000A0B02090C0D39
:100120000E080703040100000000000000000000AA
:1001300000000000000000000000000000000000BF
:10014000000000001211100000000000000000007C
:10015000000000000000000000000000000001029C
:1001600010202008081020401020408002010201C9
:100170000804020101020408102040808040201081
:1001800008040201800402018040201008040201DA
:100190000804020101020408102040800102040842
:1001A000102040800505050507050808080802021B
:1001B00002020A0A08080404040401010101010101
:1001C00001010303030303030303040707070C0CE4
:1001D0000C0C0C0C0C0C02020202060606060606AB
:1001E00006060B0B0B0B0B0B0B0B00002000230068
:1001F000260029002C002F0032000001000003011E
:100200000601090100002200250028002B002E0015
:100210003100340002010000050108010B0100005B
:100220002100240027002A002D00300033000101A6
:100230000000040107010A014E414E494E4954593C
:10024000494E46CDCCCC3D0AD7233C17B7D13877A1
:10025000CC2B329595E6241FB14F0A0000204100B7
:1002600000C84200401C4620BCBE4CCA1B0E5AAE01
:10027000C59D7400407A10F35A00A0724E18090010
:1002800010A5D4E80000E87648170000E40B5402FB
:100290000000CA9A3B000000E1F505000080969836
:1002A00000000040420F000000A086010000001086
:1002B0002700000000E803000000006400000000C8
:1002C000000A00000000000100000000002C76D8A9
:1002D00088DC674F0823DFC1DFAE59E1B1B796E58F
:1002E000E3E453C63AE651997696E8E6C28426EBF3
:1002F000898C9B62ED407C6FFCEFBC9C9F40F2BA06
:10030000A56FA5F490055A2AF75C936B6CF9676D9D
:10031000C11BFCE0E40D47FEF520E6B500D0ED90F2
:100320002E0300943577050080841E080000204EBF
:100330000A000000C80C333333330F986E12831158
:1003400041EF8D2114893BE65516CFFEE6DB18D12F
:10035000844B381BF77C1D901DA4BBE42420328401
:10036000725E228100C9F124ECA1E53D27007B02E9
:100370002703D2047F05A605CD053006EB071F082D
:10038000460824162F16F119551D631D6E1D87246E
:100390006826F82611241FBECFEFD1E2DEBFCDBF05
:1003A00000E00CBF15E0A0E0B2E0E8E0F6E600E017
:1003B0000BBF02C007900D92A438B107D9F729E00E
:1003C000A4E8B5E001C01D92A83FB207E1F713E031
:1003D000C4E9D3E000E006C022970109FE010BBF8B
:1003E0000E94612CCE36D10780E00807A9F70E9451
:1003F0008E280C94023304CE23E230E040E050E03B
:100400006FE070E080E090E00E94D727AB0166E2E9
:1004100072E080912E0690912F064FC30F931F9389
:10042000CF93DF9300D000D0CDB7DEB726E040E019
:1004300052EC61E070E087E498E00E94A02581E83A
:1004400095E09A8389838091420690914306A0911A
:100450004406B09145068B839C83AD83BE83AE0179
:100460004F5F5F4F6EE072E080E298E00E94A81C50
:1004700060912E0670912F06809130069091310682
:100480006DD087E090E00E949A288C016091300640
:100490007091310640E0AED210932F0600932E06E5
:1004A0002CEF31E040E355E760E070E084E895E050
:1004B0000E94521EA1DF26960FB6F894DEBF0FBE33
:1004C000CDBFDF91CF911F910F91089560912E06BE
:1004D00070912F0680913006909131063FD088238D
:1004E00031F080913006909131060E94BD2184E860
:1004F00095E00C94F71D0F931F93CF93DF9300E0CB
:1005000020E040E060E086E496E00E94EC2605E210
:100510002EEF48EA60EC80E496E00E94EC2682E34D
:1005200096E00E9425178DE990E00E949A28EC0140
:1005300002E316E022E033E04BE557E06AE072E0C8
:100540000E944C24D0933106C093300684E895E095
:10055000DF91CF911F910F910C94C61DDF92EF9206
:10056000FF920F931F93CF93DF9300D000D0CDB7AE
:10057000DEB78C017B0180914C0690914D06861769
:10058000970721F070934D0660934C06C8010E94B6
:100590002C20D82E811120C025E432E04EE452E018
:1005A00067E572E0C8010E94A9218823A9F067E5E8
:1005B00072E0CE0101960E94592847E552E0BA0147
:1005C000C8010E94A723B801C70147D2CE010196F6
:1005D0000E94F227DD24D3948D2D26960FB6F89431
:1005E000DEBF0FBECDBFDF91CF911F910F91FF9066
:1005F000EF90DF900895AB01BC0180914C06909183
:100600004D062FC2CF93DF93CDB7DEB72A970FB633
:10061000F894DEBF0FBECDBFDB01FE013196BF01F6
:100620009F01261B370B4217530718F02D9121937A
:10063000F7CFFB01E40FF51F1082DDDF2A960FB61E
:10064000F894DEBF0FBECDBFDF91CF9108950F9319
:1006500000E020E040E060E08EE496E00E94EC26BE
:100660000F910895CF93DF93EC0183E893E0998392
:1006700088838D8D9E8D009739F0DC01ED91FC9182
:100680000280F381E02D19958F8D98A1009739F0A4
:10069000DC01ED91FC910280F381E02D199589A197
:1006A0009AA1009739F0DC01ED91FC910280F38171
:1006B000E02D1995CE01DF91CF91DDC2CF93DF936D
:1006C000EC01D0DFCE01DF91CF910C949B28CF932A
:1006D000DF93EC017AD4882321F0CE016DD481110F
:1006E00006C060E08D8D9E8D70D260E005C061E037
:1006F0008D8D9E8D6AD261E08F8D98A166D2CE01DC
:100700005ED4882331F0CE0154D4882311F061E007
:1007100001C060E089A19AA1DF91CF9156C2EF920A
:10072000FF920F931F93CF93DF938C017B01C0E067
:10073000D0E0B701F801EC0FFD1F83A194A10E9446
:10074000142F892B31F02296C830D10591F780E023
:1007500001C081E0DF91CF911F910F91FF90EF9049
:100760000895AF92BF92CF92DF92EF92FF920F93D4
:100770001F93CF93DF936A017901EB0100E010E052
:100780000C151D058CF45E0169917991C7010E94D9
:100790000F24F501408151816AE672E0C7010E9491
:1007A000A7230F5F1F4FECCFDF91CF911F910F91C8
:1007B000FF90EF90DF90CF90BF90AF9008959B0196
:1007C000BC016D5D7F4F44E050E0CBCFAF92BF9254
:1007D000CF92DF92EF920F931F93CF93DF93EC01B1
:1007E0006B01B42E40E054D283E893E09983888370
:1007F00088E0E5E1F2E0DE01939601900D928A95A2
:10080000E1F76B2DCE01CED3CE01C9D3882339F0C9
:1008100040E752E06AE672E0C6010E94A7238AE040
:1008200090E00E949A285C01E12C860129E832E0E0
:1008300040E06EE170E0F6D1BE8EAD8E8AE090E0D1
:100840000E949A285C0127EA32E040E06FE170E004
:10085000E9D1B8A2AF8E61E0CE01BAD38AE090E0D0
:100860000E949A285C0125EC32E040E069E270E0E9
:10087000D9D1BAA2A9A261E0CE01A4D326E232E086
:10088000A60161E070E0CE0120D2BC01CE018DD383
:10089000B601CE01DF91CF911F910F91EF90DF90C4
:1008A000CF90BF90AF908BCFCF93DF93EB01CA0176
:1008B00064E673E00E94142F892B11F461E001C0FB
:1008C00060E0CE01DF91CF9180C1EF92FF920F9354
:1008D0001F93CF93DF93CDB7DEB72C970FB6F89465
:1008E000DEBF0FBECDBF8C017A01CE0107960E94FC
:1008F0005928B701CE0101960E9459286EE173E094
:10090000CE0107960E946E28882341F0C7010E94FD
:10091000F92EAB01BC01C8011FD32FC066EE72E0F7
:10092000CE0107960E946E28882321F0F801658D7C
:10093000768D0BC062E073E0CE0107960E946E28B0
:10094000882339F0F801678D70A1A701C801ACDFD9
:1009500014C065E473E0CE0107960E946E288823D8
:1009600021F0F80161A172A1F0CFC80114D347E6CC
:1009700053E06AE672E00E94A723CE0101960E942E
:10098000F227CE0107960E94F2272C960FB6F89414
:10099000DEBF0FBECDBFDF91CF911F910F91FF90B2
:1009A000EF9008950F9300E020E040E060E084E5E0
:1009B00096E00E94EC260F9108952BE334E0DC01D1
:1009C00011963C932E9314968D919C9115970097B8
:1009D00039F0DC01ED91FC910280F381E02D199456
:1009E0000895CF93DF93EC01E8DFCE01DF91CF9143
:1009F0000C949B28DF92EF92FF920F931F93CF935B
:100A0000DF93EC018B01D42E8BE394E099838883F0
:100A10004E837B836A838BE290E00E949A287C015C
:100A20004E81B801D3DEFD82EC82DD2071F049E811
:100A300053E06AE672E0C801DF91CF911F910F91F8
:100A4000FF90EF90DF900C94A723DF91CF911F913F
:100A50000F91FF90EF90DF900895FC0184819581C4
:100A6000AECEEF92FF920F931F93CF93DF931F921F
:100A70001F92CDB7DEB77C018B01FC01848195818B
:100A800049835A834CDE49815A81882369F0B80131
:100A9000F701848195810F900F90DF91CF911F9185
:100AA0000F91FF90EF9011CF0F900F90DF91CF91AA
:100AB0001F910F91FF90EF9008950F931F93CF9385
:100AC000DF93EC01CB018A0166E272E00E94142FF1
:100AD000892B81F4B801882777FD8095982F0E9493
:100AE000FC2AAB01BC018C819D81DF91CF911F91CC
:100AF0000F91D2C1DF91CF911F910F9108950F9364
:100B000000E020E040E060E08AE596E00E94EC260C
:100B10000F91089523E434E0FC013183208366C201
:100B2000CF93DF93EC01F6DFCE01DF91CF910C94F0
:100B30009B28CF93DF93EC0160E070E064D283E404
:100B400094E099838883DF91CF9108950F9300E01B
:100B500020E040E060E080E696E00E94EC260F9105
:100B600008952BE434E0FC01318320833FC2CF930E
:100B7000DF93EC01F6DFCE01DF91CF910C949B283F
:100B8000CF93DF93EC0162E070E03DD28BE494E020
:100B900099838883DF91CF9108950F9300E020E03F
:100BA00040E060E086E696E00E94EC260F91089512
:100BB00027E534E0FC0131832083089527E534E004
:100BC000FC01318320830C949B280F931F93CF93B8
:100BD000DF931F92CDB7DEB78C01FC016483828165
:100BE00069830E94682A6981262F30E08217930763
:100BF00021F0F80182810E94332AF8018481882340
:100C000019F044E653E002C04FE454E0F801658176
:100C10007681878190850F90DF91CF911F910F9101
:100C20000C94A723EF920F931F93CF93DF93EC01C4
:100C3000862FE7E5F4E0F983E88318870F836A835A
:100C40007B834C833E832D83E98661E00E94FA29F1
:100C500060E0CE01DF91CF911F910F91EF90B5CF62
:100C60000F9300E020E040E060E08CE696E00E9418
:100C7000EC260F91089521E335E0FC0131832083B8
:100C8000089521E335E0FC01318320830C949B28F7
:100C9000FC0181E395E09183808373836283448FB9
:100CA00040E050E068EC71E44683578360877187C9
:100CB0001286138681E490E097878687108A138ACC
:100CC000178A148A158A168A0895EF92FF920F9355
:100CD0001F93CF93DF938A01E9016130710581F0A1
:100CE00062307105C1F0672B11F58CE090E00E9435
:100CF0009A287C019E01A80160E070E01ADF15C00F
:100D00008CE090E00E949A287C019E01A80161E09D
:100D100070E0AFD10AC08DE090E00E949A287C017B
:100D20009E01A80162E070E02BDFC70102C080E0F5
:100D300090E0DF91CF911F910F91FF90EF90089578
:100D40008F929F92AF92BF92CF92DF92EF92FF92DB
:100D5000CF93DF93EC018C819D810097D9F15FD116
:100D60004B015C018B89882341F1CE80DF80E884D0
:100D7000F98420E030E040E85FE3C501B4010E945F
:100D8000922A9B01AC01C701B6010E94AC2B87FDE2
:100D900003C081E08A8711C020E030E040E85FE3D3
:100DA000C501B4010E94912A9B01AC01C701B601A3
:100DB0000E94F62A18160CF01A868C8D882341F0B2
:100DC00044E754E06AE672E08A819B810E94A7238F
:100DD0008A8501C080E0DF91CF91FF90EF90DF9096
:100DE000CF90BF90AF909F908F9008958F929F92D9
:100DF000AF92BF92CF92DF92EF92FF92CF93DF93A9
:100E0000EC018C819D810097D9F109D14B015C01E6
:100E10008F89882341F1CE80DF80E884F98420E047
:100E200030E040E05FE3C501B4010E94912A9B01DC
:100E3000AC01C701B6010E94F62A87FF03C081E01A
:100E40008B8711C020E030E040E05FE3C501B401D2
:100E50000E94922A9B01AC01C701B6010E94AC2BF3
:100E600018160CF41B868C8D882341F044E754E05F
:100E70006AE672E08A819B810E94A7238B8501C06C
:100E800080E0DF91CF91FF90EF90DF90CF90BF9007
:100E9000AF909F908F900895EF92FF920F931F93C2
:100EA000CF93DF93CDB7DEB72A970FB6F894DEBFA6
:100EB0000FBECDBF7C01DC0114968D919C911597DE
:100EC000009761F1B2D0C7013BDFC7018FDFF701A7
:100ED00084819581A4D08E010F5F1F4F22E045E0F1
:100EE0000E94742CD70114968D919C911597A3D0D4
:100EF000A801BC01F701828193810E94A723D70139
:100F00005C968C915C97882391F04EE854E06AE6F9
:100F100072E012968D919C91139707C04AEA54E0B3
:100F20006AE672E0F701828193810E94A723D701CC
:100F3000ED91FC910480F581E02DC70119952A9669
:100F40000FB6F894DEBF0FBECDBFDF91CF911F91DA
:100F50000F91FF90EF900895CF93DF93EC014E83B4
:100F60005F83688779878C8D882341F048EE54E051
:100F70006AE672E08A819B810E94A723CE01E0DEAF
:100F8000CE0134DFE881F9810480F581E02DCE01C6
:100F9000DF91CF911994FC01828193810895FC0126
:100FA000848D0895FC01648F0895FC01758364832A
:100FB0000895FC0183850895FC0182850895FC0154
:100FC00087890895FC01678B0895FC018389089542
:100FD000FC01638B08950F9300E020E040E060E0A7
:100FE00082E796E00E94EC260F9108952BE335E00E
:100FF000FC013183208308952BE335E0FC0131832C
:1010000020830C949B28FC018BE395E091838083E3
:101010007387628753834283358324830895FC0159
:1010200066817781808591850895FC014683578389
:10103000608771870895FC018481958108950F93DD
:1010400000E020E040E060E088E796E00E94EC26C7
:101050000F91089523E435E0FC0131832083C6CF4E
:10106000CF93DF93EC01F6DFCE01DF91CF910C94AB
:101070009B28CF93DF93EC0161E070E0C4DF83E451
:1010800095E099838883DF91CF9108950F9300E0D5
:1010900020E040E060E08EE796E00E94EC260F91B1
:1010A0000895882381F08F3F29F4809186069091DE
:1010B0008706089595E0899FF0011124E557F94FBF
:1010C00082819381089580E090E00895CF93DF932B
:1010D000D82FC62F60E085E30E94332A9C2F9F7192
:1010E0009D2B9EBD0DB407FEFDCF1EBC0DB407FEAB
:1010F000FDCFC7FD08C061E085E30E94332A8EB5AD
:10110000DF91CF9108951EBC0DB407FEFDCFF3CF44
:101110000F931F93CF93DF931F92CDB7DEB7182F96
:10112000062F60E085E349830E94332A602F6F71A8
:10113000612B6EBD49810DB407FEFDCF4EBD0DB4D0
:1011400007FEFDCF61E085E30F90DF91CF911F9106
:101150000F910C94332A0F931F93CF93DF938C013D
:10116000EB0160E085E30E94332A8AE38EBD0DB473
:1011700007FEFDCF0C0F1D1FC017D10739F01EBC95
:101180000DB407FEFDCF8EB58993F6CF61E085E300
:10119000DF91CF911F910F910C94332A0F931F93DE
:1011A000CF93DF938C01EB0160E085E30E94332A4B
:1011B0008AE78EBD0DB407FEFDCF0C0F1D1FC017B3
:1011C000D10731F089918EBD0DB407FEFDCFF7CF69
:1011D00061E085E3DF91CF911F910F910C94332A49
:1011E0001F93CF93DF93182F1076C12FD0E020915B
:1011F000140230E0C217D30779F043E06FE180EAD0
:1012000087DFAE0185E0559547958A95E1F76FE157
:1012100080E87EDF10931402DF91CF911F91089533
:10122000CF93DF931F92CDB7DEB7682F6983D8DFE6
:10123000698180E00F90DF91CF9148CF1F93CF93CA
:10124000DF931F92CDB7DEB7182F6983C9DF4981BD
:10125000612F80E40F90DF91CF911F9159CF1F93A1
:10126000CF93DF931F921F92CDB7DEB7182F6983FC
:101270007A83B6DF4981612F80E44ADF61E0610F44
:101280007A81472F80E40F900F90DF91CF911F91CB
:101290003FCF6091890670918A066115710519F03A
:1012A0006150710902C06FEF77E08CE0D8CFF1CFC9
:1012B000FF920F931F93CF93DF9389E3B1DF8823CE
:1012C00009F444C06091890670918A06EB01269664
:1012D000C11588E0D80710F0CF5FD74080E0BFDFAE
:1012E00060E08AE3F3DE90E090938A0680938906BB
:1012F00060E08AE3EBDE2091890630918A06382B84
:1013000030938A062093890660E08AE3DFDE082FA7
:1013100060E08AE3DBDE182F60E08AE3D7DEF82E98
:1013200040E46EE180E8F4DEF7FE0FC0D09385065E
:10133000C0938406202F30E0312B245031093093A4
:101340008706209386068FEF02C0A3DF80E0DF913F
:10135000CF911F910F91FF900895EF92FF920F93FD
:101360001F93CF93DF938B017A018F3FC1F025E06C
:10137000829FE0011124C557D94F02C0C4E8D6E0CE
:1013800068817981600F711F80E069DF8A819B81AC
:10139000801B910BE816F90690F4C70110C08091EC
:1013A000840690918506860F971F811528E0920785
:1013B00028F3BC016F5F7740C4E8D6E0E5CFDF914A
:1013C000CF911F910F91FF90EF9008950F931F936E
:1013D000CF93DF938A01A901C0DFEC01B801BBDE26
:1013E000CE01DF91CF911F910F910895CF92DF929F
:1013F000EF92FF920F931F93CF93DF938B016A01BC
:10140000790195E0899FE0011124C557D94F688182
:101410007981600F711F82E022DF0A80DB81C02D9D
:10142000C01BD10BEC16FD0608F4E701B601CE0196
:10143000B5DECE01DF91CF911F910F91FF90EF901C
:10144000DF90CF900895BC0180E009DF60E085E384
:101450000E94332A8AE38EBD0DB407FEFDCF1EBC69
:101460000DB407FEFDCF61E085E30E94332A8EB5FF
:101470000895CF93C62FBC0182E0F1DE60E085E3E2
:101480000E94332A8AE78EBD0DB407FEFDCFCEBD84
:101490000DB407FEFDCF61E085E3CF910C94332AB4
:1014A000FF920F931F93CF93DF9395E0899FF001F5
:1014B0001124E557F94FC081D18121970281138111
:1014C0000C0F1D1FCE01BFDFF82E882319F060E03E
:1014D000CE01CFDFBE0184E0C2DEB80186E0BFDE10
:1014E00048E06FE180E814DE8CE19ADE81FF04C001
:1014F00048E06FE180EA0CDEFF2041F06F2DCE0165
:10150000DF91CF911F910F91FF90B3CFDF91CF91DA
:101510001F910F91FF900895CF92DF92EF92FF926B
:101520000F931F93CF93DF937C01EB014130510563
:1015300069F4CB0188DF682FC701DF91CF911F913C
:101540000F91FF90EF90DF90CF9093CF6A01C60E7E
:10155000D71E86010150110980E181DEB70184E1C7
:101560007EDEC115D84030F4011588E0180710F070
:101570000F5F1740B80182E172DE40E16FE180EA5F
:10158000C7DD40E26FE180E8C3DD6FE180E09EDD12
:1015900085FDFBCFDF91CF911F910F91FF90EF90D1
:1015A000DF90CF9008950F931F93CF93DF93EB01BC
:1015B000E5E0E89FD0011124A557B94F4F3FB9F09E
:1015C000E49FF0011124E557F94F02C0E4E8F6E08A
:1015D00060817181620F731F8D919C91A8018C0FA6
:1015E0009D1F9ADFDF91CF911F910F9152CEE09115
:1015F0008406F0918506E20FF31FE11588E0F807F5
:1016000028F3BF016F5F7740E7CFCF93DF93EB0104
:10161000682F84ED13DEBE0186ED21DE8AEE00DE4A
:1016200080FF05C08FE090E00E943A29F7CFDF915C
:10163000CF910895CF93DF93EC01D0D061E085E3A3
:101640000E94FA2961E085E30E94332A61E083E386
:101650000E94FA2961E084E30E94FA2960E082E3B3
:101660000E94FA2961E085E30E94FA2960E083E3A1
:101670000E94332A60E084E30E94332A80E58CBD17
:101680008DB581608DBD4FEF60E08FEF41DD62E38E
:1016900070E080E090E00E94152910928A06109276
:1016A000890660E070E088E0DADD60E070E08CE000
:1016B000D6DD6FEF77E08AE0D2DD61EB88E3BEDD57
:1016C0006FE370E388E2CBDD69EF77EF80E3C7DD9E
:1016D0006DE070E080ECC3DD42E362EC80E818DD91
:1016E00062E17CE086ECBBDD62E184ECA7DD6CEDC1
:1016F00075E08AECB4DD688184EEA0DD698185EE59
:101700009DDD6A8182EE9ADD6B8183EE97DD6C81CF
:1017100080EE94DD6D8181EE91DD60E071E080E12D
:1017200074DF8FE15DDD40EC6BE180E8F1DC44E0EB
:101730006FE180E8EDDC66E774E084E1DF91CF9152
:1017400064CF0F931F93CF93DF93EC01862FBA01E1
:10175000A90103DE8C010150110960E085E30E94BC
:10176000332A8AE38EBD0DB407FEFDCF20E030E0C2
:1017700020173107C0F41EBC0DB407FEFDCF8EB597
:1017800090E0982F88271EBC0DB407FEFDCF4EB504
:10179000840F911DC80FD91FC817D90708F42196C7
:1017A0002E5F3F4FE5CF2017310771F41EBC0DB4FB
:1017B00007FEFDCF8EB590E0982F8827C80FD91F60
:1017C000C817D90708F4219661E085E30E94332AFF
:1017D000CE01DF91CF911F910F910895EBE8F6E0D4
:1017E0008DECDF011D928A95E9F781E098E0918305
:1017F00080830895DF92EF92FF920F931F93CF9310
:10180000DF937C0140918B0650918C064150584EDD
:1018100080E098E1EBE8F6E000E0C0E0D0E025E011
:10182000D22E1481112341F0D19ED0011124A5574D
:10183000B94F2D913C9101C09A0160817181261BA5
:10184000370B62817381261B370B2E153F0539F448
:1018500085E0089FE0011124C557D94F48C0E21622
:10186000F30648F42817390730F4D09EE00111241C
:10187000C557D94FC901111107C02097C1F5CBE851
:10188000D6E085E0D82E1DC0D19EF0011124E55789
:10189000F94F012FC6CF0A811B8188819981080FDA
:1018A000191FD29EE0011124C557D94F6881798153
:1018B0000617170731F04A815B81C8012DDE1983B5
:1018C00008832C812111E7CF20918B0630918C0663
:1018D00088819981281B390B8A819B81281B390BB0
:1018E0002150384E2E153F0510F480E019C0E0E974
:1018F000F6E081E022813381232B29F035968F5F3A
:101900008932C1F7F2CF2A813B8148815981240F66
:10191000351F31832083F382E2829C8194838C8300
:10192000DF91CF911F910F91FF90EF90DF9008957D
:101930008823F9F0EBE8F6E025E09481981311C0D4
:1019400095E0899FD0011124A557B94F14968C9129
:101950001497848313961C921E92129714961C92CD
:101960000895992331F0299FF0011124E557F94F8B
:10197000E4CF089595E0899FF0011124E557F94FD0
:1019800080819181860F971F9183808382819381CB
:10199000861B970B93838283089595E0899FF001BE
:1019A0001124E557F94F80819181860F971F91830C
:1019B0008083538342830895FC015381560F5093D3
:1019C000FA08872F99274281480F4093F908A1818F
:1019D000A093F808E081E093F708242F30E028175F
:1019E000390748F481E08A0F8093F808811103C019
:1019F000EF5FE093F708852F90E07727861797072A
:101A000088F44F5F4093F90841110CC08091F808A9
:101A10008F5F8093F808811105C08091F7088F5F70
:101A20008093F70808952091FE083091FF08BC01CB
:101A3000C9010896C1DFE091FE08F091FF0880918E
:101A4000F70880878091F80881878091F90882875C
:101A50008091FA088387089580E0E82FF0E0EE0F88
:101A6000FF1FE858F64F118210828F5F8430A8F371
:101A700080E09EE1989FF0011124E050F74F118E15
:101A80008F5F8430B8F380935B0780E094E090939D
:101A90005D0780935C070895CF9320915C07309198
:101AA0005D072F5F3F4F21154DE7340710F020E011
:101AB00030E1522F432FE0E0F9E0C0E0C43059F0AC
:101AC000A18DAA2329F0A481B581A417B50749F3F4
:101AD000CF5F7E96F3CF30935D0720935C07109223
:101AE0005B0720E0E0E0F0E04EE12430E0F4429FCC
:101AF000D0011124A050B74F59963C9159973111FC
:101B000004C020935B07FD0110C0373041F43097CB
:101B100039F05A965C915A97328D351708F0DF01EB
:101B20002F5FFD01E2CF20935B073097B1F122E0F8
:101B3000218F20915E07248720915F0725872091C0
:101B40006007268720916107278720E032E0338BEA
:101B5000228B358B248B21E030E0318B208B138E50
:101B6000228F23E0208F168A20E1278B20915C07AB
:101B700030915D07322723273227358324837783EB
:101B80006683DC012D913C9111973183208312965D
:101B90008D919C91139793838283CF01CF91089568
:101BA0001F93CF93DF93C091FE08D091FF0822ECE2
:101BB00039E03093FD082093FC083093F608209319
:101BC000F508833059F4898D8F70833009F0A9C5E9
:101BD00088899989892B09F0A4C57FC0823009F0D2
:101BE00080C0809161078F5F80936107811113C06E
:101BF000809160078F5F8093600781110CC0809196
:101C00005F078F5F80935F07811105C080915E073A
:101C10008F5F80935E071092F4081092F308109281
:101C2000F1091092F009298D822F8D7F853041F4C2
:101C30008A8D8F5F8A8F883709F073C5198E71C5B9
:101C4000222309F46EC588899989892B09F441C03A
:101C50008A8D9FEF980F9A8F811163C58B8D883085
:101C600031F09FEF920F923048F4853039F4198E9D
:101C700080E88093FB080E94E71812C4853038F48E
:101C800093E0082E01C0990F0A94EAF701C090E38F
:101C90009A8F8F5F8B8F822F8F708330A1F048F4E3
:101CA000813009F42FC2823009F03BC51092BB0984
:101CB0002CC2863009F495C3883009F492C384306D
:101CC00009F02FC58EC384E08093FB080E94E718BB
:101CD00019C42F70233009F024C588E08093FB08D5
:101CE000D5C380919A09853409F01BC580919C0960
:101CF00090E0982F882720919D09820F911D2091B7
:101D0000F3083091F4082817390708F40AC59093AE
:101D1000F4088093F3088091A0098F7309F001C53E
:101D20008091A1098111FDC4809188099091890950
:101D3000009731F420918A0930918B09232BA1F06F
:101D40002091AA093091AB092817390709F0E9C495
:101D50002091AC093091AD0980918A0990918B094D
:101D60002817390709F0DDC40E94541D019609F0B7
:101D7000D8C48091A3098630D1F1813009F0D1C453
:101D80008091AE09883009F0CCC41092AE098091E0
:101D9000B0099091B109873FAFEF9A0710F009960B
:101DA00001C008969093B1098093B0098091A6096B
:101DB0009091A7099093AB098093AA098091A809F3
:101DC0009091A9099093AD098093AC0980918809FD
:101DD000909189099093A7098093A60980918A0917
:101DE00090918B099093A9098093A8099EC40E94A1
:101DF000181D019609F095C48091B0099091B10920
:101E00002091AE093091AF094091A6095091A709E0
:101E10006091A8097091A909E9E1F9E0C0E0D9E071
:101E200010811123A9F0AC81BD818A179B0781F431
:101E3000AE81BF812A173B0759F4A881B9814A179F
:101E40005B0731F4AA81BB816A177B0709F474C16F
:101E50006E967E96A9E0C837DA0711F72091BB0984
:101E60002F732230E1F4909359078093580740E094
:101E7000443098F4E42FF0E0EE0FFF1FE858F64FDF
:101E8000208131814F5F8217930791F710925B0792
:101E900020E0C0E0D0E03EE17EC040935B0780914F
:101EA000BB0982FD3EC484E18093BB0988E290E0D7
:101EB0009093F4088093F30880E58093BA098091A9
:101EC000B5099091B9099093B5093091B4099091F1
:101ED000B8099093B4093093B8092091B30990914F
:101EE000B7099093B3092093B7099091B2099093E1
:101EF0005B074091B6094093B2099093B6098F5F92
:101F00008093B90981110FC081E0830F8093B809D4
:101F1000811109C081E0820F8093B709811103C04C
:101F20009F5F9093B6098091AE099091AF0990930D
:101F30005907809358072091B0093091B109309327
:101F4000AF092093AE099093B1098093B0098091B5
:101F5000A6099091A7099093AB098093AA09809153
:101F6000A8099091A9099093AD098093AC0980913B
:101F70008809909189099093A7098093A609809177
:101F80008A0990918B099093A9098093A8098BC322
:101F9000473099F02F5F2430F0F4822F90E0389F83
:101FA000F001399FF00D1124E050F74F418D4111A0
:101FB000EFCF20935B07EF0110C0209721F0528DE7
:101FC0004A8D451738F7389FE001399FD00D11240D
:101FD000C050D74FDFCF20935B07209709F4A1C3F0
:101FE000D093FF08C093FE0883E08A8F888F1E8AF3
:101FF00084E08F8B1B8E8091B0099091B1099D83F5
:102000008C838091AE099091AF099F838E838091DC
:10201000A6099091A709998388838091A809909136
:10202000A9099B838A8381E0898F80915E078C87D1
:1020300080915F078D87809160078E87809161070F
:102040008F8781E090E0998B888B8091B5098B8791
:102050008091B4098A878091B30989878091B209F8
:10206000888781E090E0DFDC8091BA09282F207F0B
:1020700030E0213531050CF445C082958F7090E039
:102080000597880F991F880F991F30915A0720E0F4
:10209000E22FF0E0E817F9078CF5E457F64F36A980
:1020A000311105C020935B0710925A072BC03130C5
:1020B00011F42F5FEDCF3230E1F447A94430C9F479
:1020C00020935B0730935A0780AD90E0982F8827C4
:1020D00021AD822B9093590780935807813022E0DD
:1020E000920710F080E092E09B8B8A8B9D8B8C8B0B
:1020F00009C047A9442311F0240FCACF20935B07DE
:1021000030935A0780E18093BB098091BB098260BC
:102110008093BB0982E08093C20994E09093C30945
:102120008093C4091092C5098CE290E09093F40862
:102130008093F30880E665C2D093FF08C093FE0841
:102140001092FB083091BB0932FF03C0198E80E268
:1021500006C22091BA0922952F70220F220F2093D8
:102160005B078091F3089091F4084497821B9109D2
:102170009093F4088093F3081F70123021F4232FFA
:102180002F732231C9F0892B19F4832F8370A1F0AA
:102190009091B209888598132AC29091B3098985D4
:1021A000981325C29091B4098A85981320C2909102
:1021B000B5098B8598131BC234FF49C0688979899A
:1021C0006115710509F443C0CE010C96F5DB309121
:1021D000B6098091F70838133AC02091B709809169
:1021E000F808281334C09091B8098091F908981321
:1021F0002EC08091B9094091FA08841328C03C8709
:102200002D879E878F878B8D81111AC02E89888D8F
:102210009A8D891B922F969596959695891B280FD6
:102220002E8B87FD81959F89392F36953695931B87
:10223000980F9F8B822F869586958695890F888F1C
:1022400081E08093FB08888D8A8F198A188A498DCE
:10225000842F8F7090E0FC013197E830F10508F091
:1022600060C2EE58FF4F0C94512C8091FB0880FF08
:1022700058C283E0898F80E48093FB08198A188A0A
:102280008091F3089091F408009709F4FBC022E4D0
:102290002093FB08C8DBF6C08091FB0880FF6FC06D
:1022A0008091BB098F73823109F069C08091BA09AE
:1022B000282F207F30E0213531050CF445C0829570
:1022C0008F7090E00597880F991F880F991F3091A4
:1022D0005A0720E0E22FF0E0E817F9078CF5E45701
:1022E000F64F36A9311105C020935B0710925A07AB
:1022F0002BC0313011F42F5FEDCF3230E1F447A91C
:102300004430C9F420935B0730935A0780AD90E0C6
:10231000982F882721AD822B9093590780935807D7
:102320008130A2E09A0710F080E092E09B8B8A8BCC
:102330009D8B8C8B09C047A9442311F0240FCACF71
:1023400020935B0730935A0783E0898F8091B2090D
:1023500088878091B30989878091B4098A878091A1
:10236000B5098B8781E090E05EDB82E48093FB0817
:10237000198A188A1092F4081092F30883C080E238
:102380008093FB0824D7E091FE08F091FF08118E9E
:1023900086CD8091BB0980FF26C044FD24C088897A
:1023A0009989892B09F0BDC18091F3089091F408B7
:1023B000019639DB2091FB08822F80618093FB0816
:1023C0008091F3089091F408892B19F022612093F1
:1023D000FB08FDD681E090E0998B888B88E0898F9F
:1023E0001B8E81E105C185FF1CC08091C00990E072
:1023F000982F88272091C109822B2091FC083091C9
:10240000FD08280F391F3093FD082093FC08209108
:10241000F3083091F408281B390B3093F40820930B
:10242000F3088091F3089091F408009741F044FD7F
:1024300006C02091FB0822602093FB08F4DA80910B
:10244000BC0990E0982F88272091BD09820F911D2B
:1024500090935907809358072C893D89281739078D
:1024600010F0892B21F4309359072093580780915D
:102470005807909159079B8B8A8B8091FB0883703A
:1024800009F44FC11092F1091092F009A0D6809181
:10249000FB0885FF07C01092F1091092F009198E10
:1024A00084E1A6C084FF0AC01092F1091092F009DD
:1024B00081E090E0998B888B84E091CF2091F009A6
:1024C0003091F10921153105E1F080FF02C0198A30
:1024D000188A88899989009781F48A899B8982174B
:1024E000930720F49093F1098093F0098091F0090B
:1024F0009091F109998B888B04C09093F109809396
:10250000F0091B8E8091F5089091F6089093FD08D4
:102510008093FC088091F0099091F109892B59F082
:1025200088899989009739F088969093F408809368
:10253000F30888E10BC08091FB0881FFF2C088E2BC
:1025400090E09093F4088093F30880E18093BB09B6
:1025500057C08091FB0880FFE4C0198E80E1809312
:10256000FB0835D6DEC08091F3089091F4080097FF
:1025700009F059DA9091BB098091FB0890FF0BC0DC
:1025800080FF06C087E0898F1A8E198A188A18C0C2
:1025900086E0898F15C080FF1BC085E0898F198A6E
:1025A000188ABFC08091F3089091F408009709F051
:1025B0003ADA8091BB0980FF0BC087E0898F1A8EC1
:1025C00081E090E030DA80E18093FB0800D60FC014
:1025D0008091F3089091F408892B49F4A2C080916E
:1025E000FB0880FF9EC087E0898F1A8E9AC080E129
:1025F0008093BB0988E290E09093F4088093F308FD
:1026000080E58093BA0988858093B609898580938F
:10261000B7098A858093B8098B858093B9098C8521
:102620008093B2098D858093B3098E858093B40918
:102630008F858093B50986E08093A3098C819D8165
:102640009093AF098093AE098E819F819093B109D9
:102650008093B00980918809909189099093A70986
:102660008093A60980918A0990918B099093A9097A
:102670008093A809888199819093AB098093AA09D6
:102680008A819B819093AD098093AC09898D84FFE9
:1026900005C01092BD091092BC0905C082E080936C
:1026A000BC091092BD0980E48093A2098091F308CF
:1026B0009091F40890939C0980939D091092C10910
:1026C0001092C0091092BF091092BE090E94181DF5
:1026D000809590959093BF098093BE0985E480937F
:1026E0009A0910929B091092A1091092A009809159
:1026F0006207909163070196909363078093620746
:1027000090939E0980939F091092A5091092A409A5
:102710000E94541D809590959093A5098093A409DB
:1027200004C01092F4081092F3081092FB08DF9195
:10273000CF911F91089598278927982708959C0184
:10274000AB017093F1096093F0091616170654F463
:102750008091F5089091F6082817390719F0B9010A
:102760000C94042F0895FF920F931F93CF93DF9340
:10277000DC01FB0110926D0760E07BE0683010F532
:10278000769FE0011124CE58D84F28813981211538
:102790003105B1F08A819B81009791F04D915C9158
:1027A00011974217530761F412962D913C9113979C
:1027B0002817390729F460936D07DE0114964FC07E
:1027C0006F5FDCCF20E03BE0283090F4329FE001E7
:1027D0001124CE58D84F88819981892B39F48A8168
:1027E0009B81892B19F420936D0730C02F5FECCFAC
:1027F00020936D07283051F500916B07802F90E0F2
:1028000010E070E060E02BE0F22E683098F4F69E65
:10281000E0011124CE58D84FCA85AC014C1B510998
:10282000212F30E0241735071CF4762F102F1C1BA6
:102830006F5FEBCF10936A0770936C0770936D070F
:102840008BE0789FE0011124CE58D84F4D915D91D7
:102850006D917C91DE014D935D936D937D9386E048
:1028600001900D928A95E1F780916B078A87DF913D
:10287000CF911F910F91FF90089510926D079BE0EB
:1028800080916D07883068F4989FF0011124EE580C
:10289000F84F10821182128213828F5F80936D072E
:1028A000EFCF08958091F3089091F4080E979093DC
:1028B000F4088093F3088091880990918909209108
:1028C000A6093091A7098227932720918409309186
:1028D000850982239323892BB9F480918A099091E9
:1028E0008B092091A8093091A9098227932720916B
:1028F00086093091870982239323892B29F462E981
:1029000079E086EA99E02FCF08958091F3089091BD
:10291000F4081092F4081092F3088A9708F40895C6
:102920008091A0099091A109811521E0920729F0D9
:102930008115924009F475C008952091B209309133
:10294000B30980918809909189092817390709F0FE
:1029500083C02091B4093091B50980918A09909182
:102960008B092817390709F077C062EA79E088EA0D
:1029700099E0F9DE80E092E09093A1098093A009AC
:1029800086E0E2EAF9E0ACEAB9E001900D928A95BE
:10299000E1F786E0E4E6F7E0A2EAB9E001900D9203
:1029A0008A95E1F786E0E4E6F7E0A2E9B9E0019074
:1029B0000D928A95E1F786E0ECEAF9E0ACE8B9E03F
:1029C00001900D928A95E1F78091A8099091A9094B
:1029D0009093B3098093B2098091AA099091AB09B1
:1029E0009093B5098093B4098091880990918909E1
:1029F0009093A9098093A80980918A0990918B09E5
:102A00009093AB098093AA0988E096E09093990986
:102A1000809398098AE290E09093F4088093F308F9
:102A200008952091B2093091B3098091880990915D
:102A300089092817390781F42091B4093091B50923
:102A400080918A0990918B092817390729F462EA45
:102A500079E088EA99E087CE08952091AA0930911B
:102A6000AB092F3F4FEF340751F48091AC0990919F
:102A7000AD09019621F486E0E7E4F5E0C6C0809157
:102A80008809909189098227932740918409509160
:102A9000850984239523892B91F44091AC095091A9
:102AA000AD0980918A0990918B09842795276091BF
:102AB00086097091870986239723892B89F0809155
:102AC00080099091810990936F0780936E078091A0
:102AD000820990918309909371078093700708C0D1
:102AE00030936F0720936E075093710740937007E0
:102AF00080916E0790916F07209170073091710758
:102B000060E07BE0683090F4769FF0011124EE588D
:102B1000F84F408151818417950731F442815381E8
:102B20002417350709F46DC06F5FECCF60936D0714
:102B3000683009F068C046E050E06FEF70E08CE864
:102B400099E00E940D2F26E0ECEAF9E0DF01422F28
:102B50001D924A95E9F7E4E6F7E0A2E9B9E0822F91
:102B600001900D928A95E1F7E4E6F7E0A2EAB9E078
:102B7000822F01900D928A95E1F780916E079091D6
:102B80006F079093B3098093B20980917007909179
:102B900071079093B5098093B40980918809909149
:102BA00089099093A9098093A80980918A09909135
:102BB0008B099093AB098093AA0980E091E09093F0
:102BC000A1098093A00990939B0980939A0988E0BA
:102BD00090E090939D0980939C0920939E0984E046
:102BE00080939F0988E096E09093990980939809D3
:102BF00082EC99E09093FD088093FC088AE290E0D3
:102C00001EC060936D07349686E0ACE8B9E0019091
:102C10000D928A95E1F786E0E4E6F7E0A2E9B9E0F3
:102C200001900D928A95E1F788E090E090939909E0
:102C3000809398098091F3089091F4080E969093F0
:102C4000F4088093F30808950F9300E020E040E03B
:102C500060E08AEC97E00E94EC260F9108950F93B4
:102C600000E020E040E060E080ED97E00E94EC268C
:102C70000F910895DC01ED91FC91008CF18DE02D18
:102C8000199591E08927089580E090E00895DC018E
:102C90001C96ED91FC911D97309741F0818188231E
:102CA00011F081E00895808184FDFBCF80E00895DC
:102CB000FC01448555854115510551F0FB012485E2
:102CC00035852115310521F081E04217530709F0C0
:102CD00080E00895CF93DF931F92CDB7DEB7DC017C
:102CE000ED91FC910088F189E02D41E050E0BE01BA
:102CF0006F5F7F4F199597FD03C0898190E002C0F7
:102D00008FEF9FEF0F90DF91CF910895CF93DF93D7
:102D1000EC01A9D3EC85FD85309749F0808186FDD3
:102D200002C081E005C08181882311F0FACF80E0E4
:102D3000DF91CF910895CF92DF92EF92FF920F93A0
:102D40001F93CF93DF9300D01F92CDB7DEB77C01E6
:102D50008B016A01DC01ED91FC910288F389E02D81
:102D60001995F801228130E0322F22278381282B08
:102D70003227232732273A832983248130E0322FD8
:102D800022278581282B3227232732273C832B8338
:102D9000C601D1DCBC01CE0101960E944C0D8C0114
:102DA000009719F480E090E016C0D80159968C91F4
:102DB0008F70C1F358D3D80159968C9159978F7061
:102DC000833099F75C968D919C915D97F70195877B
:102DD000848781E090E00F900F900F900F90DF912B
:102DE000CF911F910F91FF90EF90DF90CF900895BA
:102DF0000F931F93CF93DF931F92CDB7DEB78C0154
:102E0000DC01ED91FC910688F789E02D1995882366
:102E1000A1F0D8011C96ED91FC911D97818188232A
:102E200061F021E030E0AE014F5F5F4F60E070E0A5
:102E30000E94E609898190E002C08FEF9FEF0F901A
:102E4000DF91CF911F910F910895FC01138212829F
:102E500048EE53E060E070E04483558366837783F7
:102E600081E595E091838083158614860895EF921D
:102E7000FF920F931F93CF93DF937C01C0E0D0E0CC
:102E800000E010E0F701EC0FFD1F81810E94510866
:102E9000080F191F2196C530D105A1F7C801DF9190
:102EA000CF911F910F91FF90EF900895CF93DF93F3
:102EB000EC01E881F9810688F789E02D19958823CE
:102EC00029F08C859D85DF91CF91D1CF80E090E076
:102ED000DF91CF910895CF93DF93E6EDF7E080E0A7
:102EE000908191110AC08061DF018D9380E1ED0135
:102EF00019928A95E9F7CF0106C08F5F71968430E9
:102F000079F780E090E0DF91CF910895FC01319650
:102F100081E09191911102C0815008958F5F8530B9
:102F2000C1F784E008959F92AF92BF92CF92DF9253
:102F3000EF92FF920F931F93CF93DF93EC016B01FE
:102F40007A018A015C0186E0A80EB11C8CD2209720
:102F500009F445C08881807609F041C0C501D6DFFB
:102F6000982EFE01E80FF11D868181110CC080E0D2
:102F700092E00E94FA0BFE01E90DF11D8683882381
:102F800029F31C861B86A701401B510B4C0D5D1DB0
:102F90006B857C859801FE01E90DF11D86810E94FB
:102FA000F609081B190B2B853C85280F391F3C8718
:102FB0002B87101611062CF484E0981639F293949E
:102FC000D6CF0E94E628665F7F4F8F4F9F4F6D8759
:102FD0007E878F87988BC701801B910B02C08FEF74
:102FE0009FEFDF91CF911F910F91FF90EF90DF90B6
:102FF000CF90BF90AF909F900895CF93DF931F9293
:10300000CDB7DEB7698341E050E0BE016F5F7F4F0F
:10301000FC018485958587DF0F90DF91CF9108951E
:10302000FC01848595857FCF0F931F93CF93DF930A
:103030008C01EC0189910E94980CF801C80104965A
:1030400029912193E817F907D9F7F8011482DF9144
:10305000CF911F910F9108959F92AF92BF92CF92FF
:10306000DF92EF92FF920F931F93CF93DF93EC01C8
:103070005B017A01E881F9810688F789E02D1995CD
:10308000882309F455C0EC85FD858181882309F4E6
:1030900052C087012EE1922EA701401B510B4A0D11
:1030A0005B1DEC85FD85980160E070E081810E94E8
:1030B000E6096C01EC85FD8581810E945108EC8553
:1030C000FD85C816D90649F50C191D09CF010196D1
:1030D000ABDFAC85BD852C91822F90E08F70989EE0
:1030E000F001999EF00D1124E050F74F818D84FF7F
:1030F00005C0822F807611F420682C93EC85FD8525
:10310000818181110FC0808186FF03C010821D86DE
:103110001C86C701801B910B10C0B60181810E94E3
:10312000BA0C04C00115110509F0B6CFC70105C0DE
:103130008FEF9FEF02C080E090E0DF91CF911F9171
:103140000F91FF90EF90DF90CF90BF90AF909F9046
:1031500008951F93CF93DF93EC0115E088810E94BF
:10316000980C19921150D1F7DF91CF911F910895CA
:10317000CF93DF93EC018C859D85009779F0FC015E
:103180002081222359F00196E4DFEC85FD858081C2
:1031900086FF02C0108202C0806280831D861C866A
:1031A000DF91CF9160C1CF93DF93EC01E881F9818A
:1031B0000688F789E02D1995882331F08C859D8547
:1031C0000196DF91CF91C5CFDF91CF910895DF9226
:1031D000EF92FF920F931F93CF93DF93E091FE083E
:1031E000F091FF08C48DD58D209779F48091FB086C
:1031F00086FF43C070DEEC01009709F43EC0E09109
:10320000FE08F091FF08958F848F8091FB0881FF65
:1032100007C08091F3089091F408892B09F041C010
:10322000888187FF0EC08F7788838091FB0882603A
:103230008093FB08E091FE08F091FF08818D8F7E5E
:10324000818F8091FB0884FF6BC0CE01069681DFE1
:103250008981882309F467C0E091FE08F091FF0896
:10326000848195819F838E83888180648883E091A7
:10327000FE08F091FF08158E148EE12CF12CB70199
:103280008091FC089091FD085ADAF092F408E092DF
:10329000F308DF91CF911F910F91FF90EF90DF9096
:1032A00008958881807609F0BBCFE12CF12C8E0146
:1032B0000E0D1F1DF801818181111EC08091F30840
:1032C0009091F4080E94FA0BF80181838823A1F001
:1032D0000091F3081091F4082091FC083091FD084A
:1032E0002C58394040912E0860E070E00E94D30ACB
:1032F000F4E0EF1295CF0CC02FEFE21AF20A35E09E
:10330000E316F104A1F680912B088E7F80932B08A1
:10331000E091FE08F091FF08818D8061818F80CF60
:1033200087FF03C092CF1882A2CF80FF03C0CE01D7
:1033300006967ADE8091FB088C70D1F18E8188230D
:10334000B9F19F8191110CC0EB84FC84E114F1046C
:1033500009F493CFA70160E070E00E94CD0C06C095
:103360000E9451087C01009709F487CF8091FC08E6
:103370009091FD088C58994080932C08F701E80F34
:10338000F11DCF010E94FA0B80932D08882309F4C8
:1033900076CF60912C0870E0870120E030E04E810C
:1033A0000E94D30A80912B08826080932B0867CFFC
:1033B000888185FF62CF8E8181110BC01882E091D8
:1033C000FE08F091FF08158E148E80E18093FB08B3
:1033D00054CFE091FE08F091FF08818D8061818FCC
:1033E0004CCF0F9300E020E040E060E08AE198E0FD
:1033F0000E94EC260F91089580912B0881FF11C047
:1034000020912C0830E04CE859E060E070E08091B9
:103410002D080E94F60980912B088D7F80932B0840
:1034200014C08091F3089091F4080E94FA0B8093E5
:103430002D088823B1F02091F3083091F4084CE86E
:1034400059E060E070E00E94F60980912D080E942A
:10345000500A80912D080E94980C10922D0881E04E
:10346000089580E00895CF92DF92EF92FF921F932C
:10347000CF93DF9380912E08811104C00E945809D8
:1034800080932E0880912E08882309F443C091E090
:1034900090932B080E9451089093F4088093F308AE
:1034A000892B61F122E630E04CE859E060E070E001
:1034B00080912E080E94E6098091980990919909BF
:1034C0008830910581F480912E0880932D08EAD9E7
:1034D00081E00E94D00D8091F3089091F408892B2F
:1034E00069F0BBDA0AC08830964041F40EDA809168
:1034F000F3089091F408892B09F07EDF80912E0863
:10350000882341F080912B0880FF04C00E94570956
:1035100010922E080E94E6286B017C018091210800
:1035200090912208A0912308B0912408A701960148
:10353000281B390B4A0B5B0BDA01C901809590956A
:10354000A095B0958827B7FD83959927AA27BB2713
:10355000182FC0E0D9E0D093FF08C093FE081123D4
:1035600011F082E00FC0EC8DFD8D45855685678595
:103570007089D701C601841B950BA60BB70BB7FD4D
:103580000BC083E00E94D00D2091F3083091F40825
:10359000232B11F062DA30DF6E9699E0C837D90735
:1035A000D1F6112369F0AAEFCA0ED11CE11CF11C5F
:1035B000C0922108D0922208E0922308F0922408B9
:1035C000DF91CF911F91FF90EF90DF90CF90089502
:1035D000CF93DF93EC010E94E62866507F4F8F4F18
:1035E0009F4F609321087093220880932308909343
:1035F0002408CE010E941A0B888180936407898178
:10360000809365078A81809366078B818093670723
:103610008C81809368078D81809369070E942C0DAF
:10362000DF91CF912AC9CF93DF93FC01DA01E90141
:10363000228130E0322F22278381282B848190E061
:10364000982F88274581842B3227232732273093D0
:1036500089092093880998278927982790938B09AF
:1036600080938A0912962C91129730E0322F2227EC
:1036700013968C911397282B14968C91149790E0A5
:10368000982F882715964C91842B32272327322791
:103690003093810920938009982789279827909350
:1036A0008309809382092A8130E0322F22278B817F
:1036B000282B8C8190E0982F88274D81842B3227EE
:1036C0002327322730938509209384099827892757
:1036D00098279093870980938609FB0182819381C3
:1036E000A481B5818093270890932808A093290886
:1036F000B0932A08DF91CF910895AF92BF92CF92F5
:10370000DF92EF92FF920F931F93CF93DF93CDB78A
:10371000DEB768970FB6F894DEBF0FBECDBFCB0102
:103720006A01590155DF21E835E03A832983F70121
:1037300082819381A481B5818B839C83AD83BE8379
:1037400038872F83F80182819381A481B58189878D
:103750009A87AB87BC873E872D87F501828193814D
:10376000A481B5818F87988BA98BBA8B3C8B2B8BCF
:10377000F60182819381A481B5818D8B9E8BAF8B65
:10378000B88F9E012F5F3F4FAE01495F5F4FBE0173
:10379000635F7F4FCE01439646DF68960FB6F8947D
:1037A000DEBF0FBECDBFDF91CF911F910F91FF9074
:1037B000EF90DF90CF90BF90AF9008956F927F927F
:1037C0008F929F92AF92BF92CF92DF92EF92FF9231
:1037D0000F931F93CF93DF93CDB7DEB76E970FB6DE
:1037E000F894DEBF0FBECDBF6C015B017A014901C9
:1037F000380100E02FEF4FEF6FEFCE0149960E94A6
:10380000EC2621E835E03A8329838B8D9C8DAD8DA4
:10381000BE8D8B839C83AD83BE8338872F83F3015A
:1038200082819381A481B58189879A87AB87BC8780
:103830003E872D87F40182819381A481B5818F8792
:10384000988BA98BBA8B3C8B2B8BF70142815381D0
:10385000648175814D8B5E8B6F8B788FCE01019665
:103860007C018E01095F1F4F9E01235F3F4FAE0118
:103870004D5E5F4FB501C60140DF6E960FB6F894FE
:10388000DEBF0FBECDBFDF91CF911F910F91FF9093
:10389000EF90DF90CF90BF90AF909F908F907F90F0
:1038A0006F900895CF92DF92EF92FF920F931F9344
:1038B000CF93DF93CDB7DEB768970FB6F894DEBF2E
:1038C0000FBECDBF6B017901DA0112964D915D916A
:1038D0006D917C9115974D8B5E8B6F8B788FA1E8E6
:1038E000B5E0BA83A98321E0288F0D891E892F892D
:1038F000388D0B831C832D833E83B887AF83F701FC
:10390000028113812481358109871A872B873C879F
:10391000BE87AD874F87588B698B7A8B8E010F5F7F
:103920001F4F9E01295F3F4FAE01435F5F4FB601BE
:1039300045DF68960FB6F894DEBF0FBECDBFDF91AE
:10394000CF911F910F91FF90EF90DF90CF9008954E
:103950000F931F93CF93DF93CDB7DEB762970FB668
:10396000F894DEBF0FBECDBFDB01FA014281538167
:10397000648175814F87588B698B7A8BE1E8F5E01C
:10398000FA83E98321E02A8B0F85188929893A89EE
:103990000B831C832D833E83F887EF8349875A87E7
:1039A0006B877C879E012F5F3F4FAE01495F5F4F62
:1039B000BD0178DF62960FB6F894DEBF0FBECDBFB3
:1039C000DF91CF911F910F910895FB014150510953
:1039D000460F571FE417F50778F4208130E0322FA7
:1039E00022276181260F311D820F931F82179307B3
:1039F00008F401963296EECFE417F50751F42081D2
:103A000030E0322F2227820F931F8217930708F48A
:103A10000196089544E150E06AE979E080E090E0A1
:103A2000D4DF009711F00C949B138FEF9FEF089554
:103A30000F931F93CF93DF9380919C0990E0982F71
:103A4000882720919D09820F911D8C010451110935
:103A500048E050E066EA79E00E97B7DFC091BA0916
:103A6000C695C695CC73D0E0AE016EEA79E0ADDFC5
:103A7000C017D10750F498012C1B3D0BAE014E5DD1
:103A80005F4F60912D080E94A10B009731F0DF91EC
:103A9000CF911F910F910C949B138FEF9FEFDF91AC
:103AA000CF911F910F910895B5CF0F9300E020E0C3
:103AB00040E060E08FE298E00E94EC2685E298E02A
:103AC0000F910C94E2260F9300E020E040E060E0CC
:103AD00085E398E00E94EC260F9108950F9300E093
:103AE00020E040E060E08BE398E00E94EC260F913C
:103AF0000895FC0110820895CF92DF92EF92FF9219
:103B0000CF93DF93EC016A017B018B859C85AD85AA
:103B1000BE859A01AB01281B390B4A0B5B0BDA01FE
:103B2000C90149815A816B817C8184179507A60759
:103B3000B707D8F08881813019F0823029F00CC0A5
:103B4000E985FA85199508C061E08885811160E0F2
:103B500068878F810E94332ACB86DC86ED86FE86BD
:103B60008F8598890196988B8F878D819E8197FD8F
:103B700006C02F853889281739070CF01882DF9185
:103B8000CF91FF90EF90DF90CF9008950F931F9308
:103B9000CF93DF93EC018C0106551F4FCE01A9DFB7
:103BA0006196C017D107D1F7DF91CF911F910F9187
:103BB0000895CF92DF92EF92FF921F93CF93DF93FE
:103BC0006A017B01EC011AE08881882321F0B701AA
:103BD000A601CE0191DF115061961111F5CFDF9151
:103BE000CF911F91FF90EF90DF90CF900895CF93EA
:103BF000DF93EC010E94E628AB01BC01CE01DF910E
:103C0000CF91D7CF20E0FC013081332331F02F5FFB
:103C100041962A30C1F78FEF0895822F0895CF92F1
:103C2000DF92EF92FF920F931F93CF93DF9300D019
:103C30001F92CDB7DEB76C01790149835A836B833C
:103C40007C83E0DF282F49815A816B817C818F3F03
:103C5000D9F081E12802C00CD11C112481E0F601C9
:103C60008083418352836383748316830583F28642
:103C7000E18629830E94E628F60163877487858799
:103C80009687108A17862981822F0F900F900F90A8
:103C90000F90DF91CF911F910F91FF90EF90DF90E8
:103CA000CF9008950F931F930FEF1FEFB8DF1F9171
:103CB0000F910895CF92DF92EF92FF920F931F938F
:103CC000CF93DF93EC018B010E94E6286B017C010E
:103CD00088819981DC01ED91FC910480F581E02DD2
:103CE0001995892B69F40E94E6286C197D098E09C3
:103CF0009F0968397A438105910550F380E00CC033
:103D000088819981DC01ED91FC910680F781E02D9D
:103D10001995F801808381E0DF91CF911F910F9178
:103D2000FF90EF90DF90CF9008950F931F93CF9364
:103D3000DF93EA0108811981600F711FBBDF8823BF
:103D400031F00F5F1F4F1983088381E001C080E0CD
:103D5000DF91CF911F910F9108953F924F925F9203
:103D60006F927F928F929F92AF92BF92CF92DF928B
:103D7000EF92FF920F931F93CF93DF9300D0CDB7B5
:103D8000DEB78C016B011A8219825C0182E0A80EF9
:103D9000B11CAE014F5F5F4FB501C801C6DF811195
:103DA00003C080E090E0B9C0D80112969C901B82BD
:103DB000E12CF12C412C512C32014394BE016D5F5A
:103DC0007F4FC80177DF882361F329813A81C901D8
:103DD00001969A8389836B81F801E20FF31F628356
:103DE000462F4F7750E0449D9001459D300D549DE6
:103DF000300D1124E20EF31E97E0440C551C661C96
:103E0000771C9A95D1F767FDD9CF292D207F3324D0
:103E10003394203309F0312C8150F6018083332014
:103E200031F1AE014F5F5F4FB501C8017EDF8823DE
:103E300009F4B7CFAE014F5F5F4FB501C80175DF21
:103E4000882309F4AECFD6018C91F801E80FF11D5B
:103E50004380512C542C44248481480E511CF80179
:103E6000828181FF08C0F2E04F0E511C04C080E047
:103E7000412C512C01C082E0A82EB12C612C712C58
:103E8000480189E9880E911CC3018A0D9B1D8E157E
:103E90009F0598F5BE016D5F7F4FC8010BDF88233A
:103EA00009F47FCFD4018D919C910097A9F0332024
:103EB00099F029813A8122503109F6014081241B71
:103EC00031094216530640F4DC01ED91FC9101905A
:103ED000F081E02D6B81199589819A818038910557
:103EE00028F42B81F801E80FF91F228301969A83A9
:103EF0008983BFEF6B1A7B0AC7CFF801E756FF4FE4
:103F000080819181892B39F489819A818138910549
:103F100010F01A82198289819A810F900F900F9068
:103F2000DF91CF911F910F91FF90EF90DF90CF9095
:103F3000BF90AF909F908F907F906F905F904F90C9
:103F40003F900895AF92BF92CF92DF92EF92FF928F
:103F50000F931F93CF93DF9300D01F92CDB7DEB79F
:103F60007C01F90180E09E2F9F77EE0FEF2FEE1F6F
:103F7000FF0BF195309709F09068A1E0B0E0AC0F2D
:103F8000BD1FA80FB11D9C938F5F309761F7A82EBE
:103F9000B12CDA01AA19BB0914966C93BE016F5FAC
:103FA0007F4F80E090E04A195B098A159B0554F425
:103FB000FB01D190BF018A01080F191FF801D582BA
:103FC0000196F3CFF7018081918189010F5F1F4F27
:103FD0000A0D1B1DFC0120813181F90122813381F1
:103FE000A801BD01F90119956C010E94E628F701AD
:103FF000EC57FF4F608371838283938381E0C01607
:10400000D10609F080E00F900F900F900F90DF9194
:10401000CF911F910F91FF90EF90DF90CF90BF90C5
:10402000AF900895C9010296DB01FD01E61BF70B75
:104030002D91222331F0FA01E80FF91F2083019618
:10404000F4CF9C012E1B3F0B240F351FD901129773
:10405000FC931196EC930895CF93DF93EC01888144
:104060009981009731F1DC01ED91FC910488F5898B
:10407000E02D199581111FC0FE01E556FF4F80818B
:104080009181892BB1F48DEF9FEF9183808388819B
:104090009981DC01ED91FC910284F385E02D199565
:1040A00088819981DC01ED91FC910288F389E02DF2
:1040B000199580E001C081E0DF91CF9108952F92A2
:1040C0003F924F925F926F927F928F929F92AF92A8
:1040D000BF92CF92EF92FF920F931F93CF93DF93F4
:1040E000CDB7DEB72E970FB6F894DEBF0FBECDBFAB
:1040F0004C011B012A013901AFDF811111C1F4010B
:10410000EB56FF4F60817181D4018D919C91119785
:10411000A956BF4FFC01208131816115710541F025
:104120004D915C91D9011E96ED91FC911F971FC096
:10413000F9010484F585E02DFE87ED87ED91FC9172
:1041400021E835E03A832983D401A157BF4F129665
:104150004D915D916D917C9115974B835C836D833F
:104160007E83AF01BE016F5F7F4FED85FE851995A0
:10417000F4018130910509F0CBC0EE57FF4F9183D8
:10418000808389E0EDE1F2E0DE01119601900D926D
:104190008A95E1F7FE01319680E090E02191D4010B
:1041A000A80FB91F17962C93019689309105B1F786
:1041B0000115110559F0F0E2CF9EC001112486606F
:1041C00028E0E29E700111248E2901C082E0411492
:1041D000510431F06114710411F4806801C0806CE5
:1041E000D40150968C93509751961C9251978FE022
:1041F00052968C937401B2E0EB0EF11C21E130E099
:10420000A701B101C4010EDF0115110551F09C0198
:10421000A701B801C40106DF9C01A701B501C401D3
:1042200001DF4114510469F09C01A701B201C401EE
:10423000F9DE6114710429F09C01A701B301C401E6
:10424000F1DE9C0125503109A70160E1C4017ADE4D
:10425000BDD7F401EC57FF4F608371838283938352
:10426000840108571F4FF801608371838283938311
:10427000F40180819181DC01ED91FC910480F58154
:10428000E02D1995892BB9F4A1D7D8014D905D90F7
:104290006D907C90641975098609970968397A438D
:1042A0008105910528F3F401E556FF4F8CEF9FEF50
:1042B0009183808322C0BE01665F7F4FC4014DDDC4
:1042C0000497D9F4F4018581940125563F4F790173
:1042D00081110FC07BD7D8016D937D938D939C93F3
:1042E0001397F401E457FF4F1082F70111821082F7
:1042F00017C090E0D9018D939C93F4018081918146
:10430000DC01ED91FC910288F389E02D199506C03E
:10431000E556FF4F8EEF9FEF9183808380E001C0D1
:1043200081E02E960FB6F894DEBF0FBECDBFDF91B1
:10433000CF911F910F91FF90EF90CF90BF90AF90D2
:104340009F908F907F906F905F904F903F902F90B5
:104350000895AF92BF92CF92EF920F931F93A12C2B
:10436000B12CC12CE12C00E010E0A9DE1F910F91CF
:10437000EF90CF90BF90AF9008952F923F924F92C1
:104380005F926F927F928F929F92AF92BF92CF92E5
:10439000DF92EF92FF920F931F93CF93DF9300D0A2
:1043A0001F92CDB7DEB78C014DB65EB655DE8823C1
:1043B00009F440C10BD76B017C01580128E8A20E1B
:1043C000B11CF50180819181A281B381A701960181
:1043D000281B390B4A0B5B0BDA01C90189399A4357
:1043E000A105B10590F4349780819181A281B381B8
:1043F000A7019601281B390B4A0B5B0BDA01C90197
:1044000089399A43A105B105C0F148014CE8840EF1
:10441000911CD4012C91F80180819181222371F0AB
:10442000E556FF4F2CEF3FEF31832083DC01ED9108
:10443000FC910288F389E02D1995FCC020ECF8016D
:1044400022831382DC01ED91FC910280F381E02D47
:1044500042E050E0B8016E5F7F4F1995F801EC57CC
:10446000FF4FC082D182E282F382F501C082D18205
:10447000E282F38281E0D4018C93F8018081918102
:10448000DC01ED91FC910480F581E02D1995892BDB
:1044900009F4D2C0BE016F5F7F4FC8015EDCFC0132
:1044A000009709F4C9C0D501CD92DD92ED92FC923E
:1044B0001397D80112968C91807F803309F09FC0AA
:1044C0004801BDE88B0E911CD4018D919C91892BE4
:1044D00009F4B2C02DB63EB6698170E0D801A60FCE
:1044E000B71F13964C91139750E0542F44271496FE
:1044F0008C911497480F511DCA0101962DB73EB7F4
:10450000281B390B0FB6F8943EBF0FBE2DBF8DB7D9
:104510009EB701965C0120E030E0BC83AB8324179A
:10452000350769F06B807C80620E731ED30115968F
:104530006C90D5016D925D012F5F3F4FF0CFDC0194
:10454000A20FB31F1C92D8011296BC91B670BA8309
:10455000B230E9F53901660E771ED801A60DB71DF8
:104560001596AC901597B12CBA2CAA2416964C919E
:10457000A40EB11C4BEF5FEF461B570B421B530BB6
:104580004E0F5F1FB301695F7F4F600F711FD40132
:10459000ED91FC91199580E4F80182837A80738211
:1045A000B482A582D8018D919D91BD01DC01ED9170
:1045B000FC910280F381E02D44E050E01995F80170
:1045C000EC57FF4FC082D182E282F38212C04DEFDE
:1045D0005FEF461B570B421B530B4E0F5F1F620FC3
:1045E000731F6B5F7F4F600F711FD401ED91FC91C2
:1045F00019950FB6F8943EBE0FBE2DBE1DC0803C6F
:1046000091F480EDF80182831382D8018D919D9100
:10461000BD01DC01ED91FC910280F381E02D42E0CF
:1046200050E0199509C0803D39F4F801E457FF4F77
:10463000108202C080E001C081E00FB6F8945EBE37
:104640000FBE4DBE0F900F900F900F90DF91CF9146
:104650001F910F91FF90EF90DF90CF90BF90AF90A0
:104660009F908F907F906F905F904F903F902F9092
:1046700008958F929F92BF92CF92DF92EF92FF9216
:104680000F931F93CF93DF931F921F92CDB7DEB787
:104690004C01B42E152F790169837A83DDDC6981A1
:1046A0007A81882309F444C0FB0101900020E9F7D6
:1046B0003197E61BF70BC70107968E0F9F1F8138B6
:1046C0009105B0F5640182E0C80ED11C25E030E010
:1046D000A601C401A7DCEB2DF12F60E070E094018E
:1046E000280F391F6E157F0549F04191D901A60F9A
:1046F000B71F12964C936F5F7F4FF4CF011102C02A
:1047000060E301C061E3970125503109280F391F8B
:10471000A601C4010F900F90DF91CF911F910F91CF
:10472000FF90EF90DF90CF90BF909F908F900ACC3A
:1047300080E00F900F90DF91CF911F910F91FF902C
:10474000EF90DF90CF90BF909F908F9008950F9340
:10475000FA0101900020E9F79F0121503109241B43
:10476000350B00E086DF0F910895CF92DF92FF9224
:104770000F931F93CF93DF931F921F92CDB7DEB796
:104780006C01F42E81E0841708F43EC0FB01019017
:104790000020E9F7E61BF70B3896E138F105A0F5A4
:1047A000C60169837A8358DC69817A81882361F143
:1047B000F601EE57FF4F80819181019611F481E05F
:1047C00090E09183808380819181F6019783808737
:1047D00086010E5F1F4F27E030E0A801C60122DCF2
:1047E000F601E80FF91FF2829C0124503109A8015B
:1047F00062E8C6010F900F90DF91CF911F910F914A
:10480000FF90DF90CF909ECB80E00F900F90DF91D4
:10481000CF911F910F91FF90DF90CF90089540E0CE
:10482000A4CFCF92DF92EF92FF920F931F93CF937B
:10483000DF93CDB7DEB72C970FB6F894DEBF0FBE6F
:10484000CDBF7C01FB016A0103812281418160812E
:10485000CE010796C1D209851A852B853C85F701C3
:10486000E157FF4F02831383248335833896D18227
:10487000C082329711821082C7012C960FB6F8942D
:10488000DEBF0FBECDBFDF91CF911F910F91FF9083
:10489000EF90DF90CF900895CF92DF92EF92FF924A
:1048A0000F931F93CF93DF9300D01F92CDB7DEB746
:1048B0006C01790181579F4F4B835C8369837A83B5
:1048C00081D2F601E556FF4F8FEF9FEF91838083F2
:1048D0004B815C8169817A81C601A3DFF601E357D0
:1048E000FF4FF182E082F60111830083E756FF4F0C
:1048F000118210820F900F900F900F90DF91CF9147
:104900001F910F91FF90EF90DF90CF9008950F933C
:1049100000E020E040E060E081E498E05DD20F91AB
:104920000895FC01818D228D90E0805C9F4F821B59
:1049300091098F7399270895FC01918D828D9817A5
:1049400031F0828DE80FF11D858D90E008958FEF95
:104950009FEF0895FC01918D828D981761F0828DF3
:10496000DF01A80FB11D5D968C91928D9F5F9F73A3
:10497000928F90E008958FEF9FEF08958FE596E274
:10498000892B39F080E090E0892B19F098D18111C2
:1049900025C080E090E0892B41F080E090E0892BF9
:1049A00021F00E94000081111CC080E090E0892B62
:1049B00041F080E090E0892B21F00E9400008111FD
:1049C00013C080E090E0892BA1F080E090E0892B7B
:1049D00081F00E94000081110AC008950E94000029
:1049E000D8CF0E940000E1CF0E940000EACF0C94D3
:1049F00000000895FC01848DDF01A80FB11DA35AAA
:104A0000BF4F2C91848D90E001968F739927848FEE
:104A1000A689B7892C93A089B1898C9180648C93E5
:104A2000938D848D981306C00288F389E02D8081D0
:104A30008F7D80830895CF93DF93EC01888D882349
:104A4000C1F0EA89FB89808185FD05C0A889B98903
:104A50008C9186FD0EC00FB607FCF5CF808185FFD7
:104A6000F2CFA889B9898C9185FFEDCFCE01C2DF45
:104A7000E8CFDF91CF910895CF92DF92FF920F930D
:104A80001F93CF93DF931F92CDB7DEB76C0181E008
:104A9000D60158968C9358975B969C915B975C9641
:104AA0008C915C97981307C05096ED91FC915197AB
:104AB000808185FD2DC0F601038D10E00F5F1F4F33
:104AC0000F731127F02EF601848DF81210C00FB667
:104AD00007FCF9CFD6015096ED91FC91519780815A
:104AE00085FFF1CFC601698385DF6981ECCF838DB6
:104AF000E80FF11DE35AFF4F6083D6015B960C93DC
:104B00005B975296ED91FC915397808180620CC027
:104B1000D6015696ED91FC91579760835096ED9192
:104B2000FC91519780818064808381E090E00F90B8
:104B3000DF91CF911F910F91FF90DF90CF9008955B
:104B4000BF92CF92DF92EF92FF92CF93DF93EC016F
:104B50006A017B01B22EE889F98982E080834115E0
:104B600081EE58076105710599F060E079E08DE309
:104B700090E0A701960157D621503109410951090A
:104B80005695479537952795211580E1380790F080
:104B9000E889F989108260E874E88EE190E0A70165
:104BA000960141D621503109410951095695479541
:104BB00037952795EC85FD853083EE85FF8520832D
:104BC000188EEC89FD89B082EA89FB898081806139
:104BD0008083EA89FB89808188608083EA89FB89F8
:104BE000808180688083EA89FB8980818F7D8083D2
:104BF000DF91CF91FF90EF90DF90CF90BF9008951D
:104C00001F920F920FB60F9211240BB60F922F9393
:104C10008F939F93EF93FF93E0915708F09158087B
:104C20008081E0915D08F0915E0882FD12C0908164
:104C3000809160088F5F8F7320916108821751F017
:104C4000E0916008F0E0E95BF74F958F8093600892
:104C500001C08081FF91EF919F918F912F910F90D3
:104C60000BBE0F900FBE0F901F9018951F920F92C2
:104C70000FB60F9211240BB60F922F933F934F93C1
:104C80005F936F937F938F939F93AF93BF93EF93B4
:104C9000FF9387E498E0AEDEFF91EF91BF91AF9173
:104CA0009F918F917F916F915F914F913F912F9144
:104CB0000F900BBE0F900FBE0F901F90189587E4BA
:104CC00098E02FDE21E0892B09F420E0822F08955F
:104CD00010924A081092490888EE93E0A0E0B0E0F4
:104CE00080934B0890934C08A0934D08B0934E08C6
:104CF00081E795E0909348088093470885EC90E021
:104D0000909354088093530884EC90E09093560855
:104D10008093550880EC90E0909358088093570852
:104D200081EC90E090935A088093590882EC90E0CF
:104D300090935C0880935B0886EC90E090935E080B
:104D400080935D08109260081092610810926208CA
:104D5000109263080895AF92BF92CF92DF92EF92C4
:104D6000FF920F931F93CF93DF936C017B01C0E001
:104D7000D0E000E010E0F601EC0FFD1F4AE050E04B
:104D80006281C701ECD05C016EE2C7017ED08A0D62
:104D90009B1D080F191F2196C330D10561F74AE00A
:104DA00050E0F6016581C701DAD0800F911FDF91D5
:104DB000CF911F910F91FF90EF90DF90CF90BF9018
:104DC000AF90089521E835E0FC0131832083128201
:104DD00013821482158208950F93FC0181E895E0F7
:104DE0009183808362834383248305830F91089595
:104DF00081E895E09093E5088093E4081092E60836
:104E00001092E7081092E8081092E9080895CF92EE
:104E1000DF92EF92FF920F931F93CF93DF936C017A
:104E20007A01EB01E60EF71E00E010E0CE15DF057B
:104E300061F06991D601ED91FC910190F081E02D36
:104E4000C6011995080F191FF1CFC801DF91CF9145
:104E50001F910F91FF90EF90DF90CF900895611513
:104E6000710581F0DB010D900020E9F7AD014150A3
:104E70005109461B570BDC01ED91FC910280F38137
:104E8000E02D199480E090E00895DC01ED91FC9113
:104E90000190F081E02D19948F929F92AF92BF9272
:104EA000CF92DF92EF92FF920F931F93CF93DF93F6
:104EB000CDB7DEB7A1970FB6F894DEBF0FBECDBF5A
:104EC0007C01C42EE52FCB01D22E19A221E02D1595
:104ED00010F02AE0D22E8E010F5D1F4F8D2C912CE9
:104EE000A12CB12C6C2D7E2FA50194019CD48C2D6E
:104EF000D29E80191124015011098A3014F4805D6A
:104F000001C0895CF80180832115310541055105F7
:104F100021F0C22EE32FCA01E5CFB801C7019FDF00
:104F2000A1960FB6F894DEBF0FBECDBFDF91CF9133
:104F30001F910F91FF90EF90DF90CF90BF90AF90B7
:104F40009F908F9008952115310541F4DC01ED917A
:104F5000FC910190F081E02D642F19949DCF9A016E
:104F6000462F50E060E070E0EECFCF93DF9300D0AB
:104F70001F92CDB7DEB79B01AC01611571058105AC
:104F8000910559F069833A834B835C833ED629812E
:104F90003A814B815C8169D403C060E070E0CB0151
:104FA0000F900F900F900F90DF91CF910895CF92B7
:104FB000DF92EF92FF926B017C0162177307840707
:104FC00095075CF4CA01B9016C197D098E099F0926
:104FD000CCDF6C0D7D1D8E1D9F1DFF90EF90DF902F
:104FE000CF900895FC018081918136C5CF93DF93E6
:104FF000EC0188819981009709F02ED519821882D9
:105000001D821C821B821A82DF91CF9108950F931B
:105010001F93CF93DF93EC018B016F5F7F4F8881EC
:105020009981FFD5009731F0998388831B830A8388
:1050300081E001C080E0DF91CF911F910F91089531
:10504000CF93DF93EC0188819981892B29F08A81A4
:105050009B818617970758F4CE01D9DF882341F04A
:105060008C819D81892B19F4E881F981108281E07E
:10507000DF91CF910895EF92FF920F931F93CF93FB
:10508000DF93EC017B018A01BA01DADF811103C0F1
:10509000CE01ACDF06C01D830C83B70188819981E6
:1050A000CCD6CE01DF91CF911F910F91FF90EF9061
:1050B0000895FC01118210821382128215821482DB
:1050C0006115710551F0FB0101900020E9F7AF0176
:1050D00041505109461B570BCECF0895FC01248146
:1050E0003581232B31F421E06115710599F0FB0125
:1050F00008C0FC01808191816115710531F421E0C6
:10510000FC018081882331F004C08ED621E0892BF8
:1051100009F020E0822F089568D60895B6D0FDDF0B
:105120000E940E02CEEBD4E20E9466022097E1F3C9
:1051300025DCFACFF9C390C41F920F920FB60F92DD
:1051400011242F933F938F939F93AF93BF9380919D
:10515000EB089091EC08A091ED08B091EE08309129
:10516000EA0823E0230F2D3720F40196A11DB11D7D
:1051700005C026E8230F0296A11DB11D2093EA0861
:105180008093EB089093EC08A093ED08B093EE08A1
:105190008091EF089091F008A091F108B091F20889
:1051A0000196A11DB11D8093EF089093F008A09384
:1051B000F108B093F208BF91AF919F918F913F9109
:1051C0002F910F900FBE0F901F9018952FB7F89446
:1051D0006091EB087091EC088091ED089091EE08D9
:1051E0002FBF08953FB7F8948091EF089091F00891
:1051F000A091F108B091F20826B5A89B05C02F3FF9
:1052000019F00196A11DB11D3FBF6627782F892F88
:105210009A2F620F711D811D911D42E0660F771F4D
:10522000881F991F4A95D1F70895CF92DF92EF9288
:10523000FF92CF93DF936B017C01D4DFEB01C114AC
:10524000D104E104F10479F06BD1CCDF6C1B7D0B50
:10525000683E7340A0F381E0C81AD108E108F10864
:10526000C851DC4FECCFDF91CF91FF90EF90DF90F2
:10527000CF9008958230910538F0880F991F880FDC
:10528000991F05970197F1F70895789484B5826086
:1052900084BD84B5816084BD85B5826085BD85B5DA
:1052A000816085BDEEE6F0E0808181608083E1E889
:1052B000F0E01082808182608083808181608083C1
:1052C000E0E8F0E0808181608083E1EBF0E08081C4
:1052D00084608083E0EBF0E0808181608083E1E99D
:1052E000F0E0808182608083808181608083E0E95A
:1052F000F0E0808181608083E1EAF0E0808182607B
:105300008083808181608083E0EAF0E08081816039
:105310008083E1E2F1E0808182608083808181602E
:105320008083E0E2F1E0808181608083EAE7F0E061
:1053300080818460808380818260808380818160BD
:1053400080838081806880831092C100089590E0FE
:10535000FC013197E231F10508F04BC0E658FF4FF0
:10536000A0C2809180008F7703C0809180008F7DE4
:1053700080938000089580918000877FF9CF84B565
:105380008F7702C084B58F7D84BD08958091B00071
:105390008F7703C08091B0008F7D8093B000089517
:1053A000809190008F7707C0809190008F7D03C01F
:1053B00080919000877F8093900008958091A00055
:1053C0008F7707C08091A0008F7D03C08091A000DF
:1053D000877F8093A0000895809120018F7707C078
:1053E000809120018F7D03C080912001877F809371
:1053F00020010895CF93DF9390E0FC01E25AFE4F25
:105400002491FC01EC55FE4F8491882349F190E0F2
:10541000880F991FFC01E25EFD4FA591B4918C5F4E
:105420009D4FFC01C591D4919FB7611108C0F894BC
:105430008C91209582238C93888182230AC06230CC
:1054400051F4F8948C91322F309583238C9388817A
:10545000822B888304C0F8948C91822B8C939FBFFD
:10546000DF91CF9108950F931F93CF93DF931F92F6
:10547000CDB7DEB7282F30E0F901E85EFE4F84910A
:10548000F901E25AFE4F1491F901EC55FE4F0491D7
:105490000023C1F0882319F0698359DF6981E02F67
:1054A000F0E0EE0FFF1FEC5FFD4FA591B4919FB7A9
:1054B000F8948C91611103C01095812301C0812B58
:1054C0008C939FBF0F90DF91CF911F910F91089503
:1054D000CF93DF93282F30E0F901E85EFE4F8491EF
:1054E000F901E25AFE4FD491F901EC55FE4FC491F7
:1054F000CC2389F081112BDFEC2FF0E0EE0FFF1FA2
:10550000E651FE4FA591B4912C912D2381E090E0BE
:1055100021F480E002C080E090E0DF91CF91089517
:1055200008955058BB27AA270ED0DCC0CDD030F04C
:10553000D2D020F031F49F3F11F41EF4C2C00EF41B
:10554000E095E7FBB8C0E92FDED080F3BA17620719
:1055500073078407950718F071F49EF5F6C00EF4F2
:10556000E0950B2EBA2FA02D0B01B90190010C0173
:10557000CA01A0011124FF27591B99F0593F50F48B
:10558000503E68F11A16F040A22F232F342F4427E3
:10559000585FF3CF469537952795A795F0405395DB
:1055A000C9F77EF41F16BA0B620B730B840BBAF0AB
:1055B0009150A1F0FF0FBB1F661F771F881FC2F716
:1055C0000EC0BA0F621F731F841F48F4879577952A
:1055D0006795B795F7959E3F08F0B3CF9395880FE1
:1055E00008F09927EE0F97958795089540D008F415
:1055F00081E00895E89409C097FB3EF4909580956A
:10560000709561957F4F8F4F9F4F9923A9F0F92F88
:1056100096E9BB279395F695879577956795B79506
:10562000F111F8CFFAF4BB0F11F460FF1BC06F5FEC
:105630007F4F8F4F9F4F16C0882311F096E911C0FE
:10564000772321F09EE8872F762F05C0662371F01F
:1056500096E8862F70E060E02AF09A95660F771F33
:10566000881FDAF7880F9695879597F90895990F0F
:105670000008550FAA0BE0E8FEEF16161706E8071C
:10568000F907C0F012161306E407F50798F0621B3D
:10569000730B840B950B39F40A2661F0232B242B12
:1056A000252B21F408950A2609F4A140A6958FEF31
:1056B000811D811D089597F99F6780E870E060E083
:1056C00008959FEF80EC089500240A94161617069B
:1056D00018060906089500240A94121613061406E3
:1056E00005060895092E0394000C11F4882352F046
:1056F000BB0F40F4BF2B11F460FF04C06F5F7F4FFE
:105700008F4F9F4F089557FD9058440F551F59F0E4
:105710005F3F71F04795880F97FB991F61F09F3F9E
:1057200079F087950895121613061406551FF2CFC7
:105730004695F1DF08C0161617061806991FF1CF17
:1057400086957105610508940895E894BB2766273E
:105750007727CB0197F908958ADF08F48FEF089532
:105760000BD0C0CFB1DF28F0B6DF18F0952309F0D9
:10577000A2CFA7CF1124EACFC6DFA0F3959FD1F324
:10578000950F50E0551F629FF001729FBB27F00DEF
:10579000B11D639FAA27F00DB11DAA1F649F662744
:1057A000B00DA11D661F829F2227B00DA11D621F93
:1057B000739FB00DA11D621F839FA00D611D221F4D
:1057C000749F3327A00D611D231F849F600D211D31
:1057D000822F762F6A2F11249F5750408AF0E1F0D4
:1057E00088234AF0EE0FFF1FBB1F661F771F881F1D
:1057F00091505040A9F79E3F510570F05CCFA6CF65
:105800005F3FECF3983EDCF3869577956795B79507
:10581000F795E7959F5FC1F7FE2B880F911D969531
:10582000879597F90895A1E21A2EAA1BBB1BFD01CB
:105830000DC0AA1FBB1FEE1FFF1FA217B307E4076F
:10584000F50720F0A21BB30BE40BF50B661F771FC7
:10585000881F991F1A9469F76095709580959095A7
:105860009B01AC01BD01CF010895052E97FB16F4F5
:1058700000940FD057FD05D0D6DF07FC02D046F4C8
:1058800008C050954095309521953F4F4F4F5F4F41
:10589000089590958095709561957F4F8F4F9F4F9C
:1058A0000895EE0FFF1F0590F491E02D19940DD08F
:1058B000A59F900DB49F900DA49F800D911D112464
:1058C00008950790F691E02D1994A29FB001B39F1F
:1058D000C001A39F700D811D1124911DB29F700DF9
:1058E000811D1124911D0895EF920F931F93CF9363
:1058F000DF93E80147FF02C034E101C034E0E42F48
:10590000FF27E7FDF095F7FF03C0F195E195F10959
:10591000E32E022F2E2FAE0197D2CE01DF91CF9131
:105920001F910F91EF900895CF93DF9382309105EF
:1059300010F482E090E0E091F409F091F50920E0A4
:1059400030E0A0E0B0E0309739F140815181481754
:105950005907B8F04817590771F48281938110975D
:1059600029F013969C938E9312972CC09093F5096F
:105970008093F40927C02115310531F042175307F0
:1059800018F0A901DB0101C0EF019A01BD01DF019F
:105990000280F381E02DD7CF21153105F9F0281BC6
:1059A000390B2430310580F48A819B8161157105A2
:1059B00021F0FB019383828304C09093F5098093C7
:1059C000F409FE01329644C0FE01E20FF31F8193F9
:1059D000919322503109398328833AC02091F209EA
:1059E0003091F309232B41F42091020230910302FC
:1059F0003093F3092093F2092091000230910102C3
:105A00002115310541F42DB73EB740910402509164
:105A10000502241B350BE091F209F091F309E2171E
:105A2000F307A0F42E1B3F0B2817390778F0AC01C1
:105A30004E5F5F4F2417350748F04E0F5F1F50939E
:105A4000F3094093F2098193919302C0E0E0F0E002
:105A5000CF01DF91CF910895CF93DF93009709F4A1
:105A600087C0FC01329713821282C091F409D09151
:105A7000F509209781F420813181280F391F809109
:105A8000F2099091F3098217930779F5F093F309DE
:105A9000E093F2096DC0DE0120E030E0AE17BF07F1
:105AA00050F412964D915C9113979D01411551054B
:105AB00009F1DA01F3CFB383A28340815181840FCE
:105AC000951F8A179B0771F48D919C911197840FF4
:105AD000951F02969183808312968D919C911397C6
