:10000000ABC10000DAC10000D8C10000D6C10000B9
:10001000D4C10000D2C10000D0C10000CEC1000098
:10002000CCC10000CAC10000C8C10000C6C10000A8
:10003000C4C10000C2C10000C0C10000BEC10000B8
:10004000BCC10000BAC10000B8C10000B6C10000C8
:10005000B4C10000B2C10000B0C100000C949D28E2
:10006000ACC100000C9401260C943726A6C10000F8
:10007000A4C10000A2C10000A0C100009EC10000F8
:100080009CC100009AC1000098C1000096C1000008
:1000900094C1000092C1000090C100008EC1000018
:1000A0008CC100008AC1000088C1000086C1000028
:1000B00084C1000082C1000080C100007EC1000038
:1000C0007CC100007AC1000078C1000076C1000048
:1000D00074C1000072C1000070C100006EC1000058
:1000E0006CC1000036114D11CA11B412D312F012B6
:1000F000F812AA12C029C329B229B629BC29FA29A3
:10010000C729CB29D129D529D929DF29E329E729ED
:10011000FA29ED29F129F52900000A0B02090C0D35
:100120000E080703040100000000000000000000AA
:1001300000000000000000000000000000000000BF
:10014000000000001211100000000000000000007C
:10015000000000000000000000000000000001029C
:1001600010202008081020401020408002010201C9
:100170000804020101020408102040808040201081
:1001800008040201800402018040201008040201DA
:100190000804020101020408102040800102040842
:1001A000102040800505050507050808080802021B
:1001B00002020A0A08080404040401010101010101
:1001C00001010303030303030303040707070C0CE4
:1001D0000C0C0C0C0C0C02020202060606060606AB
:1001E00006060B0B0B0B0B0B0B0B00002000230068
:1001F000260029002C002F0032000001000003011E
:100200000601090100002200250028002B002E0015
:100210003100340002010000050108010B0100005B
:100220002100240027002A002D00300033000101A6
:100230000000040107010A0100407A10F35A00A0EF
:10024000724E18090010A5D4E80000E8764817009F
:1002500000E40B54020000CA9A3B000000E1F505DF
:10026000000080969800000040420F000000A08629
:1002700001000000102700000000E803000000005B
:100280006400000000000A000000000001000000FF
:1002900000002C76D888DC674F0823DFC1DFAE5919
:1002A000E1B1B796E5E3E453C63AE651997696E8AC
:1002B000E6C28426EB898C9B62ED407C6FFCEFBC30
:1002C0009C9F40F2BAA56FA5F490055A2AF75C935B
:1002D0006B6CF9676DC11BFCE0E40D47FEF520E691
:1002E000B500D0ED902E0300943577050080841E74
:1002F000080000204E0A000000C80C333333330FCF
:10030000986E12831141EF8D2114893BE65516CF6B
:10031000FEE6DB18D1844B381BF77C1D901DA4BB77
:10032000E424203284725E228100C9F124ECA1E52C
:100330003D276602270383048F05B605DD054006C9
:10034000EC072008470825163016F219561D641DC3
:100350006F1D88246926F92611241FBECFEFD1E234
:10036000DEBFCDBF00E00CBF16E0A0E0B2E0E2E7E8
:10037000F2E600E00BBF02C007900D92A633B10772
:10038000D9F72AE0A6E3B6E001C01D92A83AB20769
:10039000E1F713E0C8E5D3E000E006C022970109C9
:1003A000FE010BBF0E94FF2BC233D10780E008077C
:1003B000A9F70E948F280C94373122CE29E130E032
:1003C00040E050E064E170E080E090E00E94D827D7
:1003D0009B0141E050E06EE172E08091E006909177
:1003E000E10694D323E230E040E050E06FE070E0BB
:1003F00080E090E00E94D827AB016BE272E0809130
:10040000E0069091E10604C30F931F93CF93DF930F
:1004100000D000D0CDB7DEB726E040E052EC61E07E
:1004200070E089EF98E00E94A12583E396E09A832B
:1004300089838091F4069091F506A091F606B0911B
:10044000F7068B839C83AD83BE83AE014F5F5F4F06
:100450006EE072E082ED98E00E94A91C6091E006D7
:100460007091E1068091E2069091E30662D087E008
:1004700090E00E949B288C016091E2067091E30657
:1004800040E069D21093E1060093E0062EED31E0E2
:1004900040E355E760E070E086E396E00E94531E7B
:1004A0008DDF26960FB6F894DEBF0FBECDBFDF916D
:1004B000CF911F910F9108958091E2069091E306EC
:1004C0000E94BE2186E396E00C94F81D0F931F93C3
:1004D000CF93DF9300E020E040E060E088EF96E01B
:1004E0000E94ED2605E22EEF48EA60EC82EF96E0EE
:1004F0000E94ED2684EE96E00E9426178DE990E09A
:100500000E949B28EC0104EE16E025EE32E04BE55C
:1005100057E06AE072E00E944D24D093E306C09356
:10052000E20686E396E0DF91CF911F910F910C9444
:10053000C71DFF920F931F93CF93DF9300D000D07E
:10054000CDB7DEB78C018091FE069091FF0686172D
:10055000970721F07093FF066093FE06C8010E9482
:100560002D20F82E81111DC02AE432E043E552E02F
:100570006CE572E0C8010E94AA21882391F06CE525
:1005800072E0CE0101960E945A284CE552E0BA0171
:10059000C8010E94A823CE0101960E94F327FF24E0
:1005A000F3948F2D26960FB6F894DEBF0FBECDBF05
:1005B000DF91CF911F910F91FF900895AB01BC0186
:1005C0008091FE069091FF06F9C1EF92FF920F9382
:1005D0001F93CF93DF93CDB7DEB766970FB6F8942E
:1005E000DEBF0FBECDBF7C01DB01FE0131968F0166
:1005F000CF01801B910B4817590718F08D918193FB
:10060000F7CFF801E40FF51F1082B801CE01419633
:100610000E945A28B701CE010B960E945A28B801B1
:10062000C701CCDFCE010B960E94F327CE01419685
:100630000E94F32766960FB6F894DEBF0FBECDBFBB
:10064000DF91CF911F910F91FF90EF9008950F933D
:1006500000E020E040E060E080E097E00E94ED26CE
:100660000F910895CF93DF93EC0182E494E0998396
:1006700088838D899E89009739F0DC01ED91FC918A
:100680000280F381E02D19958F89988D009739F0BC
:10069000DC01ED91FC910280F381E02D1995CE01F2
:1006A000DF91CF91F8C2CF93DF93EC01DBDFCE0176
:1006B000DF91CF910C949C28CF93DF93EC0178D4F9
:1006C000882321F0CE0171D4811106C060E08D89AC
:1006D0009E898BD260E005C061E08D899E8985D2BC
:1006E00061E08F89988DDF91CF917FC2CF92DF92A9
:1006F000EF92FF920F931F93CF93DF937A016901DB
:10070000EB0100E010E00E151F0544F469917991AA
:10071000C6010E9410240F5F1F4FF5CFDF91CF91CC
:100720001F910F91FF90EF90DF90CF900895AF92BF
:10073000BF92CF92DF92EF920F931F93CF93DF93ED
:10074000EC016B01B42E40E0B3D282E494E09983D3
:1007500088838FE692E09A8F898F8BE892E09C8F56
:100760008B8F6B2DCE0131D4CE012CD4882339F060
:1007700047E853E060EA73E0C6010E94A82361E005
:10078000CE0119D48AE090E00E949B285C01E12C04
:10079000860126EA33E040E06EE170E053D2BE8A83
:1007A000AD8A8AE090E00E949B285C0124EC33E053
:1007B00040E06FE170E046D2B88EAF8A2BE232E0C3
:1007C000A60161E070E0CE018AD2BC01CE0100D466
:1007D000BE01675E7F4F960142E050E0CE01DF919F
:1007E000CF911F910F91EF90DF90CF90BF90AF907E
:1007F0007DCFEF92FF920F931F93CF93DF93CDB7EF
:10080000DEB72C970FB6F894DEBF0FBECDBF8C01BC
:100810007A01CE0107960E945A28B701CE010196AF
:100820000E945A286BE272E0CE0107960E946F2860
:10083000882339F0C7010E94972EBC01C801B1D3AB
:100840004DC062EE73E0CE0107960E946F288823A8
:1008500039F0C7010E94972EBC01C8019ED33EC04B
:100860006FE672E0CE0107960E946F288823B9F0E8
:10087000C801A4D345E054E060EA73E00E94A823D5
:1008800063E274E0C7010E94C42EF801258936890D
:10089000892B11F461E001C060E0C901A6D16BE8C9
:1008A00072E0CE0107960E946F28882379F063E2F8
:1008B00074E0C7010E94C42EF80125893689892B6E
:1008C00011F461E001C060E0C9018FD1C80176D3A5
:1008D00046E254E060EA73E00E94A823CE0101964C
:1008E0000E94F327CE0107960E94F3272C960FB69D
:1008F000F894DEBF0FBECDBFDF91CF911F910F9156
:10090000FF90EF9008950F9300E020E040E060E05A
:1009100086E097E00E94ED260F9108952DEE34E0D9
:10092000DC0111963C932E9314968D919C91159712
:10093000009739F0DC01ED91FC910280F381E02D0C
:1009400019940895CF93DF93EC01E8DFCE01DF9196
:10095000CF910C949C28DF92EF92FF920F931F93FC
:10096000CF93DF93EC018B01D42E8DEE94E099832D
:1009700088834E837B836A838DE190E00E949B286D
:100980007C014E81B801D3DEFD82EC82DD2071F066
:1009900048E454E060EA73E0C801DF91CF911F9111
:1009A0000F91FF90EF90DF900C94A823DF91CF91EF
:1009B0001F910F91FF90EF90DF900895EF92FF92BB
:1009C0000F931F93CF93DF938C01EB017A016FE6B6
:1009D00072E0CE010E94C42E892B39F06BE872E0E0
:1009E000CE010E94C42E892B61F4A701BE01F8013B
:1009F00084819581DF91CF911F910F91FF90EF90AE
:100A0000F8CEDF91CF911F910F91FF90EF90089555
:100A10000F931F93CF93DF93EC01CB018A016BE21D
:100A200072E00E94C42E892B81F4B801882777FDDB
:100A30008095982F0E94FD2AAB01BC018C819D817D
:100A4000DF91CF911F910F9134C2DF91CF911F9110
:100A50000F910895EF92FF920F931F93CF93DF931F
:100A6000EC017B018A018E81882341F047E654E046
:100A700060EA73E08A819B810E94A8236EE172E0A4
:100A8000C7010E94C42E892B79F4B8018C819D8105
:100A90005CD28E81882341F040E954E060EA73E043
:100AA0008A819B810E94A8238E81882371F04DEA60
:100AB00054E060EA73E08A819B81DF91CF911F91BE
:100AC0000F91FF90EF900C94A823DF91CF911F918D
:100AD0000F91FF90EF9008950F931F93CF93DF93A3
:100AE000EC01CB018A016EE172E00E94C42E892BD9
:100AF00041F4B8018C819D81DF91CF911F910F91BD
:100B000038C2DF91CF911F910F910895FA01A90189
:100B1000309719F0319711F49DCFDECF08950F93E0
:100B200000E020E040E060E08CE097E00E94ED26ED
:100B30000F91089525EF34E0FC013183208357C2E3
:100B4000CF93DF93EC01F6DFCE01DF91CF910C94D0
:100B50009C28CF93DF93EC0160E070E055D285EFE5
:100B600094E099838883DF91CF9108950F9300E0FB
:100B700020E040E060E082E197E00E94ED260F91E6
:100B800008952DEF34E0FC013183208330C2CF93F0
:100B9000DF93EC01F6DFCE01DF91CF910C949C281E
:100BA000CF93DF93EC0162E070E02ED28DEF94E002
:100BB00099838883DF91CF9108950F9300E020E01F
:100BC00040E060E088E197E00E94ED260F910895F3
:100BD00029E035E0FC0131832083089529E035E0E8
:100BE000FC01318320830C949C280F931F93CF9397
:100BF000DF931F92CDB7DEB78C01FC016483828145
:100C000069830E94692A6981262F30E08217930741
:100C100021F0F80182810E94342AF801848188231E
:100C200019F043E254E002C041E055E0F80165816B
:100C30007681878190850F90DF91CF911F910F91E1
:100C40000C94A823EF920F931F93CF93DF93EC01A3
:100C5000862FE9E0F5E0F983E88318870F836A833C
:100C60007B834C833E832D83E98661E00E94FB29D0
:100C700060E0CE01DF91CF911F910F91EF90B5CF42
:100C80000F9300E020E040E060E08EE197E00E94FA
:100C9000ED260F91089523EE35E0FC01318320838A
:100CA000089523EE35E0FC01318320830C949C28C9
:100CB000FC0183EE95E09183808373836283448B90
:100CC00089E190E097838683108681E490E09487A1
:100CD00083871586108A118A128A138A0895EF92E3
:100CE000FF920F931F93CF93DF938A01E901613045
:100CF000710581F062307105C1F0672B11F58CE050
:100D000090E00E949B287C019E01A80160E070E0B9
:100D100020DF15C08CE090E00E949B287C019E01A2
:100D2000A80161E070E0A6D10AC08DE090E00E94C9
:100D30009B287C019E01A80162E070E031DFC701C1
:100D400002C080E090E0DF91CF911F910F91FF9062
:100D5000EF9008958F929F92AF92BF92CF92DF92C1
:100D6000EF92FF92CF93DF93EC0189859A850097EC
:100D7000B9F156D14B015C018989882321F16B853A
:100D80007C85882777FD8095982F0E94FD2A6B012E
:100D90007C01A50194010E94AD2B87FD02C01D8638
:100DA00012C020E030E040E85FE3C501B4010E94DA
:100DB000922A9B01AC01C701B6010E94F72A1816BE
:100DC00014F081E08D878C89882341F04DE055E057
:100DD00060EA73E08A819B810E94A8238D8501C00F
:100DE00080E0DF91CF91FF90EF90DF90CF90BF90A8
:100DF000AF909F908F9008958F929F92AF92BF92E5
:100E0000CF92DF92EF92FF92CF93DF93EC018C8130
:100E10009D81009709F441C003D14B015C01888991
:100E2000882371F16E817F81882777FD8095982FC7
:100E30000E94FD2A6B017C0120E030E040E85FE386
:100E4000C501B4010E94932A9B01AC01C701B60100
:100E50000E94AD2B87FD03C081E0888711C020E090
:100E600030E040E85FE3C501B4010E94922A9B0193
:100E7000AC01C701B6010E94F72A18160CF01886BB
:100E80008C89882341F046E255E060EA73E08A816C
:100E90009B810E94A823888501C080E0DF91CF91CB
:100EA000FF90EF90DF90CF90BF90AF909F908F908A
:100EB0000895EF92FF920F931F93CF93DF93CDB7D7
:100EC000DEB72A970FB6F894DEBF0FBECDBF7C0108
:100ED000FC0184819581009711F1A8D0C7018CDFB6
:100EE000F701848195819CD08E010F5F1F4F22E016
:100EF00045E00E94122CF701848195819DD0A801C4
:100F0000BC01F701828193810E94A823F7018489A3
:100F1000882371F040E455E060EA73E005C04CE5D9
:100F200055E060EA73E0F701828193810E94A82373
:100F30002A960FB6F894DEBF0FBECDBFDF91CF91DA
:100F40001F910F91FF90EF900895CF93DF93EC01E5
:100F50007F836E838C89882341F04AE955E060EAFB
:100F600073E08A819B810E94A823CE01DF91CF91FB
:100F700043CFCF93DF93EC017C876B878C898823E9
:100F800041F04EEB55E060EA73E08A819B810E945C
:100F9000A823CE01DF91CF91DDCEFC01748763875A
:100FA0000895FC01778366830895FC018085089588
:100FB000FC0180890895FC01608B0895FC01828109
:100FC00093810895FC0184890895FC01648B089540
:100FD000FC017583648308950F9300E020E040E0F6
:100FE00060E084E297E00E94ED260F9108952DEED7
:100FF00035E0FC013183208308952DEE35E0FC01BE
:10100000318320830C949C28FC018DEE95E0918324
:101010008083738762875383428335832483089553
:10102000FC0166817781808591850895FC01468366
:101030005783608771870895FC01848195810895A5
:101040000F9300E020E040E060E08AE297E00E9439
:10105000ED260F91089525EF35E0FC0131832083C3
:10106000C6CFCF93DF93EC01F6DFCE01DF91CF91B6
:101070000C949C28CF93DF93EC0161E070E0C4DF17
:1010800085EF95E099838883DF91CF9108950F9341
:1010900000E020E040E060E080E397E00E94ED2681
:1010A0000F910895882381F08F3F29F480913807AC
:1010B00090913907089595E0899FF0011124E35C30
:1010C000F84F82819381089580E090E00895CF9356
:1010D000DF93D82FC62F60E085E30E94342A9C2F2F
:1010E0009F719D2B9EBD0DB407FEFDCF1EBC0DB4A0
:1010F00007FEFDCFC7FD08C061E085E30E94342AEA
:101100008EB5DF91CF9108951EBC0DB407FEFDCFC3
:10111000F3CF0F931F93CF93DF931F92CDB7DEB71B
:10112000182F062F60E085E349830E94342A602F40
:101130006F71612B6EBD49810DB407FEFDCF4EBDB1
:101140000DB407FEFDCF61E085E30F90DF91CF91F5
:101150001F910F910C94342A0F931F93CF93DF9319
:101160008C01EB0160E085E30E94342A8AE38EBDA6
:101170000DB407FEFDCF0C0F1D1FC017D10739F0AE
:101180001EBC0DB407FEFDCF8EB58993F6CF61E08E
:1011900085E3DF91CF911F910F910C94342A0F9327
:1011A0001F93CF93DF938C01EB0160E085E30E94F6
:1011B000342A8AE78EBD0DB407FEFDCF0C0F1D1F2C
:1011C000C017D10731F089918EBD0DB407FEFDCF58
:1011D000F7CF61E085E3DF91CF911F910F910C94E0
:1011E000342A1F93CF93DF93182F1076C12FD0E0AE
:1011F0002091140230E0C217D30779F043E06FE189
:1012000080EA87DFAE0185E0559547958A95E1F73D
:101210006FE180E87EDF10931402DF91CF911F9180
:101220000895CF93DF931F92CDB7DEB7682F698300
:10123000D8DF698180E00F90DF91CF9148CF1F9375
:10124000CF93DF931F92CDB7DEB7182F6983C9DF25
:101250004981612F80E40F90DF91CF911F9159CF89
:101260001F93CF93DF931F921F92CDB7DEB7182F36
:1012700069837A83B6DF4981612F80E44ADF61E0C8
:10128000610F7A81472F80E40F900F90DF91CF910B
:101290001F913FCF60913B0770913C07611571052D
:1012A00019F06150710902C06FEF77E08CE0D8CF80
:1012B000F1CFFF920F931F93CF93DF9389E3B1DFB9
:1012C000882309F444C060913B0770913C07EB010F
:1012D0002696C11588E0D80710F0CF5FD74080E090
:1012E000BFDF60E08AE3F3DE90E090933C078093F9
:1012F0003B0760E08AE3EBDE20913B0730913C073F
:10130000382B30933C0720933B0760E08AE3DFDE15
:10131000082F60E08AE3DBDE182F60E08AE3D7DE87
:10132000F82E40E46EE180E8F4DEF7FE0FC0D093C3
:101330003707C0933607202F30E0312B2450310976
:1013400030933907209338078FEF02C0A3DF80E086
:10135000DF91CF911F910F91FF900895EF92FF922F
:101360000F931F93CF93DF938B017A018F3FC1F0CF
:1013700025E0829FE0011124C35CD84F02C0C6E380
:10138000D7E068817981600F711F80E069DF8A8111
:101390009B81801B910BE816F90690F4C70110C0E1
:1013A0008091360790913707860F971F811528E0A7
:1013B000920728F3BC016F5F7740C6E3D7E0E5CF23
:1013C000DF91CF911F910F91FF90EF9008950F93B0
:1013D0001F93CF93DF938A01A901C0DFEC01B8010D
:1013E000BBDECE01DF91CF911F910F910895CF9277
:1013F000DF92EF92FF920F931F93CF93DF938B01B6
:101400006A01790195E0899FE0011124C35CD84FFE
:1014100068817981600F711F82E022DF0A80DB81A1
:10142000C02DC01BD10BEC16FD0608F4E701B60178
:10143000CE01B5DECE01DF91CF911F910F91FF90CC
:10144000EF90DF90CF900895BC0180E009DF60E06D
:1014500085E30E94342A8AE38EBD0DB407FEFDCFDA
:101460001EBC0DB407FEFDCF61E085E30E94342A67
:101470008EB50895CF93C62FBC0182E0F1DE60E007
:1014800085E30E94342A8AE78EBD0DB407FEFDCFA6
:10149000CEBD0DB407FEFDCF61E085E3CF910C9486
:1014A000342AFF920F931F93CF93DF9395E0899F88
:1014B000F0011124E35CF84FC081D18121970281B2
:1014C00013810C0F1D1FCE01BFDFF82E882319F0EA
:1014D00060E0CE01CFDFBE0184E0C2DEB80186E06D
:1014E000BFDE48E06FE180E814DE8CE19ADE81FF28
:1014F00004C048E06FE180EA0CDEFF2041F06F2D70
:10150000CE01DF91CF911F910F91FF90B3CFDF916B
:10151000CF911F910F91FF900895CF92DF92EF929C
:10152000FF920F931F93CF93DF937C01EB01413028
:10153000510569F4CB0188DF682FC701DF91CF9196
:101540001F910F91FF90EF90DF90CF9093CF6A01A2
:10155000C60ED71E86010150110980E181DEB70158
:1015600084E17EDEC115D84030F4011588E018070B
:1015700010F00F5F1740B80182E172DE40E16FE1C9
:1015800080EAC7DD40E26FE180E8C3DD6FE180E023
:101590009EDD85FDFBCFDF91CF911F910F91FF90D5
:1015A000EF90DF90CF9008950F931F93CF93DF9329
:1015B000EB01E5E0E89FD0011124A35CB84F4F3F59
:1015C000B9F0E49FF0011124E35CF84F02C0E6E3B8
:1015D000F7E060817181620F731F8D919C91A8016A
:1015E0008C0F9D1F9ADFDF91CF911F910F9152CEEB
:1015F000E0913607F0913707E20FF31FE11588E01D
:10160000F80728F3BF016F5F7740E7CFCF93DF93F1
:10161000EB01682F84ED13DEBE0186ED21DE8AEE3C
:1016200000DE80FF05C08FE090E00E943B29F7CFED
:10163000DF91CF910895CF93DF93EC01D0D061E09B
:1016400085E30E94FB2961E085E30E94342A61E082
:1016500083E30E94FB2961E084E30E94FB2960E0B0
:1016600082E30E94FB2961E085E30E94FB2960E0A0
:1016700083E30E94342A60E084E30E94342A80E5F8
:101680008CBD8DB581608DBD4FEF60E08FEF41DD8A
:1016900062E370E080E090E00E94162910923C071F
:1016A00010923B0760E070E088E0DADD60E070E017
:1016B0008CE0D6DD6FEF77E08AE0D2DD61EB88E386
:1016C000BEDD6FE370E388E2CBDD69EF77EF80E3A7
:1016D000C7DD6DE070E080ECC3DD42E362EC80E8E2
:1016E00018DD62E17CE086ECBBDD62E184ECA7DD25
:1016F0006CED75E08AECB4DD688184EEA0DD698173
:1017000085EE9DDD6A8182EE9ADD6B8183EE97DD49
:101710006C8180EE94DD6D8181EE91DD60E071E0A1
:1017200080E174DF8FE15DDD40EC6BE180E8F1DCAE
:1017300044E06FE180E8EDDC66E774E084E1DF918E
:10174000CF9164CF0F931F93CF93DF93EC01862F3C
:10175000BA01A90103DE8C010150110960E085E3A3
:101760000E94342A8AE38EBD0DB407FEFDCF20E02F
:1017700030E020173107C0F41EBC0DB407FEFDCFCA
:101780008EB590E0982F88271EBC0DB407FEFDCFC4
:101790004EB5840F911DC80FD91FC817D90708F47B
:1017A00021962E5F3F4FE5CF2017310771F41EBC05
:1017B0000DB407FEFDCF8EB590E0982F8827C80F97
:1017C000D91FC817D90708F4219661E085E30E9464
:1017D000342ACE01DF91CF911F910F910895EDE34F
:1017E000F7E08DECDF011D928A95E9F781E098E042
:1017F000918380830895DF92EF92FF920F931F935E
:10180000CF93DF937C0140913D0750913E074150BB
:10181000584E80E098E1EDE3F7E000E0C0E0D0E072
:1018200025E0D22E1481112341F0D19ED001112444
:10183000A35CB84F2D913C9101C09A0160817181E8
:10184000261B370B62817381261B370B2E153F0534
:1018500039F485E0089FE0011124C35CD84F48C0EB
:10186000E216F30648F42817390730F4D09EE00159
:101870001124C35CD84FC901111107C02097C1F5CD
:10188000CDE3D7E085E0D82E1DC0D19EF001112414
:10189000E35CF84F012FC6CF0A811B8188819981B3
:1018A000080F191FD29EE0011124C35CD84F688134
:1018B00079810617170731F04A815B81C8012DDE57
:1018C000198308832C812111E7CF20913D073091A6
:1018D0003E0788819981281B390B8A819B81281BAF
:1018E000390B2150384E2E153F0510F480E019C0F9
:1018F000E2E4F7E081E022813381232B29F0359661
:101900008F5F8932C1F7F2CF2A813B8148815981AB
:10191000240F351F31832083F382E2829C819483DC
:101920008C83DF91CF911F910F91FF90EF90DF900B
:1019300008958823F9F0EDE3F7E025E0948198130A
:1019400011C095E0899FD0011124A35CB84F149673
:101950008C911497848313961C921E92129714965E
:101960001C920895992331F0299FF0011124E35C22
:10197000F84FE4CF089595E0899FF0011124E35CCE
:10198000F84F80819181860F971F91838083828198
:101990009381861B970B93838283089595E0899F9B
:1019A000F0011124E35CF84F80819181860F971F2D
:1019B00091838083538342830895FC015381560FA2
:1019C0005093AC09872F99274281480F4093AB0968
:1019D000A181A093AA09E081E093A909242F30E016
:1019E0002817390748F481E08A0F8093AA098111EA
:1019F00003C0EF5FE093A909852F90E07727861752
:101A0000970788F44F5F4093AB0941110CC0809158
:101A1000AA098F5F8093AA09811105C08091A90945
:101A20008F5F8093A90908952091B0093091B10981
:101A3000BC01C9010896C1DFE091B009F091B1097C
:101A40008091A90980878091AA0981878091AB093B
:101A500082878091AC098387089580E0E82FF0E0C9
:101A6000EE0FFF1FE65DF54F118210828F5F84300D
:101A7000A8F380E09EE1989FF0011124EE54F64F08
:101A8000118E8F5F8430B8F380930D0880E094E06E
:101A900090930F0880930E080895CF9320910E081D
:101AA00030910F082F5F3F4F21154DE7340710F09D
:101AB00020E030E1522F432FE2EBF9E0C0E0C430E8
:101AC00059F0A18DAA2329F0A481B581A417B507E7
:101AD00049F3CF5F7E96F3CF30930F0820930E0823
:101AE00010920D0820E0E0E0F0E04EE12430E0F458
:101AF000429FD0011124AE54B64F59963C9159974C
:101B0000311104C020930D08FD0110C0373041F49D
:101B1000309739F05A965C915A97328D351708F004
:101B2000DF012F5FFD01E2CF20930D083097B1F167
:101B300022E0218F20911008248720911108258709
:101B400020911208268720911308278720E032E091
:101B5000338B228B358B248B21E030E0318B208B33
:101B6000138E228F23E0208F168A20E1278B20916D
:101B70000E0830910F08322723273227358324831C
:101B800077836683DC012D913C911197318320830B
:101B900012968D919C91139793838283CF01CF915D
:101BA00008951F93CF93DF93C091B009D091B109ED
:101BB00024E73AE03093AF092093AE093093A809A7
:101BC0002093A709833059F4898D8F70833009F0F1
:101BD000A9C588899989892B09F0A4C57FC082305D
:101BE00009F080C0809113088F5F809313088111E2
:101BF00013C0809112088F5F8093120881110CC06E
:101C0000809111088F5F80931108811105C0809128
:101C100010088F5F809310081092A6091092A509F2
:101C20001092A30A1092A20A298D822F8D7F8530EF
:101C300041F48A8D8F5F8A8F883709F073C5198EBA
:101C400071C5222309F46EC588899989892B09F405
:101C500041C08A8D9FEF980F9A8F811163C58B8D3C
:101C6000883031F09FEF920F923048F4853039F48C
:101C7000198E80E88093AD090E94E81812C485305F
:101C800038F493E0082E01C0990F0A94EAF701C0D6
:101C900090E39A8F8F5F8B8F822F8F708330A1F0AC
:101CA00048F4813009F42FC2823009F03BC510920C
:101CB0006D0A2CC2863009F495C3883009F492C3AA
:101CC000843009F02FC58EC384E08093AD090E9453
:101CD000E81819C42F70233009F024C588E08093D8
:101CE000AD09D5C380914C0A853409F01BC580919C
:101CF0004E0A90E0982F882720914F0A820F911D5D
:101D00002091A5093091A6092817390708F40AC5BA
:101D10009093A6098093A5098091520A8F7309F0C8
:101D200001C58091530A8111FDC480913A0A9091B6
:101D30003B0A009731F420913C0A30913D0A232B55
:101D4000A1F020915C0A30915D0A2817390709F04B
:101D5000E9C420915E0A30915F0A80913C0A90911B
:101D60003D0A2817390709F0DDC40E94551D019668
:101D700009F0D8C48091550A8630D1F1813009F03C
:101D8000D1C48091600A883009F0CCC41092600AF6
:101D90008091620A9091630A873FAFEF9A0710F033
:101DA000099601C008969093630A8093620A809115
:101DB000580A9091590A90935D0A80935C0A809129
:101DC0005A0A90915B0A90935F0A80935E0A809111
:101DD0003A0A90913B0A9093590A8093580A80914D
:101DE0003C0A90913D0A90935B0A80935A0A9EC4E4
:101DF0000E94191D019609F095C48091620A909184
:101E0000630A2091600A3091610A4091580A50910A
:101E1000590A60915A0A70915B0AEBECF9E0C2EB47
:101E2000D9E010811123A9F0AC81BD818A179B07ED
:101E300081F4AE81BF812A173B0759F4A881B9818B
:101E40004A175B0731F4AA81BB816A177B0709F443
:101E500074C16E967E96AAE0CA32DA0711F7209115
:101E60006D0A2F732230E1F490930B0880930A08D7
:101E700040E0443098F4E42FF0E0EE0FFF1FE65D01
:101E8000F54F208131814F5F8217930791F71092B0
:101E90000D0820E0C0E0D0E03EE17EC040930D0898
:101EA00080916D0A82FD3EC484E180936D0A88E2D0
:101EB00090E09093A6098093A50980E580936C0A31
:101EC0008091670A90916B0A9093670A3091660A35
:101ED00090916A0A9093660A30936A0A2091650A83
:101EE0009091690A9093650A2093690A9091640A17
:101EF00090930D084091680A4093640A9093680A91
:101F00008F5F80936B0A81110FC081E0830F8093F4
:101F10006A0A811109C081E0820F8093690A8111E8
:101F200003C09F5F9093680A8091600A9091610A54
:101F300090930B0880930A082091620A3091630AFB
:101F40003093610A2093600A9093630A8093620A37
:101F50008091580A9091590A90935D0A80935C0A87
:101F600080915A0A90915B0A90935F0A80935E0A6F
:101F700080913A0A90913B0A9093590A8093580AAB
:101F800080913C0A90913D0A90935B0A80935A0A93
:101F90008BC3473099F02F5F2430F0F4822F90E00C
:101FA000389FF001399FF00D1124EE54F64F418D0A
:101FB0004111EFCF20930D08EF0110C0209721F0C1
:101FC000528D4A8D451738F7389FE001399FD00D63
:101FD0001124CE54D64FDFCF20930D08209709F45B
:101FE000A1C3D093B109C093B00983E08A8F888FD1
:101FF0001E8A84E08F8B1B8E8091620A9091630A07
:102000009D838C838091600A9091610A9F838E8367
:102010008091580A9091590A9983888380915A0A2D
:1020200090915B0A9B838A8381E0898F809110085D
:102030008C87809111088D87809112088E878091FE
:1020400013088F8781E090E0998B888B8091670AD5
:102050008B878091660A8A878091650A898780913B
:10206000640A888781E090E0DFDC80916C0A282F89
:10207000207F30E0213531050CF445C082958F700A
:1020800090E00597880F991F880F991F30910C08D1
:1020900020E0E22FF0E0E817F9078CF5E25CF54F5D
:1020A00036A9311105C020930D0810920C082BC0E1
:1020B000313011F42F5FEDCF3230E1F447A94430D5
:1020C000C9F420930D0830930C0880AD90E0982F50
:1020D000882721AD822B90930B0880930A088130CA
:1020E00022E0920710F080E092E09B8B8A8B9D8B20
:1020F0008C8B09C047A9442311F0240FCACF209329
:102100000D0830930C0880E180936D0A80916D0A70
:10211000826080936D0A82E08093740A94E09093C9
:10212000750A8093760A1092770A8CE290E0909379
:10213000A6098093A50980E665C2D093B109C09332
:10214000B0091092AD0930916D0A32FF03C0198EAB
:1021500080E206C220916C0A22952F70220F220F76
:1021600020930D088091A5099091A6094497821BA0
:1021700091099093A6098093A5091F70123021F44C
:10218000232F2F732231C9F0892B19F4832F8370E9
:10219000A1F09091640A888598132AC29091650AEB
:1021A0008985981325C29091660A8A85981320C262
:1021B0009091670A8B8598131BC234FF49C06889C8
:1021C00079896115710509F443C0CE010C96F5DBE0
:1021D0003091680A8091A90938133AC02091690AA0
:1021E0008091AA09281334C090916A0A8091AB09A2
:1021F00098132EC080916B0A4091AC09841328C0BB
:102200003C872D879E878F878B8D81111AC02E89E1
:10221000888D9A8D891B922F969596959695891BF8
:10222000280F2E8B87FD81959F89392F36953695FE
:10223000931B980F9F8B822F869586958695890F85
:10224000888F81E08093AD09888D8A8F198A188ADA
:10225000498D842F8F7090E0FC013197E830F105B3
:1022600008F060C2EE58FF4F0C94EF2B8091AD093F
:1022700080FF58C283E0898F80E48093AD09198A7A
:10228000188A8091A5099091A609009709F4FBC0CE
:1022900022E42093AD09C8DBF6C08091AD0980FF30
:1022A0006FC080916D0A8F73823109F069C080918F
:1022B0006C0A282F207F30E0213531050CF445C011
:1022C00082958F7090E00597880F991F880F991F4E
:1022D00030910C0820E0E22FF0E0E817F9078CF5C8
:1022E000E25CF54F36A9311105C020930D0810921C
:1022F0000C082BC0313011F42F5FEDCF3230E1F4F8
:1023000047A94430C9F420930D0830930C0880ADE0
:1023100090E0982F882721AD822B90930B08809313
:102320000A088130A2E09A0710F080E092E09B8BCF
:102330008A8B9D8B8C8B09C047A9442311F0240FF5
:10234000CACF20930D0830930C0883E0898F8091C9
:10235000640A88878091650A89878091660A8A87DE
:102360008091670A8B8781E090E05EDB82E4809356
:10237000AD09198A188A1092A6091092A50983C07E
:1023800080E28093AD0924D7E091B009F091B109C2
:10239000118E86CD80916D0A80FF26C044FD24C039
:1023A00088899989892B09F0BDC18091A5099091EF
:1023B000A609019639DB2091AD09822F80618093B7
:1023C000AD098091A5099091A609892B19F0226188
:1023D0002093AD09FDD681E090E0998B888B88E051
:1023E000898F1B8E81E105C185FF1CC08091720A17
:1023F00090E0982F88272091730A822B2091AE09B4
:102400003091AF09280F391F3093AF092093AE09DF
:102410002091A5093091A609281B390B3093A609F4
:102420002093A5098091A5099091A609009741F0F4
:1024300044FD06C02091AD0922602093AD09F4DA75
:1024400080916E0A90E0982F882720916F0A820F62
:10245000911D90930B0880930A082C893D892817B9
:10246000390710F0892B21F430930B0820930A08C8
:1024700080910A0890910B089B8B8A8B8091AD0903
:10248000837009F44FC11092A30A1092A20AA0D639
:102490008091AD0985FF07C01092A30A1092A20A8D
:1024A000198E84E1A6C084FF0AC01092A30A10927C
:1024B000A20A81E090E0998B888B84E091CF2091F3
:1024C000A20A3091A30A21153105E1F080FF02C074
:1024D000198A188A88899989009781F48A899B8941
:1024E0008217930720F49093A30A8093A20A809105
:1024F000A20A9091A30A998B888B04C09093A30A97
:102500008093A20A1B8E8091A7099091A8099093AD
:10251000AF098093AE098091A20A9091A30A892BFA
:1025200059F088899989009739F088969093A6097F
:102530008093A50988E10BC08091AD0981FFF2C0AD
:1025400088E290E09093A6098093A50980E18093AA
:102550006D0A57C08091AD0980FFE4C0198E80E1FB
:102560008093AD0935D6DEC08091A5099091A6096A
:10257000009709F059DA90916D0A8091AD0990FFAA
:102580000BC080FF06C087E0898F1A8E198A188ACF
:1025900018C086E0898F15C080FF1BC085E0898F39
:1025A000198A188ABFC08091A5099091A609009741
:1025B00009F03ADA80916D0A80FF0BC087E0898FBD
:1025C0001A8E81E090E030DA80E18093AD0900D688
:1025D0000FC08091A5099091A609892B49F4A2C04A
:1025E0008091AD0980FF9EC087E0898F1A8E9AC0C6
:1025F00080E180936D0A88E290E09093A609809331
:10260000A50980E580936C0A88858093680A89858E
:102610008093690A8A8580936A0A8B8580936B0A06
:102620008C858093640A8D858093650A8E8580935E
:10263000660A8F858093670A86E08093550A8C81AD
:102640009D819093610A8093600A8E819F8190930F
:10265000630A8093620A80913A0A90913B0A9093B0
:10266000590A8093580A80913C0A90913D0A9093B0
:102670005B0A80935A0A8881998190935D0A8093BE
:102680005C0A8A819B8190935F0A80935E0A898DA0
:1026900084FF05C010926F0A10926E0A05C082E096
:1026A00080936E0A10926F0A80E48093540A80919E
:1026B000A5099091A60990934E0A80934F0A109213
:1026C000730A1092720A1092710A1092700A0E9494
:1026D000191D809590959093710A8093700A85E4F6
:1026E00080934C0A10924D0A1092530A1092520A8B
:1026F0008091140890911508019690931508809385
:1027000014089093500A8093510A1092570A10921D
:10271000560A0E94551D809590959093570A809374
:10272000560A04C01092A6091092A5091092AD098C
:10273000DF91CF911F9108959827892798270895B1
:102740009C01AB017093A30A6093A20A16161706A8
:1027500054F48091A7099091A8092817390719F016
:10276000B9010C94B42E0895FF920F931F93CF9349
:10277000DF93DC01FB0110921F0860E07BE0683012
:1027800010F5769FE0011124CC5DD74F2881398167
:1027900021153105B1F08A819B81009791F04D910F
:1027A0005C9111974217530761F412962D913C9159
:1027B00013972817390729F460931F08DE01149630
:1027C0004FC06F5FDCCF20E03BE0283090F4329FB9
:1027D000E0011124CC5DD74F88819981892B39F490
:1027E0008A819B81892B19F420931F0830C02F5FA9
:1027F000ECCF20931F08283051F500911D08802F41
:1028000090E010E070E060E02BE0F22E683098F489
:10281000F69EE0011124CC5DD74FCA85AC014C1B5C
:102820005109212F30E0241735071CF4762F102F83
:102830001C1B6F5FEBCF10931C0870931E087093E6
:102840001F088BE0789FE0011124CC5DD74F4D919C
:102850005D916D917C91DE014D935D936D937D93C0
:1028600086E001900D928A95E1F780911D088A8794
:10287000DF91CF911F910F91FF90089510921F0843
:102880009BE080911F08883068F4989FF001112424
:10289000EC5DF74F10821182128213828F5F80935A
:1028A0001F08EFCF08958091A5099091A6090E9772
:1028B0009093A6098093A50980913A0A90913B0ACA
:1028C0002091580A3091590A822793272091360A7D
:1028D0003091370A82239323892BB9F480913C0AE3
:1028E00090913D0A20915A0A30915B0A82279327E2
:1028F0002091380A3091390A82239323892B29F4B5
:1029000064E47AE088E59AE02FCF08958091A509E4
:102910009091A6091092A6091092A5098A9708F429
:1029200008958091520A9091530A811521E09207EF
:1029300029F08115924009F475C008952091640A28
:102940003091650A80913A0A90913B0A281739071D
:1029500009F083C02091660A3091670A80913C0A91
:1029600090913D0A2817390709F077C064E57AE0AD
:102970008AE59AE0F9DE80E092E09093530A809332
:10298000520A86E0E4E5FAE0AEE5BAE001900D9285
:102990008A95E1F786E0E6E1F8E0A4E5BAE0019087
:1029A0000D928A95E1F786E0E6E1F8E0A4E4BAE06A
:1029B00001900D928A95E1F786E0EEE5FAE0AEE34C
:1029C000BAE001900D928A95E1F780915A0A9091B0
:1029D0005B0A9093650A8093640A80915C0A9091E7
:1029E0005D0A9093670A8093660A80913A0A9091F3
:1029F0003B0A90935B0A80935A0A80913C0A90911B
:102A00003D0A90935D0A80935C0A88E096E090937B
:102A10004B0A80934A0A8AE290E09093A609809339
:102A2000A50908952091640A3091650A80913A0AB7
:102A300090913B0A2817390781F42091660A30915A
:102A4000670A80913C0A90913D0A2817390729F4BA
:102A500064E57AE08AE59AE087CE089520915C0AE1
:102A600030915D0A2F3F4FEF340751F480915E0A99
:102A700090915F0A019621F486E0E9EFF5E0C6C087
:102A800080913A0A90913B0A822793274091360A17
:102A90005091370A84239523892B91F440915E0A43
:102AA00050915F0A80913C0A90913D0A84279527B6
:102AB0006091380A7091390A86239723892B89F00F
:102AC0008091320A9091330A9093210880932008D4
:102AD0008091340A9091350A9093230880932208BC
:102AE00008C0309321082093200850932308409376
:102AF000220880912008909121082091220830918D
:102B0000230860E07BE0683090F4769FF0011124A8
:102B1000EC5DF74F408151818417950731F4428174
:102B200053812417350709F46DC06F5FECCF6093B4
:102B30001F08683009F068C046E050E06FEF70E0B1
:102B40008EE39AE00E94BD2E26E0EEE5FAE0DF017A
:102B5000422F1D924A95E9F7E6E1F8E0A4E4BAE0D5
:102B6000822F01900D928A95E1F7E6E1F8E0A4E565
:102B7000BAE0822F01900D928A95E1F780912008AA
:102B8000909121089093650A8093640A80912208AD
:102B9000909123089093670A8093660A80913A0A7D
:102BA00090913B0A90935B0A80935A0A80913C0A69
:102BB00090913D0A90935D0A80935C0A80E091E0D9
:102BC0009093530A8093520A90934D0A80934C0A33
:102BD00088E090E090934F0A80934E0A2093500A29
:102BE00084E08093510A88E096E090934B0A8093AA
:102BF0004A0A84E79AE09093AF098093AE098AE28B
:102C000090E01EC060931F08349686E0AEE3BAE001
:102C100001900D928A95E1F786E0E6E1F8E0A4E400
:102C2000BAE001900D928A95E1F788E090E09093E8
:102C30004B0A80934A0A8091A5099091A6090E96A5
:102C40009093A6098093A50908950F9300E020E0D2
:102C500040E060E08CE798E00E94ED260F91089537
:102C60000F9300E020E040E060E082E898E00E94FE
:102C7000ED260F910895DC01ED91FC91008CF18D12
:102C8000E02D199591E08927089580E090E008955E
:102C9000DC011C96ED91FC911D97309741F08181EC
:102CA000882311F081E00895808184FDFBCF80E0CE
:102CB0000895FC01448555854115510551F0FB01EE
:102CC000248535852115310521F081E04217530710
:102CD00009F080E00895CF93DF931F92CDB7DEB760
:102CE000DC01ED91FC910088F189E02D41E050E09C
:102CF000BE016F5F7F4F199597FD03C0898190E0FA
:102D000002C08FEF9FEF0F90DF91CF910895CF9387
:102D1000DF93EC01A9D3EC85FD85309749F08081E4
:102D200086FD02C081E005C08181882311F0FACFC1
:102D300080E0DF91CF910895CF92DF92EF92FF92E2
:102D40000F931F93CF93DF9300D01F92CDB7DEB7C1
:102D50007C018B016A01DC01ED91FC910288F38911
:102D6000E02D1995F801228130E0322F222783814E
:102D7000282B3227232732273A832983248130E0E6
:102D8000322F22278581282B3227232732273C8385
:102D90002B83C601D1DCBC01CE0101960E944D0DF2
:102DA0008C01009719F480E090E016C0D801599684
:102DB0008C918F70C1F358D3D80159968C91599743
:102DC0008F70833099F75C968D919C915D97F70198
:102DD0009587848781E090E00F900F900F900F907F
:102DE000DF91CF911F910F91FF90EF90DF90CF90E7
:102DF00008950F931F93CF93DF931F92CDB7DEB744
:102E00008C01DC01ED91FC910688F789E02D199584
:102E10008823A1F0D8011C96ED91FC911D9781812A
:102E2000882361F021E030E0AE014F5F5F4F60E04A
:102E300070E00E94E709898190E002C08FEF9FEF68
:102E40000F90DF91CF911F910F910895FC01138294
:102E5000128248EE53E060E070E04483558366835D
:102E6000778383E096E091838083158614860895A6
:102E7000EF92FF920F931F93CF93DF937C01C0E0FB
:102E8000D0E000E010E0F701EC0FFD1F81810E940F
:102E90005208080F191F2196C530D105A1F7C801A6
:102EA000DF91CF911F910F91FF90EF900895CF93F5
:102EB000DF93EC01E881F9810688F789E02D199507
:102EC000882329F08C859D85DF91CF91D1CF80E03B
:102ED00090E0DF91CF910895CF93DF93E8E8F8E099
:102EE00080E0908191110AC08061DF018D9380E1C3
:102EF000ED0119928A95E9F7CF0106C08F5F7196AF
:102F0000843079F780E090E0DF91CF910895FC0163
:102F1000319681E09191911102C0815008958F5FA7
:102F20008530C1F784E008959F92AF92BF92CF920F
:102F3000DF92EF92FF920F931F93CF93DF93EC01F9
:102F40006B017A018A015C0186E0A80EB11C8CD26B
:102F5000209709F445C08881807609F041C0C501F9
:102F6000D6DF982EFE01E80FF11D868181110CC07D
:102F700080E092E00E94FB0BFE01E90DF11D8683CB
:102F8000882329F31C861B86A701401B510B4C0D7F
:102F90005D1D6B857C859801FE01E90DF11D868123
:102FA0000E94F709081B190B2B853C85280F391F38
:102FB0003C872B87101611062CF484E0981639F202
:102FC0009394D6CF0E94E728665F7F4F8F4F9F4F25
:102FD0006D877E878F87988BC701801B910B02C0FE
:102FE0008FEF9FEFDF91CF911F910F91FF90EF90A7
:102FF000DF90CF90BF90AF909F900895CF93DF93D5
:103000001F92CDB7DEB7698341E050E0BE016F5F2C
:103010007F4FFC018485958587DF0F90DF91CF91ED
:103020000895FC01848595857FCF0F931F93CF93DF
:10303000DF938C01EC0189910E94990CF801C80181
:10304000049629912193E817F907D9F7F80114821A
:10305000DF91CF911F910F9108959F92AF92BF92F0
:10306000CF92DF92EF92FF920F931F93CF93DF9354
:10307000EC015B017A01E881F9810688F789E02D8E
:103080001995882309F455C0EC85FD858181882335
:1030900009F452C087012EE1922EA701401B510B6B
:1030A0004A0D5B1DEC85FD85980160E070E0818133
:1030B0000E94E7096C01EC85FD8581810E94520820
:1030C000EC85FD85C816D90649F50C191D09CF01F7
:1030D0000196ABDFAC85BD852C91822F90E08F707F
:1030E000989EF001999EF00D1124EE54F64F818DBB
:1030F00084FF05C0822F807611F420682C93EC8524
:10310000FD85818181110FC0808186FF03C01082FF
:103110001D861C86C701801B910B10C0B6018181E2
:103120000E94BB0C04C00115110509F0B6CFC70100
:1031300005C08FEF9FEF02C080E090E0DF91CF915C
:103140001F910F91FF90EF90DF90CF90BF90AF90C5
:103150009F9008951F93CF93DF93EC0115E0888132
:103160000E94990C19921150D1F7DF91CF911F91C4
:103170000895CF93DF93EC018C859D85009779F0BE
:10318000FC012081222359F00196E4DFEC85FD85C6
:10319000808186FF02C0108202C0806280831D860B
:1031A0001C86DF91CF9160C1CF93DF93EC01E88162
:1031B000F9810688F789E02D1995882331F08C85EF
:1031C0009D850196DF91CF91C5CFDF91CF91089575
:1031D000DF92EF92FF920F931F93CF93DF93E091D3
:1031E000B009F091B109C48DD58D209779F4809103
:1031F000AD0986FF43C070DEEC01009709F43EC0C4
:10320000E091B009F091B109958F848F8091AD095B
:1032100081FF07C08091A5099091A609892B09F02B
:1032200041C0888187FF0EC08F7788838091AD0968
:1032300082608093AD09E091B009F091B109818D70
:103240008F7E818F8091AD0984FF6BC0CE01069681
:1032500081DF8981882309F467C0E091B009F0918A
:10326000B109848195819F838E838881806488835E
:10327000E091B009F091B109158E148EE12CF12C7A
:10328000B7018091AE099091AF095ADAF092A60980
:10329000E092A509DF91CF911F910F91FF90EF90E0
:1032A000DF9008958881807609F0BBCFE12CF12C66
:1032B0008E010E0D1F1DF801818181111EC08091AC
:1032C000A5099091A6090E94FB0BF8018183882330
:1032D000A1F00091A5091091A6092091AE093091A5
:1032E000AF092E533A404091E00860E070E00E9440
:1032F000D40AF4E0EF1295CF0CC02FEFE21AF20AD5
:1033000035E0E316F104A1F68091DD088E7F80930D
:10331000DD08E091B009F091B109818D8061818F64
:1033200080CF87FF03C092CF1882A2CF80FF03C057
:10333000CE0106967ADE8091AD098C70D1F18E8136
:103340008823B9F19F8191110CC0EB84FC84E114B6
:10335000F10409F493CFA70160E070E00E94CE0C65
:1033600006C00E9452087C01009709F487CF809123
:10337000AE099091AF098E539A408093DE08F70111
:10338000E80FF11DCF010E94FB0B8093DF0888231B
:1033900009F476CF6091DE0870E0870120E030E02C
:1033A0004E810E94D40A8091DD0882608093DD08FE
:1033B00067CF888185FF62CF8E8181110BC0188213
:1033C000E091B009F091B109158E148E80E18093DF
:1033D000AD0954CFE091B009F091B109818D8061C0
:1033E000818F4CCF0F9300E020E040E060E08CEC58
:1033F00098E00E94ED260F9108958091DD0881FFED
:1034000011C02091DE0830E04EE35AE060E070E049
:103410008091DF080E94F7098091DD088D7F8093FD
:10342000DD0814C08091A5099091A6090E94FB0BAC
:103430008093DF088823B1F02091A5093091A60977
:103440004EE35AE060E070E00E94F7098091DF08E7
:103450000E94510A8091DF080E94990C1092DF08A7
:1034600081E0089580E00895CF92DF92EF92FF927D
:103470001F93CF93DF938091E008811104C00E94D5
:1034800059098093E0088091E008882309F443C03B
:1034900091E09093DD080E9452089093A6098093D2
:1034A000A509892B61F122E630E04EE35AE060E0A5
:1034B00070E08091E0080E94E70980914A0A9091AB
:1034C0004B0A8830910581F48091E0088093DF08F1
:1034D000EAD981E00E94D10D8091A5099091A609B9
:1034E000892B69F0BBDA0AC08830964041F40EDAC5
:1034F0008091A5099091A609892B09F07EDF809122
:10350000E008882341F08091DD0880FF04C00E941C
:1035100058091092E0080E94E7286B017C01809115
:10352000D3089091D408A091D508B091D608A701EE
:103530009601281B390B4A0B5B0BDA01C9018095F8
:103540009095A095B0958827B7FD83959927AA27D0
:10355000BB27182FC2EBD9E0D093B109C093B009B3
:10356000112311F082E00FC0EC8DFD8D458556854D
:1035700067857089D701C601841B950BA60BB70B15
:10358000B7FD0BC083E00E94D10D2091A5093091B9
:10359000A609232B11F062DA30DF6E969AE0CA3268
:1035A000D907D1F6112369F0AAEFCA0ED11CE11C8C
:1035B000F11CC092D308D092D408E092D508F092C2
:1035C000D608DF91CF911F91FF90EF90DF90CF90C1
:1035D0000895CF93DF93EC010E94E72866507F4F58
:1035E0008F4F9F4F6093D3087093D4088093D50872
:1035F0009093D608CE010E941B0B888180931608F9
:103600008981809317088A81809318088B81809321
:1036100019088C8180931A088D8180931B080E9461
:103620002D0DDF91CF912AC9CF93DF93FC01DA01F1
:10363000E901228130E0322F22278381282B8481E7
:1036400090E0982F88274581842B32272327322723
:1036500030933B0A20933A0A98278927982790931A
:103660003D0A80933C0A12962C91129730E0322F3B
:10367000222713968C911397282B14968C911497CC
:1036800090E0982F882715964C91842B322723277A
:1036900032273093330A2093320A982789279827B4
:1036A0009093350A8093340A2A8130E0322F222702
:1036B0008B81282B8C8190E0982F88274D81842B3B
:1036C0003227232732273093370A2093360A982748
:1036D000892798279093390A8093380AFB018281C1
:1036E0009381A481B5818093D9089093DA08A0933F
:1036F000DB08B093DC08DF91CF910895AF92BF92C1
:10370000CF92DF92EF92FF920F931F93CF93DF93AD
:10371000CDB7DEB768970FB6F894DEBF0FBECDBF4A
:10372000CB016A01590155DF23E336E03A8329834F
:10373000F70182819381A481B5818B839C83AD83C2
:10374000BE8338872F83F80182819381A481B5815C
:1037500089879A87AB87BC873E872D87F501828151
:103760009381A481B5818F87988BA98BBA8B3C8B71
:103770002B8BF60182819381A481B5818D8B9E8BE9
:10378000AF8BB88F9E012F5F3F4FAE01495F5F4FF8
:10379000BE01635F7F4FCE01439646DF68960FB64A
:1037A000F894DEBF0FBECDBFDF91CF911F910F9177
:1037B000FF90EF90DF90CF90BF90AF9008956F9201
:1037C0007F928F929F92AF92BF92CF92DF92EF92B1
:1037D000FF920F931F93CF93DF93CDB7DEB76E9712
:1037E0000FB6F894DEBF0FBECDBF6C015B017A014E
:1037F0004901380100E02FEF4FEF6FEFCE014996FE
:103800000E94ED2623E336E03A8329838B8D9C8D3D
:10381000AD8DBE8D8B839C83AD83BE8338872F8314
:10382000F30182819381A481B58189879A87AB87CF
:10383000BC873E872D87F40182819381A481B58165
:103840008F87988BA98BBA8B3C8B2B8BF70142818E
:103850005381648175814D8B5E8B6F8B788FCE0128
:1038600001967C018E01095F1F4F9E01235F3F4F30
:10387000AE014D5E5F4FB501C60140DF6E960FB6DB
:10388000F894DEBF0FBECDBFDF91CF911F910F9196
:10389000FF90EF90DF90CF90BF90AF909F908F9070
:1038A0007F906F900895CF92DF92EF92FF920F93E7
:1038B0001F93CF93DF93CDB7DEB768970FB6F89419
:1038C000DEBF0FBECDBF6B017901DA0112964D91BB
:1038D0005D916D917C9115974D8B5E8B6F8B788F81
:1038E000A3E3B6E0BA83A98321E0288F0D891E895E
:1038F0002F89388D0B831C832D833E83B887AF833C
:10390000F701028113812481358109871A872B876A
:103910003C87BE87AD874F87588B698B7A8B8E012A
:103920000F5F1F4F9E01295F3F4FAE01435F5F4F07
:10393000B60145DF68960FB6F894DEBF0FBECDBF67
:10394000DF91CF911F910F91FF90EF90DF90CF907B
:1039500008950F931F93CF93DF93CDB7DEB7629790
:103960000FB6F894DEBF0FBECDBFDB01FA01428176
:103970005381648175814F87588B698B7A8BE3E320
:10398000F6E0FA83E98321E02A8B0F8518892989DB
:103990003A890B831C832D833E83F887EF83498705
:1039A0005A876B877C879E012F5F3F4FAE01495F2F
:1039B0005F4FBD0178DF62960FB6F894DEBF0FBE91
:1039C000CDBFDF91CF911F910F910895FB01415021
:1039D0005109460F571FE417F50778F4208130E0AE
:1039E000322F22276181260F311D820F931F8217EC
:1039F000930708F401963296EECFE417F50751F4D9
:103A0000208130E0322F2227820F931F82179307E5
:103A100008F40196089544E150E06CE47AE080E017
:103A200090E0D4DF009711F00C949C138FEF9FEF80
:103A300008950F931F93CF93DF9380914E0A90E0E8
:103A4000982F882720914F0A820F911D8C010451D5
:103A5000110948E050E068E57AE00E97B7DFC091C1
:103A60006C0AC695C695CC73D0E0AE0160E67AE0EC
:103A7000ADDFC017D10750F498012C1B3D0BAE01F0
:103A80004E5D5F4F6091DF080E94A20B009731F0FE
:103A9000DF91CF911F910F910C949C138FEF9FEFAB
:103AA000DF91CF911F910F910895B5CF0F9300E053
:103AB00020E040E060E081EE98E00E94ED2687ED96
:103AC00098E00F910C94E3260F9300E020E040E093
:103AD00060E087EE98E00E94ED260F9108950F9325
:103AE00000E020E040E060E08DEE98E00E94ED26EE
:103AF0000F910895FC0110820895CF92DF92EF920A
:103B0000FF92CF93DF93EC016A017B018B859C854B
:103B1000AD85BE859A01AB01281B390B4A0B5B0BA7
:103B2000DA01C90149815A816B817C81841795072B
:103B3000A607B707D8F08881813019F0823029F0C4
:103B40000CC0E985FA85199508C061E08885811166
:103B500060E068878F810E94342ACB86DC86ED8600
:103B6000FE868F8598890196988B8F878D819E819F
:103B700097FD06C02F853889281739070CF0188261
:103B8000DF91CF91FF90EF90DF90CF9008950F934A
:103B90001F93CF93DF93EC018C0106551F4FCE018D
:103BA000A9DF6196C017D107D1F7DF91CF911F919F
:103BB0000F910895CF92DF92EF92FF921F93CF93D0
:103BC000DF936A017B01EC011AE08881882321F0F0
:103BD000B701A601CE0191DF115061961111F5CF09
:103BE000DF91CF911F91FF90EF90DF90CF900895DC
:103BF000CF93DF93EC010E94E728AB01BC01CE011B
:103C0000DF91CF91D7CF20E0FC013081332331F019
:103C10002F5F41962A30C1F78FEF0895822F0895C4
:103C2000CF92DF92EF92FF920F931F93CF93DF9388
:103C300000D01F92CDB7DEB76C01790149835A835A
:103C40006B837C83E0DF282F49815A816B817C81E3
:103C50008F3FD9F081E12802C00CD11C112481E0F2
:103C6000F6018083418352836383748316830583C3
:103C7000F286E18629830E94E728F601638774872C
:103C800085879687108A17862981822F0F900F903B
:103C90000F900F90DF91CF911F910F91FF90EF90B8
:103CA000DF90CF9008950F931F930FEF1FEFB8DFB2
:103CB0001F910F910895CF92DF92EF92FF920F9391
:103CC0001F93CF93DF93EC018B010E94E7286B01D8
:103CD0007C0188819981DC01ED91FC910480F58162
:103CE000E02D1995892B69F40E94E7286C197D094C
:103CF0008E099F0968397A438105910550F380E068
:103D00000CC088819981DC01ED91FC910680F781DE
:103D1000E02D1995F801808381E0DF91CF911F910B
:103D20000F91FF90EF90DF90CF9008950F931F9326
:103D3000CF93DF93EA0108811981600F711FBBDF08
:103D4000882331F00F5F1F4F1983088381E001C082
:103D500080E0DF91CF911F910F9108953F924F9294
:103D60005F926F927F928F929F92AF92BF92CF920B
:103D7000DF92EF92FF920F931F93CF93DF9300D0C8
:103D8000CDB7DEB78C016B011A8219825C0182E02B
:103D9000A80EB11CAE014F5F5F4FB501C801C6DF71
:103DA000811103C080E090E0B9C0D80112969C90C8
:103DB0001B82E12CF12C412C512C32014394BE0189
:103DC0006D5F7F4FC80177DF882361F329813A81D6
:103DD000C90101969A8389836B81F801E20FF31F71
:103DE0006283462F4F7750E0449D9001459D300DF2
:103DF000549D300D1124E20EF31E97E0440C551C27
:103E0000661C771C9A95D1F767FDD9CF292D207FA5
:103E100033243394203309F0312C8150F601808310
:103E2000332031F1AE014F5F5F4FB501C8017EDF36
:103E3000882309F4B7CFAE014F5F5F4FB501C801CA
:103E400075DF882309F4AECFD6018C91F801E80F15
:103E5000F11D4380512C542C44248481480E511C64
:103E6000F801828181FF08C0F2E04F0E511C04C0AE
:103E700080E0412C512C01C082E0A82EB12C612C95
:103E8000712C480189E9880E911CC3018A0D9B1D84
:103E90008E159F0598F5BE016D5F7F4FC8010BDF42
:103EA000882309F47FCFD4018D919C910097A9F0CC
:103EB000332099F029813A8122503109F60140815D
:103EC000241B31094216530640F4DC01ED91FC91AC
:103ED0000190F081E02D6B81199589819A8180385C
:103EE000910528F42B81F801E80FF91F2283019630
:103EF0009A838983BFEF6B1A7B0AC7CFF801E75615
:103F0000FF4F80819181892B39F489819A81813891
:103F1000910510F01A82198289819A810F900F9071
:103F20000F90DF91CF911F910F91FF90EF90DF9055
:103F3000CF90BF90AF909F908F907F906F905F9049
:103F40004F903F900895AF92BF92CF92DF92EF9241
:103F5000FF920F931F93CF93DF9300D01F92CDB7A3
:103F6000DEB77C01F90180E09E2F9F77EE0FEF2FE7
:103F7000EE1FFF0BF195309709F09068A1E0B0E0DB
:103F8000AC0FBD1FA80FB11D9C938F5F309761F7D9
:103F9000A82EB12CDA01AA19BB0914966C93BE01A4
:103FA0006F5F7F4F80E090E04A195B098A159B059F
:103FB00054F4FB01D190BF018A01080F191FF801C9
:103FC000D5820196F3CFF7018081918189010F5F3E
:103FD0001F4F0A0D1B1DFC0120813181F901228137
:103FE0003381A801BD01F90119956C010E94E728F0
:103FF000F701EC57FF4F608371838283938381E0E5
:10400000C016D10609F080E00F900F900F900F902E
:10401000DF91CF911F910F91FF90EF90DF90CF90A4
:10402000BF90AF900895C9010296DB01FD01E61B28
:10403000F70B2D91222331F0FA01E80FF91F2083AD
:104040000196F4CF9C012E1B3F0B240F351FD90185
:104050001297FC931196EC930895CF93DF93EC01A4
:1040600088819981009731F1DC01ED91FC91048800
:10407000F589E02D199581111FC0FE01E556FF4F0E
:1040800080819181892BB1F48DEF9FEF91838083A3
:1040900088819981DC01ED91FC910284F385E02D0A
:1040A000199588819981DC01ED91FC910288F38951
:1040B000E02D199580E001C081E0DF91CF91089556
:1040C0002F923F924F925F926F927F928F929F9228
:1040D000AF92BF92CF92EF92FF920F931F93CF9325
:1040E000DF93CDB7DEB72E970FB6F894DEBF0FBEC5
:1040F000CDBF4C011B012A013901AFDF811111C174
:10410000F401EB56FF4F60817181D4018D919C9138
:104110001197A956BF4FFC012081318161157105AE
:1041200041F04D915C91D9011E96ED91FC911F9744
:104130001FC0F9010484F585E02DFE87ED87ED9120
:10414000FC9123E336E03A832983D401A157BF4F82
:1041500012964D915D916D917C9115974B835C8387
:104160006D837E83AF01BE016F5F7F4FED85FE855E
:104170001995F4018130910509F0CBC0EE57FF4F3E
:104180009183808389E0E5E1F2E0DE011196019000
:104190000D928A95E1F7FE01319680E090E0219141
:1041A000D401A80FB91F17962C9301968930910559
:1041B000B1F70115110559F0F0E2CF9EC0011124AD
:1041C000866028E0E29E700111248E2901C082E001
:1041D0004114510431F06114710411F4806801C07C
:1041E000806CD40150968C93509751961C925197A5
:1041F0008FE052968C937401B2E0EB0EF11C21E13A
:1042000030E0A701B101C4010EDF0115110551F025
:104210009C01A701B801C40106DF9C01A701B501FB
:10422000C40101DF4114510469F09C01A701B201EE
:10423000C401F9DE6114710429F09C01A701B301E6
:10424000C401F1DE9C0125503109A70160E1C401E0
:104250007ADEBDD7F401EC57FF4F60837183828310
:104260009383840108571F4FF80160837183828311
:104270009383F40180819181DC01ED91FC910480B4
:10428000F581E02D1995892BB9F4A1D7D8014D906E
:104290005D906D907C90641975098609970968395D
:1042A0007A438105910528F3F401E556FF4F8CEF21
:1042B0009FEF9183808322C0BE01665F7F4FC40160
:1042C0004DDD0497D9F4F4018581940125563F4FC3
:1042D000790181110FC07BD7D8016D937D938D93A8
:1042E0009C931397F401E457FF4F1082F70111825A
:1042F000108217C090E0D9018D939C93F4018081C6
:104300009181DC01ED91FC910288F389E02D1995F2
:1043100006C0E556FF4F8EEF9FEF9183808380E0CC
:1043200001C081E02E960FB6F894DEBF0FBECDBF60
:10433000DF91CF911F910F91FF90EF90CF90BF90A1
:10434000AF909F908F907F906F905F904F903F9035
:104350002F900895AF92BF92CF92EF920F931F9339
:10436000A12CB12CC12CE12C00E010E0A9DE1F91A2
:104370000F91EF90CF90BF90AF9008952F923F9202
:104380004F925F926F927F928F929F92AF92BF9265
:10439000CF92DF92EF92FF920F931F93CF93DF9311
:1043A00000D01F92CDB7DEB78C014DB65EB655DE9C
:1043B000882309F440C10BD76B017C01580128E820
:1043C000A20EB11CF50180819181A281B381A70168
:1043D0009601281B390B4A0B5B0BDA01C90189399D
:1043E0009A43A105B10590F4349780819181A2810F
:1043F000B381A7019601281B390B4A0B5B0BDA012D
:10440000C90189399A43A105B105C0F148014CE8B9
:10441000840E911CD4012C91F8018081918122237A
:1044200071F0E556FF4F2CEF3FEF31832083DC0125
:10443000ED91FC910288F389E02D1995FCC020ECE8
:10444000F80122831382DC01ED91FC910280F3815B
:10445000E02D42E050E0B8016E5F7F4F1995F80102
:10446000EC57FF4FC082D182E282F382F501C08215
:10447000D182E282F38281E0D4018C93F8018081C1
:104480009181DC01ED91FC910480F581E02D19957D
:10449000892B09F4D2C0BE016F5F7F4FC8015EDC7B
:1044A000FC01009709F4C9C0D501CD92DD92ED92CF
:1044B000FC921397D80112968C91807F803309F07B
:1044C0009FC04801BDE88B0E911CD4018D919C9139
:1044D000892B09F4B2C02DB63EB6698170E0D801CF
:1044E000A60FB71F13964C91139750E0542F4427F3
:1044F00014968C911497480F511DCA0101962DB73F
:104500003EB7281B390B0FB6F8943EBF0FBE2DBF28
:104510008DB79EB701965C0120E030E0BC83AB8391
:104520002417350769F06B807C80620E731ED301FF
:1045300015966C90D5016D925D012F5F3F4FF0CFC6
:10454000DC01A20FB31F1C92D8011296BC91B67069
:10455000BA83B230E9F53901660E771ED801A60D8F
:10456000B71D1596AC901597B12CBA2CAA241696A7
:104570004C91A40EB11C4BEF5FEF461B570B421B37
:10458000530B4E0F5F1FB301695F7F4F600F711FA9
:10459000D401ED91FC91199580E4F80182837A8031
:1045A0007382B482A582D8018D919D91BD01DC01F9
:1045B000ED91FC910280F381E02D44E050E01995EB
:1045C000F801EC57FF4FC082D182E282F38212C021
:1045D0004DEF5FEF461B570B421B530B4E0F5F1FF8
:1045E000620F731F6B5F7F4F600F711FD401ED91DE
:1045F000FC9119950FB6F8943EBE0FBE2DBE1DC09E
:10460000803C91F480EDF80182831382D8018D9172
:104610009D91BD01DC01ED91FC910280F381E02DC3
:1046200042E050E0199509C0803D39F4F801E457A3
:10463000FF4F108202C080E001C081E00FB6F89405
:104640005EBE0FBE4DBE0F900F900F900F90DF918A
:10465000CF911F910F91FF90EF90DF90CF90BF907F
:10466000AF909F908F907F906F905F904F903F9012
:104670002F9008958F929F92BF92CF92DF92EF92E8
:10468000FF920F931F93CF93DF931F921F92CDB78B
:10469000DEB74C01B42E152F790169837A83DDDCF6
:1046A00069817A81882309F444C0FB0101900020CC
:1046B000E9F73197E61BF70BC70107968E0F9F1F8F
:1046C00081389105B0F5640182E0C80ED11C25E067
:1046D00030E0A601C401A7DCEB2DF12F60E070E013
:1046E0009401280F391F6E157F0549F04191D901BA
:1046F000A60FB71F12964C936F5F7F4FF4CF011137
:1047000002C060E301C061E3970125503109280F21
:10471000391FA601C4010F900F90DF91CF911F9117
:104720000F91FF90EF90DF90CF90BF909F908F9070
:104730000ACC80E00F900F90DF91CF911F910F91E5
:10474000FF90EF90DF90CF90BF909F908F90089553
:104750000F93FA0101900020E9F79F0121503109E0
:10476000241B350B00E086DF0F910895CF92DF9276
:10477000FF920F931F93CF93DF931F921F92CDB79A
:10478000DEB76C01F42E81E0841708F43EC0FB0113
:1047900001900020E9F7E61BF70B3896E138F105A8
:1047A000A0F5C60169837A8358DC69817A81882300
:1047B00061F1F601EE57FF4F80819181019611F46E
:1047C00081E090E09183808380819181F6019783DD
:1047D000808786010E5F1F4F27E030E0A801C601E9
:1047E00022DCF601E80FF91FF2829C012450310906
:1047F000A80162E8C6010F900F90DF91CF911F9141
:104800000F91FF90DF90CF909ECB80E00F900F90A4
:10481000DF91CF911F910F91FF90DF90CF9008957E
:1048200040E0A4CFCF92DF92EF92FF920F931F93BD
:10483000CF93DF93CDB7DEB72C970FB6F894DEBFDA
:104840000FBECDBF7C01FB016A0103812281418142
:104850006081CE010796C1D209851A852B853C85DA
:10486000F701E157FF4F0283138324833583389682
:10487000D182C082329711821082C7012C960FB666
:10488000F894DEBF0FBECDBFDF91CF911F910F9186
:10489000FF90EF90DF90CF900895CF92DF92EF924C
:1048A000FF920F931F93CF93DF9300D01F92CDB74A
:1048B000DEB76C01790181579F4F4B835C8369831D
:1048C0007A8381D2F601E556FF4F8FEF9FEF9183F8
:1048D00080834B815C8169817A81C601A3DFF60107
:1048E000E357FF4FF182E082F60111830083E75620
:1048F000FF4F118210820F900F900F900F90DF9159
:10490000CF911F910F91FF90EF90DF90CF9008957E
:104910000F9300E020E040E060E083EF98E05DD29C
:104920000F910895FC01818D228D90E0805C9F4F56
:10493000821B91098F7399270895FC01918D828DB7
:10494000981731F0828DE80FF11D858D90E0089564
:104950008FEF9FEF0895FC01918D828D981761F084
:10496000828DDF01A80FB11D5D968C91928D9F5FA6
:104970009F73928F90E008958FEF9FEF089580E6E8
:1049800096E2892B39F080E090E0892B19F098D1DC
:10499000811125C080E090E0892B41F080E090E01B
:1049A000892B21F00E94000081111CC080E090E062
:1049B000892B41F080E090E0892B21F00E940000DB
:1049C000811113C080E090E0892BA1F080E090E09D
:1049D000892B81F00E94000081110AC008950E9475
:1049E0000000D8CF0E940000E1CF0E940000EACF73
:1049F0000C9400000895FC01848DDF01A80FB11D07
:104A0000A35ABF4F2C91848D90E001968F73992704
:104A1000848FA689B7892C93A089B1898C918064F1
:104A20008C93938D848D981306C00288F389E02DB2
:104A300080818F7D80830895CF93DF93EC01888DF3
:104A40008823C1F0EA89FB89808185FD05C0A8899A
:104A5000B9898C9186FD0EC00FB607FCF5CF808119
:104A600085FFF2CFA889B9898C9185FFEDCFCE0162
:104A7000C2DFE8CFDF91CF910895CF92DF92FF920E
:104A80000F931F93CF93DF931F92CDB7DEB76C01C7
:104A900081E0D60158968C9358975B969C915B97D2
:104AA0005C968C915C97981307C05096ED91FC91A1
:104AB0005197808185FD2DC0F601038D10E00F5FB9
:104AC0001F4F0F731127F02EF601848DF81210C0BE
:104AD0000FB607FCF9CFD6015096ED91FC91519796
:104AE000808185FFF1CFC601698385DF6981ECCFC5
:104AF000838DE80FF11DE35AFF4F6083D6015B966B
:104B00000C935B975296ED91FC9153978081806254
:104B10000CC0D6015696ED91FC9157976083509644
:104B2000ED91FC91519780818064808381E090E0D9
:104B30000F90DF91CF911F910F91FF90DF90CF9059
:104B40000895BF92CF92DF92EF92FF92CF93DF93BF
:104B5000EC016A017B01B22EE889F98982E0808349
:104B6000411581EE58076105710599F060E079E023
:104B70008DE390E0A7019601F4D521503109410958
:104B800051095695479537952795211580E13807A6
:104B900090F0E889F989108260E874E88EE190E08D
:104BA000A7019601DED521503109410951095695D9
:104BB000479537952795EC85FD853083EE85FF85F4
:104BC0002083188EEC89FD89B082EA89FB89808177
:104BD00080618083EA89FB89808188608083EA899B
:104BE000FB89808180688083EA89FB8980818F7D51
:104BF0008083DF91CF91FF90EF90DF90CF90BF90B7
:104C000008951F920F920FB60F9211240BB60F92B8
:104C10002F938F939F93EF93FF93E0910909F09166
:104C20000A098081E0910F09F091100982FD12C0FC
:104C30009081809112098F5F8F73209113098217E1
:104C400051F0E0911209F0E0E750F74F958F809313
:104C5000120901C08081FF91EF919F918F912F9157
:104C60000F900BBE0F900FBE0F901F9018951F92C4
:104C70000F920FB60F9211240BB60F922F933F9302
:104C80004F935F936F937F938F939F93AF93BF9354
:104C9000EF93FF9389EF98E0AEDEFF91EF91BF9124
:104CA000AF919F918F917F916F915F914F913F91C4
:104CB0002F910F900BBE0F900FBE0F901F90189565
:104CC00089EF98E02FDE21E0892B09F420E0822F84
:104CD00008951092FC081092FB0888EE93E0A0E083
:104CE000B0E08093FD089093FE08A093FF08B09376
:104CF000000983E296E09093FA088093F90885EC26
:104D000090E0909306098093050984EC90E09093DD
:104D100008098093070980EC90E090930A0980933A
:104D2000090981EC90E090930C0980930B0982ECC7
:104D300090E090930E0980930D0986EC90E090939B
:104D4000100980930F091092120910921309109202
:104D50001409109215090895AF92BF92CF92DF9275
:104D6000EF92FF920F931F93CF93DF936C017B0120
:104D7000C0E0D0E000E010E0F601EC0FFD1F4AE0DB
:104D800050E06281C701ECD05C016EE2C7017ED0C9
:104D90008A0D9B1D080F191F2196C330D10561F79D
:104DA0004AE050E0F6016581C701DAD0800F911F1B
:104DB000DF91CF911F910F91FF90EF90DF90CF90F7
:104DC000BF90AF90089523E336E0FC013183208348
:104DD000128213821482158208950F93FC0183E3DB
:104DE00096E09183808362834383248305830F91BC
:104DF000089583E396E09093970980939609109223
:104E000098091092990910929A0910929B09089595
:104E1000CF92DF92EF92FF920F931F93CF93DF9386
:104E20006C017A01EB01E60EF71E00E010E0CE15F2
:104E3000DF0561F06991D601ED91FC910190F0815F
:104E4000E02DC6011995080F191FF1CFC801DF9198
:104E5000CF911F910F91FF90EF90DF90CF90089529
:104E60006115710581F0DB010D900020E9F7AD01BE
:104E700041505109461B570BDC01ED91FC9102801A
:104E8000F381E02D199480E090E00895DC01ED912C
:104E9000FC910190F081E02D19948F929F92AF9236
:104EA000BF92CF92DF92EF92FF920F931F93CF9317
:104EB000DF93CDB7DEB7A1970FB6F894DEBF0FBE74
:104EC000CDBF7C01C42EE52FCB01D22E19A221E04B
:104ED0002D1510F02AE0D22E8E010F5D1F4F8D2C64
:104EE000912CA12CB12C6C2D7E2FA501940139D4CD
:104EF0008C2DD29E80191124015011098A3014F48E
:104F0000805D01C0895CF801808321153105410570
:104F1000510521F0C22EE32FCA01E5CFB801C70128
:104F20009FDFA1960FB6F894DEBF0FBECDBFDF9115
:104F3000CF911F910F91FF90EF90DF90CF90BF9096
:104F4000AF909F908F9008952115310541F4DC01B9
:104F5000ED91FC910190F081E02D642F19949DCF8B
:104F60009A01462F50E060E070E0EECFCF93DF93E0
:104F700000D01F92CDB7DEB79B01AC016115710562
:104F80008105910559F069833A834B835C83DBD5B6
:104F900029813A814B815C8106D403C060E070E0D6
:104FA000CB010F900F900F900F90DF91CF9108954C
:104FB000CF92DF92EF92FF926B017C016217730731
:104FC000840795075CF4CA01B9016C197D098E0943
:104FD0009F09CCDF6C0D7D1D8E1D9F1DFF90EF90F6
:104FE000DF90CF900895FC0180819181D3C4CF934D
:104FF000DF93EC0188819981009709F0CBD4198265
:1050000018821D821C821B821A82DF91CF91089523
:105010000F931F93CF93DF93EC018B016F5F7F4F53
:10502000888199819CD5009731F0998388831B836F
:105030000A8381E001C080E0DF91CF911F910F9141
:105040000895CF93DF93EC0188819981892B29F012
:105050008A819B818617970758F4CE01D9DF882370
:1050600041F08C819D81892B19F4E881F9811082AE
:1050700081E0DF91CF910895EF92FF920F931F93FC
:10508000CF93DF93EC017B018A01BA01DADF811152
:1050900003C0CE01ACDF06C01D830C83B70188813D
:1050A00099817BD6CE01DF91CF911F910F91FF9017
:1050B000EF900895FC0111821082138212821582F2
:1050C00014826115710551F0FB0101900020E9F790
:1050D000AF0141505109461B570BCECF0895FC013B
:1050E00024813581232B31F421E06115710599F07C
:1050F000FB0108C0FC01808191816115710531F4CB
:1051000021E0FC018081882331F004C03DD621E0FC
:10511000892B09F020E0822F089505D60895B6D096
:10512000FDDF0E940402CFEBD4E20E945C022097D4
:10513000E1F325DCFACF96C32DC41F920F920FB670
:105140000F9211242F933F938F939F93AF93BF930D
:1051500080919D0990919E09A0919F09B091A0090D
:1051600030919C0923E0230F2D3720F40196A11DD7
:10517000B11D05C026E8230F0296A11DB11D209385
:105180009C0980939D0990939E09A0939F09B093D9
:10519000A0098091A1099091A209A091A309B091C1
:1051A000A4090196A11DB11D8093A1099093A209A4
:1051B000A093A309B093A409BF91AF919F918F9140
:1051C0003F912F910F900FBE0F901F9018952FB702
:1051D000F89460919D0970919E0980919F0990912A
:1051E000A0092FBF08953FB7F8948091A10990912D
:1051F000A209A091A309B091A40926B5A89B05C056
:105200002F3F19F00196A11DB11D3FBF6627782FD2
:10521000892F9A2F620F711D811D911D42E0660F2B
:10522000771F881F991F4A95D1F70895CF92DF9273
:10523000EF92FF92CF93DF936B017C01D4DFEB0100
:10524000C114D104E104F10479F06BD1CCDF6C1B03
:105250007D0B683E7340A0F381E0C81AD108E108D5
:10526000F108C851DC4FECCFDF91CF91FF90EF9068
:10527000DF90CF9008958230910538F0880F991F04
:10528000880F991F05970197F1F70895789484B5D1
:10529000826084BD84B5816084BD85B5826085BD32
:1052A00085B5816085BDEEE6F0E080818160808318
:1052B000E1E8F0E0108280818260808380818160FB
:1052C0008083E0E8F0E0808181608083E1EBF0E0C2
:1052D000808184608083E0EBF0E080818160808366
:1052E000E1E9F0E080818260808380818160808359
:1052F000E0E9F0E0808181608083E1EAF0E0808194
:1053000082608083808181608083E0EAF0E0808138
:1053100081608083E1E2F1E080818260808380812E
:1053200081608083E0E2F1E0808181608083EAE750
:10533000F0E08081846080838081826080838081CE
:10534000816080838081806880831092C10008958D
:1053500090E0FC013197E231F10508F04BC0E658CE
:10536000FF4F3DC2809180008F7703C08091800005
:105370008F7D80938000089580918000877FF9CF92
:1053800084B58F7702C084B58F7D84BD08958091E8
:10539000B0008F7703C08091B0008F7D8093B00004
:1053A0000895809190008F7707C0809190008F7D45
:1053B00003C080919000877F809390000895809132
:1053C000A0008F7707C08091A0008F7D03C08091DF
:1053D000A000877F8093A0000895809120018F779F
:1053E00007C0809120018F7D03C080912001877FBD
:1053F000809320010895CF93DF9390E0FC01E25A5F
:10540000FE4F2491FC01EC55FE4F8491882349F115
:1054100090E0880F991FFC01E25EFD4FA591B491C9
:105420008C5F9D4FFC01C591D4919FB7611108C05D
:10543000F8948C91209582238C93888182230AC0D2
:10544000623051F4F8948C91322F309583238C93F1
:105450008881822B888304C0F8948C91822B8C9352
:105460009FBFDF91CF9108950F931F93CF93DF9349
:105470001F92CDB7DEB7282F30E0F901E85EFE4F6E
:105480008491F901E25AFE4F1491F901EC55FE4F57
:1054900004910023C1F0882319F0698359DF6981E1
:1054A000E02FF0E0EE0FFF1FEC5FFD4FA591B491F0
:1054B0009FB7F8948C91611103C01095812301C0AE
:1054C000812B8C939FBF0F90DF91CF911F910F91F4
:1054D0000895CF93DF93282F30E0F901E85EFE4F67
:1054E0008491F901E25AFE4FD491F901EC55FE4F37
:1054F000C491CC2389F081112BDFEC2FF0E0EE0F6B
:10550000FF1FE651FE4FA591B4912C912D2381E010
:1055100090E021F480E002C080E090E0DF91CF9144
:10552000089508955058BB27AA270ED0DCC0CDD0CF
:1055300030F0D2D020F031F49F3F11F41EF4C2C0FD
:105540000EF4E095E7FBB8C0E92FDED080F3BA1780
:10555000620773078407950718F071F49EF5F6C08B
:105560000EF4E0950B2EBA2FA02D0B01B90190017E
:105570000C01CA01A0011124FF27591B99F0593FC2
:1055800050F4503E68F11A16F040A22F232F342F0A
:105590004427585FF3CF469537952795A795F04058
:1055A0005395C9F77EF41F16BA0B620B730B840B6D
:1055B000BAF09150A1F0FF0FBB1F661F771F881F25
:1055C000C2F70EC0BA0F621F731F841F48F487957D
:1055D00077956795B795F7959E3F08F0B3CF93956C
:1055E000880F08F09927EE0F97958795089540D07A
:1055F00008F481E00895E89409C097FB3EF4909583
:105600008095709561957F4F8F4F9F4F9923A9F09B
:10561000F92F96E9BB279395F6958795779567952A
:10562000B795F111F8CFFAF4BB0F11F460FF1BC06E
:105630006F5F7F4F8F4F9F4F16C0882311F096E901
:1056400011C0772321F09EE8872F762F05C06623AF
:1056500071F096E8862F70E060E02AF09A95660F68
:10566000771F881FDAF7880F9695879597F9089521
:10567000990F0008550FAA0BE0E8FEEF1616170663
:10568000E807F907C0F012161306E407F50798F0CB
:10569000621B730B840B950B39F40A2661F0232BE4
:1056A000242B252B21F408950A2609F4A140A69560
:1056B0008FEF811D811D089597F99F6780E870E045
:1056C00060E008959FEF80EC089500240A94161678
:1056D000170618060906089500240A9412161306E0
:1056E000140605060895092E0394000C11F488236E
:1056F00052F0BB0F40F4BF2B11F460FF04C06F5F8A
:105700007F4F8F4F9F4F089557FD9058440F551F5F
:1057100059F05F3F71F04795880F97FB991F61F033
:105720009F3F79F087950895121613061406551FAA
:10573000F2CF4695F1DF08C0161617061806991F16
:10574000F1CF86957105610508940895E894BB270B
:1057500066277727CB0197F908958ADF08F48FEF42
:105760000895A1E21A2EAA1BBB1BFD010DC0AA1FA2
:10577000BB1FEE1FFF1FA217B307E407F50720F0BA
:10578000A21BB30BE40BF50B661F771F881F991F35
:105790001A9469F760957095809590959B01AC017E
:1057A000BD01CF010895052E97FB16F400940FD08C
:1057B00057FD05D0D6DF07FC02D046F408C050954F
:1057C0004095309521953F4F4F4F5F4F08959095ED
:1057D0008095709561957F4F8F4F9F4F0895EE0F85
:1057E000FF1F0590F491E02D19940DD0A59F900D09
:1057F000B49F900DA49F800D911D112408950790D2
:10580000F691E02D1994A29FB001B39FC001A39F10
:10581000700D811D1124911DB29F700D811D1124E9
:10582000911D0895EF920F931F93CF93DF93E8019B
:1058300047FF02C034E101C034E0E42FFF27E7FD59
:10584000F095F7FF03C0F195E195F109E32E022FE2
:105850002E2FAE01B1D2CE01DF91CF911F910F91CA
:10586000EF900895CF93DF938230910510F482E09A
:1058700090E0E091A60AF091A70A20E030E0A0E0D5
:10588000B0E0309739F14081518148175907B8F09D
:105890004817590771F482819381109729F0139664
:1058A0009C938E9312972CC09093A70A8093A60A7C
:1058B00027C02115310531F04217530718F0A9010F
:1058C000DB0101C0EF019A01BD01DF010280F3811C
:1058D000E02DD7CF21153105F9F0281B390B2430E5
:1058E000310580F48A819B816115710521F0FB01EE
:1058F0009383828304C09093A70A8093A60AFE0133
:10590000329644C0FE01E20FF31F8193919322501F
:105910003109398328833AC02091A40A3091A50A1D
:10592000232B41F420910202309103023093A50A07
:105930002093A40A20910002309101022115310523
:1059400041F42DB73EB74091040250910502241B4B
:10595000350BE091A40AF091A50AE217F307A0F431
:105960002E1B3F0B2817390778F0AC014E5F5F4FB5
:105970002417350748F04E0F5F1F5093A50A409338
:10598000A40A8193919302C0E0E0F0E0CF01DF919F
:10599000CF910895CF93DF93009709F487C0FC015E
:1059A000329713821282C091A60AD091A70A20973B
:1059B00081F420813181280F391F8091A40A9091B0
:1059C000A50A8217930779F5F093A50AE093A40A34
:1059D0006DC0DE0120E030E0AE17BF0750F4129634
:1059E0004D915C9113979D014115510509F1DA0123
:1059F000F3CFB383A28340815181840F951F8A170F
:105A00009B0771F48D919C911197840F951F0296BD
:105A10009183808312968D919C91139793838283B7
:105A20002115310529F4F093A70AE093A60A3EC098
:105A3000D9011396FC93EE9312974D915D91A40FAB
:105A4000B51FEA17FB0779F480819181840F951FB8
:105A50000296D90111969C938E938281938113961D
:105A60009C938E931297E0E0F0E08A819B810097EF
:105A700019F0FE01EC01F9CFCE010296288139819F
:105A8000820F931F2091A40A3091A50A2817390785
:105A900069F4309729F41092A70A1092A60A02C05E
:105AA00013821282D093A50AC093A40ADF91CF91EA
:105AB00008958F929F92AF92BF92CF92DF92EF9212
:105AC000FF92CF93DF93EC01688179818A819B817A
:105AD000611571058105910521F464E279ED8BE58D
