:10000000CEC10000FDC10000FBC10000F9C100002D
:10001000F7C10000F5C10000F3C10000F1C100000C
:10002000EFC10000EDC10000EBC10000E9C100001C
:10003000E7C10000E5C10000E3C10000E1C100002C
:10004000DFC10000DDC10000DBC10000D9C100003C
:10005000D7C10000D5C10000D3C100000C940E3000
:10006000CFC100000C94722D0C94A82DC9C10000C2
:10007000C7C10000C5C10000C3C10000C1C100006C
:10008000BFC10000BDC10000BBC10000B9C100007C
:10009000B7C10000B5C10000B3C10000B1C100008C
:1000A000AFC10000ADC10000ABC10000A9C100009C
:1000B000A7C10000A5C10000A3C10000A1C10000AC
:1000C0009FC100009DC100009BC1000099C10000BC
:1000D00097C1000095C1000093C1000091C10000CC
:1000E0008FC100003A0C510CCE0CB80DD70DF40D99
:1000F000FC0DAE0D30313331223126312C316A31D5
:1001000037313B314131453149314F31533157312D
:100110006A315D316131653100000A0B02090C0D55
:100120000E080703040100000000000000000000AA
:1001300000000000000000000000000000000000BF
:10014000000000001211100000000000000000007C
:10015000000000000000000000000000000001029C
:1001600010202008081020401020408002010201C9
:100170000804020101020408102040808040201081
:1001800008040201800402018040201008040201DA
:100190000804020101020408102040800102040842
:1001A000102040800505050507050808080802021B
:1001B00002020A0A08080404040401010101010101
:1001C00001010303030303030303040707070C0CE4
:1001D0000C0C0C0C0C0C02020202060606060606AB
:1001E00006060B0B0B0B0B0B0B0B00002000230068
:1001F000260029002C002F0032000001000003011E
:100200000601090100002200250028002B002E0015
:100210003100340002010000050108010B0100005B
:100220002100240027002A002D00300033000101A6
:100230000000040107010A014E414E494E4954593C
:10024000494E46CDCCCC3D0AD7233C17B7D13877A1
:10025000CC2B329595E6241FB14F0A0000204100B7
:1002600000C84200401C4620BCBE4CCA1B0E5AAE01
:10027000C59D7400407A10F35A00A0724E18090010
:1002800010A5D4E80000E87648170000E40B5402FB
:100290000000CA9A3B000000E1F505000080969836
:1002A00000000040420F000000A086010000001086
:1002B0002700000000E803000000006400000000C8
:1002C000000A00000000000100000000002C76D8A9
:1002D00088DC674F0823DFC1DFAE59E1B1B796E58F
:1002E000E3E453C63AE651997696E8E6C28426EBF3
:1002F000898C9B62ED407C6FFCEFBC9C9F40F2BA06
:10030000A56FA5F490055A2AF75C936B6CF9676D9D
:10031000C11BFCE0E40D47FEF520E6B500D0ED90F2
:100320002E0300943577050080841E080000204EBF
:100330000A000000C80C333333330F986E12831158
:1003400041EF8D2114893BE65516CFFEE6DB18D12F
:10035000844B381BF77C1D901DA4BBE42420328401
:10036000725E228100C9F124ECA1E53D27000E0355
:1003700029113411F6145A18681873180B1A701AC8
:10038000A11A0F1B931B0D1C4C1F861FE91F5B2618
:100390009527D828F929EB2AF92BDA2D6A2E112472
:1003A0001FBECFEFD1E2DEBFCDBF00E00CBF19E032
:1003B000A0E0B2E0ECE4F5E700E00BBF02C007907C
:1003C0000D92A232B107D9F72DE0A2E2B9E001C047
:1003D0001D92A93DB207E1F713E0CEE9D3E000E0BA
:1003E00006C022970109FE010BBF0E940334CE36DE
:1003F000D10780E00807A9F70E9400300C94A43AC6
:10040000FFCD23E230E040E050E06FE070E080E0BC
:1004100090E00E94492FAB0160E472E08091F10905
:100420009091F2090E94FF1923E230E040E050E091
:100430006FE070E080E090E00E94492FAB016FE533
:1004400072E08091F1099091F2090E94FF1923E274
:1004500030E040E050E06FE070E080E090E00E942B
:10046000492FAB0162E872E08091F1099091F209A5
:100470000E94FF1924E630E040E050E06DE270E0B9
:1004800080E090E00E94492FAB0164EA72E0809125
:10049000F1099091F2090E94FF1923E230E040E057
:1004A00050E06FE070E080E090E00E94492FAB01E7
:1004B00063EC72E08091F1099091F2090C94FF19BC
:1004C0000F931F93CF93DF9300D000D0CDB7DEB74B
:1004D00026E040E052EC61E070E088E29CE00E949F
:1004E000122D80E299E09A8389838091050A909188
:1004F000060AA091070AB091080A8B839C83AD83FA
:10050000BE83AE014F5F5F4F6EE072E08BEA9BE00F
:100510000E94AD176091F1097091F2098091F30981
:100520009091F4090E941A1B8BE090E00E940C301D
:100530008C014091F3095091F4096091CC097091BC
:10054000CD0920E00E946C191093F2090093F10983
:100550008091CC099091CD09DC01ED91FC91048052
:10056000F581E02D60E070E019958091CC099091C3
:10057000CD09DC01ED91FC910480F581E02D63E073
:1005800070E019958091CC099091CD09DC01ED9135
:10059000FC910480F581E02D65E070E01995809173
:1005A000CC099091CD09DC01ED91FC910480F5819D
:1005B000E02D61E070E019958091F1099091F209C8
:1005C0000E94911921E032E040E355E760E070E0DD
:1005D00082E299E00E94571914DF26960FB6F8942C
:1005E000DEBF0FBECDBFDF91CF911F910F91089558
:1005F0006091F1097091F2098091F3099091F409E9
:100600000E941A1B882331F08091F3099091F4091C
:100610000E948E2382E299E00C94FC180F931F93A2
:10062000CF93DF9300E020E040E060E089E09AE0D3
:100630000E945E2E05E22EEF48EA60EC83E09AE02D
:100640000E945E2E85EF99E00E942A128DE990E0CB
:100650000E940C30EC0105EF19E02EE63BE14BE582
:1006600057E06AE072E00E941F26D093F409C0931D
:10067000F30969E083EE99E00E94062063EE79E0D9
:1006800080ED99E00E9466268091F3099091F4092B
:100690000E94DB2B9093CD098093CC0982E299E0F4
:1006A000DF91CF911F910F910C94CB18882381F08B
:1006B0008F3F29F48091110A9091120A089595E0D4
:1006C000899FF0011124EA5EF54F8281938108959C
:1006D00080E090E00895CF93DF93D82FC62F60E09D
:1006E00085E30E94A4319C2F9F719D2B9EBD0DB46C
:1006F00007FEFDCF1EBC0DB407FEFDCFC7FD08C031
:1007000061E085E30E94A4318EB5DF91CF91089519
:100710001EBC0DB407FEFDCFF3CF0F931F93CF93F5
:10072000DF931F92CDB7DEB7182F062F60E085E369
:1007300049830E94A431602F6F71612B6EBD498186
:100740000DB407FEFDCF4EBD0DB407FEFDCF61E039
:1007500085E30F90DF91CF911F910F910C94A431FD
:100760000F931F93CF93DF938C01EB0160E085E340
:100770000E94A4318AE38EBD0DB407FEFDCF0C0F9D
:100780001D1FC017D10739F01EBC0DB407FEFDCFE9
:100790008EB58993F6CF61E085E3DF91CF911F910C
:1007A0000F910C94A4310F931F93CF93DF938C017F
:1007B000EB0160E085E30E94A4318AE78EBD0DB4B1
:1007C00007FEFDCF0C0F1D1FC017D10731F0899117
:1007D0008EBD0DB407FEFDCFF7CF61E085E3DF915D
:1007E000CF911F910F910C94A4311F93CF93DF935E
:1007F000182F1076C12FD0E02091140230E0C217DC
:10080000D30779F043E06FE180EA87DFAE0185E04E
:10081000559547958A95E1F76FE180E87EDF109363
:100820001402DF91CF911F910895CF93DF931F9210
:10083000CDB7DEB7682F6983D8DF698180E00F907C
:10084000DF91CF9148CF1F93CF93DF931F92CDB706
:10085000DEB7182F6983C9DF4981612F80E40F90CB
:10086000DF91CF911F9159CF1F93CF93DF931F92A9
:100870001F92CDB7DEB7182F69837A83B6DF49811F
:10088000612F80E44ADF61E0610F7A81472F80E4C5
:100890000F900F90DF91CF911F913FCF6091140A7D
:1008A0007091150A6115710519F06150710902C046
:1008B0006FEF77E08CE0D8CFF1CFFF920F931F93CB
:1008C000CF93DF9389E3B1DF882309F444C06091BB
:1008D000140A7091150AEB012696C11588E0D80715
:1008E00010F0CF5FD74080E0BFDF60E08AE3F3DE47
:1008F00090E09093150A8093140A60E08AE3EBDE9F
:100900002091140A3091150A382B3093150A209340
:10091000140A60E08AE3DFDE082F60E08AE3DBDEB2
:10092000182F60E08AE3D7DEF82E40E46EE180E81D
:10093000F4DEF7FE0FC0D093100AC0930F0A202FE9
:1009400030E0312B245031093093120A2093110AE0
:100950008FEF02C0A3DF80E0DF91CF911F910F9155
:10096000FF900895EF92FF920F931F93CF93DF9321
:100970008B017A018F3FC1F025E0829FE0011124B5
:10098000CA5ED54F02C0CFE0DAE068817981600F9E
:10099000711F80E069DF8A819B81801B910BE816C3
:1009A000F90690F4C70110C080910F0A9091100AC7
:1009B000860F971F811528E0920728F3BC016F5F0F
:1009C0007740CFE0DAE0E5CFDF91CF911F910F9133
:1009D000FF90EF9008950F931F93CF93DF938A01B9
:1009E000A901C0DFEC01B801BBDECE01DF91CF91E0
:1009F0001F910F910895CF92DF92EF92FF920F9384
:100A00001F93CF93DF938B016A01790195E0899F52
:100A1000E0011124CA5ED54F68817981600F711F92
:100A200082E022DF0A80DB81C02DC01BD10BEC16D7
:100A3000FD0608F4E701B601CE01B5DECE01DF9177
:100A4000CF911F910F91FF90EF90DF90CF9008957D
:100A5000BC0180E009DF60E085E30E94A4318AE305
:100A60008EBD0DB407FEFDCF1EBC0DB407FEFDCF3D
:100A700061E085E30E94A4318EB50895CF93C62F1F
:100A8000BC0182E0F1DE60E085E30E94A4318AE7E8
:100A90008EBD0DB407FEFDCFCEBD0DB407FEFDCF5C
:100AA00061E085E3CF910C94A431FF920F931F93E3
:100AB000CF93DF9395E0899FF0011124EA5EF54F13
:100AC000C081D1812197028113810C0F1D1FCE019E
:100AD000BFDFF82E882319F060E0CE01CFDFBE0122
:100AE00084E0C2DEB80186E0BFDE48E06FE180E866
:100AF00014DE8CE19ADE81FF04C048E06FE180EAF9
:100B00000CDEFF2041F06F2DCE01DF91CF911F91C0
:100B10000F91FF90B3CFDF91CF911F910F91FF9075
:100B20000895CF92DF92EF92FF920F931F93CF938E
:100B3000DF937C01EB014130510569F4CB0188DF83
:100B4000682FC701DF91CF911F910F91FF90EF9018
:100B5000DF90CF9093CF6A01C60ED71E8601015059
:100B6000110980E181DEB70184E17EDEC115D84044
:100B700030F4011588E0180710F00F5F1740B80136
:100B800082E172DE40E16FE180EAC7DD40E26FE1C1
:100B900080E8C3DD6FE180E09EDD85FDFBCFDF9166
:100BA000CF911F910F91FF90EF90DF90CF9008951C
:100BB0000F931F93CF93DF93EB01E5E0E89FD00104
:100BC0001124AA5EB54F4F3FB9F0E49FF001112404
:100BD000EA5EF54F02C0EFE0FAE060817181620FDA
:100BE000731F8D919C91A8018C0F9D1F9ADFDF913F
:100BF000CF911F910F9152CEE0910F0AF091100A00
:100C0000E20FF31FE11588E0F80728F3BF016F5FDB
:100C10007740E7CFCF93DF93EB01682F84ED13DEAE
:100C2000BE0186ED21DE8AEE00DE80FF05C08FE08A
:100C300090E00E94AC30F7CFDF91CF910895CF9331
:100C4000DF93EC01D0D061E085E30E946B3161E07D
:100C500085E30E94A43161E083E30E946B3161E08F
:100C600084E30E946B3160E082E30E946B3161E0BB
:100C700085E30E946B3160E083E30E94A43160E071
:100C800084E30E94A43180E58CBD8DB581608DBD6B
:100C90004FEF60E08FEF41DD62E370E080E090E0D5
:100CA0000E9487301092150A1092140A60E070E0DA
:100CB00088E0DADD60E070E08CE0D6DD6FEF77E0B1
:100CC0008AE0D2DD61EB88E3BEDD6FE370E388E2AA
:100CD000CBDD69EF77EF80E3C7DD6DE070E080EC9E
:100CE000C3DD42E362EC80E818DD62E17CE086EC83
:100CF000BBDD62E184ECA7DD6CED75E08AECB4DD70
:100D0000688184EEA0DD698185EE9DDD6A8182EED9
:100D10009ADD6B8183EE97DD6C8180EE94DD6D81D1
:100D200081EE91DD60E071E080E174DF8FE15DDDF7
:100D300040EC6BE180E8F1DC44E06FE180E8EDDC61
:100D400066E774E084E1DF91CF9164CF0F931F9346
:100D5000CF93DF93EC01862FBA01A90103DE8C014A
:100D60000150110960E085E30E94A4318AE38EBD41
:100D70000DB407FEFDCF20E030E020173107C0F4AE
:100D80001EBC0DB407FEFDCF8EB590E0982F8827CE
:100D90001EBC0DB407FEFDCF4EB5840F911DC80FCC
:100DA000D91FC817D90708F421962E5F3F4FE5CF0A
:100DB0002017310771F41EBC0DB407FEFDCF8EB5B0
:100DC00090E0982F8827C80FD91FC817D90708F4B3
:100DD000219661E085E30E94A431CE01DF91CF919D
:100DE0001F910F910895E6E1FAE08DECDF011D926D
:100DF0008A95E9F781E098E0918380830895DF92F6
:100E0000EF92FF920F931F93CF93DF937C0140915A
:100E1000160A5091170A4150584E80E098E1E6E1D9
:100E2000FAE000E0C0E0D0E025E0D22E14811123EA
:100E300041F0D19ED0011124AA5EB54F2D913C9175
:100E400001C09A0160817181261B370B6281738119
:100E5000261B370B2E153F0539F485E0089FE0016E
:100E60001124CA5ED54F48C0E216F30648F428178D
:100E7000390730F4D09EE0011124CA5ED54FC90174
:100E8000111107C02097C1F5C6E1DAE085E0D82E40
:100E90001DC0D19EF0011124EA5EF54F012FC6CF8F
:100EA0000A811B8188819981080F191FD29EE00158
:100EB0001124CA5ED54F688179810617170731F072
:100EC0004A815B81C8012DDE198308832C812111A1
:100ED000E7CF2091160A3091170A88819981281B43
:100EE000390B8A819B81281B390B2150384E2E15D6
:100EF0003F0510F480E019C0EBE1FAE081E02281C7
:100F00003381232B29F035968F5F8932C1F7F2CFD9
:100F10002A813B8148815981240F351F31832083E9
:100F2000F382E2829C8194838C83DF91CF911F9125
:100F30000F91FF90EF90DF9008958823F9F0E6E19C
:100F4000FAE025E09481981311C095E0899FD001C3
:100F50001124AA5EB54F14968C911497848313962E
:100F60001C921E92129714961C920895992331F0A8
:100F7000299FF0011124EA5EF54FE4CF089595E032
:100F8000899FF0011124EA5EF54F80819181860FDF
:100F9000971F9183808382819381861B970B938314
:100FA0008283089595E0899FF0011124EA5EF54F50
:100FB00080819181860F971F918380835383428321
:100FC0000895FC015381560F5093DB0C872F99270E
:100FD0004281480F4093DA0CA181A093D90CE081A3
:100FE000E093D80C242F30E02817390748F481E02B
:100FF0008A0F8093D90C811103C0EF5FE093D80C66
:10100000852F90E077278617970788F44F5F4093E6
:10101000DA0C41110CC08091D90C8F5F8093D90CF0
:10102000811105C08091D80C8F5F8093D80C0895F2
:101030002091DF0C3091E00CBC01C9010896C1DFA2
:10104000E091DF0CF091E00C8091D80C80878091CA
:10105000D90C81878091DA0C82878091DB0C8387A1
:10106000089580E0E82FF0E0EE0FFF1FE75AF24FFF
:10107000118210828F5F8430A8F380E09EE1989FF8
:10108000F0011124EF51F34F118E8F5F8430B8F3CC
:101090008093E60A80E094E09093E80A8093E70A60
:1010A0000895CF932091E70A3091E80A2F5F3F4FD0
:1010B00021154DE7340710F020E030E1522F432F87
:1010C000E1EEFCE0C0E0C43059F0A18DAA2329F084
:1010D000A481B581A417B50749F3CF5F7E96F3CFFE
:1010E0003093E80A2093E70A1092E60A20E0E0E055
:1010F000F0E04EE12430E0F4429FD0011124AF51E2
:10110000B34F59963C915997311104C02093E60A88
:10111000FD0110C0373041F4309739F05A965C9198
:101120005A97328D351708F0DF012F5FFD01E2CFAE
:101130002093E60A3097B1F122E0218F2091E90A4D
:1011400024872091EA0A25872091EB0A268720919F
:10115000EC0A278720E032E0338B228B358B248BFF
:1011600021E030E0318B208B138E228F23E0208F03
:10117000168A20E1278B2091E70A3091E80A32276E
:10118000232732273583248377836683DC012D91DF
:101190003C9111973183208312968D919C911397E6
:1011A00093838283CF01CF9108951F93CF93DF93D1
:1011B000C091DF0CD091E00C23EA3DE03093DE0CCF
:1011C0002093DD0C3093D70C2093D60C833059F448
:1011D000898D8F70833009F0A9C588899989892BF9
:1011E00009F0A4C57FC0823009F080C08091EC0A6C
:1011F0008F5F8093EC0A811113C08091EB0A8F5F9F
:101200008093EB0A81110CC08091EA0A8F5F809372
:10121000EA0A811105C08091E90A8F5F8093E90A8B
:101220001092D50C1092D40C1092D20D1092D10DB8
:10123000298D822F8D7F853041F48A8D8F5F8A8F33
:10124000883709F073C5198E71C5222309F46EC55C
:1012500088899989892B09F441C08A8D9FEF980F5D
:101260009A8F811163C58B8D883031F09FEF920F7B
:10127000923048F4853039F4198E80E88093DC0C84
:101280000E94EC1312C4853038F493E0082E01C09C
:10129000990F0A94EAF701C090E39A8F8F5F8B8FC2
:1012A000822F8F708330A1F048F4813009F42FC26F
:1012B000823009F03BC510929C0D2CC2863009F497
:1012C00095C3883009F492C3843009F02FC58EC3CA
:1012D00084E08093DC0C0E94EC1319C42F7023303F
:1012E00009F024C588E08093DC0CD5C380917B0D88
:1012F000853409F01BC580917D0D90E0982F8827DB
:1013000020917E0D820F911D2091D40C3091D50C2F
:101310002817390708F40AC59093D50C8093D40C8C
:101320008091810D8F7309F001C58091820D81112B
:10133000FDC48091690D90916A0D009731F4209160
:101340006B0D30916C0D232BA1F020918B0D309102
:101350008C0D2817390709F0E9C420918D0D3091C3
:101360008E0D80916B0D90916C0D2817390709F047
:10137000DDC40E945918019609F0D8C48091840DEB
:101380008630D1F1813009F0D1C480918F0D883041
:1013900009F0CCC410928F0D8091910D9091920D17
:1013A000873FAFEF9A0710F0099601C00896909317
:1013B000920D8093910D8091870D9091880D90935F
:1013C0008C0D80938B0D8091890D90918A0D909357
:1013D0008E0D80938D0D8091690D90916A0D909383
:1013E000880D8093870D80916B0D90916C0D90937B
:1013F0008A0D8093890D9EC40E941D18019609F0E4
:1014000095C48091910D9091920D20918F0D309106
:10141000900D4091870D5091880D6091890D7091CC
:101420008A0DEAEFFCE0C1EEDCE010811123A9F0A7
:10143000AC81BD818A179B0781F4AE81BF812A17D9
:101440003B0759F4A881B9814A175B0731F4AA8197
:10145000BB816A177B0709F474C16E967E96ADE076
:10146000C935DA0711F720919C0D2F732230E1F472
:101470009093E40A8093E30A40E0443098F4E42F28
:10148000F0E0EE0FFF1FE75AF24F208131814F5FEE
:101490008217930791F71092E60A20E0C0E0D0E0AF
:1014A0003EE17EC04093E60A80919C0D82FD3EC4E1
:1014B00084E180939C0D88E290E09093D50C80931A
:1014C000D40C80E580939B0D8091960D90919A0DA0
:1014D0009093960D3091950D9091990D9093950D57
:1014E0003093990D2091940D9091980D9093940DB7
:1014F0002093980D9091930D9093E60A4091970D4B
:101500004093930D9093970D8F5F80939A0D811167
:101510000FC081E0830F8093990D811109C081E094
:10152000820F8093980D811103C09F5F9093970D58
:1015300080918F0D9091900D9093E40A8093E30A2F
:101540002091910D3091920D3093900D20938F0D3D
:101550009093920D8093910D8091870D9091880DBD
:1015600090938C0D80938B0D8091890D90918A0DB5
:1015700090938E0D80938D0D8091690D90916A0DE1
:101580009093880D8093870D80916B0D90916C0DD9
:1015900090938A0D8093890D8BC3473099F02F5F0C
:1015A0002430F0F4822F90E0389FF001399FF00D45
:1015B0001124EF51F34F418D4111EFCF2093E60AF3
:1015C000EF0110C0209721F0528D4A8D451738F752
:1015D000389FE001399FD00D1124CF51D34FDFCF79
:1015E0002093E60A209709F4A1C3D093E00CC0939E
:1015F000DF0C83E08A8F888F1E8A84E08F8B1B8E9E
:101600008091910D9091920D9D838C8380918F0D8F
:101610009091900D9F838E838091870D9091880D7E
:10162000998388838091890D90918A0D9B838A8309
:1016300081E0898F8091E90A8C878091EA0A8D8701
:101640008091EB0A8E878091EC0A8F8781E090E091
:10165000998B888B8091960D8B878091950D8A87C9
:101660008091940D89878091930D888781E090E027
:10167000DFDC80919B0D282F207F30E02135310564
:101680000CF445C082958F7090E00597880F991FE4
:10169000880F991F3091E50A20E0E22FF0E0E8176B
:1016A000F9078CF5E359F24F36A9311105C02093A3
:1016B000E60A1092E50A2BC0313011F42F5FEDCF0E
:1016C0003230E1F447A94430C9F42093E60A30935C
:1016D000E50A80AD90E0982F882721AD822B90936A
:1016E000E40A8093E30A813022E0920710F080E060
:1016F00092E09B8B8A8B9D8B8C8B09C047A94423DE
:1017000011F0240FCACF2093E60A3093E50A80E156
:1017100080939C0D80919C0D826080939C0D82E053
:101720008093A30D94E09093A40D8093A50D109247
:10173000A60D8CE290E09093D50C8093D40C80E6BB
:1017400065C2D093E00CC093DF0C1092DC0C30919A
:101750009C0D32FF03C0198E80E206C220919B0DC2
:1017600022952F70220F220F2093E60A8091D40C2D
:101770009091D50C4497821B91099093D50C80933E
:10178000D40C1F70123021F4232F2F732231C9F093
:10179000892B19F4832F8370A1F09091930D888584
:1017A00098132AC29091940D8985981325C290911F
:1017B000950D8A85981320C29091960D8B8598136C
:1017C0001BC234FF49C0688979896115710509F424
:1017D00043C0CE010C96F5DB3091970D8091D80C6B
:1017E00038133AC02091980D8091D90C281334C039
:1017F0009091990D8091DA0C98132EC080919A0DDA
:101800004091DB0C841328C03C872D879E878F87EF
:101810008B8D81111AC02E89888D9A8D891B922FEC
:10182000969596959695891B280F2E8B87FD819509
:101830009F89392F36953695931B980F9F8B822F52
:10184000869586958695890F888F81E08093DC0C3C
:10185000888D8A8F198A188A498D842F8F7090E01D
:10186000FC013197E830F10508F060C2EE58FF4FF7
:101870000C94F3338091DC0C80FF58C283E0898F95
:1018800080E48093DC0C198A188A8091D40C9091A2
:10189000D50C009709F4FBC022E42093DC0CC8DBD4
:1018A000F6C08091DC0C80FF6FC080919C0D8F731F
:1018B000823109F069C080919B0D282F207F30E094
:1018C000213531050CF445C082958F7090E0059765
:1018D000880F991F880F991F3091E50A20E0E22FA9
:1018E000F0E0E817F9078CF5E359F24F36A931110A
:1018F00005C02093E60A1092E50A2BC0313011F49E
:101900002F5FEDCF3230E1F447A94430C9F4209382
:10191000E60A3093E50A80AD90E0982F882721AD44
:10192000822B9093E40A8093E30A8130A2E09A0725
:1019300010F080E092E09B8B8A8B9D8B8C8B09C092
:1019400047A9442311F0240FCACF2093E60A30930D
:10195000E50A83E0898F8091930D88878091940DAB
:1019600089878091950D8A878091960D8B8781E07C
:1019700090E05EDB82E48093DC0C198A188A109276
:10198000D50C1092D40C83C080E28093DC0C24D759
:10199000E091DF0CF091E00C118E86CD80919C0DD2
:1019A00080FF26C044FD24C088899989892B09F0CD
:1019B000BDC18091D40C9091D50C019639DB20915A
:1019C000DC0C822F80618093DC0C8091D40C909190
:1019D000D50C892B19F022612093DC0CFDD681E017
:1019E00090E0998B888B88E0898F1B8E81E105C1FF
:1019F00085FF1CC08091A10D90E0982F8827209131
:101A0000A20D822B2091DD0C3091DE0C280F391FA6
:101A10003093DE0C2093DD0C2091D40C3091D50C4A
:101A2000281B390B3093D50C2093D40C8091D40C07
:101A30009091D50C009741F044FD06C02091DC0C3C
:101A400022602093DC0CF4DA80919D0D90E0982FB9
:101A5000882720919E0D820F911D9093E40A809318
:101A6000E30A2C893D892817390710F0892B21F4C6
:101A70003093E40A2093E30A8091E30A9091E40A08
:101A80009B8B8A8B8091DC0C837009F44FC1109280
:101A9000D20D1092D10DA0D68091DC0C85FF07C02D
:101AA0001092D20D1092D10D198E84E1A6C084FF40
:101AB0000AC01092D20D1092D10D81E090E0998B66
:101AC000888B84E091CF2091D10D3091D20D2115DA
:101AD0003105E1F080FF02C0198A188A8889998946
:101AE000009781F48A899B898217930720F4909349
:101AF000D20D8093D10D8091D10D9091D20D998B03
:101B0000888B04C09093D20D8093D10D1B8E809151
:101B1000D60C9091D70C9093DE0C8093DD0C8091C5
:101B2000D10D9091D20D892B59F088899989009710
:101B300039F088969093D50C8093D40C88E10BC033
:101B40008091DC0C81FFF2C088E290E09093D50C8C
:101B50008093D40C80E180939C0D57C08091DC0C65
:101B600080FFE4C0198E80E18093DC0C35D6DEC0A6
:101B70008091D40C9091D50C009709F059DA90918E
:101B80009C0D8091DC0C90FF0BC080FF06C087E0AD
:101B9000898F1A8E198A188A18C086E0898F15C015
:101BA00080FF1BC085E0898F198A188ABFC0809189
:101BB000D40C9091D50C009709F03ADA80919C0DE5
:101BC00080FF0BC087E0898F1A8E81E090E030DAC9
:101BD00080E18093DC0C00D60FC08091D40C9091F2
:101BE000D50C892B49F4A2C08091DC0C80FF9EC0EB
:101BF00087E0898F1A8E9AC080E180939C0D88E2DD
:101C000090E09093D50C8093D40C80E580939B0D4D
:101C100088858093970D89858093980D8A85809318
:101C2000990D8B8580939A0D8C858093930D8D856E
:101C30008093940D8E858093950D8F858093960D5E
:101C400086E08093840D8C819D819093900D80938C
:101C50008F0D8E819F819093920D8093910D809135
:101C6000690D90916A0D9093880D8093870D8091F6
:101C70006B0D90916C0D90938A0D8093890D8881E6
:101C8000998190938C0D80938B0D8A819B81909389
:101C90008E0D80938D0D898D84FF05C010929E0D51
:101CA00010929D0D05C082E080939D0D10929E0DB7
:101CB00080E48093830D8091D40C9091D50C909307
:101CC0007D0D80937E0D1092A20D1092A10D1092A9
:101CD000A00D10929F0D0E941D18809590959093D5
:101CE000A00D80939F0D85E480937B0D10927C0D59
:101CF0001092820D1092810D8091ED0A9091EE0A62
:101D000001969093EE0A8093ED0A90937F0D809355
:101D1000800D1092860D1092850D0E9459188095A5
:101D200090959093860D8093850D04C01092D50CEC
:101D30001092D40C1092DC0CDF91CF911F9108957A
:101D400098278927982708959C01AB017093D20D9D
:101D50006093D10D1616170654F48091D60C90910D
:101D6000D70C2817390719F0B9010C94A636089535
:101D7000FF920F931F93CF93DF93DC01FB0110922F
:101D8000F80A60E07BE0683010F5769FE0011124EE
:101D9000C350D54F2881398121153105B1F08A8191
:101DA0009B81009791F04D915C91119742175307D9
:101DB00061F412962D913C9113972817390729F455
:101DC0006093F80ADE0114964FC06F5FDCCF20E00D
:101DD0003BE0283090F4329FE0011124C350D54FEE
:101DE00088819981892B39F48A819B81892B19F407
:101DF0002093F80A30C02F5FECCF2093F80A2830E8
:101E000051F50091F60A802F90E010E070E060E05C
:101E10002BE0F22E683098F4F69EE0011124C350B6
:101E2000D54FCA85AC014C1B5109212F30E0241736
:101E300035071CF4762F102F1C1B6F5FEBCF109310
:101E4000F50A7093F70A7093F80A8BE0789FE00127
:101E50001124C350D54F4D915D916D917C91DE0160
:101E60004D935D936D937D9386E001900D928A95DD
:101E7000E1F78091F60A8A87DF91CF911F910F9148
:101E8000FF9008951092F80A9BE08091F80A88303C
:101E900068F4989FF0011124E350F54F10821182ED
:101EA000128213828F5F8093F80AEFCF089580919A
:101EB000D40C9091D50C0E979093D50C8093D40CA4
:101EC0008091690D90916A0D2091870D3091880D58
:101ED000822793272091650D3091660D82239323ED
:101EE000892BB9F480916B0D90916C0D2091890D27
:101EF00030918A0D822793272091670D3091680DCC
:101F000082239323892B29F463E77DE087E89DE012
:101F10002FCF08958091D40C9091D50C1092D50CB0
:101F20001092D40C8A9708F408958091810D9091B5
:101F3000820D811521E0920729F08115924009F464
:101F400075C008952091930D3091940D8091690D85
:101F500090916A0D2817390709F083C02091950DDB
:101F60003091960D80916B0D90916C0D281739076B
:101F700009F077C063E87DE089E89DE0F9DE80E064
:101F800092E09093820D8093810D86E0E3E8FDE07E
:101F9000ADE8BDE001900D928A95E1F786E0EFEEA5
:101FA000FAE0A3E8BDE001900D928A95E1F786E0A2
:101FB000EFEEFAE0A3E7BDE001900D928A95E1F71C
:101FC00086E0EDE8FDE0ADE6BDE001900D928A957A
:101FD000E1F78091890D90918A0D9093940D8093F3
:101FE000930D80918B0D90918C0D9093960D809315
:101FF000950D8091690D90916A0D90938A0D809353
:10200000890D80916B0D90916C0D90938C0D809348
:102010008B0D88E096E090937A0D8093790D8AE29B
:1020200090E09093D50C8093D40C08952091930D5B
:102030003091940D8091690D90916A0D28173907A0
:1020400081F42091950D3091960D80916B0D9091BA
:102050006C0D2817390729F463E87DE089E89DE0D5
:1020600087CE089520918B0D30918C0D2F3F4FEF2F
:10207000340751F480918D0D90918E0D019621F4CD
:1020800086E0EBEEF2E0C6C08091690D90916A0D9A
:10209000822793274091650D5091660D84239523E7
:1020A000892B91F440918D0D50918E0D80916B0D87
:1020B00090916C0D842795276091670D7091680D44
:1020C00086239723892B89F08091610D9091620D71
:1020D0009093FA0A8093F90A8091630D9091640DB0
:1020E0009093FC0A8093FB0A08C03093FA0A20936D
:1020F000F90A5093FC0A4093FB0A8091F90A9091E7
:10210000FA0A2091FB0A3091FC0A60E07BE068301B
:1021100090F4769FF0011124E350F54F40815181F6
:102120008417950731F4428153812417350709F448
:102130006DC06F5FECCF6093F80A683009F068C03B
:1021400046E050E06FEF70E08DE69DE00E94AF3614
:1021500026E0EDE8FDE0DF01422F1D924A95E9F708
:10216000EFEEFAE0A3E7BDE0822F01900D928A9591
:10217000E1F7EFEEFAE0A3E8BDE0822F01900D92C7
:102180008A95E1F78091F90A9091FA0A9093940D5B
:102190008093930D8091FB0A9091FC0A9093960D89
:1021A0008093950D8091690D90916A0D90938A0DA1
:1021B0008093890D80916B0D90916C0D90938C0D97
:1021C00080938B0D80E091E09093820D8093810D40
:1021D00090937C0D80937B0D88E090E090937E0D32
:1021E00080937D0D20937F0D84E08093800D88E0A7
:1021F00096E090937A0D8093790D83EA9DE0909319
:10220000DE0C8093DD0C8AE290E01EC06093F80A39
:10221000349686E0ADE6BDE001900D928A95E1F737
:1022200086E0EFEEFAE0A3E7BDE001900D928A951B
:10223000E1F788E090E090937A0D8093790D80919A
:10224000D40C9091D50C0E969093D50C8093D40C11
:1022500008950F9300E020E040E060E085E59BE01A
:102260000E945E2E0F9108950F9300E020E040E061
:1022700060E08BE59BE00E945E2E0F910895DC01EB
:10228000ED91FC91008CF18DE02D199591E089275D
:10229000089580E090E00895DC011C96ED91FC919A
:1022A0001D97309741F08181882311F081E00895D6
:1022B000808184FDFBCF80E00895FC014485558535
:1022C0004115510551F0FB01248535852115310556
:1022D00021F081E04217530709F080E00895CF9381
:1022E000DF931F92CDB7DEB7DC01ED91FC91008842
:1022F000F189E02D41E050E0BE016F5F7F4F1995FD
:1023000097FD03C0898190E002C08FEF9FEF0F908F
:10231000DF91CF910895CF93DF93EC01A9D3EC85A2
:10232000FD85309749F0808186FD02C081E005C0BF
:102330008181882311F0FACF80E0DF91CF91089559
:10234000CF92DF92EF92FF920F931F93CF93DF9381
:1023500000D01F92CDB7DEB77C018B016A01DC0192
:10236000ED91FC910288F389E02D1995F801228105
:1023700030E0322F22278381282B32272327322750
:102380003A832983248130E0322F22278581282B2C
:102390003227232732273C832B83C601D1DCBC01A3
:1023A000CE0101960E9451088C01009719F480E03B
:1023B00090E016C0D80159968C918F70C1F358D314
:1023C000D80159968C9159978F70833099F75C9604
:1023D0008D919C915D97F7019587848781E090E0CE
:1023E0000F900F900F900F90DF91CF911F910F9151
:1023F000FF90EF90DF90CF9008950F931F93CF93AE
:10240000DF931F92CDB7DEB78C01DC01ED91FC911B
:102410000688F789E02D19958823A1F0D8011C962C
:10242000ED91FC911D978181882361F021E030E0DE
:10243000AE014F5F5F4F60E070E00E94EB04898166
:1024400090E002C08FEF9FEF0F90DF91CF911F912F
:102450000F910895FC011382128248EE53E060E070
:1024600070E0448355836683778385EF92E09183A0
:102470008083158614860895EF92FF920F931F9321
:10248000CF93DF937C01C0E0D0E000E010E0F701E3
:10249000EC0FFD1F81810E945603080F191F219622
:1024A000C530D105A1F7C801DF91CF911F910F91E0
:1024B000FF90EF900895CF93DF93EC01E881F981CD
:1024C0000688F789E02D1995882329F08C859D854C
:1024D000DF91CF91D1CF80E090E0DF91CF9108954F
:1024E000CF93DF93E1E6FBE080E0908191110AC099
:1024F0008061DF018D9380E1ED0119928A95E9F702
:10250000CF0106C08F5F7196843079F780E090E04C
:10251000DF91CF910895FC01319681E09191911165
:1025200002C0815008958F5F8530C1F784E008951F
:102530009F92AF92BF92CF92DF92EF92FF920F9352
:102540001F93CF93DF93EC016B017A018A015C0149
:1025500086E0A80EB11C8CD2209709F445C0888172
:10256000807609F041C0C501D6DF982EFE01E80F44
:10257000F11D868181110CC080E092E00E94FF066F
:10258000FE01E90DF11D8683882329F31C861B8635
:10259000A701401B510B4C0D5D1D6B857C8598017F
:1025A000FE01E90DF11D86810E94FB04081B190B39
:1025B0002B853C85280F391F3C872B871016110669
:1025C0002CF484E0981639F29394D6CF0E945830B8
:1025D000665F7F4F8F4F9F4F6D877E878F87988B6A
:1025E000C701801B910B02C08FEF9FEFDF91CF914E
:1025F0001F910F91FF90EF90DF90CF90BF90AF9021
:102600009F900895CF93DF931F92CDB7DEB7698374
:1026100041E050E0BE016F5F7F4FFC0184859585EE
:1026200087DF0F90DF91CF910895FC018485958518
:102630007FCF0F931F93CF93DF938C01EC01899190
:102640000E949D07F801C801049629912193E8177B
:10265000F907D9F7F8011482DF91CF911F910F91FB
:1026600008959F92AF92BF92CF92DF92EF92FF9226
:102670000F931F93CF93DF93EC015B017A01E88105
:10268000F9810688F789E02D1995882309F455C04A
:10269000EC85FD858181882309F452C087012EE1F4
:1026A000922EA701401B510B4A0D5B1DEC85FD8549
:1026B000980160E070E081810E94EB046C01EC8580
:1026C000FD8581810E945603EC85FD85C816D906DB
:1026D00049F50C191D09CF010196ABDFAC85BD850D
:1026E0002C91822F90E08F70989EF001999EF00DB2
:1026F0001124EF51F34F818D84FF05C0822F807626
:1027000011F420682C93EC85FD85818181110FC027
:10271000808186FF03C010821D861C86C701801B36
:10272000910B10C0B60181810E94BF0704C0011542
:10273000110509F0B6CFC70105C08FEF9FEF02C0AA
:1027400080E090E0DF91CF911F910F91FF90EF908B
:10275000DF90CF90BF90AF909F9008951F93CF933D
:10276000DF93EC0115E088810E949D0719921150BA
:10277000D1F7DF91CF911F910895CF93DF93EC01B3
:102780008C859D85009779F0FC012081222359F0EA
:102790000196E4DFEC85FD85808186FF02C0108212
:1027A00002C0806280831D861C86DF91CF9160C14C
:1027B000CF93DF93EC01E881F9810688F789E02D5A
:1027C0001995882331F08C859D850196DF91CF91F5
:1027D000C5CFDF91CF910895DF92EF92FF920F93D3
:1027E0001F93CF93DF93E091DF0CF091E00CC48D49
:1027F000D58D209779F48091DC0C86FF43C070DE84
:10280000EC01009709F43EC0E091DF0CF091E00C80
:10281000958F848F8091DC0C81FF07C08091D40C50
:102820009091D50C892B09F041C0888187FF0EC09B
:102830008F7788838091DC0C82608093DC0CE09140
:10284000DF0CF091E00C818D8F7E818F8091DC0C0C
:1028500084FF6BC0CE01069681DF8981882309F44D
:1028600067C0E091DF0CF091E00C848195819F833B
:102870008E83888180648883E091DF0CF091E00C86
:10288000158E148EE12CF12CB7018091DD0C909106
:10289000DE0C5ADAF092D50CE092D40CDF91CF9195
:1028A0001F910F91FF90EF90DF90089588818076BF
:1028B00009F0BBCFE12CF12C8E010E0D1F1DF8018C
:1028C000818181111EC08091D40C9091D50C0E9401
:1028D000FF06F80181838823A1F00091D40C1091A8
:1028E000D50C2091DD0C3091DE0C2D563D404091F1
:1028F000B90B60E070E00E94D805F4E0EF1295CFCC
:102900000CC02FEFE21AF20A35E0E316F104A1F64B
:102910008091B60B8E7F8093B60BE091DF0CF09127
:10292000E00C818D8061818F80CF87FF03C092CFC3
:102930001882A2CF80FF03C0CE0106967ADE809176
:10294000DC0C8C70D1F18E818823B9F19F819111BB
:102950000CC0EB84FC84E114F10409F493CFA701CB
:1029600060E070E00E94D20706C00E9456037C011E
:10297000009709F487CF8091DD0C9091DE0C8D5685
:102980009D408093B70BF701E80FF11DCF010E9426
:10299000FF068093B80B882309F476CF6091B70BBC
:1029A00070E0870120E030E04E810E94D8058091E0
:1029B000B60B82608093B60B67CF888185FF62CFAC
:1029C0008E8181110BC01882E091DF0CF091E00C38
:1029D000158E148E80E18093DC0C54CFE091DF0CD7
:1029E000F091E00C818D8061818F4CCF0F9300E0DE
:1029F00020E040E060E085EA9BE00E945E2E0F91BF
:102A000008958091B60B81FF11C02091B70B30E083
:102A10004DE65DE060E070E08091B80B0E94FB0441
:102A20008091B60B8D7F8093B60B14C08091D40C2F
:102A30009091D50C0E94FF068093B80B8823B1F0CB
:102A40002091D40C3091D50C4DE65DE060E070E053
:102A50000E94FB048091B80B0E9455058091B80B31
:102A60000E949D071092B80B81E0089580E00895C0
:102A7000CF92DF92EF92FF921F93CF93DF938091DB
:102A8000B90B811104C00E945D048093B90B809141
:102A9000B90B882309F443C091E09093B60B0E94D0
:102AA00056039093D50C8093D40C892B61F122E6C8
:102AB00030E04DE65DE060E070E08091B90B0E948F
:102AC000EB048091790D90917A0D8830910581F415
:102AD0008091B90B8093B80BEAD981E00E94D508A8
:102AE0008091D40C9091D50C892B69F0BBDA0AC087
:102AF0008830964041F40EDA8091D40C9091D50C38
:102B0000892B09F07EDF8091B90B882341F08091F9
:102B1000B60B80FF04C00E945C041092B90B0E94A7
:102B200058306B017C018091AC0B9091AD0BA09162
:102B3000AE0BB091AF0BA7019601281B390B4A0BC6
:102B40005B0BDA01C90180959095A095B095882717
:102B5000B7FD83959927AA27BB27182FC1EEDCE084
:102B6000D093E00CC093DF0C112311F082E00FC072
:102B7000EC8DFD8D4585568567857089D701C60129
:102B8000841B950BA60BB70BB7FD0BC083E00E940F
:102B9000D5082091D40C3091D50C232B11F062DA9A
:102BA00030DF6E969DE0C935D907D1F6112369F063
:102BB000AAEFCA0ED11CE11CF11CC092AC0BD09242
:102BC000AD0BE092AE0BF092AF0BDF91CF911F9166
:102BD000FF90EF90DF90CF900895CF93DF93EC01BB
:102BE0000E94583066507F4F8F4F9F4F6093AC0BC1
:102BF0007093AD0B8093AE0B9093AF0BCE010E9400
:102C00001F0688818093EF0A89818093F00A8A8168
:102C10008093F10A8B818093F20A8C818093F30A6E
:102C20008D818093F40A0E943108DF91CF912AC9E7
:102C3000CF93DF93FC01DA01E901228130E0322FEA
:102C400022278381282B848190E0982F8827458133
:102C5000842B32272327322730936A0D2093690D66
:102C600098278927982790936C0D80936B0D129667
:102C70002C91129730E0322F222713968C911397C4
:102C8000282B14968C91149790E0982F88271596EE
:102C90004C91842B3227232732273093620D2093C7
:102CA000610D9827892798279093640D8093630D71
:102CB0002A8130E0322F22278B81282B8C8190E0D3
:102CC000982F88274D81842B322723273227309352
:102CD000660D2093650D9827892798279093680D96
:102CE0008093670DFB0182819381A481B5818093DC
:102CF000B20B9093B30BA093B40BB093B50BDF91D1
:102D0000CF910895AF92BF92CF92DF92EF92FF9250
:102D10000F931F93CF93DF93CDB7DEB768970FB6AE
:102D2000F894DEBF0FBECDBFCB016A01590155DF5C
:102D300020E239E03A832983F70182819381A481DB
:102D4000B5818B839C83AD83BE8338872F83F80145
:102D500082819381A481B58189879A87AB87BC875B
:102D60003E872D87F50182819381A481B5818F876C
:102D7000988BA98BBA8B3C8B2B8BF601828193812C
:102D8000A481B5818D8B9E8BAF8BB88F9E012F5FF9
:102D90003F4FAE01495F5F4FBE01635F7F4FCE0182
:102DA000439646DF68960FB6F894DEBF0FBECDBFE0
:102DB000DF91CF911F910F91FF90EF90DF90CF9017
:102DC000BF90AF9008956F927F928F929F92AF9233
:102DD000BF92CF92DF92EF92FF920F931F93CF9308
:102DE000DF93CDB7DEB76E970FB6F894DEBF0FBE98
:102DF000CDBF6C015B017A014901380100E02FEF82
:102E00004FEF6FEFCE0149960E945E2E20E239E02F
:102E10003A8329838B8D9C8DAD8DBE8D8B839C8356
:102E2000AD83BE8338872F83F30182819381A48190
:102E3000B58189879A87AB87BC873E872D87F40148
:102E400082819381A481B5818F87988BA98BBA8B5E
:102E50003C8B2B8BF70142815381648175814D8BB3
:102E60005E8B6F8B788FCE0101967C018E01095F9E
:102E70001F4F9E01235F3F4FAE014D5E5F4FB50177
:102E8000C60140DF6E960FB6F894DEBF0FBECDBF11
:102E9000DF91CF911F910F91FF90EF90DF90CF9036
:102EA000BF90AF909F908F907F906F900895CF923A
:102EB000DF92EF92FF920F931F93CF93DF93CDB7E3
:102EC000DEB768970FB6F894DEBF0FBECDBF6B01BB
:102ED0007901DA0112964D915D916D917C91159772
:102EE0004D8B5E8B6F8B788FA0E2B9E0BA83A9839C
:102EF00021E0288F0D891E892F89388D0B831C8333
:102F00002D833E83B887AF83F7010281138124812B
:102F1000358109871A872B873C87BE87AD874F8706
:102F2000588B698B7A8B8E010F5F1F4F9E01295F33
:102F30003F4FAE01435F5F4FB60145DF68960FB666
:102F4000F894DEBF0FBECDBFDF91CF911F910F91DF
:102F5000FF90EF90DF90CF9008950F931F93CF9342
:102F6000DF93CDB7DEB762970FB6F894DEBF0FBE22
:102F7000CDBFDB01FA0142815381648175814F87A6
:102F8000588B698B7A8BE0E2F9E0FA83E98321E0E0
:102F90002A8B0F85188929893A890B831C832D83F5
:102FA0003E83F887EF8349875A876B877C879E012A
:102FB0002F5F3F4FAE01495F5F4FBD0178DF6296E3
:102FC0000FB6F894DEBF0FBECDBFDF91CF911F913A
:102FD0000F910895FB0141505109460F571FE41707
:102FE000F50778F4208130E0322F22276181260F07
:102FF000311D820F931F8217930708F401963296B2
:10300000EECFE417F50751F4208130E0322F22276C
:10301000820F931F8217930708F40196089544E1E5
:1030200050E06BE77DE080E090E0D4DF009711F0A6
:103030000C94A00E8FEF9FEF08950F931F93CF93E3
:10304000DF9380917D0D90E0982F882720917E0D51
:10305000820F911D8C010451110948E050E067E88E
:103060007DE00E97B7DFC0919B0DC695C695CC73DA
:10307000D0E0AE016FE87DE0ADDFC017D10750F4BE
:1030800098012C1B3D0BAE014E5D5F4F6091B80B5C
:103090000E94A606009731F0DF91CF911F910F910A
:1030A0000C94A00E8FEF9FEFDF91CF911F910F91A6
:1030B0000895B5CF0F9300E020E040E060E08AEB98
:1030C0009BE00E945E2E80EB9BE00F910C94542EAF
:1030D0000F9300E020E040E060E080EC9BE00E9485
:1030E0005E2E0F9108950F9300E020E040E060E035
:1030F00086EC9BE00E945E2E0F910895FC011082E9
:103100000895CF92DF92EF92FF92CF93DF93EC017D
:103110006A017B018B859C85AD85BE859A01AB01DB
:10312000281B390B4A0B5B0BDA01C90149815A8113
:103130006B817C8184179507A607B707D8F0888133
:10314000813019F0823029F00CC0E985FA85199593
:1031500008C061E08885811160E068878F810E94E6
:10316000A431CB86DC86ED86FE868F859889019614
:10317000988B8F878D819E8197FD06C02F8538891A
:10318000281739070CF01882DF91CF91FF90EF904C
:10319000DF90CF9008950F931F93CF93DF93EC01AF
:1031A0008C0106551F4FCE01A9DF6196C017D107CC
:1031B000D1F7DF91CF911F910F910895CF92DF92B8
:1031C000EF92FF921F93CF93DF936A017B01EC0193
:1031D0001AE08881882321F0B701A601CE0191DF92
:1031E000115061961111F5CFDF91CF911F91FF9092
:1031F000EF90DF90CF900895CF93DF93EC010E9482
:103200005830AB01BC01CE01DF91CF91D7CF20E088
:10321000FC013081332331F02F5F41962A30C1F712
:103220008FEF0895822F0895CF92DF92EF92FF9251
:103230000F931F93CF93DF9300D01F92CDB7DEB7CC
:103240006C01790149835A836B837C83E0DF282FEB
:1032500049815A816B817C818F3FD9F081E12802BD
:10326000C00CD11C112481E0F6018083418352837C
:103270006383748316830583F286E18629830E9423
:103280005830F6016387748785879687108A17867A
:103290002981822F0F900F900F900F90DF91CF9187
:1032A0001F910F91FF90EF90DF90CF9008950F93B3
:1032B0001F930FEF1FEFB8DF1F910F9108952AE3BF
:1032C00033E0FC013183208308952AE333E0FC01DD
:1032D000318320830C940D300F931F93CF93DF9392
:1032E000EC018B01CA014AE353E0598348832A87E2
:1032F0009B838A83222331F041E153E060E373E052
:103300000E9479251D830C83C80116D19F838E836B
:10331000C80114D199878887DF91CF911F910F91B0
:1033200008950F931F93CF93DF938C01C0E0D0E0FB
:10333000F80180859185C817D907ACF4D801169695
:10334000ED91FC911797CE01880F991FE80FF91F97
:1033500080819181009729F012966D917C9113974D
:103360004CD42196E5CFDF91CF911F910F91089515
:10337000AF92BF92CF92DF92EF92FF920F931F9383
:10338000CF93DF938C017B016A01C0E0D0E0F801AC
:1033900080859185C817D9073CF55E01AA0CBB1C36
:1033A000D8011696ED91FC911797EA0DFB1D8081CF
:1033B0009181009721F0B701CDD3811102C02196F0
:1033C000E6CFD8011696ED91FC911797EA0DFB1DFB
:1033D00080819181DC01ED91FC910480F581E02DEB
:1033E000A601B7011995EBCFDF91CF911F910F91F6
:1033F000FF90EF90DF90CF90BF90AF900895DC01E9
:1034000014968D919C911597DC01ED91FC910680AD
:10341000F781E02D19940F9300E020E040E060E098
:103420008CEC9BE00E945E2E0F91089528E633E01D
:10343000FC01318320833BC5CF93DF93EC01F6DFA2
:10344000CE01DF91CF910C940D30CF92DF92EF92AD
:10345000FF920F931F93CF93DF93CDB7DEB72A97D9
:103460000FB6F894DEBF0FBECDBF7C016B013BD51C
:103470008E010F5F1F4F22E044E00E941634C70107
:103480003ED5A801BC01C6010E947925C7013BD5E4
:10349000882339F04EE353E060E373E0C6010E94F5
:1034A00079252A960FB6F894DEBF0FBECDBFDF9107
:1034B000CF911F910F91FF90EF90DF90CF900895E3
:1034C0000F93CF93DF93EC0100E060E070E0FCD459
:1034D00088E693E099838883DF91CF910F910895D7
:1034E0000F9300E020E040E060E082ED9BE00E946E
:1034F0005E2E0F91089522E733E0FC013183208393
:10350000089522E733E0FC01318320830C940D30D1
:1035100022E733E0FC0131832083778B668B20E048
:1035200030E0FC01E20FF31F138212822E5F3F4F47
:1035300024313105B1F70895029608958AE090E0AC
:1035400008950F9300E020E040E060E088ED9BE00C
:103550000E945E2E0F9108952EEA33E0FC01318324
:103560002083A5C4CF93DF93EC01F6DFCE01DF917A
:10357000CF910C940D30AF92BF92CF92DF92EF9229
:10358000FF920F931F93CF93DF938C01EB01ABD48A
:103590006B017C01C801B3D45C0120E030E0A901DB
:1035A000C701B6010E946732882319F04AE753E049
:1035B00002C041E853E0B501CE010E947925C8015F
:1035C000A2D4882389F046E853E060E373E0CE019B
:1035D000DF91CF911F910F91FF90EF90DF90CF90EF
:1035E000BF90AF900C947925DF91CF911F910F91EF
:1035F000FF90EF90DF90CF90BF90AF9008950F9322
:10360000CF93DF93EC0100E062E070E05DD48EEADE
:1036100093E099838883DF91CF910F9108950F9361
:1036200000E020E040E060E08EED9BE00E945E2E36
:103630000F910895DF92EF92FF920F931F93CF9314
:10364000DF9300D000D0CDB7DEB77C018B01809135
:10365000E40B9091E50B8617970721F07093E50B2B
:103660006093E40BC701C6D6D82E811121C02CE48B
:1036700034E0A90164EB73E0C7010E947A23882338
:10368000B9F064EB73E0CE0101960E94CB2F44EBBE
:1036900053E0BA01C7010E9479250115110511F007
:1036A000C8013FDECE0101960E94642FDD24D39431
:1036B0008D2D26960FB6F894DEBF0FBECDBFDF91DD
:1036C000CF911F910F91FF90EF90DF900895AB0184
:1036D000BC018091E40B9091E50B4ACECF93DF9330
:1036E000CDB7DEB72A970FB6F894DEBF0FBECDBFB9
:1036F000DB01FE013196BF019F01261B370B4217EC
:10370000530718F02D912193F7CFFB01E40FF51F1C
:103710001082DDDF2A960FB6F894DEBF0FBECDBF54
:10372000DF91CF9108950F9300E020E040E060E04A
:1037300086EE9BE00E945E2E0F9108952EEC33E002
:10374000FC013183208308952EEC33E0FC013183AA
:1037500020830C940D300F931F93CF93DF931F9210
:10376000CDB7DEB78C01FC016483828169830E943E
:10377000D9316981262F30E08217930721F0F801B3
:1037800082810E94A431F8018481882319F047ECDA
:1037900053E002C041E554E0F801658176818781FC
:1037A00090850F90DF91CF911F910F910C94792507
:1037B000CF92DF92EF920F931F93CF93DF931F92DD
:1037C000CDB7DEB76C01862FEEECF3E0D601119693
:1037D000FC93EE9318961C930E93179712966C9386
:1037E000129713967C93139714964C9314971696EE
:1037F0003C932E9315971996EC9261E049830E94B1
:103800006B314981642FC6010F90DF91CF911F91D9
:103810000F91EF90DF90CF909ECF0F9300E020E0CC
:1038200040E060E08CEE9BE00E945E2E0F910895D8
:1038300023EE34E0FC0131832083089523EE34E04D
:10384000FC01318320830C940D30FC0183EE94E065
:1038500091838083738362835583448321A382E0B1
:1038600090E09783868340E050E068EC71E4428703
:103870005387648775871686178681E490E0938B5B
:10388000828B148A108E148E118E128E138E0895D0
:10389000EF92FF920F931F93CF93DF938A01E90179
:1038A0006130710581F062307105C1F0672B11F54F
:1038B0008DE090E00E940C307C019E01A80160E048
:1038C00070E0FEDD15C08DE090E00E940C307C01C0
:1038D0009E01A80161E070E06CD30AC08EE090E028
:1038E0000E940C307C019E01A80162E070E087DE3E
:1038F000C70102C080E090E0DF91CF911F910F914E
:10390000FF90EF9008958F929F92AF92BF92CF92C7
:10391000DF92EF92FF92CF93DF93EC018E819F8134
:10392000892B11F41C8A45C088899989009709F46C
:1039300040C0D9D24B015C01898D882369F16A8925
:103940007B89882777FD8095982F0E949E326B0196
:103950007C0120E030E040E450E4C501B4010E9465
:1039600002329B01AC01C701B6010E9467321816F2
:103970001CF081E08C8B10C020E030E040E450E48B
:10398000C501B4010E9403329B01AC01C701B6011D
:103990000E944E3387FF1C8A89A1882341F042EDA3
:1039A00053E060E373E08C819D810E9479258C89CE
:1039B00001C080E0DF91CF91FF90EF90DF90CF903A
:1039C000BF90AF909F908F9008958F929F92AF92EB
:1039D000BF92CF92DF92EF92FF92CF93DF93EC01F1
:1039E0008E819F81892B11F41E864EC08885998512
:1039F000009709F449C077D24B015C01888D882378
:103A000041F1CA84DB84EC84FD8420E030E040E0B6
:103A10005FE3C501B4010E9403329B01AC01C70101
:103A2000B6010E944E3387FD03C081E08E8711C02E
:103A300020E030E040E05FE3C501B4010E940232C3
:103A40009B01AC01C701B6010E94673218160CF049
:103A50001E8689A18823B1F04BEE53E060E373E04A
:103A60008C819D810E9479252E858C819D812223C8
:103A700019F045E054E002C04AE154E060E373E02D
:103A80000E9479258E8501C080E0DF91CF91FF9063
:103A9000EF90DF90CF90BF90AF909F908F90089560
:103AA0008F929F92AF92BF92CF92DF92EF92FF924E
:103AB000CF93DF93EC018E819F81892B11F41F86B8
:103AC0003DC0888599850097C9F10DD24B015C01F5
:103AD0008C8D882339F1CA84DB84EC84FD8420E05A
:103AE00030E040E05FE3C501B4010E9402329B0177
:103AF000AC01C701B6010E94673218161CF081E0C4
:103B00008F8710C020E030E040E05FE3C501B401E2
:103B10000E9403329B01AC01C701B6010E944E33E3
:103B200087FF1F8689A1882339F040E354E060E3D2
:103B300073E08C819D81DDD78F8501C080E0DF91AE
:103B4000CF91FF90EF90DF90CF90BF90AF909F907C
:103B50008F900895CF92DF92EF92FF920F931F9371
:103B6000CF93DF938C016B01DC015F96ED90FC90AD
:103B70009097C0E0D0E0CE15DF059CF4D8015D96AB
:103B8000ED91FC915E97CE01880F991FE80FF91F08
:103B9000B601808191810E94B636892B21F0219651
:103BA000EACF80E001C081E0DF91CF911F910F91BA
:103BB000FF90EF90DF90CF900895CF92DF92EF9239
:103BC000FF920F931F93CF93DF937A016901EB016B
:103BD00000E010E00E151F053CF469917991C601D3
:103BE000F0D70F5F1F4FF6CFDF91CF911F910F914D
:103BF000FF90EF90DF90CF9008959B01FC01478DDF
:103C000050A1658D768DD9CFCF93DF93EB01CA019B
:103C100067EC73E00E94B636892B11F461E001C0B5
:103C200060E0CE01DF91CF9196CDCF93DF93EC0191
:103C3000888DE881F981882319F08E85811105C06E
:103C40000680F781E02D60E004C00680F781E02D5A
:103C500061E0CE0119958C8DE881F981882341F0CE
:103C60008F85882329F00084F185E02D61E004C070
:103C70000084F185E02D60E0CE011995898DE88101
:103C8000F981882341F08C89882329F00284F38507
:103C9000E02D61E004C00284F385E02D60E0CE01F8
:103CA000DF91CF911994CF93DF93EC012CDECE01FD
:103CB0008CDECE01F5DECE01DF91CF91B6CF0F9332
:103CC0001F93CF93DF93EC018B016DE474E0C80187
:103CD0000E94B636892B19F41F821E8214C065E536
:103CE00074E0C8010E94B636892B49F481E090E067
:103CF0009F838E83DF91CF911F910F91089582E072
:103D000090E09F838E83CE01DF91CF911F910F9121
:103D1000CACFCF93DF93EC0188859985009789F00E
:103D2000E8D0CE0152DECE01BBDE88859985DC016C
:103D3000ED91FC916C817D810190F081E02D1995D0
:103D400007C04CE554E060E373E08C819D81D1D6DF
:103D50008E819F81019721F0CE01DF91CF9165CFB8
:103D6000DF91CF9108950F931F93CF93DF93EC01D1
:103D70000889198901151105E9F0882777FD8095D3
:103D8000982F0E949E32AB01BC01C801B2D0CE0177
:103D9000BADD88899989DC01ED91FC916C817D8186
:103DA0000190F081E02D199589A1882351F04EE60C
:103DB00054E002C049E854E060E373E08C819D81E7
:103DC00098D68E819F81019731F0CE01DF91CF91FE
:103DD0001F910F912ACFDF91CF911F910F910895DD
:103DE000CF93DF93EC014A875B876C877D8789A13E
:103DF000882339F04AE954E060E373E08C819D81C7
:103E000078D6CE01E2DDCE014BDE8E819F81019717
:103E100021F0CE01DF91CF9108CFDF91CF910895AE
:103E2000CF93DF93EC017B8B6A8B89A1882339F0D8
:103E30004EEB54E060E373E08C819D815AD6CE0155
:103E400062DD8E819F81019721F0CE01DF91CF91BC
:103E5000ECCEDF91CF910895FC0184819581089586
:103E6000FC0181A10895FC0161A30895FC01718BFF
:103E7000608B0895FC01718760870895FC01608F55
:103E80000895FC01618F0895FC01768F658F089578
:103E9000FC0170A3678F08950F9300E020E040E0DD
:103EA00060E082EF9BE00E945E2E0F91089523EF69
:103EB00034E0FC0131832083089523EF34E0FC01DA
:103EC000318320830C940D300F93FC0183EF94E039
:103ED00091838083738762875383428335832483EE
:103EE00004870F910895FC01668177818085918513
:103EF0000895FC0146835783608771870895FC010C
:103F0000848195810895FC01848508950F9300E0D4
:103F100020E040E060E088EF9BE00E945E2E0F9181
:103F2000089526E235E0FC0131832083C0CFCF9392
:103F3000DF93EC01F6DFCE01DF91CF910C940D30D1
:103F4000CF92DF92EF92FF920F931F93CF93DF9365
:103F5000CDB7DEB72A970FB6F894DEBF0FBECDBF40
:103F60007C016B01C0DF8E010F5F1F4F22E045E037
:103F70000E941634C701C3DFA801BC01C601B9D530
:103F8000C701C1DF882331F049EF54E060E373E0FB
:103F9000C601AFD52A960FB6F894DEBF0FBECDBFCF
:103FA000DF91CF911F910F91FF90EF90DF90CF9015
:103FB00008950F93CF93DF93EC0100E061E070E090
:103FC00083DF86E295E099838883DF91CF910F911B
:103FD00008950F9300E020E040E060E08EEF9BE06A
:103FE0000E945E2E0F910895FC011386158614869B
:103FF00027E030E0DF01A20FB31F13961C922115BA
:10400000310519F021503109F5CF08951F93CF9351
:10401000DF93EC01162F60E0812F0E946B31612F3E
:1040200070E0FB01E25AFE4FE491E883FB01EC559E
:10403000FE4FE491F0E0EE0FFF1FE651FE4F859139
:1040400094919A838983CE01DF91CF911F91CCCF38
:10405000CF92DF92EF92FF920F931F93CF93DF9354
:10406000EC018B010E9458306B017C0188819981A1
:10407000DC01ED91FC910480F581E02D1995892BEF
:1040800069F40E9458306C197D098E099F096839BE
:104090007A438105910550F380E00CC088819981B5
:1040A000DC01ED91FC910680F781E02D1995F80176
:1040B000808381E0DF91CF911F910F91FF90EF906E
:1040C000DF90CF9008950F931F93CF93DF93EA0172
:1040D00008811981600F711FBBDF882331F00F5FEA
:1040E0001F4F1983088381E001C080E0DF91CF91E9
:1040F0001F910F9108953F924F925F926F927F921E
:104100008F929F92AF92BF92CF92DF92EF92FF92E7
:104110000F931F93CF93DF9300D0CDB7DEB78C0101
:104120006B011A8219825C0182E0A80EB11CAE01FB
:104130004F5F5F4FB501C801C6DF811103C080E04A
:1041400090E0B9C0D80112969C901B82E12CF12C12
:10415000412C512C32014394BE016D5F7F4FC80149
:1041600077DF882361F329813A81C90101969A8317
:1041700089836B81F801E20FF31F6283462F4F772B
:1041800050E0449D9001459D300D549D300D11240B
:10419000E20EF31E97E0440C551C661C771C9A95A2
:1041A000D1F767FDD9CF292D207F332433942033D5
:1041B00009F0312C8150F6018083332031F1AE01BA
:1041C0004F5F5F4FB501C8017EDF882309F4B7CF89
:1041D000AE014F5F5F4FB501C80175DF882309F459
:1041E000AECFD6018C91F801E80FF11D4380512C20
:1041F000542C44248481480E511CF801828181FF93
:1042000008C0F2E04F0E511C04C080E0412C512C3C
:1042100001C082E0A82EB12C612C712C480189E9E3
:10422000880E911CC3018A0D9B1D8E159F0598F564
:10423000BE016D5F7F4FC8010BDF882309F47FCF7C
:10424000D4018D919C910097A9F0332099F0298198
:104250003A8122503109F6014081241B310942166E
:10426000530640F4DC01ED91FC910190F081E02DCA
:104270006B81199589819A818038910528F42B8169
:10428000F801E80FF91F228301969A838983BFEF13
:104290006B1A7B0AC7CFF801E756FF4F80819181E7
:1042A000892B39F489819A818138910510F01A821D
:1042B000198289819A810F900F900F90DF91CF9191
:1042C0001F910F91FF90EF90DF90CF90BF90AF9034
:1042D0009F908F907F906F905F904F903F90089548
:1042E000AF92BF92CF92DF92EF92FF920F931F9304
:1042F000CF93DF9300D01F92CDB7DEB77C01F901D9
:1043000080E09E2F9F77EE0FEF2FEE1FFF0BF195B2
:10431000309709F09068A1E0B0E0AC0FBD1FA80F86
:10432000B11D9C938F5F309761F7A82EB12CDA01F5
:10433000AA19BB0914966C93BE016F5F7F4F80E092
:1043400090E04A195B098A159B0554F4FB01D19052
:10435000BF018A01080F191FF801D5820196F3CF1A
:10436000F7018081918189010F5F1F4F0A0D1B1D8D
:10437000FC0120813181F90122813381A801BD0135
:10438000F90119956C010E945830F701EC57FF4F65
:10439000608371838283938381E0C016D10609F024
:1043A00080E00F900F900F900F90DF91CF911F91B1
:1043B0000F91FF90EF90DF90CF90BF90AF90089556
:1043C000C9010296DB01FD01E61BF70B2D912223AB
:1043D00031F0FA01E80FF91F20830196F4CF9C0118
:1043E0002E1B3F0B240F351FD9011297FC931196FA
:1043F000EC930895CF93DF93EC0188819981009726
:1044000031F1DC01ED91FC910488F589E02D1995DD
:1044100081111FC0FE01E556FF4F80819181892BDC
:10442000B1F48DEF9FEF9183808388819981DC01C6
:10443000ED91FC910284F385E02D19958881998195
:10444000DC01ED91FC910288F389E02D199580E063
:1044500001C081E0DF91CF9108952F923F924F925A
:104460005F926F927F928F929F92AF92BF92CF9204
:10447000EF92FF920F931F93CF93DF93CDB7DEB7E9
:104480002E970FB6F894DEBF0FBECDBF4C011B01B7
:104490002A013901AFDF811114C1F401EB56FF4F3E
:1044A00060817181D4018D919C911197A956BF4F64
:1044B000FC01208131816115710541F04D915C91C4
:1044C000D9011E96ED91FC911F971FC0F90104843C
:1044D000F585E02DFE87ED87ED91FC9120E239E036
:1044E0003A832983D401A157BF4F12964D915D9114
:1044F0006D917C9115974B835C836D837E83AF01B7
:10450000BE016F5F7F4FED85FE851995F401813007
:10451000910509F0CEC0EE57FF4F9183808389E06B
:10452000E5E1F2E0DE01119601900D928A95E1F746
:10453000FE01319680E090E02191D401A80FB91FCF
:1045400017962C93019689309105B1F70115110545
:1045500059F0F0E2CF9EC0011124866028E0E29E6F
:10456000700111248E2901C082E04114510431F000
:104570006114710411F4806801C0806CD4015096FC
:104580008C93509751961C9251978FE052968C9332
:104590007401B2E0EB0EF11C21E130E0A701B101A2
:1045A000C4010EDF0115110551F09C01A701B801EE
:1045B000C40106DF9C01A701B501C40101DF41145C
:1045C000510469F09C01A701B201C401F9DE611434
:1045D000710429F09C01A701B301C401F1DE9C0123
:1045E00025503109A70160E1C4017ADE0E945830EC
:1045F000F401EC57FF4F60837183828393838401BE
:1046000008571F4FF8016083718382839383F401FD
:1046100080819181DC01ED91FC910480F581E02D98
:104620001995892BC1F40E945830D8014D905D90A6
:104630006D907C90641975098609970968397A43E9
:104640008105910520F3F401E556FF4F8CEF9FEFB4
:104650009183808323C0BE01665F7F4FC4014BDD21
:104660000497E1F4F4018581940125563F4F7901C7
:10467000811110C00E945830D8016D937D938D93A5
:104680009C931397F401E457FF4F1082F7011182B6
:10469000108217C090E0D9018D939C93F401808122
:1046A0009181DC01ED91FC910288F389E02D19954F
:1046B00006C0E556FF4F8EEF9FEF9183808380E029
:1046C00001C081E02E960FB6F894DEBF0FBECDBFBD
:1046D000DF91CF911F910F91FF90EF90CF90BF90FE
:1046E000AF909F908F907F906F905F904F903F9092
:1046F0002F900895AF92BF92CF92EF920F931F9396
:10470000A12CB12CC12CE12C00E010E0A6DE1F9101
:104710000F91EF90CF90BF90AF9008952F923F925E
:104720004F925F926F927F928F929F92AF92BF92C1
:10473000CF92DF92EF92FF920F931F93CF93DF936D
:1047400000D01F92CDB7DEB78C014DB65EB652DEFB
:10475000882309F441C10E9458306B017C01580143
:1047600028E8A20EB11CF50180819181A281B3815C
:10477000A7019601281B390B4A0B5B0BDA01C90113
:1047800089399A43A105B10590F4349780819181CC
:10479000A281B381A7019601281B390B4A0B5B0B41
:1047A000DA01C90189399A43A105B105C0F148016F
:1047B0004CE8840E911CD4012C91F80180819181E8
:1047C000222371F0E556FF4F2CEF3FEF318320831A
:1047D000DC01ED91FC910288F389E02D1995FCC074
:1047E00020ECF80122831382DC01ED91FC91028020
:1047F000F381E02D42E050E0B8016E5F7F4F1995E4
:10480000F801EC57FF4FC082D182E282F382F501BA
:10481000C082D182E282F38281E0D4018C93F801DC
:1048200080819181DC01ED91FC910480F581E02D86
:104830001995892B09F4D2C0BE016F5F7F4FC80163
:104840005ADCFC01009709F4C9C0D501CD92DD9274
:10485000ED92FC921397D80112968C91807F803351
:1048600009F09FC04801BDE88B0E911CD4018D91C9
:104870009C91892B09F4B2C02DB63EB6698170E0D7
:10488000D801A60FB71F13964C91139750E0542FE1
:10489000442714968C911497480F511DCA01019614
:1048A0002DB73EB7281B390B0FB6F8943EBF0FBE8D
:1048B0002DBF8DB79EB701965C0120E030E0BC8330
:1048C000AB832417350769F06B807C80620E731E02
:1048D000D30115966C90D5016D925D012F5F3F4F0E
:1048E000F0CFDC01A20FB31F1C92D8011296BC912D
:1048F000B670BA83B230E9F53901660E771ED80179
:10490000A60DB71D1596AC901597B12CBA2CAA24FC
:1049100016964C91A40EB11C4BEF5FEF461B570B44
:10492000421B530B4E0F5F1FB301695F7F4F600F38
:10493000711FD401ED91FC91199580E4F8018283F7
:104940007A807382B482A582D8018D919D91BD0138
:10495000DC01ED91FC910280F381E02D44E050E018
:104960001995F801EC57FF4FC082D182E282F382A1
:1049700012C04DEF5FEF461B570B421B530B4E0F00
:104980005F1F620F731F6B5F7F4F600F711FD4013A
:10499000ED91FC9119950FB6F8943EBE0FBE2DBE59
:1049A0001DC0803C91F480EDF80182831382D80110
:1049B0008D919D91BD01DC01ED91FC910280F3810F
:1049C000E02D42E050E0199509C0803D39F4F8012E
:1049D000E457FF4F108202C080E001C081E00FB6B3
:1049E000F8945EBE0FBE4DBE0F900F900F900F90CB
:1049F000DF91CF911F910F91FF90EF90DF90CF90BB
:104A0000BF90AF909F908F907F906F905F904F90EE
:104A10003F902F9008958F929F92BF92CF92DF92F6
:104A2000EF92FF920F931F93CF93DF931F921F92EA
:104A3000CDB7DEB74C01B42E152F790169837A8387
:104A4000D9DC69817A81882309F444C0FB01019093
:104A50000020E9F73197E61BF70BC70107968E0F89
:104A60009F1F81389105B0F5640182E0C80ED11C0A
:104A700025E030E0A601C401A3DCEB2DF12F60E0BE
:104A800070E09401280F391F6E157F0549F04191A0
:104A9000D901A60FB71F12964C936F5F7F4FF4CFCB
:104AA000011102C060E301C061E3970125503109A3
:104AB000280F391FA601C4010F900F90DF91CF91ED
:104AC0001F910F91FF90EF90DF90CF90BF909F903C
:104AD0008F9006CC80E00F900F90DF91CF911F91C7
:104AE0000F91FF90EF90DF90CF90BF909F908F90AD
:104AF00008950F93FA0101900020E9F79F012150DA
:104B00003109241B350B00E086DF0F910895CF9209
:104B1000DF92FF920F931F93CF93DF931F921F9209
:104B2000CDB7DEB76C01F42E81E0841708F43EC0E7
:104B3000FB0101900020E9F7E61BF70B3896E138FE
:104B4000F105A0F5C60169837A8354DC69817A8115
:104B5000882361F1F601EE57FF4F80819181019624
:104B600011F481E090E09183808380819181F6014E
:104B70009783808786010E5F1F4F27E030E0A801F2
:104B8000C6011EDCF601E80FF91FF2829C012450D9
:104B90003109A80162E8C6010F900F90DF91CF9113
:104BA0001F910F91FF90DF90CF909ACB80E00F90F4
:104BB0000F90DF91CF911F910F91FF90DF90CF90D9
:104BC000089540E0A4CFCF92DF92EF92FF920F932F
:104BD0001F93CF93DF93CDB7DEB72C970FB6F89422
:104BE000DEBF0FBECDBF7C01FB016A0103812281C4
:104BF00041816081CE0107960E945E2E09851A854B
:104C00002B853C85F701E157FF4F028313832483F3
:104C100035833896D182C082329711821082C701C3
:104C20002C960FB6F894DEBF0FBECDBFDF91CF91AB
:104C30001F910F91FF90EF90DF90CF900895CF924A
:104C4000DF92EF92FF920F931F93CF93DF9300D0E9
:104C50001F92CDB7DEB76C01790181579F4F4B830F
:104C60005C8369837A830E94542EF601E556FF4FD8
:104C70008FEF9FEF918380834B815C8169817A8183
:104C8000C601A1DFF601E357FF4FF182E082F60192
:104C900011830083E756FF4F118210820F900F900F
:104CA0000F900F90DF91CF911F910F91FF90EF9098
:104CB000DF90CF9008950F9300E020E040E060E0A7
:104CC00084E09CE0FBD70F9108950895FC0185E6F0
:104CD00096E2928B818B768365831482108289E0C1
:104CE000818381E082838383089508950895CF931B
:104CF000DF93EC0184E196E0998388838AA19BA1EC
:104D0000009739F0DC01ED91FC910280F381E02DF8
:104D100019958CA19DA1009739F0DC01ED91FC91D2
:104D20000280F381E02D1995CE01DF91CF910C9493
:104D3000181CCF93DF93EC01DADFCE01DF91CF9126
:104D40000C940D301F93CF93DF93EC01162F8AA1A3
:104D50009BA10E94AB1B612F8CA19DA1DF91CF91E4
:104D60001F910C94AB1BEF92FF920F931F93CF9365
:104D7000DF93CDB7DEB72C970FB6F894DEBF0FBE2A
:104D8000CDBF8C017A01CE0107960E94CB2FB701CF
:104D9000CE0101960E94CB2F6CE275E0CE01079602
:104DA0000E94E02F882329F0B701C8010E945F1EEE
:104DB00033C064E475E0CE0107960E94E02F88239B
:104DC00041F0C7010E949B36AB01BC01C80108D865
:104DD00023C06BE675E0CE0107960E94E02F882382
:104DE00021F0F80162A173A10BC067E875E0CE0164
:104DF00007960E94E02F882341F0F80164A175A175
:104E0000A701C8010E94041E07C0C80125D843EAB3
:104E100055E060E373E06DDECE0101960E94642FE1
:104E2000CE0107960E94642F2C960FB6F894DEBF31
:104E30000FBECDBFDF91CF911F910F91FF90EF90EB
:104E40000895AF92BF92CF92DF92EF920F931F938C
:104E5000CF93DF93EC016B01B42E20E0AB0160E057
:104E600070E00E94251C84E196E09983888388E0A5
:104E7000EEE1F2E0DE01969601900D928A95E1F75F
:104E80006B2DCE010E94331FCE010E94301F88235C
:104E900031F04BEB55E060E373E0C6012ADE8AE0B7
:104EA00090E00E940C305C01E12C860124ED35E09D
:104EB00040E06EE170E00E94D81BBBA2AAA28AE08B
:104EC00090E00E940C305C0122EF35E040E06FE1A1
:104ED00070E00E94D81BBDA2ACA261E0CE010E948E
:104EE0003E1F20E432E0A60161E070E0CE010E94A6
:104EF000481CBC01CE010E943A1FBE016A5D7F4F73
:104F0000CE010E94441F64E070E0CE010E94481F61
:104F1000B601CE01DF91CF911F910F91EF90DF90FD
:104F2000CF90BF90AF900C94FD1D0F9300E020E058
:104F300040E060E08AE09CE0C1D60F9108950895BA
:104F40002FE537E0FC01318320830C94181CCF93AC
:104F5000DF93EC01F5DFCE01DF91CF910C940D30A2
:104F60001F93CF93DF93EC01162F8AA19BA10E9480
:104F7000AB1B612F8CA19DA1DF91CF911F910C9450
:104F8000AB1BFC0186A197A10C94AB1BEF92FF9287
:104F90000F931F93CF93DF93CDB7DEB72C970FB648
:104FA000F894DEBF0FBECDBF8C017A01CE0107960B
:104FB000F2D7B701CE010196EED760E276E0CE01DE
:104FC0000796FED7882329F0B701C8010E945F1E0B
:104FD0004DC06BE376E0CE010796F2D7882349F007
:104FE000C7010E949B36AB01BC01C8010E94F01EA4
:104FF0003DC065E676E0CE010796E2D7882349F00A
:10500000C7010E949B360E946B32C8010E94101F8C
:105010002DC06CE876E0CE010796D2D7882321F028
:10502000F80162A173A10AC06BEA76E0CE0107968F
:10503000C7D7882341F0F80164A175A1A701C80171
:105040000E94041E13C06AEC76E0CE010796B8D722
:10505000882321F0F80166A177A1F0CFC8010E9452
:105060002C1F43EA55E060E373E043DDCE01019677
:105070002BD7CE01079628D72C960FB6F894DEBF13
:105080000FBECDBFDF91CF911F910F91FF90EF9099
:105090000895AF92BF92CF92DF92EF920F931F933A
:1050A000CF93DF93EC016B01B42E20E0AB0165E000
:1050B00070E00E94251C8FE597E0998388838CE03F
:1050C000E6E2F2E0DE01989601900D928A95E1F712
:1050D0006B2DCE010E94331FCE010E94301F88230A
:1050E00031F044EE56E060E373E0C60102DD8AE091
:1050F00090E092D75C01E12C86012DEF36E040E094
:1051000062E270E00E94D81BBBA2AAA28AE090E0F3
:1051100083D75C012EE137E040E063E270E00E945B
:10512000D81BBDA2ACA261E0CE010E943E1F8AE066
:1051300090E072D75C012FE337E040E06BE270E073
:105140000E94D81BBFA2AEA261E0CE010E94411F07
:1051500022E832E0A60161E070E0CE010E94481C26
:10516000BC01CE010E943A1F24EA32E0A60160E0B1
:1051700070E0CE010E94481CBC01CE010E94361F87
:10518000BE01685D7F4FCE010E94441F66E070E063
:10519000CE010E94481FB601CE01DF91CF911F9131
:1051A0000F91EF90DF90CF90BF90AF900C94FD1DCA
:1051B0000F9300E020E040E060E080E19CE07ED5DD
:1051C0000F91089508950895CF93DF93EC018DE436
:1051D00098E0998388838AA19BA1009739F0DC012C
:1051E000ED91FC910280F381E02D19958CA19DA198
:1051F000009739F0DC01ED91FC910280F381E02D04
:105200001995CE01DF91CF910C94181CCF93DF93A9
:10521000EC01DADFCE01DF91CF91FFC61F93CF9370
:10522000DF93EC01162F8AA19BA10E94AB1B612F7B
:105230008CA19DA1DF91CF911F910C94AB1BEF929C
:10524000FF920F931F93CF93DF93CDB7DEB72C97C9
:105250000FB6F894DEBF0FBECDBF8C017A01CE0130
:10526000079699D6B701CE01019695D66BE677E001
:10527000CE010796A5D6882329F0B701C8010E9460
:105280005F1E32C067E877E0CE01079699D6882383
:1052900049F0C7010E949B36AB01BC01C8010E94C6
:1052A000F01E22C062EB77E0CE01079689D68823F4
:1052B00021F0F80162A173A10AC062ED77E0CE018E
:1052C00007967ED6882341F0F80164A175A1A70155
:1052D000C8010E94041E08C0C8010E942C1F43EA96
:1052E00055E060E373E005DCCE010196EDD5CE011B
:1052F0000796EAD52C960FB6F894DEBF0FBECDBF49
:10530000DF91CF911F910F91FF90EF900895AF9291
:10531000BF92CF92DF92EF920F931F93CF93DF93C1
:10532000EC016B01B42E20E0AB0163E070E00E9461
:10533000251C8DE498E09983888388E0E2E3F2E01D
:10534000DE01969601900D928A95E1F76B2DCE01C4
:105350000E94331FCE010E94301F882331F042EF9C
:1053600057E060E373E0C601C4DB8AE090E054D606
:105370005C01E12C860125E038E040E060E270E06D
:105380000E94D81BBBA2AAA28AE090E045D65C018D
:1053900027E238E040E061E270E00E94D81BBDA245
:1053A000ACA261E0CE010E943E1F2FE532E0A601D3
:1053B00061E070E0CE010E94481CBC01CE010E9459
:1053C0003A1FBE016A5D7F4FCE010E94441F64E018
:1053D00070E0CE010E94481FB601CE01DF91CF914F
:1053E0001F910F91EF90DF90CF90BF90AF900C94F2
:1053F000FD1D0F9300E020E040E060E086E19CE0CE
:105400005DD40F91089508950895CF93DF93EC0133
:1054100084EF98E0998388838AA19BA1009739F053
:10542000DC01ED91FC910280F381E02D1995CE0114
:10543000DF91CF910C94181CCF93DF93EC01E5DF43
:10544000CE01DF91CF91E9C5FC0182A193A10C941B
:10545000AB1BEF92FF920F931F93CF93DF93CDB7C8
:10546000DEB72C970FB6F894DEBF0FBECDBF8C0110
:105470007A01CE0107968FD5B701CE0101968BD563
:1054800069E578E0CE0107969BD5882329F0B7011E
:10549000C8010E945F1E27C064E778E0CE0107962E
:1054A0008FD5882349F0C7010E949B36AB01BC0110
:1054B000C8010E94F01E17C064EA78E0CE0107968A
:1054C0007FD5882341F0F80162A173A1A701C8012B
:1054D0000E94041E08C0C8010E942C1F43EA55E028
:1054E00060E373E006DBCE010196EED4CE010796B1
:1054F000EBD42C960FB6F894DEBF0FBECDBFDF9174
:10550000CF911F910F91FF90EF900895AF92BF92AE
:10551000CF92DF92EF920F931F93CF93DF93EC0123
:105520006B01B42E20E0AB0161E070E00E94251C0D
:1055300084EF98E09983888386E0EAE3F2E0DE0175
:10554000949601900D928A95E1F76B2DCE010E9401
:10555000331FCE010E94301F882331F042EF57E005
:1055600060E373E0C601C5DA8AE090E055D55C01DE
:10557000E12C860129EC38E040E064E270E00E9412
:10558000D81BBBA2AAA261E0CE010E943E1F23EC61
:1055900032E0A60161E070E0CE010E94481CBC012F
:1055A000CE010E943A1FBE016C5D7F4FCE010E946A
:1055B000441F63E070E0CE010E94481FB601CE0197
:1055C000DF91CF911F910F91EF90DF90CF90BF901F
:1055D000AF900C94FD1D0F9300E020E040E060E0F0
:1055E0008CE19CE06BD30F91089524E039E0FC013D
:1055F000318320830C947B1ACF93DF93EC01F5DF8A
:10560000CE01DF91CF9109C5EF92FF920F931F93C7
:10561000CF93DF93EC018B01000F111F0C0F1D1FA7
:10562000F80182819381892B09F037C061307105BF
:1056300051F16CF4672B89F58EE290E0EDD47C019A
:10564000688D798D40E0FDDBFB82EA8226C0633005
:10565000710571F06530710501F584E390E0DCD4EB
:105660007C01688D798D40E014DDFD86EC8615C0E7
:105670008EE290E0D1D47C01688D798D40E047DEE8
:10568000F986E8860AC08AE290E0C6D47C01688D7B
:10569000798D40E03BDFFD82EC82F80182819381CD
:1056A000DF91CF911F910F91FF90EF900895EF92AE
:1056B000FF920F931F93CF93DF93EC017B018A013D
:1056C00060E472E0C7010E94B636892B59F4B80134
:1056D000882777FD8095982F31D7AB01BC018A814F
:1056E0009B8147C06FE572E0C7010E94B636892BE7
:1056F00059F4B801882777FD8095982F1FD7AB0103
:10570000BC018885998535C062E872E0C7010E94B6
:10571000B636892B59F4B801882777FD8095982FE4
:105720000DD7AB01BC018C859D8523C064EA72E076
:10573000C7010E94B636892B59F4B8018C859D8526
:10574000DF91CF911F910F91FF90EF900C94B31EBA
:1057500063EC72E0C7010E94B636892B91F4B80160
:10576000882777FD8095982FE9D6AB01BC018C8105
:105770009D81DF91CF911F910F91FF90EF900C943D
:10578000891EDF91CF911F910F91FF90EF900895A7
:105790000F931F93CF93DF93EC018B010E94881A24
:1057A00084E099E099838883198F088FDF91CF91E6
:1057B0001F910F9108950F931F93CF93DF938C0147
:1057C0008091CE099091CF09892B51F48AE190E024
:1057D00023D4EC01B801DCDFD093CF09C093CE090C
:1057E0008091CE099091CF09DF91CF911F910F91B8
:1057F00008950F9300E020E040E060E082E29CE04A
:105800005DD20F910895FC01818D228D90E0805C26
:105810009F4F821B91098F7399270895FC01918DE9
:10582000828D981731F0828DE80FF11D858D90E003
:1058300008958FEF9FEF0895FC01918D828D981749
:1058400061F0828DDF01A80FB11D5D968C91928D64
:105850009F5F9F73928F90E008958FEF9FEF089561
:1058600081ED9DE2892B39F080E090E0892B19F0E1
:1058700098D1811125C080E090E0892B41F080E033
:1058800090E0892B21F00E94000081111CC080E073
:1058900090E0892B41F080E090E0892B21F00E947C
:1058A0000000811113C080E090E0892BA1F080E01E
:1058B00090E0892B81F00E94000081110AC00895B8
:1058C0000E940000D8CF0E940000E1CF0E9400009B
:1058D000EACF0C9400000895FC01848DDF01A80F2D
:1058E000B11DA35ABF4F2C91848D90E001968F7308
:1058F0009927848FA689B7892C93A089B1898C9127
:1059000080648C93938D848D981306C00288F389EC
:10591000E02D80818F7D80830895CF93DF93EC010C
:10592000888D8823C1F0EA89FB89808185FD05C0C7
:10593000A889B9898C9186FD0EC00FB607FCF5CFFA
:10594000808185FFF2CFA889B9898C9185FFEDCF41
:10595000CE01C2DFE8CFDF91CF910895CF92DF92E1
:10596000FF920F931F93CF93DF931F92CDB7DEB7B4
:105970006C01DC015B969C915B975C968C915C97CB
:10598000981307C05096ED91FC915197808185FD49
:1059900031C0F601038D10E00F5F1F4F0F73112709
:1059A000F02EF601848DF81210C00FB607FCF9CF67
:1059B000D6015096ED91FC915197808185FFF1CFF2
:1059C000C601698389DF6981ECCF838DE80FF11D02
:1059D000E35AFF4F6083D6015B960C935B97529618
:1059E000ED91FC91539780818062808381E058968D
:1059F0008C930DC0D6015696ED91FC91579760831C
:105A00005096ED91FC91519780818064808381E074
:105A100090E00F90DF91CF911F910F91FF90DF9059
:105A2000CF900895BF92CF92DF92EF92FF92CF93E3
:105A3000DF93EC016A017B01B22EE889F98982E0EB
:105A40008083411581EE58076105710599F060E08A
:105A500079E08DE390E0A701960187D621503109C6
:105A6000410951095695479537952795211580E1AC
:105A7000380790F0E889F989108260E874E88EE1CF
:105A800090E0A701960171D62150310941095109D1
:105A90005695479537952795EC85FD853083EE859E
:105AA000FF852083188EEC89FD89B082EA89FB8905
:105AB000808180618083EA89FB898081886080831E
:105AC000EA89FB89808180688083EA89FB898081FB
:105AD0008F7D8083DF91CF91FF90EF90DF90CF900B
