:10000000C9C10000F8C10000F6C10000F4C1000041
:10001000F2C10000F0C10000EEC10000ECC1000020
:10002000EAC10000E8C10000E6C10000E4C1000030
:10003000E2C10000E0C10000DEC10000DCC1000040
:10004000DAC10000D8C10000D6C10000D4C1000050
:10005000D2C10000D0C10000CEC100000C94492BD9
:10006000CAC100000C94AD280C94E328C4C1000060
:10007000C2C10000C0C10000BEC10000BCC1000080
:10008000BAC10000B8C10000B6C10000B4C1000090
:10009000B2C10000B0C10000AEC10000ACC10000A0
:1000A000AAC10000A8C10000A6C10000A4C10000B0
:1000B000A2C10000A0C100009EC100009CC10000C0
:1000C0009AC1000098C1000096C1000094C10000D0
:1000D00092C1000090C100008EC100008CC10000E0
:1000E0008AC10000B40BCB0B480C320D510D6E0DC4
:1000F000760D280D6B2C6E2C5D2C612C672CA52C9D
:10010000722C762C7C2C802C842C8A2C8E2C922C7D
:10011000A52C982C9C2CA02C00000A0B02090C0D7D
:100120000E080703040100000000000000000000AA
:1001300000000000000000000000000000000000BF
:10014000000000001211100000000000000000007C
:10015000000000000000000000000000000001029C
:1001600010202008081020401020408002010201C9
:100170000804020101020408102040808040201081
:1001800008040201800402018040201008040201DA
:100190000804020101020408102040800102040842
:1001A000102040800505050507050808080802021B
:1001B00002020A0A08080404040401010101010101
:1001C00001010303030303030303040707070C0CE4
:1001D0000C0C0C0C0C0C02020202060606060606AB
:1001E00006060B0B0B0B0B0B0B0B00002000230068
:1001F000260029002C002F0032000001000003011E
:100200000601090100002200250028002B002E0015
:100210003100340002010000050108010B0100005B
:100220002100240027002A002D00300033000101A6
:100230000000040107010A014E414E494E4954593C
:10024000494E46CDCCCC3D0AD7233C17B7D13877A1
:10025000CC2B329595E6241FB14F0A0000204100B7
:1002600000C84200401C4620BCBE4CCA1B0E5AAE01
:10027000C59D7400407A10F35A00A0724E18090010
:1002800010A5D4E80000E87648170000E40B5402FB
:100290000000CA9A3B000000E1F505000080969836
:1002A00000000040420F000000A086010000001086
:1002B0002700000000E803000000006400000000C8
:1002C000000A00000000000100000000002C76D8A9
:1002D00088DC674F0823DFC1DFAE59E1B1B796E58F
:1002E000E3E453C63AE651997696E8E6C28426EBF3
:1002F000898C9B62ED407C6FFCEFBC9C9F40F2BA06
:10030000A56FA5F490055A2AF75C936B6CF9676D9D
:10031000C11BFCE0E40D47FEF520E6B500D0ED90F2
:100320002E0300943577050080841E080000204EBF
:100330000A000000C80C333333330F986E12831158
:1003400041EF8D2114893BE65516CFFEE6DB18D12F
:10035000844B381BF77C1D901DA4BBE42420328401
:10036000725E228100C9F124ECA1E53D27009202D2
:10037000A310AE107014D417E217ED173319A1199A
:10038000041A221D5C1DBF1D2F24BF24682634279C
:100390001529A52911241FBECFEFD1E2DEBFCDBFA5
:1003A00000E00CBF16E0A0E0B2E0EAEAFBE600E005
:1003B0000BBF02C007900D92A035B107D9F72AE014
:1003C000A0E5B6E001C01D92A53EB207E1F713E03B
:1003D000C4E9D3E000E006C022970109FE010BBF8B
:1003E0000E940D2FCE36D10780E00807A9F70E94A2
:1003F0003B2B0C94D33504CE23E230E040E050E0B8
:100400006FE070E080E090E00E94842AAB016CE233
:1004100072E080911B0790911C070E94F92624E648
:1004200030E040E050E068E270E080E090E00E9460
:10043000842AAB016BE472E080911B0790911C074A
:100440000C94F9260F931F93CF93DF9300D000D025
:10045000CDB7DEB726E040E052EC61E070E084E327
:1004600099E00E944D288EE496E09A8389838091DA
:100470002F0790913007A0913107B09132078B83FD
:100480009C83AD83BE83AE014F5F5F4F6EE072E031
:1004900085ED98E00E94271760911B0770911C075B
:1004A00080911D0790911E070E94492487E090E0EB
:1004B0000E94472B8C0160911D0770911E0740E040
:1004C0000E948E2610931C0700931B072CEF31E02F
:1004D00040E355E760E070E080E596E00E94D118C7
:1004E0008BDF26960FB6F894DEBF0FBECDBFDF912F
:1004F000CF911F910F91089560911B0770911C0778
:1005000080911D0790911E070E944924882331F095
:1005100080911D0790911E070E94642180E596E05E
:100520000C9476180F931F93CF93DF9300E020E095
:1005300040E060E083E397E00E94992905E22EEF16
:1005400048EA60EC8DE297E00E9499298FE197E0FC
:100550000E94A4118DE990E00E94472BEC010FE16D
:1005600017E02AE934E24BE557E06AE072E00E94C6
:10057000F423D0931E07C0931D0769E08DE097E038
:100580000E94DC1D6DE077E08AEF96E00E943A243D
:1005900080E596E0DF91CF911F910F910C94451863
:1005A000882381F08F3F29F480913B0790913C078D
:1005B000089595E0899FF0011124E05CF84F828155
:1005C0009381089580E090E00895CF93DF93D82F32
:1005D000C62F60E085E30E94DF2C9C2F9F719D2B2E
:1005E0009EBD0DB407FEFDCF1EBC0DB407FEFDCFB2
:1005F000C7FD08C061E085E30E94DF2C8EB5DF9166
:10060000CF9108951EBC0DB407FEFDCFF3CF0F931D
:100610001F93CF93DF931F92CDB7DEB7182F062F0E
:1006200060E085E349830E94DF2C602F6F71612BAE
:100630006EBD49810DB407FEFDCF4EBD0DB407FE62
:10064000FDCF61E085E30F90DF91CF911F910F9176
:100650000C94DF2C0F931F93CF93DF938C01EB014E
:1006600060E085E30E94DF2C8AE38EBD0DB407FEB7
:10067000FDCF0C0F1D1FC017D10739F01EBC0DB4E4
:1006800007FEFDCF8EB58993F6CF61E085E3DF915C
:10069000CF911F910F910C94DF2C0F931F93CF9349
:1006A000DF938C01EB0160E085E30E94DF2C8AE799
:1006B0008EBD0DB407FEFDCF0C0F1D1FC017D10757
:1006C00031F089918EBD0DB407FEFDCFF7CF61E00B
:1006D00085E3DF91CF911F910F910C94DF2C1F9335
:1006E000CF93DF93182F1076C12FD0E02091140202
:1006F00030E0C217D30779F043E06FE180EA87DF8B
:10070000AE0185E0559547958A95E1F76FE180E860
:100710007EDF10931402DF91CF911F910895CF9344
:10072000DF931F92CDB7DEB7682F6983D8DF698169
:1007300080E00F90DF91CF9148CF1F93CF93DF934D
:100740001F92CDB7DEB7182F6983C9DF4981612FAA
:1007500080E40F90DF91CF911F9159CF1F93CF93DA
:10076000DF931F921F92CDB7DEB7182F69837A836C
:10077000B6DF4981612F80E44ADF61E0610F7A8151
:10078000472F80E40F900F90DF91CF911F913FCFC3
:1007900060913E0770913F076115710519F0615036
:1007A000710902C06FEF77E08CE0D8CFF1CFFF92F4
:1007B0000F931F93CF93DF9389E3B1DF882309F46D
:1007C00044C060913E0770913F07EB012696C1152A
:1007D00088E0D80710F0CF5FD74080E0BFDF60E04F
:1007E0008AE3F3DE90E090933F0780933E0760E05A
:1007F0008AE3EBDE20913E0730913F07382B3093A0
:100800003F0720933E0760E08AE3DFDE082F60E0C9
:100810008AE3DBDE182F60E08AE3D7DEF82E40E4BF
:100820006EE180E8F4DEF7FE0FC0D0933A07C09384
:100830003907202F30E0312B2450310930933C0709
:1008400020933B078FEF02C0A3DF80E0DF91CF91C1
:100850001F910F91FF900895EF92FF920F931F93B6
:10086000CF93DF938B017A018F3FC1F025E0829F08
:10087000E0011124C05CD84F02C0C9E3D7E0688111
:100880007981600F711F80E069DF8A819B81801B05
:10089000910BE816F90690F4C70110C08091390752
:1008A00090913A07860F971F811528E0920728F349
:1008B000BC016F5F7740C9E3D7E0E5CFDF91CF910F
:1008C0001F910F91FF90EF9008950F931F93CF9377
:1008D000DF938A01A901C0DFEC01B801BBDECE01C4
:1008E000DF91CF911F910F910895CF92DF92EF92F8
:1008F000FF920F931F93CF93DF938B016A017901CE
:1009000095E0899FE0011124C05CD84F688179810E
:10091000600F711F82E022DF0A80DB81C02DC01BC7
:10092000D10BEC16FD0608F4E701B601CE01B5DEE9
:10093000CE01DF91CF911F910F91FF90EF90DF904B
:10094000CF900895BC0180E009DF60E085E30E945C
:10095000DF2C8AE38EBD0DB407FEFDCF1EBC0DB4A7
:1009600007FEFDCF61E085E30E94DF2C8EB5089580
:10097000CF93C62FBC0182E0F1DE60E085E30E94E8
:10098000DF2C8AE78EBD0DB407FEFDCFCEBD0DB4C2
:1009900007FEFDCF61E085E3CF910C94DF2CFF9241
:1009A0000F931F93CF93DF9395E0899FF00111245C
:1009B000E05CF84FC081D1812197028113810C0F37
:1009C0001D1FCE01BFDFF82E882319F060E0CE0195
:1009D000CFDFBE0184E0C2DEB80186E0BFDE48E0C2
:1009E0006FE180E814DE8CE19ADE81FF04C048E00C
:1009F0006FE180EA0CDEFF2041F06F2DCE01DF9128
:100A0000CF911F910F91FF90B3CFDF91CF911F91A5
:100A10000F91FF900895CF92DF92EF92FF920F9384
:100A20001F93CF93DF937C01EB014130510569F4B3
:100A3000CB0188DF682FC701DF91CF911F910F9104
:100A4000FF90EF90DF90CF9093CF6A01C60ED71E34
:100A500086010150110980E181DEB70184E17EDE6B
:100A6000C115D84030F4011588E0180710F00F5F69
:100A70001740B80182E172DE40E16FE180EAC7DD34
:100A800040E26FE180E8C3DD6FE180E09EDD85FD3F
:100A9000FBCFDF91CF911F910F91FF90EF90DF90EF
:100AA000CF9008950F931F93CF93DF93EB01E5E071
:100AB000E89FD0011124A05CB84F4F3FB9F0E49FEC
:100AC000F0011124E05CF84F02C0E9E3F7E0608137
:100AD0007181620F731F8D919C91A8018C0F9D1FD6
:100AE0009ADFDF91CF911F910F9152CEE09139079C
:100AF000F0913A07E20FF31FE11588E0F80728F3B9
:100B0000BF016F5F7740E7CFCF93DF93EB01682F93
:100B100084ED13DEBE0186ED21DE8AEE00DE80FF6D
:100B200005C08FE090E00E94E72BF7CFDF91CF91D7
:100B30000895CF93DF93EC01D0D061E085E30E946C
:100B4000A62C61E085E30E94DF2C61E083E30E9434
:100B5000A62C61E084E30E94A62C60E082E30E9460
:100B6000A62C61E085E30E94A62C60E083E30E944E
:100B7000DF2C60E084E30E94DF2C80E58CBD8DB526
:100B800081608DBD4FEF60E08FEF41DD62E370E08B
:100B900080E090E00E94C22B10923F0710923E0727
:100BA00060E070E088E0DADD60E070E08CE0D6DDE7
:100BB0006FEF77E08AE0D2DD61EB88E3BEDD6FE3C3
:100BC00070E388E2CBDD69EF77EF80E3C7DD6DE0AE
:100BD00070E080ECC3DD42E362EC80E818DD62E1A6
:100BE0007CE086ECBBDD62E184ECA7DD6CED75E0BA
:100BF0008AECB4DD688184EEA0DD698185EE9DDD3F
:100C00006A8182EE9ADD6B8183EE97DD6C8180EEE6
:100C100094DD6D8181EE91DD60E071E080E174DF53
:100C20008FE15DDD40EC6BE180E8F1DC44E06FE1F9
:100C300080E8EDDC66E774E084E1DF91CF9164CF7A
:100C40000F931F93CF93DF93EC01862FBA01A90175
:100C500003DE8C010150110960E085E30E94DF2C66
:100C60008AE38EBD0DB407FEFDCF20E030E02017F3
:100C70003107C0F41EBC0DB407FEFDCF8EB590E069
:100C8000982F88271EBC0DB407FEFDCF4EB5840FEC
:100C9000911DC80FD91FC817D90708F421962E5FD8
:100CA0003F4FE5CF2017310771F41EBC0DB407FE8E
:100CB000FDCF8EB590E0982F8827C80FD91FC81791
:100CC000D90708F4219661E085E30E94DF2CCE016C
:100CD000DF91CF911F910F910895E0E4F7E08DEC43
:100CE000DF011D928A95E9F781E098E09183808386
:100CF0000895DF92EF92FF920F931F93CF93DF93AC
:100D00007C0140914007509141074150584E80E08E
:100D100098E1E0E4F7E000E0C0E0D0E025E0D22E8A
:100D20001481112341F0D19ED0011124A05CB84F51
:100D30002D913C9101C09A0160817181261B370B76
:100D400062817381261B370B2E153F0539F485E030
:100D5000089FE0011124C05CD84F48C0E216F3069A
:100D600048F42817390730F4D09EE0011124C05C04
:100D7000D84FC901111107C02097C1F5C0E4D7E0D1
:100D800085E0D82E1DC0D19EF0011124E05CF84F03
:100D9000012FC6CF0A811B8188819981080F191FF5
:100DA000D29EE0011124C05CD84F6881798106177A
:100DB000170731F04A815B81C8012DDE1983088352
:100DC0002C812111E7CF2091400730914107888184
:100DD0009981281B390B8A819B81281B390B215053
:100DE000384E2E153F0510F480E019C0E5E4F7E019
:100DF00081E022813381232B29F035968F5F893260
:100E0000C1F7F2CF2A813B8148815981240F351FD8
:100E100031832083F382E2829C8194838C83DF91EF
:100E2000CF911F910F91FF90EF90DF90089588234D
:100E3000F9F0E0E4F7E025E09481981311C095E023
:100E4000899FD0011124A05CB84F14968C911497FF
:100E5000848313961C921E92129714961C920895E6
:100E6000992331F0299FF0011124E05CF84FE4CF81
:100E7000089595E0899FF0011124E05CF84F80818E
:100E80009181860F971F9183808382819381861B36
:100E9000970B93838283089595E0899FF001112435
:100EA000E05CF84F80819181860F971F918380834A
:100EB000538342830895FC015381560F5093E709F1
:100EC000872F99274281480F4093E609A181A0937B
:100ED000E509E081E093E409242F30E02817390781
:100EE00048F481E08A0F8093E509811103C0EF5F28
:100EF000E093E409852F90E077278617970788F419
:100F00004F5F4093E60941110CC08091E5098F5F66
:100F10008093E509811105C08091E4098F5F80937A
:100F2000E40908952091EB093091EC09BC01C90155
:100F30000896C1DFE091EB09F091EC098091E4099A
:100F400080878091E50981878091E6098287809179
:100F5000E7098387089580E0E82FF0E0EE0FFF1F98
:100F6000EB59F54F118210828F5F8430A8F380E037
:100F70009EE1989FF0011124E351F64F118E8F5F8F
:100F80008430B8F38093100880E094E090931208C6
:100F9000809311080895CF93209111083091120881
:100FA0002F5F3F4F21154DE7340710F020E030E16F
:100FB000522F432FEDEEF9E0C0E0C43059F0A18D7F
:100FC000AA2329F0A481B581A417B50749F3CF5FFF
:100FD0007E96F3CF309312082093110810921008D8
:100FE00020E0E0E0F0E04EE12430E0F4429FD00168
:100FF0001124A351B64F59963C915997311104C011
:1010000020931008FD0110C0373041F4309739F0BB
:101010005A965C915A97328D351708F0DF012F5F91
:10102000FD01E2CF209310083097B1F122E0218F2B
:1010300020911308248720911408258720911508F2
:10104000268720911608278720E032E0338B228BF9
:10105000358B248B21E030E0318B208B138E228F57
:1010600023E0208F168A20E1278B209111083091F0
:101070001208322723273227358324837783668318
:10108000DC012D913C9111973183208312968D9133
:101090009C91139793838283CF01CF9108951F93DF
:1010A000CF93DF93C091EB09D091EC092FEA3AE09E
:1010B0003093EA092093E9093093E3092093E20988
:1010C000833059F4898D8F70833009F0A9C58889E0
:1010D0009989892B09F0A4C57FC0823009F080C0AE
:1010E000809116088F5F80931608811113C080913C
:1010F00015088F5F8093150881110CC0809114082A
:101100008F5F80931408811105C0809113088F5F51
:10111000809313081092E1091092E0091092DE0A00
:101120001092DD0A298D822F8D7F853041F48A8DC2
:101130008F5F8A8F883709F073C5198E71C5222396
:1011400009F46EC588899989892B09F441C08A8D73
:101150009FEF980F9A8F811163C58B8D883031F086
:101160009FEF920F923048F4853039F4198E80E861
:101170008093E8090E94661312C4853038F493E026
:10118000082E01C0990F0A94EAF701C090E39A8FE4
:101190008F5F8B8F822F8F708330A1F048F4813066
:1011A00009F42FC2823009F03BC51092A80A2CC264
:1011B000863009F495C3883009F492C3843009F06D
:1011C0002FC58EC384E08093E8090E94661319C47A
:1011D0002F70233009F024C588E08093E809D5C337
:1011E0008091870A853409F01BC58091890A90E0B7
:1011F000982F882720918A0A820F911D2091E0095B
:101200003091E1092817390708F40AC59093E109DC
:101210008093E00980918D0A8F7309F001C5809158
:101220008E0A8111FDC48091750A9091760A00970B
:1012300031F42091770A3091780A232BA1F0209184
:10124000970A3091980A2817390709F0E9C42091C4
:10125000990A30919A0A8091770A9091780A281712
:10126000390709F0DDC40E94D317019609F0D8C4EC
:101270008091900A8630D1F1813009F0D1C48091FB
:101280009B0A883009F0CCC410929B0A80919D0A79
:1012900090919E0A873FAFEF9A0710F0099601C020
:1012A000089690939E0A80939D0A8091930A90914C
:1012B000940A9093980A8093970A8091950A909146
:1012C000960A90939A0A8093990A8091750A909150
:1012D000760A9093940A8093930A8091770A90916A
:1012E000780A9093960A8093950A9EC40E94971755
:1012F000019609F095C480919D0A90919E0A2091D3
:101300009B0A30919C0A4091930A5091940A6091F3
:10131000950A7091960AE6E0FAE0CDEED9E01081E8
:101320001123A9F0AC81BD818A179B0781F4AE819E
:10133000BF812A173B0759F4A881B9814A175B0777
:1013400031F4AA81BB816A177B0709F474C16E96D8
:101350007E96AAE0C536DA0711F72091A80A2F7306
:101360002230E1F490930E0880930D0840E0443061
:1013700098F4E42FF0E0EE0FFF1FEB59F54F2081BA
:1013800031814F5F8217930791F71092100820E088
:10139000C0E0D0E03EE17EC0409310088091A80AF2
:1013A00082FD3EC484E18093A80A88E290E0909395
:1013B000E1098093E00980E58093A70A8091A20A61
:1013C0009091A60A9093A20A3091A10A9091A50A41
:1013D0009093A10A3093A50A2091A00A9091A40AA3
:1013E0009093A00A2093A40A90919F0A90931008CA
:1013F0004091A30A40939F0A9093A30A8F5F809322
:10140000A60A81110FC081E0830F8093A50A811184
:1014100009C081E0820F8093A40A811103C09F5FFD
:101420009093A30A80919B0A90919C0A90930E0836
:1014300080930D0820919D0A30919E0A30939C0A5A
:1014400020939B0A90939E0A80939D0A8091930A11
:101450009091940A9093980A8093970A8091950AA4
:101460009091960A90939A0A8093990A8091750AAE
:101470009091760A9093940A8093930A8091770AC8
:101480009091780A9093960A8093950A8BC347307F
:1014900099F02F5F2430F0F4822F90E0389FF00114
:1014A000399FF00D1124E351F64F418D4111EFCFDB
:1014B00020931008EF0110C0209721F0528D4A8D23
:1014C000451738F7389FE001399FD00D1124C351DB
:1014D000D64FDFCF20931008209709F4A1C3D093F3
:1014E000EC09C093EB0983E08A8F888F1E8A84E021
:1014F0008F8B1B8E80919D0A90919E0A9D838C8379
:1015000080919B0A90919C0A9F838E838091930A7D
:101510009091940A998388838091950A9091960A74
:101520009B838A8381E0898F809113088C878091C7
:1015300014088D87809115088E87809116088F87F3
:1015400081E090E0998B888B8091A20A8B878091B3
:10155000A10A8A878091A00A898780919F0A88873B
:1015600081E090E0DFDC8091A70A282F207F30E027
:10157000213531050CF445C082958F7090E00597B8
:10158000880F991F880F991F30910F0820E0E22FD4
:10159000F0E0E817F9078CF5E758F54F36A9311157
:1015A00005C02093100810920F082BC0313011F4A1
:1015B0002F5FEDCF3230E1F447A94430C9F42093D6
:1015C000100830930F0880AD90E0982F882721AD48
:1015D000822B90930E0880930D08813022E09207B1
:1015E00010F080E092E09B8B8A8B9D8B8C8B09C0E6
:1015F00047A9442311F0240FCACF20931008309339
:101600000F0880E18093A80A8091A80A82608093E5
:10161000A80A82E08093AF0A94E09093B00A809386
:10162000B10A1092B20A8CE290E09093E1098093A3
:10163000E00980E665C2D093EC09C093EB091092F3
:10164000E8093091A80A32FF03C0198E80E206C271
:101650002091A70A22952F70220F220F20931008A5
:101660008091E0099091E1094497821B9109909340
:10167000E1098093E0091F70123021F4232F2F73AA
:101680002231C9F0892B19F4832F8370A1F0909136
:101690009F0A888598132AC29091A00A8985981379
:1016A00025C29091A10A8A85981320C29091A20A1E
:1016B0008B8598131BC234FF49C0688979896115ED
:1016C000710509F443C0CE010C96F5DB3091A30AF5
:1016D0008091E40938133AC02091A40A8091E50969
:1016E000281334C09091A50A8091E60998132EC062
:1016F0008091A60A4091E709841328C03C872D8772
:101700009E878F878B8D81111AC02E89888D9A8D27
:10171000891B922F969596959695891B280F2E8B4F
:1017200087FD81959F89392F36953695931B980FA4
:101730009F8B822F869586958695890F888F81E06D
:101740008093E809888D8A8F198A188A498D842F99
:101750008F7090E0FC013197E830F10508F060C22D
:10176000EE58FF4F0C94FD2E8091E80980FF58C27F
:1017700083E0898F80E48093E809198A188A809130
:10178000E0099091E109009709F4FBC022E420935D
:10179000E809C8DBF6C08091E80980FF6FC080913E
:1017A000A80A8F73823109F069C08091A70A282F97
:1017B000207F30E0213531050CF445C082958F70D3
:1017C00090E00597880F991F880F991F30910F0897
:1017D00020E0E22FF0E0E817F9078CF5E758F54F25
:1017E00036A9311105C02093100810920F082BC0A4
:1017F000313011F42F5FEDCF3230E1F447A944309E
:10180000C9F42093100830930F0880AD90E0982F12
:10181000882721AD822B90930E0880930D0881308C
:10182000A2E09A0710F080E092E09B8B8A8B9D8B60
:101830008C8B09C047A9442311F0240FCACF2093F1
:10184000100830930F0883E0898F80919F0A888762
:101850008091A00A89878091A10A8A878091A20A33
:101860008B8781E090E05EDB82E48093E809198A4F
:10187000188A1092E1091092E00983C080E28093F7
:10188000E80924D7E091EB09F091EC09118E86CD9F
:101890008091A80A80FF26C044FD24C088899989C8
:1018A000892B09F0BDC18091E0099091E109019671
:1018B00039DB2091E809822F80618093E8098091CB
:1018C000E0099091E109892B19F022612093E80940
:1018D000FDD681E090E0998B888B88E0898F1B8E04
:1018E00081E105C185FF1CC08091AD0A90E0982F71
:1018F00088272091AE0A822B2091E9093091EA09CC
:10190000280F391F3093EA092093E9092091E00953
:101910003091E109281B390B3093E1092093E0094C
:101920008091E0099091E109009741F044FD06C0E3
:101930002091E80922602093E809F4DA8091A90A4D
:1019400090E0982F88272091AA0A820F911D9093EA
:101950000E0880930D082C893D892817390710F04F
:10196000892B21F430930E0820930D0880910D08E7
:1019700090910E089B8B8A8B8091E809837009F403
:101980004FC11092DE0A1092DD0AA0D68091E809BC
:1019900085FF07C01092DE0A1092DD0A198E84E1DD
:1019A000A6C084FF0AC01092DE0A1092DD0A81E010
:1019B00090E0998B888B84E091CF2091DD0A309163
:1019C000DE0A21153105E1F080FF02C0198A188A6C
:1019D00088899989009781F48A899B89821793075E
:1019E00020F49093DE0A8093DD0A8091DD0A9091C5
:1019F000DE0A998B888B04C09093DE0A8093DD0AFF
:101A00001B8E8091E2099091E3099093EA098093FB
:101A1000E9098091DD0A9091DE0A892B59F08889C5
:101A20009989009739F088969093E1098093E009AD
:101A300088E10BC08091E80981FFF2C088E290E064
:101A40009093E1098093E00980E18093A80A57C050
:101A50008091E80980FFE4C0198E80E18093E80955
:101A600035D6DEC08091E0099091E109009709F038
:101A700059DA9091A80A8091E80990FF0BC080FF85
:101A800006C087E0898F1A8E198A188A18C086E0E6
:101A9000898F15C080FF1BC085E0898F198A188A3D
:101AA000BFC08091E0099091E109009709F03ADA0E
:101AB0008091A80A80FF0BC087E0898F1A8E81E091
:101AC00090E030DA80E18093E80900D60FC0809181
:101AD000E0099091E109892B49F4A2C08091E809BD
:101AE00080FF9EC087E0898F1A8E9AC080E1809324
:101AF000A80A88E290E09093E1098093E00980E5EC
:101B00008093A70A88858093A30A89858093A40A75
:101B10008A858093A50A8B858093A60A8C858093FD
:101B20009F0A8D858093A00A8E858093A10A8F8558
:101B30008093A20A86E08093900A8C819D81909385
:101B40009C0A80939B0A8E819F8190939E0A80932A
:101B50009D0A8091750A9091760A9093940A8093D9
:101B6000930A8091770A9091780A9093960A8093CD
:101B7000950A888199819093980A8093970A8A811F
:101B80009B8190939A0A8093990A898D84FF05C05E
:101B90001092AA0A1092A90A05C082E08093A90AAD
:101BA0001092AA0A80E480938F0A8091E0099091B4
:101BB000E1099093890A80938A0A1092AE0A1092E2
:101BC000AD0A1092AC0A1092AB0A0E94971780954A
:101BD00090959093AC0A8093AB0A85E48093870A32
:101BE0001092880A10928E0A10928D0A809117081E
:101BF0009091180801969093180880931708909375
:101C00008B0A80938C0A1092920A1092910A0E9479
:101C1000D317809590959093920A8093910A04C06F
:101C20001092E1091092E0091092E809DF91CF913A
:101C30001F91089598278927982708959C01AB0143
:101C40007093DE0A6093DD0A1616170654F480912D
:101C5000E2099091E3092817390719F0B9010C94AA
:101C6000CD310895FF920F931F93CF93DF93DC0143
:101C7000FB011092220860E07BE0683010F5769F4F
:101C8000E0011124C95DD74F288139812115310523
:101C9000B1F08A819B81009791F04D915C911197F1
:101CA0004217530761F412962D913C911397281710
:101CB000390729F460932208DE0114964FC06F5F44
:101CC000DCCF20E03BE0283090F4329FE00111248B
:101CD000C95DD74F88819981892B39F48A819B818D
:101CE000892B19F42093220830C02F5FECCF20936A
:101CF0002208283051F500912008802F90E010E054
:101D000070E060E02BE0F22E683098F4F69EE0017F
:101D10001124C95DD74FCA85AC014C1B5109212F35
:101D200030E0241735071CF4762F102F1C1B6F5F33
:101D3000EBCF10931F0870932108709322088BE05B
:101D4000789FE0011124C95DD74F4D915D916D9150
:101D50007C91DE014D935D936D937D9386E00190C0
:101D60000D928A95E1F7809120088A87DF91CF91C3
:101D70001F910F91FF900895109222089BE080918F
:101D80002208883068F4989FF0011124E95DF74F2C
:101D900010821182128213828F5F80932208EFCF0C
:101DA00008958091E0099091E1090E979093E109DF
:101DB0008093E0098091750A9091760A2091930AA8
:101DC0003091940A822793272091710A3091720AE8
:101DD00082239323892BB9F48091770A9091780A12
:101DE0002091950A3091960A822793272091730AB1
:101DF0003091740A82239323892B29F46FE77AE0C8
:101E000083E99AE02FCF08958091E0099091E1094C
:101E10001092E1091092E0098A9708F408958091E0
:101E20008D0A90918E0A811521E0920729F0811583
:101E3000924009F475C0089520919F0A3091A00A3C
:101E40008091750A9091760A2817390709F083C0A6
:101E50002091A10A3091A20A8091770A9091780A84
:101E60002817390709F077C06FE87AE085E99AE02A
:101E7000F9DE80E092E090938E0A80938D0A86E0EE
:101E8000EFE8FAE0A9E9BAE001900D928A95E1F74E
:101E900086E0E9E1F8E0AFE8BAE001900D928A95BA
:101EA000E1F786E0E9E1F8E0AFE7BAE001900D92F2
:101EB0008A95E1F786E0E9E9FAE0A9E7BAE001905E
:101EC0000D928A95E1F78091950A9091960A9093E8
:101ED000A00A80939F0A8091970A9091980A909304
:101EE000A20A8093A10A8091750A9091760A909334
:101EF000960A8093950A8091770A9091780A909338
:101F0000980A8093970A88E096E09093860A8093D7
:101F1000850A8AE290E09093E1098093E0090895B0
:101F200020919F0A3091A00A8091750A9091760ABB
:101F30002817390781F42091A10A3091A20A8091D3
:101F4000770A9091780A2817390729F46FE87AE020
:101F500085E99AE087CE08952091970A3091980AF2
:101F60002F3F4FEF340751F48091990A90919A0ACC
:101F7000019621F486E0E7E6F2E0C6C08091750A9A
:101F80009091760A822793274091710A5091720AA4
:101F900084239523892B91F44091990A50919A0AB0
:101FA0008091770A9091780A842795276091730A27
:101FB0007091740A86239723892B89F080916D0A8A
:101FC00090916E0A909324088093230880916F0A61
:101FD0009091700A909326088093250808C030934A
:101FE00024082093230850932608409325088091C5
:101FF000230890912408209125083091260860E05C
:102000007BE0683090F4769FF0011124E95DF74F92
:10201000408151818417950731F4428153812417FF
:10202000350709F46DC06F5FECCF6093220868300C
:1020300009F068C046E050E06FEF70E089E79AE091
:102040000E94D63126E0E9E9FAE0DF01422F1D9235
:102050004A95E9F7E9E1F8E0AFE7BAE0822F0190AD
:102060000D928A95E1F7E9E1F8E0AFE8BAE0822F56
:1020700001900D928A95E1F78091230890912408B0
:102080009093A00A80939F0A80912508909126083A
:102090009093A20A8093A10A8091750A9091760A82
:1020A0009093960A8093950A8091770A9091780A86
:1020B0009093980A8093970A80E091E090938E0A1B
:1020C00080938D0A9093880A8093870A88E090E035
:1020D00090938A0A8093890A20938B0A84E08093E4
:1020E0008C0A88E096E09093860A8093850A8FEAAE
:1020F0009AE09093EA098093E9098AE290E01EC091
:1021000060932208349686E0A9E7BAE001900D9228
:102110008A95E1F786E0E9E1F8E0AFE7BAE00190FF
:102120000D928A95E1F788E090E09093860A80937B
:10213000850A8091E0099091E1090E969093E1095A
:102140008093E00908950F9300E020E040E060E014
:102150008FE798E00E9499290F9108950F9300E06E
:1021600020E040E060E085E898E00E9499290F9126
:102170000895DC01ED91FC91008CF18DE02D199515
:1021800091E08927089580E090E00895DC011C9695
:10219000ED91FC911D97309741F08181882311F0DA
:1021A00081E00895808184FDFBCF80E00895FC01EB
:1021B000448555854115510551F0FB012485358530
:1021C0002115310521F081E04217530709F080E025
:1021D0000895CF93DF931F92CDB7DEB7DC01ED9169
:1021E000FC910088F189E02D41E050E0BE016F5F75
:1021F0007F4F199597FD03C0898190E002C08FEF52
:102200009FEF0F90DF91CF910895CF93DF93EC0173
:10221000A9D3EC85FD85309749F0808186FD02C009
:1022200081E005C08181882311F0FACF80E0DF9141
:10223000CF910895CF92DF92EF92FF920F931F9369
:10224000CF93DF9300D01F92CDB7DEB77C018B0117
:102250006A01DC01ED91FC910288F389E02D19956A
:10226000F801228130E0322F22278381282B322768
:10227000232732273A832983248130E0322F2227F3
:102280008581282B3227232732273C832B83C601C5
:10229000D1DCBC01CE0101960E94CB078C010097D6
:1022A00019F480E090E016C0D80159968C918F7097
:1022B000C1F358D3D80159968C9159978F708330B8
:1022C00099F75C968D919C915D97F701958784872E
:1022D00081E090E00F900F900F900F90DF91CF91E1
:1022E0001F910F91FF90EF90DF90CF9008950F9383
:1022F0001F93CF93DF931F92CDB7DEB78C01DC0124
:10230000ED91FC910688F789E02D19958823A1F0BD
:10231000D8011C96ED91FC911D978181882361F075
:1023200021E030E0AE014F5F5F4F60E070E00E945F
:102330006504898190E002C08FEF9FEF0F90DF91DD
:10234000CF911F910F910895FC011382128248EEE4
:1023500053E060E070E0448355836683778381E7D0
:1023600092E091838083158614860895EF92FF9200
:102370000F931F93CF93DF937C01C0E0D0E000E088
:1023800010E0F701EC0FFD1F81810E94D002080FC1
:10239000191F2196C530D105A1F7C801DF91CF9152
:1023A0001F910F91FF90EF900895CF93DF93EC0171
:1023B000E881F9810688F789E02D1995882329F0AD
:1023C0008C859D85DF91CF91D1CF80E090E0DF912A
:1023D000CF910895CF93DF93EBE8F8E080E0908110
:1023E00091110AC08061DF018D9380E1ED011992A6
:1023F0008A95E9F7CF0106C08F5F7196843079F72F
:1024000080E090E0DF91CF910895FC01319681E06A
:102410009191911102C0815008958F5F8530C1F76D
:1024200084E008959F92AF92BF92CF92DF92EF9295
:10243000FF920F931F93CF93DF93EC016B017A010F
:102440008A015C0186E0A80EB11C8CD2209709F4A9
:1024500045C08881807609F041C0C501D6DF982E3D
:10246000FE01E80FF11D868181110CC080E092E031
:102470000E947906FE01E90DF11D8683882329F368
:102480001C861B86A701401B510B4C0D5D1D6B85E7
:102490007C859801FE01E90DF11D86810E9475047D
:1024A000081B190B2B853C85280F391F3C872B8770
:1024B000101611062CF484E0981639F29394D6CFB6
:1024C0000E94932B665F7F4F8F4F9F4F6D877E8754
:1024D0008F87988BC701801B910B02C08FEF9FEFF6
:1024E000DF91CF911F910F91FF90EF90DF90CF90F0
:1024F000BF90AF909F900895CF93DF931F92CDB779
:10250000DEB7698341E050E0BE016F5F7F4FFC01A1
:102510008485958587DF0F90DF91CF910895FC0129
:10252000848595857FCF0F931F93CF93DF938C0185
:10253000EC0189910E941707F801C80104962991BE
:102540002193E817F907D9F7F8011482DF91CF91A9
:102550001F910F9108959F92AF92BF92CF92DF92F9
:10256000EF92FF920F931F93CF93DF93EC015B01E8
:102570007A01E881F9810688F789E02D1995882389
:1025800009F455C0EC85FD858181882309F452C08A
:1025900087012EE1922EA701401B510B4A0D5B1DB6
:1025A000EC85FD85980160E070E081810E94650402
:1025B0006C01EC85FD8581810E94D002EC85FD8552
:1025C000C816D90649F50C191D09CF010196ABDFD4
:1025D000AC85BD852C91822F90E08F70989EF00184
:1025E000999EF00D1124E351F64F818D84FF05C0B3
:1025F000822F807611F420682C93EC85FD858181F3
:1026000081110FC0808186FF03C010821D861C8649
:10261000C701801B910B10C0B60181810E94390750
:1026200004C00115110509F0B6CFC70105C08FEF31
:102630009FEF02C080E090E0DF91CF911F910F915A
:10264000FF90EF90DF90CF90BF90AF909F90089554
:102650001F93CF93DF93EC0115E088810E94170749
:1026600019921150D1F7DF91CF911F910895CF9317
:10267000DF93EC018C859D85009779F0FC0120812A
:10268000222359F00196E4DFEC85FD85808186FFE9
:1026900002C0108202C0806280831D861C86DF918A
:1026A000CF9160C1CF93DF93EC01E881F981068877
:1026B000F789E02D1995882331F08C859D85019649
:1026C000DF91CF91C5CFDF91CF910895DF92EF9247
:1026D000FF920F931F93CF93DF93E091EB09F0915B
:1026E000EC09C48DD58D209779F48091E80986FF97
:1026F00043C070DEEC01009709F43EC0E091EB09A5
:10270000F091EC09958F848F8091E80981FF07C0D3
:102710008091E0099091E109892B09F041C08881FD
:1027200087FF0EC08F7788838091E809826080934D
:10273000E809E091EB09F091EC09818D8F7E818FA2
:102740008091E80984FF6BC0CE01069681DF898104
:10275000882309F467C0E091EB09F091EC098481CA
:1027600095819F838E83888180648883E091EB09C3
:10277000F091EC09158E148EE12CF12CB7018091AB
:10278000E9099091EA095ADAF092E109E092E00948
:10279000DF91CF911F910F91FF90EF90DF900895FF
:1027A0008881807609F0BBCFE12CF12C8E010E0DD3
:1027B0001F1DF801818181111EC08091E009909157
:1027C000E1090E947906F80181838823A1F0009134
:1027D000E0091091E1092091E9093091EA092957AE
:1027E0003A404091E30860E070E00E945205F4E056
:1027F000EF1295CF0CC02FEFE21AF20A35E0E31684
:10280000F104A1F68091E0088E7F8093E008E091CA
:10281000EB09F091EC09818D8061818F80CF87FF7A
:1028200003C092CF1882A2CF80FF03C0CE010696CC
:102830007ADE8091E8098C70D1F18E818823B9F11C
:102840009F8191110CC0EB84FC84E114F10409F424
:1028500093CFA70160E070E00E944C0706C00E9481
:10286000D0027C01009709F487CF8091E90990910B
:10287000EA0989579A408093E108F701E80FF11DB2
:10288000CF010E9479068093E208882309F476CF6D
:102890006091E10870E0870120E030E04E810E9405
:1028A00052058091E00882608093E00867CF8881BC
:1028B00085FF62CF8E8181110BC01882E091EB09F8
:1028C000F091EC09158E148E80E18093E80954CFC5
:1028D000E091EB09F091EC09818D8061818F4CCF03
:1028E0000F9300E020E040E060E08FEC98E00E9471
:1028F00099290F9108958091E00881FF11C02091DE
:10290000E10830E049E75AE060E070E08091E208D9
:102910000E9475048091E0088D7F8093E00814C0C8
:102920008091E0099091E1090E9479068093E20884
:102930008823B1F02091E0093091E10949E75AE09C
:1029400060E070E00E9475048091E2080E94CF046C
:102950008091E2080E9417071092E20881E0089532
:1029600080E00895CF92DF92EF92FF921F93CF9372
:10297000DF938091E308811104C00E94D703809304
:10298000E3088091E308882309F443C091E0909321
:10299000E0080E94D0029093E1098093E009892B1E
:1029A00061F122E630E049E75AE060E070E08091B2
:1029B000E3080E9465048091850A9091860A883018
:1029C000910581F48091E3088093E208EAD981E0DF
:1029D0000E944F088091E0099091E109892B69F0EC
:1029E000BBDA0AC08830964041F40EDA8091E009E3
:1029F0009091E109892B09F07EDF8091E30888231B
:102A000041F08091E00880FF04C00E94D60310923C
:102A1000E3080E94932B6B017C018091D608909172
:102A2000D708A091D808B091D908A7019601281B12
:102A3000390B4A0B5B0BDA01C90180959095A09583
:102A4000B0958827B7FD83959927AA27BB27182F0C
:102A5000CDEED9E0D093EC09C093EB09112311F02E
:102A600082E00FC0EC8DFD8D4585568567857089A8
:102A7000D701C601841B950BA60BB70BB7FD0BC086
:102A800083E00E944F082091E0093091E109232B57
:102A900011F062DA30DF6E969AE0C536D907D1F6CA
:102AA000112369F0AAEFCA0ED11CE11CF11CC092DF
:102AB000D608D092D708E092D808F092D908DF91D2
:102AC000CF911F91FF90EF90DF90CF900895CF931B
:102AD000DF93EC010E94932B66507F4F8F4F9F4FE7
:102AE0006093D6087093D7088093D8089093D9083C
:102AF000CE010E949905888180931908898180936D
:102B00001A088A8180931B088B8180931C088C8112
:102B100080931D088D8180931E080E94AB07DF9172
:102B2000CF912AC9CF93DF93FC01DA01E901228119
:102B300030E0322F22278381282B848190E0982F48
:102B400088274581842B3227232732273093760A22
:102B50002093750A9827892798279093780A80935D
:102B6000770A12962C91129730E0322F2227139673
:102B70008C911397282B14968C91149790E0982F92
:102B8000882715964C91842B3227232732273093A0
:102B90006E0A20936D0A9827892798279093700AC8
:102BA00080936F0A2A8130E0322F22278B81282BD5
:102BB0008C8190E0982F88274D81842B3227232702
:102BC00032273093720A2093710A98278927982711
:102BD0009093740A8093730AFB0182819381A4818C
:102BE000B5818093DC089093DD08A093DE08B09354
:102BF000DF08DF91CF910895AF92BF92CF92DF921D
:102C0000EF92FF920F931F93CF93DF93CDB7DEB771
:102C100068970FB6F894DEBF0FBECDBFCB016A0137
:102C2000590155DF2EE436E03A832983F70182818A
:102C30009381A481B5818B839C83AD83BE833887C8
:102C40002F83F80182819381A481B58189879A8736
:102C5000AB87BC873E872D87F50182819381A48154
:102C6000B5818F87988BA98BBA8B3C8B2B8BF60108
:102C700082819381A481B5818D8B9E8BAF8BB88F20
:102C80009E012F5F3F4FAE01495F5F4FBE01635F03
:102C90007F4FCE01439646DF68960FB6F894DEBFAD
:102CA0000FBECDBFDF91CF911F910F91FF90EF909D
:102CB000DF90CF90BF90AF9008956F927F928F92E8
:102CC0009F92AF92BF92CF92DF92EF92FF920F93BB
:102CD0001F93CF93DF93CDB7DEB76E970FB6F894FF
:102CE000DEBF0FBECDBF6C015B017A014901380127
:102CF00000E02FEF4FEF6FEFCE0149960E94992928
:102D00002EE436E03A8329838B8D9C8DAD8DBE8D6C
:102D10008B839C83AD83BE8338872F83F3018281AD
:102D20009381A481B58189879A87AB87BC873E87C9
:102D30002D87F40182819381A481B5818F87988B3F
:102D4000A98BBA8B3C8B2B8BF70142815381648119
:102D500075814D8B5E8B6F8B788FCE0101967C01D8
:102D60008E01095F1F4F9E01235F3F4FAE014D5EF5
:102D70005F4FB501C60140DF6E960FB6F894DEBF17
:102D80000FBECDBFDF91CF911F910F91FF90EF90BC
:102D9000DF90CF90BF90AF909F908F907F906F907B
:102DA0000895CF92DF92EF92FF920F931F93CF93EC
:102DB000DF93CDB7DEB768970FB6F894DEBF0FBECE
:102DC000CDBF6B017901DA0112964D915D916D9144
:102DD0007C9115974D8B5E8B6F8B788FAEE4B6E050
:102DE000BA83A98321E0288F0D891E892F89388D08
:102DF0000B831C832D833E83B887AF83F701028149
:102E000013812481358109871A872B873C87BE87E8
:102E1000AD874F87588B698B7A8B8E010F5F1F4F61
:102E20009E01295F3F4FAE01435F5F4FB60145DF13
:102E300068960FB6F894DEBF0FBECDBFDF91CF917D
:102E40001F910F91FF90EF90DF90CF9008950F9317
:102E50001F93CF93DF93CDB7DEB762970FB6F89489
:102E6000DEBF0FBECDBFDB01FA0142815381648119
:102E700075814F87588B698B7A8BEEE4F6E0FA8385
:102E8000E98321E02A8B0F85188929893A890B83E8
:102E90001C832D833E83F887EF8349875A876B878E
:102EA0007C879E012F5F3F4FAE01495F5F4FBD01A1
:102EB00078DF62960FB6F894DEBF0FBECDBFDF910C
:102EC000CF911F910F910895FB0141505109460F79
:102ED000571FE417F50778F4208130E0322F2227BE
:102EE0006181260F311D820F931F8217930708F40B
:102EF00001963296EECFE417F50751F4208130E0C9
:102F0000322F2227820F931F8217930708F401960E
:102F1000089544E150E067E87AE080E090E0D4DF93
:102F2000009711F00C941A0E8FEF9FEF08950F93F6
:102F30001F93CF93DF938091890A90E0982F882781
:102F400020918A0A820F911D8C010451110948E0D9
:102F500050E063E97AE00E97B7DFC091A70AC69503
:102F6000C695CC73D0E0AE016BE97AE0ADDFC01757
:102F7000D10750F498012C1B3D0BAE014E5D5F4F05
:102F80006091E2080E942006009731F0DF91CF9116
:102F90001F910F910C941A0E8FEF9FEFDF91CF913D
:102FA0001F910F910895B5CF0F9300E020E040E00E
:102FB00060E084EE98E00E9499298AED98E00F91F4
:102FC0000C948F290F9300E020E040E060E08AEE4F
:102FD00098E00E9499290F9108950F9300E020E056
:102FE00040E060E080EF98E00E9499290F910895F9
:102FF000FC0110820895CF92DF92EF92FF92CF935F
:10300000DF93EC016A017B018B859C85AD85BE85D4
:103010009A01AB01281B390B4A0B5B0BDA01C90182
:1030200049815A816B817C8184179507A607B70770
:10303000D8F08881813019F0823029F00CC0E98500
:10304000FA85199508C061E08885811160E068877C
:103050008F810E94DF2CCB86DC86ED86FE868F85F5
:1030600098890196988B8F878D819E8197FD06C0E8
:103070002F853889281739070CF01882DF91CF91F6
:10308000FF90EF90DF90CF9008950F931F93CF9311
:10309000DF93EC018C0106551F4FCE01A9DF61962D
:1030A000C017D107D1F7DF91CF911F910F910895EC
:1030B000CF92DF92EF92FF921F93CF93DF936A013B
:1030C0007B01EC011AE08881882321F0B701A60179
:1030D000CE0191DF115061961111F5CFDF91CF91A3
:1030E0001F91FF90EF90DF90CF900895CF93DF93E3
:1030F000EC010E94932BAB01BC01CE01DF91CF917B
:10310000D7CF20E0FC013081332331F02F5F41968F
:103110002A30C1F78FEF0895822F0895CF92DF9262
:10312000EF92FF920F931F93CF93DF9300D01F92E4
:10313000CDB7DEB76C01790149835A836B837C83F9
:10314000E0DF282F49815A816B817C818F3FD9F044
:1031500081E12802C00CD11C112481E0F60180839A
:10316000418352836383748316830583F286E186E9
:1031700029830E94932BF60163877487858796873E
:10318000108A17862981822F0F900F900F900F9031
:10319000DF91CF911F910F91FF90EF90DF90CF9033
:1031A00008950F931F930FEF1FEFB8DF1F910F913B
:1031B00008952DEB32E0FC01318320834EC4CF9380
:1031C000DF93EC01F6DFCE01DF91CF910C94482B19
:1031D000CF92DF92EF92FF920F931F93CF93DF93E3
:1031E000CDB7DEB72A970FB6F894DEBF0FBECDBFBE
:1031F0007C016B014ED48E010F5F1F4F22E044E033
:103200000E94202FC70151D4A801BC01C6010E9411
:103210004F23C7014ED4882339F04DE852E063EBC9
:1032200072E0C6010E944F232A960FB6F894DEBFC3
:103230000FBECDBFDF91CF911F910F91FF90EF9007
:10324000DF90CF9008950F93CF93DF93EC0100E0D0
:1032500060E070E00FD48DEB92E099838883DF917A
:10326000CF910F9108950F9300E020E040E060E0DF
:1032700086EF98E00E9499290F91089527EF32E098
:10328000FC0131832083E9C3CF93DF93EC01F6DFA8
:10329000CE01DF91CF910C94482BAF92BF92CF9289
:1032A000DF92EF92FF920F931F93CF93DF938C01E6
:1032B000EB01EFD36B017C01C801F7D35C0120E087
:1032C00030E0A901C701B6010E94A22D882319F0A0
:1032D00043EC52E002C04AEC52E0B501CE010E943C
:1032E0004F23C801E6D3882389F04FEC52E063EB0B
:1032F00072E0CE01DF91CF911F910F91FF90EF907F
:10330000DF90CF90BF90AF900C944F23DF91CF917F
:103310001F910F91FF90EF90DF90CF90BF90AF90F3
:1033200008950F93CF93DF93EC0100E062E070E02B
:10333000A1D387EF92E099838883DF91CF910F919A
:1033400008950F9300E020E040E060E08CEF98E00B
:103350000E9499290F91089524E033E0FC01318304
:103360002083089524E033E0FC01318320830C9412
:10337000482B0F931F93CF93DF931F92CDB7DEB7E8
:103380008C01FC016483828169830E94142D698110
:10339000262F30E08217930721F0F80182810E94E6
:1033A000DF2CF8018481882319F04DEF52E002C030
:1033B00042EC53E0F80165817681878190850F901A
:1033C000DF91CF911F910F910C944F23EF920F93A8
:1033D0001F93CF93DF93EC01862FE4E0F3E0F983B2
:1033E000E88318870F836A837B834C833E832D8316
:1033F000E98661E00E94A62C60E0CE01DF91CF91CA
:103400001F910F91EF90B5CF0F9300E020E040E0C7
:1034100060E082E099E00E9499290F91089521EDE2
:1034200033E0FC0131832083089521ED33E0FC017A
:10343000318320830C94482BFC0181ED93E0918330
:10344000808373836283468F82E090E095838483D8
:1034500040E050E068EC71E44087518762877387F1
:103460001486158681E490E0918B808B128A158AF0
:10347000118E168A178A108E0895EF92FF920F937D
:103480001F93CF93DF938A01E9016130710581F0C9
:1034900062307105C1F0672B11F58DE090E00E945C
:1034A000472B7C019E01A80160E070E0CCDE15C0D6
:1034B0008DE090E00E94472B7C019E01A80161E015
:1034C00070E04DD30AC08EE090E00E94472B7C0153
:1034D0009E01A80162E070E024DFC70102C080E025
:1034E00090E0DF91CF911F910F91FF90EF900895A1
:1034F0008F929F92AF92BF92CF92DF92EF92FF9204
:10350000CF93DF93EC018C819D81892B11F41A8A72
:1035100045C08E859F85009709F440C0BAD24B0103
:103520005C018E89882369F168897989882777FD0C
:103530008095982F0E94A82D6B017C0120E030E03F
:1035400040E450E4C501B4010E943D2D9B01AC0153
:10355000C701B6010E94A22D18161CF081E08A8BCB
:1035600010C020E030E040E450E4C501B4010E9406
:103570003E2D9B01AC01C701B6010E94582E87FF6A
:103580001A8A8E8D882341F048E053E063EB72E0A5
:103590008A819B810E944F238A8901C080E0DF914C
:1035A000CF91FF90EF90DF90CF90BF90AF909F9022
:1035B0008F9008958F929F92AF92BF92CF92DF9299
:1035C000EF92FF92CF93DF93EC018C819D81892B49
:1035D00011F41C863FC08E819F810097D9F159D28A
:1035E0004B015C018D89882341F1C884D984EA8428
:1035F000FB8420E030E040E05FE3C501B4010E94BD
:103600003E2D9B01AC01C701B6010E94582E87FDDB
:1036100003C081E08C8711C020E030E040E05FE330
:10362000C501B4010E943D2D9B01AC01C701B6014B
:103630000E94A22D18160CF01C868E8D882341F056
:1036400041E253E063EB72E08A819B810E944F2349
:103650008C8501C080E0DF91CF91FF90EF90DF90EB
:10366000CF90BF90AF909F908F9008958F929F9230
:10367000AF92BF92CF92DF92EF92FF92CF93DF9300
:10368000EC018C819D81892B11F41D863DC08E81BA
:103690009F810097C9F1FDD14B015C01898D882381
:1036A00039F1C884D984EA84FB8420E030E040E02A
:1036B0005FE3C501B4010E943D2D9B01AC01C70130
:1036C000B6010E94A22D18161CF081E08D8710C053
:1036D00020E030E040E05FE3C501B4010E943E2DF0
:1036E0009B01AC01C701B6010E94582E87FF1D86C1
:1036F0008E8D882339F041E253E063EB72E08A81DA
:103700009B81CDD78D8501C080E0DF91CF91FF9067
:10371000EF90DF90CF90BF90AF909F908F900895E3
:10372000CF93DF93EC01E4DECE0144DFCE019EDFD8
:10373000E881F9810480F581E02DCE01DF91CF9100
:103740001994CF93DF93EC018E819F81009789F0CC
:10375000A6D1CE012FDFCE0189DF8E819F81DC01D2
:10376000ED91FC916A817B810190F081E02D1995AA
:1037700007C04BE353E063EB72E08A819B818FD7F4
:103780008C819D81019749F0E881F9810480F58160
:10379000E02DCE01DF91CF911994DF91CF91089563
:1037A0000F931F93CF93DF93EC010E851F850115B7
:1037B0001105E9F0882777FD8095982F0E94A82DA4
:1037C000AB01BC01C8016BD1CE0192DE8E859F8515
:1037D000DC01ED91FC916A817B810190F081E02D0B
:1037E00019958E8D882351F04DE453E002C048E6D0
:1037F00053E063EB72E08A819B8151D78C819D817C
:10380000019759F0E881F9810480F581E02DCE011E
:10381000DF91CF911F910F911994DF91CF911F915B
:103820000F910895CF93DF93EC01488759876A87FA
:103830007B878E8D882339F049E753E063EB72E094
:103840008A819B812CD7CE01B5DECE010FDF8C8122
:103850009D81019749F0E881F9810480F581E02D8F
:10386000CE01DF91CF911994DF91CF910895CF933D
:10387000DF93EC01798B688B8E8D882339F04DE9CD
:1038800053E063EB72E08A819B8109D7CE0130DE81
:103890008C819D81019749F0E881F9810480F5814F
:1038A000E02DCE01DF91CF911994DF91CF91089552
:1038B0000F931F93CF93DF93EC018B016EEB73E0BB
:1038C000C8010E94DD31892B19F41D821C8214C0AD
:1038D00066EC73E0C8010E94DD31892B49F481E078
:1038E00090E09D838C83DF91CF911F910F9108957C
:1038F00082E090E09D838C83CE01DF91CF911F9178
:103900000F910ECFCF92DF92EF92FF920F931F9302
:10391000CF93DF938C016B01DC015C96ED90FC9002
:103920005D97C0E0D0E0CE15DF059CF4D8015A9633
:10393000ED91FC915B97CE01880F991FE80FF91F5D
:10394000B601808191810E94DD31892B21F0219681
:10395000EACF80E001C081E0DF91CF911F910F910C
:10396000FF90EF90DF90CF900895CF92DF92EF928B
:10397000FF920F931F93CF93DF937A016901EB01BD
:1039800000E010E00E151F053CF469917991C60125
:10399000EED60F5F1F4FF6CFDF91CF911F910F91A2
:1039A000FF90EF90DF90CF9008959B01FC01448D34
:1039B000558D628D738DD9CFCF93DF93EB01CA0103
:1039C0006DEF72E00E94DD31892B11F461E001C0DE
:1039D00060E0CE01DF91CF91CCCCFC01828193815C
:1039E0000895FC01868D0895FC01668F0895FC0101
:1039F000778766870895FC01778366830895FC01C5
:103A000085850895FC0184850895FC0182890895C7
:103A1000FC01818D0895FC01618F0895FC01858969
:103A20000895FC01658B0895FC0186890895FC01C9
:103A3000668B0895FC01738F628F0895FC01758F6A
:103A4000648F08950F9300E020E040E060E088E09C
:103A500099E00E9499290F9108952DED33E0FC0122
:103A60003183208308952DED33E0FC0131832083E1
:103A70000C94482B0F93FC018DED93E09183808390
:103A800073876287538342833583248304870F912E
:103A90000895FC0166817781808591850895FC01F8
:103AA00046835783608771870895FC0184819581DF
:103AB0000895FC01848508950F9300E020E040E024
:103AC00060E08EE099E00E9499290F91089520E12D
:103AD00034E0FC0131832083C0CFCF93DF93EC012E
:103AE000F6DFCE01DF91CF910C94482BCF92DF927D
:103AF000EF92FF920F931F93CF93DF93CDB7DEB773
:103B00002A970FB6F894DEBF0FBECDBF7C016B01C4
:103B1000C0DF8E010F5F1F4F22E045E00E94202F83
:103B2000C701C3DFA801BC01C601B9D5C701C1DF08
:103B3000882331F043EE53E063EB72E0C601AFD56A
:103B40002A960FB6F894DEBF0FBECDBFDF91CF919E
:103B50001F910F91FF90EF90DF90CF9008950F93FA
:103B6000CF93DF93EC0100E061E070E083DF80E160
:103B700094E099838883DF91CF910F9108950F93FB
:103B800000E020E040E060E084E199E00E949929B3
:103B90000F910895FC0113861586148627E030E006
:103BA000DF01A20FB31F13961C922115310519F0E6
:103BB00021503109F5CF08951F93CF93DF93EC0186
:103BC000162F60E0812F0E94A62C612F70E0FB0170
:103BD000E25AFE4FE491E883FB01EC55FE4FE4917D
:103BE000F0E0EE0FFF1FE651FE4F859194919A830E
:103BF0008983CE01DF91CF911F91CCCFCF92DF92FD
:103C0000EF92FF920F931F93CF93DF93EC018B0101
:103C10000E94932B6B017C0188819981DC01ED91DD
:103C2000FC910480F581E02D1995892B69F40E949F
:103C3000932B6C197D098E099F0968397A43810598
:103C4000910550F380E00CC088819981DC01ED91F1
:103C5000FC910680F781E02D1995F801808381E0C1
:103C6000DF91CF911F910F91FF90EF90DF90CF9058
:103C700008950F931F93CF93DF93EA010881198171
:103C8000600F711FBBDF882331F00F5F1F4F198357
:103C9000088381E001C080E0DF91CF911F910F91F7
:103CA00008953F924F925F926F927F928F929F9270
:103CB000AF92BF92CF92DF92EF92FF920F931F933A
:103CC000CF93DF9300D0CDB7DEB78C016B011A82A2
:103CD00019825C0182E0A80EB11CAE014F5F5F4FFC
:103CE000B501C801C6DF811103C080E090E0B9C012
:103CF000D80112969C901B82E12CF12C412C512C66
:103D000032014394BE016D5F7F4FC80177DF882386
:103D100061F329813A81C90101969A8389836B8174
:103D2000F801E20FF31F6283462F4F7750E0449D66
:103D30009001459D300D549D300D1124E20EF31E6F
:103D400097E0440C551C661C771C9A95D1F767FDCB
:103D5000D9CF292D207F33243394203309F0312CFF
:103D60008150F6018083332031F1AE014F5F5F4F08
:103D7000B501C8017EDF882309F4B7CFAE014F5FDC
:103D80005F4FB501C80175DF882309F4AECFD601B6
:103D90008C91F801E80FF11D4380512C542C4424E0
:103DA0008481480E511CF801828181FF08C0F2E035
:103DB0004F0E511C04C080E0412C512C01C082E008
:103DC000A82EB12C612C712C480189E9880E911C18
:103DD000C3018A0D9B1D8E159F0598F5BE016D5F71
:103DE0007F4FC8010BDF882309F47FCFD4018D9169
:103DF0009C910097A9F0332099F029813A812250B3
:103E00003109F6014081241B31094216530640F462
:103E1000DC01ED91FC910190F081E02D6B81199511
:103E200089819A818038910528F42B81F801E80F67
:103E3000F91F228301969A838983BFEF6B1A7B0A4D
:103E4000C7CFF801E756FF4F80819181892B39F464
:103E500089819A818138910510F01A8219828981AD
:103E60009A810F900F900F90DF91CF911F910F913A
:103E7000FF90EF90DF90CF90BF90AF909F908F908A
:103E80007F906F905F904F903F900895AF92BF9258
:103E9000CF92DF92EF92FF920F931F93CF93DF9316
:103EA00000D01F92CDB7DEB77C01F90180E09E2FD4
:103EB0009F77EE0FEF2FEE1FFF0BF195309709F074
:103EC0009068A1E0B0E0AC0FBD1FA80FB11D9C939E
:103ED0008F5F309761F7A82EB12CDA01AA19BB09C0
:103EE00014966C93BE016F5F7F4F80E090E04A199B
:103EF0005B098A159B0554F4FB01D190BF018A012F
:103F0000080F191FF801D5820196F3CFF7018081C0
:103F1000918189010F5F1F4F0A0D1B1DFC0120813C
:103F20003181F90122813381A801BD01F90119957F
:103F30006C010E94932BF701EC57FF4F6083718354
:103F40008283938381E0C016D10609F080E00F9050
:103F50000F900F900F90DF91CF911F910F91FF90D5
:103F6000EF90DF90CF90BF90AF900895C901029677
:103F7000DB01FD01E61BF70B2D91222331F0FA0145
:103F8000E80FF91F20830196F4CF9C012E1B3F0BF5
:103F9000240F351FD9011297FC931196EC930895C5
:103FA000CF93DF93EC0188819981009731F1DC0197
:103FB000ED91FC910488F589E02D199581111FC0C0
:103FC000FE01E556FF4F80819181892BB1F48DEF81
:103FD0009FEF9183808388819981DC01ED91FC9131
:103FE0000284F385E02D199588819981DC01ED919A
:103FF000FC910288F389E02D199580E001C081E0F1
:10400000DF91CF9108952F923F924F925F926F92DE
:104010007F928F929F92AF92BF92CF92EF92FF9238
:104020000F931F93CF93DF93CDB7DEB72E970FB6C5
:10403000F894DEBF0FBECDBF4C011B012A01390130
:10404000AFDF811114C1F401EB56FF4F6081718124
:10405000D4018D919C911197A956BF4FFC012081ED
:1040600031816115710541F04D915C91D9011E9628
:10407000ED91FC911F971FC0F9010484F585E02D97
:10408000FE87ED87ED91FC912EE436E03A8329839B
:10409000D401A157BF4F12964D915D916D917C91C6
:1040A00015974B835C836D837E83AF01BE016F5F89
:1040B0007F4FED85FE851995F4018130910509F05A
:1040C000CEC0EE57FF4F9183808389E0E5E1F2E0B7
:1040D000DE01119601900D928A95E1F7FE0131966D
:1040E00080E090E02191D401A80FB91F17962C937E
:1040F000019689309105B1F70115110559F0F0E2EB
:10410000CF9EC0011124866028E0E29E7001112438
:104110008E2901C082E04114510431F06114710410
:1041200011F4806801C0806CD40150968C93509734
:1041300051961C9251978FE052968C937401B2E085
:10414000EB0EF11C21E130E0A701B101C4010EDF4B
:104150000115110551F09C01A701B801C40106DF4A
:104160009C01A701B501C40101DF4114510469F0AC
:104170009C01A701B201C401F9DE6114710429F0A8
:104180009C01A701B301C401F1DE9C012550310956
:10419000A70160E1C4017ADE0E94932BF401EC5781
:1041A000FF4F6083718382839383840108571F4F7D
:1041B000F8016083718382839383F401808191810C
:1041C000DC01ED91FC910480F581E02D1995892B9E
:1041D000C1F40E94932BD8014D905D906D907C901E
:1041E000641975098609970968397A43810591052B
:1041F00020F3F401E556FF4F8CEF9FEF918380830E
:1042000023C0BE01665F7F4FC4014BDD0497E1F41C
:10421000F4018581940125563F4F7901811110C029
:104220000E94932BD8016D937D938D939C9313974C
:10423000F401E457FF4F1082F7011182108217C07A
:1042400090E0D9018D939C93F40180819181DC01F0
:10425000ED91FC910288F389E02D199506C0E55691
:10426000FF4F8EEF9FEF9183808380E001C081E05C
:104270002E960FB6F894DEBF0FBECDBFDF91CF9163
:104280001F910F91FF90EF90CF90BF90AF909F90B4
:104290008F907F906F905F904F903F902F900895F8
:1042A000AF92BF92CF92EF920F931F93A12CB12C9C
:1042B000C12CE12C00E010E0A6DE1F910F91EF90E1
:1042C000CF90BF90AF9008952F923F924F925F9200
:1042D0006F927F928F929F92AF92BF92CF92DF9216
:1042E000EF92FF920F931F93CF93DF9300D01F9213
:1042F000CDB7DEB78C014DB65EB652DE882309F429
:1043000041C10E94932B6B017C01580128E8A20E49
:10431000B11CF50180819181A281B381A701960131
:10432000281B390B4A0B5B0BDA01C90189399A4307
:10433000A105B10590F4349780819181A281B38168
:10434000A7019601281B390B4A0B5B0BDA01C90147
:1043500089399A43A105B105C0F148014CE8840EA2
:10436000911CD4012C91F80180819181222371F05C
:10437000E556FF4F2CEF3FEF31832083DC01ED91B9
:10438000FC910288F389E02D1995FCC020ECF8011E
:1043900022831382DC01ED91FC910280F381E02DF8
:1043A00042E050E0B8016E5F7F4F1995F801EC577D
:1043B000FF4FC082D182E282F382F501C082D182B6
:1043C000E282F38281E0D4018C93F80180819181B3
:1043D000DC01ED91FC910480F581E02D1995892B8C
:1043E00009F4D2C0BE016F5F7F4FC8015ADCFC01E7
:1043F000009709F4C9C0D501CD92DD92ED92FC92EF
:104400001397D80112968C91807F803309F09FC05A
:104410004801BDE88B0E911CD4018D919C91892B94
:1044200009F4B2C02DB63EB6698170E0D801A60F7E
:10443000B71F13964C91139750E0542F44271496AE
:104440008C911497480F511DCA0101962DB73EB7A4
:10445000281B390B0FB6F8943EBF0FBE2DBF8DB78A
:104460009EB701965C0120E030E0BC83AB8324174B
:10447000350769F06B807C80620E731ED301159640
:104480006C90D5016D925D012F5F3F4FF0CFDC0145
:10449000A20FB31F1C92D8011296BC91B670BA83BA
:1044A000B230E9F53901660E771ED801A60DB71DA9
:1044B0001596AC901597B12CBA2CAA2416964C914F
:1044C000A40EB11C4BEF5FEF461B570B421B530B67
:1044D0004E0F5F1FB301695F7F4F600F711FD401E3
:1044E000ED91FC91199580E4F80182837A807382C2
:1044F000B482A582D8018D919D91BD01DC01ED9121
:10450000FC910280F381E02D44E050E01995F80120
:10451000EC57FF4FC082D182E282F38212C04DEF8E
:104520005FEF461B570B421B530B4E0F5F1F620F73
:10453000731F6B5F7F4F600F711FD401ED91FC9172
:1045400019950FB6F8943EBE0FBE2DBE1DC0803C1F
:1045500091F480EDF80182831382D8018D919D91B1
:10456000BD01DC01ED91FC910280F381E02D42E080
:1045700050E0199509C0803D39F4F801E457FF4F28
:10458000108202C080E001C081E00FB6F8945EBEE8
:104590000FBE4DBE0F900F900F900F90DF91CF91F7
:1045A0001F910F91FF90EF90DF90CF90BF90AF9051
:1045B0009F908F907F906F905F904F903F902F9043
:1045C00008958F929F92BF92CF92DF92EF92FF92C7
:1045D0000F931F93CF93DF931F921F92CDB7DEB738
:1045E0004C01B42E152F790169837A83D9DC698156
:1045F0007A81882309F444C0FB0101900020E9F787
:104600003197E61BF70BC70107968E0F9F1F813866
:104610009105B0F5640182E0C80ED11C25E030E0C0
:10462000A601C401A3DCEB2DF12F60E070E0940142
:10463000280F391F6E157F0549F04191D901A60F4A
:10464000B71F12964C936F5F7F4FF4CF011102C0DA
:1046500060E301C061E3970125503109280F391F3C
:10466000A601C4010F900F90DF91CF911F910F9180
:10467000FF90EF90DF90CF90BF909F908F9006CCEF
:1046800080E00F900F90DF91CF911F910F91FF90DD
:10469000EF90DF90CF90BF909F908F9008950F93F1
:1046A000FA0101900020E9F79F0121503109241BF4
:1046B000350B00E086DF0F910895CF92DF92FF92D5
:1046C0000F931F93CF93DF931F921F92CDB7DEB747
:1046D0006C01F42E81E0841708F43EC0FB010190C8
:1046E0000020E9F7E61BF70B3896E138F105A0F555
:1046F000C60169837A8354DC69817A81882361F1F8
:10470000F601EE57FF4F80819181019611F481E00F
:1047100090E09183808380819181F60197838087E7
:1047200086010E5F1F4F27E030E0A801C6011EDCA6
:10473000F601E80FF91FF2829C0124503109A8010B
:1047400062E8C6010F900F90DF91CF911F910F91FA
:10475000FF90DF90CF909ACB80E00F900F90DF9189
:10476000CF911F910F91FF90DF90CF90089540E07F
:10477000A4CFCF92DF92EF92FF920F931F93CF932C
:10478000DF93CDB7DEB72C970FB6F894DEBF0FBE20
:10479000CDBF7C01FB016A010381228141816081DF
:1047A000CE010796C6D509851A852B853C85F7016C
:1047B000E157FF4F02831383248335833896D182D8
:1047C000C082329711821082C7012C960FB6F894DE
:1047D000DEBF0FBECDBFDF91CF911F910F91FF9034
:1047E000EF90DF90CF900895CF92DF92EF92FF92FB
:1047F0000F931F93CF93DF9300D01F92CDB7DEB7F7
:104800006C01790181579F4F4B835C8369837A8365
:1048100086D5F601E556FF4F8FEF9FEF918380839A
:104820004B815C8169817A81C601A3DFF601E35780
:10483000FF4FF182E082F60111830083E756FF4FBC
:10484000118210820F900F900F900F90DF91CF91F7
:104850001F910F91FF90EF90DF90CF9008950F93ED
:1048600000E020E040E060E08AE199E062D50F914D
:1048700008950895FC0189E394E2928B818B7683FD
:1048800065831482108289E0818381E0828383833F
:104890000895DF92EF92FF920F931F93CF93DF93D0
:1048A00000D000D0CDB7DEB77C018B01809120090C
:1048B000909121098617970721F070932109609341
:1048C0002009C7016DDBD82E81111EC020E233E024
:1048D000A90166E174E0C701E3DC8823A9F066E181
:1048E00074E0CE01019692D646E154E0BA01C701C8
:1048F000D6DE0115110519F0B701C80140D2CE016D
:1049000001961DD6DD24D3948D2D26960FB6F894EE
:10491000DEBF0FBECDBFDF91CF911F910F91FF90F2
:10492000EF90DF900895AB01BC0180912009909138
:1049300021092AC2CF93DF93CDB7DEB72A970FB6EE
:10494000F894DEBF0FBECDBFDB01FE013196BF0183
:104950009F01261B370B4217530718F02D91219307
:10496000F7CFFB01E40FF51F1082DDDF2A960FB6AB
:10497000F894DEBF0FBECDBFDF91CF9108950F93A6
:1049800000E020E040E060E082E299E0D2D40F91C4
:104990000895CF93DF93EC0185EA95E099838883AE
:1049A0008F8D98A1009739F0DC01ED91FC91028088
:1049B000F381E02D199589A19AA1009739F0DC01C6
:1049C000ED91FC910280F381E02D19958BA19CA1C2
:1049D000009739F0DC01ED91FC910280F381E02D2C
:1049E0001995CE01DF91CF910C940F1ACF93DF93DD
:1049F000EC01CFDFCE01DF91CF914AC6CF93DF9399
:104A0000EC010CD8882329F0CE010E94021D8111EF
:104A100007C060E08F8D98A10E94B91960E006C0C0
:104A200061E08F8D98A10E94B91961E089A19AA1D6
:104A30000E94B919CE010E94081D882339F0CE01C9
:104A40000E94FF1C882311F061E001C060E08BA18F
:104A50009CA10E94B919CE010E94141D882339F02F
:104A6000CE010E94051D882311F061E001C060E0C5
:104A70008DA19EA1DF91CF910C94B919EF92FF9275
:104A80000F931F93CF93DF93CDB7DEB72C970FB65D
:104A9000F894DEBF0FBECDBF8C017A01CE01079620
:104AA000B5D5B701CE010196B1D569E274E0CE016A
:104AB0000796C1D5882329F0B701C8010E94581C68
:104AC00057C061E474E0CE010796B5D5882349F05C
:104AD000C7010E94A531AB01BC01C8010E94121C94
:104AE00047C068E674E0CE010796A5D5882321F07B
:104AF000F801678D70A10AC064E874E0CE010796E2
:104B00009AD5882341F0F80161A172A1A701C801DB
:104B10000E94DC1C2DC060EA74E0CE0107968BD5A4
:104B2000882321F0F80163A174A1F0CF6FEB74E04A
:104B3000CE01079680D5882321F0F80165A176A1E2
:104B4000E5CF66ED74E0CE01079675D5882341F078
:104B5000C7010E94A831BC01C8010E94371C08C0CF
:104B6000C8010E94ED1C4AEF54E063EB72E097DD50
:104B7000CE010196E4D4CE010796E1D42C960FB66F
:104B8000F894DEBF0FBECDBFDF91CF911F910F9183
:104B9000FF90EF900895AF92BF92CF92DF92EF9285
:104BA0000F931F93CF93DF93EC016B01B42E40E082
:104BB0000E941C1A85EA95E0998388838EE0EEE1D5
:104BC000F2E0DE01979601900D928A95E1F76B2D48
:104BD000CE010E94F41CCE010E94F11C882331F00A
:104BE00042E155E063EB72E0C60159DD8AE090E0F6
:104BF0004ED55C01E12C86012BE235E040E06EE110
:104C000070E00E94E619B8A2AF8E8AE090E03FD52E
:104C10005C0129E435E040E06FE170E00E94E619B4
:104C2000BAA2A9A261E0CE010E94111D8AE090E023
:104C30002ED55C0127E635E040E069E270E00E9495
:104C4000E619BCA2ABA261E0CE010E940B1D8AE076
:104C500090E01DD55C0128E835E040E06AE270E0B4
:104C60000E94E619BEA2ADA261E0CE010E94171D0E
:104C70002CE232E0A60161E070E0CE010E943D1A14
:104C8000BC01CE010E94FB1C2BE432E0A60160E0D7
:104C900070E0CE010E943D1ABC01CE010E94F71CBB
:104CA000BE01695D7F4FCE010E941A1D67E070E072
:104CB000CE010E941E1DB601CE01DF91CF911F9142
:104CC0000F91EF90DF90CF90BF90AF900C94D51CD8
:104CD0000F9300E020E040E060E088E299E029D313
:104CE0000F91089526E336E0DC0111963C932E9354
:104CF00014968D919C911597009739F0DC01ED91F8
:104D0000FC910280F381E02D19940895CF93DF93F5
:104D1000EC01E8DFCE01DF91CF91BAC4DF92EF92D0
:104D2000FF920F931F93CF93DF93EC018B01D42E4F
:104D300086E396E0998388834E837B836A8385E349
:104D400090E0A5D47C014E81B80125DFFD82EC8284
:104D5000DD2069F04DEA55E063EB72E0C801DF91B8
:104D6000CF911F910F91FF90EF90DF9098CCDF9142
:104D7000CF911F910F91FF90EF90DF900895FC016C
:104D8000848195810C94D51CEF92FF920F931F9311
:104D9000CF93DF931F921F92CDB7DEB77C018B01BB
:104DA000DC0114968D919C91159749835A830E943A
:104DB000821C49815A81882399F0F7018481958169
:104DC000DC01ED91FC910680F781E02DB8010F9098
:104DD0000F90DF91CF911F910F91FF90EF90199459
:104DE0000F900F90DF91CF911F910F91FF90EF9057
:104DF0000895EF92FF920F931F93CF93DF93EC01EF
:104E00007B018A016CE272E0C7010E94DD31892BCF
:104E100091F4B801882777FD8095982F99D6AB013A
:104E2000BC018C819D81DF91CF911F910F91FF90EB
:104E3000EF900C94A11B6BE472E0C7010E94DD317E
:104E4000892B59F4B8018C819D81DF91CF911F91FD
:104E50000F91FF90EF900C94D01BDF91CF911F9199
:104E60000F91FF90EF9008950F9300E020E040E055
:104E700060E08EE299E05DD20F910895FC01818D92
:104E8000228D90E0805C9F4F821B91098F73992740
:104E90000895FC01918D828D981731F0828DE80F75
:104EA000F11D858D90E008958FEF9FEF0895FC012F
:104EB000918D828D981761F0828DDF01A80FB11D51
:104EC0005D968C91928D9F5F9F73928F90E0089575
:104ED0008FEF9FEF08958CE099E2892B39F080E005
:104EE00090E0892B19F098D1811125C080E090E0E5
:104EF000892B41F080E090E0892B21F00E94000096
:104F000081111CC080E090E0892B41F080E090E0AE
:104F1000892B21F00E940000811113C080E090E0F5
:104F2000892BA1F080E090E0892B81F00E940000A5
:104F300081110AC008950E940000D8CF0E9400008D
:104F4000E1CF0E940000EACF0C9400000895FC011C
:104F5000848DDF01A80FB11DA35ABF4F2C91848D02
:104F600090E001968F739927848FA689B7892C9337
:104F7000A089B1898C9180648C93938D848D9813D2
:104F800006C00288F389E02D80818F7D808308959B
:104F9000CF93DF93EC01888D8823C1F0EA89FB89E8
:104FA000808185FD05C0A889B9898C9186FD0EC0D8
:104FB0000FB607FCF5CF808185FFF2CFA889B989AC
:104FC0008C9185FFEDCFCE01C2DFE8CFDF91CF918D
:104FD0000895CF92DF92FF920F931F93CF93DF93A9
:104FE0001F92CDB7DEB76C01DC015B969C915B979D
:104FF0005C968C915C97981307C05096ED91FC914C
:105000005197808185FD31C0F601038D10E00F5F5F
:105010001F4F0F731127F02EF601848DF81210C068
:105020000FB607FCF9CFD6015096ED91FC91519740
:10503000808185FFF1CFC601698389DF6981ECCF6B
:10504000838DE80FF11DE35AFF4F6083D6015B9615
:105050000C935B975296ED91FC91539780818062FF
:10506000808381E058968C930DC0D6015696ED91C1
:10507000FC91579760835096ED91FC9151978081F8
:105080008064808381E090E00F90DF91CF911F9149
:105090000F91FF90DF90CF900895BF92CF92DF9253
:1050A000EF92FF92CF93DF93EC016A017B01B22E66
:1050B000E889F98982E08083411581EE580761050E
:1050C000710599F060E079E08DE390E0A701960129
:1050D00056D62150310941095109569547953795C2
:1050E0002795211580E1380790F0E889F989108229
:1050F00060E874E88EE190E0A701960140D6215067
:105100003109410951095695479537952795EC8501
:10511000FD853083EE85FF852083188EEC89FD891F
:10512000B082EA89FB89808180618083EA89FB897A
:10513000808188608083EA89FB89808180688083A0
:10514000EA89FB8980818F7D8083DF91CF91FF90F9
:10515000EF90DF90CF90BF9008951F920F920FB6FF
:105160000F9211240BB60F922F938F939F93EF936F
:10517000FF93E0914409F09145098081E0914A094B
:10518000F0914B0982FD12C0908180914D098F5F93
:105190008F7320914E09821751F0E0914D09F0E094
:1051A000EC5CF64F958F80934D0901C08081FF9193
:1051B000EF919F918F912F910F900BBE0F900FBE8B
:1051C0000F901F9018951F920F920FB60F921124F7
:1051D0000BB60F922F933F934F935F936F937F93F1
:1051E0008F939F93AF93BF93EF93FF9384E399E0E3
:1051F000AEDEFF91EF91BF91AF919F918F917F9123
:105200006F915F914F913F912F910F900BBE0F9037
:105210000FBE0F901F90189584E399E02FDE21E0D8
:10522000892B09F420E0822F0895109237091092FB
:10523000360988EE93E0A0E0B0E0809338099093BF
:105240003909A0933A09B0933B098EE396E0909315
:1052500035098093340985EC90E09093410980935F
:10526000400984EC90E0909343098093420980ECDC
:1052700090E0909345098093440981EC90E09093ED
:1052800047098093460982EC90E090934909809306
:10529000480986EC90E090934B0980934A0910925C
:1052A0004D0910924E0910924F091092500908951D
:1052B000AF92BF92CF92DF92EF92FF920F931F9324
:1052C000CF93DF936C017B01C0E0D0E000E010E001
:1052D000F601EC0FFD1F4AE050E06281C701ECD0FF
:1052E0005C016EE2C7017ED08A0D9B1D080F191F5D
:1052F0002196C330D10561F74AE050E0F60165819F
:10530000C701DAD0800F911FDF91CF911F910F91CC
:10531000FF90EF90DF90CF90BF90AF9008952EE474
:1053200036E0FC01318320831282138214821582BD
:1053300008950F93FC018EE496E09183808362834D
:105340004383248305830F9108958EE496E0909320
:10535000D2098093D1091092D3091092D4091092E6
:10536000D5091092D6090895CF92DF92EF92FF925D
:105370000F931F93CF93DF936C017A01EB01E60E3D
:10538000F71E00E010E0CE15DF0561F06991D6014F
:10539000ED91FC910190F081E02DC6011995080F67
:1053A000191FF1CFC801DF91CF911F910F91FF908D
:1053B000EF90DF90CF9008956115710581F0DB01CA
:1053C0000D900020E9F7AD0141505109461B570BE4
:1053D000DC01ED91FC910280F381E02D199480E0D5
:1053E00090E00895DC01ED91FC910190F081E02DB9
:1053F00019948F929F92AF92BF92CF92DF92EF92C9
:10540000FF920F931F93CF93DF93CDB7DEB7A19792
:105410000FB6F894DEBF0FBECDBF7C01C42EE52FC2
:10542000CB01D22E19A221E02D1510F02AE0D22EA8
:105430008E010F5D1F4F8D2C912CA12CB12C6C2D4A
:105440007E2FA50194019BD48C2DD29E801911240E
:10545000015011098A3014F4805D01C0895CF801A3
:105460008083211531054105510521F0C22EE32F1E
:10547000CA01E5CFB801C7019FDFA1960FB6F89426
:10548000DEBF0FBECDBFDF91CF911F910F91FF9077
:10549000EF90DF90CF90BF90AF909F908F90089546
:1054A0002115310541F4DC01ED91FC910190F08171
:1054B000E02D642F19949DCF9A01462F50E060E0B3
:1054C00070E0EECFCF93DF9300D01F92CDB7DEB761
:1054D0009B01AC01611571058105910559F0698346
:1054E0003A834B835C833DD629813A814B815C8131
:1054F00068D403C060E070E0CB010F900F900F9074
:105500000F90DF91CF910895CF92DF92EF92FF92AB
:105510006B017C0162177307840795075CF4CA016D
:10552000B9016C197D098E099F09CCDF6C0D7D1DB9
:105530008E1D9F1DFF90EF90DF90CF900895FC018E
:105540008081918135C5CF93DF93EC01888199816A
:10555000009709F02DD5198218821D821C821B82AA
:105560001A82DF91CF9108950F931F93CF93DF930A
:10557000EC018B016F5F7F4F88819981FED5009789
:1055800031F0998388831B830A8381E001C080E026
:10559000DF91CF911F910F910895CF93DF93EC018D
:1055A00088819981892B29F08A819B8186179707A9
:1055B00058F4CE01D9DF882341F08C819D81892B5D
:1055C00019F4E881F981108281E0DF91CF9108958B
:1055D000EF92FF920F931F93CF93DF93EC017B0128
:1055E0008A01BA01DADF811103C0CE01ACDF06C047
:1055F0001D830C83B70188819981E8D6CE01DF91A4
:10560000CF911F910F91FF90EF900895FC011182AF
:10561000108213821282158214826115710551F075
:10562000FB0101900020E9F7AF0141505109461BF1
:10563000570BCECF0895FC0124813581232B31F403
:1056400021E06115710599F0FB0108C0FC01808122
:1056500091816115710531F421E0FC01808188237D
:1056600031F004C0AAD621E0892B09F020E0822F76
:10567000089567D60895B5D0FDDF0E942202CBE6DB
:10568000D7E20E947C022097E1F325DCFACFF8C331
:105690008FC41F920F920FB60F9211242F933F9336
:1056A0008F939F93AF93BF938091D8099091D9091D
:1056B000A091DA09B091DB093091D70923E0230FDB
:1056C0002D3720F40196A11DB11D05C026E8230F3A
:1056D0000296A11DB11D2093D7098093D8099093FC
:1056E000D909A093DA09B093DB098091DC09909184
:1056F000DD09A091DE09B091DF090196A11DB11D60
:105700008093DC099093DD09A093DE09B093DF0953
:10571000BF91AF919F918F913F912F910F900FBEAD
:105720000F901F9018952FB7F8946091D809709139
:10573000D9098091DA099091DB092FBF08953FB70D
:10574000F8948091DC099091DD09A091DE09B09177
:10575000DF0926B5A89B05C02F3F19F00196A11DB2
:10576000B11D3FBF6627782F892F9A2F620F711DB9
:10577000811D911D42E0660F771F881F991F4A9572
:10578000D1F70895CF92DF92EF92FF92CF93DF93FC
:105790006B017C01D4DFEB01C114D104E104F104FD
:1057A00079F06AD1CCDF6C1B7D0B683E7340A0F3AF
:1057B00081E0C81AD108E108F108C851DC4FECCFEC
:1057C000DF91CF91FF90EF90DF90CF9008950197F8
:1057D00039F0880F991F880F991F02970197F1F7E9
:1057E0000895789484B5826084BD84B5816084BD59
:1057F00085B5826085BD85B5816085BDEEE6F0E04A
:10580000808181608083E1E8F0E0108280818260A5
:105810008083808181608083E0E8F0E08081816026
:105820008083E1EBF0E0808184608083E0EBF0E056
:10583000808181608083E1E9F0E080818260808303
:10584000808181608083E0E9F0E0808181608083F5
:10585000E1EAF0E0808182608083808181608083E2
:10586000E0EAF0E0808181608083E1E2F1E0808124
:1058700082608083808181608083E0E2F1E08081CA
:1058800081608083EAE7F0E08081846080838081AA
:105890008260808380818160808380818068808352
:1058A0001092C100089590E0FC013197E231F105BA
:1058B00008F04BC0E658FF4FA0C2809180008F7760
:1058C00003C0809180008F7D809380000895809137
:1058D0008000877FF9CF84B58F7702C084B58F7D34
:1058E00084BD08958091B0008F7703C08091B0008F
:1058F0008F7D8093B0000895809190008F7707C0CE
:10590000809190008F7D03C080919000877F80936D
:10591000900008958091A0008F7707C08091A0002B
:105920008F7D03C08091A000877F8093A0000895A1
:10593000809120018F7707C0809120018F7D03C067
:1059400080912001877F809320010895CF93DF937A
:1059500090E0FC01E25AFE4F2491FC01EC55FE4F11
:105960008491882349F190E0880F991FFC01E25E41
:10597000FD4FA591B4918C5F9D4FFC01C591D491D1
:105980009FB7611108C0F8948C91209582238C9365
:10599000888182230AC0623051F4F8948C91322FAE
:1059A000309583238C938881822B888304C0F8945C
:1059B0008C91822B8C939FBFDF91CF9108950F9391
:1059C0001F93CF93DF931F92CDB7DEB7282F30E020
:1059D000F901E85EFE4F8491F901E25AFE4F1491FD
:1059E000F901EC55FE4F04910023C1F0882319F012
:1059F000698359DF6981E02FF0E0EE0FFF1FEC5F54
:105A0000FD4FA591B4919FB7F8948C91611103C09B
:105A10001095812301C0812B8C939FBF0F90DF9144
:105A2000CF911F910F910895CF93DF93282F30E0EE
:105A3000F901E85EFE4F8491F901E25AFE4FD491DC
:105A4000F901EC55FE4FC491CC2389F081112BDF75
:105A5000EC2FF0E0EE0FFF1FE651FE4FA591B49141
:105A60002C912D2381E090E021F480E002C080E0C1
:105A700090E0DF91CF91089508955058BB27AA2751
:105A80000ED0DCC0CDD030F0D2D020F031F49F3F2A
:105A900011F41EF4C2C00EF4E095E7FBB8C0E92F84
:105AA000DED080F3BA17620773078407950718F0F2
:105AB00071F49EF5F6C00EF4E0950B2EBA2FA02DD2
:105AC0000B01B90190010C01CA01A0011124FF27AB
:105AD000591B99F0593F50F4503E68F11A16F040A6
