:10000000D0C10000FFC10000FDC10000FBC1000025
:10001000F9C10000F7C10000F5C10000F3C1000004
:10002000F1C10000EFC10000EDC10000EBC1000014
:10003000E9C10000E7C10000E5C10000E3C1000024
:10004000E1C10000DFC10000DDC10000DBC1000034
:10005000D9C10000D7C10000D5C100000C94F33213
:10006000D1C100000C9457300C948D30CBC10000EE
:10007000C9C10000C7C10000C5C10000C3C1000064
:10008000C1C10000BFC10000BDC10000BBC1000074
:10009000B9C10000B7C10000B5C10000B3C1000084
:1000A000B1C10000AFC10000ADC10000ABC1000094
:1000B000A9C10000A7C10000A5C10000A3C10000A4
:1000C000A1C100009FC100009DC100009BC10000B4
:1000D00099C1000097C1000095C1000093C10000C4
:1000E00091C100008F0CA60C230D0D0E2C0E490E95
:1000F000510E030E1534183407340B3411344F34B9
:100100001C34203426342A342E34343438343C34ED
:100110004F34423446344A3400000A0B02090C0DB5
:100120000E080703040100000000000000000000AA
:1001300000000000000000000000000000000000BF
:10014000000000001211100000000000000000007C
:10015000000000000000000000000000000001029C
:1001600010202008081020401020408002010201C9
:100170000804020101020408102040808040201081
:1001800008040201800402018040201008040201DA
:100190000804020101020408102040800102040842
:1001A000102040800505050507050808080802021B
:1001B00002020A0A08080404040401010101010101
:1001C00001010303030303030303040707070C0CE4
:1001D0000C0C0C0C0C0C02020202060606060606AB
:1001E00006060B0B0B0B0B0B0B0B00002000230068
:1001F000260029002C002F0032000001000003011E
:100200000601090100002200250028002B002E0015
:100210003100340002010000050108010B0100005B
:100220002100240027002A002D00300033000101A6
:100230000000040107010A014E414E494E4954593C
:10024000494E46CDCCCC3D0AD7233C17B7D13877A1
:10025000CC2B329595E6241FB14F0A0000204100B7
:1002600000C84200401C4620BCBE4CCA1B0E5AAE01
:10027000C59D7400407A10F35A00A0724E18090010
:1002800010A5D4E80000E87648170000E40B5402FB
:100290000000CA9A3B000000E1F505000080969836
:1002A00000000040420F000000A086010000001086
:1002B0002700000000E803000000006400000000C8
:1002C000000A00000000000100000000002C76D8A9
:1002D00088DC674F0823DFC1DFAE59E1B1B796E58F
:1002E000E3E453C63AE651997696E8E6C28426EBF3
:1002F000898C9B62ED407C6FFCEFBC9C9F40F2BA06
:10030000A56FA5F490055A2AF75C936B6CF9676D9D
:10031000C11BFCE0E40D47FEF520E6B500D0ED90F2
:100320002E0300943577050080841E080000204EBF
:100330000A000000C80C333333330F986E12831158
:1003400041EF8D2114893BE65516CFFEE6DB18D12F
:10035000844B381BF77C1D901DA4BBE42420328401
:10036000725E228100C9F124ECA1E53D2700630300
:100370007E1189114B15AF18BD18C818601AC51A1F
:10038000F61A641BE81B621CA11FDB1F3E20B0266F
:10039000EB272629772A992B8B2CEA2DDE2EBF30CE
:1003A0004F3111241FBECFEFD1E2DEBFCDBF00E041
:1003B0000CBF1BE0A0E0B2E0E6E1FBE700E00BBF12
:1003C00002C007900D92AA35B107D9F720E1AAE53E
:1003D000BBE001C01D92AD31B207E1F713E0C2EA04
:1003E000D3E000E006C022970109FE010BBF0E9486
:1003F000E836CE36D10780E00807A9F70E94E5323B
:100400000C94893DFDCD23E230E040E050E06FE008
:1004100070E080E090E00E942E32AB0160E572E077
:100420008091290C90912A0C0E94541A23E230E00A
:1004300040E050E06FE070E080E090E00E942E32FB
:10044000AB016FE672E08091290C90912A0C0E941A
:10045000541A23E230E040E050E06FE070E080E0CA
:1004600090E00E942E32AB0162E972E08091290C8B
:1004700090912A0C0E94541A24E630E040E050E0AB
:100480006DE270E080E090E00E942E32AB0164EB00
:1004900072E08091290C90912A0C0E94541A23E258
:1004A00030E040E050E06FE070E080E090E00E94DB
:1004B0002E32AB0163ED72E08091290C90912A0CF1
:1004C0000E94541A23E230E040E050E06FE070E018
:1004D00080E090E00E942E32AB016BEF72E08091E1
:1004E000290C90912A0C0E94541A23E230E040E03B
:1004F00050E06FE070E080E090E00E942E32AB01AF
:100500006EE173E08091290C90912A0C0E94541A9C
:1005100024E630E040E050E06DE270E080E090E002
:100520000E942E32AB0164E473E08091290C90911B
:100530002A0C0C94541A0F931F93CF93DF9300D07F
:1005400000D0CDB7DEB726E040E052EC61E070E0CD
:100550008CE69EE00E94F72F88E59BE09A838983D2
:1005600080913D0C90913E0CA0913F0CB091400CBD
:100570008B839C83AD83BE83AE014F5F5F4F6EE084
:1005800072E083EE9DE00E9402186091290C709148
:100590002A0C80912B0C90912C0C0E946F1B8BE0ED
:1005A00090E00E94F1328C0140912B0C50912C0C68
:1005B0006091040C7091050C20E00E94C119109309
:1005C0002A0C0093290C8091040C9091050CDC01FD
:1005D000ED91FC910480F581E02D60E070E01995CB
:1005E0008091040C9091050CDC01ED91FC9104804C
:1005F000F581E02D63E070E019958091040C9091F5
:10060000050CDC01ED91FC910480F581E02D65E0A5
:1006100070E019958091040C9091050CDC01ED912E
:10062000FC910480F581E02D61E070E019958091E6
:10063000040C9091050CDC01ED91FC910480F58196
:10064000E02D64E070E019958091040C9091050C08
:10065000DC01ED91FC910480F581E02D62E070E019
:1006600019958091290C90912A0C0E94E61923E09B
:1006700032E040E355E760E070E08AE59BE00E94ED
:10068000AC19C1DE26960FB6F894DEBF0FBECDBF03
:10069000DF91CF911F910F9108956091290C709176
:1006A0002A0C80912B0C90912C0C0E946F1B88239C
:1006B00031F080912B0C90912C0C0E94E3238AE561
:1006C0009BE00C9451190F931F93CF93DF9300E09D
:1006D00020E040E060E081E49CE00E94433105E2DC
:1006E0002EEF48EA60EC8BE39CE00E9443318DE200
:1006F0009CE00E947F128DE990E00E94F132EC01B3
:100700000DE21CE023EC3BE14BE557E06AE072E0D0
:100710000E947426D0932C0CC0932B0C69E08BE1C3
:100720009CE00E945B206BE17CE088E09CE00E9402
:10073000BC2680912B0C90912C0C0E94CC2D909378
:10074000050C8093040C8AE59BE0DF91CF911F910B
:100750000F910C942019882381F08F3F29F4809108
:10076000490C90914A0C089595E0899FF00111245D
:10077000E25BF34F82819381089580E090E00895D9
:10078000CF93DF93D82FC62F60E085E30E94893492
:100790009C2F9F719D2B9EBD0DB407FEFDCF1EBCEF
:1007A0000DB407FEFDCFC7FD08C061E085E30E94E0
:1007B00089348EB5DF91CF9108951EBC0DB407FE2C
:1007C000FDCFF3CF0F931F93CF93DF931F92CDB73E
:1007D000DEB7182F062F60E085E349830E94893435
:1007E000602F6F71612B6EBD49810DB407FEFDCF87
:1007F0004EBD0DB407FEFDCF61E085E30F90DF91A4
:10080000CF911F910F910C9489340F931F93CF9325
:10081000DF938C01EB0160E085E30E9489348AE379
:100820008EBD0DB407FEFDCF0C0F1D1FC017D107E5
:1008300039F01EBC0DB407FEFDCF8EB58993F6CFFF
:1008400061E085E3DF91CF911F910F910C94893482
:100850000F931F93CF93DF938C01EB0160E085E34F
:100860000E9489348AE78EBD0DB407FEFDCF0C0FC0
:100870001D1FC017D10731F089918EBD0DB407FE41
:10088000FDCFF7CF61E085E3DF91CF911F910F910D
:100890000C9489341F93CF93DF93182F1076C12FB8
:1008A000D0E02091140230E0C217D30779F043E082
:1008B0006FE180EA87DFAE0185E0559547958A951F
:1008C000E1F76FE180E87EDF10931402DF91CF91B2
:1008D0001F910895CF93DF931F92CDB7DEB7682F96
:1008E0006983D8DF698180E00F90DF91CF9148CF95
:1008F0001F93CF93DF931F92CDB7DEB7182F698375
:10090000C9DF4981612F80E40F90DF91CF911F9162
:1009100059CF1F93CF93DF931F921F92CDB7DEB7AE
:10092000182F69837A83B6DF4981612F80E44ADF1B
:1009300061E0610F7A81472F80E40F900F90DF9183
:10094000CF911F913FCF60914C0C70914D0C611570
:10095000710519F06150710902C06FEF77E08CE00A
:10096000D8CFF1CFFF920F931F93CF93DF9389E3FB
:10097000B1DF882309F444C060914C0C70914D0C98
:10098000EB012696C11588E0D80710F0CF5FD7405D
:1009900080E0BFDF60E08AE3F3DE90E090934D0CEF
:1009A00080934C0C60E08AE3EBDE20914C0C30919C
:1009B0004D0C382B30934D0C20934C0C60E08AE3A7
:1009C000DFDE082F60E08AE3DBDE182F60E08AE3D9
:1009D000D7DEF82E40E46EE180E8F4DEF7FE0FC0CB
:1009E000D093480CC093470C202F30E0312B24507B
:1009F000310930934A0C2093490C8FEF02C0A3DFDA
:100A000080E0DF91CF911F910F91FF900895EF92B9
:100A1000FF920F931F93CF93DF938B017A018F3F48
:100A2000C1F025E0829FE0011124C25BD34F02C0D8
:100A3000C7E4DCE068817981600F711F80E069DFC5
:100A40008A819B81801B910BE816F90690F4C701FF
:100A500010C08091470C9091480C860F971F81150C
:100A600028E0920728F3BC016F5F7740C7E4DCE021
:100A7000E5CFDF91CF911F910F91FF90EF900895F7
:100A80000F931F93CF93DF938A01A901C0DFEC017D
:100A9000B801BBDECE01DF91CF911F910F91089578
:100AA000CF92DF92EF92FF920F931F93CF93DF933A
:100AB0008B016A01790195E0899FE0011124C25BF5
:100AC000D34F68817981600F711F82E022DF0A8035
:100AD000DB81C02DC01BD10BEC16FD0608F4E7012D
:100AE000B601CE01B5DECE01DF91CF911F910F91FE
:100AF000FF90EF90DF90CF900895BC0180E009DF78
:100B000060E085E30E9489348AE38EBD0DB407FE60
:100B1000FDCF1EBC0DB407FEFDCF61E085E30E9452
:100B200089348EB50895CF93C62FBC0182E0F1DEE3
:100B300060E085E30E9489348AE78EBD0DB407FE2C
:100B4000FDCFCEBD0DB407FEFDCF61E085E3CF91B3
:100B50000C948934FF920F931F93CF93DF9395E00A
:100B6000899FF0011124E25BF34FC081D18121976D
:100B7000028113810C0F1D1FCE01BFDFF82E8823C9
:100B800019F060E0CE01CFDFBE0184E0C2DEB80123
:100B900086E0BFDE48E06FE180E814DE8CE19ADE9B
:100BA00081FF04C048E06FE180EA0CDEFF2041F0E5
:100BB0006F2DCE01DF91CF911F910F91FF90B3CF99
:100BC000DF91CF911F910F91FF900895CF92DF9207
:100BD000EF92FF920F931F93CF93DF937C01EB0172
:100BE0004130510569F4CB0188DF682FC701DF91DF
:100BF000CF911F910F91FF90EF90DF90CF9093CF07
:100C00006A01C60ED71E86010150110980E181DEFE
:100C1000B70184E17EDEC115D84030F4011588E0CB
:100C2000180710F00F5F1740B80182E172DE40E153
:100C30006FE180EAC7DD40E26FE180E8C3DD6FE18C
:100C400080E09EDD85FDFBCFDF91CF911F910F915D
:100C5000FF90EF90DF90CF9008950F931F93CF9365
:100C6000DF93EB01E5E0E89FD0011124A25BB34FD5
:100C70004F3FB9F0E49FF0011124E25BF34F02C053
:100C8000E7E4FCE060817181620F731F8D919C919C
:100C9000A8018C0F9D1F9ADFDF91CF911F910F91BB
:100CA00052CEE091470CF091480CE20FF31FE11592
:100CB00088E0F80728F3BF016F5F7740E7CFCF9355
:100CC000DF93EB01682F84ED13DEBE0186ED21DE9C
:100CD0008AEE00DE80FF05C08FE090E00E94913335
:100CE000F7CFDF91CF910895CF93DF93EC01D0D070
:100CF00061E085E30E94503461E085E30E9489341D
:100D000061E083E30E94503461E084E30E94503448
:100D100060E082E30E94503461E085E30E94503439
:100D200060E083E30E94893460E084E30E948934B8
:100D300080E58CBD8DB581608DBD4FEF60E08FEF9C
:100D400041DD62E370E080E090E00E946C3310923D
:100D50004D0C10924C0C60E070E088E0DADD60E051
:100D600070E08CE0D6DD6FEF77E08AE0D2DD61EBFA
:100D700088E3BEDD6FE370E388E2CBDD69EF77EFF8
:100D800080E3C7DD6DE070E080ECC3DD42E362EC40
:100D900080E818DD62E17CE086ECBBDD62E184EC9A
:100DA000A7DD6CED75E08AECB4DD688184EEA0DD32
:100DB000698185EE9DDD6A8182EE9ADD6B8183EE2D
:100DC00097DD6C8180EE94DD6D8181EE91DD60E0D8
:100DD00071E080E174DF8FE15DDD40EC6BE180E884
:100DE000F1DC44E06FE180E8EDDC66E774E084E18B
:100DF000DF91CF9164CF0F931F93CF93DF93EC01DB
:100E0000862FBA01A90103DE8C010150110960E0AF
:100E100085E30E9489348AE38EBD0DB407FEFDCFC1
:100E200020E030E020173107C0F41EBC0DB407FEEF
:100E3000FDCF8EB590E0982F88271EBC0DB407FE1D
:100E4000FDCF4EB5840F911DC80FD91FC817D90704
:100E500008F421962E5F3F4FE5CF2017310771F43C
:100E60001EBC0DB407FEFDCF8EB590E0982F8827ED
:100E7000C80FD91FC817D90708F4219661E085E388
:100E80000E948934CE01DF91CF911F910F91089577
:100E9000EEE4FCE08DECDF011D928A95E9F781E03C
:100EA00098E0918380830895DF92EF92FF920F93F1
:100EB0001F93CF93DF937C0140914E0C50914F0CC8
:100EC0004150584E80E098E1EEE4FCE000E0C0E0E4
:100ED000D0E025E0D22E1481112341F0D19ED00123
:100EE0001124A25BB34F2D913C9101C09A01608106
:100EF0007181261B370B62817381261B370B2E15E0
:100F00003F0539F485E0089FE0011124C25BD34F0F
:100F100048C0E216F30648F42817390730F4D09E8B
:100F2000E0011124C25BD34FC901111107C0209702
:100F3000C1F5CEE4DCE085E0D82E1DC0D19EF001E5
:100F40001124E25BF34F012FC6CF0A811B818881F8
:100F50009981080F191FD29EE0011124C25BD34F63
:100F6000688179810617170731F04A815B81C801D2
:100F70002DDE198308832C812111E7CF20914E0C9F
:100F800030914F0C88819981281B390B8A819B8174
:100F9000281B390B2150384E2E153F0510F480E0E8
:100FA00019C0E3E5FCE081E022813381232B29F0A5
:100FB00035968F5F8932C1F7F2CF2A813B81488114
:100FC0005981240F351F31832083F382E2829C8173
:100FD00094838C83DF91CF911F910F91FF90EF90BD
:100FE000DF9008958823F9F0EEE4FCE025E0948199
:100FF000981311C095E0899FD0011124A25BB34FD3
:1010000014968C911497848313961C921E921297B7
:1010100014961C920895992331F0299FF001112410
:10102000E25BF34FE4CF089595E0899FF00111242E
:10103000E25BF34F80819181860F971F91838083BC
:1010400082819381861B970B93838283089595E019
:10105000899FF0011124E25BF34F80819181860F1B
:10106000971F91838083538342830895FC015381AA
:10107000560F50931F0F872F99274281480F409397
:101080001E0FA181A0931D0FE081E0931C0F242F60
:1010900030E02817390748F481E08A0F80931D0F4C
:1010A000811103C0EF5FE0931C0F852F90E077273D
:1010B0008617970788F44F5F40931E0F41110CC0AD
:1010C00080911D0F8F5F80931D0F811105C080914E
:1010D0001C0F8F5F80931C0F08952091230F309178
:1010E000240FBC01C9010896C1DFE091230FF091E4
:1010F000240F80911C0F808780911D0F8187809124
:101100001E0F828780911F0F8387089580E0E82F4C
:10111000F0E0EE0FFF1FE356F04F118210828F5F59
:101120008430A8F380E09EE1989FF0011124EB5DEC
:10113000F04F118E8F5F8430B8F380931E0D80E0E6
:1011400094E09093200D80931F0D0895CF932091EC
:101150001F0D3091200D2F5F3F4F21154DE73407B4
:1011600010F020E030E1522F432FE5E2FFE0C0E035
:10117000C43059F0A18DAA2329F0A481B581A41708
:10118000B50749F3CF5F7E96F3CF3093200D2093C0
:101190001F0D10921E0D20E0E0E0F0E04EE1243043
:1011A000E0F4429FD0011124AB5DB04F59963C91C1
:1011B0005997311104C020931E0DFD0110C0373026
:1011C00041F4309739F05A965C915A97328D351721
:1011D00008F0DF012F5FFD01E2CF20931E0D309755
:1011E000B1F122E0218F2091210D24872091220D41
:1011F00025872091230D26872091240D278720E025
:1012000032E0338B228B358B248B21E030E0318B25
:10121000208B138E228F23E0208F168A20E1278BCC
:1012200020911F0D3091200D32272327322735833F
:10123000248377836683DC012D913C911197318360
:10124000208312968D919C91139793838283CF0173
:10125000CF9108951F93CF93DF93C091230FD09127
:10126000240F27EE3FE03093220F2093210F30937D
:101270001B0F20931A0F833059F4898D8F708330A0
:1012800009F0A9C588899989892B09F0A4C57FC06F
:10129000823009F080C08091240D8F5F8093240DEF
:1012A000811113C08091230D8F5F8093230D8111D5
:1012B0000CC08091220D8F5F8093220D811105C09B
:1012C0008091210D8F5F8093210D1092190F109244
:1012D000180F1092161010921510298D822F8D7FE5
:1012E000853041F48A8D8F5F8A8F883709F073C506
:1012F000198E71C5222309F46EC588899989892BB5
:1013000009F441C08A8D9FEF980F9A8F811163C5B0
:101310008B8D883031F09FEF920F923048F48530FA
:1013200039F4198E80E88093200F0E94411412C472
:10133000853038F493E0082E01C0990F0A94EAF73B
:1013400001C090E39A8F8F5F8B8F822F8F708330D5
:10135000A1F048F4813009F42FC2823009F03BC576
:101360001092E00F2CC2863009F495C3883009F43E
:1013700092C3843009F02FC58EC384E08093200F80
:101380000E94411419C42F70233009F024C588E04D
:101390008093200FD5C38091BF0F853409F01BC502
:1013A0008091C10F90E0982F88272091C20F820F63
:1013B000911D2091180F3091190F2817390708F443
:1013C0000AC59093190F8093180F8091C50F8F73E2
:1013D00009F001C58091C60F8111FDC48091AD0F48
:1013E0009091AE0F009731F42091AF0F3091B00F74
:1013F000232BA1F02091CF0F3091D00F2817390760
:1014000009F0E9C42091D10F3091D20F8091AF0F34
:101410009091B00F2817390709F0DDC40E94AE186B
:10142000019609F0D8C48091C80F8630D1F181307F
:1014300009F0D1C48091D30F883009F0CCC4109248
:10144000D30F8091D50F9091D60F873FAFEF9A07BA
:1014500010F0099601C008969093D60F8093D50F8F
:101460008091CB0F9091CC0F9093D00F8093CF0FA2
:101470008091CD0F9091CE0F9093D20F8093D10F8A
:101480008091AD0F9091AE0F9093CC0F8093CB0FC6
:101490008091AF0F9091B00F9093CE0F8093CD0FAE
:1014A0009EC40E947218019609F095C48091D50FD0
:1014B0009091D60F2091D30F3091D40F4091CB0F44
:1014C0005091CC0F6091CD0F7091CE0FEEE3FFE005
:1014D000C5E2DFE010811123A9F0AC81BD818A173C
:1014E0009B0781F4AE81BF812A173B0759F4A8817D
:1014F000B9814A175B0731F4AA81BB816A177B0760
:1015000009F474C16E967E96AFE0CD39DA0711F713
:101510002091E00F2F732230E1F490931C0D809303
:101520001B0D40E0443098F4E42FF0E0EE0FFF1F75
:10153000E356F04F208131814F5F8217930791F777
:1015400010921E0D20E0C0E0D0E03EE17EC040934E
:101550001E0D8091E00F82FD3EC484E18093E00F78
:1015600088E290E09093190F8093180F80E58093A4
:10157000DF0F8091DA0F9091DE0F9093DA0F3091A8
:10158000D90F9091DD0F9093D90F3093DD0F2091FB
:10159000D80F9091DC0F9093D80F2093DC0F90918F
:1015A000D70F90931E0D4091DB0F4093D70F909370
:1015B000DB0F8F5F8093DE0F81110FC081E0830FFF
:1015C0008093DD0F811109C081E0820F8093DC0FD1
:1015D000811103C09F5F9093DB0F8091D30F909197
:1015E000D40F90931C0D80931B0D2091D50F30913B
:1015F000D60F3093D40F2093D30F9093D60F8093B0
:10160000D50F8091CB0F9091CC0F9093D00F8093FA
:10161000CF0F8091CD0F9091CE0F9093D20F8093EA
:10162000D10F8091AD0F9091AE0F9093CC0F80931E
:10163000CB0F8091AF0F9091B00F9093CE0F80930E
:10164000CD0F8BC3473099F02F5F2430F0F4822FF9
:1016500090E0389FF001399FF00D1124EB5DF04FC1
:10166000418D4111EFCF20931E0DEF0110C0209747
:1016700021F0528D4A8D451738F7389FE001399F88
:10168000D00D1124CB5DD04FDFCF20931E0D2097BE
:1016900009F4A1C3D093240FC093230F83E08A8F52
:1016A000888F1E8A84E08F8B1B8E8091D50F90913E
:1016B000D60F9D838C838091D30F9091D40F9F83FD
:1016C0008E838091CB0F9091CC0F998388838091EA
:1016D000CD0F9091CE0F9B838A8381E0898F80917B
:1016E000210D8C878091220D8D878091230D8E870F
:1016F0008091240D8F8781E090E0998B888B809179
:10170000DA0F8B878091D90F8A878091D80F8987CC
:101710008091D70F888781E090E0DFDC8091DF0F38
:10172000282F207F30E0213531050CF445C082950B
:101730008F7090E00597880F991F880F991F30913F
:101740001D0D20E0E22FF0E0E817F9078CF5EF54CB
:10175000F04F36A9311105C020931E0D10921D0DBA
:101760002BC0313011F42F5FEDCF3230E1F447A9B7
:101770004430C9F420931E0D30931D0D80AD90E0D0
:10178000982F882721AD822B90931C0D80931B0DE1
:10179000813022E0920710F080E092E09B8B8A8BF0
:1017A0009D8B8C8B09C047A9442311F0240FCACF0D
:1017B00020931E0D30931D0D80E18093E00F8091EA
:1017C000E00F82608093E00F82E08093E70F94E067
:1017D0009093E80F8093E90F1092EA0F8CE290E06B
:1017E0009093190F8093180F80E665C2D093240F51
:1017F000C093230F1092200F3091E00F32FF03C0EF
:10180000198E80E206C22091DF0F22952F70220FE1
:10181000220F20931E0D8091180F9091190F44975D
:10182000821B91099093190F8093180F1F7012302B
:1018300021F4232F2F732231C9F0892B19F4832F20
:101840008370A1F09091D70F888598132AC2909148
:10185000D80F8985981325C29091D90F8A8598133E
:1018600020C29091DA0F8B8598131BC234FF49C0B8
:10187000688979896115710509F443C0CE010C9618
:10188000F5DB3091DB0F80911C0F38133AC02091AB
:10189000DC0F80911D0F281334C09091DD0F8091D3
:1018A0001E0F98132EC08091DE0F40911F0F8413DE
:1018B00028C03C872D879E878F878B8D81111AC00A
:1018C0002E89888D9A8D891B922F9695969596953F
:1018D000891B280F2E8B87FD81959F89392F36957F
:1018E0003695931B980F9F8B822F869586958695AC
:1018F000890F888F81E08093200F888D8A8F198AC5
:10190000188A498D842F8F7090E0FC013197E83060
:10191000F10508F060C2EE58FF4F0C94D836809164
:10192000200F80FF58C283E0898F80E48093200FCE
:10193000198A188A8091180F9091190F009709F44D
:10194000FBC022E42093200FC8DBF6C08091200F5B
:1019500080FF6FC08091E00F8F73823109F069C002
:101960008091DF0F282F207F30E0213531050CF4E6
:1019700045C082958F7090E00597880F991F880F5A
:10198000991F30911D0D20E0E22FF0E0E817F907D4
:101990008CF5EF54F04F36A9311105C020931E0D80
:1019A00010921D0D2BC0313011F42F5FEDCF32306E
:1019B000E1F447A94430C9F420931E0D30931D0D66
:1019C00080AD90E0982F882721AD822B90931C0D3D
:1019D00080931B0D8130A2E09A0710F080E092E026
:1019E0009B8B8A8B9D8B8C8B09C047A9442311F05C
:1019F000240FCACF20931E0D30931D0D83E0898FD5
:101A00008091D70F88878091D80F89878091D90FCF
:101A10008A878091DA0F8B8781E090E05EDB82E439
:101A20008093200F198A188A1092190F1092180F9C
:101A300083C080E28093200F24D7E091230FF091A0
:101A4000240F118E86CD8091E00F80FF26C044FDCB
:101A500024C088899989892B09F0BDC18091180F0C
:101A60009091190F019639DB2091200F822F806110
:101A70008093200F8091180F9091190F892B19F0E6
:101A800022612093200FFDD681E090E0998B888B16
:101A900088E0898F1B8E81E105C185FF1CC0809184
:101AA000E50F90E0982F88272091E60F822B209158
:101AB000210F3091220F280F391F3093220F2093CE
:101AC000210F2091180F3091190F281B390B3093DB
:101AD000190F2093180F8091180F9091190F0097EC
:101AE00041F044FD06C02091200F22602093200F7A
:101AF000F4DA8091E10F90E0982F88272091E20F8F
:101B0000820F911D90931C0D80931B0D2C893D8994
:101B10002817390710F0892B21F430931C0D2093DE
:101B20001B0D80911B0D90911C0D9B8B8A8B8091BE
:101B3000200F837009F44FC11092161010921510E7
:101B4000A0D68091200F85FF07C01092161010922A
:101B50001510198E84E1A6C084FF0AC010921610D9
:101B60001092151081E090E0998B888B84E091CFE2
:101B7000209115103091161021153105E1F080FFEC
:101B800002C0198A188A88899989009781F48A89FC
:101B90009B898217930720F4909316108093151059
:101BA0008091151090911610998B888B04C090939A
:101BB0001610809315101B8E80911A0F90911B0F99
:101BC0009093220F8093210F809115109091161001
:101BD000892B59F088899989009739F088969093D4
:101BE000190F8093180F88E10BC08091200F81FF9F
:101BF000F2C088E290E09093190F8093180F80E173
:101C00008093E00F57C08091200F80FFE4C0198EB1
:101C100080E18093200F35D6DEC08091180F90911F
:101C2000190F009709F059DA9091E00F8091200F79
:101C300090FF0BC080FF06C087E0898F1A8E198A3B
:101C4000188A18C086E0898F15C080FF1BC085E008
:101C5000898F198A188ABFC08091180F9091190F27
:101C6000009709F03ADA8091E00F80FF0BC087E01F
:101C7000898F1A8E81E090E030DA80E18093200F26
:101C800000D60FC08091180F9091190F892B49F43D
:101C9000A2C08091200F80FF9EC087E0898F1A8E9E
:101CA0009AC080E18093E00F88E290E09093190F52
:101CB0008093180F80E58093DF0F88858093DB0F7A
:101CC00089858093DC0F8A858093DD0F8B858093D7
:101CD000DE0F8C858093D70F8D858093D80F8E85EE
:101CE0008093D90F8F858093DA0F86E08093C80F99
:101CF0008C819D819093D40F8093D30F8E819F818F
:101D00009093D60F8093D50F8091AD0F9091AE0F29
:101D10009093CC0F8093CB0F8091AF0F9091B00F29
:101D20009093CE0F8093CD0F888199819093D00F9F
:101D30008093CF0F8A819B819093D20F8093D10F94
:101D4000898D84FF05C01092E20F1092E10F05C04B
:101D500082E08093E10F1092E20F80E48093C70F3E
:101D60008091180F9091190F9093C10F8093C20F1B
:101D70001092E60F1092E50F1092E40F1092E30F0D
:101D80000E947218809590959093E40F8093E30FD2
:101D900085E48093BF0F1092C00F1092C60F10926F
:101DA000C50F8091250D9091260D01969093260DDB
:101DB0008093250D9093C30F8093C40F1092CA0F88
:101DC0001092C90F0E94AE18809590959093CA0FFB
:101DD0008093C90F04C01092190F1092180F10921F
:101DE000200FDF91CF911F91089598278927982779
:101DF00008959C01AB017093161060931510161690
:101E0000170654F480911A0F90911B0F2817390769
:101E100019F0B9010C948B390895FF920F931F9319
:101E2000CF93DF93DC01FB011092300D60E07BE08B
:101E3000683010F5769FE0011124CB5CD24F2881E9
:101E4000398121153105B1F08A819B81009791F08C
:101E50004D915C9111974217530761F412962D91A1
:101E60003C9113972817390729F46093300DDE0150
:101E700014964FC06F5FDCCF20E03BE0283090F439
:101E8000329FE0011124CB5CD24F88819981892B4C
:101E900039F48A819B81892B19F42093300D30C04D
:101EA0002F5FECCF2093300D283051F500912E0D8F
:101EB000802F90E010E070E060E02BE0F22E6830C0
:101EC00098F4F69EE0011124CB5CD24FCA85AC0198
:101ED0004C1B5109212F30E0241735071CF4762FB5
:101EE000102F1C1B6F5FEBCF10932D0D70932F0DD8
:101EF0007093300D8BE0789FE0011124CB5CD24FC2
:101F00004D915D916D917C91DE014D935D936D934B
:101F10007D9386E001900D928A95E1F780912E0DD8
:101F20008A87DF91CF911F910F91FF9008951092B2
:101F3000300D9BE08091300D883068F4989FF0015F
:101F40001124EB5CF24F10821182128213828F5F98
:101F50008093300DEFCF08958091180F9091190F55
:101F60000E979093190F8093180F8091AD0F909159
:101F7000AE0F2091CB0F3091CC0F82279327209169
:101F8000A90F3091AA0F82239323892BB9F4809152
:101F9000AF0F9091B00F2091CD0F3091CE0F8227CF
:101FA00093272091AB0F3091AC0F82239323892B81
:101FB00029F467EB7FE08BEC9FE02FCF08958091B1
:101FC000180F9091190F1092190F1092180F8A97ED
:101FD00008F408958091C50F9091C60F811521E0F6
:101FE000920729F08115924009F475C00895209157
:101FF000D70F3091D80F8091AD0F9091AE0F281769
:10200000390709F083C02091D90F3091DA0F809100
:10201000AF0F9091B00F2817390709F077C067EC20
:102020007FE08DEC9FE0F9DE80E092E09093C60FB8
:102030008093C50F86E0E7ECFFE0A1EDBFE00190E3
:102040000D928A95E1F786E0E7E2FDE0A7ECBFE0BC
:1020500001900D928A95E1F786E0E7E2FDE0A7EBBB
:10206000BFE001900D928A95E1F786E0E1EDFFE097
:10207000A1EBBFE001900D928A95E1F78091CD0F21
:102080009091CE0F9093D80F8093D70F8091CF0F60
:102090009091D00F9093DA0F8093D90F8091AD0F6C
:1020A0009091AE0F9093CE0F8093CD0F8091AF0F94
:1020B0009091B00F9093D00F8093CF0F88E096E06F
:1020C0009093BE0F8093BD0F8AE290E09093190F1A
:1020D0008093180F08952091D70F3091D80F8091D9
:1020E000AD0F9091AE0F2817390781F42091D90FC9
:1020F0003091DA0F8091AF0F9091B00F2817390708
:1021000029F467EC7FE08DEC9FE087CE0895209165
:10211000CF0F3091D00F2F3F4FEF340751F4809104
:10212000D10F9091D20F019621F486E0E7E6F3E01B
:10213000C6C08091AD0F9091AE0F8227932740913A
:10214000A90F5091AA0F84239523892B91F44091D4
:10215000D10F5091D20F8091AF0F9091B00F842783
:1021600095276091AB0F7091AC0F86239723892B35
:1021700089F08091A50F9091A60F9093320D8093D6
:10218000310D8091A70F9091A80F9093340D8093FB
:10219000330D08C03093320D2093310D5093340D20
:1021A0004093330D8091310D9091320D2091330D7C
:1021B0003091340D60E07BE0683090F4769FF00160
:1021C0001124EB5CF24F408151818417950731F463
:1021D000428153812417350709F46DC06F5FECCF3E
:1021E0006093300D683009F068C046E050E06FEF52
:1021F00070E081EB9FE00E94943926E0E1EDFFE082
:10220000DF01422F1D924A95E9F7E7E2FDE0A7EBD7
:10221000BFE0822F01900D928A95E1F7E7E2FDE0A1
:10222000A7ECBFE0822F01900D928A95E1F7809193
:10223000310D9091320D9093D80F8093D70F8091EC
:10224000330D9091340D9093DA0F8093D90F8091D4
:10225000AD0F9091AE0F9093CE0F8093CD0F8091E4
:10226000AF0F9091B00F9093D00F8093CF0F80E07D
:1022700091E09093C60F8093C50F9093C00F809309
:10228000BF0F88E090E09093C20F8093C10F20931E
:10229000C30F84E08093C40F88E096E09093BE0F54
:1022A0008093BD0F87EE9FE09093220F8093210FC4
:1022B0008AE290E01EC06093300D349686E0A1EB78
:1022C000BFE001900D928A95E1F786E0E7E2FDE03C
:1022D000A7EBBFE001900D928A95E1F788E090E0CE
:1022E0009093BE0F8093BD0F8091180F9091190F9E
:1022F0000E969093190F8093180F08950F9300E096
:1023000020E040E060E08DE89DE00E9443310F91C5
:1023100008950F9300E020E040E060E083E99DE055
:102320000E9443310F910895DC01ED91FC91008CE6
:10233000F18DE02D199591E08927089580E090E0D6
:102340000895DC011C96ED91FC911D97309741F0AA
:102350008181882311F081E00895808184FDFBCF85
:1023600080E00895FC01448555854115510551F0E3
:10237000FB01248535852115310521F081E04217C7
:10238000530709F080E00895CF93DF931F92CDB7F4
:10239000DEB7DC01ED91FC910088F189E02D41E090
:1023A00050E0BE016F5F7F4F199597FD03C0898193
:1023B00090E002C08FEF9FEF0F90DF91CF910895D3
:1023C000CF93DF93EC01A9D3EC85FD85309749F0DD
:1023D000808186FD02C081E005C08181882311F0E3
:1023E000FACF80E0DF91CF910895CF92DF92EF9204
:1023F000FF920F931F93CF93DF9300D01F92CDB71F
:10240000DEB77C018B016A01DC01ED91FC91028851
:10241000F389E02D1995F801228130E0322F22272F
:102420008381282B3227232732273A83298324814B
:1024300030E0322F22278581282B3227232732278D
:102440003C832B83C601D1DCBC01CE0101960E94E6
:10245000A6088C01009719F480E090E016C0D8011E
:1024600059968C918F70C1F358D3D80159968C919D
:1024700059978F70833099F75C968D919C915D97F9
:10248000F7019587848781E090E00F900F900F907F
:102490000F90DF91CF911F910F91FF90EF90DF9000
:1024A000CF9008950F931F93CF93DF931F92CDB7D3
:1024B000DEB78C01DC01ED91FC910688F789E02DF7
:1024C00019958823A1F0D8011C96ED91FC911D97D8
:1024D0008181882361F021E030E0AE014F5F5F4FE2
:1024E00060E070E00E944005898190E002C08FEFBB
:1024F0009FEF0F90DF91CF911F910F910895FC01F5
:102500001382128248EE53E060E070E0448355830A
:102510006683778381E793E09183808315861486B1
:102520000895EF92FF920F931F93CF93DF937C0157
:10253000C0E0D0E000E010E0F701EC0FFD1F81816A
:102540000E94AB03080F191F2196C530D105A1F7D2
:10255000C801DF91CF911F910F91FF90EF900895E7
:10256000CF93DF93EC01E881F9810688F789E02DAC
:102570001995882329F08C859D85DF91CF91D1CF46
:1025800080E090E0DF91CF910895CF93DF93E9E968
:10259000FDE080E0908191110AC08061DF018D93A0
:1025A00080E1ED0119928A95E9F7CF0106C08F5FAE
:1025B0007196843079F780E090E0DF91CF910895B3
:1025C000FC01319681E09191911102C081500895F2
:1025D0008F5F8530C1F784E008959F92AF92BF92DC
:1025E000CF92DF92EF92FF920F931F93CF93DF93DF
:1025F000EC016B017A018A015C0186E0A80EB11C36
:102600008CD2209709F445C08881807609F041C0BA
:10261000C501D6DF982EFE01E80FF11D86818111DC
:102620000CC080E092E00E945407FE01E90DF11D0C
:102630008683882329F31C861B86A701401B510B28
:102640004C0D5D1D6B857C859801FE01E90DF11D2A
:1026500086810E945005081B190B2B853C85280F8D
:10266000391F3C872B87101611062CF484E098162E
:1026700039F29394D6CF0E943D33665F7F4F8F4FE0
:102680009F4F6D877E878F87988BC701801B910B2B
:1026900002C08FEF9FEFDF91CF911F910F91FF90BD
:1026A000EF90DF90CF90BF90AF909F900895CF9321
:1026B000DF931F92CDB7DEB7698341E050E0BE01E2
:1026C0006F5F7F4FFC018485958587DF0F90DF91D9
:1026D000CF910895FC01848595857FCF0F931F933B
:1026E000CF93DF938C01EC0189910E94F207F801EE
:1026F000C801049629912193E817F907D9F7F80141
:102700001482DF91CF911F910F9108959F92AF9204
:10271000BF92CF92DF92EF92FF920F931F93CF93CE
:10272000DF93EC015B017A01E881F9810688F78982
:10273000E02D1995882309F455C0EC85FD8581812C
:10274000882309F452C087012EE1922EA701401B75
:10275000510B4A0D5B1DEC85FD85980160E070E032
:1027600081810E9440056C01EC85FD8581810E947C
:10277000AB03EC85FD85C816D90649F50C191D0972
:10278000CF010196ABDFAC85BD852C91822F90E007
:102790008F70989EF001999EF00D1124EB5DF04F23
:1027A000818D84FF05C0822F807611F420682C93E0
:1027B000EC85FD85818181110FC0808186FF03C07A
:1027C00010821D861C86C701801B910B10C0B601AC
:1027D00081810E94140804C00115110509F0B6CFCB
:1027E000C70105C08FEF9FEF02C080E090E0DF914E
:1027F000CF911F910F91FF90EF90DF90CF90BF90FE
:10280000AF909F9008951F93CF93DF93EC0115E055
:1028100088810E94F20719921150D1F7DF91CF9170
:102820001F910895CF93DF93EC018C859D850097D0
:1028300079F0FC012081222359F00196E4DFEC8538
:10284000FD85808186FF02C0108202C08062808385
:102850001D861C86DF91CF9160C1CF93DF93EC0181
:10286000E881F9810688F789E02D1995882331F0F0
:102870008C859D850196DF91CF91C5CFDF91CF915A
:102880000895DF92EF92FF920F931F93CF93DF9300
:10289000E091230FF091240FC48DD58D209779F40A
:1028A0008091200F86FF43C070DEEC01009709F491
:1028B0003EC0E091230FF091240F958F848F80917B
:1028C000200F81FF07C08091180F9091190F892B5D
:1028D00009F041C0888187FF0EC08F77888380917F
:1028E000200F82608093200FE091230FF091240F3E
:1028F000818D8F7E818F8091200F84FF6BC0CE01F0
:10290000069681DF8981882309F467C0E091230F4F
:10291000F091240F848195819F838E8388818064C8
:102920008883E091230FF091240F158E148EE12CF3
:10293000F12CB7018091210F9091220F5ADAF09279
:10294000190FE092180FDF91CF911F910F91FF9017
:10295000EF90DF9008958881807609F0BBCFE12C5D
:10296000F12C8E010E0D1F1DF801818181111EC0F9
:102970008091180F9091190F0E945407F8018183DC
:102980008823A1F00091180F1091190F2091210FA9
:102990003091220F215B3F404091F10D60E070E0EB
:1029A0000E942D06F4E0EF1295CF0CC02FEFE21A33
:1029B000F20A35E0E316F104A1F68091EE0D8E7F68
:1029C0008093EE0DE091230FF091240F818D8061B3
:1029D000818F80CF87FF03C092CF1882A2CF80FF64
:1029E00003C0CE0106967ADE8091200F8C70D1F163
:1029F0008E818823B9F19F8191110CC0EB84FC84F6
:102A0000E114F10409F493CFA70160E070E00E94A3
:102A1000270806C00E94AB037C01009709F487CF0A
:102A20008091210F9091220F815B9F408093EF0D49
:102A3000F701E80FF11DCF010E9454078093F00DBC
:102A4000882309F476CF6091EF0D70E0870120E0D4
:102A500030E04E810E942D068091EE0D82608093C1
:102A6000EE0D67CF888185FF62CF8E8181110BC00B
:102A70001882E091230FF091240F158E148E80E1BF
:102A80008093200F54CFE091230FF091240F818D7C
:102A90008061818F4CCF0F9300E020E040E060E048
:102AA0008DED9DE00E9443310F9108958091EE0DD0
:102AB00081FF11C02091EF0D30E041EB5FE060E05D
:102AC00070E08091F00D0E9450058091EE0D8D7F99
:102AD0008093EE0D14C08091180F9091190F0E94F1
:102AE00054078093F00D8823B1F02091180F309196
:102AF000190F41EB5FE060E070E00E9450058091AB
:102B0000F00D0E94AA058091F00D0E94F20710922C
:102B1000F00D81E0089580E00895CF92DF92EF926A
:102B2000FF921F93CF93DF938091F10D811104C029
:102B30000E94B2048093F10D8091F10D882309F475
:102B400043C091E09093EE0D0E94AB039093190F58
:102B50008093180F892B61F122E630E041EB5FE0B2
:102B600060E070E08091F10D0E9440058091BD0F02
:102B70009091BE0F8830910581F48091F10D809382
:102B8000F00DEAD981E00E942A098091180F9091F6
:102B9000190F892B69F0BBDA0AC08830964041F4DE
:102BA0000EDA8091180F9091190F892B09F07EDFB2
:102BB0008091F10D882341F08091EE0D80FF04C0DB
:102BC0000E94B1041092F10D0E943D336B017C0113
:102BD0008091E40D9091E50DA091E60DB091E70D87
:102BE000A7019601281B390B4A0B5B0BDA01C901BF
:102BF00080959095A095B0958827B7FD83959927E6
:102C0000AA27BB27182FC5E2DFE0D093240FC0937B
:102C1000230F112311F082E00FC0EC8DFD8D45854F
:102C2000568567857089D701C601841B950BA60B55
:102C3000B70BB7FD0BC083E00E942A092091180F43
:102C40003091190F232B11F062DA30DF6E969FE07E
:102C5000CD39D907D1F6112369F0AAEFCA0ED11CDC
:102C6000E11CF11CC092E40DD092E50DE092E60D5E
:102C7000F092E70DDF91CF911F91FF90EF90DF90E1
:102C8000CF900895CF93DF93EC010E943D336650BF
:102C90007F4F8F4F9F4F6093E40D7093E50D8093AE
:102CA000E60D9093E70DCE010E9474068881809313
:102CB000270D89818093280D8A818093290D8B812E
:102CC00080932A0D8C8180932B0D8D8180932C0D08
:102CD0000E948608DF91CF912AC9CF93DF93FC0130
:102CE000DA01E901228130E0322F22278381282B6B
:102CF000848190E0982F88274581842B32272327D1
:102D000032273093AE0F2093AD0F9827892798274D
:102D10009093B00F8093AF0F12962C91129730E0E2
:102D2000322F222713968C911397282B14968C916F
:102D3000149790E0982F882715964C91842B322772
:102D4000232732273093A60F2093A50F9827892792
:102D500098279093A80F8093A70F2A8130E0322FF5
:102D600022278B81282B8C8190E0982F88274D81FA
:102D7000842B3227232732273093AA0F2093A90FC1
:102D80009827892798279093AC0F8093AB0FFB016E
:102D900082819381A481B5818093EA0D9093EB0D9C
:102DA000A093EC0DB093ED0DDF91CF910895AF920C
:102DB000BF92CF92DF92EF92FF920F931F93CF9328
:102DC000DF93CDB7DEB768970FB6F894DEBF0FBEBE
:102DD000CDBFCB016A01590155DF28E53BE03A83BD
:102DE0002983F70182819381A481B5818B839C83A0
:102DF000AD83BE8338872F83F80182819381A481BC
:102E0000B58189879A87AB87BC873E872D87F50177
:102E100082819381A481B5818F87988BA98BBA8B8E
:102E20003C8B2B8BF60182819381A481B5818D8BA4
:102E30009E8BAF8BB88F9E012F5F3F4FAE01495FD6
:102E40005F4FBE01635F7F4FCE01439646DF6896BA
:102E50000FB6F894DEBF0FBECDBFDF91CF911F91AB
:102E60000F91FF90EF90DF90CF90BF90AF900895BB
:102E70006F927F928F929F92AF92BF92CF92DF928A
:102E8000EF92FF920F931F93CF93DF93CDB7DEB7EF
:102E90006E970FB6F894DEBF0FBECDBF6C015B011D
:102EA0007A014901380100E02FEF4FEF6FEFCE01BB
:102EB00049960E94433128E53BE03A8329838B8D74
:102EC0009C8DAD8DBE8D8B839C83AD83BE833887F7
:102ED0002F83F30182819381A481B58189879A87A9
:102EE000AB87BC873E872D87F40182819381A481C3
:102EF000B5818F87988BA98BBA8B3C8B2B8BF70175
:102F000042815381648175814D8B5E8B6F8B788F8D
:102F1000CE0101967C018E01095F1F4F9E01235F48
:102F20003F4FAE014D5E5F4FB501C60140DF6E966B
:102F30000FB6F894DEBF0FBECDBFDF91CF911F91CA
:102F40000F91FF90EF90DF90CF90BF90AF909F9048
:102F50008F907F906F900895CF92DF92EF92FF92C3
:102F60000F931F93CF93DF93CDB7DEB768970FB65C
:102F7000F894DEBF0FBECDBF6B017901DA01129666
:102F80004D915D916D917C9115974D8B5E8B6F8B03
:102F9000788FA8E5BBE0BA83A98321E0288F0D894B
:102FA0001E892F89388D0B831C832D833E83B88720
:102FB000AF83F701028113812481358109871A8744
:102FC0002B873C87BE87AD874F87588B698B7A8B61
:102FD0008E010F5F1F4F9E01295F3F4FAE01435F80
:102FE0005F4FB60145DF68960FB6F894DEBF0FBE9F
:102FF000CDBFDF91CF911F910F91FF90EF90DF90A8
:10300000CF9008950F931F93CF93DF93CDB7DEB783
:1030100062970FB6F894DEBF0FBECDBFDB01FA0199
:1030200042815381648175814F87588B698B7A8B7C
:10303000E8E5FBE0FA83E98321E02A8B0F85188914
:1030400029893A890B831C832D833E83F887EF837C
:1030500049875A876B877C879E012F5F3F4FAE0160
:10306000495F5F4FBD0178DF62960FB6F894DEBF0F
:103070000FBECDBFDF91CF911F910F910895FB013E
:1030800041505109460F571FE417F50778F4208186
:1030900030E0322F22276181260F311D820F931FCE
:1030A0008217930708F401963296EECFE417F507DE
:1030B00051F4208130E0322F2227820F931F821794
:1030C000930708F40196089544E150E06FEB7FE028
:1030D00080E090E0D4DF009711F00C94F50E8FEFB4
:1030E0009FEF08950F931F93CF93DF938091C10FAC
:1030F00090E0982F88272091C20F820F911D8C019C
:103100000451110948E050E06BEC7FE00E97B7DF07
:10311000C091DF0FC695C695CC73D0E0AE0163EDCC
:103120007FE0ADDFC017D10750F498012C1B3D0B99
:10313000AE014E5D5F4F6091F00D0E94FB0600975F
:1031400031F0DF91CF911F910F910C94F50E8FEF1D
:103150009FEFDF91CF911F910F910895B5CF0F93FE
:1031600000E020E040E060E082EF9DE00E9443311B
:1031700088EE9DE00F910C9439310F9300E020E030
:1031800040E060E088EF9DE00E9443310F91089598
:103190000F9300E020E040E060E08EEF9DE00E94B1
:1031A00043310F910895FC0110820895CF92DF9270
:1031B000EF92FF92CF93DF93EC016A017B018B8545
:1031C0009C85AD85BE859A01AB01281B390B4A0B46
:1031D0005B0BDA01C90149815A816B817C818417BB
:1031E0009507A607B707D8F08881813019F082309B
:1031F00029F00CC0E985FA85199508C061E0888539
:10320000811160E068878F810E948934CB86DC86DB
:10321000ED86FE868F8598890196988B8F878D81A4
:103220009E8197FD06C02F853889281739070CF035
:103230001882DF91CF91FF90EF90DF90CF900895AB
:103240000F931F93CF93DF93EC018C0106551F4F13
:10325000CE01A9DF6196C017D107D1F7DF91CF91D9
:103260001F910F910895CF92DF92EF92FF921F93DB
:10327000CF93DF936A017B01EC011AE088818823F8
:1032800021F0B701A601CE0191DF11506196111115
:10329000F5CFDF91CF911F91FF90EF90DF90CF900E
:1032A0000895CF93DF93EC010E943D33AB01BC0145
:1032B000CE01DF91CF91D7CF20E0FC0130813323C5
:1032C00031F02F5F41962A30C1F78FEF0895822F9A
:1032D0000895CF92DF92EF92FF920F931F93CF93B7
:1032E000DF9300D01F92CDB7DEB76C01790149831F
:1032F0005A836B837C83E0DF282F49815A816B815D
:103300007C818F3FD9F081E12802C00CD11C1124AF
:1033100081E0F60180834183528363837483168343
:103320000583F286E18629830E943D33F601638797
:10333000748785879687108A17862981822F0F9038
:103340000F900F900F90DF91CF911F910F91FF90F1
:10335000EF90DF90CF9008950F931F930FEF1FEF23
:10336000B8DF1F910F91089526EB33E0FC01318304
:103370002083089526EB33E0FC01318320830C94F5
:10338000F2320F931F93CF93DF93EC018B01CA01AD
:1033900046EB53E0598348832A879B838A83222301
:1033A00031F04DE853E06CEA73E00E94CE251D83B6
:1033B0000C83C80116D19F838E83C80114D19987CD
:1033C0008887DF91CF911F910F9108950F931F93DD
:1033D000CF93DF938C01C0E0D0E0F8018085918528
:1033E000C817D907ACF4D8011696ED91FC91179740
:1033F000CE01880F991FE80FF91F808191810097F6
:1034000029F012966D917C9113974CD42196E5CFBB
:10341000DF91CF911F910F910895AF92BF92CF92FC
:10342000DF92EF92FF920F931F93CF93DF938C0164
:103430007B016A01C0E0D0E0F80180859185C81762
:10344000D9073CF55E01AA0CBB1CD8011696ED917C
:10345000FC911797EA0DFB1D80819181009721F067
:10346000B701CDD3811102C02196E6CFD8011696BF
:10347000ED91FC911797EA0DFB1D80819181DC0194
:10348000ED91FC910480F581E02DA601B70119951D
:10349000EBCFDF91CF911F910F91FF90EF90DF90D5
:1034A000CF90BF90AF900895DC0114968D919C91C0
:1034B0001597DC01ED91FC910680F781E02D1994C0
:1034C0000F9300E020E040E060E084E09EE00E9496
:1034D00043310F91089524EE33E0FC0131832083C2
:1034E0003BC5CF93DF93EC01F6DFCE01DF91CF91A7
:1034F0000C94F232CF92DF92EF92FF920F931F93D0
:10350000CF93DF93CDB7DEB72A970FB6F894DEBF1F
:103510000FBECDBF7C016B013BD58E010F5F1F4FEE
:1035200022E044E00E94FB36C7013ED5A801BC0161
:10353000C6010E94CE25C7013BD5882339F04AEB4E
:1035400053E06CEA73E0C6010E94CE252A960FB6BE
:10355000F894DEBF0FBECDBFDF91CF911F910F91C9
:10356000FF90EF90DF90CF9008950F93CF93DF936C
:10357000EC0100E060E070E0FCD484EE93E099831D
:103580008883DF91CF910F9108950F9300E020E0A1
:1035900040E060E08AE09EE00E9443310F91089590
:1035A0002EEE33E0FC013183208308952EEE33E0CC
:1035B000FC01318320830C94F2322EEE33E0FC01C7
:1035C00031832083778B668B20E030E0FC01E20FB3
:1035D000F31F138212822E5F3F4F24313105B1F762
:1035E0000895029608958AE090E008950F9300E010
:1035F00020E040E060E080E19EE00E9443310F91D6
:1036000008952AE234E0FC0131832083A5C4CF93DE
:10361000DF93EC01F6DFCE01DF91CF910C94F23213
:10362000AF92BF92CF92DF92EF92FF920F931F93D0
:10363000CF93DF938C01EB01ABD46B017C01C8010C
:10364000B3D45C0120E030E0A901C701B6010E94BB
:103650004C35882319F046EF53E002C04DEF53E09C
:10366000B501CE010E94CE25C801A2D4882389F0DD
:1036700042E054E06CEA73E0CE01DF91CF911F91FC
:103680000F91FF90EF90DF90CF90BF90AF900C9490
:10369000CE25DF91CF911F910F91FF90EF90DF909A
:1036A000CF90BF90AF9008950F93CF93DF93EC012D
:1036B00000E062E070E05DD48AE294E09983888360
:1036C000DF91CF910F9108950F9300E020E040E04B
:1036D00060E086E19EE00E9443310F910895DF9201
:1036E000EF92FF920F931F93CF93DF9300D000D000
:1036F000CDB7DEB77C018B0180911C0E90911D0E21
:103700008617970721F070931D0E60931C0EC7015A
:10371000C6D6D82E811121C021E13BE0A90160E38A
:1037200074E0C7010E94CF238823B9F060E374E0FE
:10373000CE0101960E94B03240E354E0BA01C701C5
:103740000E94CE250115110511F0C8013FDECE0102
:1037500001960E944932DD24D3948D2D26960FB612
:10376000F894DEBF0FBECDBFDF91CF911F910F91B7
:10377000FF90EF90DF900895AB01BC0180911C0E8B
:1037800090911D0E4ACECF93DF93CDB7DEB72A9727
:103790000FB6F894DEBF0FBECDBFDB01FE01319640
:1037A000BF019F01261B370B4217530718F02D91BD
:1037B0002193F7CFFB01E40FF51F1082DDDF2A967E
:1037C0000FB6F894DEBF0FBECDBFDF91CF91089545
:1037D0000F9300E020E040E060E08EE19EE00E9478
:1037E00043310F9108952AE434E0FC0131832083B2
:1037F00008952AE434E0FC01318320830C94F232F2
:103800000F931F93CF93DF931F92CDB7DEB78C0139
:10381000FC016483828169830E94BE346981262F02
:1038200030E08217930721F0F80182810E948934E9
:10383000F8018481882319F043E454E002C04DEC80
:1038400054E0F80165817681878190850F90DF9142
:10385000CF911F910F910C94CE25CF92DF92EF92D2
:103860000F931F93CF93DF931F92CDB7DEB76C01F9
:10387000862FEAE4F4E0D6011196FC93EE931896B5
:103880001C930E93179712966C93129713967C9332
:10389000139714964C93149716963C932E93159762
:1038A0001996EC9261E049830E9450344981642F5B
:1038B000C6010F90DF91CF911F910F91EF90DF9094
:1038C000CF909ECF0F9300E020E040E060E084E2E4
:1038D0009EE00E9443310F9108952FE535E0FC01F1
:1038E0003183208308952FE535E0FC013183208367
:1038F0000C94F232FC018FE595E091838083738311
:1039000062835583448321A382E090E0978386837A
:1039100040E050E068EC71E4428753876487758724
:103920001686178681E490E0938B828B148A108E22
:10393000148E118E128E138E0895EF92FF920F93B4
:103940001F93CF93DF938A01E9016130710581F004
:1039500062307105C1F0672B11F58DE090E00E9497
:10396000F1327C019E01A80160E070E0FEDD15C02F
:103970008DE090E00E94F1327C019E01A80161E09F
:1039800070E06CD30AC08EE090E00E94F1327C01BE
:103990009E01A80162E070E087DEC70102C080E0FE
:1039A00090E0DF91CF911F910F91FF90EF900895DC
:1039B0008F929F92AF92BF92CF92DF92EF92FF923F
:1039C000CF93DF93EC018E819F81892B11F41C8AA8
:1039D00045C088899989009709F440C0D9D24B0124
:1039E0005C01898D882369F16A897B89882777FD45
:1039F0008095982F0E9483356B017C0120E030E098
:103A000040E450E4C501B4010E94E7349B01AC01DD
:103A1000C701B6010E944C3518161CF081E08C8B52
:103A200010C020E030E040E450E4C501B4010E9441
:103A3000E8349B01AC01C701B6010E94333687FF11
:103A40001C8A89A1882341F04EE454E06CEA73E0BB
:103A50008C819D810E94CE258C8901C080E0DF9100
:103A6000CF91FF90EF90DF90CF90BF90AF909F905D
:103A70008F9008958F929F92AF92BF92CF92DF92D4
:103A8000EF92FF92CF93DF93EC018E819F81892B80
:103A900011F41E864EC088859985009709F449C0A7
:103AA00077D24B015C01888D882341F1CA84DB8485
:103AB000EC84FD8420E030E040E05FE3C501B40128
:103AC0000E94E8349B01AC01C701B6010E94333665
:103AD00087FD03C081E08E8711C020E030E040E028
:103AE0005FE3C501B4010E94E7349B01AC01C7014B
:103AF000B6010E944C3518160CF01E8689A1882349
:103B0000B1F047E654E06CEA73E08C819D810E943D
:103B1000CE252E858C819D81222319F041E854E029
:103B200002C046E954E06CEA73E00E94CE258E851F
:103B300001C080E0DF91CF91FF90EF90DF90CF90B8
:103B4000BF90AF909F908F9008958F929F92AF9269
:103B5000BF92CF92DF92EF92FF92CF93DF93EC016F
:103B60008E819F81892B11F41F863DC088859985A0
:103B70000097C9F10DD24B015C018C8D882339F17E
:103B8000CA84DB84EC84FD8420E030E040E05FE325
:103B9000C501B4010E94E7349B01AC01C701B60125
:103BA0000E944C3518161CF081E08F8710C020E071
:103BB00030E040E05FE3C501B4010E94E8349B01BE
:103BC000AC01C701B6010E94333687FF1F8689A169
:103BD000882339F04CEA54E06CEA73E08C819D81D3
:103BE000DDD78F8501C080E0DF91CF91FF90EF900E
:103BF000DF90CF90BF90AF909F908F900895CF921D
:103C0000DF92EF92FF920F931F93CF93DF938C017C
:103C10006B01DC015F96ED90FC909097C0E0D0E0E6
:103C2000CE15DF059CF4D8015D96ED91FC915E9771
:103C3000CE01880F991FE80FF91FB601808191818D
:103C40000E949B39892B21F02196EACF80E001C0A8
:103C500081E0DF91CF911F910F91FF90EF90DF9066
:103C6000CF900895CF92DF92EF92FF920F931F9320
:103C7000CF93DF937A016901EB0100E010E00E15AC
:103C80001F053CF469917991C601F0D70F5F1F4F72
:103C9000F6CFDF91CF911F910F91FF90EF90DF90C2
:103CA000CF9008959B01FC01478D50A1658D768DC5
:103CB000D9CFCF93DF93EB01CA0163E474E00E9494
:103CC0009B39892B11F461E001C060E0CE01DF91E6
:103CD000CF9196CDCF93DF93EC01888DE881F98168
:103CE000882319F08E85811105C00680F781E02DAB
:103CF00060E004C00680F781E02D61E0CE011995F7
:103D00008C8DE881F981882341F08F85882329F003
:103D10000084F185E02D61E004C00084F185E02D90
:103D200060E0CE011995898DE881F981882341F001
:103D30008C89882329F00284F385E02D61E004C09A
:103D40000284F385E02D60E0CE01DF91CF911994DC
:103D5000CF93DF93EC012CDECE018CDECE01F5DEBD
:103D6000CE01DF91CF91B6CF0F931F93CF93DF9307
:103D7000EC018B0169EC74E0C8010E949B39892B2E
:103D800019F41F821E8214C061ED74E0C8010E9404
:103D90009B39892B49F481E090E09F838E83DF91EA
:103DA000CF911F910F91089582E090E09F838E83C1
:103DB000CE01DF91CF911F910F91CACFCF93DF93A7
:103DC000EC0188859985009789F0E8D0CE0152DE14
:103DD000CE01BBDE88859985DC01ED91FC916C817B
:103DE0007D810190F081E02D199507C048ED54E0E8
:103DF0006CEA73E08C819D81D1D68E819F81019781
:103E000021F0CE01DF91CF9165CFDF91CF91089561
:103E10000F931F93CF93DF93EC0108891989011544
:103E20001105E9F0882777FD8095982F0E9483354A
:103E3000AB01BC01C801B2D0CE01BADD8889998935
:103E4000DC01ED91FC916C817D810190F081E02D90
:103E5000199589A1882351F04AEE54E002C045E04B
:103E600055E06CEA73E08C819D8198D68E819F81AC
:103E7000019731F0CE01DF91CF911F910F912ACFA1
:103E8000DF91CF911F910F910895CF93DF93EC01B4
:103E90004A875B876C877D8789A1882339F046E153
:103EA00055E06CEA73E08C819D8178D6CE01E2DD2D
:103EB000CE014BDE8E819F81019721F0CE01DF91F3
:103EC000CF9108CFDF91CF910895CF93DF93EC018D
:103ED0007B8B6A8B89A1882339F04AE355E06CEA31
:103EE00073E08C819D815AD6CE0162DD8E819F81E7
:103EF000019721F0CE01DF91CF91ECCEDF91CF91F0
:103F00000895FC01848195810895FC0181A10895A3
:103F1000FC0161A30895FC01718B608B0895FC0185
:103F2000718760870895FC01608F0895FC01618F9F
:103F30000895FC01768F658F0895FC0170A3678F4B
:103F400008950F9300E020E040E060E08AE29EE008
:103F50000E9443310F9108952FE635E0FC01318333
:103F6000208308952FE635E0FC01318320830C94F3
:103F7000F2320F93FC018FE695E091838083738783
:103F80006287538342833583248304870F91089586
:103F9000FC0166817781808591850895FC014683C7
:103FA0005783608771870895FC0184819581089506
:103FB000FC01848508950F9300E020E040E060E07C
:103FC00080E39EE00E9443310F91089522EA35E09C
:103FD000FC0131832083C0CFCF93DF93EC01F6DF68
:103FE000CE01DF91CF910C94F232CF92DF92EF921B
:103FF000FF920F931F93CF93DF93CDB7DEB72A972E
:104000000FB6F894DEBF0FBECDBF7C016B01C0DFE1
:104010008E010F5F1F4F22E045E00E94FB36C70173
:10402000C3DFA801BC01C601B9D5C701C1DF882320
:1040300031F045E755E06CEA73E0C601AFD52A964A
:104040000FB6F894DEBF0FBECDBFDF91CF911F91A9
:104050000F91FF90EF90DF90CF9008950F93CF9343
:10406000DF93EC0100E061E070E083DF82EA95E03D
:1040700099838883DF91CF910F9108950F9300E08A
:1040800020E040E060E086E39EE00E9443310F9133
:104090000895FC0113861586148627E030E0DF01C1
:1040A000A20FB31F13961C922115310519F0215050
:1040B0003109F5CF08951F93CF93DF93EC01162FAD
:1040C00060E0812F0E945034612F70E0FB01E25AC2
:1040D000FE4FE491E883FB01EC55FE4FE491F0E0E4
:1040E000EE0FFF1FE651FE4F859194919A838983CD
:1040F000CE01DF91CF911F91CCCFCF92DF92EF9283
:10410000FF920F931F93CF93DF93EC018B010E94DB
:104110003D336B017C0188819981DC01ED91FC913B
:104120000480F581E02D1995892B69F40E943D33B7
:104130006C197D098E099F0968397A4381059105BB
:1041400050F380E00CC088819981DC01ED91FC91F5
:104150000680F781E02D1995F801808381E0DF91D9
:10416000CF911F910F91FF90EF90DF90CF90089526
:104170000F931F93CF93DF93EA0108811981600F9A
:10418000711FBBDF882331F00F5F1F4F1983088336
:1041900081E001C080E0DF91CF911F910F910895E0
:1041A0003F924F925F926F927F928F929F92AF92C7
:1041B000BF92CF92DF92EF92FF920F931F93CF9314
:1041C000DF9300D0CDB7DEB78C016B011A82198264
:1041D0005C0182E0A80EB11CAE014F5F5F4FB501DC
:1041E000C801C6DF811103C080E090E0B9C0D801EA
:1041F00012969C901B82E12CF12C412C512C320107
:104200004394BE016D5F7F4FC80177DF882361F360
:1042100029813A81C90101969A8389836B81F801CA
:10422000E20FF31F6283462F4F7750E0449D9001C9
:10423000459D300D549D300D1124E20EF31E97E084
:10424000440C551C661C771C9A95D1F767FDD9CF95
:10425000292D207F33243394203309F0312C8150D1
:10426000F6018083332031F1AE014F5F5F4FB5011E
:10427000C8017EDF882309F4B7CFAE014F5F5F4FDF
:10428000B501C80175DF882309F4AECFD6018C9142
:10429000F801E80FF11D4380512C542C44248481F3
:1042A000480E511CF801828181FF08C0F2E04F0ED8
:1042B000511C04C080E0412C512C01C082E0A82E8A
:1042C000B12C612C712C480189E9880E911CC30125
:1042D0008A0D9B1D8E159F0598F5BE016D5F7F4F62
:1042E000C8010BDF882309F47FCFD4018D919C9105
:1042F0000097A9F0332099F029813A8122503109A1
:10430000F6014081241B31094216530640F4DC01BA
:10431000ED91FC910190F081E02D6B8119958981DF
:104320009A818038910528F42B81F801E80FF91F54
:10433000228301969A838983BFEF6B1A7B0AC7CFCA
:10434000F801E756FF4F80819181892B39F48981EB
:104350009A818138910510F01A82198289819A8197
:104360000F900F900F90DF91CF911F910F91FF90C1
:10437000EF90DF90CF90BF90AF909F908F907F9005
:104380006F905F904F903F900895AF92BF92CF9201
:10439000DF92EF92FF920F931F93CF93DF9300D0A2
:1043A0001F92CDB7DEB77C01F90180E09E2F9F7789
:1043B000EE0FEF2FEE1FFF0BF195309709F090688D
:1043C000A1E0B0E0AC0FBD1FA80FB11D9C938F5FA3
:1043D000309761F7A82EB12CDA01AA19BB091496FF
:1043E0006C93BE016F5F7F4F80E090E04A195B09DC
:1043F0008A159B0554F4FB01D190BF018A01080F77
:10440000191FF801D5820196F3CFF70180819181C0
:1044100089010F5F1F4F0A0D1B1DFC012081318197
:10442000F90122813381A801BD01F90119956C01BF
:104430000E943D33F701EC57FF4F60837183828305
:10444000938381E0C016D10609F080E00F900F90B1
:104450000F900F90DF91CF911F910F91FF90EF90F0
:10446000DF90CF90BF90AF900895C9010296DB0115
:10447000FD01E61BF70B2D91222331F0FA01E80F25
:10448000F91F20830196F4CF9C012E1B3F0B240FB4
:10449000351FD9011297FC931196EC930895CF9391
:1044A000DF93EC0188819981009731F1DC01ED9176
:1044B000FC910488F589E02D199581111FC0FE013A
:1044C000E556FF4F80819181892BB1F48DEF9FEFED
:1044D0009183808388819981DC01ED91FC91028434
:1044E000F385E02D199588819981DC01ED91FC918E
:1044F0000288F389E02D199580E001C081E0DF9109
:10450000CF9108952F923F924F925F926F927F9238
:104510008F929F92AF92BF92CF92EF92FF920F93A2
:104520001F93CF93DF93CDB7DEB72E970FB6F894D6
:10453000DEBF0FBECDBF4C011B012A013901AFDF29
:10454000811114C1F401EB56FF4F60817181D401D8
:104550008D919C911197A956BF4FFC01208131810B
:104560006115710541F04D915C91D9011E96ED9157
:10457000FC911F971FC0F9010484F585E02DFE878B
:10458000ED87ED91FC9128E53BE03A832983D40146
:10459000A157BF4F12964D915D916D917C911597EA
:1045A0004B835C836D837E83AF01BE016F5F7F4F62
:1045B000ED85FE851995F4018130910509F0CEC095
:1045C000EE57FF4F9183808389E0E5E1F2E0DE0161
:1045D000119601900D928A95E1F7FE01319680E0E7
:1045E00090E02191D401A80FB91F17962C93019642
:1045F00089309105B1F70115110559F0F0E2CF9E10
:10460000C0011124866028E0E29E700111248E29E9
:1046100001C082E04114510431F06114710411F4BD
:10462000806801C0806CD40150968C93509751964D
:104630001C9251978FE052968C937401B2E0EB0E6E
:10464000F11C21E130E0A701B101C4010EDF011529
:10465000110551F09C01A701B801C40106DF9C01BE
:10466000A701B501C40101DF4114510469F09C01A7
:10467000A701B201C401F9DE6114710429F09C01A3
:10468000A701B301C401F1DE9C0125503109A70146
:1046900060E1C4017ADE0E943D33F401EC57FF4F24
:1046A0006083718382839383840108571F4FF801CD
:1046B0006083718382839383F40180819181DC0123
:1046C000ED91FC910480F581E02D1995892BC1F4C1
:1046D0000E943D33D8014D905D906D907C9064199F
:1046E00075098609970968397A438105910520F390
:1046F000F401E556FF4F8CEF9FEF9183808323C039
:10470000BE01665F7F4FC4014BDD0497E1F4F40105
:104710008581940125563F4F7901811110C00E9477
:104720003D33D8016D937D938D939C931397F40142
:10473000E457FF4F1082F7011182108217C090E0FA
:10474000D9018D939C93F40180819181DC01ED91DD
:10475000FC910288F389E02D199506C0E556FF4FBC
:104760008EEF9FEF9183808380E001C081E02E96E1
:104770000FB6F894DEBF0FBECDBFDF91CF911F9172
:104780000F91FF90EF90CF90BF90AF909F908F9040
:104790007F906F905F904F903F902F900895AF92D1
:1047A000BF92CF92EF920F931F93A12CB12CC12CEB
:1047B000E12C00E010E0A6DE1F910F91EF90CF906A
:1047C000BF90AF9008952F923F924F925F926F9259
:1047D0007F928F929F92AF92BF92CF92DF92EF9291
:1047E000FF920F931F93CF93DF9300D01F92CDB70B
:1047F000DEB78C014DB65EB652DE882309F441C1A6
:104800000E943D336B017C01580128E8A20EB11CC7
:10481000F50180819181A281B381A7019601281BB6
:10482000390B4A0B5B0BDA01C90189399A43A1059F
:10483000B10590F4349780819181A281B381A70161
:104840009601281B390B4A0B5B0BDA01C901893928
:104850009A43A105B105C0F148014CE8840E911CB2
:10486000D4012C91F80180819181222371F0E556C9
:10487000FF4F2CEF3FEF31832083DC01ED91FC9162
:104880000288F389E02D1995FCC020ECF801228301
:104890001382DC01ED91FC910280F381E02D42E076
:1048A00050E0B8016E5F7F4F1995F801EC57FF4F4C
:1048B000C082D182E282F382F501C082D182E2829B
:1048C000F38281E0D4018C93F80180819181DC0135
:1048D000ED91FC910480F581E02D1995892B09F467
:1048E000D2C0BE016F5F7F4FC8015ADCFC01009748
:1048F00009F4C9C0D501CD92DD92ED92FC921397D7
:10490000D80112968C91807F803309F09FC04801B6
:10491000BDE88B0E911CD4018D919C91892B09F4DB
:10492000B2C02DB63EB6698170E0D801A60FB71FA0
:1049300013964C91139750E0542F442714968C9162
:104940001497480F511DCA0101962DB73EB7281B79
:10495000390B0FB6F8943EBF0FBE2DBF8DB79EB773
:1049600001965C0120E030E0BC83AB83241735075F
:1049700069F06B807C80620E731ED30115966C907B
:10498000D5016D925D012F5F3F4FF0CFDC01A20F8B
:10499000B31F1C92D8011296BC91B670BA83B23084
:1049A000E9F53901660E771ED801A60DB71D1596DB
:1049B000AC901597B12CBA2CAA2416964C91A40E43
:1049C000B11C4BEF5FEF461B570B421B530B4E0FB7
:1049D0005F1FB301695F7F4F600F711FD401ED91BD
:1049E000FC91199580E4F80182837A807382B48205
:1049F000A582D8018D919D91BD01DC01ED91FC91C5
:104A00000280F381E02D44E050E01995F801EC5765
:104A1000FF4FC082D182E282F38212C04DEF5FEF7E
:104A2000461B570B421B530B4E0F5F1F620F731F2A
:104A30006B5F7F4F600F711FD401ED91FC91199551
:104A40000FB6F8943EBE0FBE2DBE1DC0803C91F443
:104A500080EDF80182831382D8018D919D91BD0173
:104A6000DC01ED91FC910280F381E02D42E050E009
:104A7000199509C0803D39F4F801E457FF4F1082C1
:104A800002C080E001C081E00FB6F8945EBE0FBEA8
:104A90004DBE0F900F900F900F90DF91CF911F910F
:104AA0000F91FF90EF90DF90CF90BF90AF909F90CD
:104AB0008F907F906F905F904F903F902F900895D0
:104AC0008F929F92BF92CF92DF92EF92FF920F93BD
:104AD0001F93CF93DF931F921F92CDB7DEB74C0188
:104AE000B42E152F790169837A83D9DC69817A81A3
:104AF000882309F444C0FB0101900020E9F73197B5
:104B0000E61BF70BC70107968E0F9F1F8138910593
:104B1000B0F5640182E0C80ED11C25E030E0A601AA
:104B2000C401A3DCEB2DF12F60E070E09401280FAD
:104B3000391F6E157F0549F04191D901A60FB71FA6
:104B400012964C936F5F7F4FF4CF011102C060E368
:104B500001C061E3970125503109280F391FA601D3
:104B6000C4010F900F90DF91CF911F910F91FF9093
:104B7000EF90DF90CF90BF909F908F9006CC80E019
:104B80000F900F90DF91CF911F910F91FF90EF90B9
:104B9000DF90CF90BF909F908F9008950F93FA0170
:104BA00001900020E9F79F0121503109241B350BAA
:104BB00000E086DF0F910895CF92DF92FF920F936E
:104BC0001F93CF93DF931F921F92CDB7DEB76C0177
:104BD000F42E81E0841708F43EC0FB010190002010
:104BE000E9F7E61BF70B3896E138F105A0F5C601A9
:104BF00069837A8354DC69817A81882361F1F601C3
:104C0000EE57FF4F80819181019611F481E090E091
:104C10009183808380819181F601978380878601CB
:104C20000E5F1F4F27E030E0A801C6011EDCF60131
:104C3000E80FF91FF2829C0124503109A80162E8B3
:104C4000C6010F900F90DF91CF911F910F91FF90B0
:104C5000DF90CF909ACB80E00F900F90DF91CF91B3
:104C60001F910F91FF90DF90CF90089540E0A4CF67
:104C7000CF92DF92EF92FF920F931F93CF93DF9328
:104C8000CDB7DEB72C970FB6F894DEBF0FBECDBF01
:104C90007C01FB016A010381228141816081CE0197
:104CA00007960E94433109851A852B853C85F701BB
:104CB000E157FF4F02831383248335833896D182D3
:104CC000C082329711821082C7012C960FB6F894D9
:104CD000DEBF0FBECDBFDF91CF911F910F91FF902F
:104CE000EF90DF90CF900895CF92DF92EF92FF92F6
:104CF0000F931F93CF93DF9300D01F92CDB7DEB7F2
:104D00006C01790181579F4F4B835C8369837A8360
:104D10000E943931F601E556FF4F8FEF9FEF9183E7
:104D200080834B815C8169817A81C601A1DFF601B4
:104D3000E357FF4FF182E082F60111830083E756CB
:104D4000FF4F118210820F900F900F900F90DF9104
:104D5000CF911F910F91FF90EF90DF90CF9008952A
:104D60000F9300E020E040E060E08CE39EE00E94D2
:104D700043310F9108950895FC018BEB96E2928BDD
:104D8000818B768365831482108289E0818381E040
:104D900082838383089508950895CF93DF93EC0170
:104DA00080E996E0998388838AA19BA1009739F0D6
:104DB000DC01ED91FC910280F381E02D19958CA12D
:104DC0009DA1009739F0DC01ED91FC910280F38107
:104DD000E02D1995CE01DF91CF910C946D1CCF93EE
:104DE000DF93EC01DADFCE01DF91CF910C94F23248
:104DF0001F93CF93DF93EC01162F8AA19BA10E94F2
:104E0000001C612F8CA19DA1DF91CF911F910C946B
:104E1000001CEF92FF920F931F93CF93DF93CDB7B8
:104E2000DEB72C970FB6F894DEBF0FBECDBF8C0156
:104E30007A01CE0107960E94B032B701CE010196E9
:104E40000E94B03268EA75E0CE0107960E94C53232
:104E5000882329F0B701C8010E94B41E33C060EC5A
:104E600075E0CE0107960E94C532882341F0C70144
:104E70000E948039AB01BC01C80107D823C067EE8E
:104E800075E0CE0107960E94C532882321F0F80113
:104E900062A173A10BC063E076E0CE0107960E9489
:104EA000C532882341F0F80164A175A1A701C801AA
:104EB0000E94591E07C0C80124D84FE156E06CEA91
:104EC00073E06CDECE0101960E944932CE01079656
:104ED0000E9449322C960FB6F894DEBF0FBECDBFAC
:104EE000DF91CF911F910F91FF90EF900895AF92B6
:104EF000BF92CF92DF92EF920F931F93CF93DF93E6
:104F0000EC016B01B42E20E0AB0160E070E00E9488
:104F10007A1C80E996E09983888388E0EEE1F2E0EC
:104F2000DE01969601900D928A95E1F76B2DCE01E8
:104F30000E94881FCE010E94851F882331F047E31D
:104F400056E06CEA73E0C60129DE8AE090E00E9438
:104F5000F1325C01E12C860120E536E040E06EE1B3
:104F600070E00E942D1CBBA2AAA28AE090E00E94E1
:104F7000F1325C012EE636E040E06FE170E00E9425
:104F80002D1CBDA2ACA261E0CE010E94931F20E5C2
:104F900032E0A60161E070E0CE010E949D1CBC01E0
:104FA000CE010E948F1FBE016A5D7F4FCE010E941D
:104FB000991F64E070E0CE010E949D1FB601CE01F2
:104FC000DF91CF911F910F91EF90DF90CF90BF9025
:104FD000AF900C94521E0F9300E020E040E060E0A0
:104FE00082E49EE00E9443310F9108950895CF938B
:104FF000DF93EC0187EB97E0998388838AA19BA1DB
:10500000009739F0DC01ED91FC910280F381E02DF5
:105010001995CE01DF91CF910C946D1CCF93DF9346
:10502000EC01E5DFCE01DF91CF910C94F232FC016F
:1050300082A193A10C94001CFC0184A195A10C9465
:10504000001CEF92FF920F931F93CF93DF93CDB786
:10505000DEB72C970FB6F894DEBF0FBECDBF8C0124
:105060007A01CE0107960E94B032B701CE010196B7
:105070000E94B0326CE976E0CE0107960E94C532FC
:10508000882329F0B701C8010E94B41E46C06BEB0B
:1050900076E0CE0107960E94C532882349F0C70109
:1050A0000E948039AB01BC01C8010E94451F35C078
:1050B00069EE76E0CE0107960E94C532882349F05A
:1050C000C7010E9480390E945035C8010E94651FA7
:1050D00024C064E177E0CE0107960E94C5328823A0
:1050E00021F0F80162A173A10BC067E377E0CE0164
:1050F00007960E94C532882341F0F80164A175A18A
:10510000A701C8010E94591E08C0C8010E94811F42
:105110004FE156E06CEA73E041DDCE0101960E945A
:105120004932CE0107960E9449322C960FB6F89468
:10513000DEBF0FBECDBFDF91CF911F910F91FF90CA
:10514000EF900895AF92BF92CF92DF92EF920F93BC
:105150001F93CF93DF93EC016B01B42E20E0AB01E2
:1051600062E070E00E947A1C87EB97E09983888365
:105170008AE0E6E2F2E0DE01969601900D928A95D1
:10518000E1F76B2DCE010E94881FCE010E94851F82
:10519000882331F045E557E06CEA73E0C601FEDC98
:1051A0008AE090E00E94F1325C01E12C86012EE65B
:1051B00037E040E068E270E00E942D1CBBA2AAA28A
:1051C00061E0CE010E94931F8AE090E00E94F132DC
:1051D0005C0123E937E040E069E270E00E942D1CA9
:1051E000BDA2ACA261E0CE010E94961F2EE133E089
:1051F000A60161E070E0CE010E949D1CBC01CE01C1
:105200000E948F1F24E433E0A60160E070E0CE012D
:105210000E949D1CBC01CE010E948B1FBE016A5DD5
:105220007F4FCE010E94991F65E070E0CE010E9481
:105230009D1FB601CE01DF91CF911F910F91EF908D
:10524000DF90CF90BF90AF900C94521E0F9300E070
:1052500020E040E060E088E49EE00E9443310F914E
:105260000895089529EE38E0FC01318320830C94E1
:105270006D1CCF93DF93EC01F5DFCE01DF91CF9171
:105280000C94F2321F93CF93DF93EC01162F8AA177
:105290009BA10E94001C612F8CA19DA1DF91CF9149
:1052A0001F910C94001CFC0186A197A10C94001C7A
:1052B000EF92FF920F931F93CF93DF93CDB7DEB79B
:1052C0002C970FB6F894DEBF0FBECDBF8C017A01CC
:1052D000CE0107960E94B032B701CE0101960E941E
:1052E000B03263EC77E0CE0107960E94C532882386
:1052F00029F0B701C8010E94B41E52C06EED77E0DC
:10530000CE0107960E94C532882349F0C7010E944A
:105310008039AB01BC01C8010E94451F41C068E053
:1053200078E0CE0107960E94C532882349F0C70174
:105330000E9480390E945035C8010E94651F30C00C
:105340006FE278E0CE0107960E94C532882321F0F3
:10535000F80162A173A10BC06EE478E0CE0107965C
:105360000E94C532882341F0F80164A175A1A7010C
:10537000C8010E94591E14C06DE678E0CE01079660
:105380000E94C532882321F0F80166A177A1EFCFF2
:10539000C8010E94811F4FE156E06CEA73E0FEDB1A
:1053A000CE0101960E944932CE0107960E944932F1
:1053B0002C960FB6F894DEBF0FBECDBFDF91CF9114
:1053C0001F910F91FF90EF900895AF92BF92CF92EF
:1053D000DF92EF920F931F93CF93DF93EC016B015A
:1053E000B42E20E0AB0165E070E00E947A1C89EEEB
:1053F00098E0998388838CE0E0E3F2E0DE01989600
:1054000001900D928A95E1F76B2DCE010E94881FC5
:10541000CE010E94851F882331F045E557E06CEAF4
:1054200073E0C601BBDB8AE090E00E94F1325C01D0
:10543000E12C860127E838E040E062E270E00E945B
:105440002D1CBBA2AAA28AE090E00E94F1325C016E
:1054500028EA38E040E063E270E00E942D1CBDA223
:10546000ACA261E0CE010E94931F8AE090E00E940E
:10547000F1325C0129EC38E040E06BE270E00E9420
:105480002D1CBFA2AEA261E0CE010E94961F22E9B0
:1054900032E0A60161E070E0CE010E949D1CBC01DB
:1054A000CE010E948F1F24EB32E0A60160E070E085
:1054B000CE010E949D1CBC01CE010E948B1FBE012B
:1054C000685D7F4FCE010E94991F66E070E0CE01BB
:1054D0000E949D1FB601CE01DF91CF911F910F91C8
:1054E000EF90DF90CF90BF90AF900C94521E0F932F
:1054F00000E020E040E060E08EE49EE0C4D60F9142
:10550000089508950895CF93DF93EC0187ED99E016
:10551000998388838AA19BA1009739F0DC01ED91E2
:10552000FC910280F381E02D19958CA19DA100973B
:1055300039F0DC01ED91FC910280F381E02D1995A9
:10554000CE01DF91CF910C946D1CCF93DF93EC01D2
:10555000DADFCE01DF91CF910C94F2321F93CF931B
:10556000DF93EC01162F8AA19BA10E94001C612FE2
:105570008CA19DA1DF91CF911F910C94001CEF9203
:10558000FF920F931F93CF93DF93CDB7DEB72C9786
:105590000FB6F894DEBF0FBECDBF8C017A01CE01ED
:1055A0000796DED7B701CE010196DAD765EF78E02E
:1055B000CE010796EAD7882329F0B701C8010E94D7
:1055C000B41E32C061E179E0CE010796DED78823B0
:1055D00049F0C7010E948039AB01BC01C8010E949B
:1055E000451F22C06CE379E0CE010796CED7882311
:1055F00021F0F80162A173A10AC06CE579E0CE0147
:105600000796C3D7882341F0F80164A175A1A701CB
:10561000C8010E94591E08C0C8010E94811F4FE1A5
:1056200056E06CEA73E0BADACE01019632D7CE01C9
:1056300007962FD72C960FB6F894DEBF0FBECDBFBE
:10564000DF91CF911F910F91FF90EF900895AF924E
:10565000BF92CF92DF92EF920F931F93CF93DF937E
:10566000EC016B01B42E20E0AB0163E070E00E941E
:105670007A1C87ED99E09983888388E0ECE3F2E077
:10568000DE01969601900D928A95E1F76B2DCE0181
:105690000E94881FCE010E94851F882331F04CE7AD
:1056A00059E06CEA73E0C60179DA8AE090E099D7B4
:1056B0005C01E12C86012FE839E040E060E270E017
:1056C0000E942D1CBBA2AAA28AE090E08AD75C01AE
:1056D00021EB39E040E061E270E00E942D1CBDA2A8
:1056E000ACA261E0CE010E94931F2FE632E0A6013A
:1056F00061E070E0CE010E949D1CBC01CE010E94C1
:105700008F1FBE016A5D7F4FCE010E94991F64E02A
:1057100070E0CE010E949D1FB601CE01DF91CF91B6
:105720001F910F91EF90DF90CF90BF90AF900C94AE
:10573000521E0F9300E020E040E060E084E59EE030
:10574000A2D50F91089508950895CF93DF93EC01AA
:105750008EE79AE0998388838AA19BA1009739F00C
:10576000DC01ED91FC910280F381E02D1995CE01D1
:10577000DF91CF910C946D1CCF93DF93EC01E5DFAB
:10578000CE01DF91CF912EC7FC0182A193A10C9491
:10579000001CEF92FF920F931F93CF93DF93CDB72F
:1057A000DEB72C970FB6F894DEBF0FBECDBF8C01CD
:1057B0007A01CE010796D4D6B701CE010196D0D694
:1057C00063EE79E0CE010796E0D6882329F0B70191
:1057D000C8010E94B41E27C06EEF79E0CE01079683
:1057E000D4D6882349F0C7010E948039AB01BC019F
:1057F000C8010E94451F17C06EE27AE0CE010796ED
:10580000C4D6882341F0F80162A173A1A701C801A1
:105810000E94591E08C0C8010E94811F4FE156E036
:105820006CEA73E0BBD9CE01019633D6CE01079660
:1058300030D62C960FB6F894DEBF0FBECDBFDF91E9
:10584000CF911F910F91FF90EF900895AF92BF926B
:10585000CF92DF92EF920F931F93CF93DF93EC01E0
:105860006B01B42E20E0AB0161E070E00E947A1C75
:105870008EE79AE09983888386E0E4E4F2E0DE0133
:10588000949601900D928A95E1F76B2DCE010E94BE
:10589000881FCE010E94851F882331F04CE759E014
:1058A0006CEA73E0C6017AD98AE090E09AD65C018E
:1058B000E12C860123E53AE040E064E270E00E94DA
:1058C0002D1CBBA2AAA261E0CE010E94931F23ED72
:1058D00032E0A60161E070E0CE010E949D1CBC0197
:1058E000CE010E948F1FBE016C5D7F4FCE010E94D2
:1058F000991F63E070E0CE010E949D1FB601CE01AA
:10590000DF91CF911F910F91EF90DF90CF90BF90DB
:10591000AF900C94521E0F9300E020E040E060E056
:105920008AE59EE0B0D40F9108952EE83AE0FC019C
:10593000318320830C94D01ACF93DF93EC01F5DFF1
:10594000CE01DF91CF914EC6EF92FF920F931F933E
:10595000CF93DF93EC018B01000F111F0C0F1D1F64
:10596000F80182819381892B09F055C0623071055D
:1059700009F447C094F46115710511F161307105A6
:1059800009F049C08AE290E02CD67C01688D798DBF
:1059900040E05CDFFD82EC823EC06430710531F195
:1059A000D4F06530710509F036C084E390E019D673
:1059B0007C01688D798D40E008DDFD86EC862BC08A
:1059C0008EE290E00ED67C01688D798D40E08FDA12
:1059D000FB82EA8220C08EE290E003D67C01688DD3
:1059E000798D40E034DEF986E88615C08AE290E0E1
:1059F000F8D57C01688D798D40E07AD1FB86EA8606
:105A00000AC080E390E0EDD57C01688D798D40E09F
:105A100099DBFF82EE82F80182819381DF91CF9141
:105A20001F910F91FF90EF900895EF92FF920F93C7
:105A30001F93CF93DF93EC017B018A0160E572E055
:105A4000C7010E949B39892B61F4B801882777FD33
:105A50008095982F0E948335AB01BC018A819B8180
:105A600012C06FE672E0C7010E949B39892B99F43E
:105A7000B801882777FD8095982F0E948335AB0168
:105A8000BC0188859985DF91CF911F910F91FF907F
:105A9000EF900C94DE1E62E972E0C7010E949B3910
:105AA000892B61F4B801882777FD8095982F0E9493
:105AB0008335AB01BC018C859D85E5CF64EB72E03D
:105AC000C7010E949B39892B21F4B8018C859D85E3
:105AD00041C063ED72E0C7010E949B39892B61F4DC
