:10000000CFC10000FEC10000FCC10000FAC1000029
:10001000F8C10000F6C10000F4C10000F2C1000008
:10002000F0C10000EEC10000ECC10000EAC1000018
:10003000E8C10000E6C10000E4C10000E2C1000028
:10004000E0C10000DEC10000DCC10000DAC1000038
:10005000D8C10000D6C10000D4C100000C945531B5
:10006000D0C100000C94B92E0C94EF2ECAC1000030
:10007000C8C10000C6C10000C4C10000C2C1000068
:10008000C0C10000BEC10000BCC10000BAC1000078
:10009000B8C10000B6C10000B4C10000B2C1000088
:1000A000B0C10000AEC10000ACC10000AAC1000098
:1000B000A8C10000A6C10000A4C10000A2C10000A8
:1000C000A0C100009EC100009CC100009AC10000B8
:1000D00098C1000096C1000094C1000092C10000C8
:1000E00090C100005B0C720CEF0CD90DF80D150ED1
:1000F0001D0ECF0D77327A3269326D327332B132E2
:100100007E32823288328C32903296329A329E32ED
:10011000B132A432A832AC3200000A0B02090C0D35
:100120000E080703040100000000000000000000AA
:1001300000000000000000000000000000000000BF
:10014000000000001211100000000000000000007C
:10015000000000000000000000000000000001029C
:1001600010202008081020401020408002010201C9
:100170000804020101020408102040808040201081
:1001800008040201800402018040201008040201DA
:100190000804020101020408102040800102040842
:1001A000102040800505050507050808080802021B
:1001B00002020A0A08080404040401010101010101
:1001C00001010303030303030303040707070C0CE4
:1001D0000C0C0C0C0C0C02020202060606060606AB
:1001E00006060B0B0B0B0B0B0B0B00002000230068
:1001F000260029002C002F0032000001000003011E
:100200000601090100002200250028002B002E0015
:100210003100340002010000050108010B0100005B
:100220002100240027002A002D00300033000101A6
:100230000000040107010A014E414E494E4954593C
:10024000494E46CDCCCC3D0AD7233C17B7D13877A1
:10025000CC2B329595E6241FB14F0A0000204100B7
:1002600000C84200401C4620BCBE4CCA1B0E5AAE01
:10027000C59D7400407A10F35A00A0724E18090010
:1002800010A5D4E80000E87648170000E40B5402FB
:100290000000CA9A3B000000E1F505000080969836
:1002A00000000040420F000000A086010000001086
:1002B0002700000000E803000000006400000000C8
:1002C000000A00000000000100000000002C76D8A9
:1002D00088DC674F0823DFC1DFAE59E1B1B796E58F
:1002E000E3E453C63AE651997696E8E6C28426EBF3
:1002F000898C9B62ED407C6FFCEFBC9C9F40F2BA06
:10030000A56FA5F490055A2AF75C936B6CF9676D9D
:10031000C11BFCE0E40D47FEF520E6B500D0ED90F2
:100320002E0300943577050080841E080000204EBF
:100330000A000000C80C333333330F986E12831158
:1003400041EF8D2114893BE65516CFFEE6DB18D12F
:10035000844B381BF77C1D901DA4BBE42420328401
:10036000725E228100C9F124ECA1E53D27002F0334
:100370004A11551117157B18891894182C1A911ABF
:10038000C21A301BB41B2E1C6D1FA71F0A207C260F
:10039000B7270729292A1B2B4E2C402D212FB12F9F
:1003A00011241FBECFEFD1E2DEBFCDBF00E00CBFF6
:1003B00019E0A0E0B2E0EAEDF7E700E00BBF02C011
:1003C00007900D92AA3FB107D9F72EE0AAEFB9E046
:1003D00001C01D92A73BB207E1F713E0C0EAD3E0EA
:1003E00000E006C022970109FE010BBF0E944A35BA
:1003F000CE36D10780E00807A9F70E9447310C9458
:10040000EB3BFECD23E230E040E050E06FE070E0F7
:1004100080E090E00E949030AB0166E472E0809151
:10042000C90A9091CA0A0E94201A23E230E040E0F3
:1004300050E06FE070E080E090E00E949030AB010F
:1004400065E672E08091C90A9091CA0A0E94201A5A
:1004500023E230E040E050E06FE070E080E090E0C8
:100460000E949030AB0168E872E08091C90A9091D7
:10047000CA0A0E94201A24E630E040E050E06DE213
:1004800070E080E090E00E949030AB016AEA72E098
:100490008091C90A9091CA0A0E94201A23E230E092
:1004A00040E050E06FE070E080E090E00E9490302B
:1004B000AB0169EC72E08091C90A9091CA0A0E946E
:1004C000201A23E230E040E050E06FE070E080E08E
:1004D00090E00E949030AB0161EF72E08091C90A18
:1004E0009091CA0A0C94201A0F931F93CF93DF9315
:1004F00000D000D0CDB7DEB726E040E052EC61E09E
:1005000070E086E09DE00E94592E87EF99E09A8383
:1005100089838091DD0A9091DE0AA091DF0AB09173
:10052000E00A8B839C83AD83BE83AE014F5F5F4F38
:100530006EE072E083E89CE00E94CE176091C90AE9
:100540007091CA0A8091CB0A9091CC0A0E943B1B01
:100550008BE090E00E9453318C014091CB0A509186
:10056000CC0A6091A40A7091A50A20E00E948D191E
:100570001093CA0A0093C90A8091A40A9091A50A0F
:10058000DC01ED91FC910480F581E02D60E070E0EC
:1005900019958091A40A9091A50ADC01ED91FC9136
:1005A0000480F581E02D63E070E019958091A40A44
:1005B0009091A50ADC01ED91FC910480F581E02D7C
:1005C00065E070E019958091A40A9091A50ADC017C
:1005D000ED91FC910480F581E02D61E070E01995CA
:1005E0008091A40A9091A50ADC01ED91FC91048010
:1005F000F581E02D64E070E019958091C90A909131
:10060000CA0A0E94B21922E032E040E355E760E0F6
:1006100070E08AEF99E00E947819F4DE26960FB612
:10062000F894DEBF0FBECDBFDF91CF911F910F9128
:1006300008956091C90A7091CA0A8091CB0A90917D
:10064000CC0A0E943B1B882331F08091CB0A909109
:10065000CC0A0E94AF238AEF99E00C941D190F93E6
:100660001F93CF93DF9300E020E040E060E081EE55
:100670009AE00E94A52F05E22EEF48EA60EC8BED90
:100680009AE00E94A52F8DEC9AE00E944B128DE912
:1006900090E00E945331EC010DEC1AE02FE83BE1B1
:1006A0004BE557E06AE072E00E944026D093CC0A06
:1006B000C093CB0A69E08BEB9AE00E9427206BEB9A
:1006C0007AE088EA9AE00E9488268091CB0A90918D
:1006D000CC0A0E94302C9093A50A8093A40A8AEF3A
:1006E00099E0DF91CF911F910F910C94EC18882322
:1006F00081F08F3F29F48091E90A9091EA0A0895E8
:1007000095E0899FF0011124E251F54F8281938198
:10071000089580E090E00895CF93DF93D82FC62FFF
:1007200060E085E30E94EB329C2F9F719D2B9EBD64
:100730000DB407FEFDCF1EBC0DB407FEFDCFC7FDF7
:1007400008C061E085E30E94EB328EB5DF91CF9166
:1007500008951EBC0DB407FEFDCFF3CF0F931F937A
:10076000CF93DF931F92CDB7DEB7182F062F60E02F
:1007700085E349830E94EB32602F6F71612B6EBD60
:1007800049810DB407FEFDCF4EBD0DB407FEFDCF70
:1007900061E085E30F90DF91CF911F910F910C9451
:1007A000EB320F931F93CF93DF938C01EB0160E04B
:1007B00085E30E94EB328AE38EBD0DB407FEFDCFC8
:1007C0000C0F1D1FC017D10739F01EBC0DB407FE5A
:1007D000FDCF8EB58993F6CF61E085E3DF91CF91B0
:1007E0001F910F910C94EB320F931F93CF93DF93D4
:1007F0008C01EB0160E085E30E94EB328AE78EBD5D
:100800000DB407FEFDCF0C0F1D1FC017D10731F02F
:1008100089918EBD0DB407FEFDCFF7CF61E085E372
:10082000DF91CF911F910F910C94EB321F93CF93D7
:10083000DF93182F1076C12FD0E02091140230E002
:10084000C217D30779F043E06FE180EA87DFAE019A
:1008500085E0559547958A95E1F76FE180E87EDF61
:1008600010931402DF91CF911F910895CF93DF93DE
:100870001F92CDB7DEB7682F6983D8DF698180E02A
:100880000F90DF91CF9148CF1F93CF93DF931F92AB
:10089000CDB7DEB7182F6983C9DF4981612F80E4A6
:1008A0000F90DF91CF911F9159CF1F93CF93DF937B
:1008B0001F921F92CDB7DEB7182F69837A83B6DFF8
:1008C0004981612F80E44ADF61E0610F7A81472F1F
:1008D00080E40F900F90DF91CF911F913FCF6091F7
:1008E000EC0A7091ED0A6115710519F061507109FA
:1008F00002C06FEF77E08CE0D8CFF1CFFF920F937B
:100900001F93CF93DF9389E3B1DF882309F444C0B9
:100910006091EC0A7091ED0AEB012696C11588E012
:10092000D80710F0CF5FD74080E0BFDF60E08AE3F8
:10093000F3DE90E09093ED0A8093EC0A60E08AE3A6
:10094000EBDE2091EC0A3091ED0A382B3093ED0A62
:100950002093EC0A60E08AE3DFDE082F60E08AE3A0
:10096000DBDE182F60E08AE3D7DEF82E40E46EE18C
:1009700080E8F4DEF7FE0FC0D093E80AC093E70AE0
:10098000202F30E0312B245031093093EA0A209394
:10099000E90A8FEF02C0A3DF80E0DF91CF911F91C2
:1009A0000F91FF900895EF92FF920F931F93CF93B3
:1009B000DF938B017A018F3FC1F025E0829FE00138
:1009C0001124C251D54F02C0C7EEDAE068817981A7
:1009D000600F711F80E069DF8A819B81801B910B12
:1009E000E816F90690F4C70110C08091E70A9091CB
:1009F000E80A860F971F811528E0920728F3BC01AB
:100A00006F5F7740C7EEDAE0E5CFDF91CF911F91BE
:100A10000F91FF90EF9008950F931F93CF93DF9363
:100A20008A01A901C0DFEC01B801BBDECE01DF9174
:100A3000CF911F910F910895CF92DF92EF92FF9285
:100A40000F931F93CF93DF938B016A01790195E098
:100A5000899FE0011124C251D54F68817981600FCF
:100A6000711F82E022DF0A80DB81C02DC01BD10B09
:100A7000EC16FD0608F4E701B601CE01B5DECE01A5
:100A8000DF91CF911F910F91FF90EF90DF90CF906A
:100A90000895BC0180E009DF60E085E30E94EB324D
:100AA0008AE38EBD0DB407FEFDCF1EBC0DB407FE5C
:100AB000FDCF61E085E30E94EB328EB50895CF93C0
:100AC000C62FBC0182E0F1DE60E085E30E94EB32DC
:100AD0008AE78EBD0DB407FEFDCFCEBD0DB407FE77
:100AE000FDCF61E085E3CF910C94EB32FF920F9341
:100AF0001F93CF93DF9395E0899FF0011124E2517A
:100B0000F54FC081D1812197028113810C0F1D1FE8
:100B1000CE01BFDFF82E882319F060E0CE01CFDFD1
:100B2000BE0184E0C2DEB80186E0BFDE48E06FE1CE
:100B300080E814DE8CE19ADE81FF04C048E06FE1BA
:100B400080EA0CDEFF2041F06F2DCE01DF91CF91C6
:100B50001F910F91FF90B3CFDF91CF911F910F9114
:100B6000FF900895CF92DF92EF92FF920F931F9321
:100B7000CF93DF937C01EB014130510569F4CB0148
:100B800088DF682FC701DF91CF911F910F91FF90F0
:100B9000EF90DF90CF9093CF6A01C60ED71E8601EB
:100BA0000150110980E181DEB70184E17EDEC115CB
:100BB000D84030F4011588E0180710F00F5F174097
:100BC000B80182E172DE40E16FE180EAC7DD40E218
:100BD0006FE180E8C3DD6FE180E09EDD85FDFBCF46
:100BE000DF91CF911F910F91FF90EF90DF90CF9009
:100BF00008950F931F93CF93DF93EB01E5E0E89FF8
:100C0000D0011124A251B54F4F3FB9F0E49FF0013C
:100C10001124E251F54F02C0E7EEFAE060817181E4
:100C2000620F731F8D919C91A8018C0F9D1F9ADFFD
:100C3000DF91CF911F910F9152CEE091E70AF09191
:100C4000E80AE20FF31FE11588E0F80728F3BF0177
:100C50006F5F7740E7CFCF93DF93EB01682F84ED91
:100C600013DEBE0186ED21DE8AEE00DE80FF05C0C8
:100C70008FE090E00E94F331F7CFDF91CF9108959C
:100C8000CF93DF93EC01D0D061E085E30E94B232D4
:100C900061E085E30E94EB3261E083E30E94B232BF
:100CA00061E084E30E94B23260E082E30E94B232EB
:100CB00061E085E30E94B23260E083E30E94EB32A0
:100CC00060E084E30E94EB3280E58CBD8DB58160ED
:100CD0008DBD4FEF60E08FEF41DD62E370E080E0BB
:100CE00090E00E94CE311092ED0A1092EC0A60E082
:100CF00070E088E0DADD60E070E08CE0D6DD6FEF78
:100D000077E08AE0D2DD61EB88E3BEDD6FE370E37C
:100D100088E2CBDD69EF77EF80E3C7DD6DE070E05F
:100D200080ECC3DD42E362EC80E818DD62E17CE048
:100D300086ECBBDD62E184ECA7DD6CED75E08AEC4E
:100D4000B4DD688184EEA0DD698185EE9DDD6A8178
:100D500082EE9ADD6B8183EE97DD6C8180EE94DD0F
:100D60006D8181EE91DD60E071E080E174DF8FE103
:100D70005DDD40EC6BE180E8F1DC44E06FE180E8B0
:100D8000EDDC66E774E084E1DF91CF9164CF0F93EF
:100D90001F93CF93DF93EC01862FBA01A90103DEE5
:100DA0008C010150110960E085E30E94EB328AE377
:100DB0008EBD0DB407FEFDCF20E030E020173107D7
:100DC000C0F41EBC0DB407FEFDCF8EB590E0982F89
:100DD00088271EBC0DB407FEFDCF4EB5840F911DB4
:100DE000C80FD91FC817D90708F421962E5F3F4FA7
:100DF000E5CF2017310771F41EBC0DB407FEFDCFFF
:100E00008EB590E0982F8827C80FD91FC817D9072B
:100E100008F4219661E085E30E94EB32CE01DF9178
:100E2000CF911F910F910895EEEEFAE08DECDF0166
:100E30001D928A95E9F781E098E091838083089577
:100E4000DF92EF92FF920F931F93CF93DF937C017A
:100E50004091EE0A5091EF0A4150584E80E098E1DF
:100E6000EEEEFAE000E0C0E0D0E025E0D22E148102
:100E7000112341F0D19ED0011124A251B54F2D91E3
:100E80003C9101C09A0160817181261B370B628100
:100E90007381261B370B2E153F0539F485E0089F1B
:100EA000E0011124C251D54F48C0E216F30648F4C0
:100EB0002817390730F4D09EE0011124C251D54FD4
:100EC000C901111107C02097C1F5CEEEDAE085E027
:100ED000D82E1DC0D19EF0011124E251F54F012FF3
:100EE000C6CF0A811B8188819981080F191FD29E64
:100EF000E0011124C251D54F688179810617170787
:100F000031F04A815B81C8012DDE198308832C8171
:100F10002111E7CF2091EE0A3091EF0A8881998163
:100F2000281B390B8A819B81281B390B2150384E95
:100F30002E153F0510F480E019C0E3EFFAE081E0E0
:100F400022813381232B29F035968F5F8932C1F7B7
:100F5000F2CF2A813B8148815981240F351F31838B
:100F60002083F382E2829C8194838C83DF91CF91F2
:100F70001F910F91FF90EF90DF9008958823F9F073
:100F8000EEEEFAE025E09481981311C095E0899F78
:100F9000D0011124A251B54F14968C9114978483DB
:100FA00013961C921E92129714961C9208959923E0
:100FB00031F0299FF0011124E251F54FE4CF08955B
:100FC00095E0899FF0011124E251F54F80819181D4
:100FD000860F971F9183808382819381861B970B55
:100FE00093838283089595E0899FF0011124E25153
:100FF000F54F80819181860F971F91838083538362
:1010000042830895FC015381560F5093B90D872FE9
:1010100099274281480F4093B80DA181A093B70D45
:10102000E081E093B60D242F30E02817390748F40B
:1010300081E08A0F8093B70D811103C0EF5FE093C9
:10104000B60D852F90E077278617970788F44F5FB6
:101050004093B80D41110CC08091B70D8F5F809304
:10106000B70D811105C08091B60D8F5F8093B60DCD
:1010700008952091BD0D3091BE0DBC01C9010896A7
:10108000C1DFE091BD0DF091BE0D8091B60D80875E
:101090008091B70D81878091B80D82878091B90DBD
:1010A0008387089580E0E82FF0E0EE0FFF1FE95CF2
:1010B000F14F118210828F5F8430A8F380E09EE1AF
:1010C000989FF0011124E154F24F118E8F5F84300C
:1010D000B8F38093BE0B80E094E09093C00B8093B4
:1010E000BF0B0895CF932091BF0B3091C00B2F5FA2
:1010F0003F4F21154DE7340710F020E030E1522F2B
:10110000432FEFEBFDE0C0E0C43059F0A18DAA23DE
:1011100029F0A481B581A417B50749F3CF5F7E9666
:10112000F3CF3093C00B2093BF0B1092BE0B20E087
:10113000E0E0F0E04EE12430E0F4429FD0011124E1
:10114000A154B24F59963C915997311104C0209344
:10115000BE0BFD0110C0373041F4309739F05A967C
:101160005C915A97328D351708F0DF012F5FFD0132
:10117000E2CF2093BE0B3097B1F122E0218F209176
:10118000C10B24872091C20B25872091C30B268792
:101190002091C40B278720E032E0338B228B358BE4
:1011A000248B21E030E0318B208B138E228F23E0C3
:1011B000208F168A20E1278B2091BF0B3091C00B26
:1011C0003227232732273583248377836683DC0104
:1011D0002D913C9111973183208312968D919C9192
:1011E000139793838283CF01CF9108951F93CF9359
:1011F000DF93C091BD0DD091BE0D21E83EE030934C
:10120000BC0D2093BB0D3093B50D2093B40D8330EE
:1012100059F4898D8F70833009F0A9C5888999891F
:10122000892B09F0A4C57FC0823009F080C080916D
:10123000C40B8F5F8093C40B811113C08091C30BCB
:101240008F5F8093C30B81110CC08091C20B8F5FA5
:101250008093C20B811105C08091C10B8F5F809379
:10126000C10B1092B30D1092B20D1092B00E1092ED
:10127000AF0E298D822F8D7F853041F48A8D8F5F4F
:101280008A8F883709F073C5198E71C5222309F436
:101290006EC588899989892B09F441C08A8D9FEF91
:1012A000980F9A8F811163C58B8D883031F09FEF35
:1012B000920F923048F4853039F4198E80E880938B
:1012C000BA0D0E940D1412C4853038F493E0082E34
:1012D00001C0990F0A94EAF701C090E39A8F8F5FDB
:1012E0008B8F822F8F708330A1F048F4813009F406
:1012F0002FC2823009F03BC510927A0E2CC2863084
:1013000009F495C3883009F492C3843009F02FC5DD
:101310008EC384E08093BA0D0E940D1419C42F70FF
:10132000233009F024C588E08093BA0DD5C380919D
:10133000590E853409F01BC580915B0E90E0982F03
:10134000882720915C0E820F911D2091B20D309163
:10135000B30D2817390708F40AC59093B30D80938D
:10136000B20D80915F0E8F7309F001C58091600E00
:101370008111FDC48091470E9091480E009731F481
:101380002091490E30914A0E232BA1F02091690E35
:1013900030916A0E2817390709F0E9C420916B0EC5
:1013A00030916C0E8091490E90914A0E28173907A2
:1013B00009F0DDC40E947A18019609F0D8C4809122
:1013C000620E8630D1F1813009F0D1C480916D0E6A
:1013D000883009F0CCC410926D0E80916F0E909100
:1013E000700E873FAFEF9A0710F0099601C008967C
:1013F0009093700E80936F0E8091650E9091660EA3
:1014000090936A0E8093690E8091670E9091680E9A
:1014100090936C0E80936B0E8091470E9091480EC6
:101420009093660E8093650E8091490E90914A0EBE
:101430009093680E8093670E9EC40E943E1801969A
:1014400009F095C480916F0E9091700E20916D0EF1
:1014500030916E0E4091650E5091660E6091670E50
:101460007091680EE8EDFDE0CFEBDDE01081112317
:10147000A9F0AC81BD818A179B0781F4AE81BF8141
:101480002A173B0759F4A881B9814A175B0731F441
:10149000AA81BB816A177B0709F474C16E967E9698
:1014A000AEE0C733DA0711F720917A0E2F7322309E
:1014B000E1F49093BC0B8093BB0B40E0443098F474
:1014C000E42FF0E0EE0FFF1FE95CF14F2081318146
:1014D0004F5F8217930791F71092BE0B20E0C0E098
:1014E000D0E03EE17EC04093BE0B80917A0E82FD3B
:1014F0003EC484E180937A0E88E290E09093B30D2D
:101500008093B20D80E58093790E8091740E909156
:10151000780E9093740E3091730E9091770E909395
:10152000730E3093770E2091720E9091760E9093F9
:10153000720E2093760E9091710E9093BE0B409197
:10154000750E4093710E9093750E8F5F8093780E99
:1015500081110FC081E0830F8093770E811109C044
:1015600081E0820F8093760E811103C09F5F90937C
:10157000750E80916D0E90916E0E9093BC0B8093C2
:10158000BB0B20916F0E3091700E30936E0E209336
:101590006D0E9093700E80936F0E8091650E9091FA
:1015A000660E90936A0E8093690E8091670E9091FB
:1015B000680E90936C0E80936B0E8091470E909105
:1015C000480E9093660E8093650E8091490E90911F
:1015D0004A0E9093680E8093670E8BC3473099F044
:1015E0002F5F2430F0F4822F90E0389FF001399F74
:1015F000F00D1124E154F24F418D4111EFCF2093B2
:10160000BE0BEF0110C0209721F0528D4A8D451777
:1016100038F7389FE001399FD00D1124C154D24FC3
:10162000DFCF2093BE0B209709F4A1C3D093BE0D4A
:10163000C093BD0D83E08A8F888F1E8A84E08F8BD4
:101640001B8E80916F0E9091700E9D838C83809184
:101650006D0E90916E0E9F838E838091650E90919A
:10166000660E998388838091670E9091680E9B83A4
:101670008A8381E0898F8091C10B8C878091C20B16
:101680008D878091C30B8E878091C40B8F8781E0FB
:1016900090E0998B888B8091740E8B878091730E6C
:1016A0008A878091720E89878091710E888781E088
:1016B00090E0DFDC8091790E282F207F30E021350B
:1016C00031050CF445C082958F7090E00597880F26
:1016D000991F880F991F3091BD0B20E0E22FF0E099
:1016E000E817F9078CF5E55BF14F36A9311105C014
:1016F0002093BE0B1092BD0B2BC0313011F42F5F25
:10170000EDCF3230E1F447A94430C9F42093BE0B49
:101710003093BD0B80AD90E0982F882721AD822BB0
:101720009093BC0B8093BB0B813022E0920710F0AA
:1017300080E092E09B8B8A8B9D8B8C8B09C047A9A4
:10174000442311F0240FCACF2093BE0B3093BD0B5E
:1017500080E180937A0E80917A0E826080937A0E77
:1017600082E08093810E94E09093820E8093830EAA
:101770001092840E8CE290E09093B30D8093B20DA2
:1017800080E665C2D093BE0DC093BD0D1092BA0D18
:1017900030917A0E32FF03C0198E80E206C220918A
:1017A000790E22952F70220F220F2093BE0B80916D
:1017B000B20D9091B30D4497821B91099093B30D94
:1017C0008093B20D1F70123021F4232F2F7322311A
:1017D000C9F0892B19F4832F8370A1F09091710EB9
:1017E000888598132AC29091720E8985981325C214
:1017F0009091730E8A85981320C29091740E8B85F8
:1018000098131BC234FF49C0688979896115710535
:1018100009F443C0CE010C96F5DB3091750E809132
:10182000B60D38133AC02091760E8091B70D28136B
:1018300034C09091770E8091B80D98132EC080918E
:10184000780E4091B90D841328C03C872D879E8760
:101850008F878B8D81111AC02E89888D9A8D891B57
:10186000922F969596959695891B280F2E8B87FD1E
:1018700081959F89392F36953695931B980F9F8BAD
:10188000822F869586958695890F888F81E0809333
:10189000BA0D888D8A8F198A188A498D842F8F7086
:1018A00090E0FC013197E830F10508F060C2EE5895
:1018B000FF4F0C943A358091BA0D80FF58C283E0F7
:1018C000898F80E48093BA0D198A188A8091B20DAD
:1018D0009091B30D009709F4FBC022E42093BA0D58
:1018E000C8DBF6C08091BA0D80FF6FC080917A0E80
:1018F0008F73823109F069C08091790E282F207F83
:1019000030E0213531050CF445C082958F7090E0B0
:101910000597880F991F880F991F3091BD0B20E004
:10192000E22FF0E0E817F9078CF5E55BF14F36A9F7
:10193000311105C02093BE0B1092BD0B2BC031306E
:1019400011F42F5FEDCF3230E1F447A94430C9F4F0
:101950002093BE0B3093BD0B80AD90E0982F88276D
:1019600021AD822B9093BC0B8093BB0B8130A2E006
:101970009A0710F080E092E09B8B8A8B9D8B8C8B7A
:1019800009C047A9442311F0240FCACF2093BE0BEE
:101990003093BD0B83E0898F8091710E8887809191
:1019A000720E89878091730E8A878091740E8B875F
:1019B00081E090E05EDB82E48093BA0D198A188A98
:1019C0001092B30D1092B20D83C080E28093BA0DD5
:1019D00024D7E091BD0DF091BE0D118E86CD809182
:1019E0007A0E80FF26C044FD24C088899989892BFE
:1019F00009F0BDC18091B20D9091B30D019639DB14
:101A00002091BA0D822F80618093BA0D8091B20D22
:101A10009091B30D892B19F022612093BA0DFDD658
:101A200081E090E0998B888B88E0898F1B8E81E123
:101A300005C185FF1CC080917F0E90E0982F8827FC
:101A40002091800E822B2091BB0D3091BC0D280F70
:101A5000391F3093BC0D2093BB0D2091B20D3091F6
:101A6000B30D281B390B3093B30D2093B20D809129
:101A7000B20D9091B30D009741F044FD06C0209146
:101A8000BA0D22602093BA0DF4DA80917B0E90E0BB
:101A9000982F882720917C0E820F911D9093BC0B6C
:101AA0008093BB0B2C893D892817390710F0892BAF
:101AB00021F43093BC0B2093BB0B8091BB0B909116
:101AC000BC0B9B8B8A8B8091BA0D837009F44FC13C
:101AD0001092B00E1092AF0EA0D68091BA0D85FF75
:101AE00007C01092B00E1092AF0E198E84E1A6C0FE
:101AF00084FF0AC01092B00E1092AF0E81E090E009
:101B0000998B888B84E091CF2091AF0E3091B00EED
:101B100021153105E1F080FF02C0198A188A8889F1
:101B20009989009781F48A899B898217930720F409
:101B30009093B00E8093AF0E8091AF0E9091B00E47
:101B4000998B888B04C09093B00E8093AF0E1B8E40
:101B50008091B40D9091B50D9093BC0D8093BB0D09
:101B60008091AF0E9091B00E892B59F08889998998
:101B7000009739F088969093B30D8093B20D88E169
:101B80000BC08091BA0D81FFF2C088E290E0909383
:101B9000B30D8093B20D80E180937A0E57C080918F
:101BA000BA0D80FFE4C0198E80E18093BA0D35D65E
:101BB000DEC08091B20D9091B30D009709F059DA13
:101BC00090917A0E8091BA0D90FF0BC080FF06C0F5
:101BD00087E0898F1A8E198A188A18C086E0898F43
:101BE00015C080FF1BC085E0898F198A188ABFC085
:101BF0008091B20D9091B30D009709F03ADA80917F
:101C00007A0E80FF0BC087E0898F1A8E81E090E00A
:101C100030DA80E18093BA0D00D60FC08091B20D0A
:101C20009091B30D892B49F4A2C08091BA0D80FF29
:101C30009EC087E0898F1A8E9AC080E180937A0EC9
:101C400088E290E09093B30D8093B20D80E580938D
:101C5000790E88858093750E89858093760E8A85A6
:101C60008093770E8B858093780E8C858093710E90
:101C70008D858093720E8E858093730E8F858093F1
:101C8000740E86E08093620E8C819D8190936E0E1F
:101C900080936D0E8E819F819093700E80936F0E56
:101CA0008091470E9091480E9093660E8093650E3A
:101CB0008091490E90914A0E9093680E8093670E22
:101CC0008881998190936A0E8093690E8A819B81A5
:101CD00090936C0E80936B0E898D84FF05C01092DB
:101CE0007C0E10927B0E05C082E080937B0E1092DA
:101CF0007C0E80E48093610E8091B20D9091B30DC3
:101D000090935B0E80935C0E1092800E10927F0E6B
:101D100010927E0E10927D0E0E943E188095909536
:101D200090937E0E80937D0E85E48093590E1092E1
:101D30005A0E1092600E10925F0E8091C50B90911A
:101D4000C60B01969093C60B8093C50B90935D0EC6
:101D500080935E0E1092640E1092630E0E947A18A9
:101D6000809590959093640E8093630E04C01092BA
:101D7000B30D1092B20D1092BA0DDF91CF911F9159
:101D8000089598278927982708959C01AB0170939F
:101D9000B00E6093AF0E1616170654F48091B40D72
:101DA0009091B50D2817390719F0B9010C94ED374A
:101DB0000895FF920F931F93CF93DF93DC01FB01F4
:101DC0001092D00B60E07BE0683010F5769FE00168
:101DD0001124CB52D44F2881398121153105B1F01E
:101DE0008A819B81009791F04D915C9111974217E8
:101DF000530761F412962D913C91139728173907D8
:101E000029F46093D00BDE0114964FC06F5FDCCFD6
:101E100020E03BE0283090F4329FE0011124CB52C7
:101E2000D44F88819981892B39F48A819B81892BB0
:101E300019F42093D00B30C02F5FECCF2093D00B40
:101E4000283051F50091CE0B802F90E010E070E02B
:101E500060E02BE0F22E683098F4F69EE001112449
:101E6000CB52D44FCA85AC014C1B5109212F30E015
:101E7000241735071CF4762F102F1C1B6F5FEBCF38
:101E80001093CD0B7093CF0B7093D00B8BE0789F9A
:101E9000E0011124CB52D44F4D915D916D917C9115
:101EA000DE014D935D936D937D9386E001900D92DD
:101EB0008A95E1F78091CE0B8A87DF91CF911F91B0
:101EC0000F91FF9008951092D00B9BE08091D00B62
:101ED000883068F4989FF0011124EB52F44F10827F
:101EE0001182128213828F5F8093D00BEFCF0895FF
:101EF0008091B20D9091B30D0E979093B30D809396
:101F0000B20D8091470E9091480E2091650E309150
:101F1000660E822793272091430E3091440E822330
:101F20009323892BB9F48091490E90914A0E209108
:101F3000670E3091680E822793272091450E3091CD
:101F4000460E82239323892B29F461E57EE085E602
:101F50009EE02FCF08958091B20D9091B30D109215
:101F6000B30D1092B20D8A9708F4089580915F0E18
:101F70009091600E811521E0920729F08115924021
:101F800009F475C008952091710E3091720E809100
:101F9000470E9091480E2817390709F083C0209109
:101FA000730E3091740E8091490E90914A0E28174D
:101FB000390709F077C061E67EE087E69EE0F9DE4A
:101FC00080E092E09093600E80935F0E86E0E1E601
:101FD000FEE0ABE6BEE001900D928A95E1F786E067
:101FE000E7ECFBE0A1E6BEE001900D928A95E1F7F7
:101FF00086E0E7ECFBE0A1E5BEE001900D928A955A
:10200000E1F786E0EBE6FEE0ABE4BEE001900D9286
:102010008A95E1F78091670E9091680E9093720E09
:102020008093710E8091690E90916A0E9093740E58
:102030008093730E8091470E9091480E9093680E96
:102040008093670E8091490E90914A0E90936A0E8C
:102050008093690E88E096E09093580E8093570E17
:102060008AE290E09093B30D8093B20D0895209191
:10207000710E3091720E8091470E9091480E281784
:10208000390781F42091730E3091740E8091490EBE
:1020900090914A0E2817390729F461E67EE087E619
:1020A0009EE087CE08952091690E30916A0E2F3FF1
:1020B0004FEF340751F480916B0E90916C0E0196A6
:1020C00021F486E0E4E1F3E0C6C08091470E9091F0
:1020D000480E822793274091430E5091440E84234B
:1020E0009523892B91F440916B0E50916C0E809149
:1020F000490E90914A0E842795276091450E709164
:10210000460E86239723892B89F080913F0E90916C
:10211000400E9093D20B8093D10B8091410E909101
:10212000420E9093D40B8093D30B08C03093D20B04
:102130002093D10B5093D40B4093D30B8091D10BB0
:102140009091D20B2091D30B3091D40B60E07BE0C7
:10215000683090F4769FF0011124EB52F44F4081E7
:1021600051818417950731F4428153812417350733
:1021700009F46DC06F5FECCF6093D00B683009F04D
:1021800068C046E050E06FEF70E08BE49EE00E9494
:10219000F63726E0EBE6FEE0DF01422F1D924A957E
:1021A000E9F7E7ECFBE0A1E5BEE0822F01900D929C
:1021B0008A95E1F7E7ECFBE0A1E6BEE0822F019013
:1021C0000D928A95E1F78091D10B9091D20B90936B
:1021D000720E8093710E8091D30B9091D40B9093DB
:1021E000740E8093730E8091470E9091480E9093D9
:1021F000680E8093670E8091490E90914A0E9093DD
:102200006A0E8093690E80E091E09093600E809357
:102210005F0E90935A0E8093590E88E090E0909351
:102220005C0E80935B0E20935D0E84E080935E0EC7
:1022300088E096E09093580E8093570E81E89EE0D8
:102240009093BC0D8093BB0D8AE290E01EC060931A
:10225000D00B349686E0ABE4BEE001900D928A95F7
:10226000E1F786E0E7ECFBE0A1E5BEE001900D922E
:102270008A95E1F788E090E09093580E8093570E8E
:102280008091B20D9091B30D0E969093B30D809303
:10229000B20D08950F9300E020E040E060E08DE291
:1022A0009CE00E94A52F0F9108950F9300E020E07D
:1022B00040E060E083E39CE00E94A52F0F91089529
:1022C000DC01ED91FC91008CF18DE02D199591E0F0
:1022D0008927089580E090E00895DC011C96ED9137
:1022E000FC911D97309741F08181882311F081E0A6
:1022F0000895808184FDFBCF80E00895FC01448532
:1023000055854115510551F0FB0124853585211571
:10231000310521F081E04217530709F080E008956C
:10232000CF93DF931F92CDB7DEB7DC01ED91FC9127
:102330000088F189E02D41E050E0BE016F5F7F4FE2
:10234000199597FD03C0898190E002C08FEF9FEF40
:102350000F90DF91CF910895CF93DF93EC01A9D334
:10236000EC85FD85309749F0808186FD02C081E0D3
:1023700005C08181882311F0FACF80E0DF91CF91F1
:102380000895CF92DF92EF92FF920F931F93CF9316
:10239000DF9300D01F92CDB7DEB77C018B016A01BD
:1023A000DC01ED91FC910288F389E02D1995F8018B
:1023B000228130E0322F22278381282B32272327C6
:1023C00032273A832983248130E0322F22278581E6
:1023D000282B3227232732273C832B83C601D1DCCD
:1023E000BC01CE0101960E9472088C01009719F47D
:1023F00080E090E016C0D80159968C918F70C1F39F
:1024000058D3D80159968C9159978F70833099F78A
:102410005C968D919C915D97F7019587848781E00B
:1024200090E00F900F900F900F90DF91CF911F9140
:102430000F91FF90EF90DF90CF9008950F931F932F
:10244000CF93DF931F92CDB7DEB78C01DC01ED9106
:10245000FC910688F789E02D19958823A1F0D80111
:102460001C96ED91FC911D978181882361F021E0FC
:1024700030E0AE014F5F5F4F60E070E00E940C05FE
:10248000898190E002C08FEF9FEF0F90DF91CF9195
:102490001F910F910895FC011382128248EE53E0C0
:1024A00060E070E044835583668377838EE193E038
:1024B00091838083158614860895EF92FF920F937F
:1024C0001F93CF93DF937C01C0E0D0E000E010E0E9
:1024D000F701EC0FFD1F81810E947703080F191F80
:1024E0002196C530D105A1F7C801DF91CF911F9189
:1024F0000F91FF90EF900895CF93DF93EC01E88167
:10250000F9810688F789E02D1995882329F08C85B3
:102510009D85DF91CF91D1CF80E090E0DF91CF9189
:102520000895CF93DF93E9E3FCE080E0908191117F
:102530000AC08061DF018D9380E1ED0119928A95D7
:10254000E9F7CF0106C08F5F7196843079F780E09C
:1025500090E0DF91CF910895FC01319681E0919157
:10256000911102C0815008958F5F8530C1F784E0DA
:1025700008959F92AF92BF92CF92DF92EF92FF9217
:102580000F931F93CF93DF93EC016B017A018A01C4
:102590005C0186E0A80EB11C8CD2209709F445C0DE
:1025A0008881807609F041C0C501D6DF982EFE01F2
:1025B000E80FF11D868181110CC080E092E00E943D
:1025C0002007FE01E90DF11D8683882329F31C866F
:1025D0001B86A701401B510B4C0D5D1D6B857C8537
:1025E0009801FE01E90DF11D86810E941C05081B62
:1025F000190B2B853C85280F391F3C872B8710161C
:1026000011062CF484E0981639F29394D6CF0E94E8
:102610009F31665F7F4F8F4F9F4F6D877E878F877C
:10262000988BC701801B910B02C08FEF9FEFDF914A
:10263000CF911F910F91FF90EF90DF90CF90BF90BF
:10264000AF909F900895CF93DF931F92CDB7DEB7E1
:10265000698341E050E0BE016F5F7F4FFC018485DC
:10266000958587DF0F90DF91CF910895FC018485D8
:1026700095857FCF0F931F93CF93DF938C01EC0150
:1026800089910E94BE07F801C801049629912193FF
:10269000E817F907D9F7F8011482DF91CF911F915C
:1026A0000F9108959F92AF92BF92CF92DF92EF92D7
:1026B000FF920F931F93CF93DF93EC015B017A019D
:1026C000E881F9810688F789E02D1995882309F4B6
:1026D00055C0EC85FD858181882309F452C08701AE
:1026E0002EE1922EA701401B510B4A0D5B1DEC857C
:1026F000FD85980160E070E081810E940C056C010D
:10270000EC85FD8581810E947703EC85FD85C816E7
:10271000D90649F50C191D09CF010196ABDFAC852F
:10272000BD852C91822F90E08F70989EF001999E2C
:10273000F00D1124E154F24F818D84FF05C0822FEA
:10274000807611F420682C93EC85FD8581818111C0
:102750000FC0808186FF03C010821D861C86C701C2
:10276000801B910B10C0B60181810E94E00704C05C
:102770000115110509F0B6CFC70105C08FEF9FEF16
:1027800002C080E090E0DF91CF911F910F91FF9008
:10279000EF90DF90CF90BF90AF909F9008951F93E0
:1027A000CF93DF93EC0115E088810E94BE07199258
:1027B0001150D1F7DF91CF911F910895CF93DF93FF
:1027C000EC018C859D85009779F0FC012081222306
:1027D00059F00196E4DFEC85FD85808186FF02C01B
:1027E000108202C0806280831D861C86DF91CF919B
:1027F00060C1CF93DF93EC01E881F9810688F78906
:10280000E02D1995882331F08C859D850196DF9107
:10281000CF91C5CFDF91CF910895DF92EF92FF92D4
:102820000F931F93CF93DF93E091BD0DF091BE0DF9
:10283000C48DD58D209779F48091BA0D86FF43C061
:1028400070DEEC01009709F43EC0E091BD0DF091FF
:10285000BE0D958F848F8091BA0D81FF07C0809146
:10286000B20D9091B30D892B09F041C0888187FF8B
:102870000EC08F7788838091BA0D82608093BA0DE5
:10288000E091BD0DF091BE0D818D8F7E818F809185
:10289000BA0D84FF6BC0CE01069681DF8981882343
:1028A00009F467C0E091BD0DF091BE0D8481958162
:1028B0009F838E83888180648883E091BD0DF09131
:1028C000BE0D158E148EE12CF12CB7018091BB0D3D
:1028D0009091BC0D5ADAF092B30DE092B20DDF91F7
:1028E000CF911F910F91FF90EF90DF900895888115
:1028F000807609F0BBCFE12CF12C8E010E0D1F1D4F
:10290000F801818181111EC08091B20D9091B30DAB
:102910000E942007F80181838823A1F00091B20D65
:102920001091B30D2091BB0D3091BC0D2B543E4046
:102930004091910C60E070E00E94F905F4E0EF1224
:1029400095CF0CC02FEFE21AF20A35E0E316F1043E
:10295000A1F680918E0C8E7F80938E0CE091BD0D40
:10296000F091BE0D818D8061818F80CF87FF03C084
:1029700092CF1882A2CF80FF03C0CE0106967ADEE6
:102980008091BA0D8C70D1F18E818823B9F19F812D
:1029900091110CC0EB84FC84E114F10409F493CF91
:1029A000A70160E070E00E94F30706C00E94770371
:1029B0007C01009709F487CF8091BB0D9091BC0DED
:1029C0008B549E4080938F0CF701E80FF11DCF01CF
:1029D0000E9420078093900C882309F476CF6091A1
:1029E0008F0C70E0870120E030E04E810E94F905F5
:1029F00080918E0C826080938E0C67CF888185FFDA
:102A000062CF8E8181110BC01882E091BD0DF091D3
:102A1000BE0D158E148E80E18093BA0D54CFE091D7
:102A2000BD0DF091BE0D818D8061818F4CCF0F93D4
:102A300000E020E040E060E08DE79CE00E94A52FF0
:102A40000F91089580918E0C81FF11C020918F0C01
:102A500030E04BE45EE060E070E08091900C0E941A
:102A60001C0580918E0C8D7F80938E0C14C08091FC
:102A7000B20D9091B30D0E9420078093900C882393
:102A8000B1F02091B20D3091B30D4BE45EE060E007
:102A900070E00E941C058091900C0E947605809148
:102AA000900C0E94BE071092900C81E0089580E087
:102AB0000895CF92DF92EF92FF921F93CF93DF930F
:102AC0008091910C811104C00E947E048093910C2E
:102AD0008091910C882309F443C091E090938E0C6F
:102AE0000E9477039093B30D8093B20D892B61F10F
:102AF00022E630E04BE45EE060E070E08091910C13
:102B00000E940C058091570E9091580E88309105C7
:102B100081F48091910C8093900CEAD981E00E941D
:102B2000F6088091B20D9091B30D892B69F0BBDA54
:102B30000AC08830964041F40EDA8091B20D90912F
:102B4000B30D892B09F07EDF8091910C882341F031
:102B500080918E0C80FF04C00E947D041092910C25
:102B60000E949F316B017C018091840C9091850CB7
:102B7000A091860CB091870CA7019601281B390BF8
:102B80004A0B5B0BDA01C90180959095A095B09531
:102B90008827B7FD83959927AA27BB27182FCFEB46
:102BA000DDE0D093BE0DC093BD0D112311F082E086
:102BB0000FC0EC8DFD8D4585568567857089D701E1
:102BC000C601841B950BA60BB70BB7FD0BC083E0AA
:102BD0000E94F6082091B20D3091B30D232B11F015
:102BE00062DA30DF6E969EE0C733D907D1F6112343
:102BF00069F0AAEFCA0ED11CE11CF11CC092840C32
:102C0000D092850CE092860CF092870CDF91CF91E8
:102C10001F91FF90EF90DF90CF900895CF93DF93B7
:102C2000EC010E949F3166507F4F8F4F9F4F609302
:102C3000840C7093850C8093860C9093870CCE0146
:102C40000E94400688818093C70B89818093C80BBE
:102C50008A818093C90B8B818093CA0B8C8180936E
:102C6000CB0B8D818093CC0B0E945208DF91CF91CA
:102C70002AC9CF93DF93FC01DA01E901228130E018
:102C8000322F22278381282B848190E0982F882758
:102C90004581842B3227232732273093480E2093F7
:102CA000470E98278927982790934A0E8093490EBC
:102CB00012962C91129730E0322F222713968C9186
:102CC0001397282B14968C91149790E0982F8827AF
:102CD00015964C91842B3227232732273093400EB0
:102CE00020933F0E9827892798279093420E809330
:102CF000410E2A8130E0322F22278B81282B8C81B4
:102D000090E0982F88274D81842B32272327322764
:102D10003093440E2093430E982789279827909349
:102D2000460E8093450EFB0182819381A481B5817B
:102D300080938A0C90938B0CA0938C0CB0938D0C89
:102D4000DF91CF910895AF92BF92CF92DF92EF9231
:102D5000FF920F931F93CF93DF93CDB7DEB76897A2
:102D60000FB6F894DEBF0FBECDBFCB016A0159018B
:102D700055DF27EF39E03A832983F7018281938178
:102D8000A481B5818B839C83AD83BE8338872F83D9
:102D9000F80182819381A481B58189879A87AB8765
:102DA000BC873E872D87F50182819381A481B581FF
:102DB0008F87988BA98BBA8B3C8B2B8BF6018281EA
:102DC0009381A481B5818D8B9E8BAF8BB88F9E0133
:102DD0002F5F3F4FAE01495F5F4FBE01635F7F4F83
:102DE000CE01439646DF68960FB6F894DEBF0FBE5D
:102DF000CDBFDF91CF911F910F91FF90EF90DF90AA
:102E0000CF90BF90AF9008956F927F928F929F92D4
:102E1000AF92BF92CF92DF92EF92FF920F931F93E8
:102E2000CF93DF93CDB7DEB76E970FB6F894DEBFC2
:102E30000FBECDBF6C015B017A014901380100E092
:102E40002FEF4FEF6FEFCE0149960E94A52F27EF8E
:102E500039E03A8329838B8D9C8DAD8DBE8D8B831C
:102E60009C83AD83BE8338872F83F3018281938156
:102E7000A481B58189879A87AB87BC873E872D87D8
:102E8000F40182819381A481B5818F87988BA98B6E
:102E9000BA8B3C8B2B8BF701428153816481758106
:102EA0004D8B5E8B6F8B788FCE0101967C018E01EE
:102EB000095F1F4F9E01235F3F4FAE014D5E5F4F85
:102EC000B501C60140DF6E960FB6F894DEBF0FBEA7
:102ED000CDBFDF91CF911F910F91FF90EF90DF90C9
:102EE000CF90BF90AF909F908F907F906F900895FC
:102EF000CF92DF92EF92FF920F931F93CF93DF93C6
:102F0000CDB7DEB768970FB6F894DEBF0FBECDBF62
:102F10006B017901DA0112964D915D916D917C9171
:102F200015974D8B5E8B6F8B788FA7EFB9E0BA83C7
:102F3000A98321E0288F0D891E892F89388D0B8365
:102F40001C832D833E83B887AF83F70102811381F1
:102F50002481358109871A872B873C87BE87AD87F7
:102F60004F87588B698B7A8B8E010F5F1F4F9E01A5
:102F7000295F3F4FAE01435F5F4FB60145DF689663
:102F80000FB6F894DEBF0FBECDBFDF91CF911F917A
:102F90000F91FF90EF90DF90CF9008950F931F93C4
:102FA000CF93DF93CDB7DEB762970FB6F894DEBF4D
:102FB0000FBECDBFDB01FA0142815381648175816F
:102FC0004F87588B698B7A8BE7EFF9E0FA83E983B7
:102FD00021E02A8B0F85188929893A890B831C8364
:102FE0002D833E83F887EF8349875A876B877C87D9
:102FF0009E012F5F3F4FAE01495F5F4FBD0178DFFC
:1030000062960FB6F894DEBF0FBECDBFDF91CF91B1
:103010001F910F910895FB0141505109460F571F11
:10302000E417F50778F4208130E0322F2227618100
:10303000260F311D820F931F8217930708F4019604
:103040003296EECFE417F50751F4208130E0322FAD
:103050002227820F931F8217930708F40196089581
:1030600044E150E069E57EE080E090E0D4DF009745
:1030700011F00C94C10E8FEF9FEF08950F931F93E3
:10308000CF93DF9380915B0E90E0982F882720915B
:103090005C0E820F911D8C010451110948E050E033
:1030A00065E67EE00E97B7DFC091790EC695C695AE
:1030B000CC73D0E0AE016DE67EE0ADDFC017D10786
:1030C00050F498012C1B3D0BAE014E5D5F4F60919B
:1030D000900C0E94C706009731F0DF91CF911F91AD
:1030E0000F910C94C10E8FEF9FEFDF91CF911F9145
:1030F0000F910895B5CF0F9300E020E040E060E02D
:1031000082E99CE00E94A52F88E89CE00F910C9436
:103110009B2F0F9300E020E040E060E088E99CE016
:103120000E94A52F0F9108950F9300E020E040E04A
:1031300060E08EE99CE00E94A52F0F910895FC01AC
:1031400010820895CF92DF92EF92FF92CF93DF9398
:10315000EC016A017B018B859C85AD85BE859A015A
:10316000AB01281B390B4A0B5B0BDA01C901498102
:103170005A816B817C8184179507A607B707D8F021
:103180008881813019F0823029F00CC0E985FA85F8
:10319000199508C061E08885811160E068878F819A
:1031A0000E94EB32CB86DC86ED86FE868F85988981
:1031B0000196988B8F878D819E8197FD06C02F8504
:1031C0003889281739070CF01882DF91CF91FF90CA
:1031D000EF90DF90CF9008950F931F93CF93DF93DD
:1031E000EC018C0106551F4FCE01A9DF6196C01777
:1031F000D107D1F7DF91CF911F910F910895CF9211
:10320000DF92EF92FF921F93CF93DF936A017B01CE
:10321000EC011AE08881882321F0B701A601CE01D4
:1032200091DF115061961111F5CFDF91CF911F9170
:10323000FF90EF90DF90CF900895CF93DF93EC0154
:103240000E949F31AB01BC01CE01DF91CF91D7CF5E
:1032500020E0FC013081332331F02F5F41962A308A
:10326000C1F78FEF0895822F0895CF92DF92EF92EA
:10327000FF920F931F93CF93DF9300D01F92CDB790
:10328000DEB76C01790149835A836B837C83E0DF6D
:10329000282F49815A816B817C818F3FD9F081E150
:1032A0002802C00CD11C112481E0F60180834183E7
:1032B00052836383748316830583F286E1862983B0
:1032C0000E949F31F6016387748785879687108AED
:1032D00017862981822F0F900F900F900F90DF910A
:1032E000CF911F910F91FF90EF90DF90CF900895B5
:1032F0000F931F930FEF1FEFB8DF1F910F910895EA
:1033000023E633E0FC0131832083089523E633E094
:10331000FC01318320830C9454310F931F93CF937E
:10332000DF93EC018B01CA0143E653E059834883E4
:103330002A879B838A83222331F04AE353E069E59D
:1033400073E00E949A251D830C83C80116D19F83C8
:103350008E83C80114D199878887DF91CF911F91FF
:103360000F9108950F931F93CF93DF938C01C0E0CB
:10337000D0E0F80180859185C817D907ACF4D80151
:103380001696ED91FC911797CE01880F991FE80FC3
:10339000F91F80819181009729F012966D917C919F
:1033A00013974CD42196E5CFDF91CF911F910F91C8
:1033B0000895AF92BF92CF92DF92EF92FF920F9358
:1033C0001F93CF93DF938C017B016A01C0E0D0E0B3
:1033D000F80180859185C817D9073CF55E01AA0CD4
:1033E000BB1CD8011696ED91FC911797EA0DFB1DB9
:1033F00080819181009721F0B701CDD3811102C066
:103400002196E6CFD8011696ED91FC911797EA0D1B
:10341000FB1D80819181DC01ED91FC910480F5819F
:10342000E02DA601B7011995EBCFDF91CF911F9148
:103430000F91FF90EF90DF90CF90BF90AF900895E5
:10344000DC0114968D919C911597DC01ED91FC9116
:103450000680F781E02D19940F9300E020E040E012
:1034600060E084EA9CE00E94A52F0F91089521E975
:1034700033E0FC01318320833BC5CF93DF93EC0124
:10348000F6DFCE01DF91CF910C945431CF92DF92D1
:10349000EF92FF920F931F93CF93DF93CDB7DEB7D9
:1034A0002A970FB6F894DEBF0FBECDBF7C016B012B
:1034B0003BD58E010F5F1F4F22E044E00E945D3537
:1034C000C7013ED5A801BC01C6010E949A25C701CB
:1034D0003BD5882339F047E653E069E573E0C60140
:1034E0000E949A252A960FB6F894DEBF0FBECDBF74
:1034F000DF91CF911F910F91FF90EF90DF90CF90D0
:1035000008950F93CF93DF93EC0100E060E070E04B
:10351000FCD481E993E099838883DF91CF910F9167
:1035200008950F9300E020E040E060E08AEA9CE02C
:103530000E94A52F0F9108952BE933E0FC01318300
:10354000208308952BE933E0FC01318320830C9420
:1035500054312BE933E0FC0131832083778B668B78
:1035600020E030E0FC01E20FF31F138212822E5F95
:103570003F4F24313105B1F70895029608958AE04E
:1035800090E008950F9300E020E040E060E080EBE1
:103590009CE00E94A52F0F91089527ED33E0FC01D8
:1035A00031832083A5C4CF93DF93EC01F6DFCE01F6
:1035B000DF91CF910C945431AF92BF92CF92DF92B2
:1035C000EF92FF920F931F93CF93DF938C01EB0148
:1035D000ABD46B017C01C801B3D45C0120E030E0C6
:1035E000A901C701B6010E94AE33882319F043EA4E
:1035F00053E002C04AEA53E0B501CE010E949A2589
:10360000C801A2D4882389F04FEA53E069E573E04A
:10361000CE01DF91CF911F910F91FF90EF90DF903E
:10362000CF90BF90AF900C949A25DF91CF911F91CE
:103630000F91FF90EF90DF90CF90BF90AF900895E3
:103640000F93CF93DF93EC0100E062E070E05DD474
:1036500087ED93E099838883DF91CF910F9108954F
:103660000F9300E020E040E060E086EB9CE00E94E9
:10367000A52F0F910895DF92EF92FF920F931F9362
:10368000CF93DF9300D000D0CDB7DEB77C018B01A4
:103690008091BC0C9091BD0C8617970721F0709318
:1036A000BD0C6093BC0CC701C6D6D82E811121C0B9
:1036B00020EB39E0A9016DED73E0C7010E949B2367
:1036C0008823B9F06DED73E0CE0101960E941231AE
:1036D0004DED53E0BA01C7010E949A25011511056D
:1036E00011F0C8013FDECE0101960E94AB30DD240F
:1036F000D3948D2D26960FB6F894DEBF0FBECDBFA6
:10370000DF91CF911F910F91FF90EF90DF9008957F
:10371000AB01BC018091BC0C9091BD0C4ACECF9303
:10372000DF93CDB7DEB72A970FB6F894DEBF0FBE92
:10373000CDBFDB01FE013196BF019F01261B370B78
:103740004217530718F02D912193F7CFFB01E40F97
:10375000F51F1082DDDF2A960FB6F894DEBF0FBE8C
:10376000CDBFDF91CF9108950F9300E020E040E0BE
:1037700060E08EEB9CE00E94A52F0F91089527EF4B
:1037800033E0FC0131832083089527EF33E0FC010F
:10379000318320830C9454310F931F93CF93DF9385
:1037A0001F92CDB7DEB78C01FC01648382816983EF
:1037B0000E9420336981262F30E08217930721F081
:1037C000F80182810E94EB32F8018481882319F08C
:1037D00040EF53E002C04AE754E0F801658176818A
:1037E000878190850F90DF91CF911F910F910C945D
:1037F0009A25CF92DF92EF920F931F93CF93DF938F
:103800001F92CDB7DEB76C01862FE7EFF3E0D6014C
:103810001196FC93EE9318961C930E93179712969D
:103820006C93129713967C93139714964C9314975A
:1038300016963C932E9315971996EC9261E0498366
:103840000E94B2324981642FC6010F90DF91CF915F
:103850001F910F91EF90DF90CF909ECF0F9300E0DC
:1038600020E040E060E084EC9CE00E94A52F0F91F6
:1038700008952CE035E0FC013183208308952CE08D
:1038800035E0FC01318320830C945431FC018CE041
:1038900095E091838083738362835583448321A35E
:1038A00082E090E09783868340E050E068EC71E42A
:1038B00042875387648775871686178681E490E070
:1038C000938B828B148A108E148E118E128E138E0F
:1038D0000895EF92FF920F931F93CF93DF938A0186
:1038E000E9016130710581F062307105C1F0672B2B
:1038F00011F58DE090E00E9453317C019E01A801FA
:1039000060E070E0FEDD15C08DE090E00E94533174
:103910007C019E01A80161E070E06CD30AC08EE0DA
:1039200090E00E9453317C019E01A80162E070E0AA
:1039300087DEC70102C080E090E0DF91CF911F9148
:103940000F91FF90EF9008958F929F92AF92BF9248
:10395000CF92DF92EF92FF92CF93DF93EC018E81B3
:103960009F81892B11F41C8A45C088899989009709
:1039700009F440C0D9D24B015C01898D882369F1DB
:103980006A897B89882777FD8095982F0E94E53387
:103990006B017C0120E030E040E450E4C501B4015B
:1039A0000E9449339B01AC01C701B6010E94AE33AE
:1039B00018161CF081E08C8B10C020E030E040E451
:1039C00050E4C501B4010E944A339B01AC01C70118
:1039D000B6010E94953487FF1C8A89A1882341F093
:1039E0004BEF53E069E573E08C819D810E949A253D
:1039F0008C8901C080E0DF91CF91FF90EF90DF9044
:103A0000CF90BF90AF909F908F9008958F929F928C
:103A1000AF92BF92CF92DF92EF92FF92CF93DF935C
:103A2000EC018E819F81892B11F41E864EC0888502
:103A30009985009709F449C077D24B015C01888DC4
:103A4000882341F1CA84DB84EC84FD8420E030E0EB
:103A500040E05FE3C501B4010E944A339B01AC0121
:103A6000C701B6010E94953487FD03C081E08E87AF
:103A700011C020E030E040E05FE3C501B4010E94E6
:103A800049339B01AC01C701B6010E94AE33181641
:103A90000CF01E8689A18823B1F044E154E069E569
:103AA00073E08C819D810E949A252E858C819D8159
:103AB000222319F04EE254E002C043E454E069E5E9
:103AC00073E00E949A258E8501C080E0DF91CF913E
:103AD000FF90EF90DF90CF90BF90AF909F908F902E
:103AE00008958F929F92AF92BF92CF92DF92EF9202
:103AF000FF92CF93DF93EC018E819F81892B11F48C
:103B00001F863DC0888599850097C9F10DD24B016C
:103B10005C018C8D882339F1CA84DB84EC84FD84BC
:103B200020E030E040E05FE3C501B4010E9449338A
:103B30009B01AC01C701B6010E94AE3318161CF000
:103B400081E08F8710C020E030E040E05FE3C501F6
:103B5000B4010E944A339B01AC01C701B6010E9427
:103B6000953487FF1F8689A1882339F049E554E001
:103B700069E573E08C819D81DDD78F8501C080E090
:103B8000DF91CF91FF90EF90DF90CF90BF90AF90FB
:103B90009F908F900895CF92DF92EF92FF920F93B4
:103BA0001F93CF93DF938C016B01DC015F96ED9047
:103BB000FC909097C0E0D0E0CE15DF059CF4D801D2
:103BC0005D96ED91FC915E97CE01880F991FE80FED
:103BD000F91FB601808191810E94FD37892B21F068
:103BE0002196EACF80E001C081E0DF91CF911F9163
:103BF0000F91FF90EF90DF90CF900895CF92DF92DA
:103C0000EF92FF920F931F93CF93DF937A01690195
:103C1000EB0100E010E00E151F053CF4699179916D
:103C2000C601F0D70F5F1F4FF6CFDF91CF911F91E5
:103C30000F91FF90EF90DF90CF9008959B01FC01D2
:103C4000478D50A1658D768DD9CFCF93DF93EB0152
:103C5000CA0160EF73E00E94FD37892B11F461E027
:103C600001C060E0CE01DF91CF9196CDCF93DF937D
:103C7000EC01888DE881F981882319F08E85811106
:103C800005C00680F781E02D60E004C00680F78162
:103C9000E02D61E0CE0119958C8DE881F9818823B2
:103CA00041F08F85882329F00084F185E02D61E0C3
:103CB00004C00084F185E02D60E0CE011995898D66
:103CC000E881F981882341F08C89882329F00284D6
:103CD000F385E02D61E004C00284F385E02D60E00F
:103CE000CE01DF91CF911994CF93DF93EC012CDEBD
:103CF000CE018CDECE01F5DECE01DF91CF91B6CFC5
:103D00000F931F93CF93DF93EC018B0166E774E071
:103D1000C8010E94FD37892B19F41F821E8214C02E
:103D20006EE774E0C8010E94FD37892B49F481E0F9
:103D300090E09F838E83DF91CF911F910F91089523
:103D400082E090E09F838E83CE01DF91CF911F911F
:103D50000F91CACFCF93DF93EC01888599850097A7
:103D600089F0E8D0CE0152DECE01BBDE8885998590
:103D7000DC01ED91FC916C817D810190F081E02D61
:103D8000199507C045E854E069E573E08C819D8191
:103D9000D1D68E819F81019721F0CE01DF91CF9105
:103DA00065CFDF91CF9108950F931F93CF93DF934A
:103DB000EC010889198901151105E9F0882777FDBB
:103DC0008095982F0E94E533AB01BC01C801B2D0A9
:103DD000CE01BADD88899989DC01ED91FC916C8175
:103DE0007D810190F081E02D199589A1882351F002
:103DF00047E954E002C042EB54E069E573E08C818E
:103E00009D8198D68E819F81019731F0CE01DF91FF
:103E1000CF911F910F912ACFDF91CF911F910F91D9
:103E20000895CF93DF93EC014A875B876C877D878A
:103E300089A1882339F043EC54E069E573E08C8173
:103E40009D8178D6CE01E2DDCE014BDE8E819F8151
:103E5000019721F0CE01DF91CF9108CFDF91CF9173
:103E60000895CF93DF93EC017B8B6A8B89A1882324
:103E700039F047EE54E069E573E08C819D815AD6B4
:103E8000CE0162DD8E819F81019721F0CE01DF910D
:103E9000CF91ECCEDF91CF910895FC018481958183
:103EA0000895FC0181A10895FC0161A30895FC011E
:103EB000718B608B0895FC01718760870895FC0108
:103EC000608F0895FC01618F0895FC01768F658FE6
:103ED0000895FC0170A3678F08950F9300E020E020
:103EE00040E060E08AEC9CE00E94A52F0F910895CD
:103EF0002CE135E0FC013183208308952CE135E08D
:103F0000FC01318320830C9454310F93FC018CE12C
:103F100095E09183808373876287538342833583DF
:103F2000248304870F910895FC0166817781808541
:103F300091850895FC0146835783608771870895B2
:103F4000FC01848195810895FC01848508950F9377
:103F500000E020E040E060E080ED9CE00E94A52FC2
:103F60000F9108952FE435E0FC0131832083C0CF09
:103F7000CF93DF93EC01F6DFCE01DF91CF910C946C
:103F80005431CF92DF92EF92FF920F931F93CF9312
:103F9000DF93CDB7DEB72A970FB6F894DEBF0FBE1A
:103FA000CDBF7C016B01C0DF8E010F5F1F4F22E090
:103FB00045E00E945D35C701C3DFA801BC01C60111
:103FC000B9D5C701C1DF882331F042E255E069E588
:103FD00073E0C601AFD52A960FB6F894DEBF0FBEC8
:103FE000CDBFDF91CF911F910F91FF90EF90DF90A8
:103FF000CF9008950F93CF93DF93EC0100E061E041
:1040000070E083DF8FE495E099838883DF91CF911F
:104010000F9108950F9300E020E040E060E086ED0E
:104020009CE00E94A52F0F910895FC011386158630
:10403000148627E030E0DF01A20FB31F13961C9215
:104040002115310519F021503109F5CF08951F933D
:10405000CF93DF93EC01162F60E0812F0E94B232E4
:10406000612F70E0FB01E25AFE4FE491E883FB010F
:10407000EC55FE4FE491F0E0EE0FFF1FE651FE4FCE
:10408000859194919A838983CE01DF91CF911F917D
:10409000CCCFCF92DF92EF92FF920F931F93CF93EB
:1040A000DF93EC018B010E949F316B017C018881C1
:1040B0009981DC01ED91FC910480F581E02D199549
:1040C000892B69F40E949F316C197D098E099F0923
:1040D00068397A438105910550F380E00CC08881EE
:1040E0009981DC01ED91FC910680F781E02D199515
:1040F000F801808381E0DF91CF911F910F91FF90B4
:10410000EF90DF90CF9008950F931F93CF93DF939D
:10411000EA0108811981600F711FBBDF882331F02C
:104120000F5F1F4F1983088381E001C080E0DF919A
:10413000CF911F910F9108953F924F925F926F928E
:104140007F928F929F92AF92BF92CF92DF92EF9227
:10415000FF920F931F93CF93DF9300D0CDB7DEB7BD
:104160008C016B011A8219825C0182E0A80EB11CDD
:10417000AE014F5F5F4FB501C801C6DF811103C0BB
:1041800080E090E0B9C0D80112969C901B82E12C8F
:10419000F12C412C512C32014394BE016D5F7F4FB5
:1041A000C80177DF882361F329813A81C90101962B
:1041B0009A8389836B81F801E20FF31F6283462F94
:1041C0004F7750E0449D9001459D300D549D300D3A
:1041D0001124E20EF31E97E0440C551C661C771C5C
:1041E0009A95D1F767FDD9CF292D207F33243394B9
:1041F000203309F0312C8150F6018083332031F1D6
:10420000AE014F5F5F4FB501C8017EDF882309F41F
:10421000B7CFAE014F5F5F4FB501C80175DF88238F
:1042200009F4AECFD6018C91F801E80FF11D43805F
:10423000512C542C44248481480E511CF801828155
:1042400081FF08C0F2E04F0E511C04C080E0412CF9
:10425000512C01C082E0A82EB12C612C712C480198
:1042600089E9880E911CC3018A0D9B1D8E159F053F
:1042700098F5BE016D5F7F4FC8010BDF882309F4FD
:104280007FCFD4018D919C910097A9F0332099F0B4
:1042900029813A8122503109F6014081241B3109DC
:1042A0004216530640F4DC01ED91FC910190F0813F
:1042B000E02D6B81199589819A818038910528F4C8
:1042C0002B81F801E80FF91F228301969A838983D5
:1042D000BFEF6B1A7B0AC7CFF801E756FF4F80810B
:1042E0009181892B39F489819A818138910510F067
:1042F0001A82198289819A810F900F900F90DF9115
:10430000CF911F910F91FF90EF90DF90CF90BF90D2
:10431000AF909F908F907F906F905F904F903F9065
:104320000895AF92BF92CF92DF92EF92FF920F93D8
:104330001F93CF93DF9300D01F92CDB7DEB77C01E0
:10434000F90180E09E2F9F77EE0FEF2FEE1FFF0BFE
:10435000F195309709F09068A1E0B0E0AC0FBD1F77
:10436000A80FB11D9C938F5F309761F7A82EB12CD9
:10437000DA01AA19BB0914966C93BE016F5F7F4FD7
:1043800080E090E04A195B098A159B0554F4FB0113
:10439000D190BF018A01080F191FF801D58201963B
:1043A000F3CFF7018081918189010F5F1F4F0A0DC3
:1043B0001B1DFC0120813181F90122813381A8017B
:1043C000BD01F90119956C010E949F31F701EC576D
:1043D000FF4F608371838283938381E0C016D1068F
:1043E00009F080E00F900F900F900F90DF91CF9128
:1043F0001F910F91FF90EF90DF90CF90BF90AF9003
:104400000895C9010296DB01FD01E61BF70B2D9112
:10441000222331F0FA01E80FF91F20830196F4CF2F
:104420009C012E1B3F0B240F351FD9011297FC93C3
:104430001196EC930895CF93DF93EC0188819981D5
:10444000009731F1DC01ED91FC910488F589E02DB4
:10445000199581111FC0FE01E556FF4F80819181A2
:10446000892BB1F48DEF9FEF9183808388819981AF
:10447000DC01ED91FC910284F385E02D1995888192
:104480009981DC01ED91FC910288F389E02D199569
:1044900080E001C081E0DF91CF9108952F923F929B
:1044A0004F925F926F927F928F929F92AF92BF9244
:1044B000CF92EF92FF920F931F93CF93DF93CDB7DD
:1044C000DEB72E970FB6F894DEBF0FBECDBF4C01FE
:1044D0001B012A013901AFDF811114C1F401EB5630
:1044E000FF4F60817181D4018D919C911197A956E4
:1044F000BF4FFC01208131816115710541F04D9163
:104500005C91D9011E96ED91FC911F971FC0F90196
:104510000484F585E02DFE87ED87ED91FC9127EF72
:1045200039E03A832983D401A157BF4F12964D91A8
:104530005D916D917C9115974B835C836D837E8338
:10454000AF01BE016F5F7F4FED85FE851995F401C8
:104550008130910509F0CEC0EE57FF4F91838083E3
:1045600089E0E5E1F2E0DE01119601900D928A9575
:10457000E1F7FE01319680E090E02191D401A80F8F
:10458000B91F17962C93019689309105B1F7011543
:10459000110559F0F0E2CF9EC0011124866028E099
:1045A000E29E700111248E2901C082E04114510461
:1045B00031F06114710411F4806801C0806CD40181
:1045C00050968C93509751961C9251978FE052962B
:1045D0008C937401B2E0EB0EF11C21E130E0A701F5
:1045E000B101C4010EDF0115110551F09C01A701B5
:1045F000B801C40106DF9C01A701B501C40101DFB8
:104600004114510469F09C01A701B201C401F9DE13
:104610006114710429F09C01A701B301C401F1DE0A
:104620009C0125503109A70160E1C4017ADE0E9496
:104630009F31F401EC57FF4F608371838283938332
:10464000840108571F4FF80160837183828393832D
:10465000F40180819181DC01ED91FC910480F58170
:10466000E02D1995892BC1F40E949F31D8014D90FE
:104670005D906D907C906419750986099709683979
:104680007A438105910520F3F401E556FF4F8CEF45
:104690009FEF9183808323C0BE01665F7F4FC4017B
:1046A0004BDD0497E1F4F4018581940125563F4FD9
:1046B0007901811110C00E949F31D8016D937D93C3
:1046C0008D939C931397F401E457FF4F1082F701E9
:1046D0001182108217C090E0D9018D939C93F40150
:1046E00080819181DC01ED91FC910288F389E02DBC
:1046F000199506C0E556FF4F8EEF9FEF918380839B
:1047000080E001C081E02E960FB6F894DEBF0FBEA8
:10471000CDBFDF91CF911F910F91FF90EF90CF9080
:10472000BF90AF909F908F907F906F905F904F90D1
:104730003F902F900895AF92BF92CF92EF920F9338
:104740001F93A12CB12CC12CE12C00E010E0A6DEBF
:104750001F910F91EF90CF90BF90AF9008952F923F
:104760003F924F925F926F927F928F929F92AF9201
:10477000BF92CF92DF92EF92FF920F931F93CF934E
:10478000DF9300D01F92CDB7DEB78C014DB65EB679
:1047900052DE882309F441C10E949F316B017C01E4
:1047A000580128E8A20EB11CF50180819181A281F7
:1047B000B381A7019601281B390B4A0B5B0BDA0169
:1047C000C90189399A43A105B10590F434978081D4
:1047D0009181A281B381A7019601281B390B4A0B55
:1047E0005B0BDA01C90189399A43A105B105C0F112
:1047F00048014CE8840E911CD4012C91F801808171
:104800009181222371F0E556FF4F2CEF3FEF31836A
:104810002083DC01ED91FC910288F389E02D19954C
:10482000FCC020ECF80122831382DC01ED91FC91A5
:104830000280F381E02D42E050E0B8016E5F7F4FCF
:104840001995F801EC57FF4FC082D182E282F382C2
:10485000F501C082D182E282F38281E0D4018C939F
:10486000F80180819181DC01ED91FC910480F5815A
:10487000E02D1995892B09F4D2C0BE016F5F7F4FDF
:10488000C8015ADCFC01009709F4C9C0D501CD92DA
:10489000DD92ED92FC921397D80112968C91807F55
:1048A000803309F09FC04801BDE88B0E911CD401F4
:1048B0008D919C91892B09F4B2C02DB63EB66981C9
:1048C00070E0D801A60FB71F13964C91139750E0D4
:1048D000542F442714968C911497480F511DCA01E8
:1048E00001962DB73EB7281B390B0FB6F8943EBF83
:1048F0000FBE2DBF8DB79EB701965C0120E030E062
:10490000BC83AB832417350769F06B807C80620E13
:10491000731ED30115966C90D5016D925D012F5FCA
:104920003F4FF0CFDC01A20FB31F1C92D8011296AB
:10493000BC91B670BA83B230E9F53901660E771EC4
:10494000D801A60DB71D1596AC901597B12CBA2CB1
:10495000AA2416964C91A40EB11C4BEF5FEF461B98
:10496000570B421B530B4E0F5F1FB301695F7F4F05
:10497000600F711FD401ED91FC91199580E4F8014D
:1049800082837A807382B482A582D8018D919D91B1
:10499000BD01DC01ED91FC910280F381E02D44E04A
:1049A00050E01995F801EC57FF4FC082D182E282A6
:1049B000F38212C04DEF5FEF461B570B421B530BA8
:1049C0004E0F5F1F620F731F6B5F7F4F600F711F72
:1049D000D401ED91FC9119950FB6F8943EBE0FBE2F
:1049E0002DBE1DC0803C91F480EDF80182831382BE
:1049F000D8018D919D91BD01DC01ED91FC9102806A
:104A0000F381E02D42E050E0199509C0803D39F472
:104A1000F801E457FF4F108202C080E001C081E03E
:104A20000FB6F8945EBE0FBE4DBE0F900F900F9064
:104A30000F90DF91CF911F910F91FF90EF90DF903A
:104A4000CF90BF90AF909F908F907F906F905F902E
:104A50004F903F902F9008958F929F92BF92CF9248
:104A6000DF92EF92FF920F931F93CF93DF931F92EA
:104A70001F92CDB7DEB74C01B42E152F7901698393
:104A80007A83D9DC69817A81882309F444C0FB01E7
:104A900001900020E9F73197E61BF70BC701079655
:104AA0008E0F9F1F81389105B0F5640182E0C80E1A
:104AB000D11C25E030E0A601C401A3DCEB2DF12FD1
:104AC00060E070E09401280F391F6E157F0549F0F2
:104AD0004191D901A60FB71F12964C936F5F7F4F7C
:104AE000F4CF011102C060E301C061E397012550DA
:104AF0003109280F391FA601C4010F900F90DF91D3
:104B0000CF911F910F91FF90EF90DF90CF90BF90CA
:104B10009F908F9006CC80E00F900F90DF91CF9107
:104B20001F910F91FF90EF90DF90CF90BF909F90DB
:104B30008F9008950F93FA0101900020E9F79F01EB
:104B400021503109241B350B00E086DF0F910895B9
:104B5000CF92DF92FF920F931F93CF93DF931F9219
:104B60001F92CDB7DEB76C01F42E81E0841708F4F4
:104B70003EC0FB0101900020E9F7E61BF70B3896D9
:104B8000E138F105A0F5C60169837A8354DC6981B7
:104B90007A81882361F1F601EE57FF4F8081918180
:104BA000019611F481E090E091838083808191816E
:104BB000F6019783808786010E5F1F4F27E030E064
:104BC000A801C6011EDCF601E80FF91FF2829C0164
:104BD00024503109A80162E8C6010F900F90DF91BF
:104BE000CF911F910F91FF90DF90CF909ACB80E0F3
:104BF0000F900F90DF91CF911F910F91FF90DF9059
:104C0000CF90089540E0A4CFCF92DF92EF92FF9231
:104C10000F931F93CF93DF93CDB7DEB72C970FB6CB
:104C2000F894DEBF0FBECDBF7C01FB016A0103819A
:104C3000228141816081CE0107960E94A52F0985BE
:104C40001A852B853C85F701E157FF4F02831383BB
:104C5000248335833896D182C082329711821082A4
:104C6000C7012C960FB6F894DEBF0FBECDBFDF9103
:104C7000CF911F910F91FF90EF90DF90CF9008950B
:104C8000CF92DF92EF92FF920F931F93CF93DF9318
:104C900000D01F92CDB7DEB76C01790181579F4FCD
:104CA0004B835C8369837A830E949B2FF601E556D0
:104CB000FF4F8FEF9FEF918380834B815C816981F0
:104CC0007A81C601A1DFF601E357FF4FF182E0824E
:104CD000F60111830083E756FF4F118210820F9077
:104CE0000F900F900F90DF91CF911F910F91FF9038
:104CF000EF90DF90CF9008950F9300E020E040E028
:104D000060E08CED9CE00E94A52F0F91089508951E
:104D1000FC0187E896E2928B818B7683658314820F
:104D2000108289E0818381E08283838308950895DE
:104D30000895CF93DF93EC018DE396E09983888308
:104D40008AA19BA1009739F0DC01ED91FC910280D2
:104D5000F381E02D19958CA19DA1009739F0DC011C
:104D6000ED91FC910280F381E02D1995CE01DF9148
:104D7000CF910C94391CCF93DF93EC01DADFCE0195
:104D8000DF91CF910C9454311F93CF93DF93EC01BB
:104D9000162F8AA19BA10E94CC1B612F8CA19DA1E3
:104DA000DF91CF911F910C94CC1BEF92FF920F9348
:104DB0001F93CF93DF93CDB7DEB72C970FB6F89440
:104DC000DEBF0FBECDBF8C017A01CE0107960E94D7
:104DD0001231B701CE0101960E94123165E575E0EE
:104DE000CE0107960E942731882329F0B701C80118
:104DF0000E94801E33C06DE675E0CE0107960E94CA
:104E00002731882341F0C7010E94E237AB01BC0182
:104E1000C80107D823C064E975E0CE0107960E9457
:104E20002731882321F0F80162A173A10BC060EB48
:104E300075E0CE0107960E942731882341F0F801E2
:104E400064A175A1A701C8010E94251E07C0C80161
:104E500024D84CEC55E069E573E06CDECE01019698
:104E60000E94AB30CE0107960E94AB302C960FB655
:104E7000F894DEBF0FBECDBFDF91CF911F910F9190
:104E8000FF90EF900895AF92BF92CF92DF92EF9292
:104E90000F931F93CF93DF93EC016B01B42E20E0AF
:104EA000AB0160E070E00E94461C8DE396E09983C0
:104EB000888388E0EEE1F2E0DE01969601900D92A3
:104EC0008A95E1F76B2DCE010E94541FCE010E94FE
:104ED000511F882331F044EE55E069E573E0C601C7
:104EE00029DE8AE090E00E9453315C01E12C8601CA
:104EF0002DEF35E040E06EE170E00E94F91BBBA2AF
:104F0000AAA28AE090E00E9453315C012BE136E0D6
:104F100040E06FE170E00E94F91BBDA2ACA261E02D
:104F2000CE010E945F1F26E432E0A60161E070E03E
:104F3000CE010E94691CBC01CE010E945B1FBE0114
:104F40006A5D7F4FCE010E94651F64E070E0CE0174
:104F50000E94691FB601CE01DF91CF911F910F9181
:104F6000EF90DF90CF90BF90AF900C941E1E0F93E8
:104F700000E020E040E060E082EE9CE0E6D70F91A8
:104F80000895089528E837E0FC01318320830C94CC
:104F9000391CCF93DF93EC01F5DFCE01DF91CF9188
:104FA0000C9454311F93CF93DF93EC01162F8AA1F9
:104FB0009BA10E94CC1B612F8CA19DA1DF91CF9161
:104FC0001F910C94CC1BFC0186A197A10C94CC1BC7
:104FD000EF92FF920F931F93CF93DF93CDB7DEB77E
:104FE0002C970FB6F894DEBF0FBECDBF8C017A01AF
:104FF000CE0107960E941231B701CE0101960E94A0
:10500000123169E476E0CE0107960E9427318823A9
:1050100029F0B701C8010E94801E52C064E676E004
:10502000CE0107960E942731882349F0C7010E94CC
:10503000E237AB01BC01C8010E94111F41C06EE8FC
:1050400076E0CE0107960E942731882349F0C701F8
:105050000E94E2370E94B233C8010E94311F30C063
:1050600065EB76E0CE0107960E942731882321F078
:10507000F80162A173A10BC064ED76E0CE01079642
:105080000E942731882341F0F80164A175A1A7018E
:10509000C8010E94251E14C063EF76E0CE0107967A
:1050A0000E942731882321F0F80166A177A1EFCF74
:1050B000C8010E944D1F4CEC55E069E573E03ADDF4
:1050C000CE0101960E94AB30CE0107960E94AB3014
:1050D0002C960FB6F894DEBF0FBECDBFDF91CF91F7
:1050E0001F910F91FF90EF900895AF92BF92CF92D2
:1050F000DF92EF920F931F93CF93DF93EC016B013D
:10510000B42E20E0AB0165E070E00E94461C88E808
:1051100097E0998388838CE0E6E2F2E0DE019896DE
:1051200001900D928A95E1F76B2DCE010E94541FDC
:10513000CE010E94511F882331F04DE057E069E510
:1051400073E0C601F7DC8AE090E00E9453315C0115
:10515000E12C860126E237E040E062E270E00E9446
:10516000F91BBBA2AAA28AE090E00E9453315C0125
:1051700027E437E040E063E270E00E94F91BBDA243
:10518000ACA261E0CE010E945F1F8AE090E00E9425
:1051900053315C0128E637E040E06BE270E00E94AA
:1051A000F91BBFA2AEA261E0CE010E94621F28E8F7
:1051B00032E0A60161E070E0CE010E94691CBC01F2
:1051C000CE010E945B1F2AEA32E0A60160E070E097
:1051D000CE010E94691CBC01CE010E94571FBE0176
:1051E000685D7F4FCE010E94651F66E070E0CE01D2
:1051F0000E94691FB601CE01DF91CF911F910F91DF
:10520000EF90DF90CF90BF90AF900C941E1E0F9345
:1052100000E020E040E060E088EE9CE096D60F9150
:10522000089508950895CF93DF93EC0186E798E001
:10523000998388838AA19BA1009739F0DC01ED91C5
:10524000FC910280F381E02D19958CA19DA100971E
:1052500039F0DC01ED91FC910280F381E02D19958C
:10526000CE01DF91CF910C94391CCF93DF93EC01E9
:10527000DADFCE01DF91CF910C9454311F93CF939D
:10528000DF93EC01162F8AA19BA10E94CC1B612FFA
:105290008CA19DA1DF91CF911F910C94CC1BEF921B
:1052A000FF920F931F93CF93DF93CDB7DEB72C9769
:1052B0000FB6F894DEBF0FBECDBF8C017A01CE01D0
:1052C0000796B0D7B701CE010196ACD764E977E075
:1052D000CE010796BCD7882329F0B701C8010E94E8
:1052E000801E32C060EB77E0CE010796B0D78823EE
:1052F00049F0C7010E94E237AB01BC01C8010E941E
:10530000111F22C06BED77E0CE010796A0D788234E
:1053100021F0F80162A173A10AC06BEF77E0CE0122
:10532000079695D7882341F0F80164A175A1A701DC
:10533000C8010E94251E08C0C8010E944D1F4CECE8
:1053400055E069E573E0F6DBCE01019604D7CE01A6
:10535000079601D72C960FB6F894DEBF0FBECDBFCF
:10536000DF91CF911F910F91FF90EF900895AF9231
:10537000BF92CF92DF92EF920F931F93CF93DF9361
:10538000EC016B01B42E20E0AB0163E070E00E9401
:10539000461C86E798E09983888388E0E2E3F2E0A0
:1053A000DE01969601900D928A95E1F76B2DCE0164
:1053B0000E94541FCE010E94511F882331F04BE1FF
:1053C00058E069E573E0C601B5DB8AE090E06BD791
:1053D0005C01E12C86012EE238E040E060E270E002
:1053E0000E94F91BBBA2AAA28AE090E05CD75C01F4
:1053F00020E538E040E061E270E00E94F91BBDA2C8
:10540000ACA261E0CE010E945F1F25E632E0A6015A
:1054100061E070E0CE010E94691CBC01CE010E94D7
:105420005B1FBE016A5D7F4FCE010E94651F64E075
:1054300070E0CE010E94691FB601CE01DF91CF91CD
:105440001F910F91EF90DF90CF90BF90AF900C9491
:105450001E1E0F9300E020E040E060E08EEE9CE036
:1054600074D50F91089508950895CF93DF93EC01BB
:105470008DE199E0998388838AA19BA1009739F0F7
:10548000DC01ED91FC910280F381E02D1995CE01B4
:10549000DF91CF910C94391CCF93DF93EC01E5DFC2
:1054A000CE01DF91CF9100C7FC0182A193A10C94A2
:1054B000CC1BEF92FF920F931F93CF93DF93CDB747
:1054C000DEB72C970FB6F894DEBF0FBECDBF8C01B0
:1054D0007A01CE010796A6D6B701CE010196A2D6D3
:1054E00062E878E0CE010796B2D6882329F0B701AA
:1054F000C8010E94801E27C06DE978E0CE010796A2
:10550000A6D6882349F0C7010E94E237AB01BC014F
:10551000C8010E94111F17C06DEC78E0CE010796FC
:1055200096D6882341F0F80162A173A1A701C801B2
:105530000E94251E08C0C8010E944D1F4CEC55E07A
:1055400069E573E0F7DACE01019605D6CE0107963C
:1055500002D62C960FB6F894DEBF0FBECDBFDF91FA
:10556000CF911F910F91FF90EF900895AF92BF924E
:10557000CF92DF92EF920F931F93CF93DF93EC01C3
:105580006B01B42E20E0AB0161E070E00E94461C8C
:105590008DE199E09983888386E0EAE3F2E0DE0119
:1055A000949601900D928A95E1F76B2DCE010E94A1
:1055B000541FCE010E94511F882331F04BE158E067
:1055C00069E573E0C601B6DA8AE090E06CD65C016A
:1055D000E12C860122EF38E040E064E270E00E94B6
:1055E000F91BBBA2AAA261E0CE010E945F1F29ECB9
:1055F00032E0A60161E070E0CE010E94691CBC01AE
:10560000CE010E945B1FBE016C5D7F4FCE010E94E8
:10561000651F63E070E0CE010E94691FB601CE01F4
:10562000DF91CF911F910F91EF90DF90CF90BF90BE
:10563000AF900C941E1E0F9300E020E040E060E06D
:1056400084EF9CE082D40F9108952DE239E0FC01B3
:10565000318320830C949C1ACF93DF93EC01F5DF08
:10566000CE01DF91CF9120C6EF92FF920F931F934F
:10567000CF93DF93EC018B01000F111F0C0F1D1F47
:10568000F80182819381892B09F047C0633071054D
:1056900079F194F46115710501F16130710509F03A
:1056A0003CC08AE290E0FFD57C01688D798D40E0B6
:1056B0005DDFFD82EC8231C06430710521F165301F
:1056C000710559F584E390E0EED57C01688D798D04
:1056D00040E00BDDFD86EC8620C08EE290E0E3D555
:1056E0007C01688D798D40E0CEDBFB82EA8215C0BB
:1056F0008EE290E0D8D57C01688D798D40E037DE70
:10570000F986E8860AC08AE290E0CDD57C01688DF2
:10571000798D40E050D1FB86EA86F8018281938141
:10572000DF91CF911F910F91FF90EF900895EF922D
:10573000FF920F931F93CF93DF93EC017B018A01BC
:1057400066E472E0C7010E94FD37892B61F4B8015D
:10575000882777FD8095982F0E94E533AB01BC0127
:105760008A819B815BC065E672E0C7010E94FD37BC
:10577000892B61F4B801882777FD8095982F0E94C6
:10578000E533AB01BC018885998548C068E872E0C3
:10579000C7010E94FD37892B61F4B801882777FD86
:1057A0008095982F0E94E533AB01BC018C859D85C7
:1057B00035C06AEA72E0C7010E94FD37892B59F4AF
:1057C000B8018C859D85DF91CF911F910F91FF903E
:1057D000EF900C94D41E69EC72E0C7010E94FD3773
:1057E000892B59F4B801882777FD8095982FEDD73C
:1057F000AB01BC018C819D8111C061EF72E0C701DA
:105800000E94FD37892B91F4B801882777FD809598
:10581000982FDBD7AB01BC018A859B85DF91CF91A7
:105820001F910F91FF90EF900C94AA1EDF91CF91E2
:105830001F910F91FF90EF9008950F931F93CF93B7
:10584000DF93EC018B010E94A91A8DE299E0998304
:105850008883198F088FDF91CF911F910F91089541
:105860000F931F93CF93DF938C018091A60A9091A1
:10587000A70A892B51F48AE190E015D5EC01B80113
:10588000DCDFD093A70AC093A60A8091A60A909164
:10589000A70ADF91CF911F910F9108950F9300E018
:1058A00020E040E060E08AEF9CE04FD30F91089544
:1058B00008950895CF93DF93EC0187ED99E09983E4
:1058C00088838AA19BA1009739F0DC01ED91FC91BE
:1058D0000280F381E02D1995CE01DF91CF910C94D8
:1058E000391CCF93DF93EC01E5DFCE01DF91CF913F
:1058F000DBC4FC0182A193A10C94CC1BEF92FF921C
:105900000F931F93CF93DF93CDB7DEB72C970FB6CE
:10591000F894DEBF0FBECDBF8C017A01CE01079691
:1059200081D4B701CE0101967DD465E379E0CE0143
:1059300007968DD4882329F0B701C8010E94801EE4
:1059400027C061E579E0CE01079681D4882349F02C
:10595000C7010E94E237AB01BC01C8010E94111FC0
:1059600017C06CE779E0CE01079671D4882341F027
:10597000F80162A173A1A701C8010E94251E08C0F9
:10598000C8010E944D1F4CEC55E069E573E0D2D888
:10599000CE010196E0D3CE010796DDD32C960FB64B
:1059A000F894DEBF0FBECDBFDF91CF911F910F9155
:1059B000FF90EF900895AF92BF92CF92DF92EF9257
:1059C0000F931F93CF93DF93EC016B01B42E20E074
:1059D000AB0164E070E00E94461C87ED99E099837A
:1059E000888386E0E0E4F2E0DE01949601900D9277
:1059F0008A95E1F76B2DCE010E94541FCE010E94C3
:105A0000511F882331F04CE959E069E573E0C60184
:105A100091D88AE090E047D45C01E12C860121EB2B
:105A200039E040E065E270E00E94F91BBBA2AAA247
:105A300061E0CE010E945F1F21EF32E0A60161E02C
:105A400070E0CE010E94691CBC01CE010E945B1F68
:105A5000BE016C5D7F4FCE010E94651F63E070E068
:105A6000CE010E94691FB601CE01DF91CF911F9137
:105A70000F91EF90DF90CF90BF90AF900C941E1ECF
:105A80000F9300E020E040E060E080E09DE05DD228
:105A90000F910895FC01818D228D90E0805C9F4FD5
:105AA000821B91098F7399270895FC01918D828D36
:105AB000981731F0828DE80FF11D858D90E00895E3
:105AC0008FEF9FEF0895FC01918D828D981761F003
:105AD000828DDF01A80FB11D5D968C91928D9F5F25
