:10000000CBC10000FAC10000F8C10000F6C1000039
:10001000F4C10000F2C10000F0C10000EEC1000018
:10002000ECC10000EAC10000E8C10000E6C1000028
:10003000E4C10000E2C10000E0C10000DEC1000038
:10004000DCC10000DAC10000D8C10000D6C1000048
:10005000D4C10000D2C10000D0C100000C94D22A4B
:10006000CCC100000C9436280C946C28C6C100004A
:10007000C4C10000C2C10000C0C10000BEC1000078
:10008000BCC10000BAC10000B8C10000B6C1000088
:10009000B4C10000B2C10000B0C10000AEC1000098
:1000A000ACC10000AAC10000A8C10000A6C10000A8
:1000B000A4C10000A2C10000A0C100009EC10000B8
:1000C0009CC100009AC1000098C1000096C10000C8
:1000D00094C1000092C1000090C100008EC10000D8
:1000E0008CC10000CB0BE20B5F0C490D680D850D38
:1000F0008D0D3F0DF42BF72BE62BEA2BF02B2E2C3E
:10010000FB2BFF2B052C092C0D2C132C172C1B2C37
:100110002E2C212C252C292C00000A0B02090C0D59
:100120000E080703040100000000000000000000AA
:1001300000000000000000000000000000000000BF
:10014000000000001211100000000000000000007C
:10015000000000000000000000000000000001029C
:1001600010202008081020401020408002010201C9
:100170000804020101020408102040808040201081
:1001800008040201800402018040201008040201DA
:100190000804020101020408102040800102040842
:1001A000102040800505050507050808080802021B
:1001B00002020A0A08080404040401010101010101
:1001C00001010303030303030303040707070C0CE4
:1001D0000C0C0C0C0C0C02020202060606060606AB
:1001E00006060B0B0B0B0B0B0B0B00002000230068
:1001F000260029002C002F0032000001000003011E
:100200000601090100002200250028002B002E0015
:100210003100340002010000050108010B0100005B
:100220002100240027002A002D00300033000101A6
:100230000000040107010A014E414E494E4954593C
:10024000494E46CDCCCC3D0AD7233C17B7D13877A1
:10025000CC2B329595E6241FB14F0A0000204100B7
:1002600000C84200401C4620BCBE4CCA1B0E5AAE01
:10027000C59D7400407A10F35A00A0724E18090010
:1002800010A5D4E80000E87648170000E40B5402FB
:100290000000CA9A3B000000E1F505000080969836
:1002A00000000040420F000000A086010000001086
:1002B0002700000000E803000000006400000000C8
:1002C000000A00000000000100000000002C76D8A9
:1002D00088DC674F0823DFC1DFAE59E1B1B796E58F
:1002E000E3E453C63AE651997696E8E6C28426EBF3
:1002F000898C9B62ED407C6FFCEFBC9C9F40F2BA06
:10030000A56FA5F490055A2AF75C936B6CF9676D9D
:10031000C11BFCE0E40D47FEF520E6B500D0ED90F2
:100320002E0300943577050080841E080000204EBF
:100330000A000000C80C333333330F986E12831158
:1003400041EF8D2114893BE65516CFFEE6DB18D12F
:10035000844B381BF77C1D901DA4BBE42420328401
:10036000725E228100C9F124ECA1E53D27009F02C5
:10037000BA10C5108714EB17F91704189C19011A45
:10038000321AA01A231B861B031E3D1EA01E102519
:100390002A26BD269E282E2911241FBECFEFD1E28A
:1003A000DEBFCDBF00E00CBF15E0A0E0B2E0E2E7A9
:1003B000FAE600E00BBF02C007900D92A834B10727
:1003C000D9F729E0A8E4B5E001C01D92AD3EB2071F
:1003D000E1F713E0C8E9D3E000E006C02297010985
:1003E000FE010BBF0E94962ECE36D10780E0080793
:1003F000A9F70E94C42A0C94373502CE23E230E0DC
:1004000040E050E06FE070E080E090E00E940D2A54
:10041000AB0166E272E080911706909118060E9487
:10042000901924E630E040E050E068E270E080E0BF
:1004300090E00C940D2A0F931F93CF93DF9300D07D
:1004400000D0CDB7DEB726E040E052EC61E070E0CE
:100450008CE398E00E94D62786E495E09A8389830E
:1004600080912B0690912C06A0912D06B0912E061E
:100470008B839C83AD83BE83AE014F5F5F4F6EE085
:1004800072E081ED97E00E943E178091F205909115
:10049000F305DC01ED91FC910480F581E02D60E035
:1004A00070E01995609117067091180680911906F1
:1004B00090911A060E94AB1A8BE090E00E94D02A1D
:1004C0008C014091190650911A066091F2057091C5
:1004D000F30520E00E94FD181093180600931706FC
:1004E000C8010E9422192EEF31E040E355E760E099
:1004F00070E088E495E00E94E81880DF26960FB649
:10050000F894DEBF0FBECDBFDF91CF911F910F9149
:1005100008956091170670911806809119069091C0
:100520001A060E94AB1A882331F080911906909127
:100530001A060E94452288E495E00C948D180F93CA
:100540001F93CF93DF9300E020E040E060E08FE274
:1005500096E00E94222905E22EEF48EA60EC89E24B
:1005600096E00E9422298BE196E00E94BB118DE962
:1005700090E00E94D02AEC010BE116E02EEF3AE168
:100580004BE557E06AE072E00E94D524D0931A064A
:10059000C093190669E089E096E00E94BD1E69E0FB
:1005A00076E086EF95E00E941B25809119069091D8
:1005B0001A060E949F269093F3058093F20588E423
:1005C00095E0DF91CF911F910F910C945C188823D7
:1005D00081F08F3F29F48091370690913806089575
:1005E00095E0899FF0011124E45CF94F82819381A9
:1005F000089580E090E00895CF93DF93D82FC62F21
:1006000060E085E30E94682C9C2F9F719D2B9EBD0E
:100610000DB407FEFDCF1EBC0DB407FEFDCFC7FD18
:1006200008C061E085E30E94682C8EB5DF91CF9110
:1006300008951EBC0DB407FEFDCFF3CF0F931F939B
:10064000CF93DF931F92CDB7DEB7182F062F60E050
:1006500085E349830E94682C602F6F71612B6EBD0A
:1006600049810DB407FEFDCF4EBD0DB407FEFDCF91
:1006700061E085E30F90DF91CF911F910F910C9472
:10068000682C0F931F93CF93DF938C01EB0160E0F5
:1006900085E30E94682C8AE38EBD0DB407FEFDCF72
:1006A0000C0F1D1FC017D10739F01EBC0DB407FE7B
:1006B000FDCF8EB58993F6CF61E085E3DF91CF91D1
:1006C0001F910F910C94682C0F931F93CF93DF937E
:1006D0008C01EB0160E085E30E94682C8AE78EBD07
:1006E0000DB407FEFDCF0C0F1D1FC017D10731F051
:1006F00089918EBD0DB407FEFDCFF7CF61E085E394
:10070000DF91CF911F910F910C94682C1F93CF9381
:10071000DF93182F1076C12FD0E02091140230E023
:10072000C217D30779F043E06FE180EA87DFAE01BB
:1007300085E0559547958A95E1F76FE180E87EDF82
:1007400010931402DF91CF911F910895CF93DF93FF
:100750001F92CDB7DEB7682F6983D8DF698180E04B
:100760000F90DF91CF9148CF1F93CF93DF931F92CC
:10077000CDB7DEB7182F6983C9DF4981612F80E4C7
:100780000F90DF91CF911F9159CF1F93CF93DF939C
:100790001F921F92CDB7DEB7182F69837A83B6DF19
:1007A0004981612F80E44ADF61E0610F7A81472F40
:1007B00080E40F900F90DF91CF911F913FCF609118
:1007C0003A0670913B066115710519F06150710987
:1007D00002C06FEF77E08CE0D8CFF1CFFF920F939C
:1007E0001F93CF93DF9389E3B1DF882309F444C0DB
:1007F00060913A0670913B06EB012696C11588E0A0
:10080000D80710F0CF5FD74080E0BFDF60E08AE319
:10081000F3DE90E090933B0680933A0660E08AE333
:10082000EBDE20913A0630913B06382B30933B06A5
:1008300020933A0660E08AE3DFDE082F60E08AE377
:10084000DBDE182F60E08AE3D7DEF82E40E46EE1AD
:1008500080E8F4DEF7FE0FC0D0933606C09335066D
:10086000202F30E0312B245031093093380620936B
:1008700037068FEF02C0A3DF80E0DF91CF911F9199
:100880000F91FF900895EF92FF920F931F93CF93D4
:10089000DF938B017A018F3FC1F025E0829FE00159
:1008A0001124C45CD94F02C0C5E3D6E068817981C8
:1008B000600F711F80E069DF8A819B81801B910B33
:1008C000E816F90690F4C70110C0809135069091A2
:1008D0003606860F971F811528E0920728F3BC0182
:1008E0006F5F7740C5E3D6E0E5CFDF91CF911F91F1
:1008F0000F91FF90EF9008950F931F93CF93DF9385
:100900008A01A901C0DFEC01B801BBDECE01DF9195
:10091000CF911F910F910895CF92DF92EF92FF92A6
:100920000F931F93CF93DF938B016A01790195E0B9
:10093000899FE0011124C45CD94F68817981600FDF
:10094000711F82E022DF0A80DB81C02DC01BD10B2A
:10095000EC16FD0608F4E701B601CE01B5DECE01C6
:10096000DF91CF911F910F91FF90EF90DF90CF908B
:100970000895BC0180E009DF60E085E30E94682CF7
:100980008AE38EBD0DB407FEFDCF1EBC0DB407FE7D
:10099000FDCF61E085E30E94682C8EB50895CF936A
:1009A000C62FBC0182E0F1DE60E085E30E94682C86
:1009B0008AE78EBD0DB407FEFDCFCEBD0DB407FE98
:1009C000FDCF61E085E3CF910C94682CFF920F93EB
:1009D0001F93CF93DF9395E0899FF0011124E45C8E
:1009E000F94FC081D1812197028113810C0F1D1F06
:1009F000CE01BFDFF82E882319F060E0CE01CFDFF3
:100A0000BE0184E0C2DEB80186E0BFDE48E06FE1EF
:100A100080E814DE8CE19ADE81FF04C048E06FE1DB
:100A200080EA0CDEFF2041F06F2DCE01DF91CF91E7
:100A30001F910F91FF90B3CFDF91CF911F910F9135
:100A4000FF900895CF92DF92EF92FF920F931F9342
:100A5000CF93DF937C01EB014130510569F4CB0169
:100A600088DF682FC701DF91CF911F910F91FF9011
:100A7000EF90DF90CF9093CF6A01C60ED71E86010C
:100A80000150110980E181DEB70184E17EDEC115EC
:100A9000D84030F4011588E0180710F00F5F1740B8
:100AA000B80182E172DE40E16FE180EAC7DD40E239
:100AB0006FE180E8C3DD6FE180E09EDD85FDFBCF67
:100AC000DF91CF911F910F91FF90EF90DF90CF902A
:100AD00008950F931F93CF93DF93EB01E5E0E89F19
:100AE000D0011124A45CB94F4F3FB9F0E49FF0014D
:100AF0001124E45CF94F02C0E5E3F6E06081718106
:100B0000620F731F8D919C91A8018C0F9D1F9ADF1E
:100B1000DF91CF911F910F9152CEE0913506F09168
:100B20003606E20FF31FE11588E0F80728F3BF014E
:100B30006F5F7740E7CFCF93DF93EB01682F84EDB2
:100B400013DEBE0186ED21DE8AEE00DE80FF05C0E9
:100B50008FE090E00E94702BF7CFDF91CF91089546
:100B6000CF93DF93EC01D0D061E085E30E942F2C7E
:100B700061E085E30E94682C61E083E30E942F2CF2
:100B800061E084E30E942F2C60E082E30E942F2C1E
:100B900061E085E30E942F2C60E083E30E94682CD3
:100BA00060E084E30E94682C80E58CBD8DB5816097
:100BB0008DBD4FEF60E08FEF41DD62E370E080E0DC
:100BC00090E00E944B2B10923B0610923A0660E098
:100BD00070E088E0DADD60E070E08CE0D6DD6FEF99
:100BE00077E08AE0D2DD61EB88E3BEDD6FE370E39E
:100BF00088E2CBDD69EF77EF80E3C7DD6DE070E081
:100C000080ECC3DD42E362EC80E818DD62E17CE069
:100C100086ECBBDD62E184ECA7DD6CED75E08AEC6F
:100C2000B4DD688184EEA0DD698185EE9DDD6A8199
:100C300082EE9ADD6B8183EE97DD6C8180EE94DD30
:100C40006D8181EE91DD60E071E080E174DF8FE124
:100C50005DDD40EC6BE180E8F1DC44E06FE180E8D1
:100C6000EDDC66E774E084E1DF91CF9164CF0F9310
:100C70001F93CF93DF93EC01862FBA01A90103DE06
:100C80008C010150110960E085E30E94682C8AE321
:100C90008EBD0DB407FEFDCF20E030E020173107F8
:100CA000C0F41EBC0DB407FEFDCF8EB590E0982FAA
:100CB00088271EBC0DB407FEFDCF4EB5840F911DD5
:100CC000C80FD91FC817D90708F421962E5F3F4FC8
:100CD000E5CF2017310771F41EBC0DB407FEFDCF20
:100CE0008EB590E0982F8827C80FD91FC817D9074D
:100CF00008F4219661E085E30E94682CCE01DF9123
:100D0000CF911F910F910895ECE3F6E08DECDF0198
:100D10001D928A95E9F781E098E091838083089598
:100D2000DF92EF92FF920F931F93CF93DF937C019B
:100D300040913C0650913D064150584E80E098E16C
:100D4000ECE3F6E000E0C0E0D0E025E0D22E148134
:100D5000112341F0D19ED0011124A45CB94F2D91F3
:100D60003C9101C09A0160817181261B370B628121
:100D70007381261B370B2E153F0539F485E0089F3C
:100D8000E0011124C45CD94F48C0E216F30648F4D0
:100D90002817390730F4D09EE0011124C45CD94FE4
:100DA000C901111107C02097C1F5CCE3D6E085E059
:100DB000D82E1DC0D19EF0011124E45CF94F012F03
:100DC000C6CF0A811B8188819981080F191FD29E85
:100DD000E0011124C45CD94F688179810617170797
:100DE00031F04A815B81C8012DDE198308832C8193
:100DF0002111E7CF20913C0630913D0688819981F1
:100E0000281B390B8A819B81281B390B2150384EB6
:100E10002E153F0510F480E019C0E1E4F6E081E012
:100E200022813381232B29F035968F5F8932C1F7D8
:100E3000F2CF2A813B8148815981240F351F3183AC
:100E40002083F382E2829C8194838C83DF91CF9113
:100E50001F910F91FF90EF90DF9008958823F9F094
:100E6000ECE3F6E025E09481981311C095E0899FAA
:100E7000D0011124A45CB94F14968C9114978483EB
:100E800013961C921E92129714961C920895992301
:100E900031F0299FF0011124E45CF94FE4CF08956B
:100EA00095E0899FF0011124E45CF94F80819181E4
:100EB000860F971F9183808382819381861B970B76
:100EC00093838283089595E0899FF0011124E45C67
:100ED000F94F80819181860F971F9183808353837F
:100EE00042830895FC015381560F5093EF08872FDA
:100EF00099274281480F4093EE08A181A093ED0805
:100F0000E081E093EC08242F30E02817390748F4FB
:100F100081E08A0F8093ED08811103C0EF5FE093B9
:100F2000EC08852F90E077278617970788F44F5FA6
:100F30004093EE0841110CC08091ED088F5F8093C3
:100F4000ED08811105C08091EC088F5F8093EC085B
:100F500008952091F3083091F408BC01C901089666
:100F6000C1DFE091F308F091F4088091EC088087EC
:100F70008091ED0881878091EE0882878091EF084B
:100F80008387089580E0E82FF0E0EE0FFF1FE3591C
:100F9000F64F118210828F5F8430A8F380E09EE1CB
:100FA000989FF0011124EB50F74F118E8F5F843022
:100FB000B8F380930C0780E094E090930E07809341
:100FC0000D070895CF9320910D0730910E072F5FE5
:100FD0003F4F21154DE7340710F020E030E1522F4C
:100FE000432FE5EFF8E0C0E0C43059F0A18DAA230B
:100FF00029F0A481B581A417B50749F3CF5F7E9688
:10100000F3CF30930E0720930D0710920C0720E0CA
:10101000E0E0F0E04EE12430E0F4429FD001112402
:10102000AB50B74F59963C915997311104C020935A
:101030000C07FD0110C0373041F4309739F05A9653
:101040005C915A97328D351708F0DF012F5FFD0153
:10105000E2CF20930C073097B1F122E0218F20914D
:101060000F072487209110072587209111072687D5
:1010700020911207278720E032E0338B228B358BBB
:10108000248B21E030E0318B208B138E228F23E0E4
:10109000208F168A20E1278B20910D0730910E07B3
:1010A0003227232732273583248377836683DC0125
:1010B0002D913C9111973183208312968D919C91B3
:1010C000139793838283CF01CF9108951F93CF937A
:1010D000DF93C091F308D091F40827EB39E0309307
:1010E000F2082093F1083093EB082093EA0883304C
:1010F00059F4898D8F70833009F0A9C58889998941
:10110000892B09F0A4C57FC0823009F080C080918E
:1011100012078F5F80931207811113C0809111070E
:101120008F5F8093110781110CC0809110078F5F32
:1011300080931007811105C080910F078F5F809306
:101140000F071092E9081092E8081092E609109231
:10115000E509298D822F8D7F853041F48A8D8F5F3F
:101160008A8F883709F073C5198E71C5222309F457
:101170006EC588899989892B09F441C08A8D9FEFB2
:10118000980F9A8F811163C58B8D883031F09FEF56
:10119000920F923048F4853039F4198E80E88093AC
:1011A000F0080E947D1312C4853038F493E0082EB5
:1011B00001C0990F0A94EAF701C090E39A8F8F5FFC
:1011C0008B8F822F8F708330A1F048F4813009F427
:1011D0002FC2823009F03BC51092B0092CC2863074
:1011E00009F495C3883009F492C3843009F02FC5FF
:1011F0008EC384E08093F0080E947D1319C42F7081
:10120000233009F024C588E08093F008D5C380918D
:101210008F09853409F01BC58091910990E0982FC2
:10122000882720919209820F911D2091E808309122
:10123000E9082817390708F40AC59093E90880934C
:10124000E808809195098F7309F001C5809196098E
:101250008111FDC480917D0990917E09009731F440
:1012600020917F0930918009232BA1F020919F09C3
:101270003091A0092817390709F0E9C42091A10984
:101280003091A20980917F09909180092817390730
:1012900009F0DDC40E94EA17019609F0D8C48091D4
:1012A00098098630D1F1813009F0D1C48091A30929
:1012B000883009F0CCC41092A3098091A5099091BF
:1012C000A609873FAFEF9A0710F0099601C008966C
:1012D0009093A6098093A50980919B0990919C0900
:1012E0009093A00980939F0980919D0990919E09F8
:1012F0009093A2098093A10980917D0990917E0924
:1013000090939C0980939B0980917F09909180091B
:1013100090939E0980939D099EC40E94AE170196EA
:1013200009F095C48091A5099091A6092091A3097F
:101330003091A40940919B0950919C0960919D09AD
:1013400070919E09EEE0F9E0C5EFD8E0108111231D
:10135000A9F0AC81BD818A179B0781F4AE81BF8162
:101360002A173B0759F4A881B9814A175B0731F462
:10137000AA81BB816A177B0709F474C16E967E96B9
:10138000A9E0CD36DA0711F72091B0092F7322308A
:10139000E1F490930A078093090740E0443098F401
:1013A000E42FF0E0EE0FFF1FE359F64F208131816B
:1013B0004F5F8217930791F710920C0720E0C0E06F
:1013C000D0E03EE17EC040930C078091B00982FDE1
:1013D0003EC484E18093B00988E290E09093E908EC
:1013E0008093E80880E58093AF098091AA099091E5
:1013F000AE099093AA093091A9099091AD099093F3
:10140000A9093093AD092091A8099091AC09909356
:10141000A8092093AC099091A70990930C074091DB
:10142000AB094093A7099093AB098F5F8093AE09F6
:1014300081110FC081E0830F8093AD09811109C034
:1014400081E0820F8093AC09811103C09F5F90936C
:10145000AB098091A3099091A40990930A07809306
:1014600009072091A5093091A6093093A40920937A
:10147000A3099093A6098093A50980919B09909157
:101480009C099093A00980939F0980919D09909158
:101490009E099093A2098093A10980917D09909162
:1014A0007E0990939C0980939B0980917F0990917C
:1014B000800990939E0980939D098BC3473099F0D2
:1014C0002F5F2430F0F4822F90E0389FF001399F95
:1014D000F00D1124EB50F74F418D4111EFCF2093C8
:1014E0000C07EF0110C0209721F0528D4A8D45174F
:1014F00038F7389FE001399FD00D1124CB50D74FDA
:10150000DFCF20930C07209709F4A1C3D093F408F0
:10151000C093F30883E08A8F888F1E8A84E08F8BC4
:101520001B8E8091A5099091A6099D838C83809143
:10153000A3099091A4099F838E8380919B09909128
:101540009C099983888380919D0990919E099B8332
:101550008A8381E0898F80910F078C8780911007A3
:101560008D87809111078E87809112078F8781E088
:1015700090E0998B888B8091AA098B878091A9092B
:101580008A878091A80989878091A709888781E047
:1015900090E0DFDC8091AF09282F207F30E02135FB
:1015A00031050CF445C082958F7090E00597880F47
:1015B000991F880F991F30910B0720E0E22FF0E070
:1015C000E817F9078CF5EF57F64F36A9311105C02A
:1015D00020930C0710920B072BC0313011F42F5FB2
:1015E000EDCF3230E1F447A94430C9F420930C0721
:1015F00030930B0780AD90E0982F882721AD822B88
:1016000090930A0780930907813022E0920710F037
:1016100080E092E09B8B8A8B9D8B8C8B09C047A9C5
:10162000442311F0240FCACF20930C0730930B07EB
:1016300080E18093B0098091B00982608093B00905
:1016400082E08093B70994E09093B8098093B90938
:101650001092BA098CE290E09093E9088093E80830
:1016600080E665C2D093F408C093F3081092F008A6
:101670003091B00932FF03C0198E80E206C220917A
:10168000AF0922952F70220F220F20930C07809113
:10169000E8089091E9084497821B91099093E90822
:1016A0008093E8081F70123021F4232F2F7322310A
:1016B000C9F0892B19F4832F8370A1F09091A709A9
:1016C000888598132AC29091A8098985981325C204
:1016D0009091A9098A85981320C29091AA098B85B7
:1016E00098131BC234FF49C0688979896115710557
:1016F00009F443C0CE010C96F5DB3091AB09809123
:10170000EC0838133AC02091AC098091ED082813F9
:1017100034C09091AD098091EE0898132EC080914D
:10172000AE094091EF08841328C03C872D879E871F
:101730008F878B8D81111AC02E89888D9A8D891B78
:10174000922F969596959695891B280F2E8B87FD3F
:1017500081959F89392F36953695931B980F9F8BCE
:10176000822F869586958695890F888F81E0809354
:10177000F008888D8A8F198A188A498D842F8F7076
:1017800090E0FC013197E830F10508F060C2EE58B6
:10179000FF4F0C94862E8091F00880FF58C283E0A2
:1017A000898F80E48093F008198A188A8091E8086C
:1017B0009091E908009709F4FBC022E42093F00817
:1017C000C8DBF6C08091F00880FF6FC08091B0093F
:1017D0008F73823109F069C08091AF09282F207F73
:1017E00030E0213531050CF445C082958F7090E0D2
:1017F0000597880F991F880F991F30910B0720E0DC
:10180000E22FF0E0E817F9078CF5EF57F64F36A90D
:10181000311105C020930C0710920B072BC03130FB
:1018200011F42F5FEDCF3230E1F447A94430C9F411
:1018300020930C0730930B0780AD90E0982F8827FA
:1018400021AD822B90930A07809309078130A2E093
:101850009A0710F080E092E09B8B8A8B9D8B8C8B9B
:1018600009C047A9442311F0240FCACF20930C07C5
:1018700030930B0783E0898F8091A7098887809137
:10188000A80989878091A9098A878091AA098B87ED
:1018900081E090E05EDB82E48093F008198A188A88
:1018A0001092E9081092E80883C080E28093F00863
:1018B00024D7E091F308F091F408118E86CD809141
:1018C000B00980FF26C044FD24C088899989892BEE
:1018D00009F0BDC18091E8089091E908019639DBD3
:1018E0002091F008822F80618093F0088091E808B1
:1018F0009091E908892B19F022612093F008FDD618
:1019000081E090E0998B888B88E0898F1B8E81E144
:1019100005C185FF1CC08091B50990E0982F8827EC
:101920002091B609822B2091F1083091F208280FFE
:10193000391F3093F2082093F1082091E808309184
:10194000E908281B390B3093E9082093E8088091B7
:10195000E8089091E908009741F044FD06C0209105
:10196000F00822602093F008F4DA8091B10990E049
:10197000982F88272091B209820F911D90930A0712
:10198000809309072C893D892817390710F0892B86
:1019900021F430930A072093090780910907909159
:1019A0000A079B8B8A8B8091F008837009F44FC1E2
:1019B0001092E6091092E509A0D68091F00885FF03
:1019C00007C01092E6091092E509198E84E1A6C0BD
:1019D00084FF0AC01092E6091092E50981E090E0C8
:1019E000998B888B84E091CF2091E5093091E609AD
:1019F00021153105E1F080FF02C0198A188A888913
:101A00009989009781F48A899B898217930720F42A
:101A10009093E6098093E5098091E5099091E609A4
:101A2000998B888B04C09093E6098093E5091B8EFF
:101A30008091EA089091EB089093F2088093F10866
:101A40008091E5099091E609892B59F08889998957
:101A5000009739F088969093E9088093E80888E128
:101A60000BC08091F00881FFF2C088E290E0909373
:101A7000E9088093E80880E18093B00957C080911D
:101A8000F00880FFE4C0198E80E18093F00835D61D
:101A9000DEC08091E8089091E908009709F059DAD2
:101AA0009091B0098091F00890FF0BC080FF06C0B4
:101AB00087E0898F1A8E198A188A18C086E0898F64
:101AC00015C080FF1BC085E0898F198A188ABFC0A6
:101AD0008091E8089091E908009709F03ADA80913E
:101AE000B00980FF0BC087E0898F1A8E81E090E0FB
:101AF00030DA80E18093F00800D60FC08091E808CA
:101B00009091E908892B49F4A2C08091F00880FFE8
:101B10009EC087E0898F1A8E9AC080E18093B009B9
:101B200088E290E09093E9088093E80880E580934C
:101B3000AF0988858093AB0989858093AC098A8534
:101B40008093AD098B858093AE098C858093A7091E
:101B50008D858093A8098E858093A9098F858093B0
:101B6000AA0986E0809398098C819D819093A409AD
:101B70008093A3098E819F819093A6098093A509E4
:101B800080917D0990917E0990939C0980939B0997
:101B900080917F099091800990939E0980939D097F
:101BA000888199819093A00980939F098A819B8164
:101BB0009093A2098093A109898D84FF05C010929A
:101BC000B2091092B10905C082E08093B109109268
:101BD000B20980E4809397098091E8089091E90820
:101BE00090939109809392091092B6091092B509C9
:101BF0001092B4091092B3090E94AE178095909587
:101C00009093B4098093B30985E480938F0910926F
:101C1000900910929609109295098091130790915E
:101C200014070196909314078093130790939309D8
:101C30008093940910929A09109299090E94EA17C8
:101C40008095909590939A098093990904C0109279
:101C5000E9081092E8081092F008DF91CF911F91E7
:101C6000089598278927982708959C01AB017093C0
:101C7000E6096093E5091616170654F48091EA0800
:101C80009091EB082817390719F0B9010C943931F4
:101C90000895FF920F931F93CF93DF93DC01FB0115
:101CA00010921E0760E07BE0683010F5769FE0013F
:101CB0001124CD5DD84F2881398121153105B1F02E
:101CC0008A819B81009791F04D915C911197421709
:101CD000530761F412962D913C91139728173907F9
:101CE00029F460931E07DE0114964FC06F5FDCCFAE
:101CF00020E03BE0283090F4329FE0011124CD5DDC
:101D0000D84F88819981892B39F48A819B81892BCD
:101D100019F420931E0730C02F5FECCF20931E07CD
:101D2000283051F500911C07802F90E010E070E002
:101D300060E02BE0F22E683098F4F69EE00111246A
:101D4000CD5DD84FCA85AC014C1B5109212F30E025
:101D5000241735071CF4762F102F1C1B6F5FEBCF59
:101D600010931B0770931D0770931E078BE0789FDD
:101D7000E0011124CD5DD84F4D915D916D917C9125
:101D8000DE014D935D936D937D9386E001900D92FE
:101D90008A95E1F780911C078A87DF91CF911F9187
:101DA0000F91FF90089510921E079BE080911E07EF
:101DB000883068F4989FF0011124ED5DF84F10828F
:101DC0001182128213828F5F80931E07EFCF0895D6
:101DD0008091E8089091E9080E979093E908809324
:101DE000E80880917D0990917E0920919B093091AE
:101DF0009C09822793272091790930917A098223BF
:101E00009323892BB9F480917F09909180092091C7
:101E10009D0930919E098227932720917B0930915B
:101E20007C0982239323892B29F467E879E08BE9E5
:101E300099E02FCF08958091E8089091E9081092D9
:101E4000E9081092E8088A9708F4089580919509A6
:101E500090919609811521E0920729F08115924011
:101E600009F475C008952091A7093091A8098091BF
:101E70007D0990917E092817390709F083C02091C8
:101E8000A9093091AA0980917F09909180092817AA
:101E9000390709F077C067E979E08DE999E0F9DE63
:101EA00080E092E0909396098093950986E0E7E9B7
:101EB000F9E0A1EAB9E001900D928A95E1F786E098
:101EC000E5E1F7E0A7E9B9E001900D928A95E1F725
:101ED00086E0E5E1F7E0A7E8B9E001900D928A9588
:101EE000E1F786E0E1EAF9E0A1E8B9E001900D92BE
:101EF0008A95E1F780919D0990919E099093A80998
:101F00008093A70980919F099091A0099093AA09B5
:101F10008093A90980917D0990917E0990939E09F3
:101F200080939D0980917F09909180099093A009E9
:101F300080939F0988E096E090938E0980938D09A5
:101F40008AE290E09093E9088093E8080895209150
:101F5000A7093091A80980917D0990917E092817E1
:101F6000390781F42091A9093091AA0980917F094C
:101F7000909180092817390729F467E979E08DE9FC
:101F800099E087CE089520919F093091A0092F3FB5
:101F90004FEF340751F48091A1099091A209019665
:101FA00021F486E0E5E4F2E0C6C080917D099091DD
:101FB0007E09822793274091790950917A098423D9
:101FC0009523892B91F44091A1095091A209809108
:101FD0007F09909180098427952760917B097091F2
:101FE0007C0986239723892B89F08091750990912C
:101FF00076099093200780931F078091770990912D
:102000007809909322078093210708C03093200716
:1020100020931F07509322074093210780911F07A9
:1020200090912007209121073091220760E07BE00A
:10203000683090F4769FF0011124ED5DF84F4081F7
:1020400051818417950731F4428153812417350754
:1020500009F46DC06F5FECCF60931E07683009F024
:1020600068C046E050E06FEF70E081E899E00E94C0
:10207000423126E0E1EAF9E0DF01422F1D924A9564
:10208000E9F7E5E1F7E0A7E8B9E0822F01900D92CA
:102090008A95E1F7E5E1F7E0A7E9B9E0822F019041
:1020A0000D928A95E1F780911F07909120079093F8
:1020B000A8098093A7098091210790912207909306
:1020C000AA098093A90980917D0990917E09909336
:1020D0009E0980939D0980917F099091800990933A
:1020E000A00980939F0980E091E0909396098093E6
:1020F00095099093900980938F0988E090E09093E0
:102100009209809391092093930984E08093940924
:1021100088E096E090938E0980938D0987EB99E093
:102120009093F2088093F1088AE290E01EC06093D9
:102130001E07349686E0A1E8B9E001900D928A95D9
:10214000E1F786E0E5E1F7E0A7E8B9E001900D925C
:102150008A95E1F788E090E090938E0980938D094D
:102160008091E8089091E9080E969093E908809391
:10217000E80808950F9300E020E040E060E08BE77E
:1021800097E00E9422290F9108950F9300E020E02C
:1021900040E060E081E897E00E9422290F910895D5
:1021A000DC01ED91FC91008CF18DE02D199591E011
:1021B0008927089580E090E00895DC011C96ED9158
:1021C000FC911D97309741F08181882311F081E0C7
:1021D0000895808184FDFBCF80E00895FC01448553
:1021E00055854115510551F0FB0124853585211593
:1021F000310521F081E04217530709F080E008958E
:10220000CF93DF931F92CDB7DEB7DC01ED91FC9148
:102210000088F189E02D41E050E0BE016F5F7F4F03
:10222000199597FD03C0898190E002C08FEF9FEF61
:102230000F90DF91CF910895CF93DF93EC01A9D355
:10224000EC85FD85309749F0808186FD02C081E0F4
:1022500005C08181882311F0FACF80E0DF91CF9112
:102260000895CF92DF92EF92FF920F931F93CF9337
:10227000DF9300D01F92CDB7DEB77C018B016A01DE
:10228000DC01ED91FC910288F389E02D1995F801AC
:10229000228130E0322F22278381282B32272327E7
:1022A00032273A832983248130E0322F2227858107
:1022B000282B3227232732273C832B83C601D1DCEE
:1022C000BC01CE0101960E94E2078C01009719F42F
:1022D00080E090E016C0D80159968C918F70C1F3C0
:1022E00058D3D80159968C9159978F70833099F7AC
:1022F0005C968D919C915D97F7019587848781E02D
:1023000090E00F900F900F900F90DF91CF911F9161
:102310000F91FF90EF90DF90CF9008950F931F9350
:10232000CF93DF931F92CDB7DEB78C01DC01ED9127
:10233000FC910688F789E02D19958823A1F0D80132
:102340001C96ED91FC911D978181882361F021E01D
:1023500030E0AE014F5F5F4F60E070E00E947C04B0
:10236000898190E002C08FEF9FEF0F90DF91CF91B6
:102370001F910F910895FC011382128248EE53E0E1
:1023800060E070E044835583668377838FE492E056
:1023900091838083158614860895EF92FF920F93A0
:1023A0001F93CF93DF937C01C0E0D0E000E010E00A
:1023B000F701EC0FFD1F81810E94E702080F191F32
:1023C0002196C530D105A1F7C801DF91CF911F91AA
:1023D0000F91FF90EF900895CF93DF93EC01E88188
:1023E000F9810688F789E02D1995882329F08C85D5
:1023F0009D85DF91CF91D1CF80E090E0DF91CF91AB
:102400000895CF93DF93E7E8F7E080E090819111A2
:102410000AC08061DF018D9380E1ED0119928A95F8
:10242000E9F7CF0106C08F5F7196843079F780E0BD
:1024300090E0DF91CF910895FC01319681E0919178
:10244000911102C0815008958F5F8530C1F784E0FB
:1024500008959F92AF92BF92CF92DF92EF92FF9238
:102460000F931F93CF93DF93EC016B017A018A01E5
:102470005C0186E0A80EB11C8CD2209709F445C0FF
:102480008881807609F041C0C501D6DF982EFE0113
:10249000E80FF11D868181110CC080E092E00E945E
:1024A0009006FE01E90DF11D8683882329F31C8621
:1024B0001B86A701401B510B4C0D5D1D6B857C8558
:1024C0009801FE01E90DF11D86810E948C04081B14
:1024D000190B2B853C85280F391F3C872B8710163D
:1024E00011062CF484E0981639F29394D6CF0E940A
:1024F0001C2B665F7F4F8F4F9F4F6D877E878F8727
:10250000988BC701801B910B02C08FEF9FEFDF916B
:10251000CF911F910F91FF90EF90DF90CF90BF90E0
:10252000AF909F900895CF93DF931F92CDB7DEB702
:10253000698341E050E0BE016F5F7F4FFC018485FD
:10254000958587DF0F90DF91CF910895FC018485F9
:1025500095857FCF0F931F93CF93DF938C01EC0171
:1025600089910E942E07F801C801049629912193B0
:10257000E817F907D9F7F8011482DF91CF911F917D
:102580000F9108959F92AF92BF92CF92DF92EF92F8
:10259000FF920F931F93CF93DF93EC015B017A01BE
:1025A000E881F9810688F789E02D1995882309F4D7
:1025B00055C0EC85FD858181882309F452C08701CF
:1025C0002EE1922EA701401B510B4A0D5B1DEC859D
:1025D000FD85980160E070E081810E947C046C01BF
:1025E000EC85FD8581810E94E702EC85FD85C8169A
:1025F000D90649F50C191D09CF010196ABDFAC8551
:10260000BD852C91822F90E08F70989EF001999E4D
:10261000F00D1124EB50F74F818D84FF05C0822F00
:10262000807611F420682C93EC85FD8581818111E1
:102630000FC0808186FF03C010821D861C86C701E3
:10264000801B910B10C0B60181810E94500704C00D
:102650000115110509F0B6CFC70105C08FEF9FEF37
:1026600002C080E090E0DF91CF911F910F91FF9029
:10267000EF90DF90CF90BF90AF909F9008951F9301
:10268000CF93DF93EC0115E088810E942E07199209
:102690001150D1F7DF91CF911F910895CF93DF9320
:1026A000EC018C859D85009779F0FC012081222327
:1026B00059F00196E4DFEC85FD85808186FF02C03C
:1026C000108202C0806280831D861C86DF91CF91BC
:1026D00060C1CF93DF93EC01E881F9810688F78927
:1026E000E02D1995882331F08C859D850196DF9129
:1026F000CF91C5CFDF91CF910895DF92EF92FF92F6
:102700000F931F93CF93DF93E091F308F091F408B8
:10271000C48DD58D209779F48091F00886FF43C051
:1027200070DEEC01009709F43EC0E091F308F091EF
:10273000F408958F848F8091F00881FF07C0809105
:10274000E8089091E908892B09F041C0888187FF4A
:102750000EC08F7788838091F00882608093F008A4
:10276000E091F308F091F408818D8F7E818F809144
:10277000F00884FF6BC0CE01069681DF8981882333
:1027800009F467C0E091F308F091F4088481958121
:102790009F838E83888180648883E091F308F09121
:1027A000F408158E148EE12CF12CB7018091F108FC
:1027B0009091F2085ADAF092E908E092E808DF9185
:1027C000CF911F910F91FF90EF90DF900895888136
:1027D000807609F0BBCFE12CF12C8E010E0D1F1D70
:1027E000F801818181111EC08091E8089091E9086B
:1027F0000E949006F80181838823A1F00091E808E7
:102800001091E9082091F1083091F20821583940DF
:102810004091DF0760E070E00E946905F4E0EF128C
:1028200095CF0CC02FEFE21AF20A35E0E316F1045F
:10283000A1F68091DC078E7F8093DC07E091F3089E
:10284000F091F408818D8061818F80CF87FF03C074
:1028500092CF1882A2CF80FF03C0CE0106967ADE07
:102860008091F0088C70D1F18E818823B9F19F811D
:1028700091110CC0EB84FC84E114F10409F493CFB2
:10288000A70160E070E00E94630706C00E94E702B3
:102890007C01009709F487CF8091F1089091F208AC
:1028A000815899408093DD07F701E80FF11DCF01B2
:1028B0000E9490068093DE07882309F476CF60910A
:1028C000DD0770E0870120E030E04E810E9469055D
:1028D0008091DC0782608093DC0767CF888185FF69
:1028E00062CF8E8181110BC01882E091F308F091C4
:1028F000F408158E148E80E18093F00854CFE09197
:10290000F308F091F408818D8061818F4CCF0F9393
:1029100000E020E040E060E08BEC97E00E9422299C
:102920000F9108958091DC0781FF11C02091DD0790
:1029300030E041E859E060E070E08091DE070E94FD
:102940008C048091DC078D7F8093DC0714C080911C
:10295000E8089091E9080E9490068093DE0788239A
:10296000B1F02091E8083091E90841E859E060E0D1
:1029700070E00E948C048091DE070E94E604809142
:10298000DE070E942E071092DE0781E0089580E0A6
:102990000895CF92DF92EF92FF921F93CF93DF9330
:1029A0008091DF07811104C00E94EE038093DF074E
:1029B0008091DF07882309F443C091E09093DC07FE
:1029C0000E94E7029093E9088093E808892B61F15F
:1029D00022E630E041E859E060E070E08091DF07F6
:1029E0000E947C0480918D0990918E098830910518
:1029F00081F48091DF078093DE07EAD981E00E94AD
:102A000066088091E8089091E908892B69F0BBDAA3
:102A10000AC08830964041F40EDA8091E80890911F
:102A2000E908892B09F07EDF8091DF07882341F0D8
:102A30008091DC0780FF04C00E94ED031092DF0745
:102A40000E941C2B6B017C018091D2079091D307CF
:102A5000A091D407B091D507A7019601281B390B87
:102A60004A0B5B0BDA01C90180959095A095B09552
:102A70008827B7FD83959927AA27BB27182FC5EF6D
:102A8000D8E0D093F408C093F308112311F082E04A
:102A90000FC0EC8DFD8D4585568567857089D70102
:102AA000C601841B950BA60BB70BB7FD0BC083E0CB
:102AB0000E9466082091E8083091E908232B11F064
:102AC00062DA30DF6E9699E0CD36D907D1F6112360
:102AD00069F0AAEFCA0ED11CE11CF11CC092D2070A
:102AE000D092D307E092D407F092D507DF91CF912F
:102AF0001F91FF90EF90DF90CF900895CF93DF93D9
:102B0000EC010E941C2B66507F4F8F4F9F4F6093AC
:102B1000D2077093D3078093D4079093D507CE0143
:102B20000E94B005888180931507898180931607DC
:102B30008A81809317078B81809318078C818093FB
:102B400019078D8180931A070E94C207DF91CF91E8
:102B50002AC9CF93DF93FC01DA01E901228130E039
:102B6000322F22278381282B848190E0982F882779
:102B70004581842B32272327322730937E092093E7
:102B80007D099827892798279093800980937F094A
:102B900012962C91129730E0322F222713968C91A7
:102BA0001397282B14968C91149790E0982F8827D0
:102BB00015964C91842B32272327322730937609A0
:102BC00020937509982789279827909378098093EF
:102BD00077092A8130E0322F22278B81282B8C81A4
:102BE00090E0982F88274D81842B32272327322786
:102BF00030937A0920937909982789279827909309
:102C00007C0980937B09FB0182819381A481B5813A
:102C10008093D8079093D907A093DA07B093DB0786
:102C2000DF91CF910895AF92BF92CF92DF92EF9252
:102C3000FF920F931F93CF93DF93CDB7DEB76897C3
:102C40000FB6F894DEBF0FBECDBFCB016A015901AC
:102C500055DF26E435E03A832983F70182819381A9
:102C6000A481B5818B839C83AD83BE8338872F83FA
:102C7000F80182819381A481B58189879A87AB8786
:102C8000BC873E872D87F50182819381A481B58120
:102C90008F87988BA98BBA8B3C8B2B8BF60182810B
:102CA0009381A481B5818D8B9E8BAF8BB88F9E0154
:102CB0002F5F3F4FAE01495F5F4FBE01635F7F4FA4
:102CC000CE01439646DF68960FB6F894DEBF0FBE7E
:102CD000CDBFDF91CF911F910F91FF90EF90DF90CB
:102CE000CF90BF90AF9008956F927F928F929F92F6
:102CF000AF92BF92CF92DF92EF92FF920F931F930A
:102D0000CF93DF93CDB7DEB76E970FB6F894DEBFE3
:102D10000FBECDBF6C015B017A014901380100E0B3
:102D20002FEF4FEF6FEFCE0149960E94222926E444
:102D300035E03A8329838B8D9C8DAD8DBE8D8B8341
:102D40009C83AD83BE8338872F83F3018281938177
:102D5000A481B58189879A87AB87BC873E872D87F9
:102D6000F40182819381A481B5818F87988BA98B8F
:102D7000BA8B3C8B2B8BF701428153816481758127
:102D80004D8B5E8B6F8B788FCE0101967C018E010F
:102D9000095F1F4F9E01235F3F4FAE014D5E5F4FA6
:102DA000B501C60140DF6E960FB6F894DEBF0FBEC8
:102DB000CDBFDF91CF911F910F91FF90EF90DF90EA
:102DC000CF90BF90AF909F908F907F906F9008951D
:102DD000CF92DF92EF92FF920F931F93CF93DF93E7
:102DE000CDB7DEB768970FB6F894DEBF0FBECDBF84
:102DF0006B017901DA0112964D915D916D917C9193
:102E000015974D8B5E8B6F8B788FA6E4B5E0BA83F8
:102E1000A98321E0288F0D891E892F89388D0B8386
:102E20001C832D833E83B887AF83F7010281138112
:102E30002481358109871A872B873C87BE87AD8718
:102E40004F87588B698B7A8B8E010F5F1F4F9E01C6
:102E5000295F3F4FAE01435F5F4FB60145DF689684
:102E60000FB6F894DEBF0FBECDBFDF91CF911F919B
:102E70000F91FF90EF90DF90CF9008950F931F93E5
:102E8000CF93DF93CDB7DEB762970FB6F894DEBF6E
:102E90000FBECDBFDB01FA01428153816481758190
:102EA0004F87588B698B7A8BE6E4F5E0FA83E983E8
:102EB00021E02A8B0F85188929893A890B831C8385
:102EC0002D833E83F887EF8349875A876B877C87FA
:102ED0009E012F5F3F4FAE01495F5F4FBD0178DF1D
:102EE00062960FB6F894DEBF0FBECDBFDF91CF91D3
:102EF0001F910F910895FB0141505109460F571F33
:102F0000E417F50778F4208130E0322F2227618121
:102F1000260F311D820F931F8217930708F4019625
:102F20003296EECFE417F50751F4208130E0322FCE
:102F30002227820F931F8217930708F401960895A2
:102F400044E150E06FE879E080E090E0D4DF009762
:102F500011F00C94310E8FEF9FEF08950F931F9394
:102F6000CF93DF938091910990E0982F882720914B
:102F70009209820F911D8C010451110948E050E023
:102F80006BE979E00E97B7DFC091AF09C695C6959A
:102F9000CC73D0E0AE0163EA79E0ADDFC017D107B2
:102FA00050F498012C1B3D0BAE014E5D5F4F6091BC
:102FB000DE070E943706009731F0DF91CF911F9115
:102FC0000F910C94310E8FEF9FEFDF91CF911F91F6
:102FD0000F910895B5CF0F9300E020E040E060E04E
:102FE00080EE97E00E94222986ED97E00F910C94E5
:102FF00018290F9300E020E040E060E086EE97E0C3
:103000000E9422290F9108950F9300E020E040E0F4
:1030100060E08CEE97E00E9422290F910895FC0158
:1030200010820895CF92DF92EF92FF92CF93DF93B9
:10303000EC016A017B018B859C85AD85BE859A017B
:10304000AB01281B390B4A0B5B0BDA01C901498123
:103050005A816B817C8184179507A607B707D8F042
:103060008881813019F0823029F00CC0E985FA8519
:10307000199508C061E08885811160E068878F81BB
:103080000E94682CCB86DC86ED86FE868F8598892B
:103090000196988B8F878D819E8197FD06C02F8525
:1030A0003889281739070CF01882DF91CF91FF90EB
:1030B000EF90DF90CF9008950F931F93CF93DF93FE
:1030C000EC018C0106551F4FCE01A9DF6196C01798
:1030D000D107D1F7DF91CF911F910F910895CF9232
:1030E000DF92EF92FF921F93CF93DF936A017B01F0
:1030F000EC011AE08881882321F0B701A601CE01F6
:1031000091DF115061961111F5CFDF91CF911F9191
:10311000FF90EF90DF90CF900895CF93DF93EC0175
:103120000E941C2BAB01BC01CE01DF91CF91D7CF08
:1031300020E0FC013081332331F02F5F41962A30AB
:10314000C1F78FEF0895822F0895CF92DF92EF920B
:10315000FF920F931F93CF93DF9300D01F92CDB7B1
:10316000DEB76C01790149835A836B837C83E0DF8E
:10317000282F49815A816B817C818F3FD9F081E171
:103180002802C00CD11C112481E0F6018083418308
:1031900052836383748316830583F286E1862983D1
:1031A0000E941C2BF6016387748785879687108A97
:1031B00017862981822F0F900F900F900F90DF912B
:1031C000CF911F910F91FF90EF90DF90CF900895D6
:1031D0000F931F930FEF1FEFB8DF1F910F9108950B
:1031E00024E932E0FC0131832083089524E932E0B0
:1031F000FC01318320830C94D12A0F931F93CF932A
:10320000DF93EC018B01CA0144E952E05983488302
:103210002A879B838A83222331F04BE652E06AE8B7
:1032200072E00E9430241D830C83C80116D19F8355
:103230008E83C80114D199878887DF91CF911F9120
:103240000F9108950F931F93CF93DF938C01C0E0EC
:10325000D0E0F80180859185C817D907ACF4D80172
:103260001696ED91FC911797CE01880F991FE80FE4
:10327000F91F80819181009729F012966D917C91C0
:10328000139790D42196E5CFDF91CF911F910F91A5
:103290000895AF92BF92CF92DF92EF92FF920F9379
:1032A0001F93CF93DF938C017B016A01C0E0D0E0D4
:1032B000F80180859185C817D9073CF55E01AA0CF5
:1032C000BB1CD8011696ED91FC911797EA0DFB1DDA
:1032D00080819181009721F0B70111D4811102C042
:1032E0002196E6CFD8011696ED91FC911797EA0D3D
:1032F000FB1D80819181DC01ED91FC910480F581C1
:10330000E02DA601B7011995EBCFDF91CF911F9169
:103310000F91FF90EF90DF90CF90BF90AF90089506
:10332000DC0114968D919C911597DC01ED91FC9137
:103330000680F781E02D19940F9300E020E040E033
:1033400060E082EF97E00E9422290F91089522EC1D
:1033500032E0FC013183208361C4CF93DF93EC0121
:10336000F6DFCE01DF91CF910C94D12ACF92DF927C
:10337000EF92FF920F931F93CF93DF93CDB7DEB7FA
:103380002A970FB6F894DEBF0FBECDBF7C016B014C
:1033900061D48E010F5F1F4F22E044E00E94A92EEE
:1033A000C70164D4A801BC01C6010E943024C70132
:1033B00061D4882339F048E952E06AE872E0C60136
:1033C0000E9430242A960FB6F894DEBF0FBECDBF00
:1033D000DF91CF911F910F91FF90EF90DF90CF90F1
:1033E00008950F93CF93DF93EC0100E060E070E06D
:1033F00022D482EC92E099838883DF91CF910F9160
:1034000008950F9300E020E040E060E088EF97E04F
:103410000E9422290F9108952CEC32E0FC013183A7
:10342000208308952CEC32E0FC01318320830C943E
:10343000D12A2CEC32E0FC0131832083778B668B20
:1034400020E030E0FC01E20FF31F138212822E5FB6
:103450003F4F24313105B1F70895029608958AE06F
:1034600090E008950F9300E020E040E060E08EEFF0
:1034700097E00E9422290F91089528E033E0FC0193
:1034800031832083CBC3CF93DF93EC01F6DFCE01F2
:10349000DF91CF910C94D12AAF92BF92CF92DF925D
:1034A000EF92FF920F931F93CF93DF938C01EB0169
:1034B000D1D36B017C01C801D9D35C0120E030E09D
:1034C000A901C701B6010E942B2D882319F044EDF4
:1034D00052E002C04BED52E0B501CE010E94302413
:1034E000C801C8D3882389F040EE52E06AE872E050
:1034F000CE01DF91CF911F910F91FF90EF90DF9060
:10350000CF90BF90AF900C943024DF91CF911F915A
:103510000F91FF90EF90DF90CF90BF90AF90089504
:103520000F93CF93DF93EC0100E062E070E083D370
:1035300088E093E099838883DF91CF910F9108957C
:103540000F9300E020E040E060E084E098E00E941B
:1035500022290F910895DF92EF92FF920F931F930C
:10356000CF93DF9300D000D0CDB7DEB77C018B01C5
:1035700080910A0890910B088617970721F07093A5
:103580000B0860930A08C701ECD5D82E811120C022
:1035900024E433E0A9016EE073E0C70162D7882319
:1035A000B9F06EE073E0CE0101960E948F2A4EE0E2
:1035B00053E0BA01C7010E9430240115110511F032
:1035C000C80140DECE0101960E94282ADD24D39452
:1035D0008D2D26960FB6F894DEBF0FBECDBFDF91BE
:1035E000CF911F910F91FF90EF90DF900895AB0165
:1035F000BC0180910A0890910B084BCECF93DF93CA
:10360000CDB7DEB72A970FB6F894DEBF0FBECDBF99
:10361000DB01FE013196BF019F01261B370B4217CC
:10362000530718F02D912193F7CFFB01E40FF51FFD
:103630001082DDDF2A960FB6F894DEBF0FBECDBF35
:10364000DF91CF9108950F9300E020E040E060E02B
:103650008CE098E00E9422290F91089528E233E03F
:10366000FC0131832083089528E233E0FC0131839B
:1036700020830C94D12A0F931F93CF93DF931F9233
:10368000CDB7DEB78C01FC016483828169830E941F
:103690009D2C6981262F30E08217930721F0F801D5
:1036A00082810E94682CF8018481882319F041E20C
:1036B00053E002C046EE53E0F801658176818781D0
:1036C00090850F90DF91CF911F910F910C94302432
:1036D000EF920F931F93CF93DF93EC01862FE8E2D5
:1036E000F3E0F983E88318870F836A837B834C8335
:1036F0003E832D83E98661E00E942F2C60E0CE019D
:10370000DF91CF911F910F91EF90B5CF0F9300E014
:1037100020E040E060E082E198E00E9422290F91E1
:10372000089525EF33E0FC0131832083089525EFD0
:1037300033E0FC01318320830C94D12AFC0185EF16
:1037400093E091838083738362835583448321A3B1
:1037500082E090E09783868340E050E068EC71E47B
:1037600042875387648775871686178681E490E0C1
:10377000938B828B148A108E148E118E128E138E60
:103780000895EF92FF920F931F93CF93DF938A01D7
:10379000E9016130710581F062307105C1F0672B7C
:1037A00011F58DE090E00E94D02A7C019E01A801D5
:1037B00060E070E016DE15C08DE090E00E94D02A37
:1037C0007C019E01A80161E070E0AAD20AC08EE0EF
:1037D00090E00E94D02A7C019E01A80162E070E086
:1037E0009FDEC70102C080E090E0DF91CF911F9182
:1037F0000F91FF90EF9008958F929F92AF92BF929A
:10380000CF92DF92EF92FF92CF93DF93EC018E8104
:103810009F81892B11F41C8A44C08889998900975B
:1038200009F43FC017D24B015C01898D882369F1EF
:103830006A897B89882777FD8095982F0E94312D92
:103840006B017C0120E030E040E450E4C501B401AC
:103850000E94C62C9B01AC01C701B6010E942B2D12
:1038600018161CF081E08C8B10C020E030E040E4A2
:1038700050E4C501B4010E94C72C9B01AC01C701F3
:10388000B6010E94E12D87FF1C8A89A1882339F0A7
:103890004CE253E06AE872E08C819D81E1D78C892B
:1038A00001C080E0DF91CF91FF90EF90DF90CF904B
:1038B000BF90AF909F908F9008958F929F92AF92FC
:1038C000BF92CF92DF92EF92FF92CF93DF93EC0102
:1038D0008E819F81892B11F41E863EC08885998533
:1038E0000097D1F1B7D14B015C01888D882341F15C
:1038F000CA84DB84EC84FD8420E030E040E05FE3B8
:10390000C501B4010E94C72C9B01AC01C701B601DF
:103910000E94E12D87FD03C081E08E8711C020E069
:1039200030E040E05FE3C501B4010E94C62C9B017A
:10393000AC01C701B6010E942B2D18160CF01E8693
:1039400089A1882339F045E453E06AE872E08C816C
:103950009D8186D78E8501C080E0DF91CF91FF9059
:10396000EF90DF90CF90BF90AF909F908F90089591
:103970008F929F92AF92BF92CF92DF92EF92FF927F
:10398000CF93DF93EC018E819F81892B11F41F86E9
:103990003DC0888599850097C9F15CD14B015C01D8
:1039A0008C8D882339F1CA84DB84EC84FD8420E08B
:1039B00030E040E05FE3C501B4010E94C62C9B01EA
:1039C000AC01C701B6010E942B2D18161CF081E036
:1039D0008F8710C020E030E040E05FE3C501B40114
:1039E0000E94C72C9B01AC01C701B6010E94E12DCA
:1039F00087FF1F8689A1882339F045E453E06AE8F0
:103A000072E08C819D812CD78F8501C080E0DF9191
:103A1000CF91FF90EF90DF90CF90BF90AF909F90AD
:103A20008F900895CF93DF93EC01E6DECE0145DF62
:103A3000CE01DF91CF919CCFCF93DF93EC018885AE
:103A40009985009791F00CD1CE0137DFCE0190DF40
:103A500088859985DC01ED91FC916C817D810190D7
:103A6000F081E02DDF91CF9119944FE553E06AE8A2
:103A700072E08C819D81DF91CF91F2C6CF93DF936D
:103A8000EC014A875B876C877D8789A1882339F0A1
:103A90004DE953E06AE872E08C819D81E1D6CE0168
:103AA0000CDFCE01DF91CF9163CF0F931F93CF93A4
:103AB000DF93EC018B0162EE73E0C8010E94493193
:103AC000892B19F41F821E8214C06AEE73E0C801AC
:103AD0000E944931892B49F481E090E09F838E83D5
:103AE000DF91CF911F910F91089582E090E09F8325
:103AF0008E83CE01DF91CF911F910F9193CFCF9203
:103B0000DF92EF92FF920F931F93CF93DF938C017D
:103B10006B01DC015F96ED90FC909097C0E0D0E0E7
:103B2000CE15DF059CF4D8015D96ED91FC915E9772
:103B3000CE01880F991FE80FF91FB601808191818E
:103B40000E944931892B21F02196EACF80E001C003
:103B500081E0DF91CF911F910F91FF90EF90DF9067
:103B6000CF900895CF92DF92EF92FF920F931F9321
:103B7000CF93DF937A016901EB0100E010E00E15AD
:103B80001F053CF469917991C601D2D60F5F1F4F92
:103B9000F6CFDF91CF911F910F91FF90EF90DF90C3
:103BA000CF9008959B01FC01478D50A1658D768DC6
:103BB000D9CFCF93DF93EB01CA0161E273E00E949A
:103BC0004931892B11F461E001C060E0CE01DF9141
:103BD000CF9151CDFC01848195810895FC0181A193
:103BE0000895FC0161A30895FC0171876087089521
:103BF000FC01608F0895FC01768F658F0895FC01AC
:103C000070A3678F08950F9300E020E040E060E02C
:103C100088E198E00E9422290F9108952FEF33E068
:103C2000FC013183208308952FEF33E0FC013183C1
:103C300020830C94D12A0F93FC018FEF93E09183A2
:103C40008083738762875383428335832483048709
:103C50000F910895FC016681778180859185089593
:103C6000FC0146835783608771870895FC01848136
:103C700095810895FC01848508950F9300E020E06C
:103C800040E060E08EE198E00E9422290F910895C3
:103C900022E334E0FC0131832083C0CFCF93DF9354
:103CA000EC01F6DFCE01DF91CF910C94D12ACF92B7
:103CB000DF92EF92FF920F931F93CF93DF93CDB7D5
:103CC000DEB72A970FB6F894DEBF0FBECDBF7C01DA
:103CD0006B01C0DF8E010F5F1F4F22E045E00E94A5
:103CE000A92EC701C3DFA801BC01C601B9D5C70110
:103CF000C1DF882331F045E054E06AE872E0C60194
:103D0000AFD52A960FB6F894DEBF0FBECDBFDF91B8
:103D1000CF911F910F91FF90EF90DF90CF9008957A
:103D20000F93CF93DF93EC0100E061E070E083DF5D
:103D300082E394E099838883DF91CF910F91089576
:103D40000F9300E020E040E060E084E298E00E9411
:103D500022290F910895FC0113861586148627E009
:103D600030E0DF01A20FB31F13961C92211531051D
:103D700019F021503109F5CF08951F93CF93DF93A8
:103D8000EC01162F60E0812F0E942F2C612F70E034
:103D9000FB01E25AFE4FE491E883FB01EC55FE4F34
:103DA000E491F0E0EE0FFF1FE651FE4F85919491F4
:103DB0009A838983CE01DF91CF911F91CCCFCF928F
:103DC000DF92EF92FF920F931F93CF93DF93EC015B
:103DD0008B010E941C2B6B017C0188819981DC0185
:103DE000ED91FC910480F581E02D1995892B69F402
:103DF0000E941C2B6C197D098E099F0968397A4332
:103E00008105910550F380E00CC088819981DC0127
:103E1000ED91FC910680F781E02D1995F8018083E2
:103E200081E0DF91CF911F910F91FF90EF90DF9094
:103E3000CF9008950F931F93CF93DF93EA010881EA
:103E40001981600F711FBBDF882331F00F5F1F4F97
:103E50001983088381E001C080E0DF91CF911F9139
:103E60000F9108953F924F925F926F927F928F923F
:103E70009F92AF92BF92CF92DF92EF92FF920F93F9
:103E80001F93CF93DF9300D0CDB7DEB78C016B01CA
:103E90001A8219825C0182E0A80EB11CAE014F5F4C
:103EA0005F4FB501C801C6DF811103C080E090E01B
:103EB000B9C0D80112969C901B82E12CF12C412CA8
:103EC000512C32014394BE016D5F7F4FC80177DFF3
:103ED000882361F329813A81C90101969A838983F4
:103EE0006B81F801E20FF31F6283462F4F7750E09A
:103EF000449D9001459D300D549D300D1124E20EDE
:103F0000F31E97E0440C551C661C771C9A95D1F75C
:103F100067FDD9CF292D207F33243394203309F036
:103F2000312C8150F6018083332031F1AE014F5F97
:103F30005F4FB501C8017EDF882309F4B7CFAE011A
:103F40004F5F5F4FB501C80175DF882309F4AECF1D
:103F5000D6018C91F801E80FF11D4380512C542CAF
:103F600044248481480E511CF801828181FF08C0DD
:103F7000F2E04F0E511C04C080E0412C512C01C0D6
:103F800082E0A82EB12C612C712C480189E9880EA1
:103F9000911CC3018A0D9B1D8E159F0598F5BE01CE
:103FA0006D5F7F4FC8010BDF882309F47FCFD401F9
:103FB0008D919C910097A9F0332099F029813A8145
:103FC00022503109F6014081241B31094216530663
:103FD00040F4DC01ED91FC910190F081E02D6B81CA
:103FE000199589819A818038910528F42B81F801EF
:103FF000E80FF91F228301969A838983BFEF6B1A1A
:104000007B0AC7CFF801E756FF4F80819181892B4A
:1040100039F489819A818138910510F01A821982C8
:1040200089819A810F900F900F90DF91CF911F910E
:104030000F91FF90EF90DF90CF90BF90AF909F9047
:104040008F907F906F905F904F903F900895AF92C8
:10405000BF92CF92DF92EF92FF920F931F93CF9375
:10406000DF9300D01F92CDB7DEB77C01F90180E06D
:104070009E2F9F77EE0FEF2FEE1FFF0BF1953097DE
:1040800009F09068A1E0B0E0AC0FBD1FA80FB11D12
:104090009C938F5F309761F7A82EB12CDA01AA1993
:1040A000BB0914966C93BE016F5F7F4F80E090E078
:1040B0004A195B098A159B0554F4FB01D190BF0195
:1040C0008A01080F191FF801D5820196F3CFF70175
:1040D0008081918189010F5F1F4F0A0D1B1DFC011B
:1040E00020813181F90122813381A801BD01F901CB
:1040F00019956C010E941C2BF701EC57FF4F608350
:1041000071838283938381E0C016D10609F080E039
:104110000F900F900F900F90DF91CF911F910F9103
:10412000FF90EF90DF90CF90BF90AF900895C901BE
:104130000296DB01FD01E61BF70B2D91222331F0E6
:10414000FA01E80FF91F20830196F4CF9C012E1B82
:104150003F0B240F351FD9011297FC931196EC9356
:104160000895CF93DF93EC0188819981009731F115
:10417000DC01ED91FC910488F589E02D1995811100
:104180001FC0FE01E556FF4F80819181892BB1F45C
:104190008DEF9FEF9183808388819981DC01ED9180
:1041A000FC910284F385E02D199588819981DC01C9
:1041B000ED91FC910288F389E02D199580E001C012
:1041C00081E0DF91CF9108952F923F924F925F92BD
:1041D0006F927F928F929F92AF92BF92CF92EF9207
:1041E000FF920F931F93CF93DF93CDB7DEB72E9738
:1041F0000FB6F894DEBF0FBECDBF4C011B012A01E4
:104200003901AFDF811114C1F401EB56FF4F60811A
:104210007181D4018D919C911197A956BF4FFC01DA
:10422000208131816115710541F04D915C91D90179
:104230001E96ED91FC911F971FC0F9010484F5852E
:10424000E02DFE87ED87ED91FC9126E435E03A8381
:104250002983D401A157BF4F12964D915D916D9165
:104260007C9115974B835C836D837E83AF01BE0188
:104270006F5F7F4FED85FE851995F40181309105C3
:1042800009F0CEC0EE57FF4F9183808389E0E5E1CE
:10429000F2E0DE01119601900D928A95E1F7FE01A0
:1042A000319680E090E02191D401A80FB91F1796B4
:1042B0002C93019689309105B1F70115110559F03C
:1042C000F0E2CF9EC0011124866028E0E29E7001DA
:1042D00011248E2901C082E04114510431F061148F
:1042E000710411F4806801C0806CD40150968C93E5
:1042F000509751961C9251978FE052968C9374016F
:10430000B2E0EB0EF11C21E130E0A701B101C401E4
:104310000EDF0115110551F09C01A701B801C40180
:1043200006DF9C01A701B501C40101DF411451045E
:1043300069F09C01A701B201C401F9DE61147104A6
:1043400029F09C01A701B301C401F1DE9C012550B5
:104350003109A70160E1C4017ADE0E941C2BF4013F
:10436000EC57FF4F608371838283938384010857E6
:104370001F4FF8016083718382839383F4018081EE
:104380009181DC01ED91FC910480F581E02D19957E
:10439000892BC1F40E941C2BD8014D905D906D902B
:1043A0007C90641975098609970968397A438105F3
:1043B000910520F3F401E556FF4F8CEF9FEF9183B9
:1043C000808323C0BE01665F7F4FC4014BDD04972D
:1043D000E1F4F4018581940125563F4F7901811163
:1043E00010C00E941C2BD8016D937D938D939C93DC
:1043F0001397F401E457FF4F1082F70111821082E6
:1044000017C090E0D9018D939C93F4018081918134
:10441000DC01ED91FC910288F389E02D199506C02D
:10442000E556FF4F8EEF9FEF9183808380E001C0C0
:1044300081E02E960FB6F894DEBF0FBECDBFDF91A0
:10444000CF911F910F91FF90EF90CF90BF90AF90C1
:104450009F908F907F906F905F904F903F902F90A4
:104460000895AF92BF92CF92EF920F931F93A12C1A
:10447000B12CC12CE12C00E010E0A6DE1F910F91C1
:10448000EF90CF90BF90AF9008952F923F924F92B0
:104490005F926F927F928F929F92AF92BF92CF92D4
:1044A000DF92EF92FF920F931F93CF93DF9300D091
:1044B0001F92CDB7DEB78C014DB65EB652DE8823B3
:1044C00009F441C10E941C2B6B017C01580128E8B2
:1044D000A20EB11CF50180819181A281B381A70157
:1044E0009601281B390B4A0B5B0BDA01C90189398C
:1044F0009A43A105B10590F4349780819181A281FE
:10450000B381A7019601281B390B4A0B5B0BDA011B
:10451000C90189399A43A105B105C0F148014CE8A8
:10452000840E911CD4012C91F80180819181222369
:1045300071F0E556FF4F2CEF3FEF31832083DC0114
:10454000ED91FC910288F389E02D1995FCC020ECD7
:10455000F80122831382DC01ED91FC910280F3814A
:10456000E02D42E050E0B8016E5F7F4F1995F801F1
:10457000EC57FF4FC082D182E282F382F501C08204
:10458000D182E282F38281E0D4018C93F8018081B0
:104590009181DC01ED91FC910480F581E02D19956C
:1045A000892B09F4D2C0BE016F5F7F4FC8015ADC6E
:1045B000FC01009709F4C9C0D501CD92DD92ED92BE
:1045C000FC921397D80112968C91807F803309F06A
:1045D0009FC04801BDE88B0E911CD4018D919C9128
:1045E000892B09F4B2C02DB63EB6698170E0D801BE
:1045F000A60FB71F13964C91139750E0542F4427E2
:1046000014968C911497480F511DCA0101962DB72D
:104610003EB7281B390B0FB6F8943EBF0FBE2DBF17
:104620008DB79EB701965C0120E030E0BC83AB8380
:104630002417350769F06B807C80620E731ED301EE
:1046400015966C90D5016D925D012F5F3F4FF0CFB5
:10465000DC01A20FB31F1C92D8011296BC91B67058
:10466000BA83B230E9F53901660E771ED801A60D7E
:10467000B71D1596AC901597B12CBA2CAA24169696
:104680004C91A40EB11C4BEF5FEF461B570B421B26
:10469000530B4E0F5F1FB301695F7F4F600F711F98
:1046A000D401ED91FC91199580E4F80182837A8020
:1046B0007382B482A582D8018D919D91BD01DC01E8
:1046C000ED91FC910280F381E02D44E050E01995DA
:1046D000F801EC57FF4FC082D182E282F38212C010
:1046E0004DEF5FEF461B570B421B530B4E0F5F1FE7
:1046F000620F731F6B5F7F4F600F711FD401ED91CD
:10470000FC9119950FB6F8943EBE0FBE2DBE1DC08C
:10471000803C91F480EDF80182831382D8018D9161
:104720009D91BD01DC01ED91FC910280F381E02DB2
:1047300042E050E0199509C0803D39F4F801E45792
:10474000FF4F108202C080E001C081E00FB6F894F4
:104750005EBE0FBE4DBE0F900F900F900F90DF9179
:10476000CF911F910F91FF90EF90DF90CF90BF906E
:10477000AF909F908F907F906F905F904F903F9001
:104780002F9008958F929F92BF92CF92DF92EF92D7
:10479000FF920F931F93CF93DF931F921F92CDB77A
:1047A000DEB74C01B42E152F790169837A83D9DCE9
:1047B00069817A81882309F444C0FB0101900020BB
:1047C000E9F73197E61BF70BC70107968E0F9F1F7E
:1047D00081389105B0F5640182E0C80ED11C25E056
:1047E00030E0A601C401A3DCEB2DF12F60E070E006
:1047F0009401280F391F6E157F0549F04191D901A9
:10480000A60FB71F12964C936F5F7F4FF4CF011125
:1048100002C060E301C061E3970125503109280F10
:10482000391FA601C4010F900F90DF91CF911F9106
:104830000F91FF90EF90DF90CF90BF909F908F905F
:1048400006CC80E00F900F90DF91CF911F910F91D8
:10485000FF90EF90DF90CF90BF909F908F90089542
:104860000F93FA0101900020E9F79F0121503109CF
:10487000241B350B00E086DF0F910895CF92DF9265
:10488000FF920F931F93CF93DF931F921F92CDB789
:10489000DEB76C01F42E81E0841708F43EC0FB0102
:1048A00001900020E9F7E61BF70B3896E138F10597
:1048B000A0F5C60169837A8354DC69817A818823F3
:1048C00061F1F601EE57FF4F80819181019611F45D
:1048D00081E090E09183808380819181F6019783CC
:1048E000808786010E5F1F4F27E030E0A801C601D8
:1048F0001EDCF601E80FF91FF2829C0124503109F9
:10490000A80162E8C6010F900F90DF91CF911F912F
:104910000F91FF90DF90CF909ACB80E00F900F9097
:10492000DF91CF911F910F91FF90DF90CF9008956D
:1049300040E0A4CFCF92DF92EF92FF920F931F93AC
:10494000CF93DF93CDB7DEB72C970FB6F894DEBFC9
:104950000FBECDBF7C01FB016A0103812281418131
:104960006081CE0107966ED409851A852B853C851A
:10497000F701E157FF4F0283138324833583389671
:10498000D182C082329711821082C7012C960FB655
:10499000F894DEBF0FBECDBFDF91CF911F910F9175
:1049A000FF90EF90DF90CF900895CF92DF92EF923B
:1049B000FF920F931F93CF93DF9300D01F92CDB739
:1049C000DEB76C01790181579F4F4B835C8369830C
:1049D0007A832ED4F601E556FF4F8FEF9FEF918338
:1049E00080834B815C8169817A81C601A3DFF601F6
:1049F000E357FF4FF182E082F60111830083E7560F
:104A0000FF4F118210820F900F900F900F90DF9147
:104A1000CF911F910F91FF90EF90DF90CF9008956D
:104A20000F9300E020E040E060E08AE298E00AD4E2
:104A30000F9108950895FC018AE195E2928B818B94
:104A4000768365831482108289E0818381E082838A
:104A500083830895CF93DF93EC0180E295E09983FF
:104A600088838AA19BA1009739F0DC01ED91FC912C
:104A70000280F381E02D19958CA19DA1009739F05A
:104A8000DC01ED91FC910280F381E02D1995CE01BE
:104A9000DF91CF910C94911BCF93DF93EC01DADF80
:104AA000CE01DF91CF917DC5EF92FF920F931F93BF
:104AB000CF93DF93CDB7DEB72C970FB6F894DEBF58
:104AC0000FBECDBF8C017A01CE01079628D5B70164
:104AD000CE01019624D568E374E0CE01079634D563
:104AE000882329F0B701C8010E94551D30C060E538
:104AF00074E0CE01079628D5882349F0C7010E94AB
:104B00002E31AB01BC01C8010E943E1D20C067E7E9
:104B100074E0CE01079618D5882321F0F80162A130
:104B200073A10AC063E974E0CE0107960DD588230E
:104B300039F0F80164A175A1A701C8013AD807C0EE
:104B4000C80148D84FEA54E06AE872E089DECE0135
:104B500001967ED4CE0107967BD42C960FB6F8949E
:104B6000DEBF0FBECDBFDF91CF911F910F91FF90A0
:104B7000EF900895AF92BF92CF92DF92EF920F9392
:104B80001F93CF93DF93EC016B01B42E20E0AB01B8
:104B900060E070E00E949E1B80E295E0998388832C
:104BA00088E0EEE1F2E0DE01969601900D928A95A2
:104BB000E1F76B2DCE0115D8CE0110D8882331F046
:104BC00047EC54E06AE872E0C6014ADE8AE090E011
:104BD000E7D45C01E12C860120EE34E040E06EE198
:104BE00070E00E94681BBBA2AAA28AE090E0D8D421
:104BF0005C012EEF34E040E06FE170E00E94681B42
:104C0000BDA2ACA261E0CE010E94F81D26E232E016
:104C1000A60161E070E0CE010E94C11BBC01CE0183
:104C20000E94F41DBE016A5D7F4FCE010E94FB1DF4
:104C300064E070E0CE010E94FF1DB601CE01DF915D
:104C4000CF911F910F91EF90DF90CF90BF90AF90D9
:104C50000C94D21D0F9300E020E040E060E080E380
:104C600098E0F0D20F9108952AE235E0FC013183FB
:104C700020830C940C1ACF93DF93EC01F5DFCE0167
:104C8000DF91CF918EC4EF92FF920F931F93CF933A
:104C9000DF938C01EB01CC0FDD1FC00FD11F8A8188
:104CA0009B81892B71F4672B61F48EE290E078D4BC
:104CB0007C01F801608D718D40E05CDFF801F382CA
:104CC000E2828A819B81DF91CF911F910F91FF90AA
:104CD000EF9008950F931F93CF93DF93EC01CB01D7
:104CE0008A0166E272E00E944931892B81F4B801A1
:104CF000882777FD8095982FB4D6AB01BC018A81B7
:104D00009B81DF91CF911F910F910C941C1DDF911E
:104D1000CF911F910F9108950F931F93CF93DF931E
:104D2000EC018B010E94191A8AE295E0998388832D
:104D3000198F088FDF91CF911F910F9108950F93D5
:104D40001F93CF93DF938C018091F4059091F5052B
:104D5000892B51F48AE190E023D4EC01B801DCDF27
:104D6000D093F505C093F4058091F4059091F50575
:104D7000DF91CF911F910F9108950F9300E020E0F4
:104D800040E060E086E398E05DD20F910895FC0179
:104D9000818D228D90E0805C9F4F821B91098F73E3
:104DA00099270895FC01918D828D981731F0828D9D
:104DB000E80FF11D858D90E008958FEF9FEF089526
:104DC000FC01918D828D981761F0828DDF01A80F13
:104DD000B11D5D968C91928D9F5F9F73928F90E035
:104DE00008958FEF9FEF089585E998E2892B39F0B8
:104DF00080E090E0892B19F098D1811125C080E0E6
:104E000090E0892B41F080E090E0892B21F00E9416
:104E1000000081111CC080E090E0892B41F080E00F
:104E200090E0892B21F00E940000811113C080E0E6
:104E300090E0892BA1F080E090E0892B81F00E9426
:104E4000000081110AC008950E940000D8CF0E947E
:104E50000000E1CF0E940000EACF0C94000008950A
:104E6000FC01848DDF01A80FB11DA35ABF4F2C9107
:104E7000848D90E001968F739927848FA689B789D6
:104E80002C93A089B1898C9180648C93938D848DAF
:104E9000981306C00288F389E02D80818F7D80837E
:104EA0000895CF93DF93EC01888D8823C1F0EA89C0
:104EB000FB89808185FD05C0A889B9898C9186FD13
:104EC0000EC00FB607FCF5CF808185FFF2CFA88911
:104ED000B9898C9185FFEDCFCE01C2DFE8CFDF919C
:104EE000CF910895CF92DF92FF920F931F93CF93AC
:104EF000DF931F92CDB7DEB76C01DC015B969C910E
:104F00005B975C968C915C97981307C05096ED91D7
:104F1000FC915197808185FD31C0F601038D10E031
:104F20000F5F1F4F0F731127F02EF601848DF812BB
:104F300010C00FB607FCF9CFD6015096ED91FC9149
:104F40005197808185FFF1CFC601698389DF69812F
:104F5000ECCF838DE80FF11DE35AFF4F6083D6013C
:104F60005B960C935B975296ED91FC9153978081E1
:104F70008062808381E058968C930DC0D60156964E
:104F8000ED91FC91579760835096ED91FC9151976C
:104F900080818064808381E090E00F90DF91CF91E9
:104FA0001F910F91FF90DF90CF900895BF92CF9205
:104FB000DF92EF92FF92CF93DF93EC016A017B01C6
:104FC000B22EE889F98982E08083411581EE580785
:104FD0006105710599F060E079E08DE390E0A7014B
:104FE000960156D6215031094109510956954795E8
:104FF00037952795211580E1380790F0E889F989E0
:10500000108260E874E88EE190E0A701960140D636
:1050100021503109410951095695479537952795F2
:10502000EC85FD853083EE85FF852083188EEC8925
:10503000FD89B082EA89FB89808180618083EA8969
:10504000FB89808188608083EA89FB898081806810
:105050008083EA89FB8980818F7D8083DF91CF9176
:10506000FF90EF90DF90CF90BF9008951F920F9226
:105070000FB60F9211240BB60F922F938F939F931D
:10508000EF93FF93E0914C08F0914D088081E091FF
:105090005208F091530882FD12C09081809155080A
:1050A0008F5F8F7320915608821751F0E091550859
:1050B000F0E0E45CF74F958F8093550801C0808144
:1050C000FF91EF919F918F912F910F900BBE0F90B9
:1050D0000FBE0F901F9018951F920F920FB60F9250
:1050E00011240BB60F922F933F934F935F936F93BF
:1050F0007F938F939F93AF93BF93EF93FF938CE333
:1051000098E0AEDEFF91EF91BF91AF919F918F91AB
:105110007F916F915F914F913F912F910F900BBEB7
:105120000F900FBE0F901F9018958CE398E02FDE24
:1051300021E0892B09F420E0822F089510923F0886
:1051400010923E0888EE93E0A0E0B0E08093400823
:1051500090934108A0934208B093430886E395E0FA
:1051600090933D0880933C0885EC90E0909349082B
:105170008093480884EC90E090934B0880934A0811
:1051800080EC90E090934D0880934C0881EC90E087
:1051900090934F0880934E0882EC90E090935108D2
:1051A0008093500886EC90E09093530880935208C7
:1051B00010925508109256081092570810925808ED
:1051C0000895AF92BF92CF92DF92EF92FF920F932A
:1051D0001F93CF93DF936C017B01C0E0D0E000E030
:1051E00010E0F601EC0FFD1F4AE050E06281C701BC
:1051F000ECD05C016EE2C7017ED08A0D9B1D080FCA
:10520000191F2196C330D10561F74AE050E0F6013D
:105210006581C701DAD0800F911FDF91CF911F9177
:105220000F91FF90EF90DF90CF90BF90AF900895D7
:1052300026E435E0FC01318320831282138214823C
:10524000158208950F93FC0186E495E09183808395
:1052500062834383248305830F91089586E495E058
:105260009093DA088093D9081092DB081092DC083A
:105270001092DD081092DE080895CF92DF92EF922F
:10528000FF920F931F93CF93DF936C017A01EB0191
:10529000E60EF71E00E010E0CE15DF0561F0699123
:1052A000D601ED91FC910190F081E02DC601199598
:1052B000080F191FF1CFC801DF91CF911F910F91F6
:1052C000FF90EF90DF90CF9008956115710581F008
:1052D000DB010D900020E9F7AD0141505109461B5B
:1052E000570BDC01ED91FC910280F381E02D1994C4
:1052F00080E090E00895DC01ED91FC910190F08157
:10530000E02D19948F929F92AF92BF92CF92DF922D
:10531000EF92FF920F931F93CF93DF93CDB7DEB73A
:10532000A1970FB6F894DEBF0FBECDBF7C01C42E8F
:10533000E52FCB01D22E19A221E02D1510F02AE085
:10534000D22E8E010F5D1F4F8D2C912CA12CB12CD4
:105350006C2D7E2FA50194019BD48C2DD29E80199B
:105360001124015011098A3014F4805D01C0895C58
:10537000F8018083211531054105510521F0C22E28
:10538000E32FCA01E5CFB801C7019FDFA1960FB691
:10539000F894DEBF0FBECDBFDF91CF911F910F916B
:1053A000FF90EF90DF90CF90BF90AF909F908F9045
:1053B00008952115310541F4DC01ED91FC91019036
:1053C000F081E02D642F19949DCF9A01462F50E073
:1053D00060E070E0EECFCF93DF9300D01F92CDB7A7
:1053E000DEB79B01AC01611571058105910559F08E
:1053F00069833A834B835C833DD629813A814B8113
:105400005C8168D403C060E070E0CB010F900F9026
:105410000F900F90DF91CF910895CF92DF92EF928E
:10542000FF926B017C0162177307840795075CF498
:10543000CA01B9016C197D098E099F09CCDF6C0D79
:105440007D1D8E1D9F1DFF90EF90DF90CF900895E2
:10545000FC018081918135C5CF93DF93EC01888178
:105460009981009709F02DD5198218821D821C821E
:105470001B821A82DF91CF9108950F931F93CF93D0
:10548000DF93EC018B016F5F7F4F88819981FED59F
:10549000009731F0998388831B830A8381E001C0E0
:1054A00080E0DF91CF911F910F910895CF93DF930B
:1054B000EC0188819981892B29F08A819B8186174B
:1054C000970758F4CE01D9DF882341F08C819D8164
:1054D000892B19F4E881F981108281E0DF91CF9165
:1054E0000895EF92FF920F931F93CF93DF93EC01F8
:1054F0007B018A01BA01DADF811103C0CE01ACDF82
:1055000006C01D830C83B70188819981CBD6CE015B
:10551000DF91CF911F910F91FF90EF900895FC01C3
:105520001182108213821282158214826115710514
:1055300051F0FB0101900020E9F7AF014150510902
:10554000461B570BCECF0895FC0124813581232BB8
:1055500031F421E06115710599F0FB0108C0FC01EF
:10556000808191816115710531F421E0FC01808118
:10557000882331F004C08DD621E0892B09F020E08A
:10558000822F089567D60895B5D0FDDF0E941B02D3
:10559000C4EFD6E20E9489022097E1F325DCFACF1E
:1055A000F8C38FC41F920F920FB60F9211242F933E
:1055B0003F938F939F93AF93BF938091E008909117
:1055C000E108A091E208B091E3083091DF0823E000
:1055D000230F2D3720F40196A11DB11D05C026E82B
:1055E000230F0296A11DB11D2093DF088093E008D0
:1055F0009093E108A093E208B093E3088091E40857
:105600009091E508A091E608B091E7080196A11DE8
:10561000B11D8093E4089093E508A093E608B09349
:10562000E708BF91AF919F918F913F912F910F907C
:105630000FBE0F901F9018952FB7F8946091E00857
:105640007091E1088091E2089091E3082FBF0895DE
:105650003FB7F8948091E4089091E508A091E6089E
:10566000B091E70826B5A89B05C02F3F19F0019619
:10567000A11DB11D3FBF6627782F892F9A2F620F7A
:10568000711D811D911D42E0660F771F881F991FB4
:105690004A95D1F70895CF92DF92EF92FF92CF9380
:1056A000DF936B017C01D4DFEB01C114D104E10471
:1056B000F10479F06AD1CCDF6C1B7D0B683E73403E
:1056C000A0F381E0C81AD108E108F108C851DC4F05
:1056D000ECCFDF91CF91FF90EF90DF90CF900895C6
:1056E000019739F0880F991F880F991F029701972A
:1056F000F1F70895789484B5826084BD84B58160A3
:1057000084BD85B5826085BD85B5816085BDEEE6C9
:10571000F0E0808181608083E1E8F0E010828081A8
:1057200082608083808181608083E0E8F0E0808116
:1057300081608083E1EBF0E0808184608083E0EB36
:10574000F0E0808181608083E1E9F0E08081826027
:105750008083808181608083E0E9F0E080818160E6
:105760008083E1EAF0E080818260808380818160D3
:105770008083E0EAF0E0808181608083E1E2F1E013
:10578000808182608083808181608083E0E2F1E0BB
:10579000808181608083EAE7F0E08081846080839B
:1057A0008081826080838081816080838081806845
:1057B00080831092C100089590E0FC013197E2319E
:1057C000F10508F04BC0E658FF4FA0C28091800061
:1057D0008F7703C0809180008F7D80938000089533
:1057E00080918000877FF9CF84B58F7702C084B520
:1057F0008F7D84BD08958091B0008F7703C0809124
:10580000B0008F7D8093B0000895809190008F77D5
:1058100007C0809190008F7D03C080919000877FAA
:105820008093900008958091A0008F7707C08091A9
:10583000A0008F7D03C08091A000877F8093A0008F
:105840000895809120018F7707C0809120018F7D7E
:1058500003C080912001877F809320010895CF931A
:10586000DF9390E0FC01E25AFE4F2491FC01EC55DD
:10587000FE4F8491882349F190E0880F991FFC0125
:10588000E25EFD4FA591B4918C5F9D4FFC01C591E7
:10589000D4919FB7611108C0F8948C912095822310
:1058A0008C93888182230AC0623051F4F8948C91E1
:1058B000322F309583238C938881822B888304C078
:1058C000F8948C91822B8C939FBFDF91CF91089598
:1058D0000F931F93CF93DF931F92CDB7DEB7282F7F
:1058E00030E0F901E85EFE4F8491F901E25AFE4F83
:1058F0001491F901EC55FE4F04910023C1F0882367
:1059000019F0698359DF6981E02FF0E0EE0FFF1F86
:10591000EC5FFD4FA591B4919FB7F8948C91611104
:1059200003C01095812301C0812B8C939FBF0F90E2
:10593000DF91CF911F910F910895CF93DF93282F7F
:1059400030E0F901E85EFE4F8491F901E25AFE4F22
:10595000D491F901EC55FE4FC491CC2389F081110B
:105960002BDFEC2FF0E0EE0FFF1FE651FE4FA5916D
:10597000B4912C912D2381E090E021F480E002C0CD
:1059800080E090E0DF91CF91089508955058BB27B3
:10599000AA270ED0DCC0CDD030F0D2D020F031F428
:1059A0009F3F11F41EF4C2C00EF4E095E7FBB8C0AF
:1059B000E92FDED080F3BA176207730784079507D3
:1059C00018F071F49EF5F6C00EF4E0950B2EBA2F88
:1059D000A02D0B01B90190010C01CA01A0011124F5
:1059E000FF27591B99F0593F50F4503E68F11A16A1
:1059F000F040A22F232F342F4427585FF3CF469532
:105A000037952795A795F0405395C9F77EF41F1653
:105A1000BA0B620B730B840BBAF09150A1F0FF0F1D
:105A2000BB1F661F771F881FC2F70EC0BA0F621F09
:105A3000731F841F48F4879577956795B795F795F9
:105A40009E3F08F0B3CF9395880F08F09927EE0F8B
:105A500097958795089540D008F481E00895E894DB
:105A600009C097FB3EF490958095709561957F4FA6
:105A70008F4F9F4F9923A9F0F92F96E9BB27939554
:105A8000F695879577956795B795F111F8CFFAF464
:105A9000BB0F11F460FF1BC06F5F7F4F8F4F9F4F95
:105AA00016C0882311F096E911C0772321F09EE8F3
:105AB000872F762F05C0662371F096E8862F70E059
:105AC00060E02AF09A95660F771F881FDAF7880F33
:105AD0009695879597F90895990F0008550FAA0B89
