:1000000051C2000080C200007EC200007CC200001D
:100010007AC2000078C2000076C2000074C20000FC
:1000200072C2000070C200006EC200006CC200000C
:100030006AC2000068C2000066C2000064C200001C
:1000400062C2000060C200005EC200005CC200002C
:100050005AC2000058C2000056C200000C946D3A0B
:1000600052C200000C94D1370C9407384CC20000E7
:100070004AC2000048C2000046C2000044C200005C
:1000800042C2000040C200003EC200003CC200006C
:100090003AC2000038C2000036C2000034C200007C
:1000A00032C2000030C200002EC200002CC200008C
:1000B0002AC2000028C2000026C2000024C200009C
:1000C00022C2000020C200001EC200001CC20000AC
:1000D0001AC2000018C2000016C2000014C20000BC
:1000E00012C20000720D890D060EF00E0F0F2C0FBC
:1000F000340FE60E8F3B923B813B853B8B3BC93BEC
:10010000963B9A3BA03BA43BA83BAE3BB23BB63BE5
:10011000C93BBC3BC03BC43B005EBCE2613FDD83EE
:10012000C29C7E20A3FD1F419DC3217FFCA2401ED7
:100130005F01E3BD3E6082DC237D9FC1421CFEA0C7
:10014000E1BF5D0380DE3C62BEE0025CDF81633DB7
:100150007C22C09E1D43A1FF4618FAA427799BC5A7
:1001600084DA3866E5BB5907DB856739BAE4065897
:100170001947A5FB7826C49A653BD987045AB8E687
:10018000A7F91B45C6987A24F8A6441A99C7257B77
:100190003A6486D85B05E7B98CD2306EEDB3510F67
:1001A0004E10F2AC2F7193CD114FADF3702ECC9257
:1001B000D38D6F31B2EC0E50AFF1134DCE90722C47
:1001C0006D33D18F0C52B0EE326C8ED0530DEFB137
:1001D000F0AE4C1291CF2D73CA947628ABF5174927
:1001E0000856B4EA6937D58B5709EBB536688AD417
:1001F00095CB2977F4AA4816E9B7550B88D6346A07
:100200002B7597C94A14F6A8742AC896154BA9F7F6
:10021000B6E80A54D7896B3500000A0B02090C0DA9
:100220000E080703040100000000000000000000A9
:1002300000000000000000000000000000000000BE
:10024000000000001211100000000000000000007B
:10025000000000000000000000000000000001029B
:1002600010202008081020401020408002010201C8
:100270000804020101020408102040808040201080
:1002800008040201800402018040201008040201D9
:100290000804020101020408102040800102040841
:1002A000102040800505050507050808080802021A
:1002B00002020A0A08080404040401010101010100
:1002C00001010303030303030303040707070C0CE3
:1002D0000C0C0C0C0C0C02020202060606060606AA
:1002E00006060B0B0B0B0B0B0B0B00002000230067
:1002F000260029002C002F0032000001000003011D
:100300000601090100002200250028002B002E0014
:100310003100340002010000050108010B0100005A
:100320002100240027002A002D00300033000101A5
:100330000000040107010A014E414E494E4954593B
:10034000494E46CDCCCC3D0AD7233C17B7D13877A0
:10035000CC2B329595E6241FB14F0A0000204100B6
:1003600000C84200401C4620BCBE4CCA1B0E5AAE00
:10037000C59D7400407A10F35A00A0724E1809000F
:1003800010A5D4E80000E87648170000E40B5402FA
:100390000000CA9A3B000000E1F505000080969835
:1003A00000000040420F000000A086010000001085
:1003B0002700000000E803000000006400000000C7
:1003C000000A00000000000100000000002C76D8A8
:1003D00088DC674F0823DFC1DFAE59E1B1B796E58E
:1003E000E3E453C63AE651997696E8E6C28426EBF2
:1003F000898C9B62ED407C6FFCEFBC9C9F40F2BA05
:10040000A56FA5F490055A2AF75C936B6CF9676D9C
:10041000C11BFCE0E40D47FEF520E6B500D0ED90F1
:100420002E0300943577050080841E080000204EBE
:100430000A000000C80C333333330F986E12831157
:1004400041EF8D2114893BE65516CFFEE6DB18D12E
:10045000844B381BF77C1D901DA4BBE42420328400
:10046000725E228100C9F124ECA1E53D2700380429
:1004700061126C122E169219A019AB19431BF41BB2
:10048000201C511C7D1C021D7C1D0A21BA21E62165
:100490001E2A1B2EA62F7D31B432B5335735583660
:1004A0003938C93811241FBECFEFD1E2DEBFCDBF2E
:1004B00000E00CBF1CE0A0E0B2E0E8E5FAE800E0F4
:1004C0000BBF02C007900D92AA37B107D9F721E1FF
:1004D000AAE7BCE001C01D92A736B207E1F714E01D
:1004E000C4EAD4E000E006C022970109FE010BBF78
:1004F0000E94753ECE36D10780E00807A9F70E941A
:100500005F3A0C942A457CCDCF92DF92EF92FF9216
:100510008CE49DE00E94012C23E230E040E050E0BA
:100520006FE070E080E090E00E94A839882777FDB6
:100530008095982F0E94FD3C9B01AC0166E572E01E
:1005400080916D0D90916E0D0E94371B23E230E07B
:1005500040E050E06FE070E080E090E00E94A83959
:10056000882777FD8095982F0E94FD3C9B01AC0168
:1005700065E772E080916D0D90916E0D0E94371BC2
:1005800023E230E040E050E06FE070E080E090E097
:100590000E94A839882777FD8095982F0E94FD3CFE
:1005A0009B01AC0168E972E080916D0D90916E0D38
:1005B0000E94371B24E630E040E050E06DE270E03E
:1005C00080E090E00E94A839882777FD8095982FD9
:1005D0000E94FD3C9B01AC016AEB72E080916D0DC5
:1005E00090916E0D0E94371B60E08CE49DE00E94AC
:1005F000902C6B017C0120E030E040EA51EC0E943D
:10060000AD3D181654F4A701960169ED72E0809192
:100610006D0D90916E0D0E94371B61E08CE49DE0A2
:100620000E94902C6B017C0120E030E040EA51EC0C
:100630000E94AD3D181654F4A701960161E073E0E5
:1006400080916D0D90916E0D0E94371B23E230E07A
:1006500040E050E06FE070E080E090E00E94A83958
:10066000882777FD8095982F0E94FD3C9B01AC0167
:1006700064E273E080916D0D90916E0D0E94371BC6
:1006800024E630E040E050E06DE270E080E090E091
:100690000E94A839882777FD8095982F0E94FD3CFD
:1006A0009B01AC016AE473E080916D0D90916E0D39
:1006B000FF90EF90DF90CF900C94371B0F931F9318
:1006C000CF93DF9300D000D0CDB7DEB726E040E077
:1006D00052EC61E070E086EB9FE00E94713788E7A2
:1006E0009CE09A8389838091810D9091820DA091E5
:1006F000830DB091840D8B839C83AD83BE83AE014B
:100700004F5F5F4F6EE072E087E29FE00E94E51866
:1007100060916D0D70916E0D80916F0D9091700DC7
:100720000E94881C8BE090E00E946B3A8C01409103
:100730006F0D5091700D6091240D7091250D20E08A
:100740000E94A41A10936E0D00936D0D8091240DDC
:100750009091250DDC01ED91FC910480F581E02D57
:1007600040E060E070E019958091240D9091250D96
:10077000DC01ED91FC910480F581E02D40E063E027
:1007800070E019958091240D9091250DDC01ED917B
:10079000FC910480F581E02D40E065E070E0199562
:1007A0008091240D9091250DDC01ED91FC91048048
:1007B000F581E02D40E061E070E019958091240D15
:1007C0009091250DDC01ED91FC910480F581E02DE7
:1007D00040E064E070E019958091240D9091250D22
:1007E000DC01ED91FC910480F581E02D40E062E0B8
:1007F00070E0199580916D0D90916E0D0E94C91A4F
:100800008CE49DE00E942C2B88E29DE00E94DA2C73
:100810008AE39DE00E94DA2C24E832E040E355E7C9
:1008200060E070E08AE79CE00E948F1A6DDE2696F9
:100830000FB6F894DEBF0FBECDBFDF91CF911F91F1
:100840000F91089560916D0D70916E0D80916F0DF7
:100850009091700D0E94881C882331F080916F0D5B
:100860009091700D0E9451278AE79CE00C94341AF5
:100870000F931F93CF93DF9300E020E040E060E010
:1008800085E89DE00E94BD3805E22EEF48EA60EC65
:100890008FE79DE00E94BD3881E79DE00E946213D2
:1008A0008DE990E00E946B3AEC0101E71DE02DED2F
:1008B0003CE14BE557E06AE072E00E94E229D09308
:1008C000700DC0936F0D69E08FE59DE00E942523B8
:1008D0006FE57DE08CE49DE00E942A2A26E046E157
:1008E00068E08AE39DE00E94B92C26E046E16AE0D8
:1008F00088E29DE00E94B92C80916F0D9091700D5F
:100900000E9439359093250D8093240D8AE79CE051
:10091000DF91CF911F910F910C94031A882381F0DE
:100920008F3F29F480918D0D90918E0D089595E063
:10093000899FF0011124EE56F24F82819381089530
:1009400080E090E00895CF93DF93D82FC62F60E02A
:1009500085E30E94033C9C2F9F719D2B9EBD0DB48F
:1009600007FEFDCF1EBC0DB407FEFDCFC7FD08C0BE
:1009700061E085E30E94033C8EB5DF91CF9108953D
:100980001EBC0DB407FEFDCFF3CF0F931F93CF9383
:10099000DF931F92CDB7DEB7182F062F60E085E3F7
:1009A00049830E94033C602F6F71612B6EBD4981AA
:1009B0000DB407FEFDCF4EBD0DB407FEFDCF61E0C7
:1009C00085E30F90DF91CF911F910F910C94033C21
:1009D0000F931F93CF93DF938C01EB0160E085E3CE
:1009E0000E94033C8AE38EBD0DB407FEFDCF0C0FC1
:1009F0001D1FC017D10739F01EBC0DB407FEFDCF77
:100A00008EB58993F6CF61E085E3DF91CF911F9199
:100A10000F910C94033C0F931F93CF93DF938C01A2
:100A2000EB0160E085E30E94033C8AE78EBD0DB4D4
:100A300007FEFDCF0C0F1D1FC017D10731F08991A4
:100A40008EBD0DB407FEFDCFF7CF61E085E3DF91EA
:100A5000CF911F910F910C94033C1F93CF93DF9381
:100A6000182F1076C12FD0E02091140230E0C21769
:100A7000D30779F043E06FE180EA87DFAE0185E0DC
:100A8000559547958A95E1F76FE180E87EDF1093F1
:100A90001402DF91CF911F910895CF93DF931F929E
:100AA000CDB7DEB7682F6983D8DF698180E00F900A
:100AB000DF91CF9148CF1F93CF93DF931F92CDB794
:100AC000DEB7182F6983C9DF4981612F80E40F9059
:100AD000DF91CF911F9159CF1F93CF93DF931F9237
:100AE0001F92CDB7DEB7182F69837A83B6DF4981AD
:100AF000612F80E44ADF61E0610F7A81472F80E453
:100B00000F900F90DF91CF911F913FCF6091900D8B
:100B10007091910D6115710519F06150710902C054
:100B20006FEF77E08CE0D8CFF1CFFF920F931F9358
:100B3000CF93DF9389E3B1DF882309F444C0609148
:100B4000900D7091910DEB012696C11588E0D807A4
:100B500010F0CF5FD74080E0BFDF60E08AE3F3DED4
:100B600090E09093910D8093900D60E08AE3EBDE2E
:100B70002091900D3091910D382B3093910D209351
:100B8000900D60E08AE3DFDE082F60E08AE3DBDEC1
:100B9000182F60E08AE3D7DEF82E40E46EE180E8AB
:100BA000F4DEF7FE0FC0D0938C0DC0938B0D202F79
:100BB00030E0312B2450310930938E0D20938D0D70
:100BC0008FEF02C0A3DF80E0DF91CF911F910F91E3
:100BD000FF900895EF92FF920F931F93CF93DF93AF
:100BE0008B017A018F3FC1F025E0829FE001112443
:100BF000CE56D24F02C0CBE8DDE068817981600F2C
:100C0000711F80E069DF8A819B81801B910BE81650
:100C1000F90690F4C70110C080918B0D90918C0D56
:100C2000860F971F811528E0920728F3BC016F5F9C
:100C30007740CBE8DDE0E5CFDF91CF911F910F91B9
:100C4000FF90EF9008950F931F93CF93DF938A0146
:100C5000A901C0DFEC01B801BBDECE01DF91CF916D
:100C60001F910F910895CF92DF92EF92FF920F9311
:100C70001F93CF93DF938B016A01790195E0899FE0
:100C8000E0011124CE56D24F68817981600F711F27
:100C900082E022DF0A80DB81C02DC01BD10BEC1665
:100CA000FD0608F4E701B601CE01B5DECE01DF9105
:100CB000CF911F910F91FF90EF90DF90CF9008950B
:100CC000BC0180E009DF60E085E30E94033C8AE329
:100CD0008EBD0DB407FEFDCF1EBC0DB407FEFDCFCB
:100CE00061E085E30E94033C8EB50895CF93C62F43
:100CF000BC0182E0F1DE60E085E30E94033C8AE70C
:100D00008EBD0DB407FEFDCFCEBD0DB407FEFDCFE9
:100D100061E085E3CF910C94033CFF920F931F9306
:100D2000CF93DF9395E0899FF0011124EE56F24FA7
:100D3000C081D1812197028113810C0F1D1FCE012B
:100D4000BFDFF82E882319F060E0CE01CFDFBE01AF
:100D500084E0C2DEB80186E0BFDE48E06FE180E8F3
:100D600014DE8CE19ADE81FF04C048E06FE180EA86
:100D70000CDEFF2041F06F2DCE01DF91CF911F914E
:100D80000F91FF90B3CFDF91CF911F910F91FF9003
:100D90000895CF92DF92EF92FF920F931F93CF931C
:100DA000DF937C01EB014130510569F4CB0188DF11
:100DB000682FC701DF91CF911F910F91FF90EF90A6
:100DC000DF90CF9093CF6A01C60ED71E86010150E7
:100DD000110980E181DEB70184E17EDEC115D840D2
:100DE00030F4011588E0180710F00F5F1740B801C4
:100DF00082E172DE40E16FE180EAC7DD40E26FE14F
:100E000080E8C3DD6FE180E09EDD85FDFBCFDF91F3
:100E1000CF911F910F91FF90EF90DF90CF900895A9
:100E20000F931F93CF93DF93EB01E5E0E89FD00191
:100E30001124AE56B24F4F3FB9F0E49FF001112498
:100E4000EE56F24F02C0EBE8FDE060817181620F67
:100E5000731F8D919C91A8018C0F9D1F9ADFDF91CC
:100E6000CF911F910F9152CEE0918B0DF0918C0D8F
:100E7000E20FF31FE11588E0F80728F3BF016F5F69
:100E80007740E7CFCF93DF93EB01682F84ED13DE3C
:100E9000BE0186ED21DE8AEE00DE80FF05C08FE018
:100EA00090E00E940B3BF7CFDF91CF910895CF9355
:100EB000DF93EC01D0D061E085E30E94CA3B61E0A2
:100EC00085E30E94033C61E083E30E94CA3B61E04A
:100ED00084E30E94CA3B60E082E30E94CA3B61E077
:100EE00085E30E94CA3B60E083E30E94033C60E02C
:100EF00084E30E94033C80E58CBD8DB581608DBD8F
:100F00004FEF60E08FEF41DD62E370E080E090E062
:100F10000E94E63A1092910D1092900D60E070E000
:100F200088E0DADD60E070E08CE0D6DD6FEF77E03E
:100F30008AE0D2DD61EB88E3BEDD6FE370E388E237
:100F4000CBDD69EF77EF80E3C7DD6DE070E080EC2B
:100F5000C3DD42E362EC80E818DD62E17CE086EC10
:100F6000BBDD62E184ECA7DD6CED75E08AECB4DDFD
:100F7000688184EEA0DD698185EE9DDD6A8182EE67
:100F80009ADD6B8183EE97DD6C8180EE94DD6D815F
:100F900081EE91DD60E071E080E174DF8FE15DDD85
:100FA00040EC6BE180E8F1DC44E06FE180E8EDDCEF
:100FB00066E774E084E1DF91CF9164CF0F931F93D4
:100FC000CF93DF93EC01862FBA01A90103DE8C01D8
:100FD0000150110960E085E30E94033C8AE38EBD65
:100FE0000DB407FEFDCF20E030E020173107C0F43C
:100FF0001EBC0DB407FEFDCF8EB590E0982F88275C
:101000001EBC0DB407FEFDCF4EB5840F911DC80F59
:10101000D91FC817D90708F421962E5F3F4FE5CF97
:101020002017310771F41EBC0DB407FEFDCF8EB53D
:1010300090E0982F8827C80FD91FC817D90708F440
:10104000219661E085E30E94033CCE01DF91CF91C0
:101050001F910F910895E2E9FDE08DECDF011D92F3
:101060008A95E9F781E098E0918380830895DF9283
:10107000EF92FF920F931F93CF93DF937C014091E8
:10108000920D5091930D4150584E80E098E1E2E965
:10109000FDE000E0C0E0D0E025E0D22E1481112375
:1010A00041F0D19ED0011124AE56B24F2D913C910A
:1010B00001C09A0160817181261B370B62817381A7
:1010C000261B370B2E153F0539F485E0089FE001FC
:1010D0001124CE56D24F48C0E216F30648F4281722
:1010E000390730F4D09EE0011124CE56D24FC90109
:1010F000111107C02097C1F5C2E9DDE085E0D82EC7
:101100001DC0D19EF0011124EE56F24F012FC6CF23
:101110000A811B8188819981080F191FD29EE001E5
:101120001124CE56D24F688179810617170731F006
:101130004A815B81C8012DDE198308832C8121112E
:10114000E7CF2091920D3091930D88819981281BD2
:10115000390B8A819B81281B390B2150384E2E1563
:101160003F0510F480E019C0E7E9FDE081E022814D
:101170003381232B29F035968F5F8932C1F7F2CF67
:101180002A813B8148815981240F351F3183208377
:10119000F382E2829C8194838C83DF91CF911F91B3
:1011A0000F91FF90EF90DF9008958823F9F0E2E926
:1011B000FDE025E09481981311C095E0899FD0014E
:1011C0001124AE56B24F14968C91149784831396C3
:1011D0001C921E92129714961C920895992331F036
:1011E000299FF0011124EE56F24FE4CF089595E0C7
:1011F000899FF0011124EE56F24F80819181860F74
:10120000971F9183808382819381861B970B9383A1
:101210008283089595E0899FF0011124EE56F24FE4
:1012200080819181860F971F9183808353834283AE
:101230000895FC015381560F50936910872F992709
:101240004281480F40936810A181A0936710E0810C
:10125000E0936610242F30E02817390748F481E026
:101260008A0F80936710811103C0EF5FE0936610CF
:10127000852F90E077278617970788F44F5F409374
:10128000681041110CC0809167108F5F80936710C8
:10129000811105C0809166108F5F8093661008955C
:1012A00020916D1030916E10BC01C9010896C1DF0C
:1012B000E0916D10F0916E108091661080878091A2
:1012C0006710818780916810828780916910838779
:1012D000089580E0E82FF0E0EE0FFF1FE951FF4E88
:1012E000118210828F5F8430A8F380E09EE1989F86
:1012F000F0011124E159FF4E118E8F5F8430B8F355
:101300008093620E80E094E09093640E8093630E6D
:101310000895CF932091630E3091640E2F5F3F4F5D
:1013200021154DE7340710F020E030E1522F432F14
:10133000EFE6F0E1C0E0C43059F0A18DAA2329F016
:10134000A481B581A417B50749F3CF5F7E96F3CF8B
:101350003093640E2093630E1092620E20E0E0E062
:10136000F0E04EE12430E0F4429FD0011124A15975
:10137000BF4E59963C915997311104C02093620E8B
:10138000FD0110C0373041F4309739F05A965C9126
:101390005A97328D351708F0DF012F5FFD01E2CF3C
:1013A0002093620E3097B1F122E0218F2091650EDB
:1013B00024872091660E25872091670E268720912D
:1013C000680E278720E032E0338B228B358B248B0D
:1013D00021E030E0318B208B138E228F23E0208F91
:1013E000168A20E1278B2091630E3091640E3227FC
:1013F000232732273583248377836683DC012D916D
:101400003C9111973183208312968D919C91139773
:1014100093838283CF01CF9108951F93CF93DF935E
:10142000C0916D10D0916E1021E331E130936C10BA
:1014300020936B103093651020936410833059F41F
:10144000898D8F70833009F0A9C588899989892B86
:1014500009F0A4C57FC0823009F080C08091680E79
:101460008F5F8093680E811113C08091670E8F5F2C
:101470008093670E81110CC08091660E8F5F809300
:10148000660E811105C08091650E8F5F8093650E99
:1014900010926310109262101092601110925F11FE
:1014A000298D822F8D7F853041F48A8D8F5F8A8FC1
:1014B000883709F073C5198E71C5222309F46EC5EA
:1014C00088899989892B09F441C08A8D9FEF980FEB
:1014D0009A8F811163C58B8D883031F09FEF920F09
:1014E000923048F4853039F4198E80E880936A1080
:1014F0000E94241512C4853038F493E0082E01C0F0
:10150000990F0A94EAF701C090E39A8F8F5F8B8F4F
:10151000822F8F708330A1F048F4813009F42FC2FC
:10152000823009F03BC510922A112CC2863009F492
:1015300095C3883009F492C3843009F02FC58EC357
:1015400084E080936A100E94241519C42F70233000
:1015500009F024C588E080936A10D5C380910911F1
:10156000853409F01BC580910B1190E0982F8827D6
:1015700020910C11820F911D209162103091631007
:101580002817390708F40AC59093631080936210F6
:1015900080910F118F7309F001C580911011811195
:1015A000FDC48091F7109091F810009731F42091CC
:1015B000F9103091FA10232BA1F0209119113091DC
:1015C0001A112817390709F0E9C420911B1130912D
:1015D0001C118091F9109091FA102817390709F021
:1015E000DDC40E949119019609F0D8C480911211AE
:1015F0008630D1F1813009F0D1C480911D1188303D
:1016000009F0CCC410921D1180911F1190912011EE
:10161000873FAFEF9A0710F0099601C008969093A4
:10162000201180931F1180911511909116119093A4
:101630001A1180931911809117119091181190939C
:101640001C1180931B118091F7109091F8109093CA
:101650001611809315118091F9109091FA109093C2
:101660001811809317119EC40E945519019609F014
:1016700095C480911F119091201120911D113091DE
:101680001E11409115115091161160911711709112
:101690001811E8E8F0E1CFE6D0E110811123A9F0BC
:1016A000AC81BD818A179B0781F4AE81BF812A1767
:1016B0003B0759F4A881B9814A175B0731F4AA8125
:1016C000BB816A177B0709F474C16E967E96A0E110
:1016D000C73EDA0711F720912A112F732230E1F467
:1016E0009093600E80935F0E40E0443098F4E42FB6
:1016F000F0E0EE0FFF1FE951FF4E208131814F5F77
:101700008217930791F71092620E20E0C0E0D0E0BC
:101710003EE17EC04093620E80912A1182FD3EC45C
:1017200084E180932A1188E290E090936310809383
:10173000621080E5809329118091241190912811E5
:10174000909324113091231190912711909323119C
:1017500030932711209122119091261190932211FC
:1017600020932611909121119093620E40912511A2
:1017700040932111909325118F5F8093281181113F
:101780000FC081E0830F80932711811109C081E090
:10179000820F80932611811103C09F5F90932511C2
:1017A00080911D1190911E119093600E80935F0E99
:1017B00020911F113091201130931E1120931D1183
:1017C0009093201180931F11809115119091161103
:1017D00090931A11809319118091171190911811FB
:1017E00090931C1180931B118091F7109091F81029
:1017F00090931611809315118091F9109091FA1021
:1018000090931811809317118BC3473099F02F5F75
:101810002430F0F4822F90E0389FF001399FF00DD2
:101820001124E159FF4E418D4111EFCF2093620EFB
:10183000EF0110C0209721F0528D4A8D451738F7DF
:10184000389FE001399FD00D1124C159DF4EDFCF01
:101850002093620E209709F4A1C3D0936E10C09319
:101860006D1083E08A8F888F1E8A84E08F8B1B8E99
:1018700080911F11909120119D838C8380911D1167
:1018800090911E119F838E83809115119091161156
:101890009983888380911711909118119B838A8373
:1018A00081E0898F8091650E8C878091660E8D878F
:1018B0008091670E8E878091680E8F8781E090E01F
:1018C000998B888B809124118B87809123118A8733
:1018D00080912211898780912111888781E090E091
:1018E000DFDC80912911282F207F30E02135310560
:1018F0000CF445C082958F7090E00597880F991F72
:10190000880F991F3091610E20E0E22FF0E0E81778
:10191000F9078CF5E550FF4E36A9311105C020932B
:10192000620E1092610E2BC0313011F42F5FEDCF9B
:101930003230E1F447A94430C9F42093620E309369
:10194000610E80AD90E0982F882721AD822B909377
:10195000600E80935F0E813022E0920710F080E0ED
:1019600092E09B8B8A8B9D8B8C8B09C047A944236B
:1019700011F0240FCACF2093620E3093610E80E1E4
:1019800080932A1180912A11826080932A1182E02B
:101990008093311194E0909332118093331110921F
:1019A00034118CE290E0909363108093621080E693
:1019B00065C2D0936E10C0936D1010926A10309172
:1019C0002A1132FF03C0198E80E206C2209129112C
:1019D00022952F70220F220F2093620E80916210A9
:1019E000909163104497821B9109909363108093A8
:1019F00062101F70123021F4232F2F732231C9F08F
:101A0000892B19F4832F8370A1F09091211188857F
:101A100098132AC2909122118985981325C290911A
:101A200023118A85981320C2909124118B859813D5
:101A30001BC234FF49C0688979896115710509F4B1
:101A400043C0CE010C96F5DB3091251180916610D4
:101A500038133AC02091261180916710281334C0A2
:101A6000909127118091681098132EC080912811B1
:101A700040916910841328C03C872D879E878F87EB
:101A80008B8D81111AC02E89888D9A8D891B922F7A
:101A9000969596959695891B280F2E8B87FD819597
:101AA0009F89392F36953695931B980F9F8B822FE0
:101AB000869586958695890F888F81E080936A1038
:101AC000888D8A8F198A188A498D842F8F7090E0AB
:101AD000FC013197E830F10508F060C2EE58FF4F85
:101AE0000C94653E80916A1080FF58C283E0898F14
:101AF00080E480936A10198A188A8091621090910C
:101B00006310009709F4FBC022E420936A10C8DB3D
:101B1000F6C080916A1080FF6FC080912A118F7388
:101B2000823109F069C080912911282F207F30E08F
:101B3000213531050CF445C082958F7090E00597F2
:101B4000880F991F880F991F3091610E20E0E22FB6
:101B5000F0E0E817F9078CF5E550FF4E36A9311192
:101B600005C02093620E1092610E2BC0313011F42B
:101B70002F5FEDCF3230E1F447A94430C9F4209310
:101B8000620E3093610E80AD90E0982F882721ADD2
:101B9000822B9093600E80935F0E8130A2E09A07B3
:101BA00010F080E092E09B8B8A8B9D8B8C8B09C020
:101BB00047A9442311F0240FCACF2093620E30931B
:101BC000610E83E0898F8091211188878091221195
:101BD0008987809123118A87809124118B8781E0E6
:101BE00090E05EDB82E480936A10198A188A109272
:101BF00063101092621083C080E280936A1024D731
:101C0000E0916D10F0916E10118E86CD80912A11A9
:101C100080FF26C044FD24C088899989892B09F05A
:101C2000BDC18091621090916310019639DB2091C3
:101C30006A10822F806180936A1080916210909167
:101C40006310892B19F0226120936A10FDD681E080
:101C500090E0998B888B88E0898F1B8E81E105C18C
:101C600085FF1CC080912F1190E0982F882720912C
:101C70003011822B20916B1030916C10280F391F7E
:101C800030936C1020936B10209162103091631090
:101C9000281B390B309363102093621080916210DF
:101CA00090916310009741F044FD06C020916A10A6
:101CB000226020936A10F4DA80912B1190E0982F23
:101CC000882720912C11820F911D9093600E809394
:101CD0005F0E2C893D892817390710F0892B21F4D4
:101CE0003093600E20935F0E80915F0E9091600E96
:101CF0009B8B8A8B80916A10837009F44FC110927C
:101D0000601110925F11A0D680916A1085FF07C004
:101D10001092601110925F11198E84E1A6C084FFA9
:101D20000AC01092601110925F1181E090E0998BCF
:101D3000888B84E091CF20915F1130916011211543
:101D40003105E1F080FF02C0198A188A88899989D3
:101D5000009781F48A899B898217930720F49093D6
:101D6000601180935F1180915F1190916011998B48
:101D7000888B04C09093601180935F111B8E8091BB
:101D800064109091651090936C1080936B1080910B
:101D90005F1190916011892B59F08889998900977A
:101DA00039F08896909363108093621088E10BC09D
:101DB00080916A1081FFF2C088E290E090936310F6
:101DC0008093621080E180932A1157C080916A103D
:101DD00080FFE4C0198E80E180936A1035D6DEC0A2
:101DE0008091621090916310009709F059DA9091F8
:101DF0002A1180916A1090FF0BC080FF06C087E017
:101E0000898F1A8E198A188A18C086E0898F15C0A2
:101E100080FF1BC085E0898F198A188ABFC0809116
:101E2000621090916310009709F03ADA80912A11BC
:101E300080FF0BC087E0898F1A8E81E090E030DA56
:101E400080E180936A1000D60FC08091621090915B
:101E50006310892B49F4A2C080916A1080FF9EC054
:101E600087E0898F1A8E9AC080E180932A1188E2D8
:101E700090E0909363108093621080E58093291125
:101E80008885809325118985809326118A85809382
:101E900027118B85809328118C85809321118D8546
:101EA000809322118E85809323118F858093241136
:101EB00086E0809312118C819D8190931E118093F6
:101EC0001D118E819F819093201180931F1180910D
:101ED000F7109091F810909316118093151180913E
:101EE000F9109091FA10909318118093171188812E
:101EF000998190931A11809319118A819B819093F3
:101F00001C1180931B11898D84FF05C010922C1128
:101F100010922B1105C082E080932B1110922C118E
:101F200080E48093111180916210909163109093DE
:101F30000B1180930C111092301110922F111092EE
:101F40002E1110922D110E94551980959095909305
:101F50002E1180932D1185E48093091110920A119E
:101F60001092101110920F118091690E90916A0ECB
:101F7000019690936A0E8093690E90930D11809351
:101F80000E1110921411109213110E949119809544
:101F90009095909314118093131104C010926310C4
:101FA0001092621010926A10DF91CF911F910895E4
:101FB00098278927982708959C01AB017093601199
:101FC00060935F111616170654F480916410909177
:101FD00065102817390719F0B9010C942C410895A0
:101FE000FF920F931F93CF93DF93DC01FB011092BD
:101FF000740E60E07BE0683010F5769FE0011124FC
:10200000C758D14F2881398121153105B1F08A8116
:102010009B81009791F04D915C9111974217530766
:1020200061F412962D913C9113972817390729F4E2
:102030006093740EDE0114964FC06F5FDCCF20E01A
:102040003BE0283090F4329FE0011124C758D14F73
:1020500088819981892B39F48A819B81892B19F494
:102060002093740E30C02F5FECCF2093740E283075
:1020700051F50091720E802F90E010E070E060E06A
:102080002BE0F22E683098F4F69EE0011124C75838
:10209000D14FCA85AC014C1B5109212F30E02417C8
:1020A00035071CF4762F102F1C1B6F5FEBCF10939E
:1020B000710E7093730E7093740E8BE0789FE00135
:1020C0001124C758D14F4D915D916D917C91DE01E6
:1020D0004D935D936D937D9386E001900D928A956B
:1020E000E1F78091720E8A87DF91CF911F910F9156
:1020F000FF9008951092740E9BE08091740E8830CA
:1021000068F4989FF0011124E758F14F1082118272
:10211000128213828F5F8093740EEFCF08958091A7
:102120006210909163100E979093631080936210E9
:102130008091F7109091F81020911511309116119F
:10214000822793272091F3103091F4108223932358
:10215000892BB9F48091F9109091FA102091171100
:1021600030911811822793272091F5103091F610A5
:1021700082239323892B29F461E071E185E191E1C8
:102180002FCF089580916210909163101092631088
:10219000109262108A9708F4089580910F1190911F
:1021A0001011811521E0920729F08115924009F460
:1021B00075C0089520912111309122118091F7105E
:1021C0009091F8102817390709F083C02091231146
:1021D000309124118091F9109091FA102817390745
:1021E00009F077C061E171E187E191E1F9DE80E01A
:1021F00092E09093101180930F1186E0E1E1F1E1FC
:10220000ABE1B1E101900D928A95E1F786E0EBE652
:10221000FEE0A1E1B1E101900D928A95E1F786E03F
:10222000EBE6FEE0A1E0B1E101900D928A95E1F7C5
:1022300086E0EBE1F1E1ABEFB0E101900D928A9520
:10224000E1F78091171190911811909322118093CA
:1022500021118091191190911A119093241180935A
:1022600023118091F7109091F8109093181180939A
:1022700017118091F9109091FA1090931A11809390
:10228000191188E096E090930811809307118AE273
:1022900090E0909363108093621008952091211133
:1022A000309122118091F7109091F810281739077A
:1022B00081F420912311309124118091F910909193
:1022C000FA102817390729F461E171E187E191E1FA
:1022D00087CE08952091191130911A112F3F4FEF99
:1022E000340751F480911B1190911C11019621F437
:1022F00086E0EDE6F3E0C6C08091F7109091F8100B
:10230000822793274091F3105091F4108423952352
:10231000892B91F440911B1150911C118091F9105F
:102320009091FA10842795276091F5107091F6101E
:1023300086239723892B89F08091EF109091F010DC
:102340009093760E8093750E8091F1109091F2101B
:102350009093780E8093770E08C03093760E20937A
:10236000750E5093780E4093770E8091750E909174
:10237000760E2091770E3091780E60E07BE0683029
:1023800090F4769FF0011124E758F14F408151817C
:102390008417950731F4428153812417350709F4D6
:1023A0006DC06F5FECCF6093740E683009F068C049
:1023B00046E050E06FEF70E08BEF90E10E94354116
:1023C00026E0EBE1F1E1DF01422F1D924A95E9F7AA
:1023D000EBE6FEE0A1E0B1E1822F01900D928A953B
:1023E000E1F7EBE6FEE0A1E1B1E1822F01900D9271
:1023F0008A95E1F78091750E9091760E9093221157
:10240000809321118091770E9091780E90932411F2
:10241000809323118091F7109091F81090931811E8
:10242000809317118091F9109091FA1090931A11DE
:102430008093191180E091E09093101180930F1117
:1024400090930A118093091188E090E090930C1109
:1024500080930B1120930D1184E080930E1188E07E
:1024600096E0909308118093071181E391E1909396
:102470006C1080936B108AE290E01EC06093740E23
:10248000349686E0ABEFB0E101900D928A95E1F7CA
:1024900086E0EBE6FEE0A1E0B1E101900D928A95C5
:1024A000E1F788E090E09093081180930711809104
:1024B0006210909163100E96909363108093621057
:1024C00008950F9300E020E040E060E081ED9EE0A1
:1024D0000E94BD380F9108950F9300E020E040E086
:1024E00060E087ED9EE00E94BD380F910895DC0109
:1024F000ED91FC91008CF18DE02D199591E08927EB
:10250000089580E090E00895DC011C96ED91FC9127
:102510001D97309741F08181882311F081E0089563
:10252000808184FDFBCF80E00895FC0144855585C2
:102530004115510551F0FB012485358521153105E3
:1025400021F081E04217530709F080E00895CF930E
:10255000DF931F92CDB7DEB7DC01ED91FC910088CF
:10256000F189E02D41E050E0BE016F5F7F4F19958A
:1025700097FD03C0898190E002C08FEF9FEF0F901D
:10258000DF91CF910895CF93DF93EC01A9D3EC8530
:10259000FD85309749F0808186FD02C081E005C04D
:1025A0008181882311F0FACF80E0DF91CF910895E7
:1025B000CF92DF92EF92FF920F931F93CF93DF930F
:1025C00000D01F92CDB7DEB77C018B016A01DC0120
:1025D000ED91FC910288F389E02D1995F801228193
:1025E00030E0322F22278381282B322723273227DE
:1025F0003A832983248130E0322F22278581282BBA
:102600003227232732273C832B83C601D1DCBC0130
:10261000CE0101960E9489098C01009719F480E08F
:1026200090E016C0D80159968C918F70C1F358D3A1
:10263000D80159968C9159978F70833099F75C9691
:102640008D919C915D97F7019587848781E090E05B
:102650000F900F900F900F90DF91CF911F910F91DE
:10266000FF90EF90DF90CF9008950F931F93CF933B
:10267000DF931F92CDB7DEB78C01DC01ED91FC91A9
:102680000688F789E02D19958823A1F0D8011C96BA
:10269000ED91FC911D978181882361F021E030E06C
:1026A000AE014F5F5F4F60E070E00E9423068981BA
:1026B00090E002C08FEF9FEF0F90DF91CF911F91BD
:1026C0000F910895FC011382128248EE53E060E0FE
:1026D00070E0448355836683778387E793E0918333
:1026E0008083158614860895EF92FF920F931F93AF
:1026F000CF93DF937C01C0E0D0E000E010E0F70171
:10270000EC0FFD1F81810E948E04080F191F219676
:10271000C530D105A1F7C801DF91CF911F910F916D
:10272000FF90EF900895CF93DF93EC01E881F9815A
:102730000688F789E02D1995882329F08C859D85D9
:10274000DF91CF91D1CF80E090E0DF91CF910895DC
:10275000CF93DF93EDEDFEE080E0908191110AC010
:102760008061DF018D9380E1ED0119928A95E9F78F
:10277000CF0106C08F5F7196843079F780E090E0DA
:10278000DF91CF910895FC01319681E091919111F3
:1027900002C0815008958F5F8530C1F784E00895AD
:1027A0009F92AF92BF92CF92DF92EF92FF920F93E0
:1027B0001F93CF93DF93EC016B017A018A015C01D7
:1027C00086E0A80EB11C8CD2209709F445C0888100
:1027D000807609F041C0C501D6DF982EFE01E80FD2
:1027E000F11D868181110CC080E092E00E943708C3
:1027F000FE01E90DF11D8683882329F31C861B86C3
:10280000A701401B510B4C0D5D1D6B857C8598010C
:10281000FE01E90DF11D86810E943306081B190B8C
:102820002B853C85280F391F3C872B8710161106F6
:102830002CF484E0981639F29394D6CF0E94B73ADC
:10284000665F7F4F8F4F9F4F6D877E878F87988BF7
:10285000C701801B910B02C08FEF9FEFDF91CF91DB
:102860001F910F91FF90EF90DF90CF90BF90AF90AE
:102870009F900895CF93DF931F92CDB7DEB7698302
:1028800041E050E0BE016F5F7F4FFC01848595857C
:1028900087DF0F90DF91CF910895FC0184859585A6
:1028A0007FCF0F931F93CF93DF938C01EC0189911E
:1028B0000E94D508F801C801049629912193E817D0
:1028C000F907D9F7F8011482DF91CF911F910F9189
:1028D00008959F92AF92BF92CF92DF92EF92FF92B4
:1028E0000F931F93CF93DF93EC015B017A01E88193
:1028F000F9810688F789E02D1995882309F455C0D8
:10290000EC85FD858181882309F452C087012EE181
:10291000922EA701401B510B4A0D5B1DEC85FD85D6
:10292000980160E070E081810E9423066C01EC85D3
:10293000FD8581810E948E04EC85FD85C816D9062F
:1029400049F50C191D09CF010196ABDFAC85BD859A
:102950002C91822F90E08F70989EF001999EF00D3F
:102960001124E159FF4E818D84FF05C0822F8076AE
:1029700011F420682C93EC85FD85818181110FC0B5
:10298000808186FF03C010821D861C86C701801BC4
:10299000910B10C0B60181810E94F70804C0011597
:1029A000110509F0B6CFC70105C08FEF9FEF02C038
:1029B00080E090E0DF91CF911F910F91FF90EF9019
:1029C000DF90CF90BF90AF909F9008951F93CF93CB
:1029D000DF93EC0115E088810E94D508199211500F
:1029E000D1F7DF91CF911F910895CF93DF93EC0141
:1029F0008C859D85009779F0FC012081222359F078
:102A00000196E4DFEC85FD85808186FF02C010829F
:102A100002C0806280831D861C86DF91CF9160C1D9
:102A2000CF93DF93EC01E881F9810688F789E02DE7
:102A30001995882331F08C859D850196DF91CF9182
:102A4000C5CFDF91CF910895DF92EF92FF920F9360
:102A50001F93CF93DF93E0916D10F0916E10C48DB2
:102A6000D58D209779F480916A1086FF43C070DE7F
:102A7000EC01009709F43EC0E0916D10F0916E10EA
:102A8000958F848F80916A1081FF07C080916210BA
:102A900090916310892B09F041C0888187FF0EC097
:102AA0008F77888380916A10826080936A10E091AA
:102AB0006D10F0916E10818D8F7E818F80916A10E4
:102AC00084FF6BC0CE01069681DF8981882309F4DB
:102AD00067C0E0916D10F0916E10848195819F83A5
:102AE0008E83888180648883E0916D10F0916E10F0
:102AF000158E148EE12CF12CB70180916B10909102
:102B00006C105ADAF0926310E0926210DF91CF916C
:102B10001F910F91FF90EF90DF900895888180764C
:102B200009F0BBCFE12CF12C8E010E0D1F1DF80119
:102B3000818181111EC080916210909163100E946A
:102B40003708F80181838823A1F000916210109169
:102B5000631020916B1030916C102B5F30414091CD
:102B6000350F60E070E00E941007F4E0EF1295CF9F
:102B70000CC02FEFE21AF20A35E0E316F104A1F6D9
:102B80008091320F8E7F8093320FE0916D10F09123
:102B90006E10818D8061818F80CF87FF03C092CFBF
:102BA0001882A2CF80FF03C0CE0106967ADE809104
:102BB0006A108C70D1F18E818823B9F19F819111B7
:102BC0000CC0EB84FC84E114F10409F493CFA70159
:102BD00060E070E00E940A0906C00E948E047C0139
:102BE000009709F487CF80916B1090916C108B5FE8
:102BF00090418093330FF701E80FF11DCF010E9440
:102C000037088093340F882309F476CF6091330F0F
:102C100070E0870120E030E04E810E941007809133
:102C2000320F82608093320F67CF888185FF62CF39
:102C30008E8181110BC01882E0916D10F0916E10A1
:102C4000158E148E80E180936A1054CFE0916D1040
:102C5000F0916E10818D8061818F4CCF0F9300E0D9
:102C600020E040E060E081E29FE00E94BD380F91EB
:102C700008958091320F81FF11C02091330F30E011
:102C80004BEF50E160E070E08091340F0E9433061A
:102C90008091320F8D7F8093320F14C0809162102B
:102CA000909163100E9437088093340F8823B1F00D
:102CB00020916210309163104BEF50E160E070E0C2
:102CC0000E9433068091340F0E948D068091340F4C
:102CD0000E94D5081092340F81E0089580E0089595
:102CE000CF92DF92EF92FF921F93CF93DF93809169
:102CF000350F811104C00E9495058093350F809196
:102D0000350F882309F443C091E09093320F0E945D
:102D10008E049093631080936210892B61F122E6F8
:102D200030E04BEF50E160E070E08091350F0E94A1
:102D3000230680910711909108118830910581F444
:102D40008091350F8093340FEAD981E00E940D0AFB
:102D50008091621090916310892B69F0BBDA0AC0F0
:102D60008830964041F40EDA8091621090916310A1
:102D7000892B09F07EDF8091350F882341F0809107
:102D8000320F80FF04C00E9494051092350F0E94FC
:102D9000B73A6B017C018091280F9091290FA09187
:102DA0002A0FB0912B0FA7019601281B390B4A0B54
:102DB0005B0BDA01C90180959095A095B0958827A5
:102DC000B7FD83959927AA27BB27182FCFE6D0E117
:102DD000D0936E10C0936D10112311F082E00FC0DC
:102DE000EC8DFD8D4585568567857089D701C601B7
:102DF000841B950BA60BB70BB7FD0BC083E00E949D
:102E00000D0A2091621030916310232B11F062DAC9
:102E100030DF6E9690E1C73ED907D1F6112369F0F5
:102E2000AAEFCA0ED11CE11CF11CC092280FD0924F
:102E3000290FE0922A0FF0922B0FDF91CF911F9173
:102E4000FF90EF90DF90CF900895CF93DF93EC0148
:102E50000E94B73A66507F4F8F4F9F4F6093280F65
:102E60007093290F80932A0F90932B0FCE010E940D
:102E70005707888180936B0E898180936C0E8A81BD
:102E800080936D0E8B8180936E0E8C8180936F0E7C
:102E90008D818093700E0E946909DF91CF912AC9BC
:102EA000CF93DF93FC01DA01E901228130E0322F78
:102EB00022278381282B848190E0982F88274581C1
:102EC000842B3227232732273093F8102093F710D2
:102ED0009827892798279093FA108093F9101296D3
:102EE0002C91129730E0322F222713968C91139752
:102EF000282B14968C91149790E0982F882715967C
:102F00004C91842B3227232732273093F0102093C3
:102F1000EF109827892798279093F2108093F1104B
:102F20002A8130E0322F22278B81282B8C8190E060
:102F3000982F88274D81842B3227232732273093DF
:102F4000F4102093F3109827892798279093F61070
:102F50008093F510FB0182819381A481B5818093D8
:102F60002E0F90932F0FA093300FB093310FDF915E
:102F7000CF910895AF92BF92CF92DF92EF92FF92DE
:102F80000F931F93CF93DF93CDB7DEB768970FB63C
:102F9000F894DEBF0FBECDBFCB016A01590155DFEA
:102FA00028E73CE03A832983F70182819381A48159
:102FB000B5818B839C83AD83BE8338872F83F801D3
:102FC00082819381A481B58189879A87AB87BC87E9
:102FD0003E872D87F50182819381A481B5818F87FA
:102FE000988BA98BBA8B3C8B2B8BF60182819381BA
:102FF000A481B5818D8B9E8BAF8BB88F9E012F5F87
:103000003F4FAE01495F5F4FBE01635F7F4FCE010F
:10301000439646DF68960FB6F894DEBF0FBECDBF6D
:10302000DF91CF911F910F91FF90EF90DF90CF90A4
:10303000BF90AF9008956F927F928F929F92AF92C0
:10304000BF92CF92DF92EF92FF920F931F93CF9395
:10305000DF93CDB7DEB76E970FB6F894DEBF0FBE25
:10306000CDBF6C015B017A014901380100E02FEF0F
:103070004FEF6FEFCE0149960E94BD3828E73CE044
:103080003A8329838B8D9C8DAD8DBE8D8B839C83E4
:10309000AD83BE8338872F83F30182819381A4811E
:1030A000B58189879A87AB87BC873E872D87F401D6
:1030B00082819381A481B5818F87988BA98BBA8BEC
:1030C0003C8B2B8BF70142815381648175814D8B41
:1030D0005E8B6F8B788FCE0101967C018E01095F2C
:1030E0001F4F9E01235F3F4FAE014D5E5F4FB50105
:1030F000C60140DF6E960FB6F894DEBF0FBECDBF9F
:10310000DF91CF911F910F91FF90EF90DF90CF90C3
:10311000BF90AF909F908F907F906F900895CF92C7
:10312000DF92EF92FF920F931F93CF93DF93CDB770
:10313000DEB768970FB6F894DEBF0FBECDBF6B0148
:103140007901DA0112964D915D916D917C911597FF
:103150004D8B5E8B6F8B788FA8E7BCE0BA83A98319
:1031600021E0288F0D891E892F89388D0B831C83C0
:103170002D833E83B887AF83F701028113812481B9
:10318000358109871A872B873C87BE87AD874F8794
:10319000588B698B7A8B8E010F5F1F4F9E01295FC1
:1031A0003F4FAE01435F5F4FB60145DF68960FB6F4
:1031B000F894DEBF0FBECDBFDF91CF911F910F916D
:1031C000FF90EF90DF90CF9008950F931F93CF93D0
:1031D000DF93CDB7DEB762970FB6F894DEBF0FBEB0
:1031E000CDBFDB01FA0142815381648175814F8734
:1031F000588B698B7A8BE8E7FCE0FA83E98321E05E
:103200002A8B0F85188929893A890B831C832D8382
:103210003E83F887EF8349875A876B877C879E01B7
:103220002F5F3F4FAE01495F5F4FBD0178DF629670
:103230000FB6F894DEBF0FBECDBFDF91CF911F91C7
:103240000F910895FB0141505109460F571FE41794
:10325000F50778F4208130E0322F22276181260F94
:10326000311D820F931F8217930708F4019632963F
:10327000EECFE417F50751F4208130E0322F2227FA
:10328000820F931F8217930708F40196089544E173
:1032900050E069E071E180E090E0D4DF009711F048
:1032A0000C94D80F8FEF9FEF08950F931F93CF9338
:1032B000DF9380910B1190E0982F882720910C11BB
:1032C000820F911D8C010451110948E050E065E125
:1032D00071E10E97B7DFC0912911C695C695CC73E1
:1032E000D0E0AE016DE171E1ADDFC017D10750F460
:1032F00098012C1B3D0BAE014E5D5F4F6091340F6A
:103300000E94DE07009731F0DF91CF911F910F915E
:103310000C94D80F8FEF9FEFDF91CF911F910F91FA
:103320000895B5CF0F9300E020E040E060E086E331
:103330009FE00E94BD388CE29FE00F910C94B3385F
:103340000F9300E020E040E060E08CE39FE00E940B
:10335000BD380F9108950F9300E020E040E060E059
:1033600082E49FE00E94BD380F910895FC01108215
:103370000895CF92DF92EF92FF92CF93DF93EC010B
:103380006A017B018B859C85AD85BE859A01AB0169
:10339000281B390B4A0B5B0BDA01C90149815A81A1
:1033A0006B817C8184179507A607B707D8F08881C1
:1033B000813019F0823029F00CC0E985FA85199521
:1033C00008C061E08885811160E068878F810E9474
:1033D000033CCB86DC86ED86FE868F859889019638
:1033E000988B8F878D819E8197FD06C02F853889A8
:1033F000281739070CF01882DF91CF91FF90EF90DA
:10340000DF90CF9008950F931F93CF93DF93EC013C
:103410008C0106551F4FCE01A9DF6196C017D10759
:10342000D1F7DF91CF911F910F910895CF92DF9245
:10343000EF92FF921F93CF93DF936A017B01EC0120
:103440001AE08881882321F0B701A601CE0191DF1F
:10345000115061961111F5CFDF91CF911F91FF901F
:10346000EF90DF90CF900895CF93DF93EC010E940F
:10347000B73AAB01BC01CE01DF91CF91D7CF20E0AD
:10348000FC013081332331F02F5F41962A30C1F7A0
:103490008FEF0895822F0895CF92DF92EF92FF92DF
:1034A0000F931F93CF93DF9300D01F92CDB7DEB75A
:1034B0006C01790149835A836B837C83E0DF282F79
:1034C00049815A816B817C818F3FD9F081E128024B
:1034D000C00CD11C112481E0F6018083418352830A
:1034E0006383748316830583F286E18629830E94B1
:1034F000B73AF6016387748785879687108A17869F
:103500002981822F0F900F900F900F90DF91CF9114
:103510001F910F91FF90EF90DF90CF9008950F9340
:103520001F930FEF1FEFB8DF1F910F9108952CEB42
:1035300033E0FC013183208308952CEB33E0FC0160
:10354000318320830C946C3A0F931F93CF93DF93B6
:10355000EC018B01CA014CEB53E0598348832A8765
:103560009B838A83222331F043E953E062EB73E0CB
:103570000E943C291D830C83C8018ED19F838E83BA
:10358000C8018CD199878887DF91CF911F910F91C6
:1035900008950F931F93CF93DF938C01C0E0D0E089
:1035A000F80180859185C817D907ACF4D801169623
:1035B000ED91FC911797CE01880F991FE80FF91F25
:1035C00080819181009729F012966D917C911397DB
:1035D000ACD42196E5CFDF91CF911F910F91089543
:1035E000AF92BF92CF92DF92EF92FF920F931F9311
:1035F000CF93DF938C017B016A01C0E0D0E0F8013A
:1036000080859185C817D9073CF55E01AA0CBB1CC3
:10361000D8011696ED91FC911797EA0DFB1D80815C
:103620009181009721F0B7012CD4811102C021961D
:10363000E6CFD8011696ED91FC911797EA0DFB1D88
:1036400080819181DC01ED91FC910480F581E02D78
:10365000A601B7011995EBCFDF91CF911F910F9183
:10366000FF90EF90DF90CF90BF90AF900895DC0176
:1036700014968D919C911597DC01ED91FC9106803B
:10368000F781E02D19940F9300E020E040E060E026
:1036900088E49FE00E94BD380F910895CF93DF9397
:1036A000EC0184EC93E0998388838E819F8100975D
:1036B00039F0DC01ED91FC910280F381E02D199548
:1036C0008C819D81009749F0DC01ED91FC91028095
:1036D000F381E02DDF91CF911994DF91CF9108957F
:1036E000CF93DF93EC01DADFCE01DF91CF910C9421
:1036F0006C3A2F923F924F925F926F927F928F928D
:103700009F92AF92BF92CF92EF920F931F93CF935E
:10371000DF9300D0CDB7DEB73C011A01422F9801EC
:1037200084EC93E0F30191838083738362838AE066
:1037300090E00A833B8349830E946B3A2C01E12C81
:1037400084012A813B814981B101A1D1F3015582D4
:1037500044828AE090E00E946B3A2C016C2D70E06C
:1037600095014C2D94D1F301578246820F900F9012
:103770000F90DF91CF911F910F91EF90CF90BF905D
:10378000AF909F908F907F906F905F904F903F9001
:103790002F9008950F931F93CF93DF931F92CDB770
:1037A000DEB78C01FC0184819581498343D1F80106
:1037B000828193814981029749F4642F86819781A0
:1037C0000F90DF91CF911F910F9134C10F90DF9136
:1037D000CF911F910F910895FC01868197810895E3
:1037E000FC018481958108950F9300E020E040E082
:1037F00060E08EE49FE00E94BD380F9108952CECAC
:1038000033E0FC013183208310C5CF93DF93EC01BB
:10381000F6DFCE01DF91CF910C946C3AEF920F93CB
:10382000CF93DF93EC01E12C60E070E00BD58CECE2
:1038300093E099838883DF91CF910F91EF90089562
:103840000F9300E020E040E060E084E59FE00E940C
:10385000BD380F91089524ED33E0FC0131832083BE
:10386000089524ED33E0FC01318320830C946C3AFD
:1038700024ED33E0FC0131832083778B668B20E0DD
:1038800030E0FC01E20FF31F138212822E5F3F4FE4
:1038900024313105B1F70895029608958AE090E049
:1038A00008950F9300E020E040E060E08AE59FE0AB
:1038B0000E94BD380F91089520EE33E0FC01318362
:1038C0002083B3C4CF93DF93EC01F6DFCE01DF9109
:1038D000CF910C946C3AEF920F93CF93DF93EC015E
:1038E000E12C62E070E0AED480EE93E099838883AF
:1038F000DF91CF910F91EF9008950F9300E020E0BA
:1039000040E060E080E69FE00E94BD380F9108959E
:10391000DF92EF92FF920F931F93CF93DF9300D02C
:1039200000D0CDB7DEB77C018B018091660F9091FE
:10393000670F8617970721F07093670F6093660FE4
:10394000C7010E94BD25D82E811121C021E33CE092
:10395000A90164EE73E0C7010E943D278823B9F0F6
:1039600064EE73E0CE0101960E942A3A44EE53E0E1
:10397000BA01C7010E943C290115110511F0C801C7
:1039800008DECE0101960E94C339DD24D3948D2D2B
:1039900026960FB6F894DEBF0FBECDBFDF91CF9154
:1039A0001F910F91FF90EF90DF900895AB01BC0144
:1039B0008091660F9091670F13CECF93DF93CDB7B1
:1039C000DEB72A970FB6F894DEBF0FBECDBFDB017E
:1039D000FE013196BF019F01261B370B421753078B
:1039E00018F02D912193F7CFFB01E40FF51F108202
:1039F000DDDF2A960FB6F894DEBF0FBECDBFDF9194
:103A0000CF9108950F9300E020E040E060E088E669
:103A10009FE00E94BD380F9108952EEF33E0FC0126
:103A20003183208308952EEF33E0FC01318320831E
:103A30000C946C3A0F931F93CF93DF931F92CDB7E3
:103A4000DEB78C01FC016483828169830E94383C6B
:103A50006981262F30E08217930721F0F8018281D7
:103A60000E94033CF8018481882319F047EF53E05A
:103A700002C042EE54E0F80165817681878190852D
:103A80000F90DF91CF911F910F910C943C29CF9211
:103A9000DF92EF920F931F93CF93DF931F92CDB7D7
:103AA000DEB76C01862FEEEFF3E0D6011196FC93A2
:103AB000EE9318961C930E93179712966C93129789
:103AC00013967C93139714964C93149716963C93E5
:103AD0002E9315971996EC9261E049830E94CA3B98
:103AE0004981642FC6010F90DF91CF911F910F91F3
:103AF000EF90DF90CF909ECF0F9300E020E040E06A
:103B000060E08EE69FE00E94BD380F9108952EE39D
:103B100035E0FC013183208308952EE335E0FC017C
:103B2000318320830C946C3AFC018EE395E0918301
:103B30008083738362835583448322A382E090E071
:103B40009783868340E050E068EC71E442875387B6
:103B5000648775871686178681E490E0938B828B45
:103B6000148A118E158E128E138E148E0895DF9284
:103B7000EF92FF920F931F93CF93DF937A01E901A6
:103B80006130710589F062307105D1F0672B31F534
:103B90008EE090E00E946B3AD82E192F9E01A7016B
:103BA00060E070E03BDE17C08EE090E00E946B3A70
:103BB000D82E192F9E01A70161E070E0F5D30BC04C
:103BC0008FE090E00E946B3AD82E192F9E01A7013A
:103BD00062E070E080DE8D2D912F02C080E090E0E9
:103BE000DF91CF911F910F91FF90EF90DF9008959B
:103BF0008F929F92AF92BF92CF92DF92EF92FF92FD
:103C0000CF93DF93EC018E819F81892B11F41C8A65
:103C100066C088899989009709F461C09FD36B01B8
:103C20007C01AA88BB88B501615F7F4F882777FD3B
:103C30008095982F0E94FD3CA70196010E94C63CEA
:103C4000181624F081E08C8B8D8B2EC0B50188274F
:103C500077FD8095982F0E94FD3C4B015C0120E090
:103C600030E040E450E4C701B6010E94613C9B0192
:103C7000AC01C501B4010E94C63C18161CF081E0DD
:103C80008C8B11C020E030E040E450E4C701B60165
:103C90000E94623C9B01AC01C501B4010E94AD3D94
:103CA00087FD02C01C8A1D8A8AA18823B1F042E0E8
:103CB00054E062EB73E08C819D810E943C292C8949
:103CC0008C819D81222319F04BE154E002C040E336
:103CD00054E062EB73E00E943C298C8901C080E0D3
:103CE000DF91CF91FF90EF90DF90CF90BF90AF909A
:103CF0009F908F9008958F929F92AF92BF92CF9294
:103D0000DF92EF92FF92CF93DF93EC018E819F8140
:103D1000892B11F41E864EC088859985009709F479
:103D200049C01CD34B015C01898D882341F1CA84B1
:103D3000DB84EC84FD8420E030E040E05FE3C501FB
:103D4000B4010E94623C9B01AC01C701B6010E9414
:103D5000AD3D87FD03C081E08E8711C020E030E0DB
:103D600040E05FE3C501B4010E94613C9B01AC01EE
:103D7000C701B6010E94C63C18160CF01E868AA127
:103D80008823B1F046E454E062EB73E08C819D81BE
:103D90000E943C292E858C819D81222319F040E6CA
:103DA00054E002C045E754E062EB73E00E943C2916
:103DB0008E8501C080E0DF91CF91FF90EF90DF9082
:103DC000CF90BF90AF909F908F9008958F929F92C9
:103DD000AF92BF92CF92DF92EF92FF92CF93DF9399
:103DE000EC018E819F81892B11F41F863EC088854E
:103DF00099850097D1F1B2D24B015C018D8D88235A
:103E000039F1CA84DB84EC84FD8420E030E040E0BA
:103E10005FE3C501B4010E94613C9B01AC01C70195
:103E2000B6010E94C63C18161CF081E08F8710C0B6
:103E300020E030E040E05FE3C501B4010E94623C55
:103E40009B01AC01C701B6010E94AD3D87FF1F86F3
:103E50008AA1882341F04BE854E062EB73E08C8147
:103E60009D810E943C298F8501C080E0DF91CF9128
:103E7000FF90EF90DF90CF90BF90AF909F908F908A
:103E80000895CF92DF92EF92FF920F931F93CF93FB
:103E9000DF938C016B01DC019096ED90FC90919783
:103EA000C0E0D0E0CE15DF059CF4D8015E96ED9120
:103EB000FC915F97CE01880F991FE80FF91FB6019B
:103EC000808191810E943C41892B21F02196EACF8B
:103ED00080E001C081E0DF91CF911F910F91FF90B1
:103EE000EF90DF90CF900895CF92DF92EF92FF9204
:103EF0000F931F93CF93DF937A016901EB0100E0E9
:103F000010E00E151F0544F469917991C6010E94D5
:103F1000A4290F5F1F4FF5CFDF91CF911F910F9114
:103F2000FF90EF90DF90CF9008959B01FC0140A19E
:103F300051A1668D778DD8CFCF93DF93EB01CA0166
:103F400067EF73E00E943C41892B11F461E001C0EE
:103F500060E0CE01DF91CF916DCDCF93DF93EC0187
:103F6000898DE881F981882319F08E85811105C03A
:103F70000680F781E02D60E004C00680F781E02D27
:103F800061E0CE0119958D8DE881F981882341F09A
:103F90008F85882329F00084F185E02D61E004C03D
:103FA0000084F185E02D60E0CE0119958A8DE881CD
:103FB000F981882349F08C89882331F00284F385C4
:103FC000E02D4D8961E005C00284F385E02D4D8927
:103FD00060E0CE01DF91CF911994CF93DF93EC0194
:103FE00088859985009759F0BFD1CE0184DECE0136
:103FF000EDDE6C817D818885998536D108C048EADF
:1040000054E062EB73E08C819D810E943C298E819B
:104010009F81019721F0CE01DF91CF919ECFDF915B
:10402000CF910895CF93DF93EC014A875B876C872C
:104030007D878AA1882341F04AEB54E062EB73E06C
:104040008C819D810E943C29CE0155DECE01BEDED1
:104050008E819F81019721F0CE01DF91CF917DCF9D
:10406000DF91CF910895CF93DF93EC01C1DDCE01B5
:1040700042DECE01ABDECE01DF91CF916ECF0F934A
:104080001F93CF93DF93EC018B016EED74E0C801B9
:104090000E943C41892B19F41F821E8214C066EED7
:1040A00074E0C8010E943C41892B49F481E090E012
:1040B0009F838E83DF91CF911F910F91089582E0AE
:1040C00090E09F838E83CE01DF91CF911F910F915E
:1040D000CACFEF92FF920F931F93CF93DF93EC0120
:1040E0008B017A0188859985009709F004D1888928
:1040F0009989009719F0A701B801FDD08E899F8991
:10410000009719F0A701B801F6D0CE01DF91CF9149
:104110001F910F91FF90EF90A6CF0F931F93CF9316
:10412000DF93EC010889198901151105B9F0882779
:1041300077FD8095982F0E94FD3CAB01BC01C80122
:1041400013D1CE0155DD6C817D81888999898CD010
:104150008AA1882359F04DEE54E002C048E055E0B2
:1041600062EB73E08C819D810E943C298E819F814E
:10417000019731F0CE01DF91CF911F910F91EDCEDC
:10418000DF91CF911F910F910895CF93DF93EC01B1
:104190007B8B6A8B8AA1882341F049E155E062EB71
:1041A00073E08C819D810E943C29CE0121DD8E81AE
:1041B0009F81019721F0CE01DF91CF91CECEDF918B
:1041C000CF910895FC01848195810895FC0182A11D
:1041D0000895FC0162A30895FC01808991890895E6
:1041E000FC01718B608B0895FC0180859185089599
:1041F000FC01718760870895FC01618F0895FC01BF
:10420000628F0895FC01778F668F0895FC0171A37A
:1042100060A308950F9300E020E040E060E084E7B1
:104220009FE00E94BD380F91089527E236E0FC011F
:1042300031832083089527E236E0FC013183208317
:104240000C946C3AEF920F93FC0187E296E0918315
:1042500080837387628753834283358324830487F3
:10426000E5860F91EF900895CF92DF92EF92FF9243
:104270000F931F93CF93DF93CDB7DEB72A970FB677
:10428000F894DEBF0FBECDBF7C016B01FC018485BD
:104290008823C1F066817781808591858E010F5FCB
:1042A0001F4F22E045E00E949C3EF701648175812A
:1042B000A801C601E1D7F7018585882369F04AE4A2
:1042C00055E006C0F7018585882331F043E755E0C6
:1042D00062EB73E0C601D0D72A960FB6F894DEBF22
:1042E0000FBECDBFDF91CF911F910F91FF90EF9047
:1042F000DF90CF9008950F931F93CF93DF93EC013E
:104300008A018C85811125C08C819D810E943C4150
:10431000892B89F4C8010E9421416E837F8388879D
:1043200099878D858823A9F0B80188EC95E00E94D3
:104330004541AC0105C08D85882359F049EF55E012
:1043400062EB73E08A819B81DF91CF911F910F9186
:1043500093C7DF91CF911F910F910895FC01668162
:104360007781808591850895FC0146835783608716
:10437000718708950F9300E020E040E060E08AE755
:104380009FE00E94BD380F9108952FE236E0FC01B6
:10439000318320834ACFCF93DF93EC01F6DFCE0148
:1043A000DF91CF910C946C3AEF920F93CF93DF9300
:1043B000EC01E12C61E070E045DF8FE296E099834B
:1043C0008883DF91CF910F91EF9008950F9300E0D4
:1043D00020E040E060E080E89FE00E94BD380F915F
:1043E0000895FF920F931F93CF93DF93FC010081F9
:1043F000C181D281F8948981F02EF0948F21898334
:1044000078941DE7115029F182E090E00E940B3B67
:1044100088818023B9F3F8948A818F218A838981E6
:10442000802B8983789480EE91E00E940B3BF89476
:1044300089818F21898386E490E00E940B3B8881EB
:10444000802311E009F010E078948AE991E00E945D
:104450000B3B812FDF91CF911F910F91FF9008951A
:104460001F93CF93DF93FC011081C181D281912FE3
:10447000909560FF12C0F8948A8189238A8389818C
:10448000812B89838AE090E00E940B3B8A81812BFB
:104490008A83789487E390E011C0F8948A81892315
:1044A0008A838981812B898381E490E00E940B3B80
:1044B0008A81812B8A83789485E090E0DF91CF9187
:1044C0001F910C940B3B0F931F93CF93DF93FC0131
:1044D0001081C181D281F8948981812B89838A815D
:1044E000012F009580238A8383E090E00E940B3B9C
:1044F0008981802389838AE090E00E940B3BC881F8
:10450000789485E390E00E940B3B1C2381E009F442
:1045100080E0DF91CF911F910F910895CF92DF92AC
:10452000EF92FF920F931F93CF93DF931F92CDB71C
:10453000DEB76C01E62E08E010E0FF24F39461E0A2
:104540009F2D9E2109F460E0C601498389DFFF0C9D
:104550000150110949810115110589F7411115C053
:10456000F894D6011196ED91FC91129791818C915E
:104570008095892381831196ED91FC911297928108
:104580008C9180958923828378940F90DF91CF91CD
:104590001F910F91FF90EF90DF90CF900895EF92D1
:1045A000FF920F931F93CF93DF938C01C8E0D0E06D
:1045B000F12CEE24E394C80186DF8111FE28EE0C75
:1045C0002197C9F78F2DDF91CF911F910F91FF9008
:1045D000EF900895CF92DF92FF920F931F93CF93A6
:1045E000DF931F92CDB7DEB78C01F62E40E065E574
:1045F000798394DFCF2C7981D72E88E0F82EF601CD
:1046000061916F0140E0C80189DFFA94C1F70F9012
:10461000DF91CF911F910F91FF90DF90CF90089580
:1046200040E06CEC7BCFFC0113861586148627E0F6
:1046300030E0DF01A20FB31F13961C922115310544
:1046400019F021503109F5CF08951F93CF93DF93CF
:10465000EC01162F60E0812F0E94CA3B612F70E0B1
:10466000FB01E25AFD4FE491E883FB01EC55FD4F5D
:10467000E491F0E0EE0FFF1FE651FD4F859194911C
:104680009A838983CE01DF91CF911F91CCCFAF92D6
:10469000BF92CF92DF92EF92FF920F931F93CF932F
:1046A000DF931F92CDB7DEB75C01D62EE72EFC015B
:1046B000858581115FC0C501498393DE49818111E0
:1046C00005C0F5011386158614866DC0442319F0C4
:1046D00040E060EF02C040E06CEEC5011FDF01E08A
:1046E000F12CC12C11E0C501EEDE682FC5016983F4
:1046F000EADE6981613019F48130B9F432C02F2DBE
:1047000030E068131BC0F5018385181730F4E20F01
:10471000F31F8381802349F402C0181731F060E051
:10472000193058F4F501148708C0F501EF0DF11D9B
:104730008381802B838361E009C0C12EF501E20FE4
:10474000F31F8381902F909589238383C50188DE91
:104750001F5F000F11F4F39401E0F7E0FF1508F07C
:10476000C2CF113438F0F501C386C11009C081E011
:10477000858706C0F50113861586148680E013C070
:10478000F50183818823B1F3ED2DFE2D80E090E0CB
:10479000D501A80FB91F13962C912193019688304B
:1047A0009105B1F781E00F90DF91CF911F910F91AB
:1047B000FF90EF90DF90CF90BF90AF900895DC0115
:1047C00080E0615038F0ED91E827F0E0E85EFE4FC0
:1047D0008491F7CF0895CF92DF92EF92FF920F93DB
:1047E0001F93CF93DF93EC018B010E94B73A6B01CB
:1047F0007C0188819981DC01ED91FC910480F58137
:10480000E02D1995892B69F40E94B73A6C197D093E
:104810008E099F0968397A438105910550F380E03C
:104820000CC088819981DC01ED91FC910680F781B3
:10483000E02D1995F801808381E0DF91CF911F91E0
:104840000F91FF90EF90DF90CF9008950F931F93FB
:10485000CF93DF93EA0108811981600F711FBBDFDD
:10486000882331F00F5F1F4F1983088381E001C057
:1048700080E0DF91CF911F910F9108953F924F9269
:104880005F926F927F928F929F92AF92BF92CF92E0
:10489000DF92EF92FF920F931F93CF93DF9300D09D
:1048A000CDB7DEB78C016B011A8219825C0182E000
:1048B000A80EB11CAE014F5F5F4FB501C801C6DF46
:1048C000811103C080E090E0B9C0D80112969C909D
:1048D0001B82E12CF12C412C512C32014394BE015E
:1048E0006D5F7F4FC80177DF882361F329813A81AB
:1048F000C90101969A8389836B81F801E20FF31F46
:104900006283462F4F7750E0449D9001459D300DC6
:10491000549D300D1124E20EF31E97E0440C551CFB
:10492000661C771C9A95D1F767FDD9CF292D207F7A
:1049300033243394203309F0312C8150F6018083E5
:10494000332031F1AE014F5F5F4FB501C8017EDF0B
:10495000882309F4B7CFAE014F5F5F4FB501C8019F
:1049600075DF882309F4AECFD6018C91F801E80FEA
:10497000F11D4380512C542C44248481480E511C39
:10498000F801828181FF08C0F2E04F0E511C04C083
:1049900080E0412C512C01C082E0A82EB12C612C6A
:1049A000712C480189E9880E911CC3018A0D9B1D59
:1049B0008E159F0598F5BE016D5F7F4FC8010BDF17
:1049C000882309F47FCFD4018D919C910097A9F0A1
:1049D000332099F029813A8122503109F601408132
:1049E000241B31094216530640F4DC01ED91FC9181
:1049F0000190F081E02D6B81199589819A81803831
:104A0000910528F42B81F801E80FF91F2283019604
:104A10009A838983BFEF6B1A7B0AC7CFF801E756E9
:104A2000FF4F80819181892B39F489819A81813866
:104A3000910510F01A82198289819A810F900F9046
:104A40000F90DF91CF911F910F91FF90EF90DF902A
:104A5000CF90BF90AF909F908F907F906F905F901E
:104A60004F903F900895AF92BF92CF92DF92EF9216
:104A7000FF920F931F93CF93DF9300D01F92CDB778
:104A8000DEB77C01F90180E09E2F9F77EE0FEF2FBC
:104A9000EE1FFF0BF195309709F09068A1E0B0E0B0
:104AA000AC0FBD1FA80FB11D9C938F5F309761F7AE
:104AB000A82EB12CDA01AA19BB0914966C93BE0179
:104AC0006F5F7F4F80E090E04A195B098A159B0574
:104AD00054F4FB01D190BF018A01080F191FF8019E
:104AE000D5820196F3CFF7018081918189010F5F13
:104AF0001F4F0A0D1B1DFC0120813181F90122810C
:104B00003381A801BD01F90119956C010E94B73AE2
:104B1000F701EC57FF4F608371838283938381E0B9
:104B2000C016D10609F080E00F900F900F900F9003
:104B3000DF91CF911F910F91FF90EF90DF90CF9079
:104B4000BF90AF900895C9010296DB01FD01E61BFD
:104B5000F70B2D91222331F0FA01E80FF91F208382
:104B60000196F4CF9C012E1B3F0B240F351FD9015A
:104B70001297FC931196EC930895CF93DF93EC0179
:104B800088819981009731F1DC01ED91FC910488D5
:104B9000F589E02D199581111FC0FE01E556FF4FE3
:104BA00080819181892BB1F48DEF9FEF9183808378
:104BB00088819981DC01ED91FC910284F385E02DDF
:104BC000199588819981DC01ED91FC910288F38926
:104BD000E02D199580E001C081E0DF91CF9108952B
:104BE0002F923F924F925F926F927F928F929F92FD
:104BF000AF92BF92CF92EF92FF920F931F93CF93FA
:104C0000DF93CDB7DEB72E970FB6F894DEBF0FBE99
:104C1000CDBF4C011B012A013901AFDF811114C145
:104C2000F401EB56FF4F60817181D4018D919C910D
:104C30001197A956BF4FFC01208131816115710583
:104C400041F04D915C91D9011E96ED91FC911F9719
:104C50001FC0F9010484F585E02DFE87ED87ED91F5
:104C6000FC9128E73CE03A832983D401A157BF4F48
:104C700012964D915D916D917C9115974B835C835C
:104C80006D837E83AF01BE016F5F7F4FED85FE8533
:104C90001995F4018130910509F0CEC0EE57FF4F10
:104CA0009183808389E0E5E1F2E0DE0111960190D5
:104CB0000D928A95E1F7FE01319680E090E0219116
:104CC000D401A80FB91F17962C930196893091052E
:104CD000B1F70115110559F0F0E2CF9EC001112482
:104CE000866028E0E29E700111248E2901C082E0D6
:104CF0004114510431F06114710411F4806801C051
:104D0000806CD40150968C93509751961C92519779
:104D10008FE052968C937401B2E0EB0EF11C21E10E
:104D200030E0A701B101C4010EDF0115110551F0FA
:104D30009C01A701B801C40106DF9C01A701B501D0
:104D4000C40101DF4114510469F09C01A701B201C3
:104D5000C401F9DE6114710429F09C01A701B301BB
:104D6000C401F1DE9C0125503109A70160E1C401B5
:104D70007ADE0E94B73AF401EC57FF4F60837183EB
:104D800082839383840108571F4FF80160837183E6
:104D900082839383F40180819181DC01ED91FC9108
:104DA0000480F581E02D1995892BC1F40E94B73A52
:104DB000D8014D905D906D907C90641975098609BD
:104DC000970968397A438105910520F3F401E55686
:104DD000FF4F8CEF9FEF9183808323C0BE01665FFE
:104DE0007F4FC4014BDD0497E1F4F4018581940108
:104DF00025563F4F7901811110C00E94B73AD80162
:104E00006D937D938D939C931397F401E457FF4F1B
:104E10001082F7011182108217C090E0D9018D93A2
:104E20009C93F40180819181DC01ED91FC910288D9
:104E3000F389E02D199506C0E556FF4F8EEF9FEFE1
:104E40009183808380E001C081E02E960FB6F894B4
:104E5000DEBF0FBECDBFDF91CF911F910F91FF90AD
:104E6000EF90CF90BF90AF909F908F907F906F907A
:104E70005F904F903F902F900895AF92BF92CF9246
:104E8000EF920F931F93A12CB12CC12CE12C00E0C9
:104E900010E0A6DE1F910F91EF90CF90BF90AF90E2
:104EA00008952F923F924F925F926F927F928F92CE
:104EB0009F92AF92BF92CF92DF92EF92FF920F93A9
:104EC0001F93CF93DF9300D01F92CDB7DEB78C0135
:104ED0004DB65EB652DE882309F441C10E94B73A4E
:104EE0006B017C01580128E8A20EB11CF5018081FC
:104EF0009181A281B381A7019601281B390B4A0B2E
:104F00005B0BDA01C90189399A43A105B10590F417
:104F1000349780819181A281B381A7019601281BDA
:104F2000390B4A0B5B0BDA01C90189399A43A10598
:104F3000B105C0F148014CE8840E911CD4012C91BC
:104F4000F80180819181222371F0E556FF4F2CEF0B
:104F50003FEF31832083DC01ED91FC910288F389DE
:104F6000E02D1995FCC020ECF80122831382DC01AE
:104F7000ED91FC910280F381E02D42E050E0B80118
:104F80006E5F7F4F1995F801EC57FF4FC082D182B9
:104F9000E282F382F501C082D182E282F38281E073
:104FA000D4018C93F80180819181DC01ED91FC9119
:104FB0000480F581E02D1995892B09F4D2C0BE013A
:104FC0006F5F7F4FC8015ADCFC01009709F4C9C02C
:104FD000D501CD92DD92ED92FC921397D8011296F5
:104FE0008C91807F803309F09FC04801BDE88B0E13
:104FF000911CD4018D919C91892B09F4B2C02DB6DE
:105000003EB6698170E0D801A60FB71F13964C9188
:10501000139750E0542F442714968C911497480FFF
:10502000511DCA0101962DB73EB7281B390B0FB68B
:10503000F8943EBF0FBE2DBF8DB79EB701965C01A1
:1050400020E030E0BC83AB832417350769F06B8028
:105050007C80620E731ED30115966C90D5016D9203
:105060005D012F5F3F4FF0CFDC01A20FB31F1C92F9
:10507000D8011296BC91B670BA83B230E9F5390105
:10508000660E771ED801A60DB71D1596AC90159724
:10509000B12CBA2CAA2416964C91A40EB11C4BEF3D
:1050A0005FEF461B570B421B530B4E0F5F1FB301A5
:1050B000695F7F4F600F711FD401ED91FC911995CD
:1050C00080E4F80182837A807382B482A582D80159
:1050D0008D919D91BD01DC01ED91FC910280F381E8
:1050E000E02D44E050E01995F801EC57FF4FC082E5
:1050F000D182E282F38212C04DEF5FEF461B570B65
:10510000421B530B4E0F5F1F620F731F6B5F7F4F6E
:10511000600F711FD401ED91FC9119950FB6F894B1
:105120003EBE0FBE2DBE1DC0803C91F480EDF80147
:1051300082831382D8018D919D91BD01DC01ED9197
:10514000FC910280F381E02D42E050E0199509C006
:10515000803D39F4F801E457FF4F108202C080E02F
:1051600001C081E00FB6F8945EBE0FBE4DBE0F9039
:105170000F900F900F90DF91CF911F910F91FF90A3
:10518000EF90DF90CF90BF90AF909F908F907F90E7
:105190006F905F904F903F902F9008958F929F92C5
:1051A000BF92CF92DF92EF92FF920F931F93CF9314
:1051B000DF931F921F92CDB7DEB74C01B42E152F8F
:1051C000790169837A83D9DC69817A81882309F43A
:1051D00044C0FB0101900020E9F73197E61BF70B73
:1051E000C70107968E0F9F1F81389105B0F56401A6
:1051F00082E0C80ED11C25E030E0A601C401A3DC8A
:10520000EB2DF12F60E070E09401280F391F6E152F
:105210007F0549F04191D901A60FB71F12964C9313
:105220006F5F7F4FF4CF011102C060E301C061E303
:10523000970125503109280F391FA601C4010F908D
:105240000F90DF91CF911F910F91FF90EF90DF9022
:10525000CF90BF909F908F9006CC80E00F900F90E2
:10526000DF91CF911F910F91FF90EF90DF90CF9042
:10527000BF909F908F9008950F93FA0101900020A6
:10528000E9F79F0121503109241B350B00E086DF2F
:105290000F910895CF92DF92FF920F931F93CF93B8
:1052A000DF931F921F92CDB7DEB76C01F42E81E021
:1052B000841708F43EC0FB0101900020E9F7E61BCB
:1052C000F70B3896E138F105A0F5C60169837A83BA
:1052D00054DC69817A81882361F1F601EE57FF4F32
:1052E00080819181019611F481E090E09183808327
:1052F00080819181F6019783808786010E5F1F4F21
:1053000027E030E0A801C6011EDCF601E80FF91F16
:10531000F2829C0124503109A80162E8C6010F9075
:105320000F90DF91CF911F910F91FF90DF90CF9061
:105330009ACB80E00F900F90DF91CF911F910F914A
:10534000FF90DF90CF90089540E0A4CFCF92DF92FE
:10535000EF92FF920F931F93CF93DF93CDB7DEB7FA
:105360002C970FB6F894DEBF0FBECDBF7C01FB01BA
:105370006A010381228141816081CE0107960E94EA
:10538000BD3809851A852B853C85F701E157FF4F0C
:1053900002831383248335833896D182C082329767
:1053A00011821082C7012C960FB6F894DEBF0FBE93
:1053B000CDBFDF91CF911F910F91FF90EF90DF90C4
:1053C000CF900895CF92DF92EF92FF920F931F93A9
:1053D000CF93DF9300D01F92CDB7DEB76C01790178
:1053E00081579F4F4B835C8369837A830E94B338D4
:1053F000F601E556FF4F8FEF9FEF918380834B813E
:105400005C8169817A81C601A1DFF601E357FF4F14
:10541000F182E082F60111830083E756FF4F11828B
:1054200010820F900F900F900F90DF91CF911F91EE
:105430000F91FF90EF90DF90CF9008950F9300E0D1
:1054400020E040E060E086E89FE00E94BD380F91D8
:1054500008950895FC0189E29AE2928B818B76830C
:1054600065831482108289E0818381E08283838353
:105470000895CF93DF93EB0167E0CE01A0D991E0CF
:105480002F81821390E0892FDF91CF910895EF92C1
:10549000FF920F931F93CF93DF93EC018B01E42EC8
:1054A0008D819E81C0D8F12C41E0B8018D819E8113
:1054B000EED8882351F0FE1005C0B801CE01D9DF27
:1054C000811104C0F394EF1478F780E0DF91CF915D
:1054D0001F910F91FF90EF900895CF92DF92EF927E
:1054E000FF920F931F93CF93DF931F921F92CDB71D
:1054F000DEB76C01F42EE52EFC018581968169836F
:105500007A830E94F12169817A81882301F1F60171
:10551000858196815FD840E06EEBF60185819681AA
:105520000E948E220F2D1E2D89E0F82EF601858116
:10553000968135D8F80181938F01FA94B9F7F60175
:10554000858196810E94F12191E0813009F090E0FF
:10555000892F0F900F90DF91CF911F910F91FF90A6
:10556000EF90DF90CF900895CF93DF93EA01B5DFFE
:10557000882349F068E0CE0122D991E02885821382
:1055800090E0892F01C080E0DF91CF910895EF92E4
:10559000FF921F93CF93DF931F921F92CDB7DEB779
:1055A0007C01FC018581968169837A830E94F121C7
:1055B00069817A81F701858196810CD840E064EB9E
:1055C000F701858196810E948E22F701858196815F
:1055D0000E946322182FF701858196810E94F12194
:1055E00081E0111180E00F900F90DF91CF911F911A
:1055F000FF90EF900895CF93DF93CDB7DEB7299753
:105600000FB6F894DEBF0FBECDBFFB012081203165
:10561000C9F0AE014F5F5F4FA7DF882379F08D811E
:105620008F3351F020F48F3149F489E00CC08F356D
:1056300039F08F3739F002C08AE005C080E003C03E
:105640008BE001C08CE029960FB6F894DEBF0FBE48
:10565000CDBFDF91CF910895FF920F931F93CF930A
:10566000DF93CDB7DEB728970FB6F894DEBF0FBE35
:10567000CDBF8C01FC01858196810E941323F80126
:10568000148241E0BE016F5F7F4FF80185819681F2
:105690000E944723882369F1BE016F5F7F4FC801D5
:1056A000E8DE882371F3F8018081811107C0BE0113
:1056B0006F5F7F4FC8016BDF811117C0F801F18068
:1056C000BE016F5F7F4FC80196DF8F1518F4F80198
:1056D000818105C0BE016F5F7F4FC8018CDFF8017B
:1056E000818384818F5F8483CCCF81E0F8018083C4
:1056F000E5CF28960FB6F894DEBF0FBECDBFDF9181
:10570000CF911F910F91FF900895CF93DF93CDB765
:10571000DEB729970FB6F894DEBF0FBECDBFAE013E
:105720004F5F5F4FDADE81E09981911101C080E027
:1057300029960FB6F894DEBF0FBECDBFDF91CF9193
:1057400008958F929F92AF92BF92CF92DF92EF9285
:10575000FF920F931F93CF93DF93EC018A0169505F
:10576000633048F4E62FF0E0EE0FFF1FED5CF94FD9
:105770008080918004C09EEE892E92E0992E0115C2
:105780001105F9F08B818823E1F08881811119C01E
:105790000E94B73A6B017C01AA2497FCA094BA2C12
:1057A000B801CE01B2DF81111FC00E94B73A68195B
:1057B00079098A099B096C157D058E059F05A0F462
:1057C000EFCFB401882777FD8095982FDF91CF9197
:1057D0001F910F91FF90EF90DF90CF90BF90AF900F
:1057E0009F908F900C94E63ADF91CF911F910F918B
:1057F000FF90EF90DF90CF90BF90AF909F908F90F1
:105800000895CF93DF93EC018D819E810E94F12159
:105810008D819E810E941023488164E48D819E8148
:105820000E948E228A81882339F040E050E069810D
:10583000CE01DF91CF9185CFDF91CF910895FA010D
:10584000208148E0249F90011124818190E0982FCD
:105850008827990F990F990F282B392BDB018C91F1
:105860008031C1F4678170E08681AB01481B51092A
:10587000CA019695982F8827979587950E94143E80
:1058800060517109207F53E0220F331F5A95E1F7D1
:10589000260F371FC9010895EF92FF920F931F93B0
:1058A000CF93DF93CDB7DEB729970FB6F894DEBF5D
:1058B0000FBECDBF8C017B01AE014F5F5F4F54DE49
:1058C000882339F0AE014F5F5F4FB701C801B7DFE2
:1058D00002C080E894EE29960FB6F894DEBF0FBEA2
:1058E000CDBFDF91CF911F910F91FF90EF90089561
:1058F000813824EE92076CF0BC01882777FD8095F3
:10590000982F0E94FD3C20E030E040E05CE30C94E6
:10591000B13D60E070E08EEF92EC0895BDDFE8CF1E
:105920000F931F93CF93DF93CDB7DEB728970FB6B2
:10593000F894DEBF0FBECDBF8C01462FBE016F5F56
:105940007F4FA5DD882331F0BE016F5F7F4FC80117
:10595000E5DF04C060E070E08EEF92EC28960FB6B1
:10596000F894DEBF0FBECDBFDF91CF911F910F9195
:105970000895DC0115966C93159716964C9316971F
:1059800070E0FB01E25AFD4FE4911796EC931797F4
:10599000FB01EC55FD4F649118966C93189740E805
:1059A0005EE360E070E01D964D935D936D937C9394
:1059B00050970895CF93DF93EC0162E08D810E94B0
:1059C000CA3B40E358EF6FEF7FEF49875A876B87F9
:1059D0007C87DF91CF91089508950895CF93DF9349
:1059E000EC0181E297E0998388838BA19CA10097C9
:1059F00039F0DC01ED91FC910280F381E02D1995E5
:105A00008DA19EA1009739F0DC01ED91FC910280FF
:105A1000F381E02D1995CE010E94F420009739F012
:105A2000DC01ED91FC910280F381E02D1995CE010E
:105A3000DF91CF910C94871DCF93DF93EC01CEDFE4
:105A4000CE01DF91CF910C946C3A1F93CF93DF93EB
:105A5000EC01162F8BA19CA10E941A1D612F8DA114
:105A60009EA1DF91CF911F910C941A1DEF92FF928E
:105A70000F931F93CF93DF93CDB7DEB72C970FB65D
:105A8000F894DEBF0FBECDBF8C017A01CE01079620
:105A90000E942A3AB701CE0101960E942A3A69E390
:105AA00076E0CE0107960E943F3A882329F0B7019D
:105AB000C8010E943F2035C061E576E0CE0107961F
:105AC0000E943F3A882349F0C7010E942141AB015F
:105AD000BC01C8010E94122024C068E776E0CE0114
