:10000000CBC10000FAC10000F8C10000F6C1000039
:10001000F4C10000F2C10000F0C10000EEC1000018
:10002000ECC10000EAC10000E8C10000E6C1000028
:10003000E4C10000E2C10000E0C10000DEC1000038
:10004000DCC10000DAC10000D8C10000D6C1000048
:10005000D4C10000D2C10000D0C100000C94282CF3
:10006000CCC100000C948C290C94C229C6C100009C
:10007000C4C10000C2C10000C0C10000BEC1000078
:10008000BCC10000BAC10000B8C10000B6C1000088
:10009000B4C10000B2C10000B0C10000AEC1000098
:1000A000ACC10000AAC10000A8C10000A6C10000A8
:1000B000A4C10000A2C10000A0C100009EC10000B8
:1000C0009CC100009AC1000098C1000096C10000C8
:1000D00094C1000092C1000090C100008EC10000D8
:1000E0008CC10000D40BEB0B680C520D710D8E0D02
:1000F000960D480D4A2D4D2D3C2D402D462D842D1D
:10010000512D552D5B2D5F2D632D692D6D2D712D7D
:10011000842D772D7B2D7F2D00000A0B02090C0DFD
:100120000E080703040100000000000000000000AA
:1001300000000000000000000000000000000000BF
:10014000000000001211100000000000000000007C
:10015000000000000000000000000000000001029C
:1001600010202008081020401020408002010201C9
:100170000804020101020408102040808040201081
:1001800008040201800402018040201008040201DA
:100190000804020101020408102040800102040842
:1001A000102040800505050507050808080802021B
:1001B00002020A0A08080404040401010101010101
:1001C00001010303030303030303040707070C0CE4
:1001D0000C0C0C0C0C0C02020202060606060606AB
:1001E00006060B0B0B0B0B0B0B0B00002000230068
:1001F000260029002C002F0032000001000003011E
:100200000601090100002200250028002B002E0015
:100210003100340002010000050108010B0100005B
:100220002100240027002A002D00300033000101A6
:100230000000040107010A014E414E494E4954593C
:10024000494E46CDCCCC3D0AD7233C17B7D13877A1
:10025000CC2B329595E6241FB14F0A0000204100B7
:1002600000C84200401C4620BCBE4CCA1B0E5AAE01
:10027000C59D7400407A10F35A00A0724E18090010
:1002800010A5D4E80000E87648170000E40B5402FB
:100290000000CA9A3B000000E1F505000080969836
:1002A00000000040420F000000A086010000001086
:1002B0002700000000E803000000006400000000C8
:1002C000000A00000000000100000000002C76D8A9
:1002D00088DC674F0823DFC1DFAE59E1B1B796E58F
:1002E000E3E453C63AE651997696E8E6C28426EBF3
:1002F000898C9B62ED407C6FFCEFBC9C9F40F2BA06
:10030000A56FA5F490055A2AF75C936B6CF9676D9D
:10031000C11BFCE0E40D47FEF520E6B500D0ED90F2
:100320002E0300943577050080841E080000204EBF
:100330000A000000C80C333333330F986E12831158
:1003400041EF8D2114893BE65516CFFEE6DB18D12F
:10035000844B381BF77C1D901DA4BBE42420328401
:10036000725E228100C9F124ECA1E53D2700A802BC
:10037000C310CE109014F41702180D18A5190A1AFC
:100380003B1AA91A2D1B901BC31EFD1E601FD025F2
:1003900067271328F429842A11241FBECFEFD1E246
:1003A000DEBFCDBF00E00CBF16E0A0E0B2E0E8E6A3
:1003B000FDE600E00BBF02C007900D92AA30B10726
:1003C000D9F72AE0AAE0B6E001C01D92AF3AB20721
:1003D000E1F713E0C8E9D3E000E006C02297010985
:1003E000FE010BBF0E94EC2FCE36D10780E008073C
:1003F000A9F70E941A2C0C94B23602CE23E230E008
:1004000040E050E06FE070E080E090E00E94632BFD
:10041000AB016CE272E08091D9069091DA060E94FD
:10042000991924E630E040E050E068E270E080E0B6
:1004300090E00E94632BAB016BE472E08091D906DF
:100440009091DA060C9499190F931F93CF93DF9331
:1004500000D000D0CDB7DEB726E040E052EC61E03E
:1004600070E08EEF98E00E942C2988E096E09A8355
:1004700089838091ED069091EE06A091EF06B091F0
:10048000F0068B839C83AD83BE83AE014F5F5F4FCD
:100490006EE072E083E998E00E9447178091B4060D
:1004A0009091B506DC01ED91FC910480F581E02D81
:1004B00060E070E019956091D9067091DA0680913C
:1004C000DB069091DC060E94B41A8BE090E00E945B
:1004D000262C8C014091DB065091DC066091B4061D
:1004E0007091B50620E00E9406191093DA06009379
:1004F000D906C8010E942B192EEF31E040E355E7E1
:1005000060E070E08AE096E00E94F11877DF2696BE
:100510000FB6F894DEBF0FBECDBFDF91CF911F9114
:100520000F9108956091D9067091DA068091DB06EB
:100530009091DC060E94B41A882331F08091DB068A
:100540009091DC060E9405238AE096E00C949618B0
:100550000F931F93CF93DF9300E020E040E060E033
:1005600081EF96E00E94782A05E22EEF48EA60ECDF
:100570008BEE96E00E94782A8DED96E00E94C411E1
:100580008DE990E00E94262CEC010DED16E028E0AC
:100590003BE14BE557E06AE072E00E949525D0937D
:1005A000DC06C093DB0669E08BEC96E00E947D1FC1
:1005B0006BEC76E088EB96E00E94DB258091DB0611
:1005C0009091DC060E94F5279093B5068093B406BF
:1005D0008AE096E0DF91CF911F910F910C946518FE
:1005E000882381F08F3F29F48091F9069091FA06D3
:1005F000089595E0899FF0011124E250F94F82811E
:100600009381089580E090E00895CF93DF93D82FF1
:10061000C62F60E085E30E94BE2D9C2F9F719D2B0D
:100620009EBD0DB407FEFDCF1EBC0DB407FEFDCF71
:10063000C7FD08C061E085E30E94BE2D8EB5DF9145
:10064000CF9108951EBC0DB407FEFDCFF3CF0F93DD
:100650001F93CF93DF931F92CDB7DEB7182F062FCE
:1006600060E085E349830E94BE2D602F6F71612B8E
:100670006EBD49810DB407FEFDCF4EBD0DB407FE22
:10068000FDCF61E085E30F90DF91CF911F910F9136
:100690000C94BE2D0F931F93CF93DF938C01EB012E
:1006A00060E085E30E94BE2D8AE38EBD0DB407FE97
:1006B000FDCF0C0F1D1FC017D10739F01EBC0DB4A4
:1006C00007FEFDCF8EB58993F6CF61E085E3DF911C
:1006D000CF911F910F910C94BE2D0F931F93CF9329
:1006E000DF938C01EB0160E085E30E94BE2D8AE779
:1006F0008EBD0DB407FEFDCF0C0F1D1FC017D10717
:1007000031F089918EBD0DB407FEFDCFF7CF61E0CA
:1007100085E3DF91CF911F910F910C94BE2D1F9314
:10072000CF93DF93182F1076C12FD0E020911402C1
:1007300030E0C217D30779F043E06FE180EA87DF4A
:10074000AE0185E0559547958A95E1F76FE180E820
:100750007EDF10931402DF91CF911F910895CF9304
:10076000DF931F92CDB7DEB7682F6983D8DF698129
:1007700080E00F90DF91CF9148CF1F93CF93DF930D
:100780001F92CDB7DEB7182F6983C9DF4981612F6A
:1007900080E40F90DF91CF911F9159CF1F93CF939A
:1007A000DF931F921F92CDB7DEB7182F69837A832C
:1007B000B6DF4981612F80E44ADF61E0610F7A8111
:1007C000472F80E40F900F90DF91CF911F913FCF83
:1007D0006091FC067091FD066115710519F061507C
:1007E000710902C06FEF77E08CE0D8CFF1CFFF92B4
:1007F0000F931F93CF93DF9389E3B1DF882309F42D
:1008000044C06091FC067091FD06EB012696C1156F
:1008100088E0D80710F0CF5FD74080E0BFDF60E00E
:100820008AE3F3DE90E09093FD068093FC0660E09F
:100830008AE3EBDE2091FC063091FD06382B3093E5
:10084000FD062093FC0660E08AE3DFDE082F60E00F
:100850008AE3DBDE182F60E08AE3D7DEF82E40E47F
:100860006EE180E8F4DEF7FE0FC0D093F806C09387
:10087000F706202F30E0312B245031093093FA064F
:100880002093F9068FEF02C0A3DF80E0DF91CF91C4
:100890001F910F91FF900895EF92FF920F931F9376
:1008A000CF93DF938B017A018F3FC1F025E0829FC8
:1008B000E0011124C250D94F02C0C7EFD6E06881D1
:1008C0007981600F711F80E069DF8A819B81801BC5
:1008D000910BE816F90690F4C70110C08091F70655
:1008E0009091F806860F971F811528E0920728F34C
:1008F000BC016F5F7740C7EFD6E0E5CFDF91CF91C6
:100900001F910F91FF90EF9008950F931F93CF9336
:10091000DF938A01A901C0DFEC01B801BBDECE0183
:10092000DF91CF911F910F910895CF92DF92EF92B7
:10093000FF920F931F93CF93DF938B016A0179018D
:1009400095E0899FE0011124C250D94F68817981D7
:10095000600F711F82E022DF0A80DB81C02DC01B87
:10096000D10BEC16FD0608F4E701B601CE01B5DEA9
:10097000CE01DF91CF911F910F91FF90EF90DF900B
:10098000CF900895BC0180E009DF60E085E30E941C
:10099000BE2D8AE38EBD0DB407FEFDCF1EBC0DB487
:1009A00007FEFDCF61E085E30E94BE2D8EB5089560
:1009B000CF93C62FBC0182E0F1DE60E085E30E94A8
:1009C000BE2D8AE78EBD0DB407FEFDCFCEBD0DB4A2
:1009D00007FEFDCF61E085E3CF910C94BE2DFF9221
:1009E0000F931F93CF93DF9395E0899FF00111241C
:1009F000E250F94FC081D1812197028113810C0F00
:100A00001D1FCE01BFDFF82E882319F060E0CE0154
:100A1000CFDFBE0184E0C2DEB80186E0BFDE48E081
:100A20006FE180E814DE8CE19ADE81FF04C048E0CB
:100A30006FE180EA0CDEFF2041F06F2DCE01DF91E7
:100A4000CF911F910F91FF90B3CFDF91CF911F9165
:100A50000F91FF900895CF92DF92EF92FF920F9344
:100A60001F93CF93DF937C01EB014130510569F473
:100A7000CB0188DF682FC701DF91CF911F910F91C4
:100A8000FF90EF90DF90CF9093CF6A01C60ED71EF4
:100A900086010150110980E181DEB70184E17EDE2B
:100AA000C115D84030F4011588E0180710F00F5F29
:100AB0001740B80182E172DE40E16FE180EAC7DDF4
:100AC00040E26FE180E8C3DD6FE180E09EDD85FDFF
:100AD000FBCFDF91CF911F910F91FF90EF90DF90AF
:100AE000CF9008950F931F93CF93DF93EB01E5E031
:100AF000E89FD0011124A250B94F4F3FB9F0E49FB5
:100B0000F0011124E250F94F02C0E7EFF6E06081F6
:100B10007181620F731F8D919C91A8018C0F9D1F95
:100B20009ADFDF91CF911F910F9152CEE091F7069E
:100B3000F091F806E20FF31FE11588E0F80728F3BB
:100B4000BF016F5F7740E7CFCF93DF93EB01682F53
:100B500084ED13DEBE0186ED21DE8AEE00DE80FF2D
:100B600005C08FE090E00E94C62CF7CFDF91CF91B7
:100B70000895CF93DF93EC01D0D061E085E30E942C
:100B8000852D61E085E30E94BE2D61E083E30E9434
:100B9000852D61E084E30E94852D60E082E30E9460
:100BA000852D61E085E30E94852D60E083E30E944E
:100BB000BE2D60E084E30E94BE2D80E58CBD8DB526
:100BC00081608DBD4FEF60E08FEF41DD62E370E04B
:100BD00080E090E00E94A12C1092FD061092FC068D
:100BE00060E070E088E0DADD60E070E08CE0D6DDA7
:100BF0006FEF77E08AE0D2DD61EB88E3BEDD6FE383
:100C000070E388E2CBDD69EF77EF80E3C7DD6DE06D
:100C100070E080ECC3DD42E362EC80E818DD62E165
:100C20007CE086ECBBDD62E184ECA7DD6CED75E079
:100C30008AECB4DD688184EEA0DD698185EE9DDDFE
:100C40006A8182EE9ADD6B8183EE97DD6C8180EEA6
:100C500094DD6D8181EE91DD60E071E080E174DF13
:100C60008FE15DDD40EC6BE180E8F1DC44E06FE1B9
:100C700080E8EDDC66E774E084E1DF91CF9164CF3A
:100C80000F931F93CF93DF93EC01862FBA01A90135
:100C900003DE8C010150110960E085E30E94BE2D46
:100CA0008AE38EBD0DB407FEFDCF20E030E02017B3
:100CB0003107C0F41EBC0DB407FEFDCF8EB590E029
:100CC000982F88271EBC0DB407FEFDCF4EB5840FAC
:100CD000911DC80FD91FC817D90708F421962E5F98
:100CE0003F4FE5CF2017310771F41EBC0DB407FE4E
:100CF000FDCF8EB590E0982F8827C80FD91FC81751
:100D0000D90708F4219661E085E30E94BE2DCE014B
:100D1000DF91CF911F910F910895EEEFF6E08DECEA
:100D2000DF011D928A95E9F781E098E09183808345
:100D30000895DF92EF92FF920F931F93CF93DF936B
:100D40007C014091FE065091FF064150584E80E0D4
:100D500098E1EEEFF6E000E0C0E0D0E025E0D22E32
:100D60001481112341F0D19ED0011124A250B94F1A
:100D70002D913C9101C09A0160817181261B370B36
:100D800062817381261B370B2E153F0539F485E0F0
:100D9000089FE0011124C250D94F48C0E216F30663
:100DA00048F42817390730F4D09EE0011124C250CE
:100DB000D94FC901111107C02097C1F5CEEFD6E078
:100DC00085E0D82E1DC0D19EF0011124E250F94FCC
:100DD000012FC6CF0A811B8188819981080F191FB5
:100DE000D29EE0011124C250D94F68817981061743
:100DF000170731F04A815B81C8012DDE1983088312
:100E00002C812111E7CF2091FE063091FF068881C9
:100E10009981281B390B8A819B81281B390B215012
:100E2000384E2E153F0510F480E019C0E3E0F7E0DE
:100E300081E022813381232B29F035968F5F89321F
:100E4000C1F7F2CF2A813B8148815981240F351F98
:100E500031832083F382E2829C8194838C83DF91AF
:100E6000CF911F910F91FF90EF90DF90089588230D
:100E7000F9F0EEEFF6E025E09481981311C095E0CB
:100E8000899FD0011124A250B94F14968C911497C8
:100E9000848313961C921E92129714961C920895A6
:100EA000992331F0299FF0011124E250F94FE4CF4A
:100EB000089595E0899FF0011124E250F94F808157
:100EC0009181860F971F9183808382819381861BF6
:100ED000970B93838283089595E0899FF0011124F5
:100EE000E250F94F80819181860F971F9183808313
:100EF000538342830895FC015381560F5093B109E7
:100F0000872F99274281480F4093B009A181A09370
:100F1000AF09E081E093AE09242F30E028173907AC
:100F200048F481E08A0F8093AF09811103C0EF5F1D
:100F3000E093AE09852F90E077278617970788F40E
:100F40004F5F4093B00941110CC08091AF098F5F92
:100F50008093AF09811105C08091AE098F5F8093A6
:100F6000AE0908952091B5093091B609BC01C901B7
:100F70000896C1DFE091B509F091B6098091AE09FC
:100F800080878091AF0981878091B00982878091A5
:100F9000B1098387089580E0E82FF0E0EE0FFF1F8E
:100FA000E15DF54F118210828F5F8430A8F380E0FD
:100FB0009EE1989FF0011124E954F64F118E8F5F46
:100FC0008430B8F38093CE0780E094E09093D0070C
:100FD0008093CF070895CF932091CF073091D0070A
:100FE0002F5F3F4F21154DE7340710F020E030E12F
:100FF000522F432FE7EBF9E0C0E0C43059F0A18D48
:10100000AA2329F0A481B581A417B50749F3CF5FBE
:101010007E96F3CF3093D0072093CF071092CE0760
:1010200020E0E0E0F0E04EE12430E0F4429FD00127
:101030001124A954B64F59963C915997311104C0C7
:101040002093CE07FD0110C0373041F4309739F0BE
:101050005A965C915A97328D351708F0DF012F5F51
:10106000FD01E2CF2093CE073097B1F122E0218F2E
:101070002091D10724872091D20725872091D3077B
:1010800026872091D407278720E032E0338B228BFC
:10109000358B248B21E030E0318B208B138E228F17
:1010A00023E0208F168A20E1278B2091CF073091F3
:1010B000D00732272327322735832483778366831B
:1010C000DC012D913C9111973183208312968D91F3
:1010D0009C91139793838283CF01CF9108951F939F
:1010E000CF93DF93C091B509D091B60929E73AE0D3
:1010F0003093B4092093B3093093AD092093AC0920
:10110000833059F4898D8F70833009F0A9C588899F
:101110009989892B09F0A4C57FC0823009F080C06D
:101120008091D4078F5F8093D407811113C0809181
:10113000D3078F5F8093D30781110CC08091D207B2
:101140008F5F8093D207811105C08091D1078F5F97
:101150008093D1071092AB091092AA091092A80AA5
:101160001092A70A298D822F8D7F853041F48A8DB8
:101170008F5F8A8F883709F073C5198E71C5222356
:1011800009F46EC588899989892B09F441C08A8D33
:101190009FEF980F9A8F811163C58B8D883031F046
:1011A0009FEF920F923048F4853039F4198E80E821
:1011B0008093B2090E94861312C4853038F493E0FC
:1011C000082E01C0990F0A94EAF701C090E39A8FA4
:1011D0008F5F8B8F822F8F708330A1F048F4813026
:1011E00009F42FC2823009F03BC51092720A2CC25A
:1011F000863009F495C3883009F492C3843009F02D
:101200002FC58EC384E08093B2090E94861319C44F
:101210002F70233009F024C588E08093B209D5C32C
:101220008091510A853409F01BC58091530A90E0E2
:10123000982F88272091540A820F911D2091AA0986
:101240003091AB092817390708F40AC59093AB0908
:101250008093AA098091570A8F7309F001C5809184
:10126000580A8111FDC480913F0A9091400A00976D
:1012700031F42091410A3091420A232BA1F02091B0
:10128000610A3091620A2817390709F0E9C42091F0
:10129000630A3091640A8091410A9091420A2817AA
:1012A000390709F0DDC40E94F317019609F0D8C48C
:1012B00080915A0A8630D1F1813009F0D1C48091F1
:1012C000650A883009F0CCC41092650A8091670ADB
:1012D0009091680A873FAFEF9A0710F0099601C016
:1012E00008969093680A8093670A80915D0A9091AE
:1012F0005E0A9093620A8093610A80915F0A9091DE
:10130000600A9093640A8093630A80913F0A9091E7
:10131000400A90935E0A80935D0A8091410A909101
:10132000420A9093600A80935F0A9EC40E94B71796
:10133000019609F095C48091670A9091680A2091FE
:10134000650A3091660A40915D0A50915E0A60918B
:101350005F0A7091600AE0EDF9E0C7EBD9E0108117
:101360001123A9F0AC81BD818A179B0781F4AE815E
:10137000BF812A173B0759F4A881B9814A175B0737
:1013800031F4AA81BB816A177B0709F474C16E9698
:101390007E96AAE0CF32DA0711F72091720A2F73F6
:1013A0002230E1F49093CC078093CB0740E04430A7
:1013B00098F4E42FF0E0EE0FFF1FE15DF54F208180
:1013C00031814F5F8217930791F71092CE0720E08B
:1013D000C0E0D0E03EE17EC04093CE078091720A2B
:1013E00082FD3EC484E18093720A88E290E090938B
:1013F000AB098093AA0980E58093710A80916C0AF9
:101400009091700A90936C0A30916B0A90916F0AD8
:1014100090936B0A30936F0A20916A0A90916E0A3A
:1014200090936A0A20936E0A9091690A9093CE076E
:1014300040916D0A4093690A90936D0A8F5F809383
:10144000700A81110FC081E0830F80936F0A8111B0
:1014500009C081E0820F80936E0A811103C09F5FF3
:1014600090936D0A8091650A9091660A9093CC07DB
:101470008093CB072091670A3091680A3093660AFF
:101480002093650A9093680A8093670A80915D0AA9
:1014900090915E0A9093620A8093610A80915F0A3C
:1014A0009091600A9093640A8093630A80913F0A46
:1014B0009091400A90935E0A80935D0A8091410A60
:1014C0009091420A9093600A80935F0A8BC34730E1
:1014D00099F02F5F2430F0F4822F90E0389FF001D4
:1014E000399FF00D1124E954F64F418D4111EFCF92
:1014F0002093CE07EF0110C0209721F0528D4A8D26
:10150000451738F7389FE001399FD00D1124C95491
:10151000D64FDFCF2093CE07209709F4A1C3D093F5
:10152000B609C093B50983E08A8F888F1E8A84E04C
:101530008F8B1B8E8091670A9091680A9D838C83A4
:101540008091650A9091660A9F838E8380915D0ADF
:1015500090915E0A9983888380915F0A9091600AD6
:101560009B838A8381E0898F8091D1078C878091CA
:10157000D2078D878091D3078E878091D4078F877C
:1015800081E090E0998B888B80916C0A8B878091A9
:101590006B0A8A8780916A0A89878091690A88879D
:1015A00081E090E0DFDC8091710A282F207F30E01D
:1015B000213531050CF445C082958F7090E0059778
:1015C000880F991F880F991F3091CD0720E0E22FD7
:1015D000F0E0E817F9078CF5ED5BF54F36A931110E
:1015E00005C02093CE071092CD072BC0313011F4E7
:1015F0002F5FEDCF3230E1F447A94430C9F4209396
:10160000CE073093CD0780AD90E0982F882721AD8D
:10161000822B9093CC078093CB07813022E09207F6
:1016200010F080E092E09B8B8A8B9D8B8C8B09C0A5
:1016300047A9442311F0240FCACF2093CE0730933B
:10164000CD0780E18093720A8091720A8260809354
:10165000720A82E08093790A94E090937A0A8093E8
:101660007B0A10927C0A8CE290E09093AB09809305
:10167000AA0980E665C2D093B609C093B509109255
:10168000B2093091720A32FF03C0198E80E206C29D
:101690002091710A22952F70220F220F2093CE07DE
:1016A0008091AA099091AB094497821B910990936C
:1016B000AB098093AA091F70123021F4232F2F73D6
:1016C0002231C9F0892B19F4832F8370A1F09091F6
:1016D000690A888598132AC290916A0A89859813A5
:1016E00025C290916B0A8A85981320C290916C0A4A
:1016F0008B8598131BC234FF49C0688979896115AD
:10170000710509F443C0CE010C96F5DB30916D0AEA
:101710008091AE0938133AC020916E0A8091AF09CA
:10172000281334C090916F0A8091B00998132EC08D
:101730008091700A4091B109841328C03C872D879D
:101740009E878F878B8D81111AC02E89888D9A8DE7
:10175000891B922F969596959695891B280F2E8B0F
:1017600087FD81959F89392F36953695931B980F64
:101770009F8B822F869586958695890F888F81E02D
:101780008093B209888D8A8F198A188A498D842F8F
:101790008F7090E0FC013197E830F10508F060C2ED
:1017A000EE58FF4F0C94DC2F8091B20980FF58C295
:1017B00083E0898F80E48093B209198A188A809126
:1017C000AA099091AB09009709F4FBC022E4209389
:1017D000B209C8DBF6C08091B20980FF6FC080916A
:1017E000720A8F73823109F069C08091710A282FC3
:1017F000207F30E0213531050CF445C082958F7093
:1018000090E00597880F991F880F991F3091CD0799
:1018100020E0E22FF0E0E817F9078CF5ED5BF54FDB
:1018200036A9311105C02093CE071092CD072BC0E9
:10183000313011F42F5FEDCF3230E1F447A944305D
:10184000C9F42093CE073093CD0780AD90E0982F58
:10185000882721AD822B9093CC078093CB078130D2
:10186000A2E09A0710F080E092E09B8B8A8B9D8B20
:101870008C8B09C047A9442311F0240FCACF2093B1
:10188000CE073093CD0783E0898F8091690A8887DE
:1018900080916A0A898780916B0A8A8780916C0A95
:1018A0008B8781E090E05EDB82E48093B209198A45
:1018B000188A1092AB091092AA0983C080E2809323
:1018C000B20924D7E091B509F091B609118E86CD01
:1018D0008091720A80FF26C044FD24C088899989BE
:1018E000892B09F0BDC18091AA099091AB0901969D
:1018F00039DB2091B209822F80618093B2098091F7
:10190000AA099091AB09892B19F022612093B209A1
:10191000FDD681E090E0998B888B88E0898F1B8EC3
:1019200081E105C185FF1CC08091770A90E0982F66
:1019300088272091780A822B2091B3093091B4092D
:10194000280F391F3093B4092093B3092091AA09B5
:101950003091AB09281B390B3093AB092093AA09AE
:101960008091AA099091AB09009741F044FD06C00F
:101970002091B20922602093B209F4DA8091730AAF
:1019800090E0982F88272091740A820F911D9093E0
:10199000CC078093CB072C893D892817390710F095
:1019A000892B21F43093CC072093CB078091CB0770
:1019B0009091CC079B8B8A8B8091B209837009F43C
:1019C0004FC11092A80A1092A70AA0D68091B2091E
:1019D00085FF07C01092A80A1092A70A198E84E109
:1019E000A6C084FF0AC01092A80A1092A70A81E03C
:1019F00090E0998B888B84E091CF2091A70A309159
:101A0000A80A21153105E1F080FF02C0198A188A61
:101A100088899989009781F48A899B89821793071D
:101A200020F49093A80A8093A70A8091A70A909126
:101A3000A80A998B888B04C09093A80A8093A70A60
:101A40001B8E8091AC099091AD099093B40980935D
:101A5000B3098091A70A9091A80A892B59F0888927
:101A60009989009739F088969093AB098093AA09D9
:101A700088E10BC08091B20981FFF2C088E290E05A
:101A80009093AB098093AA0980E18093720A57C0B2
:101A90008091B20980FFE4C0198E80E18093B20981
:101AA00035D6DEC08091AA099091AB09009709F064
:101AB00059DA9091720A8091B20990FF0BC080FFB1
:101AC00006C087E0898F1A8E198A188A18C086E0A6
:101AD000898F15C080FF1BC085E0898F198A188AFD
:101AE000BFC08091AA099091AB09009709F03ADA3A
:101AF0008091720A80FF0BC087E0898F1A8E81E087
:101B000090E030DA80E18093B20900D60FC0809176
:101B1000AA099091AB09892B49F4A2C08091B2091E
:101B200080FF9EC087E0898F1A8E9AC080E18093E3
:101B3000720A88E290E09093AB098093AA0980E54D
:101B40008093710A888580936D0A898580936E0AD7
:101B50008A8580936F0A8B858093700A8C85809329
:101B6000690A8D8580936A0A8E8580936B0A8F85BA
:101B700080936C0A86E080935A0A8C819D819093B1
:101B8000660A8093650A8E819F819093680A80938C
:101B9000670A80913F0A9091400A90935E0A809371
:101BA0005D0A8091410A9091420A9093600A809365
:101BB0005F0A888199819093620A8093610A8A8181
:101BC0009B819093640A8093630A898D84FF05C08A
:101BD0001092740A1092730A05C082E08093730A0F
:101BE0001092740A80E48093590A8091AA09909116
:101BF000AB099093530A8093540A1092780A10927A
:101C0000770A1092760A1092750A0E94B71780958B
:101C100090959093760A8093750A85E48093510A93
:101C20001092520A1092580A1092570A8091D507C2
:101C30009091D60701969093D6078093D5079093FD
:101C4000550A8093560A10925C0A10925B0A0E9411
:101C5000F3178095909590935C0A80935B0A04C07B
:101C60001092AB091092AA091092B209DF91CF919C
:101C70001F91089598278927982708959C01AB0103
:101C80007093A80A6093A70A1616170654F4809159
:101C9000AC099091AD092817390719F0B9010C94D6
:101CA000AC320895FF920F931F93CF93DF93DC0123
:101CB000FB011092E00760E07BE0683010F5769F52
:101CC000E0011124CB51D84F2881398121153105EC
:101CD000B1F08A819B81009791F04D915C911197B1
:101CE0004217530761F412962D913C9113972817D0
:101CF000390729F46093E007DE0114964FC06F5F47
:101D0000DCCF20E03BE0283090F4329FE00111244A
:101D1000CB51D84F88819981892B39F48A819B8155
:101D2000892B19F42093E00730C02F5FECCF20936C
:101D3000E007283051F50091DE07802F90E010E099
:101D400070E060E02BE0F22E683098F4F69EE0013F
:101D50001124CB51D84FCA85AC014C1B5109212FFE
:101D600030E0241735071CF4762F102F1C1B6F5FF3
:101D7000EBCF1093DD077093DF077093E0078BE0E4
:101D8000789FE0011124CB51D84F4D915D916D9119
:101D90007C91DE014D935D936D937D9386E0019080
:101DA0000D928A95E1F78091DE078A87DF91CF91C6
:101DB0001F910F91FF9008951092E0079BE0809192
:101DC000E007883068F4989FF0011124EB51F84F38
:101DD00010821182128213828F5F8093E007EFCF0F
:101DE00008958091AA099091AB090E979093AB0941
:101DF0008093AA0980913F0A9091400A20915D0A40
:101E000030915E0A8227932720913B0A30913C0A49
:101E100082239323892BB9F48091410A9091420A3D
:101E200020915F0A3091600A8227932720913D0A12
:101E300030913E0A82239323892B29F469E47AE0C6
:101E40008DE59AE02FCF08958091AA099091AB0972
:101E50001092AB091092AA098A9708F4089580910C
:101E6000570A9091580A811521E0920729F08115AF
:101E7000924009F475C008952091690A30916A0A68
:101E800080913F0A9091400A2817390709F083C0D2
:101E900020916B0A30916C0A8091410A9091420A1C
:101EA0002817390709F077C069E57AE08FE59AE0ED
:101EB000F9DE80E092E09093580A8093570A86E01A
:101EC000E9E5FAE0A3E6BAE001900D928A95E1F720
:101ED00086E0E7EDF7E0A9E5BAE001900D928A957A
:101EE000E1F786E0E7EDF7E0A9E4BAE001900D92B2
:101EF0008A95E1F786E0E3E6FAE0A3E4BAE0019030
:101F00000D928A95E1F780915F0A9091600A909313
:101F10006A0A8093690A8091610A9091620A90939B
:101F20006C0A80936B0A80913F0A9091400A9093CB
:101F3000600A80935F0A8091410A9091420A9093CF
:101F4000620A8093610A88E096E09093500A809339
:101F50004F0A8AE290E09093AB098093AA09089512
:101F60002091690A30916A0A80913F0A9091400A53
:101F70002817390781F420916B0A30916C0A8091FF
:101F8000410A9091420A2817390729F469E57AE055
:101F90008FE59AE087CE08952091610A3091620A18
:101FA0002F3F4FEF340751F48091630A9091640AF8
:101FB000019621F486E0E7E6F2E0C6C080913F0A90
:101FC0009091400A8227932740913B0A50913C0A06
:101FD00084239523892B91F44091630A5091640ADC
:101FE0008091410A9091420A8427952760913D0A89
:101FF00070913E0A86239723892B89F08091370AB6
:102000009091380A9093E2078093E1078091390A12
:1020100090913A0A9093E4078093E30708C03093C5
:10202000E2072093E1075093E4074093E307809190
:10203000E1079091E2072091E3073091E40760E027
:102040007BE0683090F4769FF0011124EB51F84F5B
:10205000408151818417950731F4428153812417BF
:10206000350709F46DC06F5FECCF6093E00768300F
:1020700009F068C046E050E06FEF70E083E49AE05A
:102080000E94B53226E0E3E6FAE0DF01422F1D921E
:102090004A95E9F7E7EDF7E0A9E4BAE0822F01906D
:1020A0000D928A95E1F7E7EDF7E0A9E5BAE0822F16
:1020B00001900D928A95E1F78091E1079091E207F6
:1020C00090936A0A8093690A8091E3079091E407EC
:1020D00090936C0A80936B0A80913F0A9091400A1A
:1020E0009093600A80935F0A8091410A9091420A1E
:1020F0009093620A8093610A80E091E09093580A7D
:102100008093570A9093520A8093510A88E090E096
:102110009093540A8093530A2093550A84E0809345
:10212000560A88E096E09093500A80934F0A89E718
:102130009AE09093B4098093B3098AE290E01EC0BC
:102140006093E007349686E0A3E4BAE001900D9234
:102150008A95E1F786E0E7EDF7E0A9E4BAE00190BF
:102160000D928A95E1F788E090E09093500A809371
:102170004F0A8091AA099091AB090E969093AB09F2
:102180008093AA0908950F9300E020E040E060E00A
:102190008DE398E00E94782A0F9108950F9300E054
:1021A00020E040E060E083E498E00E94782A0F910C
:1021B0000895DC01ED91FC91008CF18DE02D1995D5
:1021C00091E08927089580E090E00895DC011C9655
:1021D000ED91FC911D97309741F08181882311F09A
:1021E00081E00895808184FDFBCF80E00895FC01AB
:1021F000448555854115510551F0FB0124853585F0
:102200002115310521F081E04217530709F080E0E4
:102210000895CF93DF931F92CDB7DEB7DC01ED9128
:10222000FC910088F189E02D41E050E0BE016F5F34
:102230007F4F199597FD03C0898190E002C08FEF11
:102240009FEF0F90DF91CF910895CF93DF93EC0133
:10225000A9D3EC85FD85309749F0808186FD02C0C9
:1022600081E005C08181882311F0FACF80E0DF9101
:10227000CF910895CF92DF92EF92FF920F931F9329
:10228000CF93DF9300D01F92CDB7DEB77C018B01D7
:102290006A01DC01ED91FC910288F389E02D19952A
:1022A000F801228130E0322F22278381282B322728
:1022B000232732273A832983248130E0322F2227B3
:1022C0008581282B3227232732273C832B83C60185
:1022D000D1DCBC01CE0101960E94EB078C01009776
:1022E00019F480E090E016C0D80159968C918F7057
:1022F000C1F358D3D80159968C9159978F70833078
:1023000099F75C968D919C915D97F70195878487ED
:1023100081E090E00F900F900F900F90DF91CF91A0
:102320001F910F91FF90EF90DF90CF9008950F9342
:102330001F93CF93DF931F92CDB7DEB78C01DC01E3
:10234000ED91FC910688F789E02D19958823A1F07D
:10235000D8011C96ED91FC911D978181882361F035
:1023600021E030E0AE014F5F5F4F60E070E00E941F
:102370008504898190E002C08FEF9FEF0F90DF917D
:10238000CF911F910F910895FC011382128248EEA4
:1023900053E060E070E0448355836683778381E790
:1023A00092E091838083158614860895EF92FF92C0
:1023B0000F931F93CF93DF937C01C0E0D0E000E048
:1023C00010E0F701EC0FFD1F81810E94F002080F61
:1023D000191F2196C530D105A1F7C801DF91CF9112
:1023E0001F910F91FF90EF900895CF93DF93EC0131
:1023F000E881F9810688F789E02D1995882329F06D
:102400008C859D85DF91CF91D1CF80E090E0DF91E9
:10241000CF910895CF93DF93E9E4F8E080E09081D5
:1024200091110AC08061DF018D9380E1ED01199265
:102430008A95E9F7CF0106C08F5F7196843079F7EE
:1024400080E090E0DF91CF910895FC01319681E02A
:102450009191911102C0815008958F5F8530C1F72D
:1024600084E008959F92AF92BF92CF92DF92EF9255
:10247000FF920F931F93CF93DF93EC016B017A01CF
:102480008A015C0186E0A80EB11C8CD2209709F469
:1024900045C08881807609F041C0C501D6DF982EFD
:1024A000FE01E80FF11D868181110CC080E092E0F1
:1024B0000E949906FE01E90DF11D8683882329F308
:1024C0001C861B86A701401B510B4C0D5D1D6B85A7
:1024D0007C859801FE01E90DF11D86810E9495041D
:1024E000081B190B2B853C85280F391F3C872B8730
:1024F000101611062CF484E0981639F29394D6CF76
:102500000E94722C665F7F4F8F4F9F4F6D877E8733
:102510008F87988BC701801B910B02C08FEF9FEFB5
:10252000DF91CF911F910F91FF90EF90DF90CF90AF
:10253000BF90AF909F900895CF93DF931F92CDB738
:10254000DEB7698341E050E0BE016F5F7F4FFC0161
:102550008485958587DF0F90DF91CF910895FC01E9
:10256000848595857FCF0F931F93CF93DF938C0145
:10257000EC0189910E943707F801C801049629915E
:102580002193E817F907D9F7F8011482DF91CF9169
:102590001F910F9108959F92AF92BF92CF92DF92B9
:1025A000EF92FF920F931F93CF93DF93EC015B01A8
:1025B0007A01E881F9810688F789E02D1995882349
:1025C00009F455C0EC85FD858181882309F452C04A
:1025D00087012EE1922EA701401B510B4A0D5B1D76
:1025E000EC85FD85980160E070E081810E948504A2
:1025F0006C01EC85FD8581810E94F002EC85FD85F2
:10260000C816D90649F50C191D09CF010196ABDF93
:10261000AC85BD852C91822F90E08F70989EF00143
:10262000999EF00D1124E954F64F818D84FF05C069
:10263000822F807611F420682C93EC85FD858181B2
:1026400081110FC0808186FF03C010821D861C8609
:10265000C701801B910B10C0B60181810E945907F0
:1026600004C00115110509F0B6CFC70105C08FEFF1
:102670009FEF02C080E090E0DF91CF911F910F911A
:10268000FF90EF90DF90CF90BF90AF909F90089514
:102690001F93CF93DF93EC0115E088810E943707E9
:1026A00019921150D1F7DF91CF911F910895CF93D7
:1026B000DF93EC018C859D85009779F0FC012081EA
:1026C000222359F00196E4DFEC85FD85808186FFA9
:1026D00002C0108202C0806280831D861C86DF914A
:1026E000CF9160C1CF93DF93EC01E881F981068837
:1026F000F789E02D1995882331F08C859D85019609
:10270000DF91CF91C5CFDF91CF910895DF92EF9206
:10271000FF920F931F93CF93DF93E091B509F09150
:10272000B609C48DD58D209779F48091B20986FFC2
:1027300043C070DEEC01009709F43EC0E091B5099A
:10274000F091B609958F848F8091B20981FF07C0FF
:102750008091AA099091AB09892B09F041C0888129
:1027600087FF0EC08F7788838091B2098260809343
:10277000B209E091B509F091B609818D8F7E818F04
:102780008091B20984FF6BC0CE01069681DF8981FA
:10279000882309F467C0E091B509F091B6098481F6
:1027A00095819F838E83888180648883E091B509B9
:1027B000F091B609158E148EE12CF12CB7018091A1
:1027C000B3099091B4095ADAF092AB09E092AA09E0
:1027D000DF91CF911F910F91FF90EF90DF900895BF
:1027E0008881807609F0BBCFE12CF12C8E010E0D93
:1027F0001F1DF801818181111EC08091AA0990914D
:10280000AB090E949906F80181838823A1F0009109
:10281000AA091091AB092091B3093091B40923544E
:102820003A404091A10860E070E00E947205F4E037
:10283000EF1295CF0CC02FEFE21AF20A35E0E31643
:10284000F104A1F680919E088E7F80939E08E0910E
:10285000B509F091B609818D8061818F80CF87FFA6
:1028600003C092CF1882A2CF80FF03C0CE0106968C
:102870007ADE8091B2098C70D1F18E818823B9F112
:102880009F8191110CC0EB84FC84E114F10409F4E4
:1028900093CFA70160E070E00E946C0706C00E9421
:1028A000F0027C01009709F487CF8091B3099091E1
:1028B000B40983549A4080939F08F701E80FF11DF3
:1028C000CF010E9499068093A008882309F476CF4F
:1028D00060919F0870E0870120E030E04E810E9407
:1028E000720580919E08826080939E0867CF8881E0
:1028F00085FF62CF8E8181110BC01882E091B509EE
:10290000F091B609158E148E80E18093B20954CFF0
:10291000E091B509F091B609818D8061818F4CCF2E
:102920000F9300E020E040E060E08DE898E00E9436
:10293000782A0F91089580919E0881FF11C02091FF
:102940009F0830E043E45AE060E070E08091A00826
:102950000E94950480919E088D7F80939E0814C0EC
:102960008091AA099091AB090E9499068093A008D2
:102970008823B1F02091AA093091AB0943E45AE0D1
:1029800060E070E00E9495048091A0080E94EF042E
:102990008091A0080E9437071092A00881E0089556
:1029A00080E00895CF92DF92EF92FF921F93CF9332
:1029B000DF938091A108811104C00E94F7038093E6
:1029C000A1088091A108882309F443C091E0909365
:1029D0009E080E94F0029093AB098093AA09892B6C
:1029E00061F122E630E043E45AE060E070E080917B
:1029F000A1080E94850480914F0A9091500A883066
:102A0000910581F48091A1088093A008EAD981E022
:102A10000E946F088091AA099091AB09892B69F0F7
:102A2000BBDA0AC08830964041F40EDA8091AA09D8
:102A30009091AB09892B09F07EDF8091A108882352
:102A400041F080919E0880FF04C00E94F60310921E
:102A5000A1080E94722C6B017C01809194089091D6
:102A60009508A0919608B0919708A7019601281B98
:102A7000390B4A0B5B0BDA01C90180959095A09543
:102A8000B0958827B7FD83959927AA27BB27182FCC
:102A9000C7EBD9E0D093B609C093B509112311F063
:102AA00082E00FC0EC8DFD8D458556856785708968
:102AB000D701C601841B950BA60BB70BB7FD0BC046
:102AC00083E00E946F082091AA093091AB09232B63
:102AD00011F062DA30DF6E969AE0CF32D907D1F684
:102AE000112369F0AAEFCA0ED11CE11CF11CC0929F
:102AF0009408D0929508E0929608F0929708DF919A
:102B0000CF911F91FF90EF90DF90CF900895CF93DA
:102B1000DF93EC010E94722C66507F4F8F4F9F4FC6
:102B20006093940870939508809396089093970803
:102B3000CE010E94B90588818093D707898180934F
:102B4000D8078A818093D9078B818093DA078C819B
:102B50008093DB078D818093DC070E94CB07DF9198
:102B6000CF912AC9CF93DF93FC01DA01E9012281D9
:102B700030E0322F22278381282B848190E0982F08
:102B800088274581842B3227232732273093400A18
:102B900020933F0A9827892798279093420A809389
:102BA000410A12962C91129730E0322F2227139669
:102BB0008C911397282B14968C91149790E0982F52
:102BC000882715964C91842B322723273227309360
:102BD000380A2093370A98278927982790933A0A2A
:102BE0008093390A2A8130E0322F22278B81282BCB
:102BF0008C8190E0982F88274D81842B32272327C2
:102C0000322730933C0A20933B0A9827892798273C
:102C100090933E0A80933D0AFB0182819381A481B7
:102C2000B58180939A0890939B08A0939C08B093D9
:102C30009D08DF91CF910895AF92BF92CF92DF921E
:102C4000EF92FF920F931F93CF93DF93CDB7DEB731
:102C500068970FB6F894DEBF0FBECDBFCB016A01F7
:102C6000590155DF28E036E03A832983F701828154
:102C70009381A481B5818B839C83AD83BE83388788
:102C80002F83F80182819381A481B58189879A87F6
:102C9000AB87BC873E872D87F50182819381A48114
:102CA000B5818F87988BA98BBA8B3C8B2B8BF601C8
:102CB00082819381A481B5818D8B9E8BAF8BB88FE0
:102CC0009E012F5F3F4FAE01495F5F4FBE01635FC3
:102CD0007F4FCE01439646DF68960FB6F894DEBF6D
:102CE0000FBECDBFDF91CF911F910F91FF90EF905D
:102CF000DF90CF90BF90AF9008956F927F928F92A8
:102D00009F92AF92BF92CF92DF92EF92FF920F937A
:102D10001F93CF93DF93CDB7DEB76E970FB6F894BE
:102D2000DEBF0FBECDBF6C015B017A0149013801E6
:102D300000E02FEF4FEF6FEFCE0149960E94782A07
:102D400028E036E03A8329838B8D9C8DAD8DBE8D36
:102D50008B839C83AD83BE8338872F83F30182816D
:102D60009381A481B58189879A87AB87BC873E8789
:102D70002D87F40182819381A481B5818F87988BFF
:102D8000A98BBA8B3C8B2B8BF701428153816481D9
:102D900075814D8B5E8B6F8B788FCE0101967C0198
:102DA0008E01095F1F4F9E01235F3F4FAE014D5EB5
:102DB0005F4FB501C60140DF6E960FB6F894DEBFD7
:102DC0000FBECDBFDF91CF911F910F91FF90EF907C
:102DD000DF90CF90BF90AF909F908F907F906F903B
:102DE0000895CF92DF92EF92FF920F931F93CF93AC
:102DF000DF93CDB7DEB768970FB6F894DEBF0FBE8E
:102E0000CDBF6B017901DA0112964D915D916D9103
:102E10007C9115974D8B5E8B6F8B788FA8E0B6E019
:102E2000BA83A98321E0288F0D891E892F89388DC7
:102E30000B831C832D833E83B887AF83F701028108
:102E400013812481358109871A872B873C87BE87A8
:102E5000AD874F87588B698B7A8B8E010F5F1F4F21
:102E60009E01295F3F4FAE01435F5F4FB60145DFD3
:102E700068960FB6F894DEBF0FBECDBFDF91CF913D
:102E80001F910F91FF90EF90DF90CF9008950F93D7
:102E90001F93CF93DF93CDB7DEB762970FB6F89449
:102EA000DEBF0FBECDBFDB01FA01428153816481D9
:102EB00075814F87588B698B7A8BE8E0F6E0FA834F
:102EC000E98321E02A8B0F85188929893A890B83A8
:102ED0001C832D833E83F887EF8349875A876B874E
:102EE0007C879E012F5F3F4FAE01495F5F4FBD0161
:102EF00078DF62960FB6F894DEBF0FBECDBFDF91CC
:102F0000CF911F910F910895FB0141505109460F38
:102F1000571FE417F50778F4208130E0322F22277D
:102F20006181260F311D820F931F8217930708F4CA
:102F300001963296EECFE417F50751F4208130E088
:102F4000322F2227820F931F8217930708F40196CE
:102F5000089544E150E061E57AE080E090E0D4DF5C
:102F6000009711F00C943A0E8FEF9FEF08950F9396
:102F70001F93CF93DF938091530A90E0982F882777
:102F80002091540A820F911D8C010451110948E0CF
:102F900050E06DE57AE00E97B7DFC091710AC695F3
:102FA000C695CC73D0E0AE0165E67AE0ADDFC01720
:102FB000D10750F498012C1B3D0BAE014E5D5F4FC5
:102FC0006091A0080E944006009731F0DF91CF91F8
:102FD0001F910F910C943A0E8FEF9FEFDF91CF91DD
:102FE0001F910F910895B5CF0F9300E020E040E0CE
:102FF00060E082EA98E00E94782A88E998E00F91E0
:103000000C946E2A0F9300E020E040E060E088EA34
:1030100098E00E94782A0F9108950F9300E020E035
:1030200040E060E08EEA98E00E94782A0F910895CF
:10303000FC0110820895CF92DF92EF92FF92CF931E
:10304000DF93EC016A017B018B859C85AD85BE8594
:103050009A01AB01281B390B4A0B5B0BDA01C90142
:1030600049815A816B817C8184179507A607B70730
:10307000D8F08881813019F0823029F00CC0E985C0
:10308000FA85199508C061E08885811160E068873C
:103090008F810E94BE2DCB86DC86ED86FE868F85D5
:1030A00098890196988B8F878D819E8197FD06C0A8
:1030B0002F853889281739070CF01882DF91CF91B6
:1030C000FF90EF90DF90CF9008950F931F93CF93D1
:1030D000DF93EC018C0106551F4FCE01A9DF6196ED
:1030E000C017D107D1F7DF91CF911F910F910895AC
:1030F000CF92DF92EF92FF921F93CF93DF936A01FB
:103100007B01EC011AE08881882321F0B701A60138
:10311000CE0191DF115061961111F5CFDF91CF9162
:103120001F91FF90EF90DF90CF900895CF93DF93A2
:10313000EC010E94722CAB01BC01CE01DF91CF915A
:10314000D7CF20E0FC013081332331F02F5F41964F
:103150002A30C1F78FEF0895822F0895CF92DF9222
:10316000EF92FF920F931F93CF93DF9300D01F92A4
:10317000CDB7DEB76C01790149835A836B837C83B9
:10318000E0DF282F49815A816B817C818F3FD9F004
:1031900081E12802C00CD11C112481E0F60180835A
:1031A000418352836383748316830583F286E186A9
:1031B00029830E94722CF60163877487858796871E
:1031C000108A17862981822F0F900F900F900F90F1
:1031D000DF91CF911F910F91FF90EF90DF90CF90F3
:1031E00008950F931F930FEF1FEFB8DF1F910F91FB
:1031F000089526EB32E0FC0131832083089526EB0D
:1032000032E0FC01318320830C94272C0F931F9311
:10321000CF93DF93EC018B01CA0146EB52E0598357
:1032200048832A879B838A83222331F04DE852E02A
:103230006CEA72E00E94F0241D830C83C80116D151
:103240009F838E83C80114D199878887DF91CF919E
:103250001F910F9108950F931F93CF93DF938C01CC
:10326000C0E0D0E0F80180859185C817D907ACF49B
:10327000D8011696ED91FC911797CE01880F991FF2
:10328000E80FF91F80819181009729F012966D91C6
:103290007C91139726D42196E5CFDF91CF911F9192
:1032A0000F910895AF92BF92CF92DF92EF92FF926B
:1032B0000F931F93CF93DF938C017B016A01C0E0D2
:1032C000D0E0F80180859185C817D9073CF55E01EB
:1032D000AA0CBB1CD8011696ED91FC911797EA0D2C
:1032E000FB1D80819181009721F0B701A7D3811147
:1032F00002C02196E6CFD8011696ED91FC91179762
:10330000EA0DFB1D80819181DC01ED91FC9104802F
:10331000F581E02DA601B7011995EBCFDF91CF9193
:103320001F910F91FF90EF90DF90CF90BF90AF90E3
:103330000895DC0114968D919C911597DC01ED9117
:10334000FC910680F781E02D19940F9300E020E0B6
:1033500040E060E084EB98E00E94782A0F910895A5
:1033600024EE32E0FC013183208318C5CF93DF9334
:10337000EC01F6DFCE01DF91CF910C94272CCF9298
:10338000DF92EF92FF920F931F93CF93DF93CDB70E
:10339000DEB72A970FB6F894DEBF0FBECDBF7C0113
:1033A0006B0118D58E010F5F1F4F22E044E00E9491
:1033B000FF2FC7011BD5A801BC01C6010E94F02444
:1033C000C70118D5882339F04AEB52E06CEA72E065
:1033D000C6010E94F0242A960FB6F894DEBF0FBEF5
:1033E000CDBFDF91CF911F910F91FF90EF90DF90B4
:1033F000CF9008950F93CF93DF93EC0100E060E04E
:1034000070E0D9D484EE92E099838883DF91CF91E4
:103410000F9108950F9300E020E040E060E08AEB18
:1034200098E00E94782A0F9108952EEE32E0FC0178
:103430003183208308952EEE32E0FC013183208316
:103440000C94272C2EEE32E0FC0131832083778B05
:10345000668B20E030E0FC01E20FF31F1382128242
:103460002E5F3F4F24313105B1F70895029608953C
:103470008AE090E008950F9300E020E040E060E0F3
:1034800080EC98E00E94782A0F9108952AE233E0B8
:10349000FC013183208382C4CF93DF93EC01F6DFFC
:1034A000CE01DF91CF910C94272CAF92BF92CF9297
:1034B000DF92EF92FF920F931F93CF93DF938C01D4
:1034C000EB0188D46B017C01C80190D45C0120E041
:1034D00030E0A901C701B6010E94812E882319F0AE
:1034E00046EF52E002C04DEF52E0B501CE010E941E
:1034F000F024C8017FD4882389F042E053E06CEACD
:1035000072E0CE01DF91CF911F910F91FF90EF906C
:10351000DF90CF90BF90AF900C94F024DF91CF91CB
:103520001F910F91FF90EF90DF90CF90BF90AF90E1
:1035300008950F93CF93DF93EC0100E062E070E019
:103540003AD48AE293E099838883DF91CF910F91F7
:1035500008950F9300E020E040E060E086EC98E002
:103560000E94782A0F910895DF92EF92FF920F93B5
:103570001F93CF93DF9300D000D0CDB7DEB77C018F
:103580008B018091CC089091CD088617970721F088
:103590007093CD086093CC08C701A3D6D82E8111B3
:1035A00021C026E633E0A90160E373E0C7010E9471
:1035B000F1228823B9F060E373E0CE0101960E9406
:1035C000E52B40E353E0BA01C7010E94F024011546
:1035D000110511F0C8013FDECE0101960E947E2B3D
:1035E000DD24D3948D2D26960FB6F894DEBF0FBE42
:1035F000CDBFDF91CF911F910F91FF90EF90DF90A2
:103600000895AB01BC018091CC089091CD084ACEC1
:10361000CF93DF93CDB7DEB72A970FB6F894DEBF0E
:103620000FBECDBFDB01FE013196BF019F01261BFE
:10363000370B4217530718F02D912193F7CFFB0159
:10364000E40FF51F1082DDDF2A960FB6F894DEBF77
:103650000FBECDBFDF91CF9108950F9300E020E022
:1036600040E060E08EEC98E00E94782A0F91089587
:103670002AE433E0FC013183208308952AE433E017
:10368000FC01318320830C94272C0F931F93CF933D
:10369000DF931F92CDB7DEB78C01FC01648382817A
:1036A00069830E94F32D6981262F30E082179307EA
:1036B00021F0F80182810E94BE2DF80184818823C7
:1036C00019F043E453E002C045E853E0F801658196
:1036D0007681878190850F90DF91CF911F910F9117
:1036E0000C94F024EF920F931F93CF93DF93EC0190
:1036F000862FEAE4F3E0F983E88318870F836A836F
:103700007B834C833E832D83E98661E00E94852D77
:1037100060E0CE01DF91CF911F910F91EF90B5CF77
:103720000F9300E020E040E060E084ED98E00E942C
:10373000782A0F91089527E134E0FC01318320833A
:10374000089527E134E0FC01318320830C94272C79
:10375000FC0187E194E091838083738362835583C6
:10376000448321A382E090E09783868340E050E089
:1037700068EC71E4428753876487758716861786DD
:1037800081E490E0938B828B148A108E148E118EBC
:10379000128E138E0895EF92FF920F931F93CF9383
:1037A000DF938A01E9016130710581F062307105B2
:1037B000C1F0672B11F58DE090E00E94262C7C0172
:1037C0009E01A80160E070E015DE15C08DE090E07C
:1037D0000E94262C7C019E01A80161E070E060D36C
:1037E0000AC08EE090E00E94262C7C019E01A80178
:1037F00062E070E09EDEC70102C080E090E0DF91F1
:10380000CF911F910F91FF90EF9008958F929F920B
:10381000AF92BF92CF92DF92EF92FF92CF93DF935E
:10382000EC018E819F81892B11F41C8A45C0888907
:103830009989009709F440C0CDD24B015C01898D74
:10384000882369F16A897B89882777FD8095982F7D
:103850000E94872E6B017C0120E030E040E450E4C0
:10386000C501B4010E941C2E9B01AC01C701B60129
:103870000E94812E18161CF081E08C8B10C020E075
:1038800030E040E450E4C501B4010E941D2E9B01CC
:10389000AC01C701B6010E94372F87FF1C8A89A19E
:1038A000882341F04EE453E06CEA72E08C819D8104
:1038B0000E94F0248C8901C080E0DF91CF91FF90BD
:1038C000EF90DF90CF90BF90AF909F908F90089532
:1038D0008F929F92AF92BF92CF92DF92EF92FF9220
:1038E000CF93DF93EC018E819F81892B11F41E868B
:1038F0003FC0888599850097D9F16CD24B015C0156
:10390000888D882341F1CA84DB84EC84FD8420E027
:1039100030E040E05FE3C501B4010E941D2E9B0131
:10392000AC01C701B6010E94372F87FD03C081E0BB
:103930008E8711C020E030E040E05FE3C501B401B4
:103940000E941C2E9B01AC01C701B6010E94812E72
:1039500018160CF01E8689A1882341F047E653E033
:103960006CEA72E08C819D810E94F0248E8501C0FA
:1039700080E0DF91CF91FF90EF90DF90CF90BF90EC
:10398000AF909F908F9008958F929F92AF92BF9229
:10399000CF92DF92EF92FF92CF93DF93EC018E8173
:1039A0009F81892B11F41F863DC0888599850097DA
:1039B000C9F110D24B015C018C8D882339F1CA8486
:1039C000DB84EC84FD8420E030E040E05FE3C5016F
:1039D000B4010E941C2E9B01AC01C701B6010E94DC
:1039E000812E18161CF081E08F8710C020E030E097
:1039F00040E05FE3C501B4010E941D2E9B01AC01B4
:103A0000C701B6010E94372F87FF1F8689A188232F
:103A100039F047E653E06CEA72E08C819D81E0D793
:103A20008F8501C080E0DF91CF91FF90EF90DF9014
:103A3000CF90BF90AF909F908F900895CF92DF92DC
:103A4000EF92FF920F931F93CF93DF938C016B0143
:103A5000DC015F96ED90FC909097C0E0D0E0CE1531
:103A6000DF059CF4D8015D96ED91FC915E97CE0147
:103A7000880F991FE80FF91FB601808191810E947C
:103A8000BC32892B21F02196EACF80E001C081E091
:103A9000DF91CF911F910F91FF90EF90DF90CF902A
:103AA0000895CF92DF92EF92FF920F931F93CF93DF
:103AB000DF937A016901EB0100E010E00E151F05AC
:103AC0003CF469917991C601F3D70F5F1F4FF6CF90
:103AD000DF91CF911F910F91FF90EF90DF90CF90EA
:103AE00008959B01FC01478D50A1658D768DD9CF3E
:103AF000CF93DF93EB01CA0163E473E00E94BC3211
:103B0000892B11F461E001C060E0CE01DF91CF911B
:103B1000BCCDCF93DF93EC01888DE881F9818823B8
:103B200019F08E85811105C00680F781E02D60E0D7
:103B300004C00680F781E02D61E0CE0119958C8DDF
:103B4000E881F981882341F08F85882329F000845A
:103B5000F185E02D61E004C00084F185E02D60E096
:103B6000CE011995898DE881F981882341F08C89EE
:103B7000882329F00284F385E02D61E004C00284EB
:103B8000F385E02D60E0CE01DF91CF911994CF93C2
:103B9000DF93EC013BDECE019BDECE01F5DECE01F4
:103BA000DF91CF91B6CF0F931F93CF93DF93EC01AB
:103BB0008B0161E873E0C8010E94BC32892B19F4C3
:103BC0001F821E8214C069E873E0C8010E94BC32E3
:103BD000892B49F481E090E09F838E83DF91CF9120
:103BE0001F910F91089582E090E09F838E83CE0114
:103BF000DF91CF911F910F91CACFCF93DF93EC014B
:103C000088859985009789F0EBD0CE0161DECE01E1
:103C1000BBDE88859985DC01ED91FC916C817D810D
:103C20000190F081E02D199507C040E953E06CEA5E
:103C300072E08C819D81D4D68E819F81019721F085
:103C4000CE01DF91CF9165CFDF91CF9108950F9392
:103C50001F93CF93DF93EC01088919890115110592
:103C6000E9F0882777FD8095982F0E94872EAB0179
:103C7000BC01C801B5D0CE01C9DD88899989DC01B4
:103C8000ED91FC916C817D810190F081E02D199581
:103C900089A1882351F042EA53E002C04DEB53E082
:103CA0006CEA72E08C819D819BD68E819F81019709
:103CB00031F0CE01DF91CF911F910F912ACFDF918B
:103CC000CF911F910F910895CF93DF93EC014A8715
:103CD0005B876C877D8789A1882339F04EEC53E0A0
:103CE0006CEA72E08C819D817BD6CE01F1DDCE0144
:103CF0004BDE8E819F81019721F0CE01DF91CF9124
:103D000008CFDF91CF910895CF93DF93EC017B8BA8
:103D10006A8B89A1882339F042EF53E06CEA72E0A4
:103D20008C819D815DD6CE0171DD8E819F81019751
:103D300021F0CE01DF91CF91ECCEDF91CF910895AC
:103D4000FC01848195810895FC0181A10895FC0105
:103D500061A30895FC01718B608B0895FC0171874C
:103D600060870895FC01648F0895FC01608F0895B9
:103D7000FC01618F0895FC01768F658F0895FC0129
:103D800070A3678F08950F9300E020E040E060E0AB
:103D90008AED98E00E94782A0F91089527E234E096
:103DA000FC0131832083089527E234E0FC01318354
:103DB00020830C94272C0F93FC0187E294E09183DD
:103DC0008083738762875383428335832483048788
:103DD0000F910895FC016681778180859185089512
:103DE000FC0146835783608771870895FC018481B5
:103DF00095810895FC01848508950F9300E020E0EB
:103E000040E060E080EE98E00E94782A0F910895EB
:103E10002AE534E0FC0131832083C0CFCF93DF93C8
:103E2000EC01F6DFCE01DF91CF910C94272CCF92DD
:103E3000DF92EF92FF920F931F93CF93DF93CDB753
:103E4000DEB72A970FB6F894DEBF0FBECDBF7C0158
:103E50006B01C0DF8E010F5F1F4F22E045E00E9423
:103E6000FF2FC701C3DFA801BC01C601B9D5C70137
:103E7000C1DF882331F04DE254E06CEA72E0C60104
:103E8000AFD52A960FB6F894DEBF0FBECDBFDF9137
:103E9000CF911F910F91FF90EF90DF90CF900895F9
:103EA0000F93CF93DF93EC0100E061E070E083DFDC
:103EB0008AE594E099838883DF91CF910F910895EB
:103EC0000F9300E020E040E060E086EE98E00E9482
:103ED000782A0F910895FC0113861586148627E031
:103EE00030E0DF01A20FB31F13961C92211531059C
:103EF00019F021503109F5CF08951F93CF93DF9327
:103F0000EC01162F60E0812F0E94852D612F70E05B
:103F1000FB01E25AFE4FE491E883FB01EC55FE4FB2
:103F2000E491F0E0EE0FFF1FE651FE4F8591949172
:103F30009A838983CE01DF91CF911F91CCCFCF920D
:103F4000DF92EF92FF920F931F93CF93DF93EC01D9
:103F50008B010E94722C6B017C0188819981DC01AC
:103F6000ED91FC910480F581E02D1995892B69F480
:103F70000E94722C6C197D098E099F0968397A4359
:103F80008105910550F380E00CC088819981DC01A6
:103F9000ED91FC910680F781E02D1995F801808361
:103FA00081E0DF91CF911F910F91FF90EF90DF9013
:103FB000CF9008950F931F93CF93DF93EA01088169
:103FC0001981600F711FBBDF882331F00F5F1F4F16
:103FD0001983088381E001C080E0DF91CF911F91B8
:103FE0000F9108953F924F925F926F927F928F92BE
:103FF0009F92AF92BF92CF92DF92EF92FF920F9378
:104000001F93CF93DF9300D0CDB7DEB78C016B0148
:104010001A8219825C0182E0A80EB11CAE014F5FCA
:104020005F4FB501C801C6DF811103C080E090E099
:10403000B9C0D80112969C901B82E12CF12C412C26
:10404000512C32014394BE016D5F7F4FC80177DF71
:10405000882361F329813A81C90101969A83898372
:104060006B81F801E20FF31F6283462F4F7750E018
:10407000449D9001459D300D549D300D1124E20E5C
:10408000F31E97E0440C551C661C771C9A95D1F7DB
:1040900067FDD9CF292D207F33243394203309F0B5
:1040A000312C8150F6018083332031F1AE014F5F16
:1040B0005F4FB501C8017EDF882309F4B7CFAE0199
:1040C0004F5F5F4FB501C80175DF882309F4AECF9C
:1040D000D6018C91F801E80FF11D4380512C542C2E
:1040E00044248481480E511CF801828181FF08C05C
:1040F000F2E04F0E511C04C080E0412C512C01C055
:1041000082E0A82EB12C612C712C480189E9880E1F
:10411000911CC3018A0D9B1D8E159F0598F5BE014C
:104120006D5F7F4FC8010BDF882309F47FCFD40177
:104130008D919C910097A9F0332099F029813A81C3
:1041400022503109F6014081241B310942165306E1
:1041500040F4DC01ED91FC910190F081E02D6B8148
:10416000199589819A818038910528F42B81F8016D
:10417000E80FF91F228301969A838983BFEF6B1A98
:104180007B0AC7CFF801E756FF4F80819181892BC9
:1041900039F489819A818138910510F01A82198247
:1041A00089819A810F900F900F90DF91CF911F918D
:1041B0000F91FF90EF90DF90CF90BF90AF909F90C6
:1041C0008F907F906F905F904F903F900895AF9247
:1041D000BF92CF92DF92EF92FF920F931F93CF93F4
:1041E000DF9300D01F92CDB7DEB77C01F90180E0EC
:1041F0009E2F9F77EE0FEF2FEE1FFF0BF19530975D
:1042000009F09068A1E0B0E0AC0FBD1FA80FB11D90
:104210009C938F5F309761F7A82EB12CDA01AA1911
:10422000BB0914966C93BE016F5F7F4F80E090E0F6
:104230004A195B098A159B0554F4FB01D190BF0113
:104240008A01080F191FF801D5820196F3CFF701F3
:104250008081918189010F5F1F4F0A0D1B1DFC0199
:1042600020813181F90122813381A801BD01F90149
:1042700019956C010E94722CF701EC57FF4F608377
:1042800071838283938381E0C016D10609F080E0B8
:104290000F900F900F900F90DF91CF911F910F9182
:1042A000FF90EF90DF90CF90BF90AF900895C9013D
:1042B0000296DB01FD01E61BF70B2D91222331F065
:1042C000FA01E80FF91F20830196F4CF9C012E1B01
:1042D0003F0B240F351FD9011297FC931196EC93D5
:1042E0000895CF93DF93EC0188819981009731F194
:1042F000DC01ED91FC910488F589E02D199581117F
:104300001FC0FE01E556FF4F80819181892BB1F4DA
:104310008DEF9FEF9183808388819981DC01ED91FE
:10432000FC910284F385E02D199588819981DC0147
:10433000ED91FC910288F389E02D199580E001C090
:1043400081E0DF91CF9108952F923F924F925F923B
:104350006F927F928F929F92AF92BF92CF92EF9285
:10436000FF920F931F93CF93DF93CDB7DEB72E97B6
:104370000FB6F894DEBF0FBECDBF4C011B012A0162
:104380003901AFDF811114C1F401EB56FF4F608199
:104390007181D4018D919C911197A956BF4FFC0159
:1043A000208131816115710541F04D915C91D901F8
:1043B0001E96ED91FC911F971FC0F9010484F585AD
:1043C000E02DFE87ED87ED91FC9128E036E03A8301
:1043D0002983D401A157BF4F12964D915D916D91E4
:1043E0007C9115974B835C836D837E83AF01BE0107
:1043F0006F5F7F4FED85FE851995F4018130910542
:1044000009F0CEC0EE57FF4F9183808389E0E5E14C
:10441000F2E0DE01119601900D928A95E1F7FE011E
:10442000319680E090E02191D401A80FB91F179632
:104430002C93019689309105B1F70115110559F0BA
:10444000F0E2CF9EC0011124866028E0E29E700158
:1044500011248E2901C082E04114510431F061140D
:10446000710411F4806801C0806CD40150968C9363
:10447000509751961C9251978FE052968C937401ED
:10448000B2E0EB0EF11C21E130E0A701B101C40163
:104490000EDF0115110551F09C01A701B801C401FF
:1044A00006DF9C01A701B501C40101DF41145104DD
:1044B00069F09C01A701B201C401F9DE6114710425
:1044C00029F09C01A701B301C401F1DE9C01255034
:1044D0003109A70160E1C4017ADE0E94722CF40167
:1044E000EC57FF4F60837183828393838401085765
:1044F0001F4FF8016083718382839383F40180816D
:104500009181DC01ED91FC910480F581E02D1995FC
:10451000892BC1F40E94722CD8014D905D906D9052
:104520007C90641975098609970968397A43810571
:10453000910520F3F401E556FF4F8CEF9FEF918337
:10454000808323C0BE01665F7F4FC4014BDD0497AB
:10455000E1F4F4018581940125563F4F79018111E1
:1045600010C00E94722CD8016D937D938D939C9303
:104570001397F401E457FF4F1082F7011182108264
:1045800017C090E0D9018D939C93F40180819181B3
:10459000DC01ED91FC910288F389E02D199506C0AC
:1045A000E556FF4F8EEF9FEF9183808380E001C03F
:1045B00081E02E960FB6F894DEBF0FBECDBFDF911F
:1045C000CF911F910F91FF90EF90CF90BF90AF9040
:1045D0009F908F907F906F905F904F903F902F9023
:1045E0000895AF92BF92CF92EF920F931F93A12C99
:1045F000B12CC12CE12C00E010E0A6DE1F910F9140
:10460000EF90CF90BF90AF9008952F923F924F922E
:104610005F926F927F928F929F92AF92BF92CF9252
:10462000DF92EF92FF920F931F93CF93DF9300D00F
:104630001F92CDB7DEB78C014DB65EB652DE882331
:1046400009F441C10E94722C6B017C01580128E8D9
:10465000A20EB11CF50180819181A281B381A701D5
:104660009601281B390B4A0B5B0BDA01C90189390A
:104670009A43A105B10590F4349780819181A2817C
:10468000B381A7019601281B390B4A0B5B0BDA019A
:10469000C90189399A43A105B105C0F148014CE827
:1046A000840E911CD4012C91F801808191812223E8
:1046B00071F0E556FF4F2CEF3FEF31832083DC0193
:1046C000ED91FC910288F389E02D1995FCC020EC56
:1046D000F80122831382DC01ED91FC910280F381C9
:1046E000E02D42E050E0B8016E5F7F4F1995F80170
:1046F000EC57FF4FC082D182E282F382F501C08283
:10470000D182E282F38281E0D4018C93F80180812E
:104710009181DC01ED91FC910480F581E02D1995EA
:10472000892B09F4D2C0BE016F5F7F4FC8015ADCEC
:10473000FC01009709F4C9C0D501CD92DD92ED923C
:10474000FC921397D80112968C91807F803309F0E8
:104750009FC04801BDE88B0E911CD4018D919C91A6
:10476000892B09F4B2C02DB63EB6698170E0D8013C
:10477000A60FB71F13964C91139750E0542F442760
:1047800014968C911497480F511DCA0101962DB7AC
:104790003EB7281B390B0FB6F8943EBF0FBE2DBF96
:1047A0008DB79EB701965C0120E030E0BC83AB83FF
:1047B0002417350769F06B807C80620E731ED3016D
:1047C00015966C90D5016D925D012F5F3F4FF0CF34
:1047D000DC01A20FB31F1C92D8011296BC91B670D7
:1047E000BA83B230E9F53901660E771ED801A60DFD
:1047F000B71D1596AC901597B12CBA2CAA24169615
:104800004C91A40EB11C4BEF5FEF461B570B421BA4
:10481000530B4E0F5F1FB301695F7F4F600F711F16
:10482000D401ED91FC91199580E4F80182837A809E
:104830007382B482A582D8018D919D91BD01DC0166
:10484000ED91FC910280F381E02D44E050E0199558
:10485000F801EC57FF4FC082D182E282F38212C08E
:104860004DEF5FEF461B570B421B530B4E0F5F1F65
:10487000620F731F6B5F7F4F600F711FD401ED914B
:10488000FC9119950FB6F8943EBE0FBE2DBE1DC00B
:10489000803C91F480EDF80182831382D8018D91E0
:1048A0009D91BD01DC01ED91FC910280F381E02D31
:1048B00042E050E0199509C0803D39F4F801E45711
:1048C000FF4F108202C080E001C081E00FB6F89473
:1048D0005EBE0FBE4DBE0F900F900F900F90DF91F8
:1048E000CF911F910F91FF90EF90DF90CF90BF90ED
:1048F000AF909F908F907F906F905F904F903F9080
:104900002F9008958F929F92BF92CF92DF92EF9255
:10491000FF920F931F93CF93DF931F921F92CDB7F8
:10492000DEB74C01B42E152F790169837A83D9DC67
:1049300069817A81882309F444C0FB010190002039
:10494000E9F73197E61BF70BC70107968E0F9F1FFC
:1049500081389105B0F5640182E0C80ED11C25E0D4
:1049600030E0A601C401A3DCEB2DF12F60E070E084
:104970009401280F391F6E157F0549F04191D90127
:10498000A60FB71F12964C936F5F7F4FF4CF0111A4
:1049900002C060E301C061E3970125503109280F8F
:1049A000391FA601C4010F900F90DF91CF911F9185
:1049B0000F91FF90EF90DF90CF90BF909F908F90DE
:1049C00006CC80E00F900F90DF91CF911F910F9157
:1049D000FF90EF90DF90CF90BF909F908F900895C1
:1049E0000F93FA0101900020E9F79F01215031094E
:1049F000241B350B00E086DF0F910895CF92DF92E4
:104A0000FF920F931F93CF93DF931F921F92CDB707
:104A1000DEB76C01F42E81E0841708F43EC0FB0180
:104A200001900020E9F7E61BF70B3896E138F10515
:104A3000A0F5C60169837A8354DC69817A81882371
:104A400061F1F601EE57FF4F80819181019611F4DB
:104A500081E090E09183808380819181F60197834A
:104A6000808786010E5F1F4F27E030E0A801C60156
:104A70001EDCF601E80FF91FF2829C012450310977
:104A8000A80162E8C6010F900F90DF91CF911F91AE
:104A90000F91FF90DF90CF909ACB80E00F900F9016
:104AA000DF91CF911F910F91FF90DF90CF900895EC
:104AB00040E0A4CFCF92DF92EF92FF920F931F932B
:104AC000CF93DF93CDB7DEB72C970FB6F894DEBF48
:104AD0000FBECDBF7C01FB016A01038122814181B0
:104AE0006081CE01079604D509851A852B853C8502
:104AF000F701E157FF4F02831383248335833896F0
:104B0000D182C082329711821082C7012C960FB6D3
:104B1000F894DEBF0FBECDBFDF91CF911F910F91F3
:104B2000FF90EF90DF90CF900895CF92DF92EF92B9
:104B3000FF920F931F93CF93DF9300D01F92CDB7B7
:104B4000DEB76C01790181579F4F4B835C8369838A
:104B50007A83C4D4F601E556FF4F8FEF9FEF918320
:104B600080834B815C8169817A81C601A3DFF60174
:104B7000E357FF4FF182E082F60111830083E7568D
:104B8000FF4F118210820F900F900F900F90DF91C6
:104B9000CF911F910F91FF90EF90DF90CF900895EC
:104BA0000F9300E020E040E060E08CEE98E0A0D4BD
:104BB0000F9108950895FC018AED95E2928B818B07
:104BC000768365831482108289E0818381E0828309
:104BD00083830895CF93DF93EC018CED95E0998367
:104BE00088838AA19BA1009739F0DC01ED91FC91AB
:104BF0000280F381E02D19958CA19DA1009739F0D9
:104C0000DC01ED91FC910280F381E02D19958EA1DC
:104C10009FA1009739F0DC01ED91FC910280F381B6
:104C2000E02D1995CE01DF91CF910C949B1BCF9372
:104C3000DF93EC01CFDFCE01DF91CF9108C61F9348
:104C4000CF93DF93EC01162F8AA19BA10E94451BF5
:104C5000612F8CA19DA1DF91CF911F910C94451BD9
:104C6000FC0186A197A10C94451BFC0180A591A590
:104C70000C94451BEF92FF920F931F93CF93DF93FA
:104C8000CDB7DEB72C970FB6F894DEBF0FBECDBF01
:104C90008C017A01CE01079698D5B701CE01019615
:104CA00094D560E674E0CE010796A4D5882329F058
:104CB000B701C8010E94D31D57C068E774E0CE0158
:104CC000079698D5882349F0C7010E948432AB012A
:104CD000BC01C8010E94641E47C06FE974E0CE01A8
:104CE000079688D5882321F0F80162A173A10AC034
:104CF0006BEB74E0CE0107967DD5882341F0F80177
:104D000064A175A1A701C8010E94781D2DC067ED9F
:104D100074E0CE0107966ED5882321F0F80166A1D4
:104D200077A1F0CF66EF74E0CE01079663D58823B4
:104D300021F0F80160A571A5E5CF6DE075E0CE0129
:104D4000079658D5882341F0C7010E948732BC01DD
:104D5000C8010E94841E08C0C8010E94A01E41E331
:104D600055E06CEA72E03CDECE010196C7D4CE017C
:104D70000796C4D42C960FB6F894DEBF0FBECDBFF5
:104D8000DF91CF911F910F91FF90EF900895AF9217
:104D9000BF92CF92DF92EF920F931F93CF93DF9347
:104DA000EC016B01B42E20E0AB0160E070E00E94EA
:104DB000A81B8CED95E0998388838EE0EEE1F2E00C
:104DC000DE019A9601900D928A95E1F76B2DCE0146
:104DD0000E94A71ECE010E94A41E882331F049E440
:104DE00055E06CEA72E0C601FBDD8AE090E02ED56A
:104DF0005C01E12C860122E635E040E06EE170E0E6
:104E00000E94721BBBA2AAA28AE090E01FD55C019F
:104E100020E835E040E06FE170E00E94721BBDA227
:104E2000ACA261E0CE010E94B51E8AE090E00ED5F2
:104E30005C012EE935E040E069E270E00E94721BFF
:104E4000BFA2AEA261E0CE010E94B21E8AE090E055
:104E5000FDD45C012FEB35E040E06AE270E00E9497
:104E6000721BB9A6A8A661E0CE010E94B81E2CE272
:104E700032E0A60161E070E0CE010E94CB1BBC01D4
:104E8000CE010E94AE1E2BE432E0A60160E070E08D
:104E9000CE010E94CB1BBC01CE010E94AA1EBE0106
:104EA000665D7F4FCE010E94BB1E67E070E0CE01C1
:104EB0000E94BF1EB601CE01DF91CF911F910F91CD
:104EC000EF90DF90CF90BF90AF900C94711D0F9337
:104ED00000E020E040E060E082EF98E009D30F912D
:104EE00008952CEE35E0FC01318320830C94151AD3
:104EF000CF93DF93EC01F5DFCE01DF91CF91A7C413
:104F0000EF92FF920F931F93CF93DF938C01EB01EE
:104F1000CC0FDD1FC00FD11F8A819B81892B71F4BB
:104F2000672B61F488E390E091D47C01F801608DF7
:104F3000718D40E02CDFF801F382E2828A819B814F
:104F4000DF91CF911F910F91FF90EF900895EF9215
:104F5000FF920F931F93CF93DF93EC017B018A01A4
:104F60006CE272E0C7010E94BC32892B91F4B80157
:104F7000882777FD8095982FCAD6AB01BC018A811E
:104F80009B81DF91CF911F910F91FF90EF900C9437
:104F9000FD1D6BE472E0C7010E94BC32892B59F4FD
:104FA000B8018A819B81DF91CF911F910F91FF9072
:104FB000EF900C94271EDF91CF911F910F91FF90DE
:104FC000EF9008950F931F93CF93DF93EC018B0124
:104FD0000E94221A8CEE95E099838883198F088F9E
:104FE000DF91CF911F910F9108950F931F93CF934E
:104FF000DF938C018091B6069091B706892B51F40E
:105000008AE190E023D4EC01B801DCDFD093B7064D
:10501000C093B6068091B6069091B706DF91CF9106
:105020001F910F9108950F9300E020E040E060E0B1
:1050300088EF98E05DD20F910895FC01818D228D5B
:1050400090E0805C9F4F821B91098F739927089590
:10505000FC01918D828D981731F0828DE80FF11D42
:10506000858D90E008958FEF9FEF0895FC01918D5D
:10507000828D981761F0828DDF01A80FB11D5D96BA
:105080008C91928D9F5F9F73928F90E008958FEF28
:105090009FEF08958BEE99E2892B39F080E090E044
:1050A000892B19F098D1811125C080E090E0892BDF
:1050B00041F080E090E0892B21F00E9400008111F6
:1050C0001CC080E090E0892B41F080E090E0892BCB
:1050D00021F00E940000811113C080E090E0892B34
:1050E000A1F080E090E0892B81F00E940000811106
:1050F0000AC008950E940000D8CF0E940000E1CFAE
:105100000E940000EACF0C9400000895FC01848DF9
:10511000DF01A80FB11DA35ABF4F2C91848D90E0E1
:1051200001968F739927848FA689B7892C93A089BC
:10513000B1898C9180648C93938D848D981306C073
:105140000288F389E02D80818F7D80830895CF933D
:10515000DF93EC01888D8823C1F0EA89FB89808187
:1051600085FD05C0A889B9898C9186FD0EC00FB652
:1051700007FCF5CF808185FFF2CFA889B9898C9192
:1051800085FFEDCFCE01C2DFE8CFDF91CF9108954B
:10519000CF92DF92FF920F931F93CF93DF931F92D3
:1051A000CDB7DEB76C01DC015B969C915B975C969A
:1051B0008C915C97981307C05096ED91FC91519794
:1051C000808185FD31C0F601038D10E00F5F1F4F18
:1051D0000F731127F02EF601848DF81210C00FB650
:1051E00007FCF9CFD6015096ED91FC915197808143
:1051F00085FFF1CFC601698389DF6981ECCF838D9B
:10520000E80FF11DE35AFF4F6083D6015B960C93C4
:105210005B975296ED91FC915397808180628083D9
:1052200081E058968C930DC0D6015696ED91FC9175
:10523000579760835096ED91FC91519780818064DF
:10524000808381E090E00F90DF91CF911F910F91CB
:10525000FF90DF90CF900895BF92CF92DF92EF92B0
:10526000FF92CF93DF93EC016A017B01B22EE889B4
:10527000F98982E08083411581EE58076105710547
:1052800099F060E079E08DE390E0A701960156D6B1
:105290002150310941095109569547953795279570
:1052A000211580E1380790F0E889F989108260E8DB
:1052B00074E88EE190E0A701960140D621503109B3
:1052C000410951095695479537952795EC85FD85F8
:1052D0003083EE85FF852083188EEC89FD89B082AE
:1052E000EA89FB89808180618083EA89FB898081EA
:1052F00088608083EA89FB89808180688083EA896D
:10530000FB8980818F7D8083DF91CF91FF90EF902B
:10531000DF90CF90BF9008951F920F920FB60F921B
:1053200011240BB60F922F938F939F93EF93FF93BC
:10533000E0910E09F0910F098081E0911409F0913C
:10534000150982FD12C09081809117098F5F8F73BC
:1053500020911809821751F0E0911709F0E0E2500E
:10536000F74F958F8093170901C08081FF91EF91CE
:105370009F918F912F910F900BBE0F900FBE0F90AA
:105380001F9018951F920F920FB60F9211240BB613
:105390000F922F933F934F935F936F937F938F93CE
:1053A0009F93AF93BF93EF93FF938EEF98E0AEDEA2
:1053B000FF91EF91BF91AF919F918F917F916F91ED
:1053C0005F914F913F912F910F900BBE0F900FBEA9
:1053D0000F901F9018958EEF98E02FDE21E0892B1B
:1053E00009F420E0822F089510920109109200091B
:1053F00088EE93E0A0E0B0E0809302099093030967
:10540000A0930409B093050988EF95E09093FF08F5
:105410008093FE0885EC90E090930B0980930A0935
:1054200084EC90E090930D0980930C0980EC90E05F
:1054300090930F0980930E0981EC90E090931109ED
:105440008093100982EC90E09093130980931209E5
:1054500086EC90E090931509809314091092170937
:10546000109218091092190910921A090895AF9212
:10547000BF92CF92DF92EF92FF920F931F93CF9341
:10548000DF936C017B01C0E0D0E000E010E0F601AA
:10549000EC0FFD1F4AE050E06281C701ECD05C01D7
:1054A0006EE2C7017ED08A0D9B1D080F191F219641
:1054B000C330D10561F74AE050E0F6016581C701CC
:1054C000DAD0800F911FDF91CF911F910F91FF9044
:1054D000EF90DF90CF90BF90AF90089528E036E036
:1054E000FC01318320831282138214821582089575
:1054F0000F93FC0188E096E091838083628343836D
:10550000248305830F91089588E096E090939C0989
:1055100080939B0910929D0910929E0910929F09F9
:105520001092A0090895CF92DF92EF92FF920F930D
:105530001F93CF93DF936C017A01EB01E60EF71E08
:1055400000E010E0CE15DF0561F06991D601ED9124
:10555000FC910190F081E02DC6011995080F191FEB
:10556000F1CFC801DF91CF911F910F91FF90EF9084
:10557000DF90CF9008956115710581F0DB010D90EA
:105580000020E9F7AD0141505109461B570BDC01E2
:10559000ED91FC910280F381E02D199480E090E080
:1055A0000895DC01ED91FC910190F081E02D1994BA
:1055B0008F929F92AF92BF92CF92DF92EF92FF9223
:1055C0000F931F93CF93DF93CDB7DEB7A1970FB69D
:1055D000F894DEBF0FBECDBF7C01C42EE52FCB01FA
:1055E000D22E19A221E02D1510F02AE0D22E8E0124
:1055F0000F5D1F4F8D2C912CA12CB12C6C2D7E2F6B
:10560000A50194019BD48C2DD29E801911240150A8
:1056100011098A3014F4805D01C0895CF80180832F
:10562000211531054105510521F0C22EE32FCA0194
:10563000E5CFB801C7019FDFA1960FB6F894DEBF92
:105640000FBECDBFDF91CF911F910F91FF90EF90D3
:10565000DF90CF90BF90AF909F908F9008952115CD
:10566000310541F4DC01ED91FC910190F081E02DD8
:10567000642F19949DCF9A01462F50E060E070E0AE
:10568000EECFCF93DF9300D01F92CDB7DEB79B0153
:10569000AC01611571058105910559F069833A8363
:1056A0004B835C833DD629813A814B815C8168D4F0
:1056B00003C060E070E0CB010F900F900F900F904F
:1056C000DF91CF910895CF92DF92EF92FF926B011D
:1056D0007C0162177307840795075CF4CA01B9015E
:1056E0006C197D098E099F09CCDF6C0D7D1D8E1D07
:1056F0009F1DFF90EF90DF90CF900895FC01808177
:10570000918135C5CF93DF93EC0188819981009712
:1057100009F02DD5198218821D821C821B821A82E3
:10572000DF91CF9108950F931F93CF93DF93EC01F7
:105730008B016F5F7F4F88819981FED5009731F093
:10574000998388831B830A8381E001C080E0DF9115
:10575000CF911F910F910895CF93DF93EC01888132
:105760009981892B29F08A819B818617970758F4A4
:10577000CE01D9DF882341F08C819D81892B19F4DA
:10578000E881F981108281E0DF91CF910895EF9255
:10579000FF920F931F93CF93DF93EC017B018A015C
:1057A000BA01DADF811103C0CE01ACDF06C01D8370
:1057B0000C83B70188819981E8D6CE01DF91CF9122
:1057C0001F910F91FF90EF900895FC0111821082BC
:1057D00013821282158214826115710551F0FB014A
:1057E00001900020E9F7AF0141505109461B570BCA
:1057F000CECF0895FC0124813581232B31F421E0A3
:105800006115710599F0FB0108C0FC01808191814F
:105810006115710531F421E0FC018081882331F0AC
:1058200004C0AAD621E0892B09F020E0822F089538
:1058300067D60895B5D0FDDF0E942402CAE4D8E2FD
:105840000E9492022097E1F325DCFACFF8C38FC4BF
:105850001F920F920FB60F9211242F933F938F93A5
:105860009F93AF93BF938091A2099091A309A091B8
:10587000A409B091A5093091A10923E0230F2D3788
:1058800020F40196A11DB11D05C026E8230F029644
:10589000A11DB11D2093A1098093A2099093A30992
:1058A000A093A409B093A5098091A6099091A70996
:1058B000A091A809B091A9090196A11DB11D8093DD
:1058C000A6099093A709A093A809B093A909BF912D
:1058D000AF919F918F913F912F910F900FBE0F909D
:1058E0001F9018952FB7F8946091A2097091A309A1
:1058F0008091A4099091A5092FBF08953FB7F8940E
:105900008091A6099091A709A091A809B091A90931
:1059100026B5A89B05C02F3F19F00196A11DB11D0A
:105920003FBF6627782F892F9A2F620F711D811D27
:10593000911D42E0660F771F881F991F4A95D1F786
:105940000895CF92DF92EF92FF92CF93DF936B0196
:105950007C01D4DFEB01C114D104E104F10479F03E
:105960006AD1CCDF6C1B7D0B683E7340A0F381E0F5
:10597000C81AD108E108F108C851DC4FECCFDF911B
:10598000CF91FF90EF90DF90CF900895019739F07D
:10599000880F991F880F991F02970197F1F70895B3
:1059A000789484B5826084BD84B5816084BD85B5FA
:1059B000826085BD85B5816085BDEEE6F0E08081C1
:1059C00081608083E1E8F0E01082808182608083E2
:1059D000808181608083E0E8F0E080818160808365
:1059E000E1EBF0E0808184608083E0EBF0E0808197
:1059F00081608083E1E9F0E0808182608083808142
:105A000081608083E0E9F0E0808181608083E1EA69
:105A1000F0E0808182608083808181608083E0EA21
:105A2000F0E0808181608083E1E2F1E0808182604A
:105A30008083808181608083E0E2F1E08081816009
:105A40008083EAE7F0E080818460808380818260E7
:105A500080838081816080838081806880831092D0
:105A6000C100089590E0FC013197E231F10508F0A2
:105A70004BC0E658FF4FA0C2809180008F7703C0D3
:105A8000809180008F7D80938000089580918000B8
:105A9000877FF9CF84B58F7702C084B58F7D84BDB1
:105AA00008958091B0008F7703C08091B0008F7D02
:105AB0008093B0000895809190008F7707C0809107
:105AC00090008F7D03C080919000877F809390002D
:105AD00008958091A0008F7707C08091A0008F7DEE
