:10000000CAC10000F9C10000F7C10000F5C100003D
:10001000F3C10000F1C10000EFC10000EDC100001C
:10002000EBC10000E9C10000E7C10000E5C100002C
:10003000E3C10000E1C10000DFC10000DDC100003C
:10004000DBC10000D9C10000D7C10000D5C100004C
:10005000D3C10000D1C10000CFC100000C94712BAE
:10006000CBC100000C94D5280C940B29C5C100000D
:10007000C3C10000C1C10000BFC10000BDC100007C
:10008000BBC10000B9C10000B7C10000B5C100008C
:10009000B3C10000B1C10000AFC10000ADC100009C
:1000A000ABC10000A9C10000A7C10000A5C10000AC
:1000B000A3C10000A1C100009FC100009DC10000BC
:1000C0009BC1000099C1000097C1000095C10000CC
:1000D00093C1000091C100008FC100008DC10000DC
:1000E0008BC10000B50BCC0B490C330D520D6F0DBD
:1000F000770D290D932C962C852C892C8F2CCD2CAB
:100100009A2C9E2CA42CA82CAC2CB22CB62CBA2C3D
:10011000CD2CC02CC42CC82C00000A0B02090C0DDD
:100120000E080703040100000000000000000000AA
:1001300000000000000000000000000000000000BF
:10014000000000001211100000000000000000007C
:10015000000000000000000000000000000001029C
:1001600010202008081020401020408002010201C9
:100170000804020101020408102040808040201081
:1001800008040201800402018040201008040201DA
:100190000804020101020408102040800102040842
:1001A000102040800505050507050808080802021B
:1001B00002020A0A08080404040401010101010101
:1001C00001010303030303030303040707070C0CE4
:1001D0000C0C0C0C0C0C02020202060606060606AB
:1001E00006060B0B0B0B0B0B0B0B00002000230068
:1001F000260029002C002F0032000001000003011E
:100200000601090100002200250028002B002E0015
:100210003100340002010000050108010B0100005B
:100220002100240027002A002D00300033000101A6
:100230000000040107010A014E414E494E4954593C
:10024000494E46CDCCCC3D0AD7233C17B7D13877A1
:10025000CC2B329595E6241FB14F0A0000204100B7
:1002600000C84200401C4620BCBE4CCA1B0E5AAE01
:10027000C59D7400407A10F35A00A0724E18090010
:1002800010A5D4E80000E87648170000E40B5402FB
:100290000000CA9A3B000000E1F505000080969836
:1002A00000000040420F000000A086010000001086
:1002B0002700000000E803000000006400000000C8
:1002C000000A00000000000100000000002C76D8A9
:1002D00088DC674F0823DFC1DFAE59E1B1B796E58F
:1002E000E3E453C63AE651997696E8E6C28426EBF3
:1002F000898C9B62ED407C6FFCEFBC9C9F40F2BA06
:10030000A56FA5F490055A2AF75C936B6CF9676D9D
:10031000C11BFCE0E40D47FEF520E6B500D0ED90F2
:100320002E0300943577050080841E080000204EBF
:100330000A000000C80C333333330F986E12831158
:1003400041EF8D2114893BE65516CFFEE6DB18D12F
:10035000844B381BF77C1D901DA4BBE42420328401
:10036000725E228100C9F124ECA1E53D27009302D1
:10037000A410AF107114D517E317EE17ED1852192A
:10038000C019561AB91AEA1D241E871EF7248B2697
:100390005C273D29CD2911241FBECFEFD1E2DEBF5E
:1003A000CDBF00E00CBF16E0A0E0B2E0EAEFFBE654
:1003B00000E00BBF02C007900D92A230B107D9F741
:1003C0002AE0A2E0B6E001C01D92AD39B207E1F724
:1003D00013E0C6E9D3E000E006C022970109FE0160
:1003E0000BBF0E94352FCE36D10780E00807A9F752
:1003F0000E94632B0C94FB3503CE23E230E040E0F7
:1004000050E06FE070E080E090E00E94AC2AAB0129
:100410006CE272E08091CD069091CE060E94212779
:1004200024E630E040E050E068E270E080E090E0F8
:100430000E94AC2AAB016BE472E08091CD069091F2
:10044000CE060C9421270F931F93CF93DF9300D0F8
:1004500000D0CDB7DEB726E040E052EC61E070E0BE
:100460008CEE98E00E94752880E096E09A8389835C
:100470008091E1069091E206A091E306B091E40636
:100480008B839C83AD83BE83AE014F5F5F4F6EE075
:1004900072E087E898E00E9428176091CD0670917D
:1004A000CE068091CF069091D0060E94D51987E0A4
:1004B00090E00E946F2B8C016091CF067091D00666
:1004C00040E00E94EE261093CE060093CD062DEF5D
:1004D00031E040E355E760E070E082E096E00E94A2
:1004E000D2188BDF26960FB6F894DEBF0FBECDBFB5
:1004F000DF91CF911F910F9108956091CD0670917A
:10050000CE068091CF069091D0060E94D5198823FF
:1005100031F08091CF069091D0060E942C2282E08B
:1005200096E00C9477180F931F93CF93DF9300E01E
:1005300020E040E060E085EE96E00E94C12905E2FF
:100540002EEF48EA60EC8FED96E00E94C12981ED24
:1005500096E00E94A5118DE990E00E946F2BEC01BE
:1005600001ED16E021E33AE14BE557E06AE072E085
:100570000E94BC24D093D006C093CF0669E08FEBD5
:1005800096E00E94A41E6FEB76E08CEA96E00E9453
:10059000022582E096E0DF91CF911F910F910C949C
:1005A0004618882381F08F3F29F48091ED069091C1
:1005B000EE06089595E0899FF0011124EE50F94F61
:1005C00082819381089580E090E00895CF93DF9336
:1005D000D82FC62F60E085E30E94072D9C2F9F71C6
:1005E0009D2B9EBD0DB407FEFDCF1EBC0DB407FEB6
:1005F000FDCFC7FD08C061E085E30E94072D8EB5E1
:10060000DF91CF9108951EBC0DB407FEFDCFF3CF4F
:100610000F931F93CF93DF931F92CDB7DEB7182FA1
:10062000062F60E085E349830E94072D602F6F71DC
:10063000612B6EBD49810DB407FEFDCF4EBD0DB4DB
:1006400007FEFDCF61E085E30F90DF91CF911F9111
:100650000F910C94072D0F931F93CF93DF938C0171
:10066000EB0160E085E30E94072D8AE38EBD0DB4A7
:1006700007FEFDCF0C0F1D1FC017D10739F01EBCA0
:100680000DB407FEFDCF8EB58993F6CF61E085E30B
:10069000DF91CF911F910F910C94072D0F931F9312
:1006A000CF93DF938C01EB0160E085E30E94072D7F
:1006B0008AE78EBD0DB407FEFDCF0C0F1D1FC017BE
:1006C000D10731F089918EBD0DB407FEFDCFF7CF74
:1006D00061E085E3DF91CF911F910F910C94072D7D
:1006E0001F93CF93DF93182F1076C12FD0E0209166
:1006F000140230E0C217D30779F043E06FE180EADB
:1007000087DFAE0185E0559547958A95E1F76FE162
:1007100080E87EDF10931402DF91CF911F9108953E
:10072000CF93DF931F92CDB7DEB7682F6983D8DFF1
:10073000698180E00F90DF91CF9148CF1F93CF93D5
:10074000DF931F92CDB7DEB7182F6983C9DF4981C8
:10075000612F80E40F90DF91CF911F9159CF1F93AC
:10076000CF93DF931F921F92CDB7DEB7182F698307
:100770007A83B6DF4981612F80E44ADF61E0610F4F
:100780007A81472F80E40F900F90DF91CF911F91D6
:100790003FCF6091F0067091F1066115710519F077
:1007A0006150710902C06FEF77E08CE0D8CFF1CFD4
:1007B000FF920F931F93CF93DF9389E3B1DF8823D9
:1007C00009F444C06091F0067091F106EB012696A1
:1007D000C11588E0D80710F0CF5FD74080E0BFDFB9
:1007E00060E08AE3F3DE90E09093F1068093F006F8
:1007F00060E08AE3EBDE2091F0063091F106382BC1
:100800003093F1062093F00660E08AE3DFDE082FE4
:1008100060E08AE3DBDE182F60E08AE3D7DEF82EA3
:1008200040E46EE180E8F4DEF7FE0FC0D093EC0602
:10083000C093EB06202F30E0312B24503109309348
:10084000EE062093ED068FEF02C0A3DF80E0DF917C
:10085000CF911F910F91FF900895EF92FF920F9308
:100860001F93CF93DF938B017A018F3FC1F025E077
:10087000829FE0011124CE50D94F02C0CBEED6E0CA
:1008800068817981600F711F80E069DF8A819B81B7
:10089000801B910BE816F90690F4C70110C08091F7
:1008A000EB069091EC06860F971F811528E09207C2
:1008B00028F3BC016F5F7740CBEED6E0E5CFDF9148
:1008C000CF911F910F91FF90EF9008950F931F9379
:1008D000CF93DF938A01A901C0DFEC01B801BBDE31
:1008E000CE01DF91CF911F910F910895CF92DF92AA
:1008F000EF92FF920F931F93CF93DF938B016A01C7
:10090000790195E0899FE0011124CE50D94F68818B
:100910007981600F711F82E022DF0A80DB81C02DA8
:10092000C01BD10BEC16FD0608F4E701B601CE01A1
:10093000B5DECE01DF91CF911F910F91FF90EF9027
:10094000DF90CF900895BC0180E009DF60E085E38F
:100950000E94072D8AE38EBD0DB407FEFDCF1EBC9D
:100960000DB407FEFDCF61E085E30E94072D8EB533
:100970000895CF93C62FBC0182E0F1DE60E085E3ED
:100980000E94072D8AE78EBD0DB407FEFDCFCEBDB8
:100990000DB407FEFDCF61E085E3CF910C94072DE8
:1009A000FF920F931F93CF93DF9395E0899FF00100
:1009B0001124EE50F94FC081D1812197028113811A
:1009C0000C0F1D1FCE01BFDFF82E882319F060E049
:1009D000CE01CFDFBE0184E0C2DEB80186E0BFDE1B
:1009E00048E06FE180E814DE8CE19ADE81FF04C00C
:1009F00048E06FE180EA0CDEFF2041F06F2DCE0170
:100A0000DF91CF911F910F91FF90B3CFDF91CF91E5
:100A10001F910F91FF900895CF92DF92EF92FF9276
:100A20000F931F93CF93DF937C01EB01413051056E
:100A300069F4CB0188DF682FC701DF91CF911F9147
:100A40000F91FF90EF90DF90CF9093CF6A01C60E89
:100A5000D71E86010150110980E181DEB70184E1D2
:100A60007EDEC115D84030F4011588E0180710F07B
:100A70000F5F1740B80182E172DE40E16FE180EA6A
:100A8000C7DD40E26FE180E8C3DD6FE180E09EDD1D
:100A900085FDFBCFDF91CF911F910F91FF90EF90DC
:100AA000DF90CF9008950F931F93CF93DF93EB01C7
:100AB000E5E0E89FD0011124AE50B94F4F3FB9F0A7
:100AC000E49FF0011124EE50F94F02C0EBEEF6E086
:100AD00060817181620F731F8D919C91A8018C0FB1
:100AE0009D1F9ADFDF91CF911F910F9152CEE09120
:100AF000EB06F091EC06E20FF31FE11588E0F80732
:100B000028F3BF016F5F7740E7CFCF93DF93EB010F
:100B1000682F84ED13DEBE0186ED21DE8AEE00DE55
:100B200080FF05C08FE090E00E940F2CF7CFDF918F
:100B3000CF910895CF93DF93EC01D0D061E085E3AE
:100B40000E94CE2C61E085E30E94072D61E083E3E3
:100B50000E94CE2C61E084E30E94CE2C60E082E310
:100B60000E94CE2C61E085E30E94CE2C60E083E3FE
:100B70000E94072D60E084E30E94072D80E58CBD74
:100B80008DB581608DBD4FEF60E08FEF41DD62E399
:100B900070E080E090E00E94EA2B1092F106109243
:100BA000F00660E070E088E0DADD60E070E08CE0A4
:100BB000D6DD6FEF77E08AE0D2DD61EB88E3BEDD62
:100BC0006FE370E388E2CBDD69EF77EF80E3C7DDA9
:100BD0006DE070E080ECC3DD42E362EC80E818DD9C
:100BE00062E17CE086ECBBDD62E184ECA7DD6CEDCC
:100BF00075E08AECB4DD688184EEA0DD698185EE64
:100C00009DDD6A8182EE9ADD6B8183EE97DD6C81DA
:100C100080EE94DD6D8181EE91DD60E071E080E138
:100C200074DF8FE15DDD40EC6BE180E8F1DC44E0F6
:100C30006FE180E8EDDC66E774E084E1DF91CF915D
:100C400064CF0F931F93CF93DF93EC01862FBA01EC
:100C5000A90103DE8C010150110960E085E30E94C7
:100C6000072D8AE38EBD0DB407FEFDCF20E030E0F6
:100C700020173107C0F41EBC0DB407FEFDCF8EB5A2
:100C800090E0982F88271EBC0DB407FEFDCF4EB50F
:100C9000840F911DC80FD91FC817D90708F42196D2
:100CA0002E5F3F4FE5CF2017310771F41EBC0DB406
:100CB00007FEFDCF8EB590E0982F8827C80FD91F6B
:100CC000C817D90708F4219661E085E30E94072D33
:100CD000CE01DF91CF911F910F910895E2EFF6E0E1
:100CE0008DECDF011D928A95E9F781E098E0918310
:100CF00080830895DF92EF92FF920F931F93CF931B
:100D0000DF937C014091F2065091F3064150584E1A
:100D100080E098E1E2EFF6E000E0C0E0D0E025E01E
:100D2000D22E1481112341F0D19ED0011124AE5056
:100D3000B94F2D913C9101C09A0160817181261BB0
:100D4000370B62817381261B370B2E153F0539F453
:100D500085E0089FE0011124CE50D94F48C0E2162B
:100D6000F30648F42817390730F4D09EE001112427
:100D7000CE50D94FC901111107C02097C1F5C2EF5C
:100D8000D6E085E0D82E1DC0D19EF0011124EE5092
:100D9000F94F012FC6CF0A811B8188819981080FE5
:100DA000191FD29EE0011124CE50D94F688179815C
:100DB0000617170731F04A815B81C8012DDE1983C0
:100DC00008832C812111E7CF2091F2063091F306A0
:100DD00088819981281B390B8A819B81281B390BBB
:100DE0002150384E2E153F0510F480E019C0E7EF72
:100DF000F6E081E022813381232B29F035968F5F45
:100E00008932C1F7F2CF2A813B8148815981240F71
:100E1000351F31832083F382E2829C8194838C830B
:100E2000DF91CF911F910F91FF90EF90DF90089588
:100E30008823F9F0E2EFF6E025E09481981311C0E1
:100E400095E0899FD0011124AE50B94F14968C9132
:100E50001497848313961C921E92129714961C92D8
:100E60000895992331F0299FF0011124EE50F94F94
:100E7000E4CF089595E0899FF0011124EE50F94FD9
:100E800080819181860F971F9183808382819381D6
:100E9000861B970B93838283089595E0899FF001C9
:100EA0001124EE50F94F80819181860F971F918315
:100EB0008083538342830895FC015381560F5093DE
:100EC0009F09872F99274281480F40939E09A1814E
:100ED000A0939D09E081E0939C09242F30E028171E
:100EE000390748F481E08A0F80939D09811103C07E
:100EF000EF5FE0939C09852F90E07727861797078F
:100F000088F44F5F40939E0941110CC080919D0968
:100F10008F5F80939D09811105C080919C098F5F2F
:100F200080939C0908952091A3093091A409BC01E4
:100F3000C9010896C1DFE091A309F091A40980914D
:100F40009C09808780919D09818780919E09828775
:100F500080919F098387089580E0E82FF0E0EE0FED
:100F6000FF1FE35EF54F118210828F5F8430A8F37C
:100F700080E09EE1989FF0011124EB55F64F118E11
:100F80008F5F8430B8F38093C20780E094E0909341
:100F9000C4078093C3070895CF932091C30730916E
:100FA000C4072F5F3F4F21154DE7340710F020E0B5
:100FB00030E1522F432FE5EAF9E0C0E0C43059F0A8
:100FC000A18DAA2329F0A481B581A417B50749F3FF
:100FD000CF5F7E96F3CF3093C4072093C307109260
:100FE000C20720E0E0E0F0E04EE12430E0F4429F70
:100FF000D0011124AB55B64F59963C9159973111F8
:1010000004C02093C207FD0110C0373041F430976F
:1010100039F05A965C915A97328D351708F0DF01F6
:101020002F5FFD01E2CF2093C2073097B1F122E09C
:10103000218F2091C50724872091C60725872091FD
:10104000C70726872091C807278720E032E0338B27
:10105000228B358B248B21E030E0318B208B138E5B
:10106000228F23E0208F168A20E1278B2091C3074F
:101070003091C4073227232732273583248377838F
:101080006683DC012D913C91119731832083129668
:101090008D919C91139793838283CF01CF91089573
:1010A0001F93CF93DF93C091A309D091A40927E6A2
:1010B0003AE03093A2092093A10930939B09209331
:1010C0009A09833059F4898D8F70833009F0A9C54E
:1010D00088899989892B09F0A4C57FC0823009F0DD
:1010E00080C08091C8078F5F8093C807811113C0AB
:1010F0008091C7078F5F8093C70781110CC08091D3
:10110000C6078F5F8093C607811105C08091C50710
:101110008F5F8093C50710929909109298091092D9
:10112000960A1092950A298D822F8D7F853041F481
:101130008A8D8F5F8A8F883709F073C5198E71C5C4
:10114000222309F46EC588899989892B09F441C045
:101150008A8D9FEF980F9A8F811163C58B8D883090
:1011600031F09FEF920F923048F4853039F4198EA8
:1011700080E88093A0090E94671312C4853038F478
:1011800093E0082E01C0990F0A94EAF701C090E39A
:101190009A8F8F5F8B8F822F8F708330A1F048F4EE
:1011A000813009F42FC2823009F03BC51092600AE9
:1011B0002CC2863009F495C3883009F492C3843078
:1011C00009F02FC58EC384E08093A0090E946713A5
:1011D00019C42F70233009F024C588E08093A0093A
:1011E000D5C380913F0A853409F01BC58091410A1F
:1011F00090E0982F88272091420A820F911D20911C
:101200009809309199092817390708F40AC590936D
:101210009909809398098091450A8F7309F001C557
:101220008091460A8111FDC480912D0A90912E0A69
:10123000009731F420912F0A3091300A232BA1F02E
:1012400020914F0A3091500A2817390709F0E9C454
:101250002091510A3091520A80912F0A9091300AC0
:101260002817390709F0DDC40E94D417019609F048
:10127000D8C48091480A8630D1F1813009F0D1C4B8
:101280008091530A883009F0CCC41092530A80919F
:10129000550A9091560A873FAFEF9A0710F00996CA
:1012A00001C008969093560A8093550A80914B0A84
:1012B00090914C0A9093500A80934F0A80914D0A66
:1012C00090914E0A9093520A8093510A80912D0A70
:1012D00090912E0A90934C0A80934B0A80912F0A8A
:1012E0009091300A90934E0A80934D0A9EC40E94BA
:1012F0009817019609F095C48091550A9091560A65
:101300002091530A3091540A40914B0A50914C0A53
:1013100060914D0A70914E0AEEEBF9E0C5EAD9E012
:1013200010811123A9F0AC81BD818A179B0781F43C
:10133000AE81BF812A173B0759F4A881B9814A17AA
:101340005B0731F4AA81BB816A177B0709F474C17A
:101350006E967E96AAE0CD31DA0711F72091600AE9
:101360002F732230E1F49093C0078093BF0740E0D1
:10137000443098F4E42FF0E0EE0FFF1FE35EF54FEA
:10138000208131814F5F8217930791F71092C20736
:1013900020E0C0E0D0E03EE17EC04093C2078091F3
:1013A000600A82FD3EC484E18093600A88E290E096
:1013B000909399098093980980E580935F0A8091C2
:1013C0005A0A90915E0A90935A0A3091590A909164
:1013D0005D0A9093590A30935D0A2091580A9091C2
:1013E0005C0A9093580A20935C0A9091570A909354
:1013F000C20740915B0A4093570A90935B0A8F5F44
:1014000080935E0A81110FC081E0830F80935D0A93
:10141000811109C081E0820F80935C0A811103C0B1
:101420009F5F90935B0A8091530A9091540A909326
:10143000C0078093BF072091550A3091560A309318
:10144000540A2093530A9093560A8093550A809128
:101450004B0A90914C0A9093500A80934F0A8091C6
:101460004D0A90914E0A9093520A8093510A8091AE
:101470002D0A90912E0A90934C0A80934B0A8091EA
:101480002F0A9091300A90934E0A80934D0A8BC395
:10149000473099F02F5F2430F0F4822F90E0389F8E
:1014A000F001399FF00D1124EB55F64F418D41119C
:1014B000EFCF2093C207EF0110C0209721F0528D8B
:1014C0004A8D451738F7389FE001399FD00D112418
:1014D000CB55D64FDFCF2093C207209709F4A1C385
:1014E000D093A409C093A30983E08A8F888F1E8AB2
:1014F00084E08F8B1B8E8091550A9091560A9D83B4
:101500008C838091530A9091540A9F838E8380919B
:101510004B0A90914C0A9983888380914D0A90914F
:101520004E0A9B838A8381E0898F8091C5078C87CF
:101530008091C6078D878091C7078E878091C807E5
:101540008F8781E090E0998B888B80915A0A8B87F6
:101550008091590A8A878091580A89878091570A11
:10156000888781E090E0DFDC80915F0A282F207F70
:1015700030E0213531050CF445C082958F7090E044
:101580000597880F991F880F991F3091C10720E098
:10159000E22FF0E0E817F9078CF5EF5CF54F36A97C
:1015A000311105C02093C2071092C1072BC0313002
:1015B00011F42F5FEDCF3230E1F447A94430C9F484
:1015C0002093C2073093C10780AD90E0982F882701
:1015D00021AD822B9093C0078093BF07813022E01A
:1015E000920710F080E092E09B8B8A8B9D8B8C8B16
:1015F00009C047A9442311F0240FCACF2093C20782
:101600003093C10780E18093600A8091600A826014
:101610008093600A82E08093670A94E09093680A5E
:101620008093690A10926A0A8CE290E0909399097B
:101630008093980980E665C2D093A409C093A3095A
:101640001092A0093091600A32FF03C0198E80E227
:1016500006C220915F0A22952F70220F220F20933D
:10166000C20780919809909199094497821B91092A
:1016700090939909809398091F70123021F4232FB9
:101680002F732231C9F0892B19F4832F8370A1F0B5
:101690009091570A888598132AC29091580A898593
:1016A000981325C29091590A8A85981320C2909167
:1016B0005A0A8B8598131BC234FF49C068897989FF
:1016C0006115710509F443C0CE010C96F5DB30912C
:1016D0005B0A80919C0938133AC020915C0A809182
:1016E0009D09281334C090915D0A80919E0998133A
:1016F0002EC080915E0A40919F09841328C03C87C8
:101700002D879E878F878B8D81111AC02E89888D9A
:101710009A8D891B922F969596959695891B280FE1
:101720002E8B87FD81959F89392F36953695931B92
:10173000980F9F8B822F869586958695890F888F27
:1017400081E08093A009888D8A8F198A188A498D33
:10175000842F8F7090E0FC013197E830F10508F09C
:1017600060C2EE58FF4F0C94252F8091A00980FF96
:1017700058C283E0898F80E48093A009198A188A6F
:101780008091980990919909009709F4FBC022E48F
:101790002093A009C8DBF6C08091A00980FF6FC02C
:1017A0008091600A8F73823109F069C080915F0A6D
:1017B000282F207F30E0213531050CF445C082957B
:1017C0008F7090E00597880F991F880F991F3091AF
:1017D000C10720E0E22FF0E0E817F9078CF5EF5C95
:1017E000F54F36A9311105C02093C2071092C107E9
:1017F0002BC0313011F42F5FEDCF3230E1F447A927
:101800004430C9F42093C2073093C10780AD90E003
:10181000982F882721AD822B9093C0078093BF0714
:101820008130A2E09A0710F080E092E09B8B8A8BD7
:101830009D8B8C8B09C047A9442311F0240FCACF7C
:101840002093C2073093C10783E0898F8091570AA4
:1018500088878091580A89878091590A8A87809160
:101860005A0A8B8781E090E05EDB82E48093A009D6
:10187000198A188A109299091092980983C080E2F7
:101880008093A00924D7E091A309F091A409118EB7
:1018900086CD8091600A80FF26C044FD24C08889DF
:1018A0009989892B09F0BDC1809198099091990976
:1018B000019639DB2091A009822F80618093A009D5
:1018C0008091980990919909892B19F022612093B0
:1018D000A009FDD681E090E0998B888B88E0898F04
:1018E0001B8E81E105C185FF1CC08091650A90E0D7
:1018F000982F88272091660A822B2091A109309188
:10190000A209280F391F3093A2092093A109209121
:10191000980930919909281B390B30939909209324
:1019200098098091980990919909009741F044FD98
:1019300006C02091A00922602093A009F4DA8091CA
:10194000610A90E0982F88272091620A820F911DEA
:101950009093C0078093BF072C893D8928173907CA
:1019600010F0892B21F43093C0072093BF0780919A
:10197000BF079091C0079B8B8A8B8091A0098370D1
:1019800009F44FC11092960A1092950AA0D6809140
:10199000A00985FF07C01092960A1092950A198E29
:1019A00084E1A6C084FF0AC01092960A1092950A9C
:1019B00081E090E0998B888B84E091CF2091950A0B
:1019C0003091960A21153105E1F080FF02C0198A95
:1019D000188A88899989009781F48A899B89821756
:1019E000930720F49093960A8093950A8091950A24
:1019F0009091960A998B888B04C09093960A809355
:101A0000950A1B8E80919A0990919B099093A20947
:101A10008093A1098091950A9091960A892B59F09B
:101A200088899989009739F08896909399098093CD
:101A3000980988E10BC08091A00981FFF2C088E27B
:101A400090E0909399098093980980E18093600ACF
:101A500057C08091A00980FFE4C0198E80E1809377
:101A6000A00935D6DEC08091980990919909009718
:101A700009F059DA9091600A8091A00990FF0BC09B
:101A800080FF06C087E0898F1A8E198A188A18C0CD
:101A900086E0898F15C080FF1BC085E0898F198A79
:101AA000188ABFC08091980990919909009709F010
:101AB0003ADA8091600A80FF0BC087E0898F1A8E26
:101AC00081E090E030DA80E18093A00900D60FC079
:101AD0008091980990919909892B49F4A2C080912D
:101AE000A00980FF9EC087E0898F1A8E9AC080E18E
:101AF0008093600A88E290E0909399098093980916
:101B000080E580935F0A888580935B0A898580934E
:101B10005C0A8A8580935D0A8B8580935E0A8C853A
:101B20008093570A8D858093580A8E858093590A31
:101B30008F8580935A0A86E08093480A8C819D8124
:101B40009093540A8093530A8E819F819093560AF2
:101B50008093550A80912D0A90912E0A90934C0AF9
:101B600080934B0A80912F0A9091300A90934E0AED
:101B700080934D0A888199819093500A80934F0AEF
:101B80008A819B819093520A8093510A898D84FFA8
:101B900005C01092620A1092610A05C082E080932B
:101BA000610A1092620A80E48093470A8091980942
:101BB000909199099093410A8093420A1092660A83
:101BC0001092650A1092640A1092630A0E94981794
:101BD000809590959093640A8093630A85E480933E
:101BE0003F0A1092400A1092460A1092450A8091CC
:101BF000C9079091CA0701969093CA078093C907B5
:101C00009093430A8093440A10924A0A1092490A18
:101C10000E94D4178095909590934A0A8093490A20
:101C200004C010929909109298091092A009DF91AE
:101C3000CF911F91089598278927982708959C018F
:101C4000AB017093960A6093950A1616170654F422
:101C500080919A0990919B092817390719F0B901C9
:101C60000C94F5310895FF920F931F93CF93DF9358
:101C7000DC01FB011092D40760E07BE0683010F5D6
:101C8000769FE0011124C752D84F28813981211550
:101C90003105B1F08A819B81009791F04D915C9163
:101CA00011974217530761F412962D913C911397A7
:101CB0002817390729F46093D407DE0114964FC022
:101CC0006F5FDCCF20E03BE0283090F4329FE001F2
:101CD0001124C752D84F88819981892B39F48A8180
:101CE0009B81892B19F42093D40730C02F5FECCF50
:101CF0002093D407283051F50091D207802F90E02F
:101D000010E070E060E02BE0F22E683098F4F69E70
:101D1000E0011124C752D84FCA85AC014C1B5109B0
:101D2000212F30E0241735071CF4762F102F1C1BB1
:101D30006F5FEBCF1093D1077093D3077093D407E5
:101D40008BE0789FE0011124C752D84F4D915D91EF
:101D50006D917C91DE014D935D936D937D9386E053
:101D600001900D928A95E1F78091D2078A87DF91E1
:101D7000CF911F910F91FF9008951092D4079BE08F
:101D80008091D407883068F4989FF0011124E752BD
:101D9000F84F10821182128213828F5F8093D407D2
:101DA000EFCF089580919809909199090E9790939B
:101DB00099098093980980912D0A90912E0A20917B
:101DC0004B0A30914C0A822793272091290A30919F
:101DD0002A0A82239323892BB9F480912F0A9091A8
:101DE000300A20914D0A30914E0A82279327209184
:101DF0002B0A30912C0A82239323892B29F467E341
:101E00007AE08BE49AE02FCF089580919809909121
:101E1000990910929909109298098A9708F40895DF
:101E20008091450A9091460A811521E0920729F098
:101E30008115924009F475C008952091570A309198
:101E4000580A80912D0A90912E0A2817390709F017
:101E500083C02091590A30915A0A80912F0A90919B
:101E6000300A2817390709F077C067E47AE08DE473
:101E70009AE0F9DE80E092E09093460A8093450A6A
:101E800086E0E7E4FAE0A1E5BAE001900D928A95D8
:101E9000E1F786E0EBECF7E0A7E4BAE001900D9201
:101EA0008A95E1F786E0EBECF7E0A7E3BAE0019072
:101EB0000D928A95E1F786E0E1E5FAE0A1E3BAE068
:101EC00001900D928A95E1F780914D0A90914E0A0A
:101ED0009093580A8093570A80914F0A9091500A24
:101EE00090935A0A8093590A80912D0A90912E0A54
:101EF00090934E0A80934D0A80912F0A9091300A58
:101F00009093500A80934F0A88E096E090933E0A9F
:101F100080933D0A8AE290E0909399098093980912
:101F200008952091570A3091580A80912D0A909176
:101F30002E0A2817390781F42091590A30915A0A3C
:101F400080912F0A9091300A2817390729F467E405
:101F50007AE08DE49AE087CE089520914F0A30917F
:101F6000500A2F3F4FEF340751F48091510A90915E
:101F7000520A019621F486E0E7E6F2E0C6C08091BD
:101F80002D0A90912E0A822793274091290A509179
:101F90002A0A84239523892B91F44091510A509168
:101FA000520A80912F0A9091300A842795276091D8
:101FB0002B0A70912C0A86239723892B89F0809114
:101FC000250A9091260A9093D6078093D507809191
:101FD000270A9091280A9093D8078093D70708C0C2
:101FE0003093D6072093D5075093D8074093D7074F
:101FF0008091D5079091D6072091D7073091D807C7
:1020000060E07BE0683090F4769FF0011124E752A5
:10201000F84F408151818417950731F442815381F3
:102020002417350709F46DC06F5FECCF6093D407B8
:10203000683009F068C046E050E06FEF70E081E37F
:102040009AE00E94FE3126E0E1E5FAE0DF01422F4E
:102050001D924A95E9F7EBECF7E0A7E3BAE0822F8F
:1020600001900D928A95E1F7EBECF7E0A7E4BAE076
:10207000822F01900D928A95E1F78091D50790917A
:10208000D6079093580A8093570A8091D70790916A
:10209000D80790935A0A8093590A80912D0A9091FB
:1020A0002E0A90934E0A80934D0A80912F0A9091A8
:1020B000300A9093500A80934F0A80E091E0909309
:1020C000460A8093450A9093400A80933F0A88E02D
:1020D00090E09093420A8093410A2093430A84E05F
:1020E0008093440A88E096E090933E0A80933D0AEC
:1020F00087E69AE09093A2098093A1098AE290E092
:102100001EC06093D407349686E0A1E3BAE0019044
:102110000D928A95E1F786E0EBECF7E0A7E3BAE0F1
:1021200001900D928A95E1F788E090E090933E0A45
:1021300080933D0A80919809909199090E96909309
:1021400099098093980908950F9300E020E040E0FA
:1021500060E081E398E00E94C1290F9108950F93F8
:1021600000E020E040E060E087E398E00E94C129C1
:102170000F910895DC01ED91FC91008CF18DE02D23
:10218000199591E08927089580E090E00895DC0199
:102190001C96ED91FC911D97309741F08181882329
:1021A00011F081E00895808184FDFBCF80E00895E7
:1021B000FC01448555854115510551F0FB012485ED
:1021C00035852115310521F081E04217530709F0CB
:1021D00080E00895CF93DF931F92CDB7DEB7DC0187
:1021E000ED91FC910088F189E02D41E050E0BE01C5
:1021F0006F5F7F4F199597FD03C0898190E002C002
:102200008FEF9FEF0F90DF91CF910895CF93DF93E2
:10221000EC01A9D3EC85FD85309749F0808186FDDE
:1022200002C081E005C08181882311F0FACF80E0EF
:10223000DF91CF910895CF92DF92EF92FF920F93AB
:102240001F93CF93DF9300D01F92CDB7DEB77C01F1
:102250008B016A01DC01ED91FC910288F389E02D8C
:102260001995F801228130E0322F22278381282B13
:102270003227232732273A832983248130E0322FE3
:1022800022278581282B3227232732273C832B8343
:10229000C601D1DCBC01CE0101960E94CC078C01A5
:1022A000009719F480E090E016C0D80159968C91FF
:1022B0008F70C1F358D3D80159968C9159978F706C
:1022C000833099F75C968D919C915D97F701958786
:1022D000848781E090E00F900F900F900F90DF9136
:1022E000CF911F910F91FF90EF90DF90CF900895C5
:1022F0000F931F93CF93DF931F92CDB7DEB78C015F
:10230000DC01ED91FC910688F789E02D1995882371
:10231000A1F0D8011C96ED91FC911D978181882335
:1023200061F021E030E0AE014F5F5F4F60E070E0B0
:102330000E946604898190E002C08FEF9FEF0F90AA
:10234000DF91CF911F910F910895FC0113821282AA
:1023500048EE53E060E070E0448355836683778302
:1023600081E792E091838083158614860895EF9229
:10237000FF920F931F93CF93DF937C01C0E0D0E0D7
:1023800000E010E0F701EC0FFD1F81810E94D102F7
:10239000080F191F2196C530D105A1F7C801DF919B
:1023A000CF911F910F91FF90EF900895CF93DF93FE
:1023B000EC01E881F9810688F789E02D19958823D9
:1023C00029F08C859D85DF91CF91D1CF80E090E081
:1023D000DF91CF910895CF93DF93EDE3F8E080E0B4
:1023E000908191110AC08061DF018D9380E1ED0140
:1023F00019928A95E9F7CF0106C08F5F71968430F4
:1024000079F780E090E0DF91CF910895FC0131965B
:1024100081E09191911102C0815008958F5F8530C4
:10242000C1F784E008959F92AF92BF92CF92DF925E
:10243000EF92FF920F931F93CF93DF93EC016B0109
:102440007A018A015C0186E0A80EB11C8CD220972B
:1024500009F445C08881807609F041C0C501D6DF06
:10246000982EFE01E80FF11D868181110CC080E0DD
:1024700092E00E947A06FE01E90DF11D8683882311
:1024800029F31C861B86A701401B510B4C0D5D1DBB
:102490006B857C859801FE01E90DF11D86810E9406
:1024A0007604081B190B2B853C85280F391F3C87A8
:1024B0002B87101611062CF484E0981639F29394A9
:1024C000D6CF0E94BB2B665F7F4F8F4F9F4F6D878C
:1024D0007E878F87988BC701801B910B02C08FEF7F
:1024E0009FEFDF91CF911F910F91FF90EF90DF90C1
:1024F000CF90BF90AF909F900895CF93DF931F929E
:10250000CDB7DEB7698341E050E0BE016F5F7F4F1A
:10251000FC018485958587DF0F90DF91CF91089529
:10252000FC01848595857FCF0F931F93CF93DF9315
:102530008C01EC0189910E941807F801C8010496EA
:1025400029912193E817F907D9F7F8011482DF914F
:10255000CF911F910F9108959F92AF92BF92CF920A
:10256000DF92EF92FF920F931F93CF93DF93EC01D3
:102570005B017A01E881F9810688F789E02D1995D8
:10258000882309F455C0EC85FD858181882309F4F1
:1025900052C087012EE1922EA701401B510B4A0D1C
:1025A0005B1DEC85FD85980160E070E081810E94F3
:1025B00066046C01EC85FD8581810E94D102EC8569
:1025C000FD85C816D90649F50C191D09CF010196DC
:1025D000ABDFAC85BD852C91822F90E08F70989EEB
:1025E000F001999EF00D1124EB55F64F818D84FF7B
:1025F00005C0822F807611F420682C93EC85FD8530
:10260000818181110FC0808186FF03C010821D86E9
:102610001C86C701801B910B10C0B60181810E94EE
:102620003A0704C00115110509F0B6CFC70105C06E
:102630008FEF9FEF02C080E090E0DF91CF911F917C
:102640000F91FF90EF90DF90CF90BF90AF909F9051
:1026500008951F93CF93DF93EC0115E088810E94CA
:10266000180719921150D1F7DF91CF911F9108955A
:10267000CF93DF93EC018C859D85009779F0FC0169
:102680002081222359F00196E4DFEC85FD858081CD
:1026900086FF02C0108202C0806280831D861C8675
:1026A000DF91CF9160C1CF93DF93EC01E881F98195
:1026B0000688F789E02D1995882331F08C859D8552
:1026C0000196DF91CF91C5CFDF91CF910895DF9231
:1026D000EF92FF920F931F93CF93DF93E091A309A3
:1026E000F091A409C48DD58D209779F48091A0092B
:1026F00086FF43C070DEEC01009709F43EC0E09114
:10270000A309F091A409958F848F8091A00981FF7E
:1027100007C08091980990919909892B09F041C0CF
:10272000888187FF0EC08F7788838091A00982609F
:102730008093A009E091A309F091A409818D8F7E77
:10274000818F8091A00984FF6BC0CE01069681DF46
:102750008981882309F467C0E091A309F091A40955
:10276000848195819F838E83888180648883E091B2
:10277000A309F091A409158E148EE12CF12CB70158
:102780008091A1099091A2095ADAF0929909E092F8
:102790009809DF91CF911F910F91FF90EF90DF90FB
:1027A00008958881807609F0BBCFE12CF12C8E0151
:1027B0000E0D1F1DF801818181111EC080919809A5
:1027C000909199090E947A06F80181838823A1F0EB
:1027D00000919809109199092091A1093091A209BD
:1027E00021533A404091950860E070E00E94530503
:1027F000F4E0EF1295CF0CC02FEFE21AF20A35E0A9
:10280000E316F104A1F6809192088E7F80939208DE
:10281000E091A309F091A409818D8061818F80CF1F
:1028200087FF03C092CF1882A2CF80FF03C0CE01E2
:1028300006967ADE8091A0098C70D1F18E81882372
:10284000B9F19F8191110CC0EB84FC84E114F10477
:1028500009F493CFA70160E070E00E944D0706C025
:102860000E94D1027C01009709F487CF8091A109D1
:102870009091A20981539A4080939308F701E80F41
:10288000F11DCF010E947A0680939408882309F4F1
:1028900076CF6091930870E0870120E030E04E81B0
:1028A0000E9453058091920882608093920867CFBE
:1028B000888185FF62CF8E8181110BC01882E091E3
:1028C000A309F091A409158E148E80E18093A009CC
:1028D00054CFE091A309F091A409818D8061818F8B
:1028E0004CCF0F9300E020E040E060E081E898E00A
:1028F0000E94C1290F9108958091920881FF11C013
:102900002091930830E041E35AE060E070E080916C
:1029100094080E947604809192088D7F809392089B
:1029200014C080919809909199090E947A06809329
:1029300094088823B1F0209198093091990941E3D6
:102940005AE060E070E00E947604809194080E9452
:10295000D004809194080E9418071092940881E096
:10296000089580E00895CF92DF92EF92FF921F9337
:10297000CF93DF9380919508811104C00E94D80302
:102980008093950880919508882309F443C091E0CD
:10299000909392080E94D10290939909809398098C
:1029A000892B61F122E630E041E35AE060E070E01B
:1029B000809195080E94660480913D0A90913E0A9C
:1029C0008830910581F48091950880939408EAD924
:1029D00081E00E9450088091980990919909892B73
:1029E00069F0BBDA0AC08830964041F40EDA809173
:1029F000980990919909892B09F07EDF80919508BB
:102A0000882341F08091920880FF04C00E94D70380
:102A1000109295080E94BB2B6B017C018091880865
:102A200090918908A0918A08B0918B08A70196011E
:102A3000281B390B4A0B5B0BDA01C9018095909575
:102A4000A095B0958827B7FD83959927AA27BB271E
:102A5000182FC5EAD9E0D093A409C093A309112384
:102A600011F082E00FC0EC8DFD8D458556856785A0
:102A70007089D701C601841B950BA60BB70BB7FD58
:102A80000BC083E00E945008209198093091990969
:102A9000232B11F062DA30DF6E969AE0CD31D90740
:102AA000D1F6112369F0AAEFCA0ED11CE11CF11C6A
:102AB000C0928808D0928908E0928A08F0928B0828
:102AC000DF91CF911F91FF90EF90DF90CF9008950D
:102AD000CF93DF93EC010E94BB2B66507F4F8F4F4B
:102AE0009F4F609388087093890880938A08909319
:102AF0008B08CE010E949A0588818093CB0789813B
:102B00008093CC078A818093CD078B818093CE07F9
:102B10008C818093CF078D818093D0070E94AC0772
:102B2000DF91CF912AC9CF93DF93FC01DA01E9014C
:102B3000228130E0322F22278381282B848190E06C
:102B4000982F88274581842B3227232732273093DB
:102B50002E0A20932D0A9827892798279093300AC8
:102B600080932F0A12962C91129730E0322F222751
:102B700013968C911397282B14968C91149790E0B0
:102B8000982F882715964C91842B3227232732279C
:102B90003093260A2093250A98278927982790930F
:102BA000280A8093270A2A8130E0322F22278B813E
:102BB000282B8C8190E0982F88274D81842B3227F9
:102BC0002327322730932A0A2093290A9827892716
:102BD000982790932C0A80932B0AFB018281938182
:102BE000A481B58180938E0890938F08A09390085C
:102BF000B0939108DF91CF910895AF92BF92CF9299
:102C0000DF92EF92FF920F931F93CF93DF93CDB795
:102C1000DEB768970FB6F894DEBF0FBECDBFCB010D
:102C20006A01590155DF20E036E03A832983F70134
:102C300082819381A481B5818B839C83AD83BE8384
:102C400038872F83F80182819381A481B581898798
:102C50009A87AB87BC873E872D87F5018281938158
:102C6000A481B5818F87988BA98BBA8B3C8B2B8BDA
:102C7000F60182819381A481B5818D8B9E8BAF8B70
:102C8000B88F9E012F5F3F4FAE01495F5F4FBE017E
:102C9000635F7F4FCE01439646DF68960FB6F89488
:102CA000DEBF0FBECDBFDF91CF911F910F91FF907F
:102CB000EF90DF90CF90BF90AF9008956F927F928A
:102CC0008F929F92AF92BF92CF92DF92EF92FF923C
:102CD0000F931F93CF93DF93CDB7DEB76E970FB6E9
:102CE000F894DEBF0FBECDBF6C015B017A014901D4
:102CF000380100E02FEF4FEF6FEFCE0149960E94B1
:102D0000C12920E036E03A8329838B8D9C8DAD8DDF
:102D1000BE8D8B839C83AD83BE8338872F83F30165
:102D200082819381A481B58189879A87AB87BC878B
:102D30003E872D87F40182819381A481B5818F879D
:102D4000988BA98BBA8B3C8B2B8BF70142815381DB
:102D5000648175814D8B5E8B6F8B788FCE01019670
:102D60007C018E01095F1F4F9E01235F3F4FAE0123
:102D70004D5E5F4FB501C60140DF6E960FB6F89409
:102D8000DEBF0FBECDBFDF91CF911F910F91FF909E
:102D9000EF90DF90CF90BF90AF909F908F907F90FB
:102DA0006F900895CF92DF92EF92FF920F931F934F
:102DB000CF93DF93CDB7DEB768970FB6F894DEBF39
:102DC0000FBECDBF6B017901DA0112964D915D9175
:102DD0006D917C9115974D8B5E8B6F8B788FA0E0FA
:102DE000B6E0BA83A98321E0288F0D891E892F8937
:102DF000388D0B831C832D833E83B887AF83F70107
:102E0000028113812481358109871A872B873C87AA
:102E1000BE87AD874F87588B698B7A8B8E010F5F8A
:102E20001F4F9E01295F3F4FAE01435F5F4FB601C9
:102E300045DF68960FB6F894DEBF0FBECDBFDF91B9
:102E4000CF911F910F91FF90EF90DF90CF90089559
:102E50000F931F93CF93DF93CDB7DEB762970FB673
:102E6000F894DEBF0FBECDBFDB01FA014281538172
:102E7000648175814F87588B698B7A8BE0E0F6E02F
:102E8000FA83E98321E02A8B0F85188929893A89F9
:102E90000B831C832D833E83F887EF8349875A87F2
:102EA0006B877C879E012F5F3F4FAE01495F5F4F6D
:102EB000BD0178DF62960FB6F894DEBF0FBECDBFBE
:102EC000DF91CF911F910F910895FB01415051095E
:102ED000460F571FE417F50778F4208130E0322FB2
:102EE00022276181260F311D820F931F82179307BE
:102EF00008F401963296EECFE417F50751F42081DD
:102F000030E0322F2227820F931F8217930708F495
:102F10000196089544E150E06FE37AE080E090E0AC
:102F2000D4DF009711F00C941B0E8FEF9FEF0895E4
:102F30000F931F93CF93DF938091410A90E0982FD6
:102F400088272091420A820F911D8C01045111099A
:102F500048E050E06BE47AE00E97B7DFC0915F0A7B
:102F6000C695C695CC73D0E0AE0163E57AE0ADDFDF
:102F7000C017D10750F498012C1B3D0BAE014E5DDC
:102F80005F4F609194080E942106009731F0DF9115
:102F9000CF911F910F910C941B0E8FEF9FEFDF913C
:102FA000CF911F910F910895B5CF0F9300E020E0CE
:102FB00040E060E086E998E00E94C1298CE898E052
:102FC0000F910C94B7290F9300E020E040E060E0FF
:102FD0008CE998E00E94C1290F9108950F9300E0B9
:102FE00020E040E060E082EA98E00E94C1290F9171
:102FF0000895FC0110820895CF92DF92EF92FF9224
:10300000CF93DF93EC016A017B018B859C85AD85B5
:10301000BE859A01AB01281B390B4A0B5B0BDA0109
:10302000C90149815A816B817C8184179507A60764
:10303000B707D8F08881813019F0823029F00CC0B0
:10304000E985FA85199508C061E08885811160E0FD
:1030500068878F810E94072DCB86DC86ED86FE86F1
:103060008F8598890196988B8F878D819E8197FD9A
:1030700006C02F853889281739070CF01882DF9190
:10308000CF91FF90EF90DF90CF9008950F931F9313
:10309000CF93DF93EC018C0106551F4FCE01A9DFC2
:1030A0006196C017D107D1F7DF91CF911F910F9192
:1030B0000895CF92DF92EF92FF921F93CF93DF9309
:1030C0006A017B01EC011AE08881882321F0B701B5
:1030D000A601CE0191DF115061961111F5CFDF915C
:1030E000CF911F91FF90EF90DF90CF900895CF93F5
:1030F000DF93EC010E94BB2BAB01BC01CE01DF9141
:10310000CF91D7CF20E0FC013081332331F02F5F06
:1031100041962A30C1F78FEF0895822F0895CF92FC
:10312000DF92EF92FF920F931F93CF93DF9300D024
:103130001F92CDB7DEB76C01790149835A836B8347
:103140007C83E0DF282F49815A816B817C818F3F0E
:10315000D9F081E12802C00CD11C112481E0F601D4
:103160008083418352836383748316830583F2864D
:10317000E18629830E94BB2BF601638774878587CC
:103180009687108A17862981822F0F900F900F90B3
:103190000F90DF91CF911F910F91FF90EF90DF90F3
:1031A000CF9008950F931F930FEF1FEFB8DF1F917C
:1031B0000F91089521E932E0FC01318320830895C5
:1031C00021E932E0FC01318320830C94702B21E94A
:1031D00032E0FC013183208308950F9300E020E06A
:1031E00040E060E088EA98E00E94C1290F910895CC
:1031F00029EC32E0FC0131832083F7C4CF93DF93C5
:10320000EC01F6DFCE01DF91CF910C94702BCF92C1
:10321000DF92EF92FF920F931F93CF93DF93CDB77F
:10322000DEB72A970FB6F894DEBF0FBECDBF7C0184
:103230006B01F7D48E010F5F1F4F22E044E00E9424
:10324000482FC701FAD4A801BC01C6010E94172467
:10325000C701F7D4882339F049E952E06FEB72E0F7
:10326000C6010E9417242A960FB6F894DEBF0FBE3F
:10327000CDBFDF91CF911F910F91FF90EF90DF9025
:10328000CF9008950F93CF93DF93EC0100E060E0BF
:1032900070E0B8D489EC92E099838883DF91CF9174
:1032A0000F9108950F9300E020E040E060E08EEA87
:1032B00098E00E94C1290F91089523E033E0FC01BA
:1032C0003183208392C4CF93DF93EC01F6DFCE01EC
:1032D000DF91CF910C94702BAF92BF92CF92DF927F
:1032E000EF92FF920F931F93CF93DF938C01EB012B
:1032F00098D46B017C01C801A0D45C0120E030E0CF
:10330000A901C701B6010E94CA2D882319F04FEC0C
:1033100052E002C046ED52E0B501CE010E941724F2
:10332000C8018FD4882389F04BED52E06FEB72E037
:10333000CE01DF91CF911F910F91FF90EF90DF9021
:10334000CF90BF90AF900C941724DF91CF911F9135
:103350000F91FF90EF90DF90CF90BF90AF900895C6
:103360000F93CF93DF93EC0100E062E070E04AD46A
:1033700083E093E099838883DF91CF910F91089543
:103380000F9300E020E040E060E084EB98E00E94D2
:10339000C1290F910895DB01ED91FC9111970680F1
:1033A000F781E02DBC01CD011994DF92EF92FF92DD
:1033B0000F931F93CF93DF9300D000D0CDB7DEB72C
:1033C0008C017B018091BA089091BB088617970702
:1033D00021F07093BB086093BA08C801A9D6D82E13
:1033E000811122C02FE333E0A90169E073E0C80135
:1033F0000E9418228823C1F069E073E0CE01019693
:103400000E942E2B49E053E0BA01C8010E94172404
:10341000E114F10419F0B701C801BDDFCE01019636
:103420000E94C72ADD24D3948D2D26960FB6F894DA
:10343000DEBF0FBECDBFDF91CF911F910F91FF90E7
:10344000EF90DF900895AB01A091BA08B091BB084E
:10345000ED91FC9111970480F581E02DBC01CD0127
:103460001994CF93DF93CDB7DEB72A970FB6F894B0
:10347000DEBF0FBECDBFDB01FE013196BF019F0154
:10348000261B370B4217530718F02D912193F7CFC6
:10349000FB01E40FF51F1082D6DF2A960FB6F894D1
:1034A000DEBF0FBECDBFDF91CF9108950F9300E037
:1034B00020E040E060E08CEB98E00E94C1290F9191
:1034C000089523E233E0FC0131832083089523E251
:1034D00033E0FC01318320830C94702B0F931F93F6
:1034E000CF93DF931F92CDB7DEB78C01FC016483CD
:1034F000828169830E943C2D6981262F30E08217EA
:10350000930721F0F80182810E94072DF801848140
:10351000882319F04CE153E002C04EE553E0F80176
:1035200065817681878190850F90DF91CF911F9182
:103530000F910C941724EF920F931F93CF93DF9367
:10354000EC01862FE3E2F3E0F983E88318870F8329
:103550006A837B834C833E832D83E98661E00E94EE
:10356000CE2C60E0CE01DF91CF911F910F91EF90B3
:10357000B5CF0F9300E020E040E060E082EC98E0FF
:103580000E94C1290F91089520EF33E0FC0131839F
:103590002083089520EF33E0FC01318320830C94D5
:1035A000702BFC0180EF93E09183808373836283AF
:1035B000478F82E090E09583848340E050E068ECA0
:1035C00071E440875187628773871486158681E48A
:1035D00090E0918B808B128A168A128E178A108E39
:1035E000118E0895EF92FF920F931F93CF93DF9365
:1035F0008A01E9016130710581F062307105C1F025
:10360000672B11F58DE090E00E946F2B7C019E01ED
:10361000A80160E070E036DE15C08DE090E00E9409
:103620006F2B7C019E01A80161E070E060D30AC0AD
:103630008EE090E00E946F2B7C019E01A80162E069
:1036400070E08EDEC70102C080E090E0DF91CF9194
:103650001F910F91FF90EF9008958F929F92AF92DC
:10366000BF92CF92DF92EF92FF92CF93DF93EC0164
:103670008C819D81892B11F41A8A45C08E859F8586
:10368000009709F440C0CDD24B015C018F8988239B
:1036900069F168897989882777FD8095982F0E943C
:1036A000D02D6B017C0120E030E040E450E4C50106
:1036B000B4010E94652D9B01AC01C701B6010E94B7
:1036C000CA2D18161CF081E08A8B10C020E030E073
:1036D00040E450E4C501B4010E94662D9B01AC0199
:1036E000C701B6010E94802E87FF1A8A8F8D88231A
:1036F00041F047E253E06FEB72E08A819B810E94C8
:1037000017248A8901C080E0DF91CF91FF90EF906C
:10371000DF90CF90BF90AF909F908F9008958F9241
:103720009F92AF92BF92CF92DF92EF92FF92CF9390
:10373000DF93EC018C819D81892B11F41C863FC0A5
:103740008E819F810097D9F16CD24B015C018E89EB
:10375000882341F1C884D984EA84FB8420E030E0E6
:1037600040E05FE3C501B4010E94662D9B01AC01FE
:10377000C701B6010E94802E87FD03C081E08C87BF
:1037800011C020E030E040E05FE3C501B4010E94D9
:10379000652D9B01AC01C701B6010E94CA2D181608
:1037A0000CF01C868F8D882341F040E453E06FEBD2
:1037B00072E08A819B810E9417248C8501C080E081
:1037C000DF91CF91FF90EF90DF90CF90BF90AF90BF
:1037D0009F908F9008958F929F92AF92BF92CF92B9
:1037E000DF92EF92FF92CF93DF93EC018C819D816A
:1037F000892B11F41D863DC08E819F810097C9F1F0
:1038000010D24B015C018A8D882339F1C884D98498
:10381000EA84FB8420E030E040E05FE3C501B401CE
:103820000E94652D9B01AC01C701B6010E94CA2D03
:1038300018161CF081E08D8710C020E030E040E0D9
:103840005FE3C501B4010E94662D9B01AC01C70175
:10385000B6010E94802E87FF1D868F8D882339F048
:1038600040E453E06FEB72E08A819B81E0D78D8565
:1038700001C080E0DF91CF91FF90EF90DF90CF907B
:10388000BF90AF909F908F900895CF92DF92EF926C
:10389000FF920F931F93CF93DF938C016B01DC0199
:1038A0005D96ED90FC905E97C0E0D0E0CE15DF0510
:1038B0009CF4D8015B96ED91FC915C97CE01880F4A
:1038C000991FE80FF91FB601808191810E9405328E
:1038D000892B21F02196EACF80E001C081E0DF91C1
:1038E000CF911F910F91FF90EF90DF90CF900895AF
:1038F000CF92DF92EF92FF920F931F93CF93DF93BC
:103900007A016901EB0100E010E00E151F053CF49F
:1039100069917991C601F3D70F5F1F4FF6CFDF9101
:10392000CF911F910F91FF90EF90DF90CF9008956E
:103930009B01FC01458D568D638D748DD9CFCF933E
:10394000DF93EB01CA016CE173E00E940532892B21
:1039500011F461E001C060E0CE01DF91CF91BECDF6
:10396000CF93DF93EC018E89E881F981882319F0E8
:103970008C85811105C00680F781E02D60E004C0D0
:103980000680F781E02D61E0CE0119958A8DE881EE
:10399000F981882341F08D85882329F00084F18501
:1039A000E02D61E004C00084F185E02D60E0CE01EF
:1039B00019958F89E881F981882341F08A898823C4
:1039C00029F00284F385E02D61E004C00284F385D0
:1039D000E02D60E0CE01DF91CF911994CF93DF937A
:1039E000EC013BDECE019BDECE01F5DECE01DF91A8
:1039F000CF91B6CF0F931F93CF93DF93EC018B0141
:103A00006AE573E0C8010E940532892B19F41D8212
:103A10001C8214C062E673E0C8010E940532892B43
:103A200049F481E090E09D838C83DF91CF911F91D9
:103A30000F91089582E090E09D838C83CE01DF9109
:103A4000CF911F910F91CACFCF93DF93EC018E815D
:103A50009F81009789F0EBD0CE0161DECE01BBDE05
:103A60008E819F81DC01ED91FC916A817B810190C7
:103A7000F081E02D199507C049E653E06FEB72E045
:103A80008A819B81D4D68C819D81019721F0CE01C2
:103A9000DF91CF9165CFDF91CF9108950F931F9361
:103AA000CF93DF93EC010E851F8501151105E9F019
:103AB000882777FD8095982F0E94D02DAB01BC01FF
:103AC000C801B5D0CE01C9DD8E859F85DC01ED91A1
:103AD000FC916A817B810190F081E02D19958F8D99
:103AE000882351F04BE753E002C046E953E06FEB07
:103AF00072E08A819B819BD68C819D81019731F0F8
:103B0000CE01DF91CF911F910F912ACFDF91CF91FD
:103B10001F910F910895CF93DF93EC014887598748
:103B20006A877B878F8D882339F047EA53E06FEBF4
:103B300072E08A819B817BD6CE01F1DDCE014BDE26
:103B40008C819D81019721F0CE01DF91CF9108CF2B
:103B5000DF91CF910895CF93DF93EC01798B688B40
:103B60008F8D882339F04BEC53E06FEB72E08A8144
:103B70009B815DD6CE0171DD8C819D81019721F005
:103B8000CE01DF91CF91ECCEDF91CF910895FC0172
:103B9000828193810895FC01878D0895FC01678FD0
:103BA0000895FC01778766870895FC017783668313
:103BB0000895FC01628F0895FC01668B0895FC0155
:103BC000678B0895FC01748F638F0895FC01768FD5
:103BD000658F08950F9300E020E040E060E088ECFE
:103BE00098E00E94C1290F91089520E034E0FC0183
:103BF00031832083089520E034E0FC013183208369
:103C00000C94702B0F93FC0180E094E091838083EF
:103C100073876287538342833583248304870F919C
:103C20000895FC0166817781808591850895FC0166
:103C300046835783608771870895FC01848195814D
:103C40000895FC01848508950F9300E020E040E092
:103C500060E08EEC98E00E94C1290F91089523E363
:103C600034E0FC0131832083C0CFCF93DF93EC019C
:103C7000F6DFCE01DF91CF910C94702BCF92DF92C3
:103C8000EF92FF920F931F93CF93DF93CDB7DEB7E1
:103C90002A970FB6F894DEBF0FBECDBF7C016B0133
:103CA000C0DF8E010F5F1F4F22E045E00E94482FCA
:103CB000C701C3DFA801BC01C601B9D5C701C1DF77
:103CC000882331F046E054E06FEB72E0C601AFD5D7
:103CD0002A960FB6F894DEBF0FBECDBFDF91CF910D
:103CE0001F910F91FF90EF90DF90CF9008950F9369
:103CF000CF93DF93EC0100E061E070E083DF83E3CA
:103D000094E099838883DF91CF910F9108950F9369
:103D100000E020E040E060E084ED98E00E94C129EE
:103D20000F910895FC0113861586148627E030E074
:103D3000DF01A20FB31F13961C922115310519F054
:103D400021503109F5CF08951F93CF93DF93EC01F4
:103D5000162F60E0812F0E94CE2C612F70E0FB01B6
:103D6000E25AFE4FE491E883FB01EC55FE4FE491EB
:103D7000F0E0EE0FFF1FE651FE4F859194919A837C
:103D80008983CE01DF91CF911F91CCCFCF92DF926B
:103D9000EF92FF920F931F93CF93DF93EC018B0170
:103DA0000E94BB2B6B017C0188819981DC01ED9124
:103DB000FC910480F581E02D1995892B69F40E940E
:103DC000BB2B6C197D098E099F0968397A438105DF
:103DD000910550F380E00CC088819981DC01ED9160
:103DE000FC910680F781E02D1995F801808381E030
:103DF000DF91CF911F910F91FF90EF90DF90CF90C7
:103E000008950F931F93CF93DF93EA0108811981DF
:103E1000600F711FBBDF882331F00F5F1F4F1983C5
:103E2000088381E001C080E0DF91CF911F910F9165
:103E300008953F924F925F926F927F928F929F92DE
:103E4000AF92BF92CF92DF92EF92FF920F931F93A8
:103E5000CF93DF9300D0CDB7DEB78C016B011A8210
:103E600019825C0182E0A80EB11CAE014F5F5F4F6A
:103E7000B501C801C6DF811103C080E090E0B9C080
:103E8000D80112969C901B82E12CF12C412C512CD4
:103E900032014394BE016D5F7F4FC80177DF8823F5
:103EA00061F329813A81C90101969A8389836B81E3
:103EB000F801E20FF31F6283462F4F7750E0449DD5
:103EC0009001459D300D549D300D1124E20EF31EDE
:103ED00097E0440C551C661C771C9A95D1F767FD3A
:103EE000D9CF292D207F33243394203309F0312C6E
:103EF0008150F6018083332031F1AE014F5F5F4F77
:103F0000B501C8017EDF882309F4B7CFAE014F5F4A
:103F10005F4FB501C80175DF882309F4AECFD60124
:103F20008C91F801E80FF11D4380512C542C44244E
:103F30008481480E511CF801828181FF08C0F2E0A3
:103F40004F0E511C04C080E0412C512C01C082E076
:103F5000A82EB12C612C712C480189E9880E911C86
:103F6000C3018A0D9B1D8E159F0598F5BE016D5FDF
:103F70007F4FC8010BDF882309F47FCFD4018D91D7
:103F80009C910097A9F0332099F029813A81225021
:103F90003109F6014081241B31094216530640F4D1
:103FA000DC01ED91FC910190F081E02D6B81199580
:103FB00089819A818038910528F42B81F801E80FD6
:103FC000F91F228301969A838983BFEF6B1A7B0ABC
:103FD000C7CFF801E756FF4F80819181892B39F4D3
:103FE00089819A818138910510F01A82198289811C
:103FF0009A810F900F900F90DF91CF911F910F91A9
:10400000FF90EF90DF90CF90BF90AF909F908F90F8
:104010007F906F905F904F903F900895AF92BF92C6
:10402000CF92DF92EF92FF920F931F93CF93DF9384
:1040300000D01F92CDB7DEB77C01F90180E09E2F42
:104040009F77EE0FEF2FEE1FFF0BF195309709F0E2
:104050009068A1E0B0E0AC0FBD1FA80FB11D9C930C
:104060008F5F309761F7A82EB12CDA01AA19BB092E
:1040700014966C93BE016F5F7F4F80E090E04A1909
:104080005B098A159B0554F4FB01D190BF018A019D
:10409000080F191FF801D5820196F3CFF70180812F
:1040A000918189010F5F1F4F0A0D1B1DFC012081AB
:1040B0003181F90122813381A801BD01F9011995EE
:1040C0006C010E94BB2BF701EC57FF4F608371839B
:1040D0008283938381E0C016D10609F080E00F90BF
:1040E0000F900F900F90DF91CF911F910F91FF9044
:1040F000EF90DF90CF90BF90AF900895C9010296E6
:10410000DB01FD01E61BF70B2D91222331F0FA01B3
:10411000E80FF91F20830196F4CF9C012E1B3F0B63
:10412000240F351FD9011297FC931196EC93089533
:10413000CF93DF93EC0188819981009731F1DC0105
:10414000ED91FC910488F589E02D199581111FC02E
:10415000FE01E556FF4F80819181892BB1F48DEFEF
:104160009FEF9183808388819981DC01ED91FC919F
:104170000284F385E02D199588819981DC01ED9108
:10418000FC910288F389E02D199580E001C081E05F
:10419000DF91CF9108952F923F924F925F926F924D
:1041A0007F928F929F92AF92BF92CF92EF92FF92A7
:1041B0000F931F93CF93DF93CDB7DEB72E970FB634
:1041C000F894DEBF0FBECDBF4C011B012A0139019F
:1041D000AFDF811114C1F401EB56FF4F6081718193
:1041E000D4018D919C911197A956BF4FFC0120815C
:1041F00031816115710541F04D915C91D9011E9697
:10420000ED91FC911F971FC0F9010484F585E02D05
:10421000FE87ED87ED91FC9120E036E03A8329831B
:10422000D401A157BF4F12964D915D916D917C9134
:1042300015974B835C836D837E83AF01BE016F5FF7
:104240007F4FED85FE851995F4018130910509F0C8
:10425000CEC0EE57FF4F9183808389E0E5E1F2E025
:10426000DE01119601900D928A95E1F7FE013196DB
:1042700080E090E02191D401A80FB91F17962C93EC
:10428000019689309105B1F70115110559F0F0E259
:10429000CF9EC0011124866028E0E29E70011124A7
:1042A0008E2901C082E04114510431F0611471047F
:1042B00011F4806801C0806CD40150968C935097A3
:1042C00051961C9251978FE052968C937401B2E0F4
:1042D000EB0EF11C21E130E0A701B101C4010EDFBA
:1042E0000115110551F09C01A701B801C40106DFB9
:1042F0009C01A701B501C40101DF4114510469F01B
:104300009C01A701B201C401F9DE6114710429F016
:104310009C01A701B301C401F1DE9C0125503109C4
:10432000A70160E1C4017ADE0E94BB2BF401EC57C7
:10433000FF4F6083718382839383840108571F4FEB
:10434000F8016083718382839383F401808191817A
:10435000DC01ED91FC910480F581E02D1995892B0C
:10436000C1F40E94BB2BD8014D905D906D907C9064
:10437000641975098609970968397A438105910599
:1043800020F3F401E556FF4F8CEF9FEF918380837C
:1043900023C0BE01665F7F4FC4014BDD0497E1F48B
:1043A000F4018581940125563F4F7901811110C098
:1043B0000E94BB2BD8016D937D938D939C93139793
:1043C000F401E457FF4F1082F7011182108217C0E9
:1043D00090E0D9018D939C93F40180819181DC015F
:1043E000ED91FC910288F389E02D199506C0E55600
:1043F000FF4F8EEF9FEF9183808380E001C081E0CB
:104400002E960FB6F894DEBF0FBECDBFDF91CF91D1
:104410001F910F91FF90EF90CF90BF90AF909F9022
:104420008F907F906F905F904F903F902F90089566
:10443000AF92BF92CF92EF920F931F93A12CB12C0A
:10444000C12CE12C00E010E0A6DE1F910F91EF904F
:10445000CF90BF90AF9008952F923F924F925F926E
:104460006F927F928F929F92AF92BF92CF92DF9284
:10447000EF92FF920F931F93CF93DF9300D01F9281
:10448000CDB7DEB78C014DB65EB652DE882309F497
:1044900041C10E94BB2B6B017C01580128E8A20E90
:1044A000B11CF50180819181A281B381A7019601A0
:1044B000281B390B4A0B5B0BDA01C90189399A4376
:1044C000A105B10590F4349780819181A281B381D7
:1044D000A7019601281B390B4A0B5B0BDA01C901B6
:1044E00089399A43A105B105C0F148014CE8840E11
:1044F000911CD4012C91F80180819181222371F0CB
:10450000E556FF4F2CEF3FEF31832083DC01ED9127
:10451000FC910288F389E02D1995FCC020ECF8018C
:1045200022831382DC01ED91FC910280F381E02D66
:1045300042E050E0B8016E5F7F4F1995F801EC57EB
:10454000FF4FC082D182E282F382F501C082D18224
:10455000E282F38281E0D4018C93F8018081918121
:10456000DC01ED91FC910480F581E02D1995892BFA
:1045700009F4D2C0BE016F5F7F4FC8015ADCFC0155
:10458000009709F4C9C0D501CD92DD92ED92FC925D
:104590001397D80112968C91807F803309F09FC0C9
:1045A0004801BDE88B0E911CD4018D919C91892B03
:1045B00009F4B2C02DB63EB6698170E0D801A60FED
:1045C000B71F13964C91139750E0542F442714961D
:1045D0008C911497480F511DCA0101962DB73EB713
:1045E000281B390B0FB6F8943EBF0FBE2DBF8DB7F9
:1045F0009EB701965C0120E030E0BC83AB832417BA
:10460000350769F06B807C80620E731ED3011596AE
:104610006C90D5016D925D012F5F3F4FF0CFDC01B3
:10462000A20FB31F1C92D8011296BC91B670BA8328
:10463000B230E9F53901660E771ED801A60DB71D17
:104640001596AC901597B12CBA2CAA2416964C91BD
:10465000A40EB11C4BEF5FEF461B570B421B530BD5
:104660004E0F5F1FB301695F7F4F600F711FD40151
:10467000ED91FC91199580E4F80182837A80738230
:10468000B482A582D8018D919D91BD01DC01ED918F
:10469000FC910280F381E02D44E050E01995F8018F
:1046A000EC57FF4FC082D182E282F38212C04DEFFD
:1046B0005FEF461B570B421B530B4E0F5F1F620FE2
:1046C000731F6B5F7F4F600F711FD401ED91FC91E1
:1046D00019950FB6F8943EBE0FBE2DBE1DC0803C8E
:1046E00091F480EDF80182831382D8018D919D9120
:1046F000BD01DC01ED91FC910280F381E02D42E0EF
:1047000050E0199509C0803D39F4F801E457FF4F96
:10471000108202C080E001C081E00FB6F8945EBE56
:104720000FBE4DBE0F900F900F900F90DF91CF9165
:104730001F910F91FF90EF90DF90CF90BF90AF90BF
:104740009F908F907F906F905F904F903F902F90B1
:1047500008958F929F92BF92CF92DF92EF92FF9235
:104760000F931F93CF93DF931F921F92CDB7DEB7A6
:104770004C01B42E152F790169837A83D9DC6981C4
:104780007A81882309F444C0FB0101900020E9F7F5
:104790003197E61BF70BC70107968E0F9F1F8138D5
:1047A0009105B0F5640182E0C80ED11C25E030E02F
:1047B000A601C401A3DCEB2DF12F60E070E09401B1
:1047C000280F391F6E157F0549F04191D901A60FB9
:1047D000B71F12964C936F5F7F4FF4CF011102C049
:1047E00060E301C061E3970125503109280F391FAB
:1047F000A601C4010F900F90DF91CF911F910F91EF
:10480000FF90EF90DF90CF90BF909F908F9006CC5D
:1048100080E00F900F90DF91CF911F910F91FF904B
:10482000EF90DF90CF90BF909F908F9008950F935F
:10483000FA0101900020E9F79F0121503109241B62
:10484000350B00E086DF0F910895CF92DF92FF9243
:104850000F931F93CF93DF931F921F92CDB7DEB7B5
:104860006C01F42E81E0841708F43EC0FB01019036
:104870000020E9F7E61BF70B3896E138F105A0F5C3
:10488000C60169837A8354DC69817A81882361F166
:10489000F601EE57FF4F80819181019611F481E07E
:1048A00090E09183808380819181F6019783808756
:1048B00086010E5F1F4F27E030E0A801C6011EDC15
:1048C000F601E80FF91FF2829C0124503109A8017A
:1048D00062E8C6010F900F90DF91CF911F910F9169
:1048E000FF90DF90CF909ACB80E00F900F90DF91F8
:1048F000CF911F910F91FF90DF90CF90089540E0EE
:10490000A4CFCF92DF92EF92FF920F931F93CF939A
:10491000DF93CDB7DEB72C970FB6F894DEBF0FBE8E
:10492000CDBF7C01FB016A0103812281418160814D
:10493000CE01079626D509851A852B853C85F7017A
:10494000E157FF4F02831383248335833896D18246
:10495000C082329711821082C7012C960FB6F8944C
:10496000DEBF0FBECDBFDF91CF911F910F91FF90A2
:10497000EF90DF90CF900895CF92DF92EF92FF9269
:104980000F931F93CF93DF9300D01F92CDB7DEB765
:104990006C01790181579F4F4B835C8369837A83D4
:1049A000E6D4F601E556FF4F8FEF9FEF91838083AA
:1049B0004B815C8169817A81C601A3DFF601E357EF
:1049C000FF4FF182E082F60111830083E756FF4F2B
:1049D000118210820F900F900F900F90DF91CF9166
:1049E0001F910F91FF90EF90DF90CF9008950F935C
:1049F00000E020E040E060E08AED98E0C2D40F9152
:104A000008950895FC0181E095E2928B818B768375
:104A100065831482108289E0818381E082838383AD
:104A20000895CF93DF93EC0185EB95E0998388831C
:104A300088A199A1009739F0DC01ED91FC910280E9
:104A4000F381E02D19958AA19BA1009739F0DC0133
:104A5000ED91FC910280F381E02D19958CA19DA12F
:104A6000009739F0DC01ED91FC910280F381E02D9B
:104A70001995CE01DF91CF910C94C41ACF93DF9397
:104A8000EC01CFDFCE01DF91CF912AC61F93CF93E8
:104A9000DF93EC01162F88A199A10E946E1A612F55
:104AA0008AA19BA1DF91CF911F910C946E1AFC01FA
:104AB00084A195A10C946E1AFC0186A197A10C9477
:104AC0006E1AEF92FF920F931F93CF93DF93CDB7A0
:104AD000DEB72C970FB6F894DEBF0FBECDBF8C01AA
:104AE0007A01CE010796BAD5B701CE010196B6D5A7
:104AF00069E374E0CE010796C6D5882329F0B70193
:104B0000C8010E94FA1C57C061E574E0CE01079607
:104B1000BAD5882349F0C7010E94CD31AB01BC0151
:104B2000C8010E948B1D47C068E774E0CE0107965C
:104B3000AAD5882321F0F80160A171A10AC064E917
:104B400074E0CE0107969FD5882341F0F80162A159
:104B500073A1A701C8010E949F1C2DC060EB74E0E7
:104B6000CE01079690D5882321F0F80164A175A1A4
:104B7000F0CF6FEC74E0CE01079685D5882321F045
:104B8000F80166A177A1E5CF66EE74E0CE01079645
:104B90007AD5882341F0C7010E94D031BC01C801F9
:104BA0000E94AB1D08C0C8010E94C71D4AE055E025
:104BB0006FEB72E03CDECE010196E9D4CE010796A0
:104BC000E6D42C960FB6F894DEBF0FBECDBFDF91B2
:104BD000CF911F910F91FF90EF900895AF92BF92E8
:104BE000CF92DF92EF920F931F93CF93DF93EC015D
:104BF0006B01B42E40E00E94D11A85EB95E09983B9
:104C000088838EE0EEE1F2E0DE01989601900D924D
:104C10008A95E1F76B2DCE010E94CE1DCE010E9438
:104C2000CB1D882331F042E255E06FEB72E0C60104
:104C3000FEDD8AE090E053D55C01E12C86012BE398
:104C400035E040E06EE170E00E949B1AB9A2A8A294
:104C50008AE090E044D55C0129E535E040E06FE171
:104C600070E00E949B1ABBA2AAA261E0CE010E9442
:104C7000DC1D8AE090E033D55C0127E735E040E0B9
:104C800069E270E00E949B1ABDA2ACA261E0CE0175
:104C90000E94D91D8AE090E022D55C0128E935E028
:104CA00040E06AE270E00E949B1ABFA2AEA261E0FF
:104CB000CE010E94DF1D2CE232E0A60161E070E02F
:104CC000CE010E94F21ABC01CE010E94D51D2BE438
:104CD00032E0A60160E070E0CE010E94F21ABC0151
:104CE000CE010E94D11DBE01685D7F4FCE010E94A2
:104CF000E21D67E070E0CE010E94E61DB601CE0124
:104D0000DF91CF911F910F91EF90DF90CF90BF90E7
:104D1000AF900C94981C0F9300E020E040E060E01E
:104D200080EE98E02ED30F910895CF93DF93EC019E
:104D300084EE95E0998388838C819D81009739F07A
:104D4000DC01ED91FC910280F381E02D1995CE01FB
:104D5000DF91CF910C94DA18CF93DF93EC01E5DF6C
:104D6000CE01DF91CF91BCC4FC01848195810C946C
:104D7000981CEF92FF920F931F93CF93DF931F9294
:104D80001F92CDB7DEB77C018B01DC0114968D91AB
:104D90009C91159749835A830E94451C49815A81E9
:104DA000882399F0F70184819581DC01ED91FC91D4
:104DB0000480F581E02DB8010F900F90DF91CF9125
:104DC0001F910F91FF90EF9019940F900F90DF912A
:104DD000CF911F910F91FF90EF900895DF92EF9286
:104DE000FF920F931F93CF93DF93EC018B01D42E8F
:104DF0000E94E71884EE95E099838883DE821B8306
:104E00000A8386E390E06BD47C014E81B801E6DE34
:104E1000FD82EC82DD2069F041EC55E06FEB72E041
:104E2000C801DF91CF911F910F91FF90EF90DF901C
:104E3000FECCDF91CF911F910F91FF90EF90DF900B
:104E40000895EF92FF920F931F93CF93DF93EC019E
:104E50007B018A016CE272E0C7010E940532892B56
:104E600091F4B801882777FD8095982F99D6AB01EA
:104E7000BC018C819D81DF91CF911F910F91FF909B
:104E8000EF900C94241D6BE472E0C7010E94053280
:104E9000892B59F4B8018C819D81DF91CF911F91AD
:104EA0000F91FF90EF900C944E1DDF91CF911F91C9
:104EB0000F91FF90EF9008950F9300E020E040E005
:104EC00060E086EE98E05DD20F910895FC01818D3F
:104ED000228D90E0805C9F4F821B91098F739927F0
:104EE0000895FC01918D828D981731F0828DE80F25
:104EF000F11D858D90E008958FEF9FEF0895FC01DF
:104F0000918D828D981761F0828DDF01A80FB11D00
:104F10005D968C91928D9F5F9F73928F90E0089524
:104F20008FEF9FEF089584E399E2892B39F080E0B9
:104F300090E0892B19F098D1811125C080E090E094
:104F4000892B41F080E090E0892B21F00E94000045
:104F500081111CC080E090E0892B41F080E090E05E
:104F6000892B21F00E940000811113C080E090E0A5
:104F7000892BA1F080E090E0892B81F00E94000055
:104F800081110AC008950E940000D8CF0E9400003D
:104F9000E1CF0E940000EACF0C9400000895FC01CC
:104FA000848DDF01A80FB11DA35ABF4F2C91848DB2
:104FB00090E001968F739927848FA689B7892C93E7
:104FC000A089B1898C9180648C93938D848D981382
:104FD00006C00288F389E02D80818F7D808308954B
:104FE000CF93DF93EC01888D8823C1F0EA89FB8998
:104FF000808185FD05C0A889B9898C9186FD0EC088
:105000000FB607FCF5CF808185FFF2CFA889B9895B
:105010008C9185FFEDCFCE01C2DFE8CFDF91CF913C
:105020000895CF92DF92FF920F931F93CF93DF9358
:105030001F92CDB7DEB76C01DC015B969C915B974C
:105040005C968C915C97981307C05096ED91FC91FB
:105050005197808185FD31C0F601038D10E00F5F0F
:105060001F4F0F731127F02EF601848DF81210C018
:105070000FB607FCF9CFD6015096ED91FC915197F0
:10508000808185FFF1CFC601698389DF6981ECCF1B
:10509000838DE80FF11DE35AFF4F6083D6015B96C5
:1050A0000C935B975296ED91FC91539780818062AF
:1050B000808381E058968C930DC0D6015696ED9171
:1050C000FC91579760835096ED91FC9151978081A8
:1050D0008064808381E090E00F90DF91CF911F91F9
:1050E0000F91FF90DF90CF900895BF92CF92DF9203
:1050F000EF92FF92CF93DF93EC016A017B01B22E16
:10510000E889F98982E08083411581EE58076105BD
:10511000710599F060E079E08DE390E0A7019601D8
:1051200056D6215031094109510956954795379571
:105130002795211580E1380790F0E889F9891082D8
:1051400060E874E88EE190E0A701960140D6215016
:105150003109410951095695479537952795EC85B1
:10516000FD853083EE85FF852083188EEC89FD89CF
:10517000B082EA89FB89808180618083EA89FB892A
:10518000808188608083EA89FB8980818068808350
:10519000EA89FB8980818F7D8083DF91CF91FF90A9
:1051A000EF90DF90CF90BF9008951F920F920FB6AF
:1051B0000F9211240BB60F922F938F939F93EF931F
:1051C000FF93E091FC08F091FD088081E0910209D5
:1051D000F091030982FD12C09081809105098F5FD3
:1051E0008F7320910609821751F0E0910509F0E0D4
:1051F000E451F74F958F8093050901C08081FF919D
:10520000EF919F918F912F910F900BBE0F900FBE3A
:105210000F901F9018951F920F920FB60F921124A6
:105220000BB60F922F933F934F935F936F937F93A0
:105230008F939F93AF93BF93EF93FF938CEE98E080
:10524000AEDEFF91EF91BF91AF919F918F917F91D2
:105250006F915F914F913F912F910F900BBE0F90E7
:105260000FBE0F901F9018958CEE98E02FDE21E076
:10527000892B09F420E0822F08951092EF081092F4
:10528000EE0888EE93E0A0E0B0E08093F008909301
:10529000F108A093F208B093F30880EF95E09093A3
:1052A000ED088093EC0885EC90E09093F9088093EA
:1052B000F80884EC90E09093FB088093FA0880EC67
:1052C00090E09093FD088093FC0881EC90E090932F
:1052D000FF088093FE0882EC90E090930109809390
:1052E000000986EC90E090930309809302091092E4
:1052F00005091092060910920709109208090895ED
:10530000AF92BF92CF92DF92EF92FF920F931F93D3
:10531000CF93DF936C017B01C0E0D0E000E010E0B0
:10532000F601EC0FFD1F4AE050E06281C701ECD0AE
:105330005C016EE2C7017ED08A0D9B1D080F191F0C
:105340002196C330D10561F74AE050E0F60165814E
:10535000C701DAD0800F911FDF91CF911F910F917C
:10536000FF90EF90DF90CF90BF90AF90089520E036
:1053700036E0FC013183208312821382148215826D
:1053800008950F93FC0180E096E09183808362830F
:105390004383248305830F91089580E096E09093E2
:1053A0008A098093890910928B0910928C091092B6
:1053B0008D0910928E090895CF92DF92EF92FF929D
:1053C0000F931F93CF93DF936C017A01EB01E60EED
:1053D000F71E00E010E0CE15DF0561F06991D601FF
:1053E000ED91FC910190F081E02DC6011995080F17
:1053F000191FF1CFC801DF91CF911F910F91FF903D
:10540000EF90DF90CF9008956115710581F0DB0179
:105410000D900020E9F7AD0141505109461B570B93
:10542000DC01ED91FC910280F381E02D199480E084
:1054300090E00895DC01ED91FC910190F081E02D68
:1054400019948F929F92AF92BF92CF92DF92EF9278
:10545000FF920F931F93CF93DF93CDB7DEB7A19742
:105460000FB6F894DEBF0FBECDBF7C01C42EE52F72
:10547000CB01D22E19A221E02D1510F02AE0D22E58
:105480008E010F5D1F4F8D2C912CA12CB12C6C2DFA
:105490007E2FA50194019BD48C2DD29E80191124BE
:1054A000015011098A3014F4805D01C0895CF80153
:1054B0008083211531054105510521F0C22EE32FCE
:1054C000CA01E5CFB801C7019FDFA1960FB6F894D6
:1054D000DEBF0FBECDBFDF91CF911F910F91FF9027
:1054E000EF90DF90CF90BF90AF909F908F900895F6
:1054F0002115310541F4DC01ED91FC910190F08121
:10550000E02D642F19949DCF9A01462F50E060E062
:1055100070E0EECFCF93DF9300D01F92CDB7DEB710
:105520009B01AC01611571058105910559F06983F5
:105530003A834B835C833DD629813A814B815C81E0
:1055400068D403C060E070E0CB010F900F900F9023
:105550000F90DF91CF910895CF92DF92EF92FF925B
:105560006B017C0162177307840795075CF4CA011D
:10557000B9016C197D098E099F09CCDF6C0D7D1D69
:105580008E1D9F1DFF90EF90DF90CF900895FC013E
:105590008081918135C5CF93DF93EC01888199811A
:1055A000009709F02DD5198218821D821C821B825A
:1055B0001A82DF91CF9108950F931F93CF93DF93BA
:1055C000EC018B016F5F7F4F88819981FED5009739
:1055D00031F0998388831B830A8381E001C080E0D6
:1055E000DF91CF911F910F910895CF93DF93EC013D
:1055F00088819981892B29F08A819B818617970759
:1056000058F4CE01D9DF882341F08C819D81892B0C
:1056100019F4E881F981108281E0DF91CF9108953A
:10562000EF92FF920F931F93CF93DF93EC017B01D7
:105630008A01BA01DADF811103C0CE01ACDF06C0F6
:105640001D830C83B70188819981E8D6CE01DF9153
:10565000CF911F910F91FF90EF900895FC0111825F
:10566000108213821282158214826115710551F025
:10567000FB0101900020E9F7AF0141505109461BA1
:10568000570BCECF0895FC0124813581232B31F4B3
:1056900021E06115710599F0FB0108C0FC018081D2
:1056A00091816115710531F421E0FC01808188232D
:1056B00031F004C0AAD621E0892B09F020E0822F26
:1056C000089567D60895B5D0FDDF0E942302C3E98F
:1056D000D7E20E947D022097E1F325DCFACFF8C3E0
:1056E0008FC41F920F920FB60F9211242F933F93E6
:1056F0008F939F93AF93BF9380919009909191095D
:10570000A0919209B091930930918F0923E0230F62
:105710002D3720F40196A11DB11D05C026E8230FE9
:105720000296A11DB11D20938F098093900990933B
:105730009109A0939209B093930980919409909153
:105740009509A0919609B09197090196A11DB11DE7
:105750008093940990939509A0939609B093970923
:10576000BF91AF919F918F913F912F910F900FBE5D
:105770000F901F9018952FB7F89460919009709131
:10578000910980919209909193092FBF08953FB795
:10579000F8948091940990919509A0919609B091FF
:1057A000970926B5A89B05C02F3F19F00196A11DAA
:1057B000B11D3FBF6627782F892F9A2F620F711D69
:1057C000811D911D42E0660F771F881F991F4A9522
:1057D000D1F70895CF92DF92EF92FF92CF93DF93AC
:1057E0006B017C01D4DFEB01C114D104E104F104AD
:1057F00079F06AD1CCDF6C1B7D0B683E7340A0F35F
:1058000081E0C81AD108E108F108C851DC4FECCF9B
:10581000DF91CF91FF90EF90DF90CF9008950197A7
:1058200039F0880F991F880F991F02970197F1F798
:105830000895789484B5826084BD84B5816084BD08
:1058400085B5826085BD85B5816085BDEEE6F0E0F9
:10585000808181608083E1E8F0E010828081826055
:105860008083808181608083E0E8F0E080818160D6
:105870008083E1EBF0E0808184608083E0EBF0E006
:10588000808181608083E1E9F0E0808182608083B3
:10589000808181608083E0E9F0E0808181608083A5
:1058A000E1EAF0E080818260808380818160808392
:1058B000E0EAF0E0808181608083E1E2F1E08081D4
:1058C00082608083808181608083E0E2F1E080817A
:1058D00081608083EAE7F0E080818460808380815A
:1058E0008260808380818160808380818068808302
:1058F0001092C100089590E0FC013197E231F1056A
:1059000008F04BC0E658FF4FA0C2809180008F770F
:1059100003C0809180008F7D8093800008958091E6
:105920008000877FF9CF84B58F7702C084B58F7DE3
:1059300084BD08958091B0008F7703C08091B0003E
:105940008F7D8093B0000895809190008F7707C07D
:10595000809190008F7D03C080919000877F80931D
:10596000900008958091A0008F7707C08091A000DB
:105970008F7D03C08091A000877F8093A000089551
:10598000809120018F7707C0809120018F7D03C017
:1059900080912001877F809320010895CF93DF932A
:1059A00090E0FC01E25AFE4F2491FC01EC55FE4FC1
:1059B0008491882349F190E0880F991FFC01E25EF1
:1059C000FD4FA591B4918C5F9D4FFC01C591D49181
:1059D0009FB7611108C0F8948C91209582238C9315
:1059E000888182230AC0623051F4F8948C91322F5E
:1059F000309583238C938881822B888304C0F8940C
:105A00008C91822B8C939FBFDF91CF9108950F9340
:105A10001F93CF93DF931F92CDB7DEB7282F30E0CF
:105A2000F901E85EFE4F8491F901E25AFE4F1491AC
:105A3000F901EC55FE4F04910023C1F0882319F0C1
:105A4000698359DF6981E02FF0E0EE0FFF1FEC5F03
:105A5000FD4FA591B4919FB7F8948C91611103C04B
:105A60001095812301C0812B8C939FBF0F90DF91F4
:105A7000CF911F910F910895CF93DF93282F30E09E
:105A8000F901E85EFE4F8491F901E25AFE4FD4918C
:105A9000F901EC55FE4FC491CC2389F081112BDF25
:105AA000EC2FF0E0EE0FFF1FE651FE4FA591B491F1
:105AB0002C912D2381E090E021F480E002C080E071
:105AC00090E0DF91CF91089508955058BB27AA2701
:105AD0000ED0DCC0CDD030F0D2D020F031F49F3FDA
