:1000000051C2000080C200007EC200007CC200001D
:100010007AC2000078C2000076C2000074C20000FC
:1000200072C2000070C200006EC200006CC200000C
:100030006AC2000068C2000066C2000064C200001C
:1000400062C2000060C200005EC200005CC200002C
:100050005AC2000058C2000056C200000C943C393D
:1000600052C200000C94A0360C94D6364CC200004C
:100070004AC2000048C2000046C2000044C200005C
:1000800042C2000040C200003EC200003CC200006C
:100090003AC2000038C2000036C2000034C200007C
:1000A00032C2000030C200002EC200002CC200008C
:1000B0002AC2000028C2000026C2000024C200009C
:1000C00022C2000020C200001EC200001CC20000AC
:1000D0001AC2000018C2000016C2000014C20000BC
:1000E00012C200003E0D550DD20DBC0EDB0EF80EF7
:1000F000000FB20E5E3A613A503A543A5A3A983A80
:10010000653A693A6F3A733A773A7D3A813A853A75
:10011000983A8B3A8F3A933A005EBCE2613FDD83B6
:10012000C29C7E20A3FD1F419DC3217FFCA2401ED7
:100130005F01E3BD3E6082DC237D9FC1421CFEA0C7
:10014000E1BF5D0380DE3C62BEE0025CDF81633DB7
:100150007C22C09E1D43A1FF4618FAA427799BC5A7
:1001600084DA3866E5BB5907DB856739BAE4065897
:100170001947A5FB7826C49A653BD987045AB8E687
:10018000A7F91B45C6987A24F8A6441A99C7257B77
:100190003A6486D85B05E7B98CD2306EEDB3510F67
:1001A0004E10F2AC2F7193CD114FADF3702ECC9257
:1001B000D38D6F31B2EC0E50AFF1134DCE90722C47
:1001C0006D33D18F0C52B0EE326C8ED0530DEFB137
:1001D000F0AE4C1291CF2D73CA947628ABF5174927
:1001E0000856B4EA6937D58B5709EBB536688AD417
:1001F00095CB2977F4AA4816E9B7550B88D6346A07
:100200002B7597C94A14F6A8742AC896154BA9F7F6
:10021000B6E80A54D7896B3500000A0B02090C0DA9
:100220000E080703040100000000000000000000A9
:1002300000000000000000000000000000000000BE
:10024000000000001211100000000000000000007B
:10025000000000000000000000000000000001029B
:1002600010202008081020401020408002010201C8
:100270000804020101020408102040808040201080
:1002800008040201800402018040201008040201D9
:100290000804020101020408102040800102040841
:1002A000102040800505050507050808080802021A
:1002B00002020A0A08080404040401010101010100
:1002C00001010303030303030303040707070C0CE3
:1002D0000C0C0C0C0C0C02020202060606060606AA
:1002E00006060B0B0B0B0B0B0B0B00002000230067
:1002F000260029002C002F0032000001000003011D
:100300000601090100002200250028002B002E0014
:100310003100340002010000050108010B0100005A
:100320002100240027002A002D00300033000101A5
:100330000000040107010A014E414E494E4954593B
:10034000494E46CDCCCC3D0AD7233C17B7D13877A0
:10035000CC2B329595E6241FB14F0A0000204100B6
:1003600000C84200401C4620BCBE4CCA1B0E5AAE00
:10037000C59D7400407A10F35A00A0724E1809000F
:1003800010A5D4E80000E87648170000E40B5402FA
:100390000000CA9A3B000000E1F505000080969835
:1003A00000000040420F000000A086010000001085
:1003B0002700000000E803000000006400000000C7
:1003C000000A00000000000100000000002C76D8A8
:1003D00088DC674F0823DFC1DFAE59E1B1B796E58E
:1003E000E3E453C63AE651997696E8E6C28426EBF2
:1003F000898C9B62ED407C6FFCEFBC9C9F40F2BA05
:10040000A56FA5F490055A2AF75C936B6CF9676D9C
:10041000C11BFCE0E40D47FEF520E6B500D0ED90F1
:100420002E0300943577050080841E080000204EBE
:100430000A000000C80C333333330F986E12831157
:1004400041EF8D2114893BE65516CFFEE6DB18D12E
:10045000844B381BF77C1D901DA4BBE42420328400
:10046000725E228100C9F124ECA1E53D270004045D
:100470002D123812FA155E196C1977190F1B1A1BF9
:10048000461B771BA31B281CA21C3120E1200D2139
:100490004529422DA12E4C30833184322634273514
:1004A0000837983711241FBECFEFD1E2DEBFCDBF92
:1004B00000E00CBF1BE0A0E0B2E0E6EFF7E800E0F0
:1004C0000BBF02C007900D92AC3BB107D9F720E1FA
:1004D000ACEBBBE001C01D92A93AB207E1F714E012
:1004E000C4EAD4E000E006C022970109FE010BBF78
:1004F0000E94443DCE36D10780E00807A9F70E944C
:100500002E390C94F9437CCDCF92DF92EF92FF927B
:100510008EE89CE00E94282B23E230E040E050E08F
:100520006FE070E080E090E00E947738882777FDE8
:100530008095982F0E94CC3B9B01AC0164E572E052
:100540008091AF0C9091B00C0E94031B23E230E02D
:1005500040E050E06FE070E080E090E00E9477388B
:10056000882777FD8095982F0E94CC3B9B01AC019A
:1005700063E772E08091AF0C9091B00C0E94031B76
:1005800060E08EE89CE00E94B72B6B017C0120E0CC
:1005900030E040EA51EC0E947C3C181654F4A7016C
:1005A000960166E972E08091AF0C9091B00C0E94C8
:1005B000031B61E08EE89CE00E94B72B6B017C017D
:1005C00020E030E040EA51EC0E947C3C181654F4E4
:1005D000A70196016EEB72E08091AF0C9091B00C88
:1005E0000E94031B23E230E040E050E06FE070E047
:1005F00080E090E00E947738882777FD8095982FDB
:100600000E94CC3B9B01AC0161EE72E08091AF0C8B
:100610009091B00C0E94031B24E630E040E050E0D3
:100620006DE270E080E090E00E947738882777FDE7
:100630008095982F0E94CC3B9B01AC0167E073E052
:100640008091AF0C9091B00CFF90EF90DF90CF9025
:100650000C94031B0F931F93CF93DF9300D000D014
:10066000CDB7DEB726E040E052EC61E070E088EF05
:100670009EE00E94403689EB9BE09A8389838091BB
:10068000C30C9091C40CA091C50CB091C60C8B8387
:100690009C83AD83BE83AE014F5F5F4F6EE072E01F
:1006A00089E69EE00E94B1186091AF0C7091B00C89
:1006B0008091B10C9091B20C0E94AE1B8BE090E047
:1006C0000E943A398C014091B10C5091B20C60916A
:1006D000660C7091670C20E00E94701A1093B00CA9
:1006E0000093AF0C8091660C9091670CDC01ED914A
:1006F000FC910480F581E02D40E060E070E0199508
:100700008091660C9091670CDC01ED91FC91048066
:10071000F581E02D40E063E070E019958091660C72
:100720009091670CDC01ED91FC910480F581E02D46
:1007300041E065E070E019958091660C9091670C3E
:10074000DC01ED91FC910480F581E02D40E061E059
:1007500070E019958091660C9091670CDC01ED9129
:10076000FC910480F581E02D40E064E070E0199593
:100770008091660C9091670CDC01ED91FC910480F6
:10078000F581E02D40E062E070E019958091AF0CBA
:100790009091B00C0E94951A8EE89CE00E94532A1A
:1007A0008AE69CE00E94012C8CE79CE00E94012CD0
:1007B00024E832E040E355E760E070E08CEB9BE03A
:1007C0000E945B1AA1DE26960FB6F894DEBF0FBE1C
:1007D000CDBFDF91CF911F910F9108956091AF0C24
:1007E0007091B00C8091B10C9091B20C0E94AE1B34
:1007F000882331F08091B10C9091B20C0E94782640
:100800008CEB9BE00C94001A0F931F93CF93DF9314
:1008100000E020E040E060E087EC9CE00E948C3744
:1008200005E22EEF48EA60EC81EC9CE00E948C37F8
:1008300083EB9CE00E942E138DE990E00E943A39F0
:10084000EC0103EB1CE023E03CE14BE557E06AE000
:1008500072E00E940929D093B20CC093B10C69E0F8
:1008600081EA9CE00E944C2261EA7CE08EE89CE0F8
:100870000E94512926E046E168E08CE79CE00E9456
:10088000E02B26E046E16AE08AE69CE00E94E02B4D
:100890008091B10C9091B20C0E9408349093670C37
:1008A0008093660C8CEB9BE0DF91CF911F910F91B1
:1008B0000C94CF19882381F08F3F29F48091CF0CBD
:1008C0009091D00C089595E0899FF0011124EC528D
:1008D000F34F82819381089580E090E00895CF9353
:1008E000DF93D82FC62F60E085E30E94D23A9C2F79
:1008F0009F719D2B9EBD0DB407FEFDCF1EBC0DB498
:1009000007FEFDCFC7FD08C061E085E30E94D23A33
:100910008EB5DF91CF9108951EBC0DB407FEFDCFBB
:10092000F3CF0F931F93CF93DF931F92CDB7DEB713
:10093000182F062F60E085E349830E94D23A602F8A
:100940006F71612B6EBD49810DB407FEFDCF4EBDA9
:100950000DB407FEFDCF61E085E30F90DF91CF91ED
:100960001F910F910C94D23A0F931F93CF93DF9363
:100970008C01EB0160E085E30E94D23A8AE38EBDF0
:100980000DB407FEFDCF0C0F1D1FC017D10739F0A6
:100990001EBC0DB407FEFDCF8EB58993F6CF61E086
:1009A00085E3DF91CF911F910F910C94D23A0F9371
:1009B0001F93CF93DF938C01EB0160E085E30E94EE
:1009C000D23A8AE78EBD0DB407FEFDCF0C0F1D1F76
:1009D000C017D10731F089918EBD0DB407FEFDCF50
:1009E000F7CF61E085E3DF91CF911F910F910C94D8
:1009F000D23A1F93CF93DF93182F1076C12FD0E0F8
:100A00002091140230E0C217D30779F043E06FE180
:100A100080EA87DFAE0185E0559547958A95E1F735
:100A20006FE180E87EDF10931402DF91CF911F9178
:100A30000895CF93DF931F92CDB7DEB7682F6983F8
:100A4000D8DF698180E00F90DF91CF9148CF1F936D
:100A5000CF93DF931F92CDB7DEB7182F6983C9DF1D
:100A60004981612F80E40F90DF91CF911F9159CF81
:100A70001F93CF93DF931F921F92CDB7DEB7182F2E
:100A800069837A83B6DF4981612F80E44ADF61E0C0
:100A9000610F7A81472F80E40F900F90DF91CF9103
:100AA0001F913FCF6091D20C7091D30C61157105ED
:100AB00019F06150710902C06FEF77E08CE0D8CF78
:100AC000F1CFFF920F931F93CF93DF9389E3B1DFB1
:100AD000882309F444C06091D20C7091D30CEB01CF
:100AE0002696C11588E0D80710F0CF5FD74080E088
:100AF000BFDF60E08AE3F3DE90E09093D30C809355
:100B0000D20C60E08AE3EBDE2091D20C3091D30C62
:100B1000382B3093D30C2093D20C60E08AE3DFDED5
:100B2000082F60E08AE3DBDE182F60E08AE3D7DE7F
:100B3000F82E40E46EE180E8F4DEF7FE0FC0D093BB
:100B4000CE0CC093CD0C202F30E0312B2450310936
:100B50003093D00C2093CF0C8FEF02C0A3DF80E046
:100B6000DF91CF911F910F91FF900895EF92FF9227
:100B70000F931F93CF93DF938B017A018F3FC1F0C7
:100B800025E0829FE0011124CC52D34F02C0CDEC6E
:100B9000DCE068817981600F711F80E069DF8A8104
:100BA0009B81801B910BE816F90690F4C70110C0D9
:100BB0008091CD0C9091CE0C860F971F811528E067
:100BC000920728F3BC016F5F7740CDECDCE0E5CF06
:100BD000DF91CF911F910F91FF90EF9008950F93A8
:100BE0001F93CF93DF938A01A901C0DFEC01B80105
:100BF000BBDECE01DF91CF911F910F910895CF926F
:100C0000DF92EF92FF920F931F93CF93DF938B01AD
:100C10006A01790195E0899FE0011124CC52D34FFC
:100C200068817981600F711F82E022DF0A80DB8199
:100C3000C02DC01BD10BEC16FD0608F4E701B60170
:100C4000CE01B5DECE01DF91CF911F910F91FF90C4
:100C5000EF90DF90CF900895BC0180E009DF60E065
:100C600085E30E94D23A8AE38EBD0DB407FEFDCF24
:100C70001EBC0DB407FEFDCF61E085E30E94D23AB1
:100C80008EB50895CF93C62FBC0182E0F1DE60E0FF
:100C900085E30E94D23A8AE78EBD0DB407FEFDCFF0
:100CA000CEBD0DB407FEFDCF61E085E3CF910C947E
:100CB000D23AFF920F931F93CF93DF9395E0899FD2
:100CC000F0011124EC52F34FC081D18121970281B0
:100CD00013810C0F1D1FCE01BFDFF82E882319F0E2
:100CE00060E0CE01CFDFBE0184E0C2DEB80186E065
:100CF000BFDE48E06FE180E814DE8CE19ADE81FF20
:100D000004C048E06FE180EA0CDEFF2041F06F2D67
:100D1000CE01DF91CF911F910F91FF90B3CFDF9163
:100D2000CF911F910F91FF900895CF92DF92EF9294
:100D3000FF920F931F93CF93DF937C01EB01413020
:100D4000510569F4CB0188DF682FC701DF91CF918E
:100D50001F910F91FF90EF90DF90CF9093CF6A019A
:100D6000C60ED71E86010150110980E181DEB70150
:100D700084E17EDEC115D84030F4011588E0180703
:100D800010F00F5F1740B80182E172DE40E16FE1C1
:100D900080EAC7DD40E26FE180E8C3DD6FE180E01B
:100DA0009EDD85FDFBCFDF91CF911F910F91FF90CD
:100DB000EF90DF90CF9008950F931F93CF93DF9321
:100DC000EB01E5E0E89FD0011124AC52B34F4F3F57
:100DD000B9F0E49FF0011124EC52F34F02C0EDECA6
:100DE000FCE060817181620F731F8D919C91A8015D
:100DF0008C0F9D1F9ADFDF91CF911F910F9152CEE3
:100E0000E091CD0CF091CE0CE20FF31FE11588E0DC
:100E1000F80728F3BF016F5F7740E7CFCF93DF93E9
:100E2000EB01682F84ED13DEBE0186ED21DE8AEE34
:100E300000DE80FF05C08FE090E00E94DA39F7CF36
:100E4000DF91CF910895CF93DF93EC01D0D061E093
:100E500085E30E94993A61E085E30E94D23A61E01D
:100E600083E30E94993A61E084E30E94993A60E04A
:100E700082E30E94993A61E085E30E94993A60E03A
:100E800083E30E94D23A60E084E30E94D23A80E594
:100E90008CBD8DB581608DBD4FEF60E08FEF41DD82
:100EA00062E370E080E090E00E94B5391092D30CCC
:100EB0001092D20C60E070E088E0DADD60E070E073
:100EC0008CE0D6DD6FEF77E08AE0D2DD61EB88E37E
:100ED000BEDD6FE370E388E2CBDD69EF77EF80E39F
:100EE000C7DD6DE070E080ECC3DD42E362EC80E8DA
:100EF00018DD62E17CE086ECBBDD62E184ECA7DD1D
:100F00006CED75E08AECB4DD688184EEA0DD69816A
:100F100085EE9DDD6A8182EE9ADD6B8183EE97DD41
:100F20006C8180EE94DD6D8181EE91DD60E071E099
:100F300080E174DF8FE15DDD40EC6BE180E8F1DCA6
:100F400044E06FE180E8EDDC66E774E084E1DF9186
:100F5000CF9164CF0F931F93CF93DF93EC01862F34
:100F6000BA01A90103DE8C010150110960E085E39B
:100F70000E94D23A8AE38EBD0DB407FEFDCF20E079
:100F800030E020173107C0F41EBC0DB407FEFDCFC2
:100F90008EB590E0982F88271EBC0DB407FEFDCFBC
:100FA0004EB5840F911DC80FD91FC817D90708F473
:100FB00021962E5F3F4FE5CF2017310771F41EBCFD
:100FC0000DB407FEFDCF8EB590E0982F8827C80F8F
:100FD000D91FC817D90708F4219661E085E30E945C
:100FE000D23ACE01DF91CF911F910F910895E4ED98
:100FF000FCE08DECDF011D928A95E9F781E098E035
:10100000918380830895DF92EF92FF920F931F9355
:10101000CF93DF937C014091D40C5091D50C41507B
:10102000584E80E098E1E4EDFCE000E0C0E0D0E064
:1010300025E0D22E1481112341F0D19ED00111243C
:10104000AC52B34F2D913C9101C09A0160817181E6
:10105000261B370B62817381261B370B2E153F052C
:1010600039F485E0089FE0011124CC52D34F48C0E9
:10107000E216F30648F42817390730F4D09EE00151
:101080001124CC52D34FC901111107C02097C1F5CB
:10109000C4EDDCE085E0D82E1DC0D19EF001112406
:1010A000EC52F34F012FC6CF0A811B8188819981B1
:1010B000080F191FD29EE0011124CC52D34F688132
:1010C00079810617170731F04A815B81C8012DDE4F
:1010D000198308832C812111E7CF2091D40C309102
:1010E000D50C88819981281B390B8A819B81281B0B
:1010F000390B2150384E2E153F0510F480E019C0F1
:10110000E9EDFCE081E022813381232B29F0359643
:101110008F5F8932C1F7F2CF2A813B8148815981A3
:10112000240F351F31832083F382E2829C819483D4
:101130008C83DF91CF911F910F91FF90EF90DF9003
:1011400008958823F9F0E4EDFCE025E094819813FC
:1011500011C095E0899FD0011124AC52B34F149671
:101160008C911497848313961C921E921297149656
:101170001C920895992331F0299FF0011124EC521B
:10118000F34FE4CF089595E0899FF0011124EC52CC
:10119000F34F80819181860F971F91838083828195
:1011A0009381861B970B93838283089595E0899F93
:1011B000F0011124EC52F34F80819181860F971F2B
:1011C00091838083538342830895FC015381560F9A
:1011D0005093AB0F872F99274281480F4093AA0F56
:1011E000A181A093A90FE081E093A80F242F30E004
:1011F0002817390748F481E08A0F8093A90F8111DD
:1012000003C0EF5FE093A80F852F90E07727861744
:10121000970788F44F5F4093AA0F41110CC080914B
:10122000A90F8F5F8093A90F811105C08091A80F2E
:101230008F5F8093A80F08952091AF0F3091B00F6A
:10124000BC01C9010896C1DFE091AF0FF091B00F6A
:101250008091A80F80878091A90F81878091AA0F24
:1012600082878091AB0F8387089580E0E82FF0E0BC
:10127000EE0FFF1FE75DFF4E118210828F5F8430FB
:10128000A8F380E09EE1989FF0011124EF54F04F05
:10129000118E8F5F8430B8F38093A40D80E094E0CA
:1012A0009093A60D8093A50D0895CF932091A50D41
:1012B0003091A60D2F5F3F4F21154DE7340710F0F9
:1012C00020E030E1522F432FE1EBFFE0C0E0C430DB
:1012D00059F0A18DAA2329F0A481B581A417B507DF
:1012E00049F3CF5F7E96F3CF3093A60D2093A50DE3
:1012F0001092A40D20E0E0E0F0E04EE12430E0F4B4
:10130000429FD0011124AF54B04F59963C91599748
:10131000311104C02093A40DFD0110C0373041F4F9
:10132000309739F05A965C915A97328D351708F0FC
:10133000DF012F5FFD01E2CF2093A40D3097B1F1C3
:1013400022E0218F2091A70D24872091A80D2587C9
:101350002091A90D26872091AA0D278720E032E051
:10136000338B228B358B248B21E030E0318B208B2B
:10137000138E228F23E0208F168A20E1278B209165
:10138000A50D3091A60D32272327322735832483DC
:1013900077836683DC012D913C9111973183208303
:1013A00012968D919C91139793838283CF01CF9155
:1013B00008951F93CF93DF93C091AF0FD091B00FDB
:1013C00023E730E13093AE0F2093AD0F3093A70F9A
:1013D0002093A60F833059F4898D8F70833009F0E4
:1013E000A9C588899989892B09F0A4C57FC0823055
:1013F00009F080C08091AA0D8F5F8093AA0D8111A2
:1014000013C08091A90D8F5F8093A90D81110CC02D
:101410008091A80D8F5F8093A80D811105C08091E8
:10142000A70D8F5F8093A70D1092A50F1092A40FA8
:101430001092A2101092A110298D822F8D7F8530DD
:1014400041F48A8D8F5F8A8F883709F073C5198EB2
:1014500071C5222309F46EC588899989892B09F4FD
:1014600041C08A8D9FEF980F9A8F811163C58B8D34
:10147000883031F09FEF920F923048F4853039F484
:10148000198E80E88093AC0F0E94F01412C485304E
:1014900038F493E0082E01C0990F0A94EAF701C0CE
:1014A00090E39A8F8F5F8B8F822F8F708330A1F0A4
:1014B00048F4813009F42FC2823009F03BC5109204
:1014C0006C102CC2863009F495C3883009F492C39D
:1014D000843009F02FC58EC384E08093AC0F0E9446
:1014E000F01419C42F70233009F024C588E08093CC
:1014F000AC0FD5C380914B10853409F01BC580918A
:101500004D1090E0982F882720914E10820F911D4A
:101510002091A40F3091A50F2817390708F40AC5A8
:101520009093A50F8093A40F809151108F7309F0B1
:1015300001C5809152108111FDC4809139109091A4
:101540003A10009731F420913B1030913C10232B3E
:10155000A1F020915B1030915C102817390709F039
:10156000E9C420915D1030915E1080913B10909104
:101570003C102817390709F0DDC40E945D19019657
:1015800009F0D8C4809154108630D1F1813009F02F
:10159000D1C480915F10883009F0CCC410925F10E4
:1015A0008091611090916210873FAFEF9A0710F021
:1015B000099601C008969093621080936110809103
:1015C00057109091581090935C1080935B1080910D
:1015D000591090915A1090935E1080935D108091F5
:1015E000391090913A109093581080935710809131
:1015F0003B1090913C1090935A10809359109EC4C8
:101600000E942119019609F095C480916110909172
:10161000621020915F1030916010409157105091EE
:1016200058106091591070915A10EAECFFE0C1EB2C
:10163000DFE010811123A9F0AC81BD818A179B07DF
:1016400081F4AE81BF812A173B0759F4A881B98183
:101650004A175B0731F4AA81BB816A177B0709F43B
:1016600074C16E967E96A0E1C932DA0711F7209117
:101670006C102F732230E1F49093A20D8093A10D92
:1016800040E0443098F4E42FF0E0EE0FFF1FE75DF8
:10169000FF4E208131814F5F8217930791F710929F
:1016A000A40D20E0C0E0D0E03EE17EC04093A40D58
:1016B00080916C1082FD3EC484E180936C1088E2BE
:1016C00090E09093A50F8093A40F80E580936B101A
:1016D0008091661090916A10909366103091651019
:1016E0009091691090936510309369102091641067
:1016F00090916810909364102093681090916310FB
:101700009093A40D409167104093631090936710DD
:101710008F5F80936A1081110FC081E0830F8093E7
:101720006910811109C081E0820F809368108111D6
:1017300003C09F5F9093671080915F10909160103D
:101740009093A20D8093A10D2091611030916210B1
:101750003093601020935F1090936210809361101B
:10176000809157109091581090935C1080935B106B
:101770008091591090915A1090935E1080935D1053
:101780008091391090913A1090935810809357108F
:1017900080913B1090913C1090935A108093591077
:1017A0008BC3473099F02F5F2430F0F4822F90E004
:1017B000389FF001399FF00D1124EF54F04F418D07
:1017C0004111EFCF2093A40DEF0110C0209721F01D
:1017D000528D4A8D451738F7389FE001399FD00D5B
:1017E0001124CF54D04FDFCF2093A40D209709F4BC
:1017F000A1C3D093B00FC093AF0F83E08A8F888FBF
:101800001E8A84E08F8B1B8E8091611090916210F4
:101810009D838C8380915F10909160109F838E8355
:101820008091571090915810998388838091591016
:1018300090915A109B838A8381E0898F8091A70DB4
:101840008C878091A80D8D878091A90D8E878091BE
:10185000AA0D8F8781E090E0998B888B809166102C
:101860008B87809165108A87809164108987809129
:101870006310888781E090E0DFDC80916B10282F77
:10188000207F30E0213531050CF445C082958F7002
:1018900090E00597880F991F880F991F3091A30D2D
:1018A00020E0E22FF0E0E817F9078CF5E35CFF4E4B
:1018B00036A9311105C02093A40D1092A30D2BC0A1
:1018C000313011F42F5FEDCF3230E1F447A94430CD
:1018D000C9F42093A40D3093A30D80AD90E0982F10
:1018E000882721AD822B9093A20D8093A10D81308A
:1018F00022E0920710F080E092E09B8B8A8B9D8B18
:101900008C8B09C047A9442311F0240FCACF209320
:10191000A40D3093A30D80E180936C1080916C1026
:10192000826080936C1082E08093731094E09093B7
:10193000741080937510109276108CE290E0909362
:10194000A50F8093A40F80E665C2D093B00FC0931B
:10195000AF0F1092AC0F30916C1032FF03C0198E94
:1019600080E206C220916B1022952F70220F220F69
:101970002093A40D8091A40F9091A50F4497821BF2
:1019800091099093A50F8093A40F1F70123021F43A
:10199000232F2F732231C9F0892B19F4832F8370E1
:1019A000A1F090916310888598132AC290916410D9
:1019B0008985981325C2909165108A85981320C255
:1019C000909166108B8598131BC234FF49C06889BB
:1019D00079896115710509F443C0CE010C96F5DBD8
:1019E000309167108091A80F38133AC02091681089
:1019F0008091A90F281334C0909169108091AA0F8B
:101A000098132EC080916A104091AB0F841328C0A8
:101A10003C872D879E878F878B8D81111AC02E89D9
:101A2000888D9A8D891B922F969596959695891BF0
:101A3000280F2E8B87FD81959F89392F36953695F6
:101A4000931B980F9F8B822F869586958695890F7D
:101A5000888F81E08093AC0F888D8A8F198A188ACD
:101A6000498D842F8F7090E0FC013197E830F105AB
:101A700008F060C2EE58FF4F0C94343D8091AC0FDB
:101A800080FF58C283E0898F80E48093AC0F198A6D
:101A9000188A8091A40F9091A50F009709F4FBC0BC
:101AA00022E42093AC0FC8DBF6C08091AC0F80FF1E
:101AB0006FC080916C108F73823109F069C0809182
:101AC0006B10282F207F30E0213531050CF445C004
:101AD00082958F7090E00597880F991F880F991F46
:101AE0003091A30D20E0E22FF0E0E817F9078CF524
:101AF000E35CFF4E36A9311105C02093A40D10926E
:101B0000A30D2BC0313011F42F5FEDCF3230E1F453
:101B100047A94430C9F42093A40D3093A30D80ADA0
:101B200090E0982F882721AD822B9093A20D80936F
:101B3000A10D8130A2E09A0710F080E092E09B8B2B
:101B40008A8B9D8B8C8B09C047A9442311F0240FED
:101B5000CACF2093A40D3093A30D83E0898F809189
:101B600063108887809164108987809165108A87C7
:101B7000809166108B8781E090E05EDB82E4809349
:101B8000AC0F198A188A1092A50F1092A40F83C067
:101B900080E28093AC0F24D7E091AF0FF091B00FAB
:101BA000118E86CD80916C1080FF26C044FD24C02C
:101BB00088899989892B09F0BDC18091A40F9091E2
:101BC000A50F019639DB2091AC0F822F80618093A5
:101BD000AC0F8091A40F9091A50F892B19F0226171
:101BE0002093AC0FFDD681E090E0998B888B88E044
:101BF000898F1B8E81E105C185FF1CC0809171100A
:101C000090E0982F882720917210822B2091AD0FA1
:101C10003091AE0F280F391F3093AE0F2093AD0FC8
:101C20002091A40F3091A50F281B390B3093A50FDD
:101C30002093A40F8091A40F9091A50F009741F0DD
:101C400044FD06C02091AC0F22602093AC0FF4DA63
:101C500080916D1090E0982F882720916E10820F50
:101C6000911D9093A20D8093A10D2C893D89281779
:101C7000390710F0892B21F43093A20D2093A10D88
:101C80008091A10D9091A20D9B8B8A8B8091AC0FBE
:101C9000837009F44FC11092A2101092A110A0D627
:101CA0008091AC0F85FF07C01092A2101092A11076
:101CB000198E84E1A6C084FF0AC01092A21010926F
:101CC000A11081E090E0998B888B84E091CF2091E6
:101CD000A1103091A21021153105E1F080FF02C062
:101CE000198A188A88899989009781F48A899B8939
:101CF0008217930720F49093A2108093A1108091F3
:101D0000A1109091A210998B888B04C09093A2107F
:101D10008093A1101B8E8091A60F9091A70F909396
:101D2000AE0F8093AD0F8091A1109091A210892BDE
:101D300059F088899989009739F088969093A50F72
:101D40008093A40F88E10BC08091AC0F81FFF2C09B
:101D500088E290E09093A50F8093A40F80E1809398
:101D60006C1057C08091AC0F80FFE4C0198E80E1E9
:101D70008093AC0F35D6DEC08091A40F9091A50F53
:101D8000009709F059DA90916C108091AC0F90FF98
:101D90000BC080FF06C087E0898F1A8E198A188AC7
:101DA00018C086E0898F15C080FF1BC085E0898F31
:101DB000198A188ABFC08091A40F9091A50F00972F
:101DC00009F03ADA80916C1080FF0BC087E0898FB0
:101DD0001A8E81E090E030DA80E18093AC0F00D67B
:101DE0000FC08091A40F9091A50F892B49F4A2C038
:101DF0008091AC0F80FF9EC087E0898F1A8E9AC0B9
:101E000080E180936C1088E290E09093A50F80931E
:101E1000A40F80E580936B10888580936710898577
:101E2000809368108A85809369108B8580936A10EF
:101E30008C85809363108D85809364108E8580934C
:101E400065108F858093661086E0809354108C8196
:101E50009D819093601080935F108E819F819093FD
:101E60006210809361108091391090913A10909394
:101E700058108093571080913B1090913C10909394
:101E80005A10809359108881998190935C108093A7
:101E90005B108A819B8190935E1080935D10898D89
:101EA00084FF05C010926E1010926D1005C082E084
:101EB00080936D1010926E1080E480935310809187
:101EC000A40F9091A50F90934D1080934E101092F7
:101ED0007210109271101092701010926F100E9478
:101EE0002119809590959093701080936F1085E4E0
:101EF00080934B1010924C1010925210109251106F
:101F00008091AB0D9091AC0D01969093AC0D8093A8
:101F1000AB0D90934F10809350101092561010926A
:101F200055100E945D19809590959093561080935E
:101F3000551004C01092A50F1092A40F1092AC0F70
:101F4000DF91CF911F9108959827892798270895A9
:101F50009C01AB017093A2106093A1101616170696
:101F600054F48091A60F9091A70F2817390719F004
:101F7000B9010C94FB3F0895FF920F931F93CF93E9
:101F8000DF93DC01FB011092B60D60E07BE068306E
:101F900010F5769FE0011124C554D24F2881398174
:101FA00021153105B1F08A819B81009791F04D9107
:101FB0005C9111974217530761F412962D913C9151
:101FC00013972817390729F46093B60DDE0114968C
:101FD0004FC06F5FDCCF20E03BE0283090F4329FB1
:101FE000E0011124C554D24F88819981892B39F49D
:101FF0008A819B81892B19F42093B60D30C02F5F05
:10200000ECCF2093B60D283051F50091B40D802F00
:1020100090E010E070E060E02BE0F22E683098F481
:10202000F69EE0011124C554D24FCA85AC014C1B69
:102030005109212F30E0241735071CF4762F102F7B
:102040001C1B6F5FEBCF1093B30D7093B50D7093A6
:10205000B60D8BE0789FE0011124C554D24F4D910D
:102060005D916D917C91DE014D935D936D937D93B8
:1020700086E001900D928A95E1F78091B40D8A87F0
:10208000DF91CF911F910F91FF9008951092B60D9F
:102090009BE08091B60D883068F4989FF001112480
:1020A000E554F24F10821182128213828F5F809367
:1020B000B60DEFCF08958091A40F9091A50F0E97C4
:1020C0009093A50F8093A40F8091391090913A10AE
:1020D0002091571030915810822793272091351066
:1020E0003091361082239323892BB9F480913B10D1
:1020F00090913C102091591030915A1082279327CB
:10210000209137103091381082239323892B29F4A2
:1021100063E470E187E590E12FCF08958091A40FEB
:102120009091A50F1092A50F1092A40F8A9708F412
:1021300008958091511090915210811521E09207DD
:1021400029F08115924009F475C00895209163101B
:10215000309164108091391090913A102817390706
:1021600009F083C0209165103091661080913B107A
:1021700090913C102817390709F077C063E570E1AA
:1021800089E590E1F9DE80E092E09093521080932F
:10219000511086E0E3E5F0E1ADE5B0E101900D928C
:1021A0008A95E1F786E0EDEAFDE0A3E5B0E1019074
:1021B0000D928A95E1F786E0EDEAFDE0A3E4B0E157
:1021C00001900D928A95E1F786E0EDE5F0E1ADE34F
:1021D000B0E101900D928A95E1F7809159109091AC
:1021E0005A10909364108093631080915B109091CB
:1021F0005C109093661080936510809139109091D7
:102200003A1090935A108093591080913B109091FE
:102210003C1090935C1080935B1088E096E0909364
:102220004A10809349108AE290E09093A50F809322
:10223000A40F08952091631030916410809139109B
:1022400090913A102817390781F420916510309148
:10225000661080913B1090913C102817390729F4A3
:1022600063E570E189E590E187CE089520915B10E8
:1022700030915C102F3F4FEF340751F480915D1087
:1022800090915E10019621F486E0EAE2F3E0C6C088
:102290008091391090913A10822793274091351000
:1022A0005091361084239523892B91F440915D1031
:1022B00050915E1080913B1090913C10842795279F
:1022C000609137107091381086239723892B89F0FD
:1022D00080913110909132109093B80D8093B70D8A
:1022E00080913310909134109093BA0D8093B90D72
:1022F00008C03093B80D2093B70D5093BA0D40939A
:10230000B90D8091B70D9091B80D2091B90D309114
:10231000BA0D60E07BE0683090F4769FF001112404
:10232000E554F24F408151818417950731F4428181
:1023300053812417350709F46DC06F5FECCF6093AC
:10234000B60D683009F068C046E050E06FEF70E00D
:102350008DE390E10E94044026E0EDE5F0E1DF012D
:10236000422F1D924A95E9F7EDEAFDE0A3E4B0E1C2
:10237000822F01900D928A95E1F7EDEAFDE0A3E549
:10238000B0E1822F01900D928A95E1F78091B70D0F
:102390009091B80D90936410809363108091B90D63
:1023A0009091BA0D909366108093651080913910CA
:1023B00090913A1090935A108093591080913B104D
:1023C00090913C1090935C1080935B1080E091E0C2
:1023D000909352108093511090934C1080934B1017
:1023E00088E090E090934E1080934D1020934F1012
:1023F00084E08093501088E096E090934A10809398
:10240000491083E790E19093AE0F8093AD0F8AE27D
:1024100090E01EC06093B60D349686E0ADE3B0E167
:1024200001900D928A95E1F786E0EDEAFDE0A3E4E4
:10243000B0E101900D928A95E1F788E090E09093E9
:102440004A10809349108091A40F9091A50F0E9689
:102450009093A50F8093A40F08950F9300E020E0C0
:1024600040E060E083E19EE00E948C370F91089588
:102470000F9300E020E040E060E089E19EE00E94F0
:102480008C370F910895DC01ED91FC91008CF18D5A
:10249000E02D199591E08927089580E090E0089556
:1024A000DC011C96ED91FC911D97309741F08181E4
:1024B000882311F081E00895808184FDFBCF80E0C6
:1024C0000895FC01448555854115510551F0FB01E6
:1024D000248535852115310521F081E04217530708
:1024E00009F080E00895CF93DF931F92CDB7DEB758
:1024F000DC01ED91FC910088F189E02D41E050E094
:10250000BE016F5F7F4F199597FD03C0898190E0F1
:1025100002C08FEF9FEF0F90DF91CF910895CF937F
:10252000DF93EC01A9D3EC85FD85309749F08081DC
:1025300086FD02C081E005C08181882311F0FACFB9
:1025400080E0DF91CF910895CF92DF92EF92FF92DA
:102550000F931F93CF93DF9300D01F92CDB7DEB7B9
:102560007C018B016A01DC01ED91FC910288F38909
:10257000E02D1995F801228130E0322F2227838146
:10258000282B3227232732273A832983248130E0DE
:10259000322F22278581282B3227232732273C837D
:1025A0002B83C601D1DCBC01CE0101960E945509E6
:1025B0008C01009719F480E090E016C0D80159967C
:1025C0008C918F70C1F358D3D80159968C9159973B
:1025D0008F70833099F75C968D919C915D97F70190
:1025E0009587848781E090E00F900F900F900F9077
:1025F000DF91CF911F910F91FF90EF90DF90CF90DF
:1026000008950F931F93CF93DF931F92CDB7DEB73B
:102610008C01DC01ED91FC910688F789E02D19957C
:102620008823A1F0D8011C96ED91FC911D97818122
:10263000882361F021E030E0AE014F5F5F4F60E042
:1026400070E00E94EF05898190E002C08FEF9FEF5C
:102650000F90DF91CF911F910F910895FC0113828C
:10266000128248EE53E060E070E044835583668355
:10267000778384E393E0918380831586148608959D
:10268000EF92FF920F931F93CF93DF937C01C0E0F3
:10269000D0E000E010E0F701EC0FFD1F81810E9407
:1026A0005A04080F191F2196C530D105A1F7C8019A
:1026B000DF91CF911F910F91FF90EF900895CF93ED
:1026C000DF93EC01E881F9810688F789E02D1995FF
:1026D000882329F08C859D85DF91CF91D1CF80E033
:1026E00090E0DF91CF910895CF93DF93EFE1FEE08B
:1026F00080E0908191110AC08061DF018D9380E1BB
:10270000ED0119928A95E9F7CF0106C08F5F7196A6
:10271000843079F780E090E0DF91CF910895FC015B
:10272000319681E09191911102C0815008958F5F9F
:102730008530C1F784E008959F92AF92BF92CF9207
:10274000DF92EF92FF920F931F93CF93DF93EC01F1
:102750006B017A018A015C0186E0A80EB11C8CD263
:10276000209709F445C08881807609F041C0C501F1
:10277000D6DF982EFE01E80FF11D868181110CC075
:1027800080E092E00E940308FE01E90DF11D8683BE
:10279000882329F31C861B86A701401B510B4C0D77
:1027A0005D1D6B857C859801FE01E90DF11D86811B
:1027B0000E94FF05081B190B2B853C85280F391F2C
:1027C0003C872B87101611062CF484E0981639F2FA
:1027D0009394D6CF0E948639665F7F4F8F4F9F4F6D
:1027E0006D877E878F87988BC701801B910B02C0F6
:1027F0008FEF9FEFDF91CF911F910F91FF90EF909F
:10280000DF90CF90BF90AF909F900895CF93DF93CC
:102810001F92CDB7DEB7698341E050E0BE016F5F24
:102820007F4FFC018485958587DF0F90DF91CF91E5
:102830000895FC01848595857FCF0F931F93CF93D7
:10284000DF938C01EC0189910E94A108F801C80175
:10285000049629912193E817F907D9F7F801148212
:10286000DF91CF911F910F9108959F92AF92BF92E8
:10287000CF92DF92EF92FF920F931F93CF93DF934C
:10288000EC015B017A01E881F9810688F789E02D86
:102890001995882309F455C0EC85FD85818188232D
:1028A00009F452C087012EE1922EA701401B510B63
:1028B0004A0D5B1DEC85FD85980160E070E081812B
:1028C0000E94EF056C01EC85FD8581810E945A0410
:1028D000EC85FD85C816D90649F50C191D09CF01EF
:1028E0000196ABDFAC85BD852C91822F90E08F7077
:1028F000989EF001999EF00D1124EF54F04F818DB8
:1029000084FF05C0822F807611F420682C93EC851B
:10291000FD85818181110FC0808186FF03C01082F7
:102920001D861C86C701801B910B10C0B6018181DA
:102930000E94C30804C00115110509F0B6CFC701F4
:1029400005C08FEF9FEF02C080E090E0DF91CF9154
:102950001F910F91FF90EF90DF90CF90BF90AF90BD
:102960009F9008951F93CF93DF93EC0115E088812A
:102970000E94A10819921150D1F7DF91CF911F91B8
:102980000895CF93DF93EC018C859D85009779F0B6
:10299000FC012081222359F00196E4DFEC85FD85BE
:1029A000808186FF02C0108202C0806280831D8603
:1029B0001C86DF91CF9160C1CF93DF93EC01E8815A
:1029C000F9810688F789E02D1995882331F08C85E7
:1029D0009D850196DF91CF91C5CFDF91CF9108956D
:1029E000DF92EF92FF920F931F93CF93DF93E091CB
:1029F000AF0FF091B00FC48DD58D209779F48091F1
:102A0000AC0F86FF43C070DEEC01009709F43EC0B6
:102A1000E091AF0FF091B00F958F848F8091AC0F44
:102A200081FF07C08091A40F9091A50F892B09F019
:102A300041C0888187FF0EC08F7788838091AC0F5B
:102A400082608093AC0FE091AF0FF091B00F818D59
:102A50008F7E818F8091AC0F84FF6BC0CE01069674
:102A600081DF8981882309F467C0E091AF0FF0917D
:102A7000B00F848195819F838E8388818064888351
:102A8000E091AF0FF091B00F158E148EE12CF12C68
:102A9000B7018091AD0F9091AE0F5ADAF092A50F69
:102AA000E092A40FDF91CF911F910F91FF90EF90D3
:102AB000DF9008958881807609F0BBCFE12CF12C5E
:102AC0008E010E0D1F1DF801818181111EC08091A4
:102AD000A40F9091A50F0E940308F8018183882319
:102AE000A1F00091A40F1091A50F2091AD0F30918E
:102AF000AE0F2D5330414091770E60E070E00E94A0
:102B0000DC06F4E0EF1295CF0CC02FEFE21AF20AC8
:102B100035E0E316F104A1F68091740E8E7F809368
:102B2000740EE091AF0FF091B00F818D8061818FB5
:102B300080CF87FF03C092CF1882A2CF80FF03C04F
:102B4000CE0106967ADE8091AC0F8C70D1F18E8129
:102B50008823B9F19F8191110CC0EB84FC84E114AE
:102B6000F10409F493CFA70160E070E00E94D60859
:102B700006C00E945A047C01009709F487CF809117
:102B8000AD0F9091AE0F8D5390418093750EF7016C
:102B9000E80FF11DCF010E9403088093760E882371
:102BA00009F476CF6091750E70E0870120E030E087
:102BB0004E810E94DC068091740E82608093740EB8
:102BC00067CF888185FF62CF8E8181110BC018820B
:102BD000E091AF0FF091B00F158E148E80E18093CD
:102BE000AC0F54CFE091AF0FF091B00F818D8061A9
:102BF000818F4CCF0F9300E020E040E060E083E65F
:102C00009EE00E948C370F9108958091740E81FF91
:102C100011C02091750E30E04DE350E160E070E0AE
:102C20008091760E0E94FF058091740E8D7F8093B7
:102C3000740E14C08091A40F9091A50F0E940308F8
:102C40008093760E8823B1F02091A40F3091A50FC8
:102C50004DE350E160E070E00E94FF058091760E48
:102C60000E9459068091760E0E94A1081092760E5D
:102C700081E0089580E00895CF92DF92EF92FF9275
:102C80001F93CF93DF938091770E811104C00E9430
:102C900061058093770E8091770E882309F443C0F5
:102CA00091E09093740E0E945A049093A50F809324
:102CB000A40F892B61F122E630E04DE350E160E0A2
:102CC00070E08091770E0E94EF05809149109091FD
:102CD0004A108830910581F48091770E8093760EAA
:102CE000EAD981E00E94D9098091A40F9091A50FA3
:102CF000892B69F0BBDA0AC08830964041F40EDABD
:102D00008091A40F9091A50F892B09F07EDF80910F
:102D1000770E882341F08091740E80FF04C00E94DA
:102D200060051092770E0E9486396B017C018091BC
:102D30006A0E90916B0EA0916C0EB0916D0EA70172
:102D40009601281B390B4A0B5B0BDA01C9018095F0
:102D50009095A095B0958827B7FD83959927AA27C8
:102D6000BB27182FC1EBDFE0D093B00FC093AF0F9C
:102D7000112311F082E00FC0EC8DFD8D4585568545
:102D800067857089D701C601841B950BA60BB70B0D
:102D9000B7FD0BC083E00E94D9092091A40F3091A8
:102DA000A50F232B11F062DA30DF6E9690E1C93265
:102DB000D907D1F6112369F0AAEFCA0ED11CE11C84
:102DC000F11CC0926A0ED0926B0EE0926C0EF092E3
:102DD0006D0EDF91CF911F91FF90EF90DF90CF901C
:102DE0000895CF93DF93EC010E94863966507F4FA0
:102DF0008F4F9F4F60936A0E70936B0E80936C0E93
:102E000090936D0ECE010E94230788818093AD0DB3
:102E100089818093AE0D8A818093AF0D8B818093E1
:102E2000B00D8C818093B10D8D818093B20D0E9485
:102E30003509DF91CF912AC9CF93DF93FC01DA01E5
:102E4000E901228130E0322F22278381282B8481DF
:102E500090E0982F88274581842B3227232732271B
:102E600030933A1020933910982789279827909308
:102E70003C1080933B1012962C91129730E0322F29
:102E8000222713968C911397282B14968C911497C4
:102E900090E0982F882715964C91842B3227232772
:102EA00032273093321020933110982789279827A2
:102EB00090933410809333102A8130E0322F2227F0
:102EC0008B81282B8C8190E0982F88274D81842B33
:102ED0003227232732273093361020933510982736
:102EE000892798279093381080933710FB018281AF
:102EF0009381A481B5818093700E9093710EA093FD
:102F0000720EB093730EDF91CF910895AF92BF927E
:102F1000CF92DF92EF92FF920F931F93CF93DF93A5
:102F2000CDB7DEB768970FB6F894DEBF0FBECDBF42
:102F3000CB016A01590155DF29EB3BE03A83298334
:102F4000F70182819381A481B5818B839C83AD83BA
:102F5000BE8338872F83F80182819381A481B58154
:102F600089879A87AB87BC873E872D87F501828149
:102F70009381A481B5818F87988BA98BBA8B3C8B69
:102F80002B8BF60182819381A481B5818D8B9E8BE1
:102F9000AF8BB88F9E012F5F3F4FAE01495F5F4FF0
:102FA000BE01635F7F4FCE01439646DF68960FB642
:102FB000F894DEBF0FBECDBFDF91CF911F910F916F
:102FC000FF90EF90DF90CF90BF90AF9008956F92F9
:102FD0007F928F929F92AF92BF92CF92DF92EF92A9
:102FE000FF920F931F93CF93DF93CDB7DEB76E970A
:102FF0000FB6F894DEBF0FBECDBF6C015B017A0146
:103000004901380100E02FEF4FEF6FEFCE014996F5
:103010000E948C3729EB3BE03A8329838B8D9C8D72
:10302000AD8DBE8D8B839C83AD83BE8338872F830C
:10303000F30182819381A481B58189879A87AB87C7
:10304000BC873E872D87F40182819381A481B5815D
:103050008F87988BA98BBA8B3C8B2B8BF701428186
:103060005381648175814D8B5E8B6F8B788FCE0120
:1030700001967C018E01095F1F4F9E01235F3F4F28
:10308000AE014D5E5F4FB501C60140DF6E960FB6D3
:10309000F894DEBF0FBECDBFDF91CF911F910F918E
:1030A000FF90EF90DF90CF90BF90AF909F908F9068
:1030B0007F906F900895CF92DF92EF92FF920F93DF
:1030C0001F93CF93DF93CDB7DEB768970FB6F89411
:1030D000DEBF0FBECDBF6B017901DA0112964D91B3
:1030E0005D916D917C9115974D8B5E8B6F8B788F79
:1030F000A9EBBBE0BA83A98321E0288F0D891E8943
:103100002F89388D0B831C832D833E83B887AF8333
:10311000F701028113812481358109871A872B8762
:103120003C87BE87AD874F87588B698B7A8B8E0122
:103130000F5F1F4F9E01295F3F4FAE01435F5F4FFF
:10314000B60145DF68960FB6F894DEBF0FBECDBF5F
:10315000DF91CF911F910F91FF90EF90DF90CF9073
:1031600008950F931F93CF93DF93CDB7DEB7629788
:103170000FB6F894DEBF0FBECDBFDB01FA0142816E
:103180005381648175814F87588B698B7A8BE9EB0A
:10319000FBE0FA83E98321E02A8B0F8518892989CE
:1031A0003A890B831C832D833E83F887EF834987FD
:1031B0005A876B877C879E012F5F3F4FAE01495F27
:1031C0005F4FBD0178DF62960FB6F894DEBF0FBE89
:1031D000CDBFDF91CF911F910F910895FB01415019
:1031E0005109460F571FE417F50778F4208130E0A6
:1031F000322F22276181260F311D820F931F8217E4
:10320000930708F401963296EECFE417F50751F4D0
:10321000208130E0322F2227820F931F82179307DD
:1032200008F40196089544E150E06BE470E180E019
:1032300090E0D4DF009711F00C94A40F8FEF9FEF74
:1032400008950F931F93CF93DF9380914D1090E0DB
:10325000982F882720914E10820F911D8C010451C8
:10326000110948E050E067E570E10E97B7DFC091C3
:103270006B10C695C695CC73D0E0AE016FE570E1DA
:10328000ADDFC017D10750F498012C1B3D0BAE01E8
:103290004E5D5F4F6091760E0E94AA07009731F055
:1032A000DF91CF911F910F910C94A40F8FEF9FEF9F
:1032B000DF91CF911F910F910895B5CF0F9300E04B
:1032C00020E040E060E088E79EE00E948C378EE6D8
:1032D0009EE00F910C9482370F9300E020E040E0D5
:1032E00060E08EE79EE00E948C370F9108950F9367
:1032F00000E020E040E060E084E89EE00E948C373F
:103300000F910895FC0110820895CF92DF92EF9201
:10331000FF92CF93DF93EC016A017B018B859C8543
:10332000AD85BE859A01AB01281B390B4A0B5B0B9F
:10333000DA01C90149815A816B817C818417950723
:10334000A607B707D8F08881813019F0823029F0BC
:103350000CC0E985FA85199508C061E0888581115E
:1033600060E068878F810E94D23ACB86DC86ED864A
:10337000FE868F8598890196988B8F878D819E8197
:1033800097FD06C02F853889281739070CF0188259
:10339000DF91CF91FF90EF90DF90CF9008950F9342
:1033A0001F93CF93DF93EC018C0106551F4FCE0185
:1033B000A9DF6196C017D107D1F7DF91CF911F9197
:1033C0000F910895CF92DF92EF92FF921F93CF93C8
:1033D000DF936A017B01EC011AE08881882321F0E8
:1033E000B701A601CE0191DF115061961111F5CF01
:1033F000DF91CF911F91FF90EF90DF90CF900895D4
:10340000CF93DF93EC010E948639AB01BC01CE0162
:10341000DF91CF91D7CF20E0FC013081332331F011
:103420002F5F41962A30C1F78FEF0895822F0895BC
:10343000CF92DF92EF92FF920F931F93CF93DF9380
:1034400000D01F92CDB7DEB76C01790149835A8352
:103450006B837C83E0DF282F49815A816B817C81DB
:103460008F3FD9F081E12802C00CD11C112481E0EA
:10347000F6018083418352836383748316830583BB
:10348000F286E18629830E948639F6016387748774
:1034900085879687108A17862981822F0F900F9033
:1034A0000F900F90DF91CF911F910F91FF90EF90B0
:1034B000DF90CF9008950F931F930FEF1FEFB8DFAA
:1034C0001F910F91089529E733E0FC013183208398
:1034D000089529E733E0FC01318320830C943B39C4
:1034E0000F931F93CF93DF93EC018B01CA0149E740
:1034F00053E0598348832A879B838A83222331F0B0
:1035000040E553E06FE673E00E9463281D830C835F
:10351000C801E8D09F838E83C801E6D09987888749
:10352000DF91CF911F910F9108950F931F93CF9328
:10353000DF938C01C0E0D0E0F80180859185C81749
:10354000D907ACF4D8011696ED91FC911797CE01EE
:10355000880F991FE80FF91F80819181009729F04A
:1035600012966D917C91139707D42196E5CFDF9148
:10357000CF911F910F910895AF92BF92CF92DF929A
:10358000EF92FF920F931F93CF93DF938C017B01F8
:103590006A01C0E0D0E0F80180859185C817D9079D
:1035A0003CF55E01AA0CBB1CD8011696ED91FC916E
:1035B0001797EA0DFB1D80819181009721F0B701DB
:1035C00087D3811102C02196E6CFD8011696ED91DE
:1035D000FC911797EA0DFB1D80819181DC01ED9133
:1035E000FC910480F581E02DA601B7011995EBCF80
:1035F000DF91CF911F910F91FF90EF90DF90CF90CF
:10360000BF90AF900895DC0114968D919C91159711
:10361000DC01ED91FC910680F781E02D19940F9368
:1036200000E020E040E060E08AE89EE00E948C3705
:103630000F9108950F9300E020E040E060E080E902
:103640009EE00E948C370F91089521E833E0FC0141
:103650003183208311C5CF93DF93EC01F6DFCE01D8
:10366000DF91CF910C943B39EF920F93CF93DF937F
:10367000EC01E12C60E070E00CD581E893E09983E7
:103680008883DF91CF910F91EF9008950F9300E021
:1036900020E040E060E086E99EE00E948C370F91D8
:1036A000089529E833E0FC0131832083089529E857
:1036B00033E0FC01318320830C943B3929E833E06B
:1036C000FC0131832083778B668B20E030E0FC01A6
:1036D000E20FF31F138212822E5F3F4F2431310518
:1036E000B1F70895029608958AE090E008950F9347
:1036F00000E020E040E060E08CE99EE00E948C3732
:103700000F91089525E933E0FC0131832083B4C48F
:10371000CF93DF93EC01F6DFCE01DF91CF910C94D4
:103720003B39EF920F93CF93DF93EC01E12C62E0F2
:1037300070E0AFD485E993E099838883DF91CF91DE
:103740000F91EF9008950F9300E020E040E060E0DB
:1037500082EA9EE00E948C370F910895DF92EF92EB
:10376000FF920F931F93CF93DF9300D000D0CDB77C
:10377000DEB77C018B018091A80E9091A90E86176F
:10378000970721F07093A90E6093A80EC7010E94BD
:10379000E424D82E811121C022E73BE0A90169E988
:1037A00073E0C7010E9464268823B9F069E973E0D9
:1037B000CE0101960E94F93849E953E0BA01C701E8
:1037C0000E9463280115110511F0C801AEDECE017B
:1037D00001960E949238DD24D3948D2D26960FB643
:1037E000F894DEBF0FBECDBFDF91CF911F910F9137
:1037F000FF90EF90DF900895AB01BC018091A80E7F
:103800009091A90EB9CECF93DF93CDB7DEB72A97AB
:103810000FB6F894DEBF0FBECDBFDB01FE013196BF
:10382000BF019F01261B370B4217530718F02D913C
:103830002193F7CFFB01E40FF51F1082DDDF2A96FD
:103840000FB6F894DEBF0FBECDBFDF91CF910895C4
:103850000F9300E020E040E060E08AEA9EE00E94F2
:103860008C370F91089523EB33E0FC0131832083E3
:10387000089523EB33E0FC01318320830C943B3922
:103880000F931F93CF93DF931F92CDB7DEB78C01B9
:10389000FC016483828169830E94073B6981262F32
:1038A00030E08217930721F0F80182810E94D23A1A
:1038B000F8018481882319F04CEA53E002C047E9FB
:1038C00054E0F80165817681878190850F90DF91C2
:1038D000CF911F910F910C946328CF92DF92EF92BA
:1038E0000F931F93CF93DF931F92CDB7DEB76C0179
:1038F000862FE3EBF3E0D6011196FC93EE93189636
:103900001C930E93179712966C93129713967C93B1
:10391000139714964C93149716963C932E931597E1
:103920001996EC9261E049830E94993A4981642F8B
:10393000C6010F90DF91CF911F910F91EF90DF9013
:10394000CF909ECF0F9300E020E040E060E080EB5E
:103950009EE00E948C370F91089523EF34E0FC0124
:1039600031832083089523EF34E0FC0131832083E9
:103970000C943B39FC0183EF94E091838083738343
:1039800062835583448322A382E090E097838683F9
:1039900040E050E068EC71E44287538764877587A4
:1039A0001686178681E490E0938B828B148A118EA1
:1039B000158E128E138E148E0895DF92EF92FF9261
:1039C0000F931F93CF93DF937A01E9016130710563
:1039D00089F062307105D1F0672B31F58EE090E00F
:1039E0000E943A39D82E192F9E01A70160E070E09D
:1039F0003BDE17C08EE090E00E943A39D82E192F96
:103A00009E01A70161E070E0F6D30BC08FE090E06B
:103A10000E943A39D82E192F9E01A70162E070E06A
:103A200080DE8D2D912F02C080E090E0DF91CF915C
:103A30001F910F91FF90EF90DF9008954F925F924A
:103A40006F927F928F929F92AF92BF92CF92DF92AE
:103A5000EF92FF92CF93DF93EC018E819F81892BB0
:103A600011F41C8A5FC088899989009709F45AC0AB
:103A70009CD34B015C016A897B89882777FD8095FF
:103A8000982F0E94CC3B6B017C0120E030E040E4A9
:103A900050E4C501B4010E94303B2B013C019B0165
:103AA000AC01C701B6010E94953B181624F081E0D5
:103AB0008C8B8D8B1CC0A3019201C701B6010E94A3
:103AC000953B181624F081E08C8B1D8A10C020E0F5
:103AD00030E040E450E4C501B4010E94313B9B0159
:103AE000AC01C701B6010E947C3C87FF1C8A8AA1F9
:103AF0008823B1F047EB53E06FE673E08C819D8142
:103B00000E9463282C898C819D81222319F040ED2D
:103B100053E002C045EE53E06FE673E00E94632875
:103B20008C8901C080E0DF91CF91FF90EF90DF9012
:103B3000CF90BF90AF909F908F907F906F905F904D
:103B40004F9008958F929F92AF92BF92CF92DF9243
:103B5000EF92FF92CF93DF93EC018E819F81892BAF
:103B600011F41E864EC088859985009709F449C0D6
:103B70001CD34B015C01898D882341F1CA84DB840D
:103B8000EC84FD8420E030E040E05FE3C501B40157
:103B90000E94313B9B01AC01C701B6010E947C3CF5
:103BA00087FD03C081E08E8711C020E030E040E057
:103BB0005FE3C501B4010E94303B9B01AC01C7012A
:103BC000B6010E94953B18160CF01E868AA1882328
:103BD000B1F04BEF53E06FE673E08C819D810E9462
:103BE00063282E858C819D81222319F045E154E0C4
:103BF00002C04AE254E06FE673E00E9463288E85BB
:103C000001C080E0DF91CF91FF90EF90DF90CF90E7
:103C1000BF90AF909F908F9008958F929F92AF9298
:103C2000BF92CF92DF92EF92FF92CF93DF93EC019E
:103C30008E819F81892B11F41F863EC088859985CE
:103C40000097D1F1B2D24B015C018D8D882339F1FF
:103C5000CA84DB84EC84FD8420E030E040E05FE354
:103C6000C501B4010E94303B9B01AC01C701B60104
:103C70000E94953B18161CF081E08F8710C020E051
:103C800030E040E05FE3C501B4010E94313B9B019D
:103C9000AC01C701B6010E947C3C87FF1F868AA148
:103CA000882341F040E454E06FE673E08C819D810D
:103CB0000E9463288F8501C080E0DF91CF91FF9043
:103CC000EF90DF90CF90BF90AF909F908F9008952E
:103CD000CF92DF92EF92FF920F931F93CF93DF93D8
:103CE0008C016B01DC019096ED90FC909197C0E007
:103CF000D0E0CE15DF059CF4D8015E96ED91FC91E5
:103D00005F97CE01880F991FE80FF91FB6018081D8
:103D100091810E940B40892B21F02196EACF80E00F
:103D200001C081E0DF91CF911F910F91FF90EF9043
:103D3000DF90CF900895CF92DF92EF92FF920F9392
:103D40001F93CF93DF937A016901EB0100E010E04C
:103D50000E151F0544F469917991C6010E94CB2884
:103D60000F5F1F4FF5CFDF91CF911F910F91FF9004
:103D7000EF90DF90CF9008959B01FC0140A151A1ED
:103D8000668D778DD8CFCF93DF93EB01CA016CEAB4
:103D900073E00E940B40892B11F461E001C060E0E8
:103DA000CE01DF91CF916CCDCF93DF93EC01898D64
:103DB000E881F981882319F08E85811105C006807C
:103DC000F781E02D60E004C00680F781E02D61E01E
:103DD000CE0119958D8DE881F981882341F08F8579
:103DE000882329F00084F185E02D61E004C000847F
:103DF000F185E02D60E0CE0119958A8DE881F98189
:103E0000882349F08C89882331F00284F385E02DE2
:103E10004D8961E005C00284F385E02D4D8960E0A5
:103E2000CE01DF91CF911994CF93DF93EC01888578
:103E30009985009759F0BFD1CE0184DECE01EDDE29
:103E40006C817D818885998536D108C04DE554E027
:103E50006FE673E08C819D810E9463288E819F8133
:103E6000019721F0CE01DF91CF919ECFDF91CF91CD
:103E70000895CF93DF93EC014A875B876C877D873A
:103E80008AA1882341F04FE654E06FE673E08C810D
:103E90009D810E946328CE0155DECE01BEDE8E815B
:103EA0009F81019721F0CE01DF91CF917DCFDF91EE
:103EB000CF910895CF93DF93EC01C0DDCE0142DEB8
:103EC000CE01ABDECE01DF91CF916ECF0F931F936A
:103ED000CF93DF93EC018B0163E974E0C8010E948A
:103EE0000B40892B19F41F821E8214C06BE974E009
:103EF000C8010E940B40892B49F481E090E09F8328
:103F00008E83DF91CF911F910F91089582E090E011
:103F10009F838E83CE01DF91CF911F910F91CACFE6
:103F2000EF92FF920F931F93CF93DF93EC018B01DE
:103F30007A0188859985009709F004D18889998943
:103F4000009719F0A701B801FDD08E899F890097CD
:103F500019F0A701B801F6D0CE01DF91CF911F91E2
:103F60000F91FF90EF90A6CF0F931F93CF93DF9306
:103F7000EC010889198901151105B9F0882777FD29
:103F80008095982F0E94CC3BAB01BC01C80113D196
:103F9000CE0154DD6C817D81888999898CD08AA17C
:103FA000882359F042EA54E002C04DEB54E06FE63A
:103FB00073E08C819D810E9463288E819F8101978F
:103FC00031F0CE01DF91CF911F910F91EDCEDF91B6
:103FD000CF911F910F910895CF93DF93EC017B8BCD
:103FE0006A8B8AA1882341F04EEC54E06FE673E0BF
:103FF0008C819D810E946328CE0120DD8E819F816E
:10400000019721F0CE01DF91CF91CECEDF91CF91FC
:104010000895FC01848195810895FC0182A1089591
:10402000FC0162A30895FC01808991890895FC0137
:10403000718B608B0895FC01808591850895FC014A
:10404000718760870895FC01618F0895FC01628F7C
:104050000895FC01778F668F0895FC0171A360A31A
:1040600008950F9300E020E040E060E086EB9EE0E2
:104070000E948C370F9108952CED35E0FC013183BF
:10408000208308952CED35E0FC01318320830C94CE
:104090003B39EF920F93FC018CED95E09183808387
:1040A0007387628753834283358324830487E5863D
:1040B0000F91EF900895CF92DF92EF92FF920F93BE
:1040C0001F93CF93DF93CDB7DEB72A970FB6F8943F
:1040D000DEBF0FBECDBF7C016B01FC018485882350
:1040E000C1F066817781808591858E010F5F1F4FBA
:1040F00022E045E00E946B3DF70164817581A801D3
:10410000C601E1D7F7018585882369F04FEF54E0B8
:1041100006C0F7018585882331F048E255E06FE657
:1041200073E0C601D0D72A960FB6F894DEBF0FBE53
:10413000CDBFDF91CF911F910F91FF90EF90DF9056
:10414000CF9008950F931F93CF93DF93EC018A01D3
:104150008C85811125C08C819D810E940B40892B0B
:1041600089F4C8010E94F03F6E837F838887998716
:104170008D858823A9F0B8018DE795E00E94144051
:10418000AC0105C08D85882359F04EEA55E06FE6F5
:1041900073E08A819B81DF91CF911F910F9193C72B
:1041A000DF91CF911F910F910895FC016681778176
:1041B000808591850895FC014683578360877187C8
:1041C00008950F9300E020E040E060E08CEB9EE07B
:1041D0000E948C370F91089524EE35E0FC01318365
:1041E00020834ACFCF93DF93EC01F6DFCE01DF913E
:1041F000CF910C943B39EF920F93CF93DF93EC0167
:10420000E12C61E070E045DF84EE95E099838883DE
:10421000DF91CF910F91EF9008950F9300E020E090
:1042200040E060E082EC9EE00E948C370F910895A0
:10423000FF920F931F93CF93DF93FC010081C18105
:10424000D281F8948981F02EF0948F21898378941B
:104250001DE7115029F182E090E00E94DA3988814F
:104260008023B9F3F8948A818F218A838981802BF6
:104270008983789480EE91E00E94DA39F8948981FC
:104280008F21898386E490E00E94DA398881802337
:1042900011E009F010E078948AE991E00E94DA399F
:1042A000812FDF91CF911F910F91FF9008951F9360
:1042B000CF93DF93FC011081C181D281912F909522
:1042C00060FF12C0F8948A8189238A838981812BB7
:1042D00089838AE090E00E94DA398A81812B8A837F
:1042E000789487E390E011C0F8948A8189238A83C7
:1042F0008981812B898381E490E00E94DA398A8167
:10430000812B8A83789485E090E0DF91CF911F9193
:104310000C94DA390F931F93CF93DF93FC01108134
:10432000C181D281F8948981812B89838A81012F6F
:10433000009580238A8383E090E00E94DA398981A6
:10434000802389838AE090E00E94DA39C8817894DA
:1043500085E390E00E94DA391C2381E009F480E0D3
:10436000DF91CF911F910F910895CF92DF92EF923D
:10437000FF920F931F93CF93DF931F92CDB7DEB7BA
:104380006C01E62E08E010E0FF24F39461E09F2D1D
:104390009E2109F460E0C601498389DFFF0C0150CA
:1043A000110949810115110589F7411115C0F894CA
:1043B000D6011196ED91FC91129791818C91809587
:1043C000892381831196ED91FC91129792818C91B2
:1043D00080958923828378940F90DF91CF911F91EC
:1043E0000F91FF90EF90DF90CF900895EF92FF92A2
:1043F0000F931F93CF93DF938C01C8E0D0E0F12C93
:10440000EE24E394C80186DF8111FE28EE0C21978B
:10441000C9F78F2DDF91CF911F910F91FF90EF90F2
:104420000895CF92DF92FF920F931F93CF93DF9364
:104430001F92CDB7DEB78C01F62E40E065E579839B
:1044400094DFCF2C7981D72E88E0F82EF601619188
:104450006F0140E0C80189DFFA94C1F70F90DF9146
:10446000CF911F910F91FF90DF90CF90089540E082
:104470006CEC7BCFFC0113861586148627E030E0B8
:10448000DF01A20FB31F13961C922115310519F0FD
:1044900021503109F5CF08951F93CF93DF93EC019D
:1044A000162F60E0812F0E94993A612F70E0FB0186
:1044B000E25AFD4FE491E883FB01EC55FD4FE49196
:1044C000F0E0EE0FFF1FE651FD4F859194919A8326
:1044D0008983CE01DF91CF911F91CCCFAF92BF9254
:1044E000CF92DF92EF92FF920F931F93CF93DF93C0
:1044F0001F92CDB7DEB75C01D62EE72EFC01858575
:1045000081115FC0C501498393DE4981811105C0D6
:10451000F5011386158614866DC0442319F040E01A
:1045200060EF02C040E06CEEC5011FDF01E0F12C3E
:10453000C12C11E0C501EEDE682FC5016983EADEFA
:104540006981613019F48130B9F432C02F2D30E027
:1045500068131BC0F5018385181730F4E20FF31FB1
:104560008381802349F402C0181731F060E01930CC
:1045700058F4F501148708C0F501EF0DF11D838192
:10458000802B838361E009C0C12EF501E20FF31F88
:104590008381902F909589238383C50188DE1F5FD7
:1045A000000F11F4F39401E0F7E0FF1508F0C2CF1B
:1045B000113438F0F501C386C11009C081E0858748
:1045C00006C0F50113861586148680E013C0F50138
:1045D00083818823B1F3ED2DFE2D80E090E0D5019D
:1045E000A80FB91F13962C9121930196883091053D
:1045F000B1F781E00F90DF91CF911F910F91FF9064
:10460000EF90DF90CF90BF90AF900895DC0180E0F5
:10461000615038F0ED91E827F0E0E85EFE4F8491BC
:10462000F7CF0895CF92DF92EF92FF920F931F93EF
:10463000CF93DF93EC018B010E9486396B017C01E3
:1046400088819981DC01ED91FC910480F581E02D58
:104650001995892B69F40E9486396C197D098E0998
:104660009F0968397A438105910550F380E00CC0B9
:1046700088819981DC01ED91FC910680F781E02D24
:104680001995F801808381E0DF91CF911F910F91FF
:10469000FF90EF90DF90CF9008950F931F93CF93EB
:1046A000DF93EA0108811981600F711FBBDF882346
:1046B00031F00F5F1F4F1983088381E001C080E054
:1046C000DF91CF911F910F9108953F924F925F928A
:1046D0006F927F928F929F92AF92BF92CF92DF9212
:1046E000EF92FF920F931F93CF93DF9300D0CDB73C
:1046F000DEB78C016B011A8219825C0182E0A80E80
:10470000B11CAE014F5F5F4FB501C801C6DF81111B
:1047100003C080E090E0B9C0D80112969C901B8243
:10472000E12CF12C412C512C32014394BE016D5FE0
:104730007F4FC80177DF882361F329813A81C9015E
:1047400001969A8389836B81F801E20FF31F6283DC
:10475000462F4F7750E0449D9001459D300D549D6C
:10476000300D1124E20EF31E97E0440C551C661C1C
:10477000771C9A95D1F767FDD9CF292D207F332457
:104780003394203309F0312C8150F601808333209B
:1047900031F1AE014F5F5F4FB501C8017EDF882365
:1047A00009F4B7CFAE014F5F5F4FB501C80175DFA8
:1047B000882309F4AECFD6018C91F801E80FF11DE2
:1047C0004380512C542C44248481480E511CF80100
:1047D000828181FF08C0F2E04F0E511C04C080E0CE
:1047E000412C512C01C082E0A82EB12C612C712CDF
:1047F000480189E9880E911CC3018A0D9B1D8E1505
:104800009F0598F5BE016D5F7F4FC8010BDF8823C0
:1048100009F47FCFD4018D919C910097A9F03320AA
:1048200099F029813A8122503109F6014081241BF7
:1048300031094216530640F4DC01ED91FC910190E0
:10484000F081E02D6B81199589819A8180389105DD
:1048500028F42B81F801E80FF91F228301969A832F
:104860008983BFEF6B1A7B0AC7CFF801E756FF4F6A
:1048700080819181892B39F489819A8181389105D0
:1048800010F01A82198289819A810F900F900F90EF
:10489000DF91CF911F910F91FF90EF90DF90CF901C
:1048A000BF90AF909F908F907F906F905F904F9050
:1048B0003F900895AF92BF92CF92DF92EF92FF9216
:1048C0000F931F93CF93DF9300D01F92CDB7DEB726
:1048D0007C01F90180E09E2F9F77EE0FEF2FEE1FF6
:1048E000FF0BF195309709F09068A1E0B0E0AC0FB4
:1048F000BD1FA80FB11D9C938F5F309761F7A82E45
:10490000B12CDA01AA19BB0914966C93BE016F5F32
:104910007F4F80E090E04A195B098A159B0554F4AB
:10492000FB01D190BF018A01080F191FF801D58240
:104930000196F3CFF7018081918189010F5F1F4FAD
:104940000A0D1B1DFC0120813181F9012281338177
:10495000A801BD01F90119956C010E948639F70182
:10496000EC57FF4F608371838283938381E0C0168D
:10497000D10609F080E00F900F900F900F90DF911B
:10498000CF911F910F91FF90EF90DF90CF90BF904C
:10499000AF900895C9010296DB01FD01E61BF70BFC
:1049A0002D91222331F0FA01E80FF91F208301969F
:1049B000F4CF9C012E1B3F0B240F351FD9011297FA
:1049C000FC931196EC930895CF93DF93EC018881CB
:1049D0009981009731F1DC01ED91FC910488F58912
:1049E000E02D199581111FC0FE01E556FF4F808112
:1049F0009181892BB1F48DEF9FEF91838083888122
:104A00009981DC01ED91FC910284F385E02D1995EB
:104A100088819981DC01ED91FC910288F389E02D78
:104A2000199580E001C081E0DF91CF9108952F9228
:104A30003F924F925F926F927F928F929F92AF922E
:104A4000BF92CF92EF92FF920F931F93CF93DF937A
:104A5000CDB7DEB72E970FB6F894DEBF0FBECDBF31
:104A60004C011B012A013901AFDF811114C1F4018E
:104A7000EB56FF4F60817181D4018D919C9111970C
:104A8000A956BF4FFC01208131816115710541F0AC
:104A90004D915C91D9011E96ED91FC911F971FC01D
:104AA000F9010484F585E02DFE87ED87ED91FC91F9
:104AB00029EB3BE03A832983D401A157BF4F1296DB
:104AC0004D915D916D917C9115974B835C836D83C6
:104AD0007E83AF01BE016F5F7F4FED85FE85199527
:104AE000F4018130910509F0CEC0EE57FF4F91835C
:104AF000808389E0E5E1F2E0DE01119601900D92FC
:104B00008A95E1F7FE01319680E090E02191D40191
:104B1000A80FB91F17962C93019689309105B1F70C
:104B20000115110559F0F0E2CF9EC00111248660F5
:104B300028E0E29E700111248E2901C082E0411418
:104B4000510431F06114710411F4806801C0806C6B
:104B5000D40150968C93509751961C9251978FE0A8
:104B600052968C937401B2E0EB0EF11C21E130E01F
:104B7000A701B101C4010EDF0115110551F09C011F
:104B8000A701B801C40106DF9C01A701B501C4015A
:104B900001DF4114510469F09C01A701B201C40175
:104BA000F9DE6114710429F09C01A701B301C4016D
:104BB000F1DE9C0125503109A70160E1C4017ADED4
:104BC0000E948639F401EC57FF4F60837183828322
:104BD0009383840108571F4FF80160837183828398
:104BE0009383F40180819181DC01ED91FC9104803B
:104BF000F581E02D1995892BC1F40E948639D801E1
:104C00004D905D906D907C906419750986099709A7
:104C100068397A438105910520F3F401E556FF4F89
:104C20008CEF9FEF9183808323C0BE01665F7F4F2F
:104C3000C4014BDD0497E1F4F4018581940125560C
:104C40003F4F7901811110C00E948639D8016D93C0
:104C50007D938D939C931397F401E457FF4F10823B
:104C6000F7011182108217C090E0D9018D939C93B7
:104C7000F40180819181DC01ED91FC910288F3893E
:104C8000E02D199506C0E556FF4F8EEF9FEF9183FB
:104C9000808380E001C081E02E960FB6F894DEBFDD
:104CA0000FBECDBFDF91CF911F910F91FF90EF907D
:104CB000CF90BF90AF909F908F907F906F905F90BC
:104CC0004F903F902F900895AF92BF92CF92EF9266
:104CD0000F931F93A12CB12CC12CE12C00E010E00C
:104CE000A6DE1F910F91EF90CF90BF90AF900895E7
:104CF0002F923F924F925F926F927F928F929F92EC
:104D0000AF92BF92CF92DF92EF92FF920F931F93D9
:104D1000CF93DF9300D01F92CDB7DEB78C014DB695
:104D20005EB652DE882309F441C10E9486396B01C8
:104D30007C01580128E8A20EB11CF5018081918107
:104D4000A281B381A7019601281B390B4A0B5B0B8B
:104D5000DA01C90189399A43A105B10590F4349764
:104D600080819181A281B381A7019601281B390B13
:104D70004A0B5B0BDA01C90189399A43A105B105D8
:104D8000C0F148014CE8840E911CD4012C91F8012B
:104D900080819181222371F0E556FF4F2CEF3FEF88
:104DA00031832083DC01ED91FC910288F389E02DB1
:104DB0001995FCC020ECF80122831382DC01ED91EF
:104DC000FC910280F381E02D42E050E0B8016E5F7B
:104DD0007F4F1995F801EC57FF4FC082D182E282D4
:104DE000F382F501C082D182E282F38281E0D401B4
:104DF0008C93F80180819181DC01ED91FC9104801C
:104E0000F581E02D1995892B09F4D2C0BE016F5FA1
:104E10007F4FC8015ADCFC01009709F4C9C0D501D5
:104E2000CD92DD92ED92FC921397D80112968C915F
:104E3000807F803309F09FC04801BDE88B0E911C34
:104E4000D4018D919C91892B09F4B2C02DB63EB648
:104E5000698170E0D801A60FB71F13964C91139784
:104E600050E0542F442714968C911497480F511DED
:104E7000CA0101962DB73EB7281B390B0FB6F8941F
:104E80003EBF0FBE2DBF8DB79EB701965C0120E0DF
:104E900030E0BC83AB832417350769F06B807C80DE
:104EA000620E731ED30115966C90D5016D925D0153
:104EB0002F5F3F4FF0CFDC01A20FB31F1C92D80130
:104EC0001296BC91B670BA83B230E9F53901660E1C
:104ED000771ED801A60DB71D1596AC901597B12C6D
:104EE000BA2CAA2416964C91A40EB11C4BEF5FEF7E
:104EF000461B570B421B530B4E0F5F1FB301695FDD
:104F00007F4F600F711FD401ED91FC91199580E4E2
:104F1000F80182837A807382B482A582D8018D9150
:104F20009D91BD01DC01ED91FC910280F381E02DAA
:104F300044E050E01995F801EC57FF4FC082D18250
:104F4000E282F38212C04DEF5FEF461B570B421B0C
:104F5000530B4E0F5F1F620F731F6B5F7F4F600F0E
:104F6000711FD401ED91FC9119950FB6F8943EBED6
:104F70000FBE2DBE1DC0803C91F480EDF8018283F0
:104F80001382D8018D919D91BD01DC01ED91FC91C1
:104F90000280F381E02D42E050E0199509C0803D88
:104FA00039F4F801E457FF4F108202C080E001C0DD
:104FB00081E00FB6F8945EBE0FBE4DBE0F900F900D
:104FC0000F900F90DF91CF911F910F91FF90EF9075
:104FD000DF90CF90BF90AF909F908F907F906F9019
:104FE0005F904F903F902F9008958F929F92BF9225
:104FF000CF92DF92EF92FF920F931F93CF93DF93A5
:105000001F921F92CDB7DEB74C01B42E152F790138
:1050100069837A83D9DC69817A81882309F444C061
:10502000FB0101900020E9F73197E61BF70BC70160
:1050300007968E0F9F1F81389105B0F5640182E0BD
:10504000C80ED11C25E030E0A601C401A3DCEB2D85
:10505000F12F60E070E09401280F391F6E157F0575
:1050600049F04191D901A60FB71F12964C936F5F7B
:105070007F4FF4CF011102C060E301C061E39701EB
:1050800025503109280F391FA601C4010F900F9038
:10509000DF91CF911F910F91FF90EF90DF90CF9014
:1050A000BF909F908F9006CC80E00F900F90DF9183
:1050B000CF911F910F91FF90EF90DF90CF90BF9015
:1050C0009F908F9008950F93FA0101900020E9F7C7
:1050D0009F0121503109241B350B00E086DF0F9121
:1050E0000895CF92DF92FF920F931F93CF93DF9398
:1050F0001F921F92CDB7DEB76C01F42E81E08417AA
:1051000008F43EC0FB0101900020E9F7E61BF70B15
:105110003896E138F105A0F5C60169837A8354DC3D
:1051200069817A81882361F1F601EE57FF4F808112
:105130009181019611F481E090E0918380838081D8
:105140009181F6019783808786010E5F1F4F27E0CC
:1051500030E0A801C6011EDCF601E80FF91FF2825B
:105160009C0124503109A80162E8C6010F900F90FC
:10517000DF91CF911F910F91FF90DF90CF909ACB4D
:1051800080E00F900F90DF91CF911F910F91FF90D2
:10519000DF90CF90089540E0A4CFCF92DF92EF92BE
:1051A000FF920F931F93CF93DF93CDB7DEB72C976A
:1051B0000FB6F894DEBF0FBECDBF7C01FB016A01C4
:1051C0000381228141816081CE0107960E948C3744
:1051D00009851A852B853C85F701E157FF4F02832E
:1051E0001383248335833896D182C082329711820B
:1051F0001082C7012C960FB6F894DEBF0FBECDBF4C
:10520000DF91CF911F910F91FF90EF90DF90CF90A2
:105210000895CF92DF92EF92FF920F931F93CF9357
:10522000DF9300D01F92CDB7DEB76C0179018157B3
:105230009F4F4B835C8369837A830E948237F60198
:10524000E556FF4F8FEF9FEF918380834B815C8109
:1052500069817A81C601A1DFF601E357FF4FF18230
:10526000E082F60111830083E756FF4F118210821E
:105270000F900F900F900F90DF91CF911F910F9192
:10528000FF90EF90DF90CF9008950F9300E020E023
:1052900040E060E088EC9EE00E948C370F9108951A
:1052A0000895FC0180E599E2928B818B768365837A
:1052B0001482108289E0818381E082838383089550
:1052C000CF93DF93EB0167E0CE01A0D991E02F816E
:1052D000821390E0892FDF91CF910895EF92FF9292
:1052E0000F931F93CF93DF93EC018B01E42E8D81FD
:1052F0009E81C0D8F12C41E0B8018D819E81EED80D
:10530000882351F0FE1005C0B801CE01D9DF81110C
:1053100004C0F394EF1478F780E0DF91CF911F91F0
:105320000F91FF90EF900895CF92DF92EF92FF924E
:105330000F931F93CF93DF931F921F92CDB7DEB7CA
:105340006C01F42EE52EFC018581968169837A83B8
:105350000E94182169817A81882301F1F6018581F3
:1053600096815FD840E06EEBF601858196810E94C0
:10537000B5210F2D1E2D89E0F82EF601858196812D
:1053800035D8F80181938F01FA94B9F7F601858138
:1053900096810E94182191E0813009F090E0892FD8
:1053A0000F900F90DF91CF911F910F91FF90EF9091
:1053B000DF90CF900895CF93DF93EA01B5DF882384
:1053C00049F068E0CE0122D991E02885821390E06F
:1053D000892F01C080E0DF91CF910895EF92FF9275
:1053E0001F93CF93DF931F921F92CDB7DEB77C013F
:1053F000FC018581968169837A830E9418216981E5
:105400007A81F701858196810CD840E064EBF70141
:10541000858196810E94B521F701858196810E9440
:105420008A21182FF701858196810E94182181E039
:10543000111180E00F900F90DF91CF911F91FF909D
:10544000EF900895CF93DF93CDB7DEB729970FB6CE
:10545000F894DEBF0FBECDBFFB0120812031C9F023
:10546000AE014F5F5F4FA7DF882379F08D818F33C7
:1054700051F020F48F3149F489E00CC08F3539F0B8
:105480008F3739F002C08AE005C080E003C08BE0AE
:1054900001C08CE029960FB6F894DEBF0FBECDBFD9
:1054A000DF91CF910895FF920F931F93CF93DF93D6
:1054B000CDB7DEB728970FB6F894DEBF0FBECDBFCD
:1054C0008C01FC01858196810E943A22F8011482A8
:1054D00041E0BE016F5F7F4FF801858196810E9498
:1054E0006E22882369F1BE016F5F7F4FC801E8DE3D
:1054F000882371F3F8018081811107C0BE016F5FBD
:105500007F4FC8016BDF811117C0F801F180BE0128
:105510006F5F7F4FC80196DF8F1518F4F801818106
:1055200005C0BE016F5F7F4FC8018CDFF80181832A
:1055300084818F5F8483CCCF81E0F8018083E5CFC5
:1055400028960FB6F894DEBF0FBECDBFDF91CF9186
:105550001F910F91FF900895CF93DF93CDB7DEB7E2
:1055600029970FB6F894DEBF0FBECDBFAE014F5FD7
:105570005F4FDADE81E09981911101C080E02996C8
:105580000FB6F894DEBF0FBECDBFDF91CF91089567
:105590008F929F92AF92BF92CF92DF92EF92FF9243
:1055A0000F931F93CF93DF93EC018A01695063300F
:1055B00048F4E62FF0E0EE0FFF1FE851FA4F80802D
:1055C000918004C09EEE892E92E0992E011511055E
:1055D000F9F08B818823E1F08881811119C00E9444
:1055E00086396B017C01AA2497FCA094BA2CB801DF
:1055F000CE01B2DF81111FC00E9486396819790976
:105600008A099B096C157D058E059F05A0F4EFCFD7
:10561000B401882777FD8095982FDF91CF911F9156
:105620000F91FF90EF90DF90CF90BF90AF909F9041
:105630008F900C94B539DF91CF911F910F91FF900E
:10564000EF90DF90CF90BF90AF909F908F90089594
:10565000CF93DF93EC018D819E810E9418218D8173
:105660009E810E943722488164E48D819E810E9440
:10567000B5218A81882339F040E050E06981CE016C
:10568000DF91CF9185CFDF91CF910895FA012081ED
:1056900048E0249F90011124818190E0982F882771
:1056A000990F990F990F282B392BDB018C918031A1
:1056B000C1F4678170E08681AB01481B5109CA01C2
:1056C0009695982F8827979587950E94E33C60517F
:1056D0007109207F53E0220F331F5A95E1F7260FFF
:1056E000371FC9010895EF92FF920F931F93CF9335
:1056F000DF93CDB7DEB729970FB6F894DEBF0FBEA4
:10570000CDBF8C017B01AE014F5F5F4F54DE88231C
:1057100039F0AE014F5F5F4FB701C801B7DF02C07C
:1057200080E894EE29960FB6F894DEBF0FBECDBF89
:10573000DF91CF911F910F91FF90EF9008958138E5
:1057400024EE92076CF0BC01882777FD8095982F96
:105750000E94CC3B20E030E040E05CE30C94803CD5
:1057600060E070E08EEF92EC0895BDDFE8CF0F931C
:105770001F93CF93DF93CDB7DEB728970FB6F8947A
:10578000DEBF0FBECDBF8C01462FBE016F5F7F4FC6
:10579000A5DD882331F0BE016F5F7F4FC801E5DFD3
:1057A00004C060E070E08EEF92EC28960FB6F8949B
:1057B000DEBF0FBECDBFDF91CF911F910F91089536
:1057C000DC0115966C93159716964C93169770E01E
:1057D000FB01E25AFD4FE4911796EC931797FB01FA
:1057E000EC55FD4F649118966C93189740E85EE372
:1057F00060E070E01D964D935D936D937C935097A0
:105800000895CF93DF93EC0162E08D810E94993A75
:1058100040E358EF6FEF7FEF49875A876B877C87AC
:10582000DF91CF91089508950895CF93DF93EC0110
:1058300086ED96E0998388838BA19CA1009739F02F
:10584000DC01ED91FC910280F381E02D19958DA191
:105850009EA1009739F0DC01ED91FC910280F3816B
:10586000E02D1995CE010E941B20009739F0DC0134
:10587000ED91FC910280F381E02D1995CE01DF912D
:10588000CF910C94AD1CCF93DF93EC01CEDFCE0112
:10589000DF91CF910C943B391F93CF93DF93EC01B1
:1058A000162F8BA19CA10E94401C612F8DA19EA14F
:1058B000DF91CF911F910C94401CEF92FF920F93B8
:1058C0001F93CF93DF93CDB7DEB72C970FB6F89425
:1058D000DEBF0FBECDBF8C017A01CE0107960E94BC
:1058E000F938B701CE0101960E94F9386EEE75E0E5
:1058F000CE0107960E940E39882329F0B701C8010E
:105900000E94661F35C066E076E0CE0107960E94D1
:105910000E39882349F0C7010E94F03FAB01BC015A
:10592000C8010E94391F24C06DE276E0CE010796BF
:105930000E940E39882321F0F80163A174A10BC0E5
:1059400069E476E0CE0107960E940E39882341F083
:10595000F80165A176A1A701C8010E94C31E08C075
:10596000C8010E94092045E656E06FE673E0ABDB14
:10597000CE0101960E949238CE0107960E9492387D
:105980002C960FB6F894DEBF0FBECDBFDF91CF913E
:105990001F910F91FF90EF900895AF92BF92CF9219
:1059A000DF92EF920F931F93CF93DF93EC016B0184
:1059B000B42E20E0AB0160E070E00E94BA1C86EDDE
:1059C00096E09983888388E0EEE1F2E0DE01979625
:1059D00001900D928A95E1F76B2DCE010E94102067
:1059E000CE010E940D20882331F04DE756E06FE68E
:1059F00073E0C60168DB8AE090E00E943A395C01FE
:105A0000E12C860126E936E040E06EE170E00E947C
:105A10006D1CBCA2ABA28AE090E00E943A395C0106
:105A200024EB36E040E06FE170E00E946D1CBEA206
:105A3000ADA261E0CE010E94232001E024E532E026
:105A4000A60161E070E0CE010E94DD1CBC01CE0128
:105A50000E941F20BE01695D7F4FCE010E94292058
:105A600064E070E0CE010E942D20B601CE01DF91EE
:105A7000CF911F910F91EF90DF90CF90BF90AF909B
:105A80000C94BC1E0F9300E020E040E060E08EEC40
:105A90009EE00E948C370F9108950895CF93DF9375
:105AA000EC018DEF97E0998388838BA19CA10097EF
:105AB00039F0DC01ED91FC910280F381E02D199524
:105AC0008DA19EA1009739F0DC01ED91FC9102803F
:105AD000F381E02D1995CE010E941B20009739F02B
