:100000007AC00000A6C00000A4C00000A2C000008A
:10001000A0C000009EC000009CC000009AC000006C
:1000200098C0000096C0000094C0000092C000007C
:1000300090C000008EC000008CC000008AC000008C
:1000400088C0000086C0000084C0000082C000009C
:1000500080C000007EC000007CC00000B1C1000074
:1000600078C0000076C0000074C0000072C00000BC
:1000700070C000006EC000006CC000006AC00000CC
:1000800068C0000066C0000064C0000062C00000DC
:1000900060C000005EC000005CC000005AC00000EC
:1000A00058C0000056C0000054C0000052C00000FC
:1000B00050C000004EC000004CC000004AC000000C
:1000C00048C0000046C0000044C0000042C000001C
:1000D00040C000003EC000003CC000003AC000002C
:1000E00038C00000AC00B600C000CA00D400DE007A
:1000F000E800F2003F0111241FBECFEFD1E2DEBFC6
:10010000CDBF00E00CBF12E0A0E0B2E0E8E6F5E011
:1001100000E00BBF02C007900D92AC30B107D9F7D9
:1001200022E0ACE0B2E001C01D92AB34B207E1F7CF
:1001300010E0C6EFD0E000E005C022970109FE0103
:100140000BBF0CD2C43ED10780E00807B1F72DD118
:1001500009C256CF089508950F9300E020E040E0D3
:1001600060E08CE092E07FD00F9108950F9300E063
:1001700020E040E060E082E192E075D00F910895C8
:100180000F9300E020E040E060E088E192E06BD077
:100190000F9108950F9300E020E040E060E08EE1D1
:1001A00092E061D00F9108950F9300E020E040E0CD
:1001B00060E084E292E057D00F9108950F9300E041
:1001C00020E040E060E08AE292E04DD00F91089597
:1001D0000F9300E020E040E060E080E392E043D055
:1001E0000F9108950F9300E020E040E060E086E387
:1001F00092E039D00F910895AF92BF92CF92DF92E3
:10020000EF92FF920F931F93CF93DF936C017B01CB
:10021000C0E0D0E000E010E0F601EC0FFD1F4AE086
:1002200050E06281C701BAD05C016EE2C7014CD0D8
:100230008A0D9B1D080F191F2196C330D10561F748
:100240004AE050E0F6016581C701A8D0800F911FF8
:10025000DF91CF911F910F91FF90EF90DF90CF90A2
:10026000BF90AF9008950F93FC018AE092E09183D4
:10027000808362834383248305830F9108958AE0FA
:1002800092E090933D0280933C0210923E021092C5
:100290003F021092400210924102089561157105CB
:1002A00081F0DB010D900020E9F7AD0141505109CB
:1002B000461B570BDC01ED91FC910280F381E02D90
:1002C000199480E090E00895DC01ED91FC9101909B
:1002D000F081E02D19948F929F92AF92BF92CF92AE
:1002E000DF92EF92FF920F931F93CF93DF93CDB7DF
:1002F000DEB7A1970FB6F894DEBF0FBECDBF7C016D
:10030000C42EE52FCB01D22E19A221E02D1510F01D
:100310002AE0D22E8E010F5D1F4F8D2C912CA12C27
:10032000B12C6C2D7E2FA5019401F6D08C2DD29E80
:1003300080191124015011098A3014F4805D01C024
:10034000895CF8018083211531054105510521F0B3
:10035000C22EE32FCA01E5CFB801C7019FDFA196E6
:100360000FB6F894DEBF0FBECDBFDF91CF911F91C6
:100370000F91FF90EF90DF90CF90BF90AF909F9044
:100380008F9008952115310541F4DC01ED91FC9128
:100390000190F081E02D642F19949DCF9A01462F92
:1003A00050E060E070E0EECF089554D0FDDFD2DE83
:1003B000C0E0D0E0D0DE2097E9F30E940000FACF41
:1003C0001F920F920FB60F9211242F933F938F938A
:1003D0009F93AF93BF938091430290914402A09169
:1003E0004502B09146023091420223E0230F2D379F
:1003F00020F40196A11DB11D05C026E8230F029629
:10040000A11DB11D209342028093430290934402A8
:10041000A0934502B0934602809147029091480212
:10042000A0914902B0914A020196A11DB11D80938D
:10043000470290934802A0934902B0934A02BF91A9
:10044000AF919F918F913F912F910F900FBE0F9081
:100450001F901895789484B5826084BD84B58160BE
:1004600084BD85B5826085BD85B5816085BDEEE6BC
:10047000F0E0808181608083E1E8F0E0108280819B
:1004800082608083808181608083E0E8F0E0808109
:1004900081608083E1EBF0E0808184608083E0EB29
:1004A000F0E0808181608083E1E9F0E0808182601A
:1004B0008083808181608083E0E9F0E080818160D9
:1004C0008083E1EAF0E080818260808380818160C6
:1004D0008083E0EAF0E0808181608083E1E2F1E006
:1004E000808182608083808181608083E0E2F1E0AE
:1004F000808181608083EAE7F0E08081846080838E
:100500008081826080838081816080838081806837
:1005100080831092C1000895A1E21A2EAA1BBB1B72
:10052000FD010DC0AA1FBB1FEE1FFF1FA217B307BF
:10053000E407F50720F0A21BB30BE40BF50B661FD5
:10054000771F881F991F1A9469F760957095809599
:1005500090959B01AC01BD01CF0108950790F691E4
:08056000E02D1994F894FFCF7F
:0C05680000004B02800000000000FC00BE
:00000001FF
